:100000000C94E0030C9427040C9427040C9427040C
:100010000C9427040C9427040C9427040C942704B4
:100020000C9427040C9427040C9435140C94B61BE0
:100030000C943E270C9427040C9427040C9427045A
:100040000C9427040C9427040C9427040C94270484
:100050000C9427040C940C150C9427040C9427047E
:100060000C9427040C9427040C9427040C94270464
:100070000C9427040C9427040C9427040C94270454
:100080000C9427040C9427040C9427040C94270444
:100090000C9427040C9427040C9427040C94270434
:1000A0000C9427040C9427040C94270405010902DE
:1000B000A10185020901A1000509190129081500FE
:1000C0002501950875018102050109300931158165
:1000D000257F95027508810609381581257F9501D0
:1000E00075088106050C0A38021581257F95017572
:1000F000088106C0C005010980A101850319012AF4
:10010000B700150126B700950175108100C0050CD8
:100110000901A101850419012AA002150126A002E6
:10012000950175108100C005010906A1018505052D
:100130000719E029E71500250195087501810205D9
:1001400007190029EF1500250195F07501810205B9
:10015000081901290595057501910295017503910D
:1001600001C00660FF0961A1010962150026FF00B8
:100170009520750881020963150026FF00952075FA
:10018000089102C005010906A101050719E029E748
:1001900015002501950875018102950175088101F9
:1001A0000507190029FF150026FF0095067508812F
:1001B000000508190129059505750191029501753C
:1001C000039101C0000000000000000000000000DA
:1001D000000000000000000000000000000000001F
:1001E00000000000000000007E0F00D4FFFFFFC7EA
:1001F0000000007800000000000000002A2B28000A
:1002000000000000000000000000000000000029C5
:10021000000000002C1E3420212224342627252E05
:10022000362D3738271E1F2021222324252633333D
:10023000362E37381F0405060708090A0B0C0D0E69
:100240000F101112131415161718191A1B1C1D2F35
:100250003130232D350405060708090A0B0C0D0E55
:100260000F101112131415161718191A1B1C1D2F15
:100270003130354C0001010101010101010102028F
:100280000202020202020203030303030303030444
:10029000040404040404050505050506060606060F
:1002A000070707070708080808090909090A0A0AC9
:1002B0000B0B0B0C0C0C0D0D0D0E0E0E0F0F0F106B
:1002C00010111111121213131414151516161717F5
:1002D000181819191A1A1B1B1C1D1D1E1E1F202061
:1002E000212222232424252626272829292A2B2CAB
:1002F0002D2D2E2F30313232333435363738393ACE
:100300003B3C3D3E3F404142434445464748494AC5
:100310004C4D4E4F50515354555658595A5B5D5E93
:100320005F616264656668696B6C6D6F707273752E
:1003300077787A7B7D7E8082838587888A8C8E8F92
:1003400091939596989A9C9EA0A2A3A5A7A9ABADC0
:10035000AFB1B3B5B7BABCBEC0C2C4C6C9CBCDCFAE
:10036000D1D4D6D8DBDDDFE2E4E7E9EBEEF0F3F55C
:10037000F8FAFDFF00AD9DBD00AC9CBC00AB9BBB83
:1003800000AA9ABA00A999B900A898B800A797B787
:1003900000A696B600A595B500A494B400A393B3A7
:1003A00000A292B200A191B100A090B0007D6D8D2D
:1003B000007C6C8C007B6B8B007A6A8A007969897F
:1003C000007868880077678700766686007565859F
:1003D00000746484007363830072628200716181BF
:1003E00000706080004D3D5D004B3B5B004A3A5A17
:1003F00000493959004838580047375700463656A3
:1004000000453555004434540043335300423252C2
:100410000041315100403050001D0D2D001C0C2CAE
:10042000001A0A2A001909290018082800170727A6
:1004300000160626001505250014042400130323C6
:10044000001202220011012100100020001E0E2EB9
:10045000004C3C5C001B0B2B004E3E5E007E6E8E03
:10046000001F0F2F004F3F5F007F6F8F00AF9FBFB8
:10047000165C1E001F002000210022002300240023
:100480002500260027002D002E002A002B00140036
:100490001A000800150017001C0018000C001200BC
:1004A00013002F00300031003961040016000700EE
:1004B00009000A000B000D000E000F00330034008D
:1004C00000002800E1001D001B00060019000500C7
:1004D00011001000360037003872520000004C4204
:1004E000E000E3001459000000002C0000000000B0
:1004F000E60001515000510000004F0013503A0037
:100500003B003C003D003E003F00400041004200F7
:100510004300440045004C0001000100520001006E
:1005200001000100B200010049000100460047003F
:100530004800005C0100500051004F000100010024
:1005400001000100010001004A004B000000DE5CD8
:10055000010001000100010001000100145C010024
:1005600001004D004E00A9000000A800010001009C
:100570000100000000001450000000000100010014
:10058000AC00AA000000AB0001003A003B003C00B8
:100590003D003E003F004000410042004300440057
:1005A00045004C000100C25C0100C55CC65CC75C34
:1005B000C85CC95CCA5CC35C010001000100005C4E
:1005C0000100010001000100010001000100010023
:1005D000CB5CCC5C010001000000DE5C010001008E
:1005E0000100010001000100010001000100010003
:1005F00001000100000001000100010001000000F5
:1006000000000100000000000100010001000100E5
:10061000000001005300540055005600570001002F
:100620000100010001005400550056005700010070
:1006300001005F0060006100010001000100010095
:100640005F006000610001000100105001005C00CB
:100650005D005E0001000100010001005C005D0022
:100660005E00010000005800010059005A005B00C4
:10067000010001000100010059005A005B00010067
:10068000000001000100620063000000000058004B
:100690000000000062006300010001000000010092
:1006A000165C1E001F0020002100220023002400F1
:1006B0002500260027002D002E002A002B00140004
:1006C0001A000800150017001C0018000C0012008A
:1006D00013002F00300031003961040016000700BC
:1006E00009000A000B000D000E000F00330034005B
:1006F00000002800E1001D001B0006001900050095
:1007000011001000360037003872520000004C42D1
:10071000E000E200E300000000002C000000000008
:10072000E60010505000510000004F0009025B002D
:10073000030100A0FA0904000001030101000921DE
:10074000110100012240000705810308000109048E
:100750000100020300000009211101000122220012
:100760000705820320000107050303200001090497
:100770000200010300000009211101000122B6005E
:100780000705840320000112010002000000085A3E
:10079000442111020001020001100344005A0036F6
:1007A00000300052004700420000000E0344005A8F
:1007B0000054004500430048000000040309040001
:1007C00011241FBECFEFDAE0DEBFCDBF04B603FEBB
:1007D00027C08091E4059091E505A091E605B091D0
:1007E000E7058730904BA740B04BD1F41092E40559
:1007F0001092E5051092E6051092E70514BE84B745
:10080000877F84BF0FB6F894A895809160008861B7
:1008100080936000109260000FBEE0E0F8E309955D
:1008200025E0ACE7B2E001C01D92A43EB207E1F7BB
:1008300012E0A0E0B1E0E4E0F4E602C005900D9221
:10084000AC37B107D9F70E9465270C94AE310C94F0
:1008500000009091DE05937051F0811109C0946001
:100860009093DE051092170181E08093AF05089503
:100870008B3110F09866F4CF880F880F982BF0CF4B
:100880009091DE05937049F08093DF056093E00559
:100890004093E10581E08093AF050895E8EDF0E035
:1008A00080818E7F80831092E2001092DA00109295
:1008B000E100A0EEB0E08C9181608C9380818F7715
:1008C000808319BCA7EDB0E08C918E7F8C938081E2
:1008D0008F7E80831092B50308952091E4003091BB
:1008E000E50095E6A9012091EC00822F817020FFA0
:1008F00006C08091E80080FF06C080E00895209146
:10090000E80022FD1AC08091DA03882389F085303F
:1009100089F08091EB0085FD0FC02091E4003091BB
:10092000E50042175307F9F29150E1F684E008958B
:1009300082E0089583E0089581E00895EF92FF92A8
:100940000F931F93CF937C018B010E946D04C82FDE
:10095000811117C08091E80085FD0BC08091E800EF
:100960008E778093E8000E946D04882399F3C82F46
:1009700008C0F70181917F018093F10001501109B6
:1009800049F78C2FCF911F910F91FF90EF90089511
:100990008091DC0387FF13C08091E80082FF06C0CE
:1009A0008091E8008B778093E80004C08091DA039F
:1009B0008111F2CF08958091DA038823D9F38091D1
:1009C000E80080FFF8CF8091E8008E77ECCF982F79
:1009D0009093E900242F762F50E0891731F0709121
:1009E000EC002091ED005091F00021FD07C09F5FC9
:1009F000973071F78093E90081E008953091EB0022
:100A00003E7F3093EB003091ED003D7F3093ED0061
:100A10003091EB0031603093EB007093EC00209349
:100A2000ED005093F0002091EE0027FDE0CF80E034
:100A30000895CF92DF92EF92FF920F931F93CF937F
:100A4000DF93C8EDD0E088818F7E8883E7EDF0E00A
:100A500080818160808384E082BF81E08093B503E0
:100A600088818E7F888302EE10E0F8011082109258
:100A7000DA0081EEC82ED12CF601108288818F77A2
:100A8000888388818068888388818F7D888319BC6A
:100A90001092DA031092DB031092D9031092D8035C
:100AA00090EEE92EF12CF70180818B7F8083888185
:100AB0008160888342E060E080E00E94E704F60104
:100AC00080818E7F8083F801808181608083808136
:100AD00088608083F70180818E7F80838881806138
:100AE0008883DF91CF911F910F91FF90EF90DF905E
:100AF000CF900895FC018091E2039091E303861763
:100B00009707A0F06115710529F49091E8009E7790
:100B10009093E80090E06115710551F4911108C0BF
:100B20008091E80082FF34C080E00895BC01F2CFDC
:100B30008091DA038823C1F18530C1F18091E8000A
:100B400083FD30C08091E80082FDEACF8091E8000B
:100B500080FFE1CF8091F3002091F200382F6115E2
:100B6000710519F02830310558F091E02830310531
:100B700009F090E02091E8002E772093E800CBCF99
:100B800081918093F100615071092F5F3F4FE7CF52
:100B90008091DA03882341F0853041F08091E800AC
:100BA00083FFBECF81E0089582E0089583E0089539
:100BB0008091B7030895209116012223C9F0209156
:100BC000B00327FF15C0E62FE695E695E695EE31D2
:100BD000D8F4E80FF92FF11D677021E030E001C073
:100BE000220F6A95EAF720958281282322830895AF
:100BF000FC01329608962191621303C0DF01119720
:100C00001C92E817F907B9F70895209116012223DD
:100C1000C1F02091B00327FF14C0E62FE695E695BA
:100C2000E695EE31F8F4E80FF92FF11D677021E039
:100C300030E001C0220F6A95EAF78281822B82831D
:100C40000895FC0132962FEF30E04191641751F086
:100C50002F3F19F4411101C0232F3F5F3630A9F710
:100C60002F3F09F40895820F911D27FD9A95FC01ED
:100C7000628308952091A9033091AA0328173907A8
:100C800071F09093AA038093A903E091A703F091D8
:100C9000A803309721F00084F185E02D0994089590
:100CA0002091A5033091A6032817390771F090937E
:100CB000A6038093A503E091A703F091A8033097C2
:100CC00021F00680F781E02D09940895E091A703B3
:100CD000F091A803309721F00190F081E02D099464
:100CE00080E00895FA01811101C0FB010994CF93BE
:100CF000DF938F33910558F5FC01EE0FFF1FEE0FC8
:100D0000FF1FEF01CC58DC4FCE010296FC01A491ED
:100D10000196FC013491FE0185918370C491E82F06
:100D2000F0E050EC859FC00111248A5E9B4FC80FF4
:100D3000D92FD11D6883A80FB92FB11D4C93830FF4
:100D4000911DDC012C93EA56FA4F81E08083DF91FC
:100D5000CF910895FF920F931F93CF93DF93182F96
:100D6000062FF42ED0E0C0E02F2D402F612FCE01B2
:100D70000E9477062196CF33D105B1F7DF91CF914D
:100D80001F910F91FF900895EEEDF5E0248130E181
:100D9000231B08F420E0248381E08093AF050895AD
:100DA000EEEDF5E0248130E1230F08F42FEF2483EA
:100DB00081E08093AF050895EEEDF5E0438120E1F9
:100DC000421B08F440E08181628190E00C94400471
:100DD000EEEDF5E0438120E1420F08F44FEF818111
:100DE000628190E00C944004EEEDF5E0628120E138
:100DF000621B08F460E08181438190E00C94400420
:100E0000EEEDF5E0628120E1620F08F46FEF818181
:100E1000438190E00C944004EEEDF5E08181438144
:100E200062818850990B0C944004EEEDF5E08181CD
:100E300090E04381628108960C9440048091DE0525
:100E400086958695815009F48AE10C942904809155
:100E5000DE05869586958F5F8B3108F081E00C94D6
:100E60002904809315018091DE058370809314011D
:100E70000E946C1083E080931701089522E8241BE0
:100E800008F420E0620F08954095282F429F412DDD
:100E90001124842F0895E42FF0E0EE0FFF1FE1549A
:100EA000FE4F9081921B97FD9195292F38E1239F4A
:100EB000212D1124620F08950F931F9310E0F80164
:100EC000EE0FFF1FE154FE4F9081905797FD9195D3
:100ED000000F111FF801E054FE4F00810052110B6A
:100EE0002003F001219FF00D112408E310E0091BFD
:100EF000110997FD139540039001419F300D112476
:100F0000E20FF31F9F01220F331F2E0F3F1F37FFEA
:100F100002C021583F4F220F232F221F330B620F95
:100F20001F910F9108950F931F93522F10E0F80116
:100F3000EE0FFF1FE054FE4FA081A052BB0B9D019E
:100F40005203F001539FF00D1124000F111FD8011F
:100F5000A154BE4F0C910057110B40039001419FCB
:100F6000300D11242E0F3F1F37FF02C0215C3F4F71
:100F700096E0359527959A95E1F7620F1F910F91AD
:100F800008950F931F93522F10E0F801EE0FFF1FEB
:100F9000E054FE4FA081A052BB0B9D015203F00113
:100FA000539FF00D1124000F111FD801A154BE4F03
:100FB0000C910057110B40039001419F300D1124FB
:100FC0002E0F3F1F37FF02C021583F4F220F232F04
:100FD000221F330B620F1F910F910895EF920F9311
:100FE000972F23E0029FB0011124759567956E0D30
:100FF000792F0F91EF900895322F50E0FA01EE0F04
:10100000FF1FE054FE4F9081905297FD9195440F41
:10101000551FFA01E154FE4F2081231B330B290F8A
:10102000311D97FD3A95620F0895E42FF0E0EE0F21
:10103000FF1FE054FE4F6081621B0895E42FF0E033
:10104000EE0FFF1FE154FE4F6081621B0895622F77
:101050000895E42FF0E0EE0FFF1FE154FE4F4081B2
:1010600034EE439F412D1124E82FF0E050E0445E20
:101070005F4FDA01A21BB1099D01B7FF03C0319593
:101080002195310993E0220F331F9A95E1F7AF01C3
:10109000421B530B9A0157FD20E0582F259F212D0D
:1010A0001124822F08950C94AA060C947706FC0153
:1010B0009B01009729F480E077FF2BC080E808951A
:1010C000AC0197FF04C044275527481B590BB901B1
:1010D000640F751F37FD10C0241B350BC901A5E037
:1010E000880F991FAA95E1F70E94222F80E2861BA4
:1010F000F7FF0FC081950895CB0165E0880F991F18
:101100006A95E1F7BA01621B730B0E94222F80E6F9
:10111000EECF0895EF920F93CF93DF93D72FC82F81
:10112000C9010E19BA010E945708602F681B7D2F54
:101130008C2FDF91CF910F91EF9008950F93CF9364
:10114000DF93D72FC82FC901BA010E945708682F13
:10115000600F7D2F8C2FDF91CF910F910895EF922B
:101160000F931F93CF93DF93D62FC72F182FC9014B
:101170000E19010FBA010E945708081B202F219F4A
:10118000212D1124822F6D2F7C2FDF91CF911F9164
:101190000F91EF9008950F931F93CF93DF93D62F66
:1011A000C72F182FC901212F201B022FBA010E941F
:1011B0005708982F990F990F891B800F282F219F6F
:1011C000212D1124822F6D2F7C2FDF91CF911F9124
:1011D0000F910895E82F86FDE0952E2F2F7086FD44
:1011E0002F5FE695E695E695E670F0E0EE59FE4F46
:1011F0009181929F902D212D112492959F7022957F
:10120000207F922B2081920F87FD919580E8890F96
:1012100008950F931F93CF93DF938B01D82FC42F83
:10122000822F0E94EA08EC2FF0E0EE0FFF1FE1543E
:10123000FE4F90819058890F87FD8195880F682F08
:101240002CE0629F612D1124600F712F8D2FDF9193
:10125000CF911F910F910895AC018230910508F450
:1012600008959FEF413E8EE1580740F49A0195E0C2
:10127000369527959A95E1F798E0920F61E0E62F71
:10128000E90FFF27FF1F9F0135952795822F229F8A
:10129000F001239FF00DF00D11244E175F0738F475
:1012A0009FEF920F961758F78FEF860F08952F3FF5
:1012B000E9F361E0620FF6CF0F93CF93DF93D72F5F
:1012C000C82F47FD419588E390E0841B910947FDB5
:1012D0009395889FB001899F700D700D1124229FF6
:1012E000C001239F900D900D1124860F971F0E941F
:1012F0002C09982F990F890F682F600F7D2F8C2F45
:10130000DF91CF910F91089530E020E0869F212D4D
:10131000969F200D311D1124C9010895AF92BF92EF
:10132000CF92DF92FF920F931F93CF93DF93362FCD
:10133000472FE82FF0E0EC58FD4F71110FC0E491FA
:101340008E2F2E2F6E2F722FDF91CF911F910F9125
:10135000FF90DF90CF90BF90AF900895C72FD0E05F
:101360002491F22E022F10E056E0659FC001112457
:10137000EFEFF0E0BF010E940E2F832F90E0880F67
:10138000991F35E5369FD001379FB00D11248A1B78
:101390009B0B982F990F980F6F01CC1ADD0AC09EF6
:1013A000D001C19EB00DD09EB00D11248B2F499F4E
:1013B000A0011124452F55276F01C41AD50AC09EDC
:1013C000A001C19E500DD09E500D11245F01A91A9D
:1013D000B108AC9E6001AD9ED00CBC9ED00C112417
:1013E000CD2CDD24EC19FD09E09FE001E19FD00D3B
:1013F000F09FD00D1124ED2F62307105A1F050F453
:101400006115710509F49ECF6130710581F0EB2FF4
:10141000852F98CF6430710569F080F066307105D2
:1014200009F490CFF4CFE22F2B2F8D2F8BCFE22F0B
:10143000252F88CFEB2F822F2D2F84CF2B2F8F2D71
:10144000E52F80CFCF92DF92EF92FF920F931F9301
:10145000CF93DF938C01C09118018DE0C89FC02D00
:1014600011242DE0D22EDC0ECD2C2FE32D1510F4FF
:101470009FE3C92E2091E20531E0230F08F42FEFFE
:1014800030E050E040E06FEF7FEF80E090E00E94BE
:101490004B317901D0E02C2FCC1570F081E0FEE3C8
:1014A000FD1508F480E0DF91CF911F910F91FF901F
:1014B000EF90DF90CF900895FE01E35CFD4F8081B7
:1014C00090911901892311F14091B5054150042EE5
:1014D000000C550B47FF1CC0C7016091E20521E0DD
:1014E000620F08F46FEF0E948409AC016091DF0580
:1014F0007091E0058091E105F80109950E948E093F
:10150000462F282F672FCE010E9455082196C3CF62
:10151000FA01EB54FA4F818982130AC0FA01EE0FE7
:10152000FF1FEB54FA4F818D928D8E159F05A8F207
:1015300041505109CFCFDF92EF92FF920F931F934B
:10154000CF93DF937C01C09118018DE0C89FC02D1F
:1015500011241DE01C0F012F103408F00FE36091DF
:10156000E2056695669521E0620F08F46FEF8091C1
:10157000B1059091B2050E948409D82ED0E0C01721
:1015800060F081E01F3308F080E0DF91CF911F9180
:101590000F91FF90EF90DF900895FE01E35CFD4F07
:1015A000808190911901892391F06091DF057091FC
:1015B000E0058091E1052D2D4C2FF70109950E9442
:1015C0008E09462F282F672FCE010E94550821969D
:1015D000D6CF9F92AF92BF92CF92DF92EF92FF92BF
:1015E0000F931F93CF93DF936C01C09118018DE08F
:1015F000C89FC02D11241DE01C0FB12E103410F017
:101600003FE3B32E6091E205669566958091B10542
:101610009091B2050E948409F82E80E48F0D0E94FB
:10162000EA0890E8A92EA80E8F2D0E94EA0820E86B
:10163000922E980ED0E0CB1580F081E01F3308F099
:1016400080E0DF91CF911F910F91FF90EF90DF909D
:10165000CF90BF90AF909F900895FE01E35CFD4F47
:101660008081909119018923A1F06091DF0570912B
:10167000E0058091E105EF2C0C2F292D4A2DF60174
:1016800009950E948E09462F282F672FCE010E94B0
:1016900055082196D0CF7F928F929F92AF92BF92A2
:1016A000CF92DF92EF92FF920F931F93CF93DF932E
:1016B0005C01C09118018DE0C89FC02D11241DE070
:1016C0001C0FF12E103410F03FE3F32E6091E20571
:1016D00066958091B1059091B2050E948409782E9B
:1016E000D0E0CF1590F081E01F3308F080E0DF916B
:1016F000CF911F910F91FF90EF90DF90CF90BF900F
:10170000AF909F908F907F900895FE01E35CFD4F16
:101710008081909119018923C9F1CE01880F991F09
:1017200087589E4FFC01EA5BFF4F2081422F4057B4
:10173000550B6A01895B9F4FFC018081282F205245
:10174000330B4901449F9001459F300D300D11240A
:10175000889CC001899C900D900D1124820F931FCD
:101760000E942C09082F6091DF057091E00580919F
:10177000E105E72C9401A601F50109950E948E0967
:10178000462F282F672FCE010E9455082196A9CFFA
:10179000CF92DF92EF92FF920F931F93CF93DF933D
:1017A0007C01C09118018DE0C89FC02D11241DE05F
:1017B0001C0FD12E103410F03FE3D32E6091E205C0
:1017C00066958091B1059091B2050E948409C82E5A
:1017D000D0E0CD1568F081E01F3308F080E0DF91A4
:1017E000CF911F910F91FF90EF90DF90CF900895D0
:1017F000FE01E35CFD4F808190911901892311F175
:10180000CE01880F991F87589E4FFC01E95BFF4F5F
:1018100020812052330B8A5B9F4FFC01408140574F
:10182000550B6091DF057091E0058091E1050C2D6D
:10183000F70109950E948E09462F282F672FCE01A8
:101840000E9455082196C5CF40915803803F59F416
:101850008091590387FF0DC01092590341110BC0AD
:101860001092500308C0813F81F4809159031816EB
:101870009CF3442381F080915A0390915B03892B60
:1018800009F05AC010924F030895823F49F447FF70
:10189000F0CF10925803809159038111ECCFE0CF23
:1018A000833F19F41416ACF3E4CF90915A03893FA7
:1018B00029F41916F4F610925A03DBCF8A3F19F473
:1018C00097FFD7CFF8CF90915B038B3F29F497FF19
:1018D000D0CF10925B03CDCF8C3F19F41916CCF307
:1018E000C8CF9CE0980F953090F4845F990B21E06D
:1018F00030E0B90102C0660F771F8A95E2F7CB018D
:10190000809590915703892380935703B2CF8D3FE1
:1019100031F4809151038E7F80935103AACF8E3F83
:1019200021F4809151038D7FF7CF8F3F09F0A1CF34
:10193000809151038B7FF0CF08958091510380FDFA
:1019400016C081FD16C082FD16C080914F0388230A
:10195000A1F0883280F428E0829FC001112468E25F
:1019600070E00E94222F862F672B39F0089582E0C5
:10197000089584E0089588E0089581E008958091B5
:10198000510380FD14C081FD14C082FD16C08091FA
:101990005003882381F0843180F422E3829FC001C8
:1019A000112464E170E00E94222F862F08958CE0BC
:1019B000089589E1089585E0089582E30895803FC0
:1019C00031F40E94BF0C8195809359030895813FA3
:1019D00019F40E94BF0CF8CF823F31F40E94BF0C73
:1019E0008195809358030895833F19F40E94BF0C9A
:1019F000F8CF893F29F40E949D0C80935A030895E3
:101A00008A3F21F40E949D0C8195F7CF8B3F31F4E2
:101A10000E949D0C819580935B0308958C3F19F47F
:101A20000E949D0CF8CF9CE0980F953070F4845F75
:101A3000990B21E030E001C0220F8A95EAF78091EE
:101A40005703822B8093570308958D3F31F4809183
:101A5000510381608093510308958E3F21F480915A
:101A600051038260F7CF8F3FB9F7809151038460B3
:101A7000F1CF80E00895F894E82FE295EF70F0E060
:101A800031A1282F2F7081E090E001C0880F2A95A6
:101A9000EAF7982F9095932391A392A1892B82A383
:101AA000789408959091B00392FF06C0282F287172
:101AB0002830F9F4877F846093FF06C0282F2871AF
:101AC0002831F1F4877E84612091B10320FF06C0A4
:101AD000382F38713830D9F4877F816021FF06C0F4
:101AE000282F28712831D1F4877E816194FD877E6B
:101AF0000895282F24712430F9F68B7F8860DCCF7D
:101B0000282F2471243101F78B7E8861DDCF382F97
:101B10003171313019F78E7F8860E0CF282F217125
:101B2000213121F78E7E8861E1CFCF93DF93EC01E5
:101B300082389105A9F1D8F58133910509F496C051
:101B400048F58932910509F48AC08A9709F495C04D
:101B5000C11521E5D20708F0BCC0C11530E5D30797
:101B600008F014C1C83ED10508F09CC0C03ED105A4
:101B700060F5C83AD10508F087C0C53AD10508F02C
:101B8000FDC0C130D10509F12097F9F0C430D1056D
:101B9000E0F440C08533910509F45AC0C997C1F6F5
:101BA0008091B003837089F0C0EED0E00EC0833E18
:101BB000910599F170F4803E910501F1823E910505
:101BC00039F68091B00382FD21C0CE01DF91CF9123
:101BD0000895863E910561F1873E910571F1843E3D
:101BE000910509F0B5CF8091B10381FFEECF8091CF
:101BF000B003C7EED0E084FD0DC0E7CF8091B00305
:101C000080FD12C19091B10390FFDFCFC3EED0E011
:101C100084FFDBCFD0E0C0E0D8CF8091B00382FD5D
:101C200006C19091B10390FDBFCF84FFCECFF2CF1C
:101C30008091B00383FDDDCFC8CF8091B00383FDD9
:101C4000F9C09091B10391FFF0CFC4EED0E0BDCFC9
:101C50008091B00385FFB9CFC9E2D0E0B6CF8091C3
:101C6000B00385FFB2CFC5E3D0E0AFCF8091B00322
:101C700086FFABCFCAE2D0E0A8CF8091B00386FF49
:101C8000A4CFC1E3D0E0A1CFCF3BD10518F6C85A0D
:101C9000D0E0CC0FDD1FCF5DDE4F0990D881C02D85
:101CA000D46493CFC11540E2D40758F4C11581E044
:101CB000D80708F08ACFC03FD10508F4ABCFD06574
:101CC00084CFC11590E4D90708F4A4CFDF70D06A9F
:101CD0007CCFC11525E5D20700F5C11534E5D30742
:101CE00008F08AC0C11543E5D40708F071C0C115DA
:101CF00082E5D80708F467C0CE018370992721E0F8
:101D000030E002C0220F331F8A95E2F7C695C695D0
:101D100080E2C89FE001112452C0C11599E5D9079E
:101D2000A8F4C11528E5D20708F06BC0C11536E547
:101D3000D30708F06FCF8C2F0E94520DC82FD0E030
:101D4000DC2FCC27CC27DF71D0623FCFC1154AE50D
:101D5000D40708F45BC0CE0190568115904208F07C
:101D600059CF8D2F8F710E94520D90E0982F8827A8
:101D700088279F719C012C2BE901E6CFC55AD0E042
:101D8000C25EDE4FC881D0E0D0641FCFCE01E4E058
:101D900096958795EA95E1F783702C2F26952695E1
:101DA000237040E2249F90011124382B8C2F8370E4
:101DB000C1E0D0E002C0CC0FDD1F8A95E2F7C22B54
:101DC000D32BDC6802CFDC2FCC27C16FD06AFDCECD
:101DD000CE018370992721E030E002C0220F331F2B
:101DE0008A95E2F7C695C69590E2C99FE001112455
:101DF000C22BD32BDA68E9CEDC2FCC27C46FD06A94
:101E0000E4CEDC2FCC27C06FD06ADFCE8C2F8F7052
:101E10000E94520D34E0D695C7953A95E1F7CF7000
:101E20009C2FEC01D069D1CEC9E3D0E0CECEC2EE7A
:101E3000D0E0CBCEC6EED0E0C8CE8091FA028111C0
:101E40001092FA0208958091F9029091F802892B7C
:101E50009091F702892B809382029091FA02992344
:101E6000A1F0892B8093820280911601882341F191
:101E70008091B00387FF24C08EE1E4E8F2E090E0B7
:101E8000815000F591110E941D0FE091A703F09180
:101E9000A8033097E1F080911601882359F08091D2
:101EA000B00387FF07C0809182028093830285E0A0
:101EB000809382020280F381E02D82E892E009940F
:101EC00086E0DBCF21912223D9F29F5FD9CF0895FD
:101ED0008091F5029091C402981301C008958F5F1C
:101EE0008770FACF2EE0929F800D1124982F977063
:101EF00086958695869523E0829FF0011124ED5505
:101F0000FD4F50E040E080E0219130E0092E02C01A
:101F1000369527950A94E2F721703327042E01C0E5
:101F2000220F0A94EAF7822B4F5F5F4F433051052F
:101F300059F708952EE0929F800D1124982F9770E5
:101F400041E001C0440F9A95EAF7869586958695FB
:101F500093E0899FF0011124ED55FD4F90E080E062
:101F600070E05191DF0111979B01082E02C0369558
:101F700027950A94E2F72170219525272423252708
:101F80002C9301968330910561F70895882341F0E1
:101F900080959091F90289238093F9020C94230F84
:101FA0000895882339F09091F902982B9093F902C3
:101FB0000C94230F0895809398056093990524E667
:101FC00030E042E050E068E975E080EA0E94E72EE8
:101FD00021E0892B09F020E0822F0895FF920F93D2
:101FE0001F93CF93DF93C82F082F10E00C5E1B4F79
:101FF000F80180818823B9F065EC8EEF0E94DB0F39
:1020000060E08DEF0E94DB0FF8E1CF9FE00111242B
:10201000CC51DC4FF12C69918F2D0E94DB0FF39492
:1020200088E1F812F8CFF8011082DF91CF911F916B
:102030000F91FF900895CF92DF92EF92FF920F934E
:102040001F93CF93DF93C82FC82ED12CC6018A5679
:102050009A4F7C01FC018081882369F165EC8EEF49
:102060000E94DB0F61E08DEF0E94DB0FF0ECCF9F51
:10207000E0011124CA5EDB4F10E000E000939805F8
:10208000DE01A00FB11FE9E9F5E08D91819385E0B4
:10209000E93AF807D1F724E630E041E150E068E999
:1020A00075E080EA0E94E72E892B81F4005F1F4FC4
:1020B000003C110519F7F7011082DF91CF911F91B4
:1020C0000F91FF90EF90DF90CF900895F601EC5EB6
:1020D000FB4F81E08083EFCF80E00E941B1081E006
:1020E0000C941B109091DA03943029F58093B2037D
:1020F0007093B4036093B3039093E9008FEF9091D2
:10210000E800815095FD06C095ED9A95F1F7000025
:102110008111F5CF8091E80085FF0DC050E040E0CF
:1021200063E070E082EB93E00E949E048091E800FF
:102130008E778093E8000895BC0184E00C947210BF
:10214000BC0183E00C9472109C0184E08093E90050
:102150009FEF8091E800915085FD06C085ED8A953E
:10216000F1F700009111F5CF8091E80085FF0CC0D8
:1021700050E040E066E070E0C9010E949E0480915A
:10218000E8008E778093E8000895CF93DF93EC0109
:10219000809116018823B1F18091B00387FF32C08E
:1021A00060E284E08093E9008FEF9091E800815035
:1021B00095FD06C095ED9A95F1F700008111F5CFD8
:1021C0008091E80085FF1BC08091160170E050E00F
:1021D00040E0811104C050E040E068E070E0CE01D2
:1021E0000E949E048091E8008E778093E80080E250
:1021F000FE01A8EBB3E001900D928A95E1F7DF9123
:10220000CF91089568E081E0CDCF81E08093E00038
:1022100080E28093D8001092C9008FE19EE401977C
:10222000F1F700C0000087E090EBDC018093E4054B
:102230009093E505A093E605B093E70588E19CE05F
:102240000FB6F894A895809360000FBE909360003D
:10225000FFCFCF93DF93C7E5D2E060E0CE010E94CD
:1022600027312196C11584E0D807B9F7DF91CF91C6
:1022700008956F927F928F929F92AF92BF92CF926A
:10228000DF92EF92FF920F931F93CF93DF9380E73C
:10229000C82E84E0D82E9FECE92EF12CE701CC5813
:1022A000D10936011BC0F50185909490692DC801B4
:1022B0000E942731682DC80101960E94273182E0D3
:1022C000A80EB11C0E5F1F4FC017D10761F78CE13C
:1022D000680E711C6C96CE15DF0529F08E010C512D
:1022E00011095301E0CF7E018CE8E80EF11C8CE867
:1022F000C80ED11C8FEFE81682E0F80679F6DF9160
:10230000CF911F910F91FF90EF90DF90CF90BF90F2
:10231000AF909F908F907F906F900895CF93C82F2C
:102320006FEF811161E283E290E00E9427316FEF4D
:10233000C11169E084E290E00E9427316FEFC11182
:1023400066E085E290E0CF910C94273180E00E9416
:102350008E1160E086E290E00E9427310E943911E0
:102360000E94291181E00C948E11CF93C92F682F00
:1023700084E090E00E9427316C2F82E290E0CF91C0
:102380000C9427319091B10392FB222720F9281752
:1023900051F080FB92F99093B1038091B00390913A
:1023A000B1030C94B51108950F931F93CF93DF934E
:1023B000C42FD0E0CC0FDD1F2CE1629FC00DD11DDA
:1023C00011243CE8839FC00DD11D1124CE018796B6
:1023D0000E940931082F10E0102F0027CE018896A7
:1023E0000E9409319801282BC901DF91CF911F91DB
:1023F0000F910895462F843038F4753028F46E30EC
:1024000018F4672F0C94D41190E080E00895CF92D7
:10241000DF92FF920F931F93CF93DF936C01009194
:10242000B0058091FB02082BC7E0D0E010E0FC2E45
:10243000C8010C2E02C0959587950A94E2F780FD9D
:102440000CC02197A0F7F12C8F2DDF91CF911F9118
:102450000F91FF90DF90CF900895B6018C2F0E94CE
:10246000FA110E94950D019761F3EECFCF93DF93A0
:10247000EC010E940712BE010E94FA11DF91CF9178
:102480000C94950DFC01808191810E943612292FB8
:102490002F7092959F7092509E3078F4E92FF0E063
:1024A000E055FE4C0C94362F803F19F020F4883E06
:1024B00020F481E00895843FE1F380E00895883EB0
:1024C000C0F3813FD1F7F5CF822F8695869586950B
:1024D000089583E290E00E940931813289F484E218
:1024E00090E00E940931893059F485E290E00E9421
:1024F000093191E0863009F090E0892F81700895CC
:1025000080E0FCCFCF9384E090E00E940931C82F97
:1025100082E290E00E940931982F8C2FCF9108958C
:10252000CF92DF92FF920F931F93CF93DF930E947E
:10253000382E65EC8EEF0E94DB0F60E08DEF0E947D
:10254000DB0FC0E060E08C2F0E94DB0FCF5FC83153
:10255000C9F765EC8EEF0E94DB0F61E08DEF0E9402
:10256000DB0FC0E060E08C2F0E94DB0FCF5FC03C30
:10257000C9F765EC8EEF0E94DB0F63E08DEF0E94E0
:10258000DB0F6FEF81E00E94DB0F61E080E00E94D3
:10259000DB0F8FE39CE90197F1F700C0000044E7EF
:1025A00053E070E060E098E1F92EC1E0D0E001E096
:1025B000FA01319614913196B4913196A491FB01B0
:1025C000EE0FFF1FEE0FFF1FEC58FC4F849183703E
:1025D00090E0E12FE695E695E695F89E9001F99E4C
:1025E000300D11242C513C4FE20FF32FF11D1770C9
:1025F0006E0101C0CC0C1A95EAF710811C291083DA
:10260000EB2FE695E695E695E20FF32FF11DB770F7
:102610006E0101C0CC0CBA95EAF7B081BC29B08339
:10262000EA2FE695E695E695E20FF32FF11DA770E8
:102630009E0102C0220F331FAA95E2F7D901208123
:102640002A2B20838C5E9B4FFC0100836F5F7F4FA2
:102650004C5F5F4F6F33710509F0AACF80E00E9495
:10266000EE0F81E0DF91CF911F910F91FF90DF90EE
:10267000CF900C94EE0F1F93CF93DF93EC01FC01EE
:10268000E35CFD4F80816823C9F00E94AB2F182FB7
:102690000E94AB2F8F77782F20E8720F08F47FEF1E
:1026A000612F8091E1050E948E09462F282F672F08
:1026B000CE01DF91CF911F910C945508DF91CF91FE
:1026C0001F910895DF92EF92FF920F931F93CF9384
:1026D000DF938C01FC01E35CFD4F8081682381F175
:1026E000D090E005D091E105C091DF05EC2EF12CF2
:1026F0000E94AB2F282FC7018C549F4F68E671E0D2
:102700000E94222F8E199F0997FD03969595879514
:102710009595879523706C2F289F600D11247D2D32
:102720008D2F0E948E09462F282F672FC801DF9119
:10273000CF911F910F91FF90EF90DF900C9455086F
:10274000DF91CF911F910F91FF90EF90DF9008954F
:10275000EEEDF5E085E2808380911B0190911C01F4
:10276000A0911D0181839283A3838FE784838FEFE0
:10277000858346E050E06CE170E0CF010C941731A6
:1027800090E080E00E941131893E9E4F11F40C943C
:10279000691280E0089569EE7EEF90E080E00E948B
:1027A000453160E082E090E00E94273160E083E004
:1027B00090E00E9427311092FB0260E084E090E0FC
:1027C0000E94273160E082E290E00E94273160E0C1
:1027D00085E090E00E94273160E086E090E00E9472
:1027E00027316FEF87E090E00E94273140E050E012
:1027F000BA0188E090E00E94393160E08DE090E01D
:102800000E94273140E050E0BA0188E190E00E9448
:10281000393160E087E190E00E94273140E050E0EC
:10282000BA018CE190E00E94393170E060E080E212
:1028300090E00E94453140E050E0BA0188E190E02C
:102840000E94393180E00E948E110E94A61140E062
:1028500050E0BA018FE090E00E94393140E050E052
:10286000BA0183E190E00C9439311F920F920FB6B8
:102870000F9211242F933F934F935F936F937F9306
:102880008F939F93AF93BF93EF93FF938091E1005A
:1028900082FF09C08091E20082FF05C08091E100C3
:1028A0008B7F8093E1008091DA0080FF24C08091CB
:1028B000D80080FF20C08091DA008E7F8093DA00FC
:1028C0008091D90080FF9BC080E189BD82E189BDF4
:1028D00009B400FEFDCF81E08093DA038091B50357
:1028E000811109C00E944E040E9419058091E200E6
:1028F00084608093E2008091E10080FF17C08091A6
:10290000E20080FF13C08091E2008E7F8093E2009E
:102910008091E20080618093E2008091D800806223
:102920008093D80019BC85E08093DA038091E100A0
:1029300084FF29C08091E20084FF25C080E189BD29
:1029400082E189BD89B5982F917080FFFBCF80917E
:10295000D8008F7D8093D8008091E1008F7E809396
:10296000E1008091E2008F7E8093E2008091E2009E
:1029700081608093E2008091DB03882309F445C0E5
:1029800084E08093DA038091E10083FF27C0809187
:10299000E20083FF23C08091E100877F8093E10004
:1029A00082E08093DA031092DB038091E1008E7F56
:1029B0008093E1008091E2008E7F8093E20080911D
:1029C000E20080618093E20042E060E080E00E94EB
:1029D000E7048091F00088608093F000FF91EF9110
:1029E000BF91AF919F918F917F916F915F914F9127
:1029F0003F912F910F900FBE0F901F90189519BC0B
:102A00001092DA031092B50376CF8091E30087FD30
:102A100093E09093DA03B7CF78941F921FB61F927A
:102A200011248F939F93AF93BF938091AC039091A8
:102A3000AD03A091AE03B091AF030196A11DB11DEE
:102A40008093AC039093AD03A093AE03B093AF0318
:102A5000BF91AF919F918F911F901FBE1F901895AE
:102A60009C014FB7F8948091AC039091AD03A09175
:102A7000AE03B091AF034FBF821B930B08952FB7E6
:102A8000F8948091AC039091AD03A091AE03B09106
:102A9000AF032FBF08953F924F925F926F927F9244
:102AA0008F929F92AF92BF92CF92DF92EF92FF925E
:102AB0000F931F93CF93DF93682E8091150186119A
:102AC00024C09091DE0593702091140130E081E0E4
:102AD0009217130609F480E0817080931A018091A7
:102AE000E30590911901981739F08093190140E09E
:102AF00060E080E00E9453082AE1261560F0E62D90
:102B0000F0E0E254FE4C0C94362F81E0E5CF80914A
:102B10001A01811102C0C0E049C140E060E080E0DC
:102B20000E945308F8CFC09118018DE0C89FC02DB6
:102B300011241DE01C0F012F103408F00FE36091E9
:102B4000DF057091E0058091E1050E948E09F62E67
:102B5000E72ED82ED0E0C01728F0C1E01F3308F4CC
:102B600025C1D9CFFE01E35CFD4F80819091190111
:102B7000892331F02D2D4F2D6E2DCE010E94550849
:102B80002196E9CFC09118018DE0C89FC02D112476
:102B90001DE01C0F012F103408F00FE3E090E0055A
:102BA000F090E105D091DF056D2F7E2D8F2D0E94D5
:102BB0008E09D62EC72EB82E6091E2056D0F7E2DA0
:102BC0008F2D0E948E09F62EE72EA82ED0E0C0177A
:102BD00020F6FE01E35CFD4F90818091190189236D
:102BE00059F02A2D4F2D6E2D90FD03C02B2D4D2D0C
:102BF0006C2DCE010E9455082196E9CFC091180195
:102C00008DE0C89FC02D11241DE01C0FF12E103443
:102C100010F0FFE3FF2EE090E005D090E105209159
:102C2000E20500E4029F012D1124D0E0CF1508F049
:102C300094CFFE01E35CFD4F8081909119018923BF
:102C4000D9F0FE01EE0FFF1FE154FE4F6081069F99
:102C5000B0011124E5E075956795EA95E1F780915B
:102C6000DF05680F7E2D8D2D0E948E09462F282F9F
:102C7000672FCE010E9455082196D8CFC091180128
:102C80008DE0C89FC02D11241DE01C0F012F1034B2
:102C900008F00FE3F090DF05D091E005E090E1054A
:102CA0006091E2056695669566958091B105909173
:102CB000B2050E9484090E94EA08805887FD819528
:102CC000880F282F3E2D239F212D1124822F6F2D19
:102CD0007D2F0E948E09F62EE72ED82ED0E0C01749
:102CE00008F03BCFFE01E35CFD4F8081909119011C
:102CF000892331F02D2D4F2D6E2DCE010E945508C8
:102D00002196EDCF89E298E00E949B0A04C08BECEB
:102D100098E00E94C80BC82F49C08FEA98E00E9433
:102D20004B0BF9CF87E298E0EFCF8EE198E0ECCF44
:102D300085E198E0E9CF8CEF97E0E6CF8EEE97E063
:102D4000EECF8CE599E0E5CF8EE998E0E2CF8AE816
:102D500098E0E5CF81EC97E00E94E90ADCCF83E9B7
:102D600097E0FACF8CE597E0F7CFC0911A01C11137
:102D700042C06091E20520E1620F08F46FEF80919C
:102D8000B1059091B2050E9484096AE070E00E944A
:102D90000E2F892B09F0BFCE0E94AB2F6FE370E09E
:102DA0000E94222F609119010E94621380911801E4
:102DB0008F5F80931801C1110CC082E080931701CE
:102DC00080911A01811105C0611003C083E08093D6
:102DD0001701DF91CF911F910F91FF90EF90DF903E
:102DE000CF90BF90AF909F908F907F906F905F90AB
:102DF0004F903F900895C09118018DE0C89FC02D5D
:102E000011245DE0F52EFC0E0F2D8FE38F1508F4D5
:102E10000FE3D0E010E0C017D1072CF0C1E0AEE323
:102E2000AF1520F678CE60911901CE010E94621391
:102E30002196F1CFC0911A01C1111EC06091E20527
:102E400020E1620F08F46FEF8091B1059091B20517
:102E50000E94840965E070E00E940E2F892B09F022
:102E60005ACE0E94AB2F6FE370E00E94222F609138
:102E700019010E943B139ACFC09118018DE0C89FA1
:102E8000C02D11244DE0F42EFC0E0F2DBFE3BF1515
:102E900008F40FE3D0E010E0C017D10734F0C1E030
:102EA000EEE3EF1508F082CF36CE60911901CE0126
:102EB0000E943B132196F0CFC09118018DE0C89F6E
:102EC000C02D11241DE01C0F012F103408F00FE35A
:102ED000E090E005F090E105D091DF056091E2051A
:102EE0006695669566958091B1059091B2050E94B0
:102EF00084090E94EA08805887FD8195880F682F11
:102F00002CE0629F612D11246D0F7E2D8F2D0E946C
:102F10008E09F62EE72ED82ED0E0C01708F01DCE71
:102F2000FE01E35CFD4F808190911901892331F00E
:102F30002D2D4F2D6E2DCE010E9455082196EDCFDF
:102F400089E099E0E1CE8BE497E0DECEC0911801F4
:102F50008DE0C89FC02D11243DE0532E5C0E152D31
:102F600026E4251508F416E480911A01882361F0FF
:102F700040E060E080E00E945308EFE5F3E086E483
:102F8000DF011D928A95E9F780911801811115C022
:102F900080915D0390915E030E94301521E089319C
:102FA000910508F420E020935C03499730F00E94DB
:102FB0003F1590935E0380935D03D0E0E12EF12CEA
:102FC00085E0882E912C9EE0492E2AEA322ECE15DD
:102FD000DF0534F0C1E0B5E4B51508F0E7CE9BCDD0
:102FE000CE01B4010E94222F6B015C014A9CC001FA
:102FF0004B9C900D1124FC01E15AFC4FE60FF71F8A
:10300000708087589E4FFC01E60FF71F00810F3F2D
:1030100051F110E0F801E35CFD4F808190911901BE
:10302000892309F1372D25E5321B08F430E0709132
:10303000E005232D472D240F08F42FEF4091E105E3
:10304000822F880F820F8E5F282F249F212D11241D
:10305000822F632D631B0E948E09462F282F672F16
:10306000C8010E94550880915C03882381F0372DA8
:1030700041E0341B08F430E04A9CC0014B9C900DA9
:103080001124815A9C4FC80ED91ED6013C9321961B
:103090009ECF84E497E00E94220A3DCE8EE397E023
:1030A000FACF0E943F159C019091580380915903DB
:1030B000982B21F0309355032093540390915A0399
:1030C00080915B03982B21F030935303209352039C
:1030D000E091A703F091A803309749F082E0809334
:1030E00056030480F581E02D86E593E00994089568
:1030F00090E080E00E94500690E080E00E943A0656
:103100001092F8021092F7020E94230F86E0E6E583
:10311000F3E0DF011D928A95E9F7109250031092B7
:103120004F03109251030C9451188093B0050C94E6
:1031300078188091B005982F9670963019F48860B1
:103140000C949518877FFCCF21E030E001C0220F5E
:103150008A95EAF720958091B00582230C94951802
:103160009091F602809589238093F602282F27708C
:1031700039F4282F082E000C330B9217130621F474
:103180009091B10392FF07C08595859585950E9422
:10319000A4181092F602089521E030E001C0220F39
:1031A0008A95EAF78091B005822B0C94951880934C
:1031B000FB020C9478181092F90280911601E4E851
:1031C000F2E0882359F08091B00387FF07C08EE1B9
:1031D000DF011D928A95E9F70C94781886E0F8CF04
:1031E0001F93CF93DF93CDB7DEB7AA970FB6F894AE
:1031F000DEBF0FBECDBF8CED93E02091F100DC016E
:103200002D93CD01B3E0843E9B07B9F78091DD0398
:10321000833009F471C0B8F4813009F448C08230B9
:1032200009F4B2C08091E80083FF88C28091DC037A
:103230009091DD039A3008F081C2E92FF0E0E75267
:10324000FE4C0C94362F8A3009F48DC08B3009F473
:1032500070C0893039F78091DC03813219F7809191
:10326000E0039091E103009711F00297D9F6809165
:10327000E800877F8093E8008091E80082FF37C0F4
:103280009091F3008091F200029729F48091F1006F
:103290008B7F813021F48091F1008093B70380917E
:1032A000E8008B778093E8000E94C804BBCF809130
:1032B000DC03813A09F0B6CF8091E800877F8093E4
:1032C000E8008091E0039091E103892B61F460E2D2
:1032D00088EB93E070E00E947A058091E8008B779C
:1032E0008093E8009FCF60E090E080E0F3CF809192
:1032F000DA038111C1CF96CF8091DC03813A09F0C6
:1033000091CF8091E0039091E103892B09F08ACF5E
:103310008091E800877F8093E8008091E80080FF3B
:10332000FCCF809116018093F1008091E8008E77A8
:10333000B9CF8091DC03813209F074CF8091E00332
:103340009091E103892B09F06DCF8091E800877F90
:103350008093E8000E94C8048091DE0380931601E8
:103360000E94DB185FCF8091DC03813209F05ACFD5
:103370008091E800877F8093E8000E94C8048091D4
:10338000DF038093B6034ECF8091DC03813A09F0CE
:1033900049CF8091E800877F8093E8008091E80022
:1033A00080FFFCCF8091B603BECF803899F0823881
:1033B00009F0C4C18091E0038F70873008F0BEC16E
:1033C0008093E9008091EB0085FB882780F91092BB
:1033D000E90006C08091D8039091D90391118260D1
:1033E0009091E800977F9093E8008093F10010920D
:1033F000F1008091E8008E779DC1882309F48BC18C
:10340000823009F09BC18091DE0381118EC18091D1
:10341000E0038F702FEF280F263008F08FC18093C4
:10342000E9002091EB0020FF80C1933031F48091BE
:10343000EB0080628093EB0078C19091EB0090618B
:103440009093EB0021E030E001C0220F8A95EAF76B
:103450002093EA001092EA008091EB008860EACFA6
:1034600081116CC11091DE031F778091E300807899
:10347000812B8093E3008091E800877F8093E800B0
:103480000E94C8048091E80080FFFCCF8091E30097
:1034900080688093E30082E0111183E08093DA0377
:1034A0004DC18058823008F049C12091DE0330912F
:1034B000DF032C3DE3E03E07A1F583E08A838AE247
:1034C00089834FB7F894DE01139620E03EE051E285
:1034D000E32FF0E050935700E49120FF03C0E29502
:1034E000EF703F5FEF708E2F90E0EA30C0F0C7962C
:1034F0008D939D932F5F243159F74FBF8091E80042
:10350000877F8093E8006AE270E0CE0101960E9416
:103510007A058091E8008B778093E8000FC1C09610
:10352000E7CF8091E0039091E103432F552743308B
:10353000510509F44AC078F54130510509F47AC0C3
:103540008BE590E0ECE2F7E04230510509F0F6C07F
:103550002091E800277F2093E8002091E20330913A
:10356000E3038217930708F49C0140E0211531051D
:1035700009F065C0411163C08091E80082FDC9CFA8
:103580008091DA03882329F2853019F28091E800CE
:1035900083FFF2CFBECF4132510509F43CC0423225
:1035A000510509F0CBC08330910508F0C7C0FC017C
:1035B000EE0FFF1FE359FE4F0190F081E02D865979
:1035C0009E4FDC018C9190E01AC0332721303105E9
:1035D000D1F02115310561F02230310509F0AEC07E
:1035E000E9E9F7E0E4918E2F90E0E9E9F7E007C020
:1035F000EBEBF7E0E4918E2F90E0EBEBF7E0009738
:1036000009F49CC0A5CFEBEAF7E0E4918E2F90E09F
:10361000EBEAF7E0F4CF8330910508F08FC0880F14
:10362000991FFC01ED58FE4F0190F081E02D89E0DB
:1036300090E08ECF82E190E0E7E8F7E089CF8091DB
:10364000DA03882309F465CF853009F462CF8091CD
:10365000E80083FD5ECF8091E80082FD8DCF8091F0
:10366000E80080FF83CF9091F3008091F200211554
:10367000310519F08830910550F041E0089709F0C4
:1036800040E08091E8008E778093E8006FCF44910E
:103690004093F1003196215031090196E8CF8038EE
:1036A00009F04CC08091E800877F8093E80080910A
:1036B000DB038093F1009DCE811140C01091DE03A9
:1036C0001230E0F58091E800877F8093E800109346
:1036D000DB030E94C804112311F084E005C080912F
:1036E000E30087FDFACF81E08093DA0342E061ECEA
:1036F00081E00E94E70442E261EC84E00E94E7047A
:1037000042E261EC82E00E94E70442E260EC83E086
:103710000E94E70413C08091DE03813079F481E0D8
:10372000933009F080E08093D9031092E9008091F2
:10373000E800877F8093E8000E94C8048091E80039
:1037400083FF0AC08091E800877F8093E800809122
:10375000EB0080628093EB00AA960FB6F894DEBF70
:103760000FBECDBFDF91CF911F9108951F920F9291
:103770000FB60F9211242F933F934F935F936F9344
:103780007F938F939F93AF93BF93CF93DF93EF93E9
:10379000FF93D091E900DF708091EC00C82FC170D9
:1037A00080FDC0E81092E9008091F000877F80934F
:1037B000F00078940E94F0181092E9008091F000D7
:1037C00088608093F000CD2BCF70C093E900FF910B
:1037D000EF91DF91CF91BF91AF919F918F917F91A9
:1037E0006F915F914F913F912F910F900FBE0F906E
:1037F0001F9018958823B1F19CEF980F913A38F4F7
:10380000682F82E892E00E94DB050C94230F90E27F
:10381000980F983088F4877021E030E0A90102C049
:10382000440F551F8A95E2F7CA0180959091F902DD
:1038300089238093F902E9CF9BE5980F933020F418
:1038400090E080E00C94500698E5980F973120F4B2
:1038500090E080E00C943A06803F20F00E94240C17
:103860000C9451180895CF93C82F882309F46EC083
:103870008CEF8C0F813AB8F580911601882311F1F5
:103880008091B00387FF1EC0EC2FE695E695E69584
:10389000F0E0EE57FD4F828190E04C2F477021E021
:1038A00030E002C0220F331F4A95E2F782239323B0
:1038B000892B89F06C2F82E892E00E94DB050E9440
:1038C000230F09C0E4E8F2E08191C81799F382E080
:1038D000EA38F807C9F76C2F82E892E00E940506E3
:1038E000CF910C94230F80E28C0F883068F4C7705E
:1038F00021E030E001C0220FCA95EAF78091F90279
:10390000822B8093F902ECCFEBE5EC0FE33040F42F
:10391000F0E0E25EFE4F808190E0CF910C94500683
:10392000E8E5EC0FE73150F4F0E0EE0FFF1FEF5D3C
:10393000FE4F80819181CF910C943A06C03F30F0C8
:103940008C2F0E94DF0CCF910C945118CF910895C9
:103950001F93CF93DF93182FD0E0C0E0893311F489
:10396000C0E5D0E0812F0E94331C209731F4812FD5
:10397000DF91CF911F910C94FA1B8FE99FE0019783
:10398000F1F700C000002197F0CF0F931F93CF9362
:10399000DF93C62FD42F022FFC0182818823A1F050
:1039A0006093AE050E943F159093AD058093AC05E2
:1039B000C77081E001C0880FCA95EAF7DF91CF9107
:1039C0001F910F910C94D10F8091AE05681335C0F3
:1039D0008091AC059091AD050E943015883C910511
:1039E00060F510E21D0FCD17B9F080E28C0F883022
:1039F00040F4C77081E001C0880FCA95EAF70E94C1
:103A0000C60F183048F481E09D2F977001C0880FD1
:103A10009A95EAF70E94D10F802F0E94A81C1830B7
:103A200098F4D77081E001C0880FDA95EAF7DF914A
:103A3000CF911F910F910C94C60FC77081E001C008
:103A4000880FCA95EAF7F3CFDF91CF911F910F91BD
:103A500008953F924F925F926F927F928F929F92C2
:103A6000AF92BF92CF92DF92EF92FF920F931F938C
:103A7000CF93DF9300D000D00F92CDB7DEB78C018B
:103A8000FC0183819481892B31F08081918189238C
:103A90008F3F09F053C50F900F900F900F900F902C
:103AA000DF91CF911F910F91FF90EF90DF90CF901A
:103AB000BF90AF909F908F907F906F905F904F904E
:103AC0003F9008950E940712F82E682F89819A81ED
:103AD0000E949A0F69817A818F2D0E94FA117C01D0
:103AE000F8018281882309F4EFC4970122513F45F0
:103AF0002031310508F015C58FEF93E00E940931A0
:103B0000FEEEEF0E57E5852E52E0952E882381F1CB
:103B10008091F602877009F4BECFF8018281882374
:103B200009F4B9CF82E00F900F900F900F900F9093
:103B3000DF91CF911F910F91FF90EF90DF90CF9089
:103B4000BF90AF909F908F907F906F905F904F90BD
:103B50003F900C94B018811424E09206C9F2C4017D
:103B60000E940931811101C0EA943FEF831A930A40
:103B7000E110F1CF1C821B82442443944AE0342E8E
:103B800074018FEFE81AF80AC4010E940931898391
:103B90001A82882309F4BCCF9FEF980F933000F569
:103BA0008A83498292E0890E911CC7010E940931E3
:103BB0008B83882309F4ACCFFE0131967F01F70196
:103BC00020812223E9F2213009F049C091818281CC
:103BD000913041F4F2E0EF0EF11C0E94A81C09C0E4
:103BE0004701EACF923049F422E0E20EF11C0E9434
:103BF000331C3FEFE31AF30AE2CF933031F432E0A3
:103C0000E30EF11C0E94FA1BF4CF943021F08FEFE9
:103C1000E81AF80AEECF92E0E90EF11C30E020E05D
:103C2000B7016F5F7F4FF70141818053990B8A3055
:103C3000910550F021503109E0F28FE99FE00197A2
:103C4000F1F700C00000F6CF329EF001339EF00D78
:103C500011249C012E0F3F1F842F7B01E1CFE22F07
:103C6000F0E0EC50FE4F5490822F86958695869515
:103C700090E0FC01EC51FE4F64902770712C022EF5
:103C800002C0759467940A94E2F7E1E06E2277240B
:103C9000FC01EC52FE4FA490B12C022E02C0B59450
:103CA000A7940A94E2F7F1E0AF22BB24FC01EC53A5
:103CB000FE4FC490D12C02C0D594C7942A95E2F748
:103CC00021E0C222DD246114710419F081EE0E940A
:103CD000331CA114B10419F086EE0E94331C852D0B
:103CE0000E94A81CAB2819F086EE0E94FA1B6728D8
:103CF00019F081EE0E94FA1BCD2809F47ACF8CE2EC
:103D00006CCF81E00E94CC180E94991801CF81E00D
:103D10000E94A418F9CF82E0FBCF95EFE9169CE54D
:103D2000F90609F462C008F45CC027E245EE66EECD
:103D3000F6EFEF16FCE5FF0609F4EFC3882309F45C
:103D40000EC41092AE0522E0E2162CE5F20608F44D
:103D500045C136E1E3163CE5F30630F0C7018A5F62
:103D60009C45099708F03AC10E9482129093B103D2
:103D70008093B00380E1E8168CE5F80609F4FDC0F5
:103D800008F07CC0E8E0EE16ECE5FE0609F4E7C0BA
:103D900008F048C024E0E2162CE5F20609F4D7C08A
:103DA00058F582E0E8168CE5F80609F4CAC080915F
:103DB000B003826093E0E9169CE5F90609F4C4C0FB
:103DC0008091B0039091B1030E94B5110E94DB185D
:103DD0009FCE27E245EE65EEA0C326E241EE60EEFF
:103DE0009CC327E245EE64EE98C326E241EE62EE04
:103DF00094C328E241E0EFCF8091B0038061E6E018
:103E0000EE16ECE5FE0609F49FC08091B0038860D1
:103E1000F7E0EF16FCE5FF0608F496C08091B003CA
:103E2000806292C08091B0038D7F2CE0E2162CE579
:103E3000F20609F489C060F48AE0E8168CE5F80619
:103E400009F497C008F48FC08091B0038E7F7CC0C6
:103E50008091B003877FEEE0EE16ECE5FE0609F4F4
:103E600073C08091B0038B7FFFE0EF16FCE5FF0687
:103E700008F46AC08091B0038F7E66C02BEFE21613
:103E80002CE5F20609F467C068F583E1E8168CE5D5
:103E9000F80609F47AC090F4E1E1EE16ECE5FE06CE
:103EA00009F46FC0F2E1EF16FCE5FF0609F088CFD8
:103EB0000E94DB188091B0038F7746C025E1E2169F
:103EC0002CE5F20609F469C008F47DC08AEFE81613
:103ED0008CE5F80609F074CF8091B103816080937E
:103EE000B1036ECF9FEFE9169CE5F90609F451C0C6
:103EF000A0F48091B1038D7FFDEFEF16FCE5FF0686
:103F000071F38091B1038E7F2EEFE2162CE5F2065D
:103F100030F38091B1038360E2CF31E0E3163DE5F9
:103F2000F30609F459C008F444C060E092E0E916D1
:103F30009DE5F90609F044CF8EE090E00E9427311C
:103F40003FCF8091B00381608093B00339CF8091DF
:103F5000B0038460F9CF8091B1038260C0CF8091BB
:103F6000B0038064F1CF0E94DB188091B0038068B9
:103F7000EBCF8091B0038C60E7CF8091B0038F7D51
:103F8000E3CF8091B0038F7BDFCF8091B003837F3D
:103F9000DBCF8091B1038C7FA2CF8091B00382FBF5
:103FA000992790F921E0922790FB82F990FB83F901
:103FB000CBCF8091B103982F909591708E7F892BF4
:103FC00090FB81F98CCF0E94DB189091B003892F70
:103FD00097FB87F98058B8CF61E0AECF8091F902A6
:103FE000E6E1EE16ECE5FE0609F0C8C28A7A91E039
:103FF00009F490E09093A20269E2811165E382E8FE
:1040000092E00E9405060E94230F82CD8091DE057A
:1040100091E089278093DE05109217019093AF05F8
:1040200077CD4EE157E067E277E00E94720670CDEF
:1040300047E257E06EE177E0F8CF4CE057E065E10A
:1040400077E0F3CF45E157E06CE077E0EECF44EF67
:1040500056E060E077E0E9CF40E057E064EF76E0DB
:10406000E4CF48EE56E06CED76E0DFCF44EC56E06E
:1040700060ED76E0DACF40ED56E064EC76E0D5CF47
:1040800081E00E94290444CD89E0FBCF9BE5E9163D
:104090009DE5F90611F1ECE5EE16EDE5FE0609F0F9
:1040A0009FC28091B10382FB882780F991E0892724
:1040B0000E94C21195C20E94DB18FFEF24E33CE08E
:1040C000F15020403040E1F700C000000E9405118F
:1040D0000E94CB131DCD81E0EBCF80E0E9CFC7017B
:1040E0000E94720FD82E8BC22F2D2F70C22E8F2DB3
:1040F000807F19F0C29490EFC922DD20C9F0CC2056
:1041000069F080E28E0D883010F081100BC0809134
:10411000F902C82AC092F9020E94230F8E2D0E9434
:10412000331C19C08091F802C82AC092F802F4CF5B
:104130008E2D0E94FA1BCC2071F0C09480E28E0D6F
:10414000883010F081103DC08091F902C822C092E1
:10415000F9020E94230F292D2850330B24303105FA
:1041600010F40E946606AA2009F495CC8091F6020C
:1041700080FD91CCF80112828595859585950E94E8
:10418000CC18C8010E94291D8091F602859585955D
:1041900085950F900F900F900F900F90DF91CF911A
:1041A0001F910F91FF90EF90DF90CF90BF90AF9055
:1041B0009F908F907F906F905F904F903F900C9466
:1041C000A4188091F802C822C092F802C2CF3F2DF5
:1041D0003F70B32E8F2D807F803219F0B29480EF24
:1041E000B822882071F081E0881681F1DD20D9F1B4
:1041F000CC2091F1F801858180FF90CF8F7085836D
:104200002BC0DD20B1F09091FA028B2D892BC110CB
:1042100003C00E94D10F9FCFE1E0CE12FACF2091D0
:10422000B10322FD98CF891709F495CF8093FA0244
:1042300092CFC11006C00E941D0F8B2D0E94C60F89
:104240008ACFF1E0CF1609F486CFF5CFDD2031F02B
:1042500025E02C1508F47FCF8B2DDBCF34E03C1507
:1042600008F479CFEACFCC2041F3F9E38F1209C0EB
:104270002FEF37EE83E0215030408040E1F700C05F
:1042800000008E2D0E94FA1B66CF8F2D8695869595
:10429000837061F0813009F05ECFC7019370D11057
:1042A00002C090E080E00E943A0655CFC7019370AB
:1042B000D11002C090E080E00E9450064CCF8E2DBD
:1042C000DD2029F00E94DF0C0E94511844CF0E948B
:1042D000240CFACF8F2D837091F5D1103CCF4E2D49
:1042E000429546954770440F440F8E2D8F70042ED3
:1042F00001C0880F0A94EAF72E2D2071E4FE07C052
:104300002FE030E001C0220F4A95EAF720953F2DBB
:10431000369536953370323069F050F44091FB0297
:10432000313029F0822B84230E94D71814CF842B9C
:10433000822BFACF282B8091FB028227F5CF86951E
:10434000DD2011F08F2D8170882309F404CF4E2DCC
:10435000429546954770440F440F8E2D8F70042E62
:1043600001C0880F0A94EAF72E2D2071E4FE07C0E1
:104370002FE030E001C0220F4A95EAF720953F2D4B
:10438000369536953370323069F050F44091B0056F
:10439000313029F0822B84230E949518DCCE842BA7
:1043A000822BFACF282B8091B0058227F5CF9F2D45
:1043B0009F70F92EDD2029F0892F0E94CC188E2DB8
:1043C00028CF8E2D0E94C60F8F2D0E94A418C3CE19
:1043D0008E2DE2EF8E1609F44BC0E81570F0F0EF69
:1043E0008F1639F121EF8216D9F1DD2009F45CC076
:1043F000C11094CE8F2D8F7138C033EF8316E9F141
:1044000094EF8912F2CFDD2009F443C02F2D2F71D4
:10441000F22E822F0E94CC188091B10382FD07C03A
:1044200038E0F39EC001112483608093F6028F2D43
:104430001CC0DD2081F0E4E0EC1508F48CCE2F2DBB
:104440002F7181E090E001C0880F2A95EAF79091E2
:10445000B0058927A1CFF5E0FC1508F47CCEEFCF9D
:104460008F2D8F71DD2009F4B0CF0E94CC1873CE50
:104470008F2D8F71DD20C9F3A8CF80E0DD2009F4F6
:104480008BCF9F2D9F7181E001C0880F9A95EAF72D
:1044900083CF81E00E94B01881E08C1508F05BCEDC
:1044A00082E00E94B01857CECC2059F0893309F031
:1044B000E8CE9FEFE7EEF3E09150E040F040E1F707
:1044C000DECE8F2D8F7181CFF0E1EF16FFE5FF0675
:1044D00009F41DCC21E1E2162FE5F20609F41BCC0C
:1044E00093EFE9169CE5F90609F477CC08F015CCB2
:1044F000F8EDEF16FCE5FF0609F46BCC29EDE216AA
:104500002CE5F20609F475CC37EDE3163CE5F3062D
:1045100009F014CC26E241EE61EEC8010E94C51CF0
:10452000F7CA30E1E3163FE5F30609F4EACB91E17F
:10453000E9169FE5F906A1F682E0E4CB85E0DE010D
:10454000119601900D928A95E1F7F80122818981F7
:104550009A812111B7CA0E94720FF82EBBCAF6E1E8
:10456000EF16FCE5FF06E1F58091A20269E28111F8
:1045700065E382E892E00E94DB0545CD82722AEC79
:10458000E2162CE5F20609F46CCD08F086C095EC35
:10459000E9169CE5F90609F450CD08F065C0F3EC86
:1045A000EF16FCE5FF0609F43CCD08F041CD32ECF6
:1045B000E3163CE5F30609F429CDFAE5EF16FDE52F
:1045C000FF0609F488CD08F061CDE1143CE5F3065F
:1045D00009F471CD8EEDE8168CE5F80609F478CD76
:1045E000F8018281E080F180882309F478CDC70149
:1045F0000E940712D82E682FC7010E949A0FB70198
:104600008D2D0E94FA110E94950D7C01882EF801D3
:10461000D280C580C2943FE0C3228091F6028770A9
:10462000A1F0AD2CDD2091F08F2D807F803421F022
:1046300080E28E0D883048F082E00E94B0188091B0
:10464000F6028770AA24A3948111A12C9F2C929426
:104650002FE09222FBE0F91508F47DCDE92DF0E082
:10466000ED51FE4C0C94362F97ECE9169CE5F906BB
:1046700009F4EDCC08F4E6CCF8ECEF16FCE5FF0607
:1046800009F4EACC4CED56E068EE76E029ECE2164F
:104690002CE5F20609F4C9CC90CF3FECE3163CE5DB
:1046A000F30609F4F1CCB0F4ECECEE16ECE5FE0602
:1046B00009F4E1CC08F4DACC2DECE2162CE5F20694
:1046C00009F4DECC84E03EECE3163CE5F30609F4A5
:1046D000D8CC73CF86EDE8168CE5F80640F48EE072
:1046E00091EDE9169CE5F90608F4CBCC11CAEDE58D
:1046F000EE16FE0609F40CCA60CF1F93CF93DF932A
:104700008091C302807FA9F48091C002882389F040
:104710008091F502D091C4026091BE027091BF02F7
:10472000A091C102B091C202C62FC72316E0D813D0
:1047300004C0DF91CF911F91089590E0109711F080
:10474000CF3F19F401968770F2CF189F9001199FFF
:10475000300D1124F901EB53FD4F41814713F2CF86
:1047600040814613EFCF42814111ECCF4381548108
:104770004A1B5B0B483C510528F78091C3028F70A0
:1047800080618093C302F901E653FD4F80818F70F1
:10479000806180838EEB92E00E94291DDF91CF9192
:1047A0001F910C94680FAF92BF92CF92DF92EF925D
:1047B000FF920F931F93CF93DF93CDB7DEB761972F
:1047C0000FB6F894DEBF0FBECDBF8C0185E0F801B7
:1047D000DE011D9601900D928A95E1F7F801E280C5
:1047E0008EEBA82E82E0B82E6091C1027091C202B9
:1047F0006115710509F432C19091BE024091BF026A
:10480000892F84238F3F09F429C120813181C380FE
:10481000D480F090C002F601E61BF70BFF2009F4EC
:10482000E8C08091C302582F507FE83CF10508F0A2
:10483000ABC0511177C0FE2C431321C092131FC08F
:10484000E1101DC08F7080618093C302C5010E947A
:10485000291D8091C302F80185838F2D61960FB6C3
:10486000F894DEBF0FBECDBFDF91CF911F910F91A6
:10487000FF90EF90DF90CF90BF90AF900895CD283C
:1048800029F0822F83238F3F09F003C180E0F82FA6
:10489000F170DF2E80FF3CC08091F5024091C40290
:1048A00056E0841315C02D873E878D859E850E9416
:1048B0003612292F22952F702230F0F0243018F56F
:1048C0009F70F1F0F8019581907FD1F4D12C1EC03A
:1048D00090E0589FF001599FF00D1124EB53FD4FCC
:1048E0006181361306C06081261303C06281E6121F
:1048F0000FC001968770D5CF9F7011F0882331F3D8
:10490000805E883018F3C8010E94291DFD2CA5CFB8
:10491000EE2009F4A2CF8091C30281608093C3028C
:10492000F12C9BCF431306C0921304C0F801EE2074
:1049300009F479C0C8010E944212882309F1EE20CF
:10494000F9F08091C302803270F02091BE02309164
:10495000BF0238872F831986DB86CA868C87CE01F3
:1049600007960E94291D86E0F801AEEBB2E00190A7
:104970000D928A95E1F70E947D23FF24F3946DCF79
:10498000C8010E94291DF9CF51110AC08EEB92E097
:104990000E94291D86E0F50111928A95E9F7C0CFA2
:1049A00043130FC092130DC0E1100BC0F8018583B3
:1049B000C8010E94291D86E0F50111928A95E9F748
:1049C0004CCFC8010E9442128823D1F2EE20C1F2DE
:1049D0008091C302803238F22091BE023091BF0232
:1049E0003A8329831B82DD82CC828E83CE0101969D
:1049F000B8CFE83CF105F8F6FE2CEE2009F243139F
:104A00001FC092131DC08091C30280FD10C0982F5B
:104A1000907F69F0F8018583903F31F0982F907F67
:104A2000905F8F70892B8583C8010E94291D86E0C5
:104A3000F801AEEBB2E001900D928A95E1F70DCF4F
:104A4000C8010E94421281118ECF8091C302816001
:104A50008093C302C8010E94291DFFCEEE2009F4F5
:104A60008FCFC8010E944212F82E882309F488CF04
:104A700086E0F801AEEBB2E001900D928A95E1F785
:104A80008091BE029091BF020E9436120E947D2347
:104A9000E4CE81E08E25FBCE1F93CF93DF93CDB77D
:104AA000DEB767970FB6F894DEBF0FBECDBF4B8B56
:104AB0005C8B6D8B7E8B8F8B61111092F8021A8A42
:104AC000198A85E0FE017396DE011D9601900D9214
:104AD0008A95E1F786E0FE013D96DE01179601908A
:104AE0000D928A95E1F7CE0107960E94D32381119A
:104AF00012C086E0FE013796DE01119601900D92FC
:104B00008A95E1F78A859B85892B29F088859F8185
:104B100089238F3FB1F516E08091F5029091C40290
:104B200089131DC067960FB6F894DEBF0FBECDBFC8
:104B3000DF91CF911F91089596E0929FD001939FAE
:104B4000B00D1124AB53BD4FFE01319601900D9273
:104B50009A95E1F78093C4020E94680FDCCF819F91
:104B6000C00111248B539D4F0E94D3238823D1F27F
:104B70008091F50290E00196877099278093F50265
:104B8000CBCF2091C40230E0C901019687709927EC
:104B90004091F5024817190679F60E94DB18109229
:104BA000C4021092F50286E0EEEBF2E0DF011D9206
:104BB0008A95E9F7B0CF2F923F924F925F926F9212
:104BC0007F928F929F92AF92BF92CF92DF92EF929D
:104BD000FF920F931F93CF93DF93CDB7DEB72A9742
:104BE0000FB6F894DEBF0FBECDBFAE014F5F5F4F73
:104BF0006A018AE0DA011D928A95E9F70FE411E073
:104C00007A01AA24A394B12CF80181918F018F3FDE
:104C100009F44BC0F894E82FE295EF70F0E021A181
:104C20008F70A50102C0440F551F8A95E2F7CA0193
:104C3000922F982B91A392A18095892382A3789497
:104C400000C0E4E5F1E030E020E0912C812C81917E
:104C50008F3F09F4ACC0A82FA295AF70B0E090963A
:104C60004C9150E08F7002C0559547958A95E2F7B8
:104C700040FD9DC0C501022E02C0880F991F0A94F5
:104C8000E2F7882A992A2F5F3F4F2E303105F9F637
:104C9000F801319780818F3F11F00E943B0D50EA5F
:104CA0005A95F1F7D7018D929C92B2E0EB0EF11C70
:104CB000E1E004351E0709F0A7CF4AE050E0B60155
:104CC00081E093E00E94E3308C01FF24F394892B70
:104CD00009F4F12C0115110541F08AE0F601A1E07B
:104CE000B3E001900D928A95E1F75090FE025520B5
:104CF00009F46AC00E943F152091FC023091FD0228
:104D0000AC01421B530B9A019093FD028093FC026D
:104D10004F3F510511F008F04DC0452B09F444C038
:104D2000E22E1092FE022091FF0230910003E5E492
:104D3000F3E061E073E0390156E4650E711C412C2B
:104D400088248394912C190150E040E0D101DD903A
:104D50001D01DD20D1F0CD010197ED1470F1DC01D2
:104D60001C92C080D180DB018D919C918C259D256A
:104D70005401042E02C0AA0CBB1C0A94E2F78A213B
:104D80009B218C259D25918380834F5F5F4F4E3003
:104D90005105E1F6225F3F4F32966E5F7F4F6216FC
:104DA000730689F64092FE02012BB1F44DC090E0EB
:104DB00080E067CF2FEF30E0B3CFDE18DC01DC926C
:104DC000452CE3CF108233C0012BF1F10E943F1537
:104DD0009093FD028093FC022091FF02309100032A
:104DE0006091FE02A1E0B3E085E4C82E83E0D82EF6
:104DF000AA24A394B12C73E04D915D91F6018191A9
:104E000091916F0148275927F90190E080E08501D1
:104E1000082E02C0000F111F0A94E2F70423152385
:104E2000012B81F21081111102C0708361E0319673
:104E300001968E30910559F7225F3F4FF3E0AB307A
:104E4000BF07D1F66093FE028F2D2A960FB6F89415
:104E5000DEBF0FBECDBFDF91CF911F910F91FF90AD
:104E6000EF90DF90CF90BF90AF909F908F907F900A
:104E70006F905F904F903F902F9008951F921FB6B4
:104E80001F9211248F939F93AF93BF938091AB0395
:104E9000811113C08091AC039091AD03A091AE033A
:104EA000B091AF034196A11DB11D8093AC039093C7
:104EB000AD03A093AE03B093AF03BF91AF919F91A9
:104EC0008F911F901FBE1F901895CDB7DEB7C254AB
:104ED000D1090FB6F894DEBF0FBECDBF84B7877F70
:104EE00084BF0FB6F894A895809160008861809384
:104EF0006000109260000FBE80E890E00FB6F8945A
:104F000080936100909361000FBE85B7806885BF74
:104F100085B7806885BF89E39DE090937D0280938B
:104F20007C020E944E040E9419058091E200846078
:104F30008093E20078948091DA038823A1F01091A5
:104F4000E9001F709091EC00892F817090FD80E83E
:104F5000182B1092E9008091E80083FD0E94F01860
:104F60001F701093E90082E084BD93E095BD9AEF35
:104F700097BD80936E000E946912811102C00E9449
:104F8000A6110FE411E0D8018D918D018F3F11F032
:104F90000E943B0DB1E004351B07A9F704E511E0C1
:104FA000F80181918F018F3F11F00E943B0DF1E0DC
:104FB00002361F07A9F71092020310920103109204
:104FC00046031092450310920403109203031092BB
:104FD00048031092470310920603109205031092A3
:104FE0004A0310924903109208031092070310928B
:104FF0004C0310924B0310920A0310920903109273
:105000004E0310924D0386E490E00E94BB2FAC014A
:10501000909300038093FF0230E020E0FA01E20F5A
:10502000F31F9EE011929150E9F7225F3F4F263423
:105030003105A1F70E94C013811102C00E94CB1359
:1050400082E090E00E94093180933A030E9482122C
:105050009093B1038093B0030E94DB258FEB9DE515
:105060000197F1F700C000000E94DB258091450305
:1050700080FF08C06FEF7FEF90E080E00E94453135
:105080000E94051183E090E00E9409310E94D71828
:105090000E9490121092B5058FEF9FEF9093CF056D
:1050A0008093CE059093D1058093D0059093D3053E
:1050B0008093D2059093D5058093D4059093D7051E
:1050C0008093D6059093D9058093D8059093DB05FE
:1050D0008093DA059093DD058093DC0510920B0335
:1050E00090932503809324039093270380932603B2
:1050F000909329038093280390932B0380932A0392
:1051000090932D0380932C0390932F0380932E0371
:105110009093310380933003909333038093320351
:105120000E94C013811104C00E94CB130E94A813D7
:1051300046E050E06CE170E08EED95E00E94F930C1
:105140008091DE058C7F11F40E94A8138091B0033A
:1051500080688093B0038091B0039091B1030E9466
:10516000B5118AE091E09093A8038093A70301E032
:105170008091DA0310E1F12E12E1853009F432C397
:105180000E94DB25882359F08FB7F8944091AC0337
:105190005091AD036091AE037091AF038FBF45E4B2
:1051A00053E05FAB4EAB8BE393E09BAB8AAB712CD0
:1051B000612CF12CE12C1CA6EFA6EAAEAEA9BFA98A
:1051C000ED91FD91BFABAEABF9ABE8ABAAA9BBA922
:1051D0008D919D91BBABAAAB8E179F0709F44BC174
:1051E000BFEFBE0DBCABEEE0BE9F90011124A90144
:1051F000415A5C4F1A01D301A359BC4F2D017EA621
:105200006DA610E0AA24A394B12CE8A9F9A9E82777
:10521000F927FCAFEBAF2AA93BA92250310939AFDE
:1052200028AF5EAF4DAF97012F5F3F4F4EE0429FDB
:10523000C001439F900D1124DC01A15ABC4F21965F
:10524000BFAFAEAF21974E9DC0014F9D900D112471
:10525000FC01E15AFC4F2396FFAFEEAF23978BADD5
:105260009CAD8A219B21892B09F4F3C019A3FAADC7
:10527000FAA3C8A8D9A8CA20DB2081E0C114D104B0
:1052800009F480E08BA30E943F158160782F9DA3D5
:105290008CA349A15AA16BA18DA10E944C25A8AD58
:1052A000B9AD8D919C9111978A259B258D939C93E7
:1052B000CD2841F0EDA5FEA5E758FE4F80818F3F38
:1052C00009F09CC21BA6EBA5CE2ED12C80910B031E
:1052D0008C0D9D2D911D099774F1E8E08E2E912C77
:1052E0008C189D08B601645F7C4FA4018CE093E0AC
:1052F0000E94F030B6016C5E7C4FA40184E193E023
:105300000E94F030A401440F551FB601660F771FAD
:105310006C5D7C4F84E293E00E94F030B601645EE5
:105320007C4FA4018CE193E00E94F03088E0FBA563
:105330008F1B80930B0380910B0390E02DA9A22F6C
:10534000B0E09D01220F331F21543E4FAA0FBB1F17
:10535000BD0160547E4F41E0480FEBA59E1708F455
:1053600051C280930B038091DE058C7F803609F05B
:105370006BC08FEF810F811760F42396EEADFFAD08
:105380002397E80FF11D208130E1230F08F42FEF60
:105390002083EDA5FEA5E15AFC4F208140E2240FB9
:1053A00008F42FEF208391E0910F9E3009F45BC445
:1053B000218150E1250F08F42FEF2183AFA5A43000
:1053C00029F1811760F42196EEADFFAD2197E80F2A
:1053D000F11D20813DE0230F08F42FEF2083D2013F
:1053E0002C9130E1230F08F42FEF2C939E3009F419
:1053F00034C411962C9111973DE0230F08F42FEF40
:1054000011962C93BFA5ECA9EB17F0F4811750F47B
:10541000EDADFEADE80FF11D20813DE0230F08F456
:105420002FEF2083D1012C9130E1230F08F42FEFCF
:105430002C939E3049F011962C9111973DE0230F4B
:1054400008F42FEF11962C93BCA5BF5FBCA7BC300E
:1054500080F51F5FAA0CBB1CEFEF2E1A3E0AFFEF70
:105460004F1A5F0A2DA53EA52F5F3F4F3EA72DA7E0
:105470001E3009F0F4CE3FEFE31AF30A4EE0640E5B
:10548000711C55E0E516F10409F096CE8CA581114A
:1054900010C08FEF8EA38FA318A60E943F158160C6
:1054A000782F9AA789A74EA15FA168A58AA50E9417
:1054B0004C258091340390913503A0913603B0912F
:1054C00037032FB7F8944090AC035090AD03609031
:1054D000AE037090AF032FBF53014201881A990A9F
:1054E000AA0ABB0A2FB7F894C090AC03D090AD03C2
:1054F000E090AE03F090AF032FBFC0923403D09280
:105500003503E0923603F092370360910B03EBE032
:10551000F3E0462F50E00197AF4FBF4F8419950934
:10552000A609B709651384C140930B038091380322
:1055300010E0811108C08091DE05182F137019F05A
:10554000182F1695169580911701813009F499C18D
:10555000882309F480C1823009F4A5C1833009F49D
:10556000A6C186E0E6E5F3E0DE01119601900D921A
:105570008A95E1F7E0905803D090590310915A03AF
:10558000F0905B03109258031092590310925A0343
:1055900010925B038E2D8D2909F448C0809154032D
:1055A000909155030E9430159C01909150039923CE
:1055B00009F44EC323333105C8F19F3F19F09F5FB3
:1055C00090935003EE2059F00E94BF0C9FEF1E14E1
:1055D0000CF491E0899F802D112480935803DD20E5
:1055E00059F00E94BF0C9FEF1D140CF491E0899FAD
:1055F000802D112480935903309158033323B1F047
:1056000020915903222391F045EB3403C00111246A
:10561000992309F479C19093580355EB2503900120
:105620001124332309F473C130935903812F8F2937
:1056300009F448C080915203909153030E943015A1
:105640009C0190914F03992309F4FDC22536310541
:10565000C8F19F3F19F09F5F90934F03112359F0BA
:105660000E949D0C9FEF11160CF491E0899F802DF4
:10567000112480935A03FF2059F00E949D0C9FEF44
:105680001F140CF491E0899F802D112480935B03FB
:1056900030915A033323B1F020915B03222391F020
:1056A00045EB3403C0011124992309F433C19093CD
:1056B0005A0355EB250390011124332309F42DC11E
:1056C00030935B038091580390915903892B9091FB
:1056D0005A03892B90915B03892B11F00E9451187A
:1056E00086E0FE013196A6E5B3E001900D928A9521
:1056F000E1F70E94660690913903891721F00E9414
:105700006606809339038091DA03843009F030CD46
:1057100083E08093E9008091E80082FF29CD8091A9
:10572000E80090E085FF06C00E946D04882309F41C
:10573000F7C091E08091E8008B778093E80099238F
:1057400009F416CDE981E150E33108F088C1F0E0B9
:10575000E151FE4C0C94362F8091DA03843009F429
:1057600030C080913803811105C00E944B1580E044
:105770000E94310791E0909338031092AB03A8E1A7
:10578000B0E0E0E40FB6F894A895A09360000FBED7
:10579000E093600083B7817F846083BF83B78160BB
:1057A00083BF7894889583B78E7F83BF0FB6F894B4
:1057B000A8958091600088618093600010926000DD
:1057C0000FBE8091D903882369F00E94DB25E5E4B0
:1057D000F3E081919191892B09F016C223E0EF3417
:1057E000F207B9F78091DA03853009F4B5CF0E944A
:1057F000DB180E94660610923803C2CC8DABB1E074
:10580000BBA761CD90E0FC01E55FFC4FD9015C9145
:105810005183DB015C915187BDA9B18B880F991F22
:10582000FC01E55FFC4F128E118E91E0842F93CD29
:10583000218D328D2901712C612C84159505A605C9
:10584000B70520F441505F5F32966CCE280D391DAC
:10585000328F218FF8CF10921801C092B105D092EB
:10586000B205E092B305F092B40589E2EBE0F3E013
:10587000A5EBB5E001900D928A95E1F70093170131
:1058800070CE812F0E944B15112309F46ACE0E941D
:10589000660681FF66CE2FEF4FEF6FEF88E290E054
:1058A0000E9455085ECE812F0E9431075ACE80910A
:1058B000AF05882341F046E050E06CE170E08EEDEA
:1058C00095E00E9417311092AF054091B1055091BB
:1058D000B2056091B3057091B4052FB7F89480912B
:1058E000AC039091AD03A091AE03B091AF032FBF75
:1058F000841B950BA60BB70B4097A105B10508F4C7
:1059000030CE109217012DCE0093580386CE00930F
:1059100059038CCE00935A03CCCE00935B03D2CEB6
:1059200030E2C32ED12CCE0101967C018091E8009B
:1059300085FD0AC08091E8008B778093E8000E9483
:105940006D04882399F3F5CE8091F100D7018D93F2
:105950007D01B1E0CB1AD10849F7EBCE1A8289E07C
:105960008B831AC08A81823009F464C18330D9F1F3
:10597000813009F074C02FB7F8946091AC03709136
:10598000AD038091AE039091AF032FBF0E943C2FD7
:105990006B837C838D839E838091DA03843009F04E
:1059A000E7CB1091E9001F709091EC00892F817076
:1059B00090FD80E8182B82E08093E9008091E80058
:1059C00080FF0DC050E040E060E270E0CE01019643
:1059D0000E949E048091E8008E778093E8001F70FB
:1059E0001093E900C5CB8091450390914603982719
:1059F000892798279C838B83809147039091480344
:105A00009827892798279E838D83809149039091B9
:105A10004A0398278927982798878F8380914B037B
:105A200090914C039827892798279A878987809196
:105A30004D0390914E039827892798279C878B8741
:105A4000ABCF8A81823059F46B817C818D819E81BC
:105A50000E943C2F86E290E00E9427319DCF8FEF7D
:105A600089839ACF4C816B818A810E94D4119827B7
:105A7000892798279E838D838FCFED80FE80FE241B
:105A8000EF24FE248A81CB80ECE1CE9E60011124BC
:105A9000FCE88F9FC00CD11C11248C8190E0880FF2
:105AA000991FC80ED91E6F2DC60187960E942731F7
:105AB0006E2DC6018896D0CF0E9439116DCF80E13E
:105AC0008A836ACF0A8389EA4BCFEA80FB80FE246F
:105AD000EF24FE249E012F5F3F4F5901CC80A90186
