:100000000C949C030C94E3030C94E3030C94E3031F
:100010000C94E3030C94E3030C94E3030C94E303C8
:100020000C94E3030C94E3030C94F1130C94721BF3
:100030000C94FA260C94E3030C94E3030C94E3036E
:100040000C94E3030C94E3030C94E3030C94E30398
:100050000C94E3030C94C8140C94E3030C94E30392
:100060000C94E3030C94E3030C94E3030C94E30378
:100070000C94E3030C94E3030C94E3030C94E30368
:100080000C94E3030C94E3030C94E3030C94E30358
:100090000C94E3030C94E3030C94E3030C94E30348
:1000A0000C94E3030C94E3030C94E30305010902AD
:1000B000A10185020901A1000509190129081500FE
:1000C0002501950875018102050109300931158165
:1000D000257F95027508810609381581257F9501D0
:1000E00075088106050C0A38021581257F95017572
:1000F000088106C0C005010980A101850319012AF4
:10010000B700150126B700950175108100C0050CD8
:100110000901A101850419012AA002150126A002E6
:10012000950175108100C005010906A1018505052D
:100130000719E029E71500250195087501810205D9
:1001400007190029EF1500250195F07501810205B9
:10015000081901290595057501910295017503910D
:1001600001C00660FF0961A1010962150026FF00B8
:100170009520750881020963150026FF00952075FA
:10018000089102C005010906A101050719E029E748
:1001900015002501950875018102950175088101F9
:1001A0000507190029FF150026FF0095067508812F
:1001B000000508190129059505750191029501753C
:1001C000039101C0000000000000000000000000DA
:1001D000000000000000000000000000000000001F
:1001E00000000000000000007E0F00D4FFFFFFC7EA
:1001F0000000007800000000000000002A2B28000A
:1002000000000000000000000000000000000029C5
:10021000000000002C1E3420212224342627252E05
:10022000362D3738271E1F2021222324252633333D
:10023000362E37381F0405060708090A0B0C0D0E69
:100240000F101112131415161718191A1B1C1D2F35
:100250003130232D350405060708090A0B0C0D0E55
:100260000F101112131415161718191A1B1C1D2F15
:100270003130354C0001010101010101010102028F
:100280000202020202020203030303030303030444
:10029000040404040404050505050506060606060F
:1002A000070707070708080808090909090A0A0AC9
:1002B0000B0B0B0C0C0C0D0D0D0E0E0E0F0F0F106B
:1002C00010111111121213131414151516161717F5
:1002D000181819191A1A1B1B1C1D1D1E1E1F202061
:1002E000212222232424252626272829292A2B2CAB
:1002F0002D2D2E2F30313232333435363738393ACE
:100300003B3C3D3E3F404142434445464748494AC5
:100310004C4D4E4F50515354555658595A5B5D5E93
:100320005F616264656668696B6C6D6F707273752E
:1003300077787A7B7D7E8082838587888A8C8E8F92
:1003400091939596989A9C9EA0A2A3A5A7A9ABADC0
:10035000AFB1B3B5B7BABCBEC0C2C4C6C9CBCDCFAE
:10036000D1D4D6D8DBDDDFE2E4E7E9EBEEF0F3F55C
:10037000F8FAFDFF007E6E8E00AD9DBD00AC9CBC0A
:1003800000AB9BBB00AA9ABA00A999B900A898B87B
:1003900000A797B700A696B600A595B500A494B49B
:1003A00000A393B300A292B200A191B100A090B0BB
:1003B000007D6D8D007C6C8C007B6B8B007A6A8A73
:1003C0000079698900786888007767870076668693
:1003D00000756585007464840073638300726282B3
:1003E0000071618100706080004D3D5D004B3B5BA2
:1003F000004A3A5A00493959004838580047375797
:1004000000463656004535550044345400433353B6
:10041000004232520041315100403050001D0D2D3C
:10042000001C0C2C001A0A2A001909290018082897
:1004300000170727001606260015052500140424BA
:1004400000130323001202220011012100100020DA
:10045000001E0E2E004C3C5C001B0B2B001F0F2FB0
:10046000004F3F5F007F6F8F00AF9FBF165C1E0085
:100470001F00200021002200230024002500260068
:1004800027002D002E0031002B0014001A00080058
:10049000150017001C0018000C00120013002F009C
:1004A00030002A00396104001600070009000A0024
:1004B0000B000D000E000F00330034004C0028002C
:1004C000E1001D001B0006001900050011001000CE
:1004D000360037003800E50000000251E000E3007C
:1004E000E200000000002C000000000000000000FE
:1004F000E60001510000E40035003A003B003C00FA
:100500003D003E003F0040004100420043004400E7
:10051000450001000100010052000100010001003E
:10052000B200010049000100460047004800005C9D
:100530000100500051004F000100010001000100C6
:10054000010001004A004B0001000100AC00AA00BC
:10055000A900A80001000100145C010001004D0089
:100560004E00AB000000010001000100010000008E
:100570000000010000000000000000000100010078
:100580000000010001003A003B003C003D003E003D
:100590003F004000410042004300440045004C0041
:1005A0000100C25C0100C55CC65CC75CC85CC95C7C
:1005B000CA5CC35C010001000100005C0100010095
:1005C000010001000100010001000100CB5CCC5CD6
:1005D0000100010001000100010001000100010013
:1005E0000100010001000100010001000100010003
:1005F00000000100010001000100000000000100F6
:1006000000000000000000000100010000000100E7
:1006100001000100010001000100010001000100D2
:1006200001000100010001000100010001000100C2
:1006300001000100010001000100010001000100B2
:1006400001000100010001000100010001000100A2
:100650000100010001000100010001000100010092
:100660000100010001000100010001000100010082
:100670000100010001000100010001000000010073
:100680000100010001000000000001000000000066
:1006900000000000010001000000010009025B00F1
:1006A000030100A0FA09040000010301010009216F
:1006B000110100012240000705810308000109041F
:1006C00001000203000000092111010001222200A3
:1006D0000705820320000107050303200001090428
:1006E0000200010300000009211101000122B600EF
:1006F0000705840320000112010002000000085ACF
:10070000442113020001020001180344005A00367C
:100710000030005200470042005F0057004B004C81
:100720000000000E0344005A0054004500430048F6
:10073000000000040309040011241FBECFEFDAE01B
:10074000DEBFCDBF04B603FE27C08091E2059091C5
:10075000E305A091E405B091E5058730904BA740F3
:10076000B04BD1F41092E2051092E3051092E4052B
:100770001092E50514BE84B7877F84BF0FB6F89446
:10078000A89580916000886180936000109260005D
:100790000FBEE0E0F8E3099525E0AAE7B2E001C06A
:1007A0001D92A23EB207E1F712E0A0E0B1E0ECE753
:1007B000F3E602C005900D92AA37B107D9F70E945F
:1007C00021270C946A310C9400009091DC05937001
:1007D00051F0811109C094609093DC0510921701CB
:1007E00081E08093AD0508958B3110F09866F4CFC9
:1007F000880F880F982BF0CF9091DC05937049F00B
:100800008093DD056093DE054093DF0581E08093F2
:10081000AD050895E8EDF0E080818E7F8083109231
:10082000E2001092DA001092E100A0EEB0E08C91AC
:1008300081608C9380818F77808319BCA7EDB0E0B5
:100840008C918E7F8C9380818F7E80831092B303F6
:1008500008952091E4003091E50095E6A9012091EA
:10086000EC00822F817020FF06C08091E80080FF9D
:1008700006C080E008952091E80022FD1AC0809112
:10088000D803882389F0853089F08091EB0085FDBD
:100890000FC02091E4003091E50042175307F9F2B0
:1008A0009150E1F684E0089582E0089583E0089590
:1008B00081E00895EF92FF920F931F93CF937C01F5
:1008C0008B010E942904C82F811117C08091E80074
:1008D00085FD0BC08091E8008E778093E8000E9430
:1008E0002904882399F3C82F08C0F70181917F015B
:1008F0008093F1000150110949F78C2FCF911F917E
:100900000F91FF90EF9008958091DA0387FF13C055
:100910008091E80082FF06C08091E8008B77809389
:10092000E80004C08091D8038111F2CF089580912E
:10093000D8038823D9F38091E80080FFF8CF809115
:10094000E8008E77ECCF982F9093E900242F762F34
:1009500050E0891731F07091EC002091ED0050913A
:10096000F00021FD07C09F5F973071F78093E90089
:1009700081E008953091EB003E7F3093EB003091A1
:10098000ED003D7F3093ED003091EB00316030930E
:10099000EB007093EC002093ED005093F000209159
:1009A000EE0027FDE0CF80E00895CF92DF92EF9236
:1009B000FF920F931F93CF93DF93C8EDD0E0888110
:1009C0008F7E8883E7EDF0E080818160808384E022
:1009D00082BF81E08093B30388818E7F888302EE9B
:1009E00010E0F80110821092DA0081EEC82ED12CAE
:1009F000F601108288818F77888388818068888358
:100A000088818F7D888319BC1092D8031092D903F6
:100A10001092D7031092D60390EEE92EF12CF70135
:100A200080818B7F808388818160888342E060E061
:100A300080E00E94A304F60180818E7F8083F8010C
:100A4000808181608083808188608083F7018081DC
:100A50008E7F8083888180618883DF91CF911F9111
:100A60000F91FF90EF90DF90CF900895FC0180915F
:100A7000E0039091E10386179707A0F061157105D7
:100A800029F49091E8009E779093E80090E061153A
:100A9000710551F4911108C08091E80082FF34C0C3
:100AA00080E00895BC01F2CF8091D8038823C1F182
:100AB0008530C1F18091E80083FD30C08091E8006D
:100AC00082FDEACF8091E80080FFE1CF8091F300C2
:100AD0002091F200382F6115710519F02830310589
:100AE00058F091E02830310509F090E02091E800BD
:100AF0002E772093E800CBCF81918093F100615055
:100B000071092F5F3F4FE7CF8091D803882341F0D1
:100B1000853041F08091E80083FFBECF81E00895E9
:100B200082E0089583E008958091B50308952091AF
:100B300016012223C9F02091AE0327FF15C0E62F2E
:100B4000E695E695E695EE31D8F4E80FF92FF11D1C
:100B5000677021E030E001C0220F6A95EAF7209526
:100B60008281282322830895FC01329608962191E0
:100B7000621303C0DF0111971C92E817F907B9F758
:100B80000895209116012223C1F02091AE0327FF82
:100B900014C0E62FE695E695E695EE31F8F4E80FF9
:100BA000F92FF11D677021E030E001C0220F6A9536
:100BB000EAF78281822B82830895FC0132962FEF1F
:100BC00030E04191641751F02F3F19F4411101C0F9
:100BD000232F3F5F3630A9F72F3F09F40895820F86
:100BE000911D27FD9A95FC01628308952091A7032A
:100BF0003091A8032817390771F09093A8038093C8
:100C0000A703E091A503F091A603309721F000849B
:100C1000F185E02D099408952091A3033091A40358
:100C20002817390771F09093A4038093A303E091F0
:100C3000A503F091A603309721F00680F781E02DFF
:100C400009940895E091A503F091A603309721F04F
:100C50000190F081E02D099480E00895FA0181115E
:100C600001C0FB010994CF93DF938E33910558F5B2
:100C7000FC01EE0FFF1FEE0FFF1FEF01CC58DC4F02
:100C8000CE010296FC01A4910196FC013491FE0173
:100C900085918370C491E82FF0E050EC859FC001EE
:100CA00011248C5E9B4FC80FD92FD11D6883A80FCC
:100CB000B92FB11D4C93830F911DDC012C93EC5681
:100CC000FA4F81E08083DF91CF910895FF920F93D7
:100CD0001F93CF93DF93182F062FF42ED0E0C0E0A0
:100CE0002F2D402F612FCE010E9433062196CE3347
:100CF000D105B1F7DF91CF911F910F91FF9008952A
:100D0000ECEDF5E0248130E1231B08F420E024839E
:100D100081E08093AD050895ECEDF5E0248130E1AC
:100D2000230F08F42FEF248381E08093AD0508950D
:100D3000ECEDF5E0438120E1421B08F440E08181C5
:100D4000628190E00C94FC03ECEDF5E0438120E13E
:100D5000420F08F44FEF8181628190E00C94FC0314
:100D6000ECEDF5E0628120E1621B08F460E0818136
:100D7000438190E00C94FC03ECEDF5E0628120E10E
:100D8000620F08F46FEF8181438190E00C94FC03C3
:100D9000ECEDF5E08181438162818850990B0C94E0
:100DA000FC03ECEDF5E0818190E0438162810896DF
:100DB0000C94FC038091DC0586958695815009F49E
:100DC0008AE10C94E5038091DC05869586958F5F1A
:100DD0008B3108F081E00C94E5038093150180913C
:100DE000DC058370809314010E94281083E08093B7
:100DF0001701089522E8241B08F420E0620F0895EB
:100E00004095282F429F412D1124842F0895E42FCF
:100E1000F0E0EE0FFF1FE154FE4F9081921B97FD13
:100E20009195292F38E1239F212D1124620F0895D8
:100E30000F931F9310E0F801EE0FFF1FE154FE4FD8
:100E40009081905797FD9195000F111FF801E05484
:100E5000FE4F00810052110B2003F001219FF00D85
:100E6000112408E310E0091B110997FD13954003B5
:100E70009001419F300D1124E20FF31F9F01220FBB
:100E8000331F2E0F3F1F37FF02C021583F4F220F45
:100E9000232F221F330B620F1F910F9108950F9381
:100EA0001F93522F10E0F801EE0FFF1FE054FE4F8A
:100EB000A081A052BB0B9D015203F001539FF00D86
:100EC0001124000F111FD801A154BE4F0C910057DF
:100ED000110B40039001419F300D11242E0F3F1F35
:100EE00037FF02C0215C3F4F96E0359527959A95D4
:100EF000E1F7620F1F910F9108950F931F93522FE7
:100F000010E0F801EE0FFF1FE054FE4FA081A05249
:100F1000BB0B9D015203F001539FF00D1124000FF4
:100F2000111FD801A154BE4F0C910057110B400363
:100F30009001419F300D11242E0F3F1F37FF02C03B
:100F400021583F4F220F232F221F330B620F1F9177
:100F50000F910895EF920F93972F23E0029FB00116
:100F60001124759567956E0D792F0F91EF90089567
:100F7000322F50E0FA01EE0FFF1FE054FE4F908138
:100F8000905297FD9195440F551FFA01E154FE4F81
:100F90002081231B330B290F311D97FD3A95620FDA
:100FA0000895E42FF0E0EE0FFF1FE054FE4F608144
:100FB000621B0895E42FF0E0EE0FFF1FE154FE4F97
:100FC0006081621B0895622F0895E42FF0E0EE0F18
:100FD000FF1FE154FE4F408134EE439F412D112409
:100FE000E82FF0E050E0445E5F4FDA01A21BB10948
:100FF0009D01B7FF03C031952195310993E0220F80
:10100000331F9A95E1F7AF01421B530B9A0157FD2D
:1010100020E0582F259F212D1124822F08950C9414
:1010200066060C943306FC019B01009729F480E0CE
:1010300077FF2BC080E80895AC0197FF04C04427D8
:101040005527481B590BB901640F751F37FD10C098
:10105000241B350BC901A5E0880F991FAA95E1F75C
:101060000E94DE2E80E2861BF7FF0FC08195089557
:10107000CB0165E0880F991F6A95E1F7BA01621B01
:10108000730B0E94DE2E80E6EECF0895EF920F9351
:10109000CF93DF93D72FC82FC9010E19BA010E9431
:1010A0001308602F681B7D2F8C2FDF91CF910F913C
:1010B000EF9008950F93CF93DF93D72FC82FC901D7
:1010C000BA010E941308682F600F7D2F8C2FDF91CB
:1010D000CF910F910895EF920F931F93CF93DF93CA
:1010E000D62FC72F182FC9010E19010FBA010E9460
:1010F0001308081B202F219F212D1124822F6D2FD3
:101100007C2FDF91CF911F910F91EF9008950F9356
:101110001F93CF93DF93D62FC72F182FC901212FED
:10112000201B022FBA010E941308982F990F990FC4
:10113000891B800F282F219F212D1124822F6D2F95
:101140007C2FDF91CF911F910F910895E82F86FD9D
:10115000E0952E2F2F7086FD2F5FE695E695E6959C
:10116000E670F0E0EE59FE4F9181929F902D212D77
:10117000112492959F702295207F922B2081920FAF
:1011800087FD919580E8890F08950F931F93CF9362
:10119000DF938B01D82FC42F822F0E94A608EC2F3B
:1011A000F0E0EE0FFF1FE154FE4F90819058890F41
:1011B00087FD8195880F682F2CE0629F612D112497
:1011C000600F712F8D2FDF91CF911F910F91089597
:1011D000AC018230910508F408959FEF413E8EE105
:1011E000580740F49A0195E0369527959A95E1F7CE
:1011F00098E0920F61E0E62FE90FFF27FF1F9F01A4
:1012000035952795822F229FF001239FF00DF00D39
:1012100011244E175F0738F49FEF920F961758F777
:101220008FEF860F08952F3FE9F361E0620FF6CF4D
:101230000F93CF93DF93D72FC82F47FD419588E3B6
:1012400090E0841B910947FD9395889FB001899F89
:10125000700D700D1124229FC001239F900D900DE1
:101260001124860F971F0E94E808982F990F890F65
:10127000682F600F7D2F8C2FDF91CF910F910895F4
:1012800030E020E0869F212D969F200D311D1124F6
:10129000C9010895AF92BF92CF92DF92FF920F9350
:1012A0001F93CF93DF93362F472FE82FF0E0EC58B2
:1012B000FD4F71110FC0E4918E2F2E2F6E2F722FC4
:1012C000DF91CF911F910F91FF90DF90CF90BF9052
:1012D000AF900895C72FD0E02491F22E022F10E096
:1012E00056E0659FC0011124EFEFF0E0BF010E94BE
:1012F000CA2E832F90E0880F991F35E5369FD001C5
:10130000379FB00D11248A1B9B0B982F990F980FB4
:101310006F01CC1ADD0AC09ED001C19EB00DD09ED7
:10132000B00D11248B2F499FA0011124452F552763
:101330006F01C41AD50AC09EA001C19E500DD09E57
:10134000500D11245F01A91AB108AC9E6001AD9E39
:10135000D00CBC9ED00C1124CD2CDD24EC19FD0941
:10136000E09FE001E19FD00DF09FD00D1124ED2F03
:1013700062307105A1F050F46115710509F49ECF3A
:101380006130710581F0EB2F852F98CF64307105A6
:1013900069F080F06630710509F490CFF4CFE22F48
:1013A0002B2F8D2F8BCFE22F252F88CFEB2F822F46
:1013B0002D2F84CF2B2F8F2DE52F80CFCF92DF9233
:1013C000EF92FF920F931F93CF93DF938C01C09105
:1013D00018018DE0C89FC02D11242DE0D22EDC0E07
:1013E000CD2C2EE32D1510F49EE3C92E2091E0059F
:1013F00031E0230F08F42FEF30E050E040E06FEFD2
:101400007FEF80E090E00E9407317901D0E02C2F3F
:10141000CC1570F081E0FDE3FD1508F480E0DF916C
:10142000CF911F910F91FF90EF90DF90CF90089593
:10143000FE01E55CFD4F808190911901892311F136
:101440004091B3054150042E000C550B47FF1CC0C2
:10145000C7016091E00521E0620F08F46FEF0E9480
:101460004009AC016091DD057091DE058091DF05DA
:10147000F80109950E944A09462F282F672FCE01AF
:101480000E9411082196C3CFFA01ED54FA4F8189C9
:1014900082130AC0FA01EE0FFF1FED54FA4F818D3F
:1014A000928D8E159F05A8F241505109CFCFDF9242
:1014B000EF92FF920F931F93CF93DF937C01C09124
:1014C00018018DE0C89FC02D11241DE01C0F012FB5
:1014D0001F3308F00EE36091E0056695669521E004
:1014E000620F08F46FEF8091AF059091B0050E94F4
:1014F0004009D82ED0E0C01760F081E01E3308F01C
:1015000080E0DF91CF911F910F91FF90EF90DF90DE
:101510000895FE01E55CFD4F8081909119018923BA
:1015200091F06091DD057091DE058091DF052D2D34
:101530004C2FF70109950E944A09462F282F672F43
:10154000CE010E9411082196D6CF9F92AF92BF92F2
:10155000CF92DF92EF92FF920F931F93CF93DF937F
:101560006C01C09118018DE0C89FC02D11241DE0B1
:101570001C0FB12E1F3310F03EE3B32E6091E00537
:10158000669566958091AF059091B0050E944009DF
:10159000F82E80E48F0D0E94A60890E8A92EA80ED0
:1015A0008F2D0E94A60820E8922E980ED0E0CB1531
:1015B00080F081E01E3308F080E0DF91CF911F9131
:1015C0000F91FF90EF90DF90CF90BF90AF909F90E2
:1015D0000895FE01E55CFD4F8081909119018923FA
:1015E000A1F06091DD057091DE058091DF05EF2CA3
:1015F0000C2F292D4A2DF60109950E944A09462FE4
:10160000282F672FCE010E9411082196D0CF7F92FC
:101610008F929F92AF92BF92CF92DF92EF92FF9202
:101620000F931F93CF93DF935C01C09118018DE05E
:10163000C89FC02D11241DE01C0FF12E1F3310F088
:101640003EE3F32E6091E00566958091AF059091A1
:10165000B0050E944009782ED0E0CF1590F081E0CF
:101660001E3308F080E0DF91CF911F910F91FF9022
:10167000EF90DF90CF90BF90AF909F908F907F9032
:101680000895FE01E55CFD4F808190911901892349
:10169000C9F1CE01880F991F87589E4FFC01EA5B64
:1016A000FF4F2081422F4057550B6A01895B9F4FA6
:1016B000FC018081282F2052330B4901449F900167
:1016C000459F300D300D1124889CC001899C900DE0
:1016D000900D1124820F931F0E94E808082F60913B
:1016E000DD057091DE058091DF05E72C9401A601F0
:1016F000F50109950E944A09462F282F672FCE0130
:101700000E9411082196A9CFCF92DF92EF92FF920B
:101710000F931F93CF93DF937C01C09118018DE04D
:10172000C89FC02D11241DE01C0FD12E1F3310F0B7
:101730003EE3D32E6091E00566958091AF059091D0
:10174000B0050E944009C82ED0E0CD1568F081E0B8
:101750001E3308F080E0DF91CF911F910F91FF9031
:10176000EF90DF90CF900895FE01E55CFD4F808102
:1017700090911901892311F1CE01880F991F875883
:101780009E4FFC01E95BFF4F20812052330B8A5BA7
:101790009F4FFC0140814057550B6091DD057091D2
:1017A000DE058091DF050C2DF70109950E944A099D
:1017B000462F282F672FCE010E9411082196C5CFF2
:1017C00040915603803F59F48091570387FF0DC025
:1017D0001092570341110BC010924E0308C0813F75
:1017E00081F48091570318169CF3442381F0809173
:1017F000580390915903892B09F05AC010924D0358
:101800000895823F49F447FFF0CF1092560380912C
:1018100057038111ECCFE0CF833F19F41416ACF3DA
:10182000E4CF90915803893F29F41916F4F61092E9
:101830005803DBCF8A3F19F497FFD7CFF8CF9091A9
:1018400059038B3F29F497FFD0CF10925903CDCF86
:101850008C3F19F41916CCF3C8CF9CE0980F953043
:1018600090F4845F990B21E030E0B90102C0660F6B
:10187000771F8A95E2F7CB018095909155038923D4
:1018800080935503B2CF8D3F31F480914F038E7F0B
:1018900080934F03AACF8E3F21F480914F038D7F19
:1018A000F7CF8F3F09F0A1CF80914F038B7FF0CF0F
:1018B000089580914F0380FD16C081FD16C082FD02
:1018C00016C080914D038823A1F0883280F428E06F
:1018D000829FC001112468E270E00E94DE2E862FF4
:1018E000672B39F0089582E0089584E0089588E038
:1018F000089581E0089580914F0380FD14C081FD1B
:1019000014C082FD16C080914E03882381F084317B
:1019100080F422E3829FC001112464E170E00E9400
:10192000DE2E862F08958CE0089589E1089585E0E4
:10193000089582E30895803F31F40E947B0C8195E5
:10194000809357030895813F19F40E947B0CF8CFD0
:10195000823F31F40E947B0C819580935603089559
:10196000833F19F40E947B0CF8CF893F29F40E9431
:10197000590C8093580308958A3F21F40E94590C12
:101980008195F7CF8B3F31F40E94590C819580935C
:10199000590308958C3F19F40E94590CF8CF9CE02C
:1019A000980F953070F4845F990B21E030E001C00E
:1019B000220F8A95EAF780915503822B8093550375
:1019C00008958D3F31F480914F03816080934F03E0
:1019D00008958E3F21F480914F038260F7CF8F3FAF
:1019E000B9F780914F038460F1CF80E00895F894B7
:1019F000E82FE295EF70F0E031A1282F2F7081E001
:101A000090E001C0880F2A95EAF7982F90959323CC
:101A100091A392A1892B82A3789408959091AE030B
:101A200092FF06C0282F28712830F9F4877F846040
:101A300093FF06C0282F28712831F1F4877E846136
:101A40002091AF0320FF06C0382F38713830D9F409
:101A5000877F816021FF06C0282F28712831D1F4AB
:101A6000877E816194FD877E0895282F247124301C
:101A7000F9F68B7F8860DCCF282F2471243101F7A1
:101A80008B7E8861DDCF382F3171313019F78E7F31
:101A90008860E0CF282F2171213121F78E7E886167
:101AA000E1CFCF93DF93EC0182389105A9F1D8F50E
:101AB0008133910509F496C048F58932910509F4FE
:101AC0008AC08A9709F495C0C11521E5D20708F0AC
:101AD000BCC0C11530E5D30708F014C1C83ED1051C
:101AE00008F09CC0C03ED10560F5C83AD10508F0A9
:101AF00087C0C53AD10508F0FDC0C130D10509F154
:101B00002097F9F0C430D105E0F440C08533910549
:101B100009F45AC0C997C1F68091AE03837089F069
:101B2000C0EED0E00EC0833E910599F170F4803E86
:101B3000910501F1823E910539F68091AE0382FD57
:101B400021C0CE01DF91CF910895863E910561F1CC
:101B5000873E910571F1843E910509F0B5CF8091E2
:101B6000AF0381FFEECF8091AE03C7EED0E084FDDE
:101B70000DC0E7CF8091AE0380FD12C19091AF03FD
:101B800090FFDFCFC3EED0E084FFDBCFD0E0C0E03A
:101B9000D8CF8091AE0382FD06C19091AF0390FD36
:101BA000BFCF84FFCECFF2CF8091AE0383FDDDCFD8
:101BB000C8CF8091AE0383FDF9C09091AF0391FF30
:101BC000F0CFC4EED0E0BDCF8091AE0385FFB9CF9A
:101BD000C9E2D0E0B6CF8091AE0385FFB2CFC5E3B6
:101BE000D0E0AFCF8091AE0386FFABCFCAE2D0E0AA
:101BF000A8CF8091AE0386FFA4CFC1E3D0E0A1CFF0
:101C0000CF3BD10518F6C85AD0E0CC0FDD1FCF5D11
:101C1000DE4F0990D881C02DD46493CFC11540E226
:101C2000D40758F4C11581E0D80708F08ACFC03F27
:101C3000D10508F4ABCFD06584CFC11590E4D907A6
:101C400008F4A4CFDF70D06A7CCFC11525E5D20798
:101C500000F5C11534E5D30708F08AC0C11543E586
:101C6000D40708F071C0C11582E5D80708F467C031
:101C7000CE018370992721E030E002C0220F331F8C
:101C80008A95E2F7C695C69580E2C89FE0011124C7
:101C900052C0C11599E5D907A8F4C11528E5D207A6
:101CA00008F06BC0C11536E5D30708F06FCF8C2F55
:101CB0000E940E0DC82FD0E0DC2FCC27CC27DF717F
:101CC000D0623FCFC1154AE5D40708F45BC0CE010E
:101CD00090568115904208F059CF8D2F8F710E9438
:101CE0000E0D90E0982F882788279F719C012C2B40
:101CF000E901E6CFC55AD0E0C25EDE4FC881D0E030
:101D0000D0641FCFCE01E4E096958795EA95E1F780
:101D100083702C2F26952695237040E2249F9001F6
:101D20001124382B8C2F8370C1E0D0E002C0CC0F7F
:101D3000DD1F8A95E2F7C22BD32BDC6802CFDC2FA4
:101D4000CC27C16FD06AFDCECE018370992721E0E8
:101D500030E002C0220F331F8A95E2F7C695C69580
:101D600090E2C99FE0011124C22BD32BDA68E9CE9F
:101D7000DC2FCC27C46FD06AE4CEDC2FCC27C06F19
:101D8000D06ADFCE8C2F8F700E940E0D34E0D69576
:101D9000C7953A95E1F7CF709C2FEC01D069D1CE71
:101DA000C9E3D0E0CECEC2EED0E0CBCEC6EED0E0DE
:101DB000C8CE8091F80281111092F80208958091A6
:101DC000F7029091F602892B9091F502892B80936E
:101DD00080029091F8029923A1F0892B80938002D0
:101DE00080911601882341F18091AE0387FF24C0C2
:101DF0008EE1E2E8F2E090E0815000F591110E945E
:101E0000D90EE091A503F091A6033097E1F08091FF
:101E10001601882359F08091AE0387FF07C0809197
:101E200080028093810285E0809380020280F381AA
:101E3000E02D80E892E0099486E0DBCF2191222317
:101E4000D9F29F5FD9CF08958091F3029091C20299
:101E5000981301C008958F5F8770FACF2EE0929F8C
:101E6000800D1124982F977086958695869523E08E
:101E7000829FF0011124EF55FD4F50E040E080E0DB
:101E8000219130E0092E02C0369527950A94E2F799
:101E900021703327042E01C0220F0A94EAF7822B07
:101EA0004F5F5F4F4330510559F708952EE0929FE1
:101EB000800D1124982F977041E001C0440F9A952E
:101EC000EAF786958695869593E0899FF00111241F
:101ED000EF55FD4F90E080E070E05191DF011197E8
:101EE0009B01082E02C0369527950A94E2F72170CF
:101EF00021952527242325272C93019683309105AE
:101F000061F70895882341F080959091F702892325
:101F10008093F7020C94DF0E0895882339F0909196
:101F2000F702982B9093F7020C94DF0E089580939C
:101F300096056093970524E630E042E050E066E9BC
:101F400075E080EA0E94A32E21E0892B09F020E0B1
:101F5000822F0895FF920F931F93CF93DF93C82F83
:101F6000082F10E00E5E1B4FF80180818823B9F026
:101F700065EC8EEF0E94970F60E08DEF0E94970F47
:101F8000F8E1CF9FE0011124CE51DC4FF12C699193
:101F90008F2D0E94970FF39488E1F812F8CFF80183
:101FA0001082DF91CF911F910F91FF900895CF92F2
:101FB000DF92EF92FF920F931F93CF93DF93C82F7F
:101FC000C82ED12CC6018C569A4F7C01FC01808111
:101FD000882369F165EC8EEF0E94970F61E08DEF29
:101FE0000E94970FF0ECCF9FE0011124CC5EDB4FF5
:101FF00010E000E000939605DE01A00FB11FE7E9B5
:10200000F5E08D91819385E0E73AF807D1F724E672
:1020100030E041E150E066E975E080EA0E94A32EDD
:10202000892B81F4005F1F4F003C110519F7F70160
:102030001082DF91CF911F910F91FF90EF90DF9071
:10204000CF900895F601EE5EFB4F81E08083EFCFE5
:1020500080E00E94D70F81E00C94D70F9091D803B5
:10206000943029F58093B0037093B2036093B10369
:102070009093E9008FEF9091E800815095FD06C0A4
:1020800095ED9A95F1F700008111F5CF8091E80068
:1020900085FF0DC050E040E063E070E080EB93E02E
:1020A0000E945A048091E8008E778093E80008959A
:1020B000BC0184E00C942E10BC0183E00C942E1023
:1020C0009C0184E08093E9009FEF8091E8009150AB
:1020D00085FD06C085ED8A95F1F700009111F5CFD9
:1020E0008091E80085FF0CC050E040E066E070E0C1
:1020F000C9010E945A048091E8008E778093E8001D
:102100000895CF93DF93EC01809116018823B1F1FC
:102110008091AE0387FF32C060E284E08093E900E3
:102120008FEF9091E800815095FD06C095ED9A954E
:10213000F1F700008111F5CF8091E80085FF1BC009
:102140008091160170E050E040E0811104C050E041
:1021500040E068E070E0CE010E945A048091E800FF
:102160008E778093E80080E2FE01A6EBB3E0019059
:102170000D928A95E1F7DF91CF91089568E081E0B3
:10218000CDCF81E08093E00080E28093D800109270
:10219000C9008FE19EE40197F1F700C0000087E0DD
:1021A00090EBDC018093E2059093E305A093E405B6
:1021B000B093E50588E19CE00FB6F894A89580936C
:1021C00060000FBE90936000FFCFCF93DF93C7E511
:1021D000D2E060E0CE010E94E3302196C11584E098
:1021E000D807B9F7DF91CF9108956F927F928F92C0
:1021F0009F92AF92BF92CF92DF92EF92FF920F9396
:102200001F93CF93DF938CE6C82E84E0D82E9FECEB
:10221000E92EF12CE701CC58D10936011BC0F5019C
:1022200085909490692DC8010E94E330682DC80103
:1022300001960E94E33082E0A80EB11C0E5F1F4F92
:10224000C017D10761F78CE1680E711C6C96CE1532
:10225000DF0529F08E010C5111095301E0CF7E01F9
:102260008CE8E80EF11C8CE8C80ED11C8FEFE81644
:1022700082E0F80679F6DF91CF911F910F91FF90E0
:10228000EF90DF90CF90BF90AF909F908F907F9016
:102290006F900895CF93C82F6FEF811161E283E2B1
:1022A00090E00E94E3306FEFC11169E084E290E0BA
:1022B0000E94E3306FEFC11166E085E290E0CF91BC
:1022C0000C94E33080E00E944A1160E086E290E0E6
:1022D0000E94E3300E94F5100E94E51081E00C940A
:1022E0004A11CF93C92F682F84E090E00E94E33019
:1022F0006C2F82E290E0CF910C94E3309091AF0389
:1023000092FB222720F9281751F080FB92F9909335
:10231000AF038091AE039091AF030C9471110895B7
:102320000F931F93CF93DF93C42FD0E0CC0FDD1F0B
:102330002CE1629FC00DD11D11243CE8839FC00D8C
:10234000D11D1124CE0187960E94C530082F10E0C0
:10235000102F0027CE0188960E94C5309801282BA7
:10236000C901DF91CF911F910F910895462F8430BD
:1023700038F4753028F46E3018F4672F0C949011EF
:1023800090E080E00895CF92DF92FF920F931F9329
:10239000CF93DF936C010091AE058091F902082B79
:1023A000C7E0D0E010E0FC2EC8010C2E02C09595CD
:1023B00087950A94E2F780FD0CC02197A0F7F12CD5
:1023C0008F2DDF91CF911F910F91FF90DF90CF90D4
:1023D0000895B6018C2F0E94B6110E94510D0197ED
:1023E00061F3EECFCF93DF93EC010E94C311BE01E6
:1023F0000E94B611DF91CF910C94510DFC018081A8
:1024000091810E94F211292F2F7092959F70925006
:102410009E3078F4E92FF0E0E459FE4C0C94F22E53
:10242000803F19F020F4883E20F481E00895843F35
:10243000E1F380E00895883EC0F3813FD1F7F5CF06
:10244000822F869586958695089583E290E00E9476
:10245000C530813289F484E290E00E94C530893031
:1024600059F485E290E00E94C53091E0863009F091
:1024700090E0892F8170089580E0FCCFCF9384E0B5
:1024800090E00E94C530C82F82E290E00E94C530E3
:10249000982F8C2FCF910895CF92DF92FF920F93B8
:1024A0001F93CF93DF930E94F42D65EC8EEF0E9473
:1024B000970F60E08DEF0E94970FC0E060E08C2FD7
:1024C0000E94970FCF5FC831C9F765EC8EEF0E946D
:1024D000970F61E08DEF0E94970FC0E060E08C2FB6
:1024E0000E94970FCF5FC03CC9F765EC8EEF0E944A
:1024F000970F63E08DEF0E94970F6FEF81E00E94CE
:10250000970F61E080E00E94970F8FE39CE90197AD
:10251000F1F700C0000044E753E070E060E098E1AC
:10252000F92EC1E0D0E001E0FA0131961491319624
:10253000B4913196A491FB01EE0FFF1FEE0FFF1F28
:10254000EC58FC4F8491837090E0E12FE695E6957E
:10255000E695F89E9001F99E300D11242E513C4FC6
:10256000E20FF32FF11D17706E0101C0CC0C1A950C
:10257000EAF710811C291083EB2FE695E695E69586
:10258000E20FF32FF11DB7706E0101C0CC0CBA95AC
:10259000EAF7B081BC29B083EA2FE695E695E69587
:1025A000E20FF32FF11DA7709E0102C0220F331F0F
:1025B000AA95E2F7D90120812A2B20838E5E9B4FBA
:1025C000FC0100836F5F7F4F4C5F5F4F6E3371057F
:1025D00009F0AACF80E00E94AA0F81E0DF91CF919D
:1025E0001F910F91FF90DF90CF900C94AA0F1F9333
:1025F000CF93DF93EC01FC01E55CFD4F8081682304
:10260000C9F00E94672F182F0E94672F8F77782FAD
:1026100020E8720F08F47FEF612F8091DF050E94A0
:102620004A09462F282F672FCE01DF91CF911F91A6
:102630000C941108DF91CF911F910895DF92EF92D2
:10264000FF920F931F93CF93DF938C01FC01E55C06
:10265000FD4F8081682381F1D090DE05D091DF05A8
:10266000C091DD05EC2EF12C0E94672F282FC701A9
:102670008C549F4F68E671E00E94DE2E8E199F09F0
:1026800097FD0396959587959595879523706C2F63
:10269000289F600D11247D2D8D2F0E944A09462F01
:1026A000282F672FC801DF91CF911F910F91FF90C5
:1026B000EF90DF900C941108DF91CF911F910F9153
:1026C000FF90EF90DF900895ECEDF5E085E28083D8
:1026D00080911B0190911C01A0911D018183928327
:1026E000A3838FE784838FEF858346E050E06CE11E
:1026F00070E0CF010C94D33090E080E00E94CD30A8
:10270000893E9E4F11F40C94251280E0089569EEE5
:102710007EEF90E080E00E94013160E082E090E096
:102720000E94E33060E083E090E00E94E33010928A
:10273000F90260E084E090E00E94E33060E082E231
:1027400090E00E94E33060E085E090E00E94E3309A
:1027500060E086E090E00E94E3306FEF87E090E079
:102760000E94E33040E050E0BA0188E090E00E942F
:10277000F53060E08DE090E00E94E33040E050E012
:10278000BA0188E190E00E94F53060E087E190E0D6
:102790000E94E33040E050E0BA018CE190E00E94FA
:1027A000F53070E060E080E290E00E94013140E0AE
:1027B00050E0BA0188E190E00E94F53080E00E948C
:1027C0004A110E94621140E050E0BA018FE090E0AF
:1027D0000E94F53040E050E0BA0183E190E00C94B3
:1027E000F5301F920F920FB60F9211242F933F9343
:1027F0004F935F936F937F938F939F93AF93BF9309
:10280000EF93FF938091E10082FF09C08091E20085
:1028100082FF05C08091E1008B7F8093E100809171
:10282000DA0080FF24C08091D80080FF20C0809112
:10283000DA008E7F8093DA008091D90080FF9BC000
:1028400080E189BD82E189BD09B400FEFDCF81E050
:102850008093D8038091B303811109C00E940A04B8
:102860000E94D5048091E20084608093E200809110
:10287000E10080FF17C08091E20080FF13C08091CB
:10288000E2008E7F8093E2008091E200806180937D
:10289000E2008091D80080628093D80019BC85E066
:1028A0008093D8038091E10084FF29C08091E200E9
:1028B00084FF25C080E189BD82E189BD89B5982F5B
:1028C000917080FFFBCF8091D8008F7D8093D800DE
:1028D0008091E1008F7E8093E1008091E2008F7E05
:1028E0008093E2008091E20081608093E200809119
:1028F000D903882309F445C084E08093D8038091EC
:10290000E10083FF27C08091E20083FF23C0809114
:10291000E100877F8093E10082E08093D8031092EA
:10292000D9038091E1008E7F8093E1008091E200E5
:102930008E7F8093E2008091E20080618093E200CC
:1029400042E060E080E00E94A3048091F000886093
:102950008093F000FF91EF91BF91AF919F918F9184
:102960007F916F915F914F913F912F910F900FBE8B
:102970000F901F90189519BC1092D8031092B303B2
:1029800076CF8091E30087FD93E09093D803B7CF93
:1029900078941F921FB61F9211248F939F93AF9329
:1029A000BF938091AA039091AB03A091AC03B09127
:1029B000AD030196A11DB11D8093AA039093AB03B3
:1029C000A093AC03B093AD03BF91AF919F918F9152
:1029D0001F901FBE1F9018959C014FB7F8948091CF
:1029E000AA039091AB03A091AC03B091AD034FBF8C
:1029F000821B930B08952FB7F8948091AA039091AE
:102A0000AB03A091AC03B091AD032FBF08953F92EB
:102A10004F925F926F927F928F929F92AF92BF92EE
:102A2000CF92DF92EF92FF920F931F93CF93DF939A
:102A3000682E80911501861124C09091DC05937059
:102A40002091140130E081E09217130609F480E030
:102A5000817080931A018091E10590911901981776
:102A600039F08093190140E060E080E00E940F0897
:102A70002AE1261560F0E62DF0E0E658FE4C0C94B5
:102A8000F22E81E0E5CF80911A01811102C0C0E0F1
:102A900049C140E060E080E00E940F08F8CFC0919B
:102AA00018018DE0C89FC02D11241DE01C0F012FBF
:102AB0001F3308F00EE36091DD057091DE05809113
:102AC000DF050E944A09F62EE72ED82ED0E0C01767
:102AD00028F0C1E01E3308F425C1D9CFFE01E55C22
:102AE000FD4F808190911901892331F02D2D4F2DBB
:102AF0006E2DCE010E9411082196E9CFC0911801D8
:102B00008DE0C89FC02D11241DE01C0F012F1F3325
:102B100008F00EE3E090DE05F090DF05D091DD05D2
:102B20006D2F7E2D8F2D0E944A09D62EC72EB82ECE
:102B30006091E0056D0F7E2D8F2D0E944A09F62EC3
:102B4000E72EA82ED0E0C01720F6FE01E55CFD4F71
:102B5000908180911901892359F02A2D4F2D6E2DD6
:102B600090FD03C02B2D4D2D6C2DCE010E94110820
:102B70002196E9CFC09118018DE0C89FC02D112486
:102B80001DE01C0FF12E1F3310F0FEE3FF2EE0902E
:102B9000DE05D090DF052091E00500E4029F012DC5
:102BA0001124D0E0CF1508F094CFFE01E55CFD4F75
:102BB0008081909119018923D9F0FE01EE0FFF1F4A
:102BC000E154FE4F6081069FB0011124E5E0759548
:102BD0006795EA95E1F78091DD05680F7E2D8D2DD3
:102BE0000E944A09462F282F672FCE010E94110804
:102BF0002196D8CFC09118018DE0C89FC02D112417
:102C00001DE01C0F012F1F3308F00EE3F090DD05CF
:102C1000D091DE05E090DF056091E0056695669550
:102C200066958091AF059091B0050E9440090E9481
:102C3000A608805887FD8195880F282F3E2D239F59
:102C4000212D1124822F6F2D7D2F0E944A09F62EEF
:102C5000E72ED82ED0E0C01708F03BCFFE01E55C90
:102C6000FD4F808190911901892331F02D2D4F2D39
:102C70006E2DCE010E9411082196EDCF85EE97E0D2
:102C80000E94570A04C087E898E00E94840BC82F6E
:102C900049C08BE698E00E94070BF9CF83EE97E0DE
:102CA000EFCF8AED97E0ECCF81ED97E0E9CF88EBAD
:102CB00097E0E6CF8AEA97E0EECF88E199E0E5CFAA
:102CC0008AE598E0E2CF86E498E0E5CF8DE797E0EB
:102CD0000E94A50ADCCF8FE497E0FACF88E197E065
:102CE000F7CFC0911A01C11142C06091E00520E107
:102CF000620F08F46FEF8091AF059091B0050E94CC
:102D000040096AE070E00E94CA2E892B09F0BFCE0C
:102D10000E94672F6EE370E00E94DE2E6091190121
:102D20000E941E13809118018F5F80931801C111BA
:102D30000CC082E08093170180911A01811105C0B7
:102D4000611003C083E080931701DF91CF911F9141
:102D50000F91FF90EF90DF90CF90BF90AF909F903A
:102D60008F907F906F905F904F903F900895C091AB
:102D700018018DE0C89FC02D11245DE0F52EFC0EDA
:102D80000F2D8EE38F1508F40EE3D0E010E0C0178E
:102D9000D1072CF0C1E0ADE3AF1520F678CE6091FD
:102DA0001901CE010E941E132196F1CFC0911A0184
:102DB000C1111EC06091E00520E1620F08F46FEFC1
:102DC0008091AF059091B0050E94400965E070E0E8
:102DD0000E94CA2E892B09F05ACE0E94672F6EE3FB
:102DE00070E00E94DE2E609119010E94F7129ACFC6
:102DF000C09118018DE0C89FC02D11244DE0F42E24
:102E0000FC0E0F2DBEE3BF1508F40EE3D0E010E07A
:102E1000C017D10734F0C1E0EDE3EF1508F082CF21
:102E200036CE60911901CE010E94F7122196F0CFA3
:102E3000C09118018DE0C89FC02D11241DE01C0F0A
:102E4000012F1F3308F00EE3E090DE05F090DF0560
:102E5000D091DD056091E005669566956695809157
:102E6000AF059091B0050E9440090E94A6088058C5
:102E700087FD8195880F682F2CE0629F612D1124BA
:102E80006D0F7E2D8F2D0E944A09F62EE72ED82E2B
:102E9000D0E0C01708F01DCEFE01E55CFD4F80813B
:102EA00090911901892331F02D2D4F2D6E2DCE01DA
:102EB0000E9411082196EDCF85EC98E0E1CE87E0E5
:102EC00097E0DECEC09118018DE0C89FC02D11247F
:102ED0003DE0532E5C0E152D26E4251508F416E46E
:102EE00080911A01882361F040E060E080E00E9458
:102EF0000F08EDE5F3E086E4DF011D928A95E9F71E
:102F000080911801811115C080915B0390915C0341
:102F10000E94EC1421E08931910508F420E020930F
:102F20005A03499730F00E94FB1490935C038093FE
:102F30005B03D0E0E12EF12C85E0882E912C9EE001
:102F4000492E2AEA322ECE15DF0534F0C1E0B5E471
:102F5000B51508F0E7CE9BCDCE01B4010E94DE2E60
:102F60006B015C014A9CC0014B9C900D1124FC013B
:102F7000E35AFC4FE60FF71F708087589E4FFC0105
:102F8000E60FF71F00810F3F51F110E0F801E55CFB
:102F9000FD4F808190911901892309F1372D25E595
:102FA000321B08F430E07091DE05232D472D240FED
:102FB00008F42FEF4091DF05822F880F820F8E5F7C
:102FC000282F249F212D1124822F632D631B0E9403
:102FD0004A09462F282F672FC8010E9411088091A7
:102FE0005A03882381F0372D41E0341B08F430E088
:102FF0004A9CC0014B9C900D1124835A9C4FC80ED3
:10300000D91ED6013C9321969ECF80E097E00E9486
:10301000DE093DCE8AEF96E0FACF0E94FB149C01B8
:103020009091560380915703982B21F030935303CE
:10303000209352039091580380915903982B21F0CB
:103040003093510320935003E091A503F091A60320
:10305000309749F082E0809354030480F581E02D9D
:1030600084E593E00994089590E080E00E940C06C6
:1030700090E080E00E94F6051092F6021092F502B0
:103080000E94DF0E86E0E4E5F3E0DF011D928A9501
:10309000E9F710924E0310924D0310924F030C94D7
:1030A0000D188093AE050C9434188091AE05982FBE
:1030B0009670963019F488600C945118877FFCCF75
:1030C00021E030E001C0220F8A95EAF72095809137
:1030D000AE0582230C9451189091F40280958923B7
:1030E0008093F402282F277039F4282F082E000C23
:1030F000330B9217130621F49091AF0392FF07C090
:103100008595859585950E9460181092F402089522
:1031100021E030E001C0220F8A95EAF78091AE05E8
:10312000822B0C9451188093F9020C94341810924D
:10313000F70280911601E2E8F2E0882359F08091CD
:10314000AE0387FF07C08EE1DF011D928A95E9F784
:103150000C94341886E0F8CF1F93CF93DF93CDB74C
:10316000DEB7AA970FB6F894DEBF0FBECDBF8AEDCB
:1031700093E02091F100DC012D93CD01B3E0823E7C
:103180009B07B9F78091DB03833009F471C0B8F471
:10319000813009F448C0823009F4B2C08091E8005F
:1031A00083FF88C28091DA039091DB039A3008F0A4
:1031B00081C2E92FF0E0EB56FE4C0C94F22E8A30DF
:1031C00009F48DC08B3009F470C0893039F78091D3
:1031D000DA03813219F78091DE039091DF030097C3
:1031E00011F00297D9F68091E800877F8093E8007C
:1031F0008091E80082FF37C09091F3008091F20047
:10320000029729F48091F1008B7F813021F4809125
:10321000F1008093B5038091E8008B778093E800FC
:103220000E948404BBCF8091DA03813A09F0B6CFC3
:103230008091E800877F8093E8008091DE03909181
:10324000DF03892B61F460E286EB93E070E00E947B
:1032500036058091E8008B778093E8009FCF60E08F
:1032600090E080E0F3CF8091D8038111C1CF96CF59
:103270008091DA03813A09F091CF8091DE03909139
:10328000DF03892B09F08ACF8091E800877F809344
:10329000E8008091E80080FFFCCF809116018093C8
:1032A000F1008091E8008E77B9CF8091DA03813206
:1032B00009F074CF8091DE039091DF03892B09F030
:1032C0006DCF8091E800877F8093E8000E9484049E
:1032D0008091DC03809316010E9497185FCF809144
:1032E000DA03813209F05ACF8091E800877F80931A
:1032F000E8000E9484048091DD038093B4034ECFE4
:103300008091DA03813A09F049CF8091E800877F04
:103310008093E8008091E80080FFFCCF8091B403A7
:10332000BECF803899F0823809F0C4C18091DE03A5
:103330008F70873008F0BEC18093E9008091EB0068
:1033400085FB882780F91092E90006C08091D6039A
:103350009091D703911182609091E800977F9093AC
:10336000E8008093F1001092F1008091E8008E77E0
:103370009DC1882309F48BC1823009F09BC18091E3
:10338000DC0381118EC18091DE038F702FEF280F37
:10339000263008F08FC18093E9002091EB0020FFD8
:1033A00080C1933031F48091EB0080628093EB0018
:1033B00078C19091EB0090619093EB0021E030E0B8
:1033C00001C0220F8A95EAF72093EA001092EA00E2
:1033D0008091EB008860EACF81116CC11091DC0311
:1033E0001F778091E3008078812B8093E3008091A8
:1033F000E800877F8093E8000E9484048091E800C1
:1034000080FFFCCF8091E30080688093E30082E03E
:10341000111183E08093D8034DC18058823008F0A9
:1034200049C12091DC033091DD032C3DE3E03E07F0
:10343000A1F583E08A838AE289834FB7F894DE019D
:10344000139620E03EE051E2E32FF0E05093570066
:10345000E49120FF03C0E295EF703F5FEF708E2F85
:1034600090E0EA30C0F0C7968D939D932F5F243192
:1034700059F74FBF8091E800877F8093E8006AE2A8
:1034800070E0CE0101960E9436058091E8008B77AE
:103490008093E8000FC1C096E7CF8091DE03909142
:1034A000DF03432F55274330510509F44AC078F50F
:1034B0004130510509F47AC08BE590E0ECE9F6E083
:1034C0004230510509F0F6C02091E800277F209393
:1034D000E8002091E0033091E1038217930708F49C
:1034E0009C0140E02115310509F065C0411163C020
:1034F0008091E80082FDC9CF8091D803882329F20A
:10350000853019F28091E80083FFF2CFBECF4132BF
:10351000510509F43CC04232510509F0CBC083305B
:10352000910508F0C7C0FC01EE0FFF1FE359FE4FE5
:103530000190F081E02D86599E4FDC018C9190E046
:103540001AC0332721303105D1F02115310561F042
:103550002230310509F0AEC0E9E0F7E0E4918E2FAA
:1035600090E0E9E0F7E007C0E3E3F7E0E4918E2FB5
:1035700090E0E3E3F7E0009709F49CC0A5CFE3E215
:10358000F7E0E4918E2F90E0E3E2F7E0F4CF8330B0
:10359000910508F08FC0880F991FFC01ED58FE4F70
:1035A0000190F081E02D89E090E08ECF82E190E003
:1035B000E7EFF6E089CF8091D803882309F465CF3F
:1035C000853009F462CF8091E80083FD5ECF809161
:1035D000E80082FD8DCF8091E80080FF83CF90913D
:1035E000F3008091F2002115310519F08830910522
:1035F00050F041E0089709F040E08091E8008E77B4
:103600008093E8006FCF44914093F10031962150B0
:1036100031090196E8CF803809F04CC08091E8006C
:10362000877F8093E8008091D9038093F1009DCE3D
:10363000811140C01091DC031230E0F58091E80068
:10364000877F8093E8001093D9030E94840411239C
:1036500011F084E005C08091E30087FDFACF81E09E
:103660008093D80342E061EC81E00E94A30442E22F
:1036700061EC84E00E94A30442E261EC82E00E94DB
:10368000A30442E260EC83E00E94A30413C0809193
:10369000DC03813079F481E0933009F080E080939D
:1036A000D7031092E9008091E800877F8093E800BB
:1036B0000E9484048091E80083FF0AC08091E800A2
:1036C000877F8093E8008091EB0080628093EB001D
:1036D000AA960FB6F894DEBF0FBECDBFDF91CF9193
:1036E0001F9108951F920F920FB60F9211242F93DE
:1036F0003F934F935F936F937F938F939F93AF937A
:10370000BF93CF93DF93EF93FF93D091E900DF70E6
:103710008091EC00C82FC17080FDC0E81092E900D4
:103720008091F000877F8093F00078940E94AC181D
:103730001092E9008091F00088608093F000CD2B1A
:10374000CF70C093E900FF91EF91DF91CF91BF91CE
:10375000AF919F918F917F916F915F914F913F9129
:103760002F910F900FBE0F901F9018958823B1F1E5
:103770009CEF980F913A38F4682F80E892E00E940D
:1037800097050C94DF0E90E2980F983088F48770BC
:1037900021E030E0A90102C0440F551F8A95E2F7ED
:1037A000CA0180959091F70289238093F702E9CFAF
:1037B0009BE5980F933020F490E080E00C940C0689
:1037C00098E5980F973120F490E080E00C94F6058E
:1037D000803F20F00E94E00B0C940D180895CF93C9
:1037E000C82F882309F46EC08CEF8C0F813AB8F58E
:1037F00080911601882311F18091AE0387FF1EC0CE
:10380000EC2FE695E695E695F0E0E058FD4F8281D5
:1038100090E04C2F477021E030E002C0220F331FB0
:103820004A95E2F782239323892B89F06C2F80E855
:1038300092E00E9497050E94DF0E09C0E2E8F2E0E4
:103840008191C81799F382E0E838F807C9F76C2F1F
:1038500080E892E00E94C105CF910C94DF0E80E2D7
:103860008C0F883068F4C77021E030E001C0220F6F
:10387000CA95EAF78091F702822B8093F702ECCF8A
:10388000EBE5EC0FE33040F4F0E0E25EFE4F8081C8
:1038900090E0CF910C940C06E8E5EC0FE73150F482
:1038A000F0E0EE0FFF1FEF5DFE4F80819181CF9121
:1038B0000C94F605C03F30F08C2F0E949B0CCF91EA
:1038C0000C940D18CF9108951F93CF93DF93182F69
:1038D000D0E0C0E0893311F4C0E5D0E0812F0E9430
:1038E000EF1B209731F4812FDF91CF911F910C9422
:1038F000B61B8FE99FE00197F1F700C00000219708
:10390000F0CF0F931F93CF93DF93C62FD42F022FA7
:10391000FC0182818823A1F06093AC050E94FB1416
:103920009093AB058093AA05C77081E001C0880F12
:10393000CA95EAF7DF91CF911F910F910C948D0FEB
:103940008091AC05681335C08091AA059091AB05B4
:103950000E94EC14883C910560F510E21D0FCD1714
:10396000B9F080E28C0F883040F4C77081E001C06C
:10397000880FCA95EAF70E94820F183048F481E058
:103980009D2F977001C0880F9A95EAF70E948D0FBE
:10399000802F0E94641C183098F4D77081E001C019
:1039A000880FDA95EAF7DF91CF911F910F910C9470
:1039B000820FC77081E001C0880FCA95EAF7F3CF84
:1039C000DF91CF911F910F9108953F924F925F9297
:1039D0006F927F928F929F92AF92BF92CF92DF921F
:1039E000EF92FF920F931F93CF93DF9300D000D0FD
:1039F0000F92CDB7DEB78C01FC0183819481892BB6
:103A000031F08081918189238F3F09F053C50F9058
:103A10000F900F900F900F90DF91CF911F910F910A
:103A2000FF90EF90DF90CF90BF90AF909F908F90DE
:103A30007F906F905F904F903F9008950E94C311C8
:103A4000F82E682F89819A810E94560F69817A81A8
:103A50008F2D0E94B6117C01F8018281882309F420
:103A6000EFC4970122513F452031310508F015C5BB
:103A70008FEF93E00E94C530FEEEEF0E57E5852EE6
:103A800052E0952E882381F18091F402877009F429
:103A9000BECFF8018281882309F4B9CF82E00F906C
:103AA0000F900F900F900F90DF91CF911F910F917A
:103AB000FF90EF90DF90CF90BF90AF909F908F904E
:103AC0007F906F905F904F903F900C946C18811492
:103AD00024E09206C9F2C4010E94C530811101C0E0
:103AE000EA943FEF831A930AE110F1CF1C821B8204
:103AF000442443944AE0342E74018FEFE81AF80A04
:103B0000C4010E94C53089831A82882309F4BCCF7E
:103B10009FEF980F933000F58A83498292E0890ED7
:103B2000911CC7010E94C5308B83882309F4ACCF58
:103B3000FE0131967F01F70120812223E9F2213035
:103B400009F049C091818281913041F4F2E0EF0E99
:103B5000F11C0E94641C09C04701EACF923049F46D
:103B600022E0E20EF11C0E94EF1B3FEFE31AF30A82
:103B7000E2CF933031F432E0E30EF11C0E94B61B29
:103B8000F4CF943021F08FEFE81AF80AEECF92E0EC
:103B9000E90EF11C30E020E0B7016F5F7F4FF701C5
:103BA00041818053990B8A30910550F021503109A1
:103BB000E0F28FE99FE00197F1F700C00000F6CF37
:103BC000329EF001339EF00D11249C012E0F3F1FF9
:103BD000842F7B01E1CFE22FF0E0EC50FE4F5490B8
:103BE000822F86958695869590E0FC01EC51FE4FDC
:103BF00064902770712C022E02C0759467940A9409
:103C0000E2F7E1E06E227724FC01EC52FE4FA49033
:103C1000B12C022E02C0B594A7940A94E2F7F1E009
:103C2000AF22BB24FC01EC53FE4FC490D12C02C048
:103C3000D594C7942A95E2F721E0C222DD246114CD
:103C4000710419F081EE0E94EF1BA114B10419F068
:103C500086EE0E94EF1B852D0E94641CAB2819F094
:103C600086EE0E94B61B672819F081EE0E94B61BF3
:103C7000CD2809F47ACF8CE26CCF81E00E948818BD
:103C80000E94551801CF81E00E946018F9CF82E0B0
:103C9000FBCF95EFE9169CE5F90609F462C008F43C
:103CA0005CC027E245EE66EEF6EFEF16FCE5FF0698
:103CB00009F4EFC3882309F40EC41092AC0522E086
:103CC000E2162CE5F20608F445C136E1E3163CE5C0
:103CD000F30630F0C7018A5F9C45099708F03AC1A6
:103CE0000E943E129093AF038093AE0380E1E816EA
:103CF0008CE5F80609F4FDC008F07CC0E8E0EE169B
:103D0000ECE5FE0609F4E7C008F048C024E0E2163E
:103D10002CE5F20609F4D7C058F582E0E8168CE5E8
:103D2000F80609F4CAC08091AE03826093E0E916F8
:103D30009CE5F90609F4C4C08091AE039091AF03ED
:103D40000E9471110E9497189FCE27E245EE65EE02
:103D5000A0C326E241EE60EE9CC327E245EE64EE8E
:103D600098C326E241EE62EE94C328E241E0EFCF31
:103D70008091AE038061E6E0EE16ECE5FE0609F404
:103D80009FC08091AE038860F7E0EF16FCE5FF0668
:103D900008F496C08091AE03806292C08091AE0319
:103DA0008D7F2CE0E2162CE5F20609F489C060F460
:103DB0008AE0E8168CE5F80609F497C008F48FC08D
:103DC0008091AE038E7F7CC08091AE03877FEEE052
:103DD000EE16ECE5FE0609F473C08091AE038B7F0E
:103DE000FFE0EF16FCE5FF0608F46AC08091AE0321
:103DF0008F7E66C02BEFE2162CE5F20609F467C051
:103E000068F583E1E8168CE5F80609F47AC090F4C9
:103E1000E1E1EE16ECE5FE0609F46FC0F2E1EF1603
:103E2000FCE5FF0609F088CF0E9497188091AE0349
:103E30008F7746C025E1E2162CE5F20609F469C049
:103E400008F47DC08AEFE8168CE5F80609F074CF17
:103E50008091AF0381608093AF036ECF9FEFE9162F
:103E60009CE5F90609F451C0A0F48091AF038D7F61
:103E7000FDEFEF16FCE5FF0671F38091AF038E7F37
:103E80002EEFE2162CE5F20630F38091AF0383604B
:103E9000E2CF31E0E3163DE5F30609F459C008F43A
:103EA00044C060E092E0E9169DE5F90609F044CFD0
:103EB0008EE090E00E94E3303FCF8091AE038160BE
:103EC0008093AE0339CF8091AE038460F9CF8091A7
:103ED000AF038260C0CF8091AE038064F1CF0E94B7
:103EE00097188091AE038068EBCF8091AE038C6011
:103EF000E7CF8091AE038F7DE3CF8091AE038F7BC0
:103F0000DFCF8091AE03837FDBCF8091AF038C7FC7
:103F1000A2CF8091AE0382FB992790F921E09227EE
:103F200090FB82F990FB83F9CBCF8091AF03982F60
:103F3000909591708E7F892B90FB81F98CCF0E9498
:103F400097189091AE03892F97FB87F98058B8CFC7
:103F500061E0AECF8091F702E6E1EE16ECE5FE06F9
:103F600009F0C8C28A7A91E009F490E09093A00227
:103F700069E2811165E380E892E00E94C1050E9438
:103F8000DF0E82CD8091DC0591E089278093DC05EE
:103F9000109217019093AD0577CD4AED56E063EE90
:103FA00076E00E942E0670CD43EE56E06AED76E094
:103FB000F8CF48EC56E061ED76E0F3CF41ED56E006
:103FC00068EC76E0EECF40EB56E06CEB76E0E9CFC4
:103FD0004CEB56E060EB76E0E4CF44EA56E068E96B
:103FE00076E0DFCF40E856E06CE876E0DACF4CE8E8
:103FF00056E060E876E0D5CF81E00E94E50344CD4D
:1040000089E0FBCF9BE5E9169DE5F90611F1ECE5AA
:10401000EE16EDE5FE0609F09FC28091AF0382FB2C
:10402000882780F991E089270E947E1195C20E941D
:104030009718FFEF24E33CE0F15020403040E1F7D7
:1040400000C000000E94C1100E9487131DCD81E0B6
:10405000EBCF80E0E9CFC7010E942E0FD82E8BC294
:104060002F2D2F70C22E8F2D807F19F0C29490EFCC
:10407000C922DD20C9F0CC2069F080E28E0D8830A5
:1040800010F081100BC08091F702C82AC092F7028D
:104090000E94DF0E8E2D0E94EF1B19C08091F60248
:1040A000C82AC092F602F4CF8E2D0E94B61BCC20F7
:1040B00071F0C09480E28E0D883010F081103DC008
:1040C0008091F702C822C092F7020E94DF0E292DCC
:1040D0002850330B2430310510F40E942206AA2008
:1040E00009F495CC8091F40280FD91CCF801128204
:1040F0008595859585950E948818C8010E94E51CC4
:104100008091F4028595859585950F900F900F907D
:104110000F900F90DF91CF911F910F91FF90EF9033
:10412000DF90CF90BF90AF909F908F907F906F90D7
:104130005F904F903F900C9460188091F602C822D7
:10414000C092F602C2CF3F2D3F70B32E8F2D807FDD
:10415000803219F0B29480EFB822882071F081E0AB
:10416000881681F1DD20D9F1CC2091F1F80185810B
:1041700080FF90CF8F7085832BC0DD20B1F09091B0
:10418000F8028B2D892BC11003C00E948D0F9FCF89
:10419000E1E0CE12FACF2091AF0322FD98CF89172C
:1041A00009F495CF8093F80292CFC11006C00E9407
:1041B000D90E8B2D0E94820F8ACFF1E0CF1609F421
:1041C00086CFF5CFDD2031F025E02C1508F47FCF28
:1041D0008B2DDBCF34E03C1508F479CFEACFCC202F
:1041E00041F3F9E38F1209C02FEF37EE83E021503E
:1041F00030408040E1F700C000008E2D0E94B61BC9
:1042000066CF8F2D86958695837061F0813009F099
:104210005ECFC7019370D11002C090E080E00E9491
:10422000F60555CFC7019370D11002C090E080E031
:104230000E940C064CCF8E2DDD2029F00E949B0C95
:104240000E940D1844CF0E94E00BFACF8F2D83708F
:1042500091F5D1103CCF4E2D429546954770440FB5
:10426000440F8E2D8F70042E01C0880F0A94EAF738
:104270002E2D2071E4FE07C02FE030E001C0220F98
:104280004A95EAF720953F2D3695369533703230B2
:1042900069F050F44091F902313029F0822B8423E7
:1042A0000E94931814CF842B822BFACF282B809155
:1042B000F9028227F5CF8695DD2011F08F2D8170D0
:1042C000882309F404CF4E2D429546954770440F3C
:1042D000440F8E2D8F70042E01C0880F0A94EAF7C8
:1042E0002E2D2071E4FE07C02FE030E001C0220F28
:1042F0004A95EAF720953F2D369536953370323042
:1043000069F050F44091AE05313029F0822B8423BE
:104310000E945118DCCE842B822BFACF282B80915F
:10432000AE058227F5CF9F2D9F70F92EDD2029F055
:10433000892F0E9488188E2D28CF8E2D0E94820FE3
:104340008F2D0E946018C3CE8E2DE2EF8E1609F4D9
:104350004BC0E81570F0F0EF8F1639F121EF82169F
:10436000D9F1DD2009F45CC0C11094CE8F2D8F717E
:1043700038C033EF8316E9F194EF8912F2CFDD20D4
:1043800009F443C02F2D2F71F22E822F0E9488181E
:104390008091AF0382FD07C038E0F39EC001112475
:1043A00083608093F4028F2D1CC0DD2081F0E4E057
:1043B000EC1508F48CCE2F2D2F7181E090E001C018
:1043C000880F2A95EAF79091AE058927A1CFF5E0ED
:1043D000FC1508F47CCEEFCF8F2D8F71DD2009F412
:1043E000B0CF0E94881873CE8F2D8F71DD20C9F356
:1043F000A8CF80E0DD2009F48BCF9F2D9F7181E055
:1044000001C0880F9A95EAF783CF81E00E946C186B
:1044100081E08C1508F05BCE82E00E946C1857CECC
:10442000CC2059F0893309F0E8CE9FEFE7EEF3E0B6
:104430009150E040F040E1F7DECE8F2D8F7181CFBB
:10444000F0E1EF16FFE5FF0609F41DCC21E1E216CD
:104450002FE5F20609F41BCC93EFE9169CE5F9066B
:1044600009F477CC08F015CCF8EDEF16FCE5FF0663
:1044700009F46BCC29EDE2162CE5F20609F475CCB3
:1044800037EDE3163CE5F30609F014CC26E241EEE5
:1044900061EEC8010E94811CF7CA30E1E3163FE5D6
:1044A000F30609F4EACB91E1E9169FE5F906A1F6D6
:1044B00082E0E4CB85E0DE01119601900D928A95B1
:1044C000E1F7F801228189819A812111B7CA0E94FE
:1044D0002E0FF82EBBCAF6E1EF16FCE5FF06E1F55C
:1044E0008091A00269E2811165E380E892E00E9478
:1044F000970545CD82722AECE2162CE5F20609F406
:104500006CCD08F086C095ECE9169CE5F90609F437
:1045100050CD08F065C0F3ECEF16FCE5FF0609F49A
:104520003CCD08F041CD32ECE3163CE5F30609F44E
:1045300029CDFAE5EF16FDE5FF0609F488CD08F070
:1045400061CDE1143CE5F30609F471CD8EEDE8167A
:104550008CE5F80609F478CDF8018281E080F180DD
:10456000882309F478CDC7010E94C311D82E682F83
:10457000C7010E94560FB7018D2D0E94B6110E94EF
:10458000510D7C01882EF801D280C580C2943FE095
:10459000C3228091F4028770A1F0AD2CDD2091F050
:1045A0008F2D807F803421F080E28E0D883048F09E
:1045B00082E00E946C188091F4028770AA24A39470
:1045C0008111A12C9F2C92942FE09222FBE0F915EF
:1045D00008F47DCDE92DF0E0E156FE4C0C94F22E6E
:1045E00097ECE9169CE5F90609F4EDCC08F4E6CC65
:1045F000F8ECEF16FCE5FF0609F4EACC48E956E0D2
:1046000064EA76E029ECE2162CE5F20609F4C9CC5E
:1046100090CF3FECE3163CE5F30609F4F1CCB0F49F
:10462000ECECEE16ECE5FE0609F4E1CC08F4DACC8D
:104630002DECE2162CE5F20609F4DECC84E03EEC2B
:10464000E3163CE5F30609F4D8CC73CF86EDE81603
:104650008CE5F80640F48EE091EDE9169CE5F9064C
:1046600008F4CBCC11CAEDE5EE16FE0609F40CCA2F
:1046700060CF1F93CF93DF938091C102807FA9F415
:104680008091BE02882389F08091F302D091C2020A
:104690006091BC027091BD02A091BF02B091C002B6
:1046A000C62FC72316E0D81304C0DF91CF911F9106
:1046B000089590E0109711F0CF3F19F4019687709C
:1046C000F2CF189F9001199F300D1124F901ED537D
:1046D000FD4F41814713F2CF40814613EFCF428116
:1046E0004111ECCF438154814A1B5B0B483C51057F
:1046F00028F78091C1028F7080618093C102F90117
:10470000E853FD4F80818F70806180838CEB92E055
:104710000E94E51CDF91CF911F910C94240FAF9262
:10472000BF92CF92DF92EF92FF920F931F93CF939E
:10473000DF93CDB7DEB761970FB6F894DEBF0FBE3B
:10474000CDBF8C0185E0F801DE011D9601900D9230
:104750008A95E1F7F801E2808CEBA82E82E0B82E72
:104760006091BF027091C0026115710509F432C1F8
:104770009091BC024091BD02892F84238F3F09F4A0
:1047800029C120813181C380D480F090BE02F6011E
:10479000E61BF70BFF2009F4E8C08091C102582FF7
:1047A000507FE83CF10508F0ABC0511177C0FE2CFA
:1047B000431321C092131FC0E1101DC08F70806190
:1047C0008093C102C5010E94E51C8091C102F801DD
:1047D00085838F2D61960FB6F894DEBF0FBECDBFD7
:1047E000DF91CF911F910F91FF90EF90DF90CF90CD
:1047F000BF90AF900895CD2829F0822F83238F3F5B
:1048000009F003C180E0F82FF170DF2E80FF3CC07B
:104810008091F3024091C20256E0841315C02D87A7
:104820003E878D859E850E94F211292F22952F703B
:104830002230F0F0243018F59F70F1F0F8019581E6
:10484000907FD1F4D12C1EC090E0589FF001599F69
:10485000F00D1124ED53FD4F6181361306C06081C8
:10486000261303C06281E6120FC001968770D5CF70
:104870009F7011F0882331F3805E883018F3C801EF
:104880000E94E51CFD2CA5CFEE2009F4A2CF80915B
:10489000C10281608093C102F12C9BCF431306C0FB
:1048A000921304C0F801EE2009F479C0C8010E94F7
:1048B000FE11882309F1EE20F9F08091C1028032C7
:1048C00070F02091BC023091BD0238872F83198689
:1048D000DB86CA868C87CE0107960E94E51C86E09F
:1048E000F801ACEBB2E001900D928A95E1F70E94DD
:1048F0003923FF24F3946DCFC8010E94E51CF9CF42
:1049000051110AC08CEB92E00E94E51C86E0F50193
:1049100011928A95E9F7C0CF43130FC092130DC0CF
:10492000E1100BC0F8018583C8010E94E51C86E0F8
:10493000F50111928A95E9F74CCFC8010E94FE114A
:104940008823D1F2EE20C1F28091C102803238F288
:104950002091BC023091BD023A8329831B82DD8203
:10496000CC828E83CE010196B8CFE83CF105F8F6F3
:10497000FE2CEE2009F243131FC092131DC080913C
:10498000C10280FD10C0982F907F69F0F8018583E7
:10499000903F31F0982F907F905F8F70892B8583A7
:1049A000C8010E94E51C86E0F801ACEBB2E0019082
:1049B0000D928A95E1F70DCFC8010E94FE11811179
:1049C0008ECF8091C10281608093C102C8010E9494
:1049D000E51CFFCEEE2009F48FCFC8010E94FE1126
:1049E000F82E882309F488CF86E0F801ACEBB2E01A
:1049F00001900D928A95E1F78091BC029091BD02E1
:104A00000E94F2110E943923E4CE81E08E25FBCE74
:104A10001F93CF93DF93CDB7DEB767970FB6F894A8
:104A2000DEBF0FBECDBF4B8B5C8B6D8B7E8B8F8BB8
:104A300061111092F6021A8A198A85E0FE017396B6
:104A4000DE011D9601900D928A95E1F786E0FE0148
:104A50003D96DE01179601900D928A95E1F7CE0101
:104A600007960E948F23811112C086E0FE013796BF
:104A7000DE01119601900D928A95E1F78A859B855A
:104A8000892B29F088859F8189238F3FB1F516E016
:104A90008091F3029091C20289131DC067960FB6F0
:104AA000F894DEBF0FBECDBFDF91CF911F91089567
:104AB00096E0929FD001939FB00D1124AD53BD4F4E
:104AC000FE01319601900D929A95E1F78093C20212
:104AD0000E94240FDCCF819FC00111248D539D4F74
:104AE0000E948F238823D1F28091F30290E00196F7
:104AF000877099278093F302CBCF2091C20230E0D8
:104B0000C9010196877099274091F3024817190649
:104B100079F60E9497181092C2021092F30286E072
:104B2000ECEBF2E0DF011D928A95E9F7B0CF2F920E
:104B30003F924F925F926F927F928F929F92AF922D
:104B4000BF92CF92DF92EF92FF920F931F93CF937A
:104B5000DF93CDB7DEB72A970FB6F894DEBF0FBE4E
:104B6000CDBFAE014F5F5F4F6A018AE0DA011D924F
:104B70008A95E9F70FE411E07A01AA24A394B12CF5
:104B8000F80181918F018F3F09F44BC0F894E82F11
:104B9000E295EF70F0E021A18F70A50102C0440FF3
:104BA000551F8A95E2F7CA01922F982B91A392A1E3
:104BB0008095892382A3789400C0E4E5F1E030E099
:104BC00020E0912C812C81918F3F09F4ACC0A82F5B
:104BD000A295AF70B0E090964C9150E08F7002C0FB
:104BE000559547958A95E2F740FD9DC0C501022E77
:104BF00002C0880F991F0A94E2F7882A992A2F5F2A
:104C00003F4F2E303105F9F6F801319780818F3F03
:104C100011F00E94F70C50EA5A95F1F7D7018D92E6
:104C20009C92B2E0EB0EF11CE1E004351E0709F0A6
:104C3000A7CF4AE050E0B6018FEF92E00E949F308C
:104C40008C01FF24F394892B09F4F12C0115110533
:104C500041F08AE0F601AFEFB2E001900D928A9543
:104C6000E1F75090FC02552009F46AC00E94FB1441
:104C70002091FA023091FB02AC01421B530B9A01C6
:104C80009093FB028093FA024F3F510511F008F018
:104C90004DC0452B09F444C0E22E1092FC02209135
:104CA000FD023091FE02E3E4F3E06FEF72E03901C0
:104CB00056E4650E711C412C88248394912C1901B3
:104CC00050E040E0D101DD901D01DD20D1F0CD01AB
:104CD0000197ED1470F1DC011C92C080D180DB01E2
:104CE0008D919C918C259D255401042E02C0AA0C07
:104CF000BB1C0A94E2F78A219B218C259D25918378
:104D000080834F5F5F4F4E305105E1F6225F3F4F8A
:104D100032966E5F7F4F6216730689F64092FC02F0
:104D2000012BB1F44DC090E080E067CF2FEF30E071
:104D3000B3CFDE18DC01DC92452CE3CF108233C008
:104D4000012BF1F10E94FB149093FB028093FA0275
:104D50002091FD023091FE026091FC02AFEFB2E0C3
:104D600083E4C82E83E0D82EAA24A394B12C73E048
:104D70004D915D91F601819191916F0148275927DD
:104D8000F90190E080E08501082E02C0000F111F9C
:104D90000A94E2F704231523012B81F210811111EB
:104DA00002C0708361E0319601968E30910559F70B
:104DB000225F3F4FF3E0A930BF07D1F66093FC02BA
:104DC0008F2D2A960FB6F894DEBF0FBECDBFDF91B0
:104DD000CF911F910F91FF90EF90DF90CF90BF90F8
:104DE000AF909F908F907F906F905F904F903F908B
:104DF0002F9008951F921FB61F9211248F939F9397
:104E0000AF93BF938091A903811113C08091AA032E
:104E10009091AB03A091AC03B091AD034196A11D5D
:104E2000B11D8093AA039093AB03A093AC03B093FE
:104E3000AD03BF91AF919F918F911F901FBE1F90A7
:104E40001895CDB7DEB7C254D1090FB6F894DEBFBE
:104E50000FBECDBF84B7877F84BF0FB6F894A895E7
:104E600080916000886180936000109260000FBEA6
:104E700080E890E00FB6F894809361009093610011
:104E80000FBE85B7806885BF85B7806885BF85EF11
:104E90009CE090937B0280937A020E940A040E9415
:104EA000D5048091E20084608093E2007894809140
:104EB000D8038823A1F01091E9001F709091EC00B5
:104EC000892F817090FD80E8182B1092E900809165
:104ED000E80083FD0E94AC181F701093E90082E087
:104EE00084BD93E095BD9AEF97BD80936E000E94BC
:104EF0002512811102C00E9462110FE411E0D80155
:104F00008D918D018F3F11F00E94F70CB1E00435B7
:104F10001B07A9F704E511E0F80181918F018F3F8C
:104F200011F00E94F70CF1E002361F07A9F710926A
:104F300000031092FF021092440310924303109258
:104F4000020310920103109246031092450310923F
:104F50000403109203031092480310924703109227
:104F600006031092050310924A031092490310920F
:104F700008031092070310924C0310924B0386E42F
:104F800090E00E94772FAC019093FE028093FD0287
:104F900030E020E0FA01E20FF31F9EE01192915001
:104FA000E9F7225F3F4F26343105A1F70E947C13B9
:104FB000811102C00E94871382E090E00E94C530F8
:104FC000809338030E943E129093AF038093AE0308
:104FD0000E9497258FEB9DE50197F1F700C0000037
:104FE0000E9497258091430380FF08C06FEF7FEFF9
:104FF00090E080E00E9401310E94C11083E090E0C7
:105000000E94C5300E9493180E944C121092B30562
:105010008FEF9FEF9093CD058093CC059093CF05B4
:105020008093CE059093D1058093D0059093D305BE
:105030008093D2059093D5058093D4059093D7059E
:105040008093D6059093D9058093D8059093DB057E
:105050008093DA051092090390932303809322032F
:105060009093250380932403909327038093260332
:10507000909329038093280390932B0380932A0312
:1050800090932D0380932C0390932F0380932E03F2
:1050900090933103809330030E947C13811104C0EC
:1050A0000E9487130E94641346E050E06CE170E0B8
:1050B0008CED95E00E94B5308091DC058C7F11F479
:1050C0000E9464138091AE0380688093AE03809148
:1050D000AE039091AF030E9471118AE091E090932A
:1050E000A6038093A50301E08091D80310E1F12E7F
:1050F00012E1853009F432C30E949725882359F0C4
:105100008FB7F8944091AA035091AB036091AC0320
:105110007091AD038FBF43E453E05FAB4EAB89E3C7
:1051200093E09BAB8AAB712C612CF12CE12C1CA67B
:10513000EFA6EAAEAEA9BFA9ED91FD91BFABAEABB4
:10514000F9ABE8ABAAA9BBA98D919D91BBABAAAB6A
:105150008E179F0709F44BC1BFEFBE0DBCABEEE04D
:10516000BE9F90011124A901435A5C4F1A01D3013B
:10517000A559BC4F2D017EA66DA610E0AA24A394CC
:10518000B12CE8A9F9A9E827F927FCAFEBAF2AA9C8
:105190003BA92250310939AF28AF5EAF4DAF97011F
:1051A0002F5F3F4F4EE0429FC001439F900D11245F
:1051B000DC01A35ABC4F2196BFAFAEAF21974E9DE5
:1051C000C0014F9D900D1124FC01E35AFC4F239622
:1051D000FFAFEEAF23978BAD9CAD8A219B21892B2E
:1051E00009F4F3C019A3FAADFAA3C8A8D9A8CA2034
:1051F000DB2081E0C114D10409F480E08BA30E947C
:10520000FB148160782F9DA38CA349A15AA16BA1A7
:105210008DA10E940825A8ADB9AD8D919C911197E3
:105220008A259B258D939C93CD2841F0EDA5FEA565
:10523000E758FE4F80818F3F09F09CC21BA6EBA56B
:10524000CE2ED12C809109038C0D9D2D911D099797
:1052500074F1E8E08E2E912C8C189D08B601665FE3
:105260007C4FA4018AE093E00E94AC30B6016E5EF0
:105270007C4FA40182E193E00E94AC30A401440F72
:10528000551FB601660F771F6E5D7C4F82E293E07B
:105290000E94AC30B601665E7C4FA4018AE193E0C7
:1052A0000E94AC3088E0FBA58F1B8093090380919E
:1052B000090390E02DA9A22FB0E09D01220F331F1A
:1052C00021543E4FAA0FBB1FBD0160547E4F41E0E9
:1052D000480FEBA59E1708F451C2809309038091F3
:1052E000DC058C7F803609F06BC08FEF810F811752
:1052F00060F42396EEADFFAD2397E80FF11D2081FA
:1053000030E1230F08F42FEF2083EDA5FEA5E35A2B
:10531000FC4F208140E2240F08F42FEF208391E01E
:10532000910F9E3009F45BC4218150E1250F08F4F0
:105330002FEF2183AFA5A43029F1811760F42196C6
:10534000EEADFFAD2197E80FF11D20813DE0230F69
:1053500008F42FEF2083D2012C9130E1230F08F4C1
:105360002FEF2C939E3009F434C411962C91119791
:105370003DE0230F08F42FEF11962C93BFA5ECA965
:10538000EB17F0F4811750F4EDADFEADE80FF11D11
:1053900020813DE0230F08F42FEF2083D1012C91D1
:1053A00030E1230F08F42FEF2C939E3049F0119633
:1053B0002C9111973DE0230F08F42FEF11962C93B9
:1053C000BCA5BF5FBCA7BC3080F51F5FAA0CBB1C8F
:1053D000EFEF2E1A3E0AFFEF4F1A5F0A2DA53EA5EA
:1053E0002F5F3F4F3EA72DA71E3009F0F4CE3FEFB1
:1053F000E31AF30A4EE0640E711C55E0E516F10461
:1054000009F096CE8CA5811110C08FEF8EA38FA3CB
:1054100018A60E94FB148160782F9AA789A74EA135
:105420005FA168A58AA50E9408258091320390910A
:105430003303A0913403B09135032FB7F894409013
:10544000AA035090AB036090AC037090AD032FBFE4
:1054500053014201881A990AAA0ABB0A2FB7F89485
:10546000C090AA03D090AB03E090AC03F090AD03E2
:105470002FBFC0923203D0923303E0923403F092F4
:10548000350360910903E9E0F3E0462F50E001970E
:10549000AF4FBF4F84199509A609B709651384C199
:1054A000409309038091360310E0811108C0809178
:1054B000DC05182F137019F0182F1695169580918A
:1054C0001701813009F499C1882309F480C1823021
:1054D00009F4A5C1833009F4A6C186E0E4E5F3E050
:1054E000DE01119601900D928A95E1F7E090560346
:1054F000D090570310915803F0905903109256031F
:105500001092570310925803109259038E2D8D2933
:1055100009F448C080915203909153030E94EC1407
:105520009C0190914E03992309F44EC32333310516
:10553000C8F19F3F19F09F5F90934E03EE2059F002
:105540000E947B0C9FEF1E140CF491E0899F802D2C
:10555000112480935603DD2059F00E947B0C9FEFAD
:105560001D140CF491E0899F802D11248093570322
:10557000309156033323B1F020915703222391F049
:1055800045EB3403C0011124992309F479C19093A8
:10559000560355EB250390011124332309F473C1FD
:1055A00030935703812F8F2909F448C0809150030D
:1055B000909151030E94EC149C0190914D0399230A
:1055C00009F4FDC225363105C8F19F3F19F09F5FF0
:1055D00090934D03112359F00E94590C9FEF11161F
:1055E0000CF491E0899F802D112480935803FF20B3
:1055F00059F00E94590C9FEF1F140CF491E0899F01
:10560000802D112480935903309158033323B1F036
:1056100020915903222391F045EB3403C00111245A
:10562000992309F433C19093580355EB2503900156
:105630001124332309F42DC130935903809156036B
:1056400090915703892B90915803892B909159037E
:10565000892B11F00E940D1886E0FE013196A4E519
:10566000B3E001900D928A95E1F70E942206909195
:105670003703891721F00E94220680933703809117
:10568000D803843009F030CD83E08093E900809125
:10569000E80082FF29CD8091E80090E085FF06C0F8
:1056A0000E942904882309F4F7C091E08091E80062
:1056B0008B778093E800992309F416CDE981E150B6
:1056C000E33108F088C1F0E0E555FE4C0C94F22E71
:1056D0008091D803843009F430C080913603811161
:1056E00005C00E94071580E00E94ED0691E09093AE
:1056F00036031092A903A8E1B0E0E0E40FB6F894F5
:10570000A895A09360000FBEE093600083B7817FEF
:10571000846083BF83B7816083BF7894889583B7A3
:105720008E7F83BF0FB6F894A89580916000886142
:1057300080936000109260000FBE8091D703882391
:1057400069F00E949725E3E4F3E081919191892B20
:1057500009F016C223E0ED34F207B9F78091D803BF
:10576000853009F4B5CF0E9497180E942206109246
:105770003603C2CC8DABB1E0BBA761CD90E0FC019C
:10578000E75FFC4FD9015C915183DB015C9151874C
:10579000BDA9B18B880F991FFC01E75FFC4F128EEA
:1057A000118E91E0842F93CD218D328D2901712CA2
:1057B000612C84159505A605B70520F441505F5F5F
:1057C00032966CCE280D391D328F218FF8CF109272
:1057D0001801C092AF05D092B005E092B105F092E9
:1057E000B20589E2E9E0F3E0A3EBB5E001900D92A8
:1057F0008A95E1F70093170170CE812F0E9407155B
:10580000112309F46ACE0E94220681FF66CE2FEF93
:105810004FEF6FEF89E290E00E9411085ECE812F7A
:105820000E94ED065ACE8091AD05882341F046E0F6
:1058300050E06CE170E08CED95E00E94D330109266
:10584000AD054091AF055091B0056091B1057091E3
:10585000B2052FB7F8948091AA039091AB03A09161
:10586000AC03B091AD032FBF841B950BA60BB70BF8
:105870004097A105B10508F430CE109217012DCE46
:105880000093560386CE009357038CCE00935803A3
:10589000CCCE00935903D2CE30E2C32ED12CCE0110
:1058A00001967C018091E80085FD0AC08091E800A6
:1058B0008B778093E8000E942904882399F3F5CE22
:1058C0008091F100D7018D937D01B1E0CB1AD10811
:1058D00049F7EBCE1A8289E08B831AC08A81823025
:1058E00009F464C18330D9F1813009F074C02FB755
:1058F000F8946091AA037091AB038091AC039091EE
:10590000AD032FBF0E94F82E6B837C838D839E8313
:105910008091D803843009F0E7CB1091E9001F7023
:105920009091EC00892F817090FD80E8182B82E027
:105930008093E9008091E80080FF0DC050E040E0D6
:1059400060E270E0CE0101960E945A048091E80066
:105950008E778093E8001F701093E900C5CB80918B
:105960004303909144039827892798279C838B832E
:1059700080914503909146039827892798279E8315
:105980008D83809147039091480398278927982712
:1059900098878F838091490390914A03982789279C
:1059A00098279A87898780914B0390914C03982779
:1059B000892798279C878B87ABCF8A81823059F4BF
:1059C0006B817C818D819E810E94F82E86E290E021
:1059D0000E94E3309DCF8FEF89839ACF4C816B81FA
:1059E0008A810E9490119827892798279E838D830A
:1059F0008FCFED80FE80FE24EF24FE248A81CB80B1
:105A0000ECE1CE9E60011124FCE88F9FC00CD11CFC
:105A100011248C8190E0880F991FC80ED91E6F2D1C
:105A2000C60187960E94E3306E2DC6018896D0CFBE
:105A30000E94F5106DCF80E18A836ACF0A8389EADC
:105A40004BCFEA80FB80FE24EF24FE249E012F5FD3
:105A50003F4F5901CC80A9014C0D511D6A01C7016E
:105A6000895A9D4FCA14DB0409F452CF59EAE5164E
:105A700051E0F50660F40E94C530D50114968C9370
:105A8000FFEFEF1AFF0A2FEFA21AB20AE8CFF501D3
:105A90001482F6CFEA80FB80FE24EF24FE24AE01C0
:105AA0004F5F5F4F5A01CC80CE0CDF2CD11CC70159
:105AB000895A9D4FEC14FD0409F42ACF59EAE516E2
:105AC00051E0F50628F4D50114966C910E94E3305C
:105AD000BFEFAB1ABB0AEFEFEE1AFE0AE8CF0E9447
