:100000000C94B8030C94FF030C94FF030C94FF03AF
:100010000C94FF030C94FF030C94FF030C94FF0358
:100020000C94FF030C94FF030C944F160C94CA1A03
:100030000C9452260C94FF030C94FF030C94FF03C2
:100040000C94FF030C94FF030C94FF030C94FF0328
:100050000C94FF030C9426170C94FF030C94FF03DD
:100060000C94FF030C94FF030C94FF030C94FF0308
:100070000C94FF030C94FF030C94FF030C94FF03F8
:100080000C94FF030C94FF030C94FF030C94FF03E8
:100090000C94FF030C94FF030C94FF030C94FF03D8
:1000A0000C94FF030C94FF030C94FF030501090259
:1000B000A10185020901A1000509190129081500FE
:1000C0002501950875018102050109300931158165
:1000D000257F95027508810609381581257F9501D0
:1000E00075088106050C0A38021581257F95017572
:1000F000088106C0C005010980A101850319012AF4
:10010000B700150126B700950175108100C0050CD8
:100110000901A101850419012AA002150126A002E6
:10012000950175108100C005010906A1018505052D
:100130000719E029E71500250195087501810205D9
:1001400007190029EF1500250195F07501810205B9
:10015000081901290595057501910295017503910D
:1001600001C00660FF0961A1010962150026FF00B8
:100170009520750881020963150026FF00952075FA
:10018000089102C005010906A101050719E029E748
:1001900015002501950875018102950175088101F9
:1001A0000507190029FF150026FF0095067508812F
:1001B000000508190129059505750191029501753C
:1001C000039101C0000000000000000000000000DA
:1001D000000000000000000000000000000000001F
:1001E00000000000000000007E0F00D4FFFFFFC7EA
:1001F0000000007800000000000000002A2B28000A
:1002000000000000000000000000000000000029C5
:10021000000000002C1E3420212224342627252E05
:10022000362D3738271E1F2021222324252633333D
:10023000362E37381F0405060708090A0B0C0D0E69
:100240000F101112131415161718191A1B1C1D2F35
:100250003130232D350405060708090A0B0C0D0E55
:100260000F101112131415161718191A1B1C1D2F15
:100270003130354C0001010101010101010102028F
:100280000202020202020203030303030303030444
:10029000040404040404050505050506060606060F
:1002A000070707070708080808090909090A0A0AC9
:1002B0000B0B0B0C0C0C0D0D0D0E0E0E0F0F0F106B
:1002C00010111111121213131414151516161717F5
:1002D000181819191A1A1B1B1C1D1D1E1E1F202061
:1002E000212222232424252626272829292A2B2CAB
:1002F0002D2D2E2F30313232333435363738393ACE
:100300003B3C3D3E3F404142434445464748494AC5
:100310004C4D4E4F50515354555658595A5B5D5E93
:100320005F616264656668696B6C6D6F707273752E
:1003300077787A7B7D7E8082838587888A8C8E8F92
:1003400091939596989A9C9EA0A2A3A5A7A9ABADC0
:10035000AFB1B3B5B7BABCBEC0C2C4C6C9CBCDCFAE
:10036000D1D4D6D8DBDDDFE2E4E7E9EBEEF0F3F55C
:10037000F8FAFDFF009B8B7B00AB8A7A00AA9A7982
:1003800000A9998900A8988800A7978700A6968653
:1003900000A5958500A49484003C4C5C002C4D5D28
:1003A000002D3D5E002E3E4E003040500031415148
:1003B000002A3A4A00293949002838480027374797
:1003C0000026364600253556002445550034445451
:1003D00000AC9C8C00AD9D8D00AE9E8E00AF9F8FBB
:1003E00000B0A09000B1A19100324252002B3B4BD3
:1003F00001A9998901A8988801A7978701A69686DF
:1004000001A5958501A49484013C4C5C012C4D5DB3
:10041000012D3D5E012E3E4E012F3F4F01304050D9
:100420000033435301AB8A7A012838480127374704
:1004300001263646012535560124455501AC9C8CD4
:1004400001AD9D8D01AE9E8E01AF9F8F0131415157
:10045000013242520133435300B2A281019B8B7B94
:10046000012B3B4B012A3A4A0134445401B1A1917A
:1004700001B2A28101B3928201A3938300A393836B
:1004800000B39282165C1E001F0020002100220093
:10049000230024002500260027002D002E002A001E
:1004A0004A002B0014001A000800150017001C0059
:1004B00018000C00120013002F00300031004B0018
:1004C000396104001600070009000A000B000D0046
:1004D0000E000F0033003400000028004E00E10041
:1004E0001D001B0006001900050011001000360059
:1004F00037003800E500000052004D00E000E30046
:10050000E200000000002C0000000000E6000151A5
:10051000E4005000000051004F00165C3A003B0020
:100520003C003D003E003F004000410042004300CF
:10053000440045004C004A000100C25CC35CC55C3D
:10054000C65CC75CC85CC95CCA5C01004600470069
:100550004800005C4B003961CB5CCC5C01000100C1
:100560000100010001000100010001000100000084
:10057000DE5C4E00E100010001000100010001000D
:10058000145C010001000100010001000000A9004D
:10059000A8000100010001000000000001000000AF
:1005A0000000010001000100AC000000AA00AB0047
:1005B0000100010001000100010001000100010033
:1005C0000100010001000100010001000100010023
:1005D0000100010001000100010001000100010013
:1005E0000100010001000100010001000100010003
:1005F00001000100010001000100010001000100F3
:1006000001000100000001000100010001000100E3
:1006100001000100010001000100010001000100D2
:1006200001000000010001000100010001000000C4
:1006300000000100000000000100010001000100B5
:1006400000000100010001000100010001000100A3
:100650000100010001000100010001000100010092
:100660000100010001000100010001000100010082
:100670000100010001000100010001000100010072
:100680000100010001000100010001000100010062
:100690000100010001000100010000000100010053
:1006A0000100010001000100010001000100010042
:1006B0000100010001000100000001000100010033
:1006C0000100010000000000010000000000010026
:1006D00001000100010000000100010009025B00AF
:1006E000030100A0FA09040000010301010009212F
:1006F00011010001224000070581030800010904DF
:100700000100020300000009211101000122220062
:1007100007058203200001070503032000010904E7
:100720000200010300000009211101000122B600AE
:100730000705840320000112010002000000085A8E
:10074000442114020001020001100344005A003643
:1007500000350052004700420000000E0344005ADA
:100760000054004500430048000000040309040051
:1007700011241FBECFEFDAE0DEBFCDBF04B603FE0B
:1007800027C08091480590914905A0914A05B091F4
:100790004B058730904BA740B04BD1F410924805E1
:1007A0001092490510924A0510924B0514BE84B769
:1007B000877F84BF0FB6F894A89580916000886108
:1007C00080936000109260000FBEE0E0F8E30995AE
:1007D00025E0A2E9B2E001C01D92A834B207E1F71A
:1007E00012E0A0E0B1E0E6EBF0E602C005900D9269
:1007F000A239B107D9F70E9479260C9409300C94DC
:10080000000090914105937051F0811109C09460EE
:100810009093410510921A0181E08093400508955C
:10082000893110F09066F4CF880F880F982BF0CFA5
:1008300090914105937061F0809342056093430568
:10084000493C08F048EC4093440581E08093400522
:100850000895E8EDF0E080818E7F80831092E200C1
:100860001092DA001092E100A0EEB0E08C9181606D
:100870008C9380818F77808319BCA7EDB0E08C9139
:100880008E7F8C9380818F7E808310920A050895DD
:100890002091E4003091E50095E6A9012091EC005B
:1008A000822F817020FF06C08091E80080FF06C083
:1008B00080E008952091E80022FD1AC080912F0564
:1008C000882389F0853089F08091EB0085FD0FC089
:1008D0002091E4003091E50042175307F9F291505E
:1008E000E1F684E0089582E0089583E0089581E0D0
:1008F0000895EF92FF920F931F93CF937C018B018A
:100900000E944804C82F811117C08091E80085FD1E
:100910000BC08091E8008E778093E8000E94480425
:10092000882399F3C82F08C0F70181917F01809334
:10093000F1000150110949F78C2FCF911F910F91B0
:10094000FF90EF9008958091310587FF13C080914B
:10095000E80082FF06C08091E8008B778093E80072
:1009600004C080912F058111F2CF089580912F0549
:100970008823D9F38091E80080FFF8CF8091E800C8
:100980008E77ECCF982F9093E900242F762F50E0AC
:10099000891731F07091EC002091ED005091F0003A
:1009A00021FD07C09F5F973071F78093E90081E0D8
:1009B00008953091EB003E7F3093EB003091ED00D5
:1009C0003D7F3093ED003091EB0031603093EB00D0
:1009D0007093EC002093ED005093F0002091EE0016
:1009E00027FDE0CF80E00895CF92DF92EF92FF9253
:1009F0000F931F93CF93DF93C8EDD0E088818F7E54
:100A00008883E7EDF0E080818160808384E082BFAD
:100A100081E080930A0588818E7F888302EE10E052
:100A2000F80110821092DA0081EEC82ED12CF60166
:100A3000108288818F778883888180688883888105
:100A40008F7D888319BC10922F051092300510926B
:100A50002E0510922D0590EEE92EF12CF7018081E4
:100A60008B7F808388818160888342E060E080E0C2
:100A70000E94C204F60180818E7F8083F80180810C
:100A800081608083808188608083F70180818E7F90
:100A90008083888180618883DF91CF911F910F913E
:100AA000FF90EF90DF90CF900895FC018091370583
:100AB0009091380586179707A0F06115710529F404
:100AC0009091E8009E779093E80090E061157105A1
:100AD00051F4911108C08091E80082FF34C080E099
:100AE0000895BC01F2CF80912F058823C1F1853094
:100AF000C1F18091E80083FD30C08091E80082FD63
:100B0000EACF8091E80080FFE1CF8091F30020914F
:100B1000F200382F6115710519F02830310558F0B1
:100B200091E02830310509F090E02091E8002E771F
:100B30002093E800CBCF81918093F100615071093F
:100B40002F5F3F4FE7CF80912F05882341F08530FD
:100B500041F08091E80083FFBECF81E0089582E0FC
:100B6000089583E0089580910C0508952091160161
:100B70002223C9F02091050527FF15C0E62FE69531
:100B8000E695E695EE31D8F4E80FF92FF11D677080
:100B900021E030E001C0220F6A95EAF720958281BA
:100BA000282322830895FC0132960896219162132E
:100BB00003C0DF0111971C92E817F907B9F70895F0
:100BC000209116012223C1F02091050527FF14C0B2
:100BD000E62FE695E695E695EE31F8F4E80FF92F65
:100BE000F11D677021E030E001C0220F6A95EAF73D
:100BF0008281822B82830895FC0132962FEF30E0B0
:100C00004191641751F02F3F19F4411101C0232F76
:100C10003F5F3630A9F72F3F09F40895820F911DE9
:100C200027FD9A95FC01628308952091FE0430917E
:100C3000FF042817390771F09093FF048093FE0496
:100C4000E091FC04F091FD04309721F00084F185DF
:100C5000E02D099408952091FA043091FB0428179F
:100C6000390771F09093FB048093FA04E091FC043F
:100C7000F091FD04309721F00680F781E02D099472
:100C80000895E091FC04F091FD04309721F001906B
:100C9000F081E02D099480E00895FA01811101C0EE
:100CA000FB0109948434910570F5FC01EE0FFF1FE0
:100CB000EE0FFF1FDF01AC58BC4FCD010296FC01C7
:100CC00054910196FC013491FD0185918370E4916A
:100CD000A82FB0E0F0E98F9FC00111248C549C4FE5
:100CE000E80FF92FF11DB4976083FC01E50FF11DAA
:100CF000B4974083830F911DFC01B4972083AE54B9
:100D0000BC4F81E08C930895FF920F931F93CF9374
:100D1000DF93182F062FF42ED0E0C0E02F2D402FA8
:100D2000612FCE010E9452062196C434D105B1F73D
:100D3000DF91CF911F910F91FF900895E1E4F5E0CD
:100D4000248130E1231B08F420E0248381E0809398
:100D500040050895E1E4F5E0248130E1230F08F433
:100D60002FEF248381E0809340050895E1E4F5E0CE
:100D7000438120E1421B08F440E08181628190E0E0
:100D80000C941804E1E4F5E0438120E1420F08F4FB
:100D90004FEF8181628190E00C941804E1E4F5E06A
:100DA000628120E1621B08F460E08181438190E070
:100DB0000C941804E1E4F5E0628120E1620F08F48C
:100DC0006FEF8181438190E00C941804E1E4F5E039
:100DD0008181438162818850990B0C941804E1E46D
:100DE000F5E0818190E04381628108960C941804BB
:100DF0008091410586958695815009F488E10C948F
:100E0000010480914105869586958F5F893108F0B0
:100E100081E00C940104E42FF0E0EE0FFF1FEB5390
:100E2000FE4F9081921B97FD9195292F38E1239FCA
:100E3000212D1124620F08950F931F9310E0F801E4
:100E4000EE0FFF1FEB53FE4F9081905797FD91954A
:100E5000000F111FF801EA53FE4F00810052110BE1
:100E60002003F001219FF00D112408E310E0091B7D
:100E7000110997FD139540039001419F300D1124F6
:100E8000E20FF31F9F01220F331F2E0F3F1F37FF6B
:100E900002C021583F4F220F232F221F330B620F16
:100EA0001F910F9108950F931F93522F10E0F80197
:100EB000EE0FFF1FEA53FE4FA081A052BB0B9D0116
:100EC0005203F001539FF00D1124000F111FD801A0
:100ED000AB53BE4F0C910057110B40039001419F43
:100EE000300D11242E0F3F1F37FF02C0215C3F4FF2
:100EF00096E0359527959A95E1F7620F1F910F912E
:100F000008950F931F93522F10E0F801EE0FFF1F6B
:100F1000EA53FE4FA081A052BB0B9D015203F0018A
:100F2000539FF00D1124000F111FD801AB53BE4F7A
:100F30000C910057110B40039001419F300D11247B
:100F40002E0F3F1F37FF02C021583F4F220F232F84
:100F5000221F330B620F1F910F910895EF920F9391
:100F6000972F23E0029FB0011124759567956E0DB0
:100F7000792F0F91EF900895322F50E0FA01EE0F84
:100F8000FF1FEA53FE4F9081905297FD9195440FB9
:100F9000551FFA01EB53FE4F2081231B330B290F02
:100FA000311D97FD3A95620F0895E42FF0E0EE0FA2
:100FB000FF1FEA53FE4F6081621B0895E42FF0E0AB
:100FC000EE0FFF1FEB53FE4F6081621B0895622FEF
:100FD0000895E42FF0E0EE0FFF1FEB53FE4F40812A
:100FE00034EE439F412D1124E82FF0E050E0445EA1
:100FF0005F4FDA01A21BB1099D01B7FF03C0319514
:101000002195310993E0220F331F9A95E1F7AF0143
:10101000421B530B9A0157FD20E0582F259F212D8D
:101020001124822F08950C9484060C94520622E811
:10103000241B08F420E0620F0895FC019B01009737
:1010400029F480E077FF2BC080E80895AC0197FF7A
:1010500004C044275527481B590BB901640F751F5D
:1010600037FD10C0241B350BC901A5E0880F991F5F
:10107000AA95E1F70E947D2D80E2861BF7FF0FC045
:1010800081950895CB0165E0880F991F6A95E1F776
:10109000BA01621B730B0E947D2D80E6EECF08958E
:1010A000EF920F93CF93DF93D72FC82FC9010E195B
:1010B000BA010E941D08602F681B7D2F8C2FDF91C5
:1010C000CF910F91EF9008950F93CF93DF93D72F88
:1010D000C82FC901BA010E941D08682F600F7D2F1B
:1010E0008C2FDF91CF910F910895EF920F931F9363
:1010F000CF93DF93D62FC72F182FC9010E19010FD9
:10110000BA010E941D08081B202F219F212D1124A8
:10111000822F6D2F7C2FDF91CF911F910F91EF9038
:1011200008950F931F93CF93DF93D62FC72F182FB8
:10113000C901212F201B022FBA010E941D08982FE0
:10114000990F990F891B800F282F219F212D112482
:10115000822F6D2F7C2FDF91CF911F910F910895DA
:10116000E82F86FDE0952E2F2F7086FD2F5FE695E8
:10117000E695E695E670F0E0ED59FE4F9181929F7D
:10118000902D212D112492959F702295207F922BD6
:101190002081920F87FD919580E8890F08950F9324
:1011A0001F93CF93DF938B01D82FC42F822F0E94E0
:1011B000B008EC2FF0E0EE0FFF1FEB53FE4F9081D5
:1011C0009058890F87FD8195880F682F2CE0629FCA
:1011D000612D1124600F712F8D2FDF91CF911F9101
:1011E0000F910895AC018230910508F408959FEFA6
:1011F000413E8EE1580740F49A0195E036952795D7
:101200009A95E1F798E0920F61E0E62FE90FFF274A
:10121000FF1F9F0135952795822F229FF001239F65
:10122000F00DF00D11244E175F0738F49FEF920F69
:10123000961758F78FEF860F08952F3FE9F361E077
:10124000620FF6CF0F93CF93DF93D72FC82F47FDB1
:10125000419588E390E0841B910947FD9395889F11
:10126000B001899F700D700D1124229FC001239F32
:10127000900D900D1124860F971F0E94F208982F51
:10128000990F890F682F600F7D2F8C2FDF91CF91E1
:101290000F91089530E020E0869F212D969F200D2C
:1012A000311D1124C9010895AF92BF92CF92DF92F0
:1012B000FF920F931F93CF93DF93362F472FE82F83
:1012C000F0E0EC58FD4F71110FC0E4918E2F2E2FDE
:1012D0006E2F722FDF91CF911F910F91FF90DF90B2
:1012E000CF90BF90AF900895C72FD0E02491F22EF9
:1012F000022F10E056E0659FC0011124EFEFF0E0EF
:10130000BF010E94692D832F90E0880F991F35E55A
:10131000369FD001379FB00D11248A1B9B0B982F4D
:10132000990F980F6F01CC1ADD0AC09ED001C19EA3
:10133000B00DD09EB00D11248B2F499FA001112418
:10134000452F55276F01C41AD50AC09EA001C19E22
:10135000500DD09E500D11245F01A91AB108AC9E0A
:101360006001AD9ED00CBC9ED00C1124CD2CDD2490
:10137000EC19FD09E09FE001E19FD00DF09FD00D39
:101380001124ED2F62307105A1F050F46115710543
:1013900009F49ECF6130710581F0EB2F852F98CF36
:1013A0006430710569F080F06630710509F490CF02
:1013B000F4CFE22F2B2F8D2F8BCFE22F252F88CF2D
:1013C000EB2F822F2D2F84CF2B2F8F2DE52F80CF2A
:1013D000DF92EF92FF920F931F93CF93DF937C01E5
:1013E000C0911701CC0FCC0F14E01C0F012F153446
:1013F00008F004E4609145056695669521E0620F6A
:1014000008F46FEF8091390590913A050E944A09DE
:10141000D82ED0E0C01760F081E0143408F080E0EE
:10142000DF91CF911F910F91FF90EF90DF90089582
:10143000FE01E35BFD4F808190911801892391F0BB
:101440006091420570914305809144052D2D4C2FEC
:10145000F70109950E945409462F282F672FCE01C6
:101460000E9415082196D6CF9F92AF92BF92CF923D
:10147000DF92EF92FF920F931F93CF93DF936C0154
:10148000C0911701CC0FCC0F14E01C0FB12E1534F6
:1014900010F034E4B32E6091450566956695809111
:1014A000390590913A050E944A09F82E80E48F0D83
:1014B0000E94B00890E8A92EA80E8F2D0E94B008B7
:1014C00020E8922E980ED0E0CB1580F081E0143405
:1014D00008F080E0DF91CF911F910F91FF90EF9086
:1014E000DF90CF90BF90AF909F900895FE01E35B97
:1014F000FD4F8081909118018923A1F060914205F0
:101500007091430580914405EF2C0C2F292D4A2D15
:10151000F60109950E945409462F282F672FCE0106
:101520000E9415082196D0CF7F928F929F92AF9202
:10153000BF92CF92DF92EF92FF920F931F93CF93C0
:10154000DF935C01C0911701CC0FCC0F14E01C0F8E
:10155000F12E153410F034E4F32E609145056695B4
:101560008091390590913A050E944A09782ED0E081
:10157000CF1590F081E0143408F080E0DF91CF9136
:101580001F910F91FF90EF90DF90CF90BF90AF90A1
:101590009F908F907F900895FE01E35BFD4F8081C7
:1015A000909118018923C9F1CE01880F991F86589F
:1015B0009E4FFC01E55BFF4F2081422F4057550BAA
:1015C0006A01845B9F4FFC018081282F2052330BDE
:1015D0004901449F9001459F300D300D1124889C96
:1015E000C001899C900D900D1124820F931F0E94C1
:1015F000F208082F609142057091430580914405DF
:10160000E72C9401A601F50109950E945409462F83
:10161000282F672FCE010E9415082196A9CFCF92BF
:10162000DF92EF92FF920F931F93CF93DF937C0192
:10163000C0911701CC0FCC0F14E01C0FD12E153424
:1016400010F034E4D32E60914505669580913905FC
:1016500090913A050E944A09C82ED0E0CD1568F055
:1016600081E0143408F080E0DF91CF911F910F9159
:10167000FF90EF90DF90CF900895FE01E35BFD4F68
:10168000808190911801892311F1CE01880F991F53
:1016900086589E4FFC01E45BFF4F20812052330BA4
:1016A000855B9F4FFC0140814057550B609142057F
:1016B00070914305809144050C2DF70109950E9416
:1016C0005409462F282F672FCE010E941508219616
:1016D000C5CF40917103803F59F48091720387FF19
:1016E0000DC01092720341110BC01092690308C023
:1016F000813F81F48091720318169CF3442381F09A
:101700008091730390917403892B09F05AC0109251
:1017100068030895823F49F447FFF0CF10927103A8
:10172000809172038111ECCFE0CF833F19F414163E
:10173000ACF3E4CF90917303893F29F41916F4F6C2
:1017400010927303DBCF8A3F19F497FFD7CFF8CFFE
:10175000909174038B3F29F497FFD0CF10927403BC
:10176000CDCF8C3F19F41916CCF3C8CF9CE0980F5D
:10177000953090F4845F990B21E030E0B90102C00C
:10178000660F771F8A95E2F7CB01809590917003E1
:10179000892380937003B2CF8D3F31F480916A0327
:1017A0008E7F80936A03AACF8E3F21F480916A03D3
:1017B0008D7FF7CF8F3F09F0A1CF80916A038B7F98
:1017C000F0CF089580916A0380FD16C081FD16C098
:1017D00082FD16C0809168038823A1F0883280F4CE
:1017E00028E0829FC001112468E270E00E947D2DF4
:1017F000862F672B39F0089582E0089584E00895DC
:1018000088E0089581E0089580916A0380FD14C006
:1018100081FD14C082FD16C080916903882381F088
:10182000843180F422E3829FC001112464E170E0DE
:101830000E947D2D862F08958CE0089589E10895FA
:1018400085E0089582E30895803F31F40E94040CFE
:101850008195809372030895813F19F40E94040CCE
:10186000F8CF823F31F40E94040C8195809371037C
:101870000895833F19F40E94040CF8CF893F29F49E
:101880000E94E20B8093730308958A3F21F40E9423
:10189000E20B8195F7CF8B3F31F40E94E20B8195EB
:1018A0008093740308958C3F19F40E94E20BF8CFE3
:1018B0009CE0980F953070F4845F990B21E030E044
:1018C00001C0220F8A95EAF780917003822B8093E2
:1018D000700308958D3F31F480916A038160809395
:1018E0006A0308958E3F21F480916A038260F7CFE6
:1018F0008F3FB9F780916A038460F1CF80E008954B
:10190000F894E82FE295EF70F0E031A1282F2F70C6
:1019100081E090E001C0880F2A95EAF7982F909512
:10192000932391A392A1892B82A3789408959091F7
:10193000050592FF06C0282F28712830F9F4877F0B
:10194000846093FF06C0282F28712831F1F4877E28
:1019500084612091060520FF06C0382F3871383089
:10196000D9F4877F816021FF06C0282F2871283194
:10197000D1F4877E816194FD877E0895282F24719C
:101980002430F9F68B7F8860DCCF282F2471243136
:1019900001F78B7E8861DDCF382F3171313019F737
:1019A0008E7F8860E0CF282F2171213121F78E7E34
:1019B0008861E1CFCF93DF93EC0182389105A9F1E3
:1019C000D8F58133910509F496C048F5893291051F
:1019D00009F48AC08A9709F495C0C11521E5D20798
:1019E00008F0BCC0C11530E5D30708F014C1C83EEB
:1019F000D10508F09CC0C03ED10560F5C83AD105BC
:101A000008F087C0C53AD10508F0FDC0C130D10546
:101A100009F12097F9F0C430D105E0F440C08533D6
:101A2000910509F45AC0C997C1F6809105058370E4
:101A300089F0C0EED0E00EC0833E910599F170F4BC
:101A4000803E910501F1823E910539F680910505B0
:101A500082FD21C0CE01DF91CF910895863E910590
:101A600061F1873E910571F1843E910509F0B5CF92
:101A70008091060581FFEECF80910505C7EED0E08D
:101A800084FD0DC0E7CF8091050580FD12C19091C6
:101A9000060590FFDFCFC3EED0E084FFDBCFD0E0C0
:101AA000C0E0D8CF8091050582FD06C19091060562
:101AB00090FDBFCF84FFCECFF2CF8091050583FD8F
:101AC000DDCFC8CF8091050583FDF9C09091060553
:101AD00091FFF0CFC4EED0E0BDCF8091050585FF2A
:101AE000B9CFC9E2D0E0B6CF8091050585FFB2CF6E
:101AF000C5E3D0E0AFCF8091050586FFABCFCAE24A
:101B0000D0E0A8CF8091050586FFA4CFC1E3D0E047
:101B1000A1CFCF3BD10518F6C85AD0E0CC0FDD1FBE
:101B2000CF5DDE4F0990D881C02DD46493CFC1150D
:101B300040E2D40758F4C11581E0D80708F08ACFF5
:101B4000C03FD10508F4ABCFD06584CFC11590E478
:101B5000D90708F4A4CFDF70D06A7CCFC11525E582
:101B6000D20700F5C11534E5D30708F08AC0C115C6
:101B700043E5D40708F071C0C11582E5D80708F421
:101B800067C0CE018370992721E030E002C0220FA8
:101B9000331F8A95E2F7C695C69580E2C89FE0019B
:101BA000112452C0C11599E5D907A8F4C11528E53B
:101BB000D20708F06BC0C11536E5D30708F06FCF28
:101BC0008C2F0E94970CC82FD0E0DC2FCC27CC277D
:101BD000DF71D0623FCFC1154AE5D40708F45BC07E
:101BE000CE0190568115904208F059CF8D2F8F71FC
:101BF0000E94970C90E0982F882788279F719C015E
:101C00002C2BE901E6CFC55AD0E0C25EDE4FC88179
:101C1000D0E0D0641FCFCE01E4E096958795EA9599
:101C2000E1F783702C2F26952695237040E2249FA0
:101C300090011124382B8C2F8370C1E0D0E002C0BA
:101C4000CC0FDD1F8A95E2F7C22BD32BDC6802CFC5
:101C5000DC2FCC27C16FD06AFDCECE0183709927CF
:101C600021E030E002C0220F331F8A95E2F7C695CB
:101C7000C69590E2C99FE0011124C22BD32BDA68EC
:101C8000E9CEDC2FCC27C46FD06AE4CEDC2FCC2782
:101C9000C06FD06ADFCE8C2F8F700E94970C34E01B
:101CA000D695C7953A95E1F7CF709C2FEC01D06996
:101CB000D1CEC9E3D0E0CECEC2EED0E0CBCEC6EEE0
:101CC000D0E0C8CE809113038111109213030895C0
:101CD0008091120390911103892B90911003892B0D
:101CE00080939802909113039923A1F0892B8093FC
:101CF000980280911601882341F18091050587FFA4
:101D000024C08EE1EAE9F2E090E0815000F5911103
:101D10000E94620EE091FC04F091FD043097E1F026
:101D200080911601882359F08091050587FF07C02F
:101D3000809198028093990285E0809398020280B6
:101D4000F381E02D88E992E0099486E0DBCF2191D0
:101D50002223D9F29F5FD9CF089580910E039091ED
:101D6000DD02981301C008958F5F8770FACF2FE0CE
:101D7000929F800D1124982F977086958695869551
:101D800023E0829FF0011124E754FD4F50E040E032
:101D900080E0219130E0092E02C0369527950A9403
:101DA000E2F721703327042E01C0220F0A94EAF7CC
:101DB000822B4F5F5F4F4330510559F708952FE055
:101DC000929F800D1124982F977041E001C0440F1D
:101DD0009A95EAF786958695869593E0899FF00116
:101DE0001124E754FD4F90E080E070E05191DF0155
:101DF00011979B01082E02C0369527950A94E2F7A9
:101E0000217021952527242325272C9301968330A3
:101E1000910561F70895882341F080959091120310
:101E20008923809312030C94680E0895882339F057
:101E300090911203982B909312030C94680E0895BE
:101E400090912F05943029F580930705709309052B
:101E5000609308059093E9008FEF9091E80081501E
:101E600095FD06C095ED9A95F1F700008111F5CF2B
:101E70008091E80085FF0DC050E040E063E070E035
:101E800087E095E00E9479048091E8008E77809346
:101E9000E8000895BC0184E00C94200FBC0183E0AD
:101EA0000C94200F9C0184E08093E9009FEF8091C7
:101EB000E800915085FD06C085ED8A95F1F7000098
:101EC0009111F5CF8091E80085FF0CC050E040E013
:101ED00066E070E0C9010E9479048091E8008E7785
:101EE0008093E8000895CF93DF93EC018091160171
:101EF0008823B1F18091050587FF32C060E284E05C
:101F00008093E9008FEF9091E800815095FD06C025
:101F100095ED9A95F1F700008111F5CF8091E800D9
:101F200085FF1BC08091160170E050E040E08111F8
:101F300004C050E040E068E070E0CE010E94790407
:101F40008091E8008E778093E80080E2FE01ADE0AA
:101F5000B5E001900D928A95E1F7DF91CF91089558
:101F600068E081E0CDCF81E08093E00080E2809363
:101F7000D8001092C9008FE19EE40197F1F700C0EC
:101F8000000087E090EBDC018093480590934905C1
:101F9000A0934A05B0934B0588E19CE00FB6F894F6
:101FA000A895809360000FBE90936000FFCFCF9301
:101FB000DF93CFE7D2E060E0CE010E94822F21962E
:101FC000C11584E0D807B9F7DF91CF9108956F92DA
:101FD0007F928F929F92AF92BF92CF92DF92EF92B9
:101FE000FF920F931F93CF93DF9384E8C82E84E072
:101FF000D82E9BEDE92EF12CE701C659D109360107
:102000001BC0F50185909490692DC8010E94822F14
:10201000682DC80101960E94822F82E0A80EB11C93
:102020000E5F1F4FC017D10761F78EE1680E711C5C
:102030006E96CE15DF0529F08E010E511109530160
:10204000E0CF7E0186E9E80EF11C86E9C80ED11CBE
:1020500083E3E81683E0F80679F6DF91CF911F91CC
:102060000F91FF90EF90DF90CF90BF90AF909F9037
:102070008F907F906F900895CF93C82F6FEF81114D
:1020800061E283E290E00E94822F6FEFC11169E06C
:1020900084E290E00E94822F6FEFC11166E085E23A
:1020A00090E0CF910C94822F80E00E943C1060E081
:1020B00086E290E00E94822F0E94E70F0E94D70FD5
:1020C00081E00C943C10CF93C92F682F84E090E0FE
:1020D0000E94822F6C2F82E290E0CF910C94822F8D
:1020E0009091060592FB222720F9281751F080FBDA
:1020F00092F99093060580910505909106050C9440
:10210000631008950F931F93CF93DF93C42FD0E0F4
:10211000CC0FDD1F2EE1629FC00DD11D112436E9C9
:10212000839FC00DD11D1124CE0187960E94642F7C
:10213000082F10E0102F0027CE0188960E94642FF0
:102140009801282BC901DF91CF911F910F9108951C
:10215000462F843038F4753028F46F3018F4672F28
:102160000C94821090E080E00895CF92DF92FF926D
:102170000F931F93CF93DF936C01009147058091DC
:102180001403082BC7E0D0E010E0FC2EC8010C2E91
:1021900002C0959587950A94E2F780FD0CC02197BF
:1021A000A0F7F12C8F2DDF91CF911F910F91FF9010
:1021B000DF90CF900895B6018C2F0E94A8100E9446
:1021C000DA0C019761F3EECFCF93DF93EC010E941D
:1021D000B510BE010E94A810DF91CF910C94DA0CCB
:1021E000FC01808191810E94E410292F2F7092952B
:1021F0009F7092509E3078F4E92FF0E0E55FFF4C3D
:102200000C94912D803F19F020F4883E20F481E059
:102210000895843FE1F380E00895883EC0F3813F54
:10222000D1F7F5CF822F869586958695089583E21E
:1022300090E00E94642F813289F484E290E00E9451
:10224000642F893059F485E290E00E94642F91E078
:10225000863009F090E0892F8170089580E0FCCFEE
:10226000CF9384E090E00E94642FC82F82E290E038
:102270000E94642F982F8C2FCF9108950F931F9356
:10228000CF93DF93082F000FEB0114E210939E030E
:10229000EFE9F3E0DE018D91819383E0EF3AF807F7
:1022A000D1F724E630E041E150E06EE973E0802FA1
:1022B0000E94422D105F6096143B41F7DF91CF9151
:1022C0001F910F9108958091B203882329F064EB48
:1022D00073E084E70E943E111092B2038091B30331
:1022E000882329F064E474E087E70E943E1110928D
:1022F000B3030895EEE9F3E06083418324E630E020
:1023000042E050E0BF01880F0C94422DEF92FF9203
:102310000F931F93CF93DF93E82E062F10E0085002
:102320001B4FF8018081882381F0F2E16F9FE0016B
:102330001124CC52DB4FF12C49916F2D8E2D0E9430
:102340007A11F39482E1F812F7CFF8011082DF914D
:10235000CF911F910F91FF90EF900895CF93DF934E
:10236000C82F4BE06DEF0E947A1140E06AE08C2F9D
:102370000E947A118FE39CE90197F1F700C00000F9
:1023800040E060E08C2F0E947A1140E061E08C2FE9
:102390000E947A1140E066E08C2F0E947A1140E0A2
:1023A0006DEF8C2F0E947A11D0E040E06D2F8C2FC2
:1023B0000E947A11DF5FD231C1F740E06D2F8C2F80
:1023C0000E947A11DF5FD432C1F740E06D2F8C2F6D
:1023D0000E947A11DF5FD43BC1F74BE06DEF8C2F89
:1023E0000E947A1141E06AE08C2F0E947A1140E04D
:1023F0006DEF8C2FDF91CF910C947A116F927F92B9
:102400008F929F92AF92BF92CF92DF92EF92FF9204
:102410000F931F93CF93DF930E94932C84E70E9426
:10242000AE1187E70E94AE1164E7E62E63E0F62E58
:10243000D12CC12C72E1772EE8E08E2E912CAA24AB
:10244000A394B12C66246394F7013196449150E033
:10245000CA018497319604910452110B3196C491AC
:10246000C452DD0BF601EE0FFF1FEE0FFF1FEC58FD
:10247000FC4F2491237030E0FC0197FD379643E038
:10248000F595E7954A95E1F7729EA001739E500D70
:1024900011244C525B4FE40FF52FF11DB4010E9443
:1024A0007D2DA50101C0440F8A95EAF78081842B18
:1024B0008083F80117FD379693E0F595E7959A9597
:1024C000E1F7729EC001739E900D11248C529B4FB8
:1024D000E80FF92FF11DC801B4010E947D2DA5015F
:1024E00001C0440F8A95EAF78081842B8083FE0126
:1024F000D7FD379683E0F595E7958A95E1F7729ECB
:10250000C001739E900D11248C529B4FE80FF92F40
:10251000F11DCE01B4010E947D2DA50101C0440F23
:102520008A95EAF78081842B808328503B4FF901FC
:102530006082FFEFCF1ADF0A84E0E80EF11CE4E4CA
:10254000CE16D10409F080CF60E084E70E948611A6
:1025500061E087E7DF91CF911F910F91FF90EF909E
:10256000DF90CF90BF90AF909F908F907F906F90B3
:102570000C9486111F93CF93DF93EC01FC01E35B76
:10258000FD4F80816823C9F00E94062E182F0E94FB
:10259000062E8F77782F20E8720F08F47FEF612FD7
:1025A000809144050E945409462F282F672FCE01A1
:1025B000DF91CF911F910C941508DF91CF911F915E
:1025C0000895DF92EF92FF920F931F93CF93DF93C3
:1025D0008C01FC01E35BFD4F8081682381F1D09089
:1025E0004305D0914405C0914205EC2EF12C0E9488
:1025F000062E282FC7018C549F4F68E671E00E9479
:102600007D2D8E199F0997FD039695958795959534
:10261000879523706C2F289F600D11247D2D8D2FA1
:102620000E945409462F282F672FC801DF91CF91B0
:102630001F910F91FF90EF90DF900C941508DF91A0
:10264000CF911F910F91FF90EF90DF9008959F928F
:10265000AF92BF92CF92DF92EF92FF920F931F93B0
:10266000CF93DF93182F80911501811323C0909190
:10267000410593702091140130E081E09217130618
:1026800009F480E081708093190180914605909152
:102690001801981739F08093180140E060E080E05D
:1026A0000E941308193160F4E12FF0E0E75EFF4C5F
:1026B0000C94912D81E0E6CF80911901811102C027
:1026C000C0E047C140E060E080E00E941308F8CF1E
:1026D000C0911701CC0FCC0F04E00C0FF02E053485
:1026E00010F0F4E4FF2E6091420570914305809153
:1026F00044050E945409E62ED72EC82ED0E0CF15EF
:1027000028F0C1E0043408F424C1DACFFE01E35B11
:10271000FD4F808190911801892331F02C2D4E2D91
:102720006D2DCE010E9415082196E9CFC0911701A9
:10273000CC0FCC0F04E00C0FF02E053410F0E4E4C5
:10274000FE2ED0904305E0904405D09142056D2FB8
:102750007D2D8E2D0E945409C62EB72EA82E609175
:1027600045056D0F7D2D8E2D0E945409E62ED72E26
:10277000982ED0E0CF1528F6FE01E35BFD4F908147
:1027800080911801892359F0292D4E2D6D2D90FD32
:1027900003C02A2D4C2D6B2DCE010E9415082196C9
:1027A000E9CFC0911701CC0FCC0F04E00C0FE02E45
:1027B000053410F074E4E72ED0904305C090440532
:1027C0002091450560E4F62E3F2D329F312D1124D6
:1027D000F32ED0E0CE1508F094CFFE01E35BFD4F61
:1027E0008081909118018923D9F0FE01EE0FFF1F1F
:1027F000EB53FE4F6081F69EB001112455E07595B4
:1028000067955A95E1F780914205680F7D2D8C2DD3
:102810000E945409462F282F672FCE010E941508C9
:102820002196D8CFC0911701CC0FCC0F04E00C0F2C
:10283000F02E053410F034E4F32EE0904205D091F0
:102840004305D0904405609145056695669566956B
:102850008091390590913A050E944A090E94B0087A
:10286000805887FD8195880F282F3D2D239F212D8E
:102870001124822F6E2D7D2F0E945409E62ED72E13
:10288000C82ED0E0CF1508F03CCFFE01E35BFD4F32
:10289000808190911801892331F02C2D4E2D6D2DC2
:1028A000CE010E9415082196EDCF89EE97E00E9497
:1028B000E80904C081E998E00E940F0BC82F49C0C5
:1028C00085E798E00E94940AF9CF87EE97E0EFCF72
:1028D0008EED97E0ECCF85ED97E0E9CF8CEB97E0BC
:1028E000E6CF8EEA97E0EECF82E299E0E5CF84E68C
:1028F00098E0E2CF80E598E0E5CF81E897E00E949C
:10290000340ADCCF83E597E0FACF8CE197E0F7CF8C
:10291000C0911901C1113CC06091450520E1620FD1
:1029200008F46FEF8091390590913A050E944A09A9
:102930006AE070E00E94692D892B09F0C1CE0E94E7
:10294000062E64E470E00E947D2D609118010E94C3
:10295000E112809117018F5F80931701C1110CC0A4
:1029600082E080931A0180911901811105C0111133
:1029700003C083E080931A01DF91CF911F910F91E3
:10298000FF90EF90DF90CF90BF90AF909F90089511
:10299000C0911701CC0FCC0F04E00C0F802F053431
:1029A00008F084E4D0E0E82EF12CCE15DF050CF021
:1029B000A8CE60911801CE010E94E1122196F5CFB8
:1029C000C0911901C1111EC06091450520E1620F3F
:1029D00008F46FEF8091390590913A050E944A09F9
:1029E00065E070E00E94692D892B09F069CE0E9494
:1029F000062E64E470E00E947D2D609118010E9413
:102A0000BA12A7CFC0911701CC0FCC0F04E00C0F66
:102A1000802F053408F084E4D0E0E82EF12CCE15A8
:102A2000DF050CF06ECE60911801CE010E94BA1243
:102A30002196F5CFC0911701CC0FCC0F04E00C0FFD
:102A4000F02E053410F024E4F22ED0904305E090EF
:102A50004405D09142056091450566956695669559
:102A60008091390590913A050E944A090E94B00868
:102A7000805887FD8195880F682F2CE0629F612D1B
:102A800011246D0F7D2D8E2D0E945409E62ED72E18
:102A9000C82ED0E0CF1508F034CEFE01E35BFD4F29
:102AA000808190911801892331F02C2D4E2D6D2DB0
:102AB000CE010E9415082196EDCF8FEC98E0F7CE5D
:102AC0008BE097E0F4CEC0911701CC0FCC0F04E05F
:102AD0000C0FD02E053410F094E4D92E209145052A
:102AE00031E0230F08F42FEF30E050E040E06FEFCB
:102AF0007FEF80E090E00E94A62F7901D0E02C2F9C
:102B0000CD1508F0FECDFE01E35BFD4F8081909175
:102B10001801892311F1409175034150042E000CD6
:102B2000550B47FF1CC0C7016091450531E0630F9D
:102B300008F46FEF0E944A09AC0160914205709160
:102B40004305809144050E9417080E945409462FAE
:102B5000282F672FCE010E9415082196D0CFFA01A9
:102B6000EB58FC4F818982130AC0FA01EE0FFF1F58
:102B7000EB58FC4F818D928D8E159F05A8F2415028
:102B80005109CFCFE1E4F5E081E2808380911B0120
:102B900090911C01A0911D0181839283A3838FE7F3
:102BA00084838FEF858346E050E06CE170E0CF01D5
:102BB0000C94722F90E080E00E946C2F893E9E4F13
:102BC00011F40C94171180E0089569EE7EEF90E007
:102BD00080E00E94A02F60E082E090E00E94822FBF
:102BE00060E083E090E00E94822F1092140360E086
:102BF00084E090E00E94822F60E082E290E00E94F8
:102C0000822F60E085E090E00E94822F60E086E005
:102C100090E00E94822F6FEF87E090E00E94822F69
:102C200040E050E0BA0188E090E00E94942F60E01C
:102C30008DE090E00E94822F40E050E0BA0188E1F0
:102C400090E00E94942F60E087E190E00E94822F44
:102C500040E050E0BA018CE190E00E94942F70E0D7
:102C600060E080E290E00E94A02F40E050E0BA01D6
:102C700088E190E00E94942F80E00E943C100E9426
:102C8000541040E050E0BA018FE090E00E94942F91
:102C900040E050E0BA0183E190E00C94942F1F9241
:102CA0000F920FB60F9211242F933F934F935F9380
:102CB0006F937F938F939F93AF93BF93EF93FF9304
:102CC0008091E10082FF09C08091E20082FF05C08F
:102CD0008091E1008B7F8093E1008091DA0080FF9A
:102CE00024C08091D80080FF20C08091DA008E7FC0
:102CF0008093DA008091D90080FF9BC080E189BD7C
:102D000082E189BD09B400FEFDCF81E080932F05EB
:102D100080910A05811109C00E9429040E94F404CF
:102D20008091E20084608093E2008091E10080FF66
:102D300017C08091E20080FF13C08091E2008E7F77
:102D40008093E2008091E20080618093E2008091B4
:102D5000D80080628093D80019BC85E080932F054D
:102D60008091E10084FF29C08091E20084FF25C0AA
:102D700080E189BD82E189BD89B5982F917080FF7E
:102D8000FBCF8091D8008F7D8093D8008091E100A7
:102D90008F7E8093E1008091E2008F7E8093E2003D
:102DA0008091E20081608093E20080913005882369
:102DB00009F445C084E080932F058091E10083FFF2
:102DC00027C08091E20083FF23C08091E100877FCC
:102DD0008093E10082E080932F051092300580916E
:102DE000E1008E7F8093E1008091E2008E7F8093EE
:102DF000E2008091E20080618093E20042E060E0C6
:102E000080E00E94C2048091F00088608093F0000E
:102E1000FF91EF91BF91AF919F918F917F916F91B2
:102E20005F914F913F912F910F900FBE0F901F9088
:102E3000189519BC10922F0510920A0576CF809133
:102E4000E30087FD93E090932F05B7CF78941F920E
:102E50001FB61F9211248F939F93AF93BF938091BE
:102E6000010590910205A0910305B091040501961A
:102E7000A11DB11D8093010590930205A093030548
:102E8000B0930405BF91AF919F918F911F901FBE8A
:102E90001F9018959C014FB7F8948091010590916F
:102EA0000205A0910305B09104054FBF821B930B4F
:102EB00008952FB7F8948091010590910205A09193
:102EC0000305B09104052FBF08950E9459179C0176
:102ED0009091710380917203982B21F030936E03CF
:102EE00020936D039091730380917403982B21F0CC
:102EF00030936C0320936B03E091FC04F091FD048C
:102F0000309749F082E080936F030480F581E02DD3
:102F10008FE693E00994089590E080E00E942B06EC
:102F200090E080E00E9415061092110310921003A9
:102F30000E94680E86E0EFE6F3E0DF011D928A95BD
:102F4000E9F7109269031092680310926A030C94D7
:102F50006517809347050C948C1780914705982F2F
:102F60009670963019F488600C94A917877FFCCF6F
:102F700021E030E001C0220F8A95EAF72095809188
:102F8000470582230C94A91790910F0380958923FC
:102F900080930F03282F277039F4282F082E000C58
:102FA000330B9217130621F49091060592FF07C088
:102FB0008595859585950E94B81710920F03089501
:102FC00021E030E001C0220F8A95EAF780914705A1
:102FD000822B0C94A917809314030C948C171092D5
:102FE000120380911601EAE9F2E0882359F08091FA
:102FF000050587FF07C08EE1DF011D928A95E9F77D
:103000000C948C1786E0F8CF1F93CF93DF93CDB746
:10301000DEB7AA970FB6F894DEBF0FBECDBF81E32F
:1030200095E02091F100DC012D93CD01B5E08933CD
:103030009B07B9F780913205833009F471C0B8F469
:10304000813009F448C0823009F4B2C08091E800B0
:1030500083FF88C280913105909132059A3008F043
:1030600081C2E92FF0E0EE5CFF4C0C94912D8A3088
:1030700009F48DC08B3009F470C0893039F7809124
:103080003105813219F78091350590913605009709
:1030900011F00297D9F68091E800877F8093E800CD
:1030A0008091E80082FF37C09091F3008091F20098
:1030B000029729F48091F1008B7F813021F4809177
:1030C000F10080930C058091E8008B778093E800F5
:1030D0000E94A304BBCF80913105813A09F0B6CF9D
:1030E0008091E800877F8093E8008091350590917A
:1030F0003605892B61F460E28DE095E070E00E9476
:1031000055058091E8008B778093E8009FCF60E0C1
:1031100090E080E0F3CF80912F058111C1CF96CF51
:1031200080913105813A09F091CF809135059091D8
:103130003605892B09F08ACF8091E800877F80933C
:10314000E8008091E80080FFFCCF80911601809319
:10315000F1008091E8008E77B9CF809131058132FE
:1031600009F074CF8091350590913605892B09F0CF
:103170006DCF8091E800877F8093E8000E94A304D0
:1031800080913305809316010E94EF175FCF8091E5
:103190003105813209F05ACF8091E800877F809312
:1031A000E8000E94A3048091340580930B054ECF64
:1031B00080913105813A09F049CF8091E800877FFD
:1031C0008093E8008091E80080FFFCCF80910B05A0
:1031D000BECF803899F0823809F0C4C1809135059E
:1031E0008F70873008F0BEC18093E9008091EB00BA
:1031F00085FB882780F91092E90006C080912D0593
:1032000090912E05911182609091E800977F9093A4
:10321000E8008093F1001092F1008091E8008E7731
:103220009DC1882309F48BC1823009F09BC1809134
:10323000330581118EC1809135058F702FEF280FD6
:10324000263008F08FC18093E9002091EB0020FF29
:1032500080C1933031F48091EB0080628093EB0069
:1032600078C19091EB0090619093EB0021E030E009
:1032700001C0220F8A95EAF72093EA001092EA0033
:103280008091EB008860EACF81116CC11091330509
:103290001F778091E3008078812B8093E3008091F9
:1032A000E800877F8093E8000E94A3048091E800F3
:1032B00080FFFCCF8091E30080688093E30082E090
:1032C000111183E080932F054DC18058823008F0A2
:1032D00049C120913305309134052C3DE3E03E0790
:1032E000A1F583E08A838AE289834FB7F894DE01EF
:1032F000139620E03EE051E2E32FF0E050935700B8
:10330000E49120FF03C0E295EF703F5FEF708E2FD6
:1033100090E0EA30C0F0C7968D939D932F5F2431E3
:1033200059F74FBF8091E800877F8093E8006AE2F9
:1033300070E0CE0101960E9455058091E8008B77E0
:103340008093E8000FC1C096E7CF8091350590913A
:103350003605432F55274330510509F44AC078F507
:103360004130510509F47AC08BE590E0ECEDF6E0D0
:103370004230510509F0F6C02091E800277F2093E4
:10338000E80020913705309138058217930708F43B
:103390009C0140E02115310509F065C0411163C071
:1033A0008091E80082FDC9CF80912F05882329F202
:1033B000853019F28091E80083FFF2CFBECF413211
:1033C000510509F43CC04232510509F0CBC08330AD
:1033D000910508F0C7C0FC01EE0FFF1FE259FE4F38
:1033E0000190F081E02D85599E4FDC018C9190E099
:1033F0001AC0332721303105D1F02115310561F094
:103400002230310509F0AEC0E9E4F7E0E4918E2FF7
:1034100090E0E9E4F7E007C0EBE6F7E0E4918E2FF7
:1034200090E0EBE6F7E0009709F49CC0A5CFEBE550
:10343000F7E0E4918E2F90E0EBE5F7E0F4CF8330F6
:10344000910508F08FC0880F991FFC01EC58FE4FC2
:103450000190F081E02D89E090E08ECF82E190E054
:10346000E7E3F7E089CF80912F05882309F465CF42
:10347000853009F462CF8091E80083FD5ECF8091B2
:10348000E80082FD8DCF8091E80080FF83CF90918E
:10349000F3008091F2002115310519F08830910573
:1034A00050F041E0089709F040E08091E8008E7705
:1034B0008093E8006FCF44914093F1003196215002
:1034C00031090196E8CF803809F04CC08091E800BE
:1034D000877F8093E800809130058093F1009DCE36
:1034E000811140C0109133051230E0F58091E80061
:1034F000877F8093E800109330050E94A304112376
:1035000011F084E005C08091E30087FDFACF81E0EF
:1035100080932F0542E061EC81E00E94C20442E208
:1035200061EC84E00E94C20442E261EC82E00E940D
:10353000C20442E260EC83E00E94C20413C08091A6
:103540003305813079F481E0933009F080E0809395
:103550002E051092E9008091E800877F8093E800B3
:103560000E94A3048091E80083FF0AC08091E800D4
:10357000877F8093E8008091EB0080628093EB006E
:10358000AA960FB6F894DEBF0FBECDBFDF91CF91E4
:103590001F9108951F920F920FB60F9211242F932F
:1035A0003F934F935F936F937F938F939F93AF93CB
:1035B000BF93CF93DF93EF93FF93D091E900DF7038
:1035C0008091EC00C82FC17080FDC0E81092E90026
:1035D0008091F000877F8093F00078940E94041817
:1035E0001092E9008091F00088608093F000CD2B6C
:1035F000CF70C093E900FF91EF91DF91CF91BF9120
:10360000AF919F918F917F916F915F914F913F917A
:103610002F910F900FBE0F901F9018958823B1F136
:103620009CEF980F913A38F4682F88E992E00E9455
:10363000B6050C94680E90E2980F983088F4877065
:1036400021E030E0A90102C0440F551F8A95E2F73E
:10365000CA01809590911203892380931203E9CFC8
:103660009BE5980F933020F490E080E00C942B06BB
:1036700098E5980F973120F490E080E00C941506BF
:10368000803F20F00E94690B0C9465170895CF933A
:10369000C82F882309F46EC08CEF8C0F813AB8F5DF
:1036A00080911601882311F18091050587FF1EC0C6
:1036B000EC2FE695E695E695F0E0E856FD4F828121
:1036C00090E04C2F477021E030E002C0220F331F02
:1036D0004A95E2F782239323892B89F06C2F88E99E
:1036E00092E00E94B6050E94680E09C0EAE9F2E085
:1036F0008191C81799F382E0E03AF807C9F76C2F77
:1037000088E992E00E94E005CF910C94680E80E277
:103710008C0F883068F4C77021E030E001C0220FC0
:10372000CA95EAF780911203822B80931203ECCFA3
:10373000EBE5EC0FE33040F4F0E0E25EFE4F808119
:1037400090E0CF910C942B06E8E5EC0FE73150F4B4
:10375000F0E0EE0FFF1FEF5DFE4F80819181CF9172
:103760000C941506C03F30F08C2F0E94240CCF9192
:103770000C946517CF9108951F93CF93DF93182F63
:10378000D0E0C0E0893311F4C0E5D0E0812F0E9481
:10379000471B209731F4812FDF91CF911F910C941B
:1037A0000E1B8FE99FE00197F1F700C00000219701
:1037B000F0CF0F931F93CF93DF93C62FD42F022FF9
:1037C000FC0182818823A1F060933F050E94591774
:1037D00090933E0580933D05C77081E001C0880F3E
:1037E000CA95EAF7DF91CF911F910F910C94160FB4
:1037F00080913F05681335C080913D0590913E054D
:103800000E944A17883C910560F510E21D0FCD1704
:10381000B9F080E28C0F883040F4C77081E001C0BD
:10382000880FCA95EAF70E940B0F183048F481E020
:103830009D2F977001C0880F9A95EAF70E94160F86
:10384000802F0E94BC1B183098F4D77081E001C013
:10385000880FDA95EAF7DF91CF911F910F910C94C1
:103860000B0FC77081E001C0880FCA95EAF7F3CF4C
:10387000DF91CF911F910F9108953F924F925F92E8
:103880006F927F928F929F92AF92BF92CF92DF9270
:10389000EF92FF920F931F93CF93DF9300D000D04E
:1038A0000F92CDB7DEB78C01FC0183819481892B07
:1038B00031F08081918189238F3F09F053C50F90AA
:1038C0000F900F900F900F90DF91CF911F910F915C
:1038D000FF90EF90DF90CF90BF90AF909F908F9030
:1038E0007F906F905F904F903F9008950E94B51029
:1038F000F82E682F89819A810E94DF0E69817A8172
:103900008F2D0E94A8107C01F8018281882309F480
:10391000EFC4970122513F452031310508F015C50C
:103920008FEF93E00E94642FFEEEEF0E5FE7852E8F
:1039300052E0952E882381F180910F03877009F45E
:10394000BECFF8018281882309F4B9CF82E00F90BD
:103950000F900F900F900F90DF91CF911F910F91CB
:10396000FF90EF90DF90CF90BF90AF909F908F909F
:103970007F906F905F904F903F900C94C41781148C
:1039800024E09206C9F2C4010E94642F811101C093
:10399000EA943FEF831A930AE110F1CF1C821B8255
:1039A000442443944AE0342E74018FEFE81AF80A55
:1039B000C4010E94642F89831A82882309F4BCCF32
:1039C0009FEF980F933000F58A83498292E0890E29
:1039D000911CC7010E94642F8B83882309F4ACCF0C
:1039E000FE0131967F01F70120812223E9F2213087
:1039F00009F049C091818281913041F4F2E0EF0EEB
:103A0000F11C0E94BC1B09C04701EACF923049F467
:103A100022E0E20EF11C0E94471B3FEFE31AF30A7B
:103A2000E2CF933031F432E0E30EF11C0E940E1B22
:103A3000F4CF943021F08FEFE81AF80AEECF92E03D
:103A4000E90EF11C30E020E0B7016F5F7F4FF70116
:103A500041818053990B8A30910550F021503109F2
:103A6000E0F28FE99FE00197F1F700C00000F6CF88
:103A7000329EF001339EF00D11249C012E0F3F1F4A
:103A8000842F7B01E1CFE22FF0E0EC50FE4F549009
:103A9000822F86958695869590E0FC01EC51FE4F2D
:103AA00064902770712C022E02C0759467940A945A
:103AB000E2F7E1E06E227724FC01EC52FE4FA49085
:103AC000B12C022E02C0B594A7940A94E2F7F1E05B
:103AD000AF22BB24FC01EC53FE4FC490D12C02C09A
:103AE000D594C7942A95E2F721E0C222DD2461141F
:103AF000710419F081EE0E94471BA114B10419F062
:103B000086EE0E94471B852D0E94BC1BAB2819F036
:103B100086EE0E940E1B672819F081EE0E940E1B94
:103B2000CD2809F47ACF8CE26CCF81E00E94E017B7
:103B30000E94AD1701CF81E00E94B817F9CF82E053
:103B4000FBCF95EFE9169CE5F90609F462C008F48D
:103B50005CC027E245EE66EEF6EFEF16FCE5FF06E9
:103B600009F4EFC3882309F40EC410923F0522E044
:103B7000E2162CE5F20608F445C136E1E3163CE511
:103B8000F30630F0C7018A5F9C45099708F03AC1F7
:103B90000E943011909306058093050580E1E81698
:103BA0008CE5F80609F4FDC008F07CC0E8E0EE16EC
:103BB000ECE5FE0609F4E7C008F048C024E0E21690
:103BC0002CE5F20609F4D7C058F582E0E8168CE53A
:103BD000F80609F4CAC080910505826093E0E916F1
:103BE0009CE5F90609F4C4C080910505909106058D
:103BF0000E9463100E94EF179FCE27E245EE65EE0C
:103C0000A0C326E241EE60EE9CC327E245EE64EEDF
:103C100098C326E241EE62EE94C328E241E0EFCF82
:103C2000809105058061E6E0EE16ECE5FE0609F4FC
:103C30009FC0809105058860F7E0EF16FCE5FF0660
:103C400008F496C080910505806292C080910505B8
:103C50008D7F2CE0E2162CE5F20609F489C060F4B1
:103C60008AE0E8168CE5F80609F497C008F48FC0DE
:103C7000809105058E7F7CC080910505877FEEE0F1
:103C8000EE16ECE5FE0609F473C0809105058B7F06
:103C9000FFE0EF16FCE5FF0608F46AC08091050519
:103CA0008F7E66C02BEFE2162CE5F20609F467C0A2
:103CB00068F583E1E8168CE5F80609F47AC090F41B
:103CC000E1E1EE16ECE5FE0609F46FC0F2E1EF1655
:103CD000FCE5FF0609F088CF0E94EF1780910505EB
:103CE0008F7746C025E1E2162CE5F20609F469C09B
:103CF00008F47DC08AEFE8168CE5F80609F074CF69
:103D0000809106058160809306056ECF9FEFE916CE
:103D10009CE5F90609F451C0A0F4809106058D7F59
:103D2000FDEFEF16FCE5FF0671F3809106058E7F2F
:103D30002EEFE2162CE5F20630F380910605836043
:103D4000E2CF31E0E3163DE5F30609F459C008F48B
:103D500044C060E092E0E9169DE5F90609F044CF21
:103D60008EE090E00E94822F3FCF80910505816018
:103D70008093050539CF809105058460F9CF809146
:103D800006058260C0CF809105058064F1CF0E9456
:103D9000EF17809105058068EBCF809105058C6059
:103DA000E7CF809105058F7DE3CF809105058F7B5F
:103DB000DFCF80910505837FDBCF809106058C7F67
:103DC000A2CF8091050582FB992790F921E09227E7
:103DD00090FB82F990FB83F9CBCF80910605982F59
:103DE000909591708E7F892B90FB81F98CCF0E94EA
:103DF000EF1790910505892F97FB87F98058B8CF69
:103E000061E0AECF80911203E6E1EE16ECE5FE062E
:103E100009F0C8C28A7A91E009F490E09093B80260
:103E200069E2811165E388E992E00E94E0050E9461
:103E3000680E82CD8091410591E0892780934105EC
:103E400010921A019093400577CD48EF56E061E05B
:103E500077E00E944D0670CD41E057E068EF76E0D4
:103E6000F8CF46EE56E06FEE76E0F3CF4FEE56E039
:103E700066EE76E0EECF4EEC56E06AED76E0E9CF06
:103E80004AED56E06EEC76E0E4CF42EC56E066EBAD
:103E900076E0DFCF4EE956E06AEA76E0DACF4AEA2A
:103EA00056E06EE976E0D5CF81E00E94010444CD72
:103EB00089E0FBCF9BE5E9169DE5F90611F1ECE5FC
:103EC000EE16EDE5FE0609F09FC28091060582FB25
:103ED000882780F991E089270E94701095C20E947E
:103EE000EF17FFEF24E33CE0F15020403040E1F7D2
:103EF00000C000000E94B30F0E94E5151DCD81E0B7
:103F0000EBCF80E0E9CFC7010E94B70ED82E8BC25D
:103F10002F2D2F70C22E8F2D807F19F0C29490EF1D
:103F2000C922DD20C9F0CC2069F080E28E0D8830F6
:103F300010F081100BC080911203C82AC0921203A6
:103F40000E94680E8E2D0E94471B19C0809111039C
:103F5000C82AC0921103F4CF8E2D0E940E1BCC20D4
:103F600071F0C09480E28E0D883010F081103DC059
:103F700080911203C822C09212030E94680E292D5C
:103F80002850330B2430310510F40E944106AA203A
:103F900009F495CC80910F0380FD91CCF801128239
:103FA0008595859585950E94E017C8010E943D1C66
:103FB00080910F038595859585950F900F900F90B3
:103FC0000F900F90DF91CF911F910F91FF90EF9085
:103FD000DF90CF90BF90AF909F908F907F906F9029
:103FE0005F904F903F900C94B81780911103C822B6
:103FF000C0921103C2CF3F2D3F70B32E8F2D807F13
:10400000803219F0B29480EFB822882071F081E0FC
:10401000881681F1DD20D9F1CC2091F1F80185815C
:1040200080FF90CF8F7085832BC0DD20B1F0909101
:1040300013038B2D892BC11003C00E94160F9FCF35
:10404000E1E0CE12FACF2091060522FD98CF891724
:1040500009F495CF8093130392CFC11006C00E943C
:10406000620E8B2D0E940B0F8ACFF1E0CF1609F460
:1040700086CFF5CFDD2031F025E02C1508F47FCF79
:104080008B2DDBCF34E03C1508F479CFEACFCC2080
:1040900041F3F9E38F1209C02FEF37EE83E021508F
:1040A00030408040E1F700C000008E2D0E940E1BC2
:1040B00066CF8F2D86958695837061F0813009F0EB
:1040C0005ECFC7019370D11002C090E080E00E94E3
:1040D000150655CFC7019370D11002C090E080E063
:1040E0000E942B064CCF8E2DDD2029F00E94240C3F
:1040F0000E94651744CF0E94690BFACF8F2D837001
:1041000091F5D1103CCF4E2D429546954770440F06
:10411000440F8E2D8F70042E01C0880F0A94EAF789
:104120002E2D2071E4FE07C02FE030E001C0220FE9
:104130004A95EAF720953F2D369536953370323003
:1041400069F050F440911403313029F0822B84231C
:104150000E94EB1714CF842B822BFACF282B80914F
:1041600014038227F5CF8695DD2011F08F2D817005
:10417000882309F404CF4E2D429546954770440F8D
:10418000440F8E2D8F70042E01C0880F0A94EAF719
:104190002E2D2071E4FE07C02FE030E001C0220F79
:1041A0004A95EAF720953F2D369536953370323093
:1041B00069F050F440914705313029F0822B842377
:1041C0000E94A917DCCE842B822BFACF282B80915A
:1041D00047058227F5CF9F2D9F70F92EDD2029F00E
:1041E000892F0E94E0178E2D28CF8E2D0E940B0F55
:1041F0008F2D0E94B817C3CE8E2DE2EF8E1609F4D4
:104200004BC0E81570F0F0EF8F1639F121EF8216F0
:10421000D9F1DD2009F45CC0C11094CE8F2D8F71CF
:1042200038C033EF8316E9F194EF8912F2CFDD2025
:1042300009F443C02F2D2F71F22E822F0E94E01718
:104240008091060582FD07C038E0F39EC00111246D
:10425000836080930F038F2D1CC0DD2081F0E4E08C
:10426000EC1508F48CCE2F2D2F7181E090E001C069
:10427000880F2A95EAF7909147058927A1CFF5E0A5
:10428000FC1508F47CCEEFCF8F2D8F71DD2009F463
:10429000B0CF0E94E01773CE8F2D8F71DD20C9F350
:1042A000A8CF80E0DD2009F48BCF9F2D9F7181E0A6
:1042B00001C0880F9A95EAF783CF81E00E94C41766
:1042C00081E08C1508F05BCE82E00E94C41757CEC7
:1042D000CC2059F0893309F0E8CE9FEFE7EEF3E008
:1042E0009150E040F040E1F7DECE8F2D8F7181CF0D
:1042F000F0E1EF16FFE5FF0609F41DCC21E1E2161F
:104300002FE5F20609F41BCC93EFE9169CE5F906BC
:1043100009F477CC08F015CCF8EDEF16FCE5FF06B4
:1043200009F46BCC29EDE2162CE5F20609F475CC04
:1043300037EDE3163CE5F30609F014CC26E241EE36
:1043400061EEC8010E94D91BF7CA30E1E3163FE5D0
:10435000F30609F4EACB91E1E9169FE5F906A1F627
:1043600082E0E4CB85E0DE01119601900D928A9502
:10437000E1F7F801228189819A812111B7CA0E944F
:10438000B70EF82EBBCAF6E1EF16FCE5FF06E1F525
:104390008091B80269E2811165E388E992E00E94A8
:1043A000B60545CD82722AECE2162CE5F20609F438
:1043B0006CCD08F086C095ECE9169CE5F90609F489
:1043C00050CD08F065C0F3ECEF16FCE5FF0609F4EC
:1043D0003CCD08F041CD32ECE3163CE5F30609F4A0
:1043E00029CDFAE5EF16FDE5FF0609F488CD08F0C2
:1043F00061CDE1143CE5F30609F471CD8EEDE816CC
:104400008CE5F80609F478CDF8018281E080F1802E
:10441000882309F478CDC7010E94B510D82E682FE3
:10442000C7010E94DF0EB7018D2D0E94A8100E94C7
:10443000DA0C7C01882EF801D280C580C2943FE05E
:10444000C32280910F038770A1F0AD2CDD2091F085
:104450008F2D807F803421F080E28E0D883048F0EF
:1044600082E00E94C41780910F038770AA24A3944E
:104470008111A12C9F2C92942FE09222FBE0F91540
:1044800008F47DCDE92DF0E0E45CFF4C0C94912D17
:1044900097ECE9169CE5F90609F4EDCC08F4E6CCB6
:1044A000F8ECEF16FCE5FF0609F4EACC46EB56E023
:1044B00062EC76E029ECE2162CE5F20609F4C9CCB0
:1044C00090CF3FECE3163CE5F30609F4F1CCB0F4F1
:1044D000ECECEE16ECE5FE0609F4E1CC08F4DACCDF
:1044E0002DECE2162CE5F20609F4DECC84E03EEC7D
:1044F000E3163CE5F30609F4D8CC73CF86EDE81655
:104500008CE5F80640F48EE091EDE9169CE5F9069D
:1045100008F4CBCC11CAEDE5EE16FE0609F40CCA80
:1045200060CF1F93CF93DF938091DC02807FA9F44B
:104530008091D902882389F080910E03D091DD0209
:104540006091D7027091D802A091DA02B091DB029B
:10455000C62FC72316E0D81304C0DF91CF911F9157
:10456000089590E0109711F0CF3F19F401968770ED
:10457000F2CF189F9001199F300D1124F901E252DA
:10458000FD4F41814713F2CF40814613EFCF428167
:104590004111ECCF438154814A1B5B0B483C5105D0
:1045A00028F78091DC028F7080618093DC02F90132
:1045B000ED51FD4F80818F708061808387ED92E0A7
:1045C0000E943D1CDF91CF911F910C94AD0EAF92D4
:1045D000BF92CF92DF92EF92FF920F931F93CF93F0
:1045E000DF93CDB7DEB761970FB6F894DEBF0FBE8D
:1045F000CDBF8C0185E0F801DE011D9601900D9282
:104600008A95E1F7F801E28087EDA82E82E0B82EC6
:104610006091DA027091DB026115710509F432C113
:104620009091D7024091D802892F84238F3F09F4BB
:1046300029C120813181C380D480F090D902F60154
:10464000E61BF70BFF2009F4E8C08091DC02582F2D
:10465000507FE83CF10508F0ABC0511177C0FE2C4B
:10466000431321C092131FC0E1101DC08F708061E1
:104670008093DC02C5010E943D1C8091DC02F801A0
:1046800085838F2D61960FB6F894DEBF0FBECDBF28
:10469000DF91CF911F910F91FF90EF90DF90CF901E
:1046A000BF90AF900895CD2829F0822F83238F3FAC
:1046B00009F003C180E0F82FF170DF2E80FF3CC0CD
:1046C00080910E034091DD0256E0841315C02D87C2
:1046D0003E878D859E850E94E410292F22952F709C
:1046E0002230F0F0243018F59F70F1F0F801958138
:1046F000907FD1F4D12C1EC090E0589FF001599FBB
:10470000F00D1124E252FD4F6181361306C0608125
:10471000261303C06281E6120FC001968770D5CFC1
:104720009F7011F0882331F3805E883018F3C80140
:104730000E943D1CFD2CA5CFEE2009F4A2CF809154
:10474000DC0281608093DC02F12C9BCF431306C016
:10475000921304C0F801EE2009F479C0C8010E9448
:10476000F010882309F1EE20F9F08091DC0280320C
:1047700070F02091D7023091D80238872F831986A4
:10478000DB86CA868C87CE0107960E943D1C86E098
:10479000F801A7EDB2E001900D928A95E1F70E9431
:1047A0009122FF24F3946DCFC8010E943D1CF9CFE4
:1047B00051110AC087ED92E00E943D1C86E0F50190
:1047C00011928A95E9F7C0CF43130FC092130DC021
:1047D000E1100BC0F8018583C8010E943D1C86E0F2
:1047E000F50111928A95E9F74CCFC8010E94F010AB
:1047F0008823D1F2EE20C1F28091DC02803238F2BF
:104800002091D7023091D8023A8329831B82DD821E
:10481000CC828E83CE010196B8CFE83CF105F8F644
:10482000FE2CEE2009F243131FC092131DC080918D
:10483000DC0280FD10C0982F907F69F0F80185831D
:10484000903F31F0982F907F905F8F70892B8583F8
:10485000C8010E943D1C86E0F801A7EDB2E001907E
:104860000D928A95E1F70DCFC8010E94F0108111D9
:104870008ECF8091DC0281608093DC02C8010E94AF
:104880003D1CFFCEEE2009F48FCFC8010E94F0102E
:10489000F82E882309F488CF86E0F801A7EDB2E06E
:1048A00001900D928A95E1F78091D7029091D802FC
:1048B0000E94E4100E949122E4CE81E08E25FBCE7E
:1048C0001F93CF93DF93CDB7DEB767970FB6F894FA
:1048D000DEBF0FBECDBF4B8B5C8B6D8B7E8B8F8B0A
:1048E0006111109211031A8A198A85E0FE017396EC
:1048F000DE011D9601900D928A95E1F786E0FE019A
:104900003D96DE01179601900D928A95E1F7CE0152
:1049100007960E94E722811112C086E0FE013796B9
:10492000DE01119601900D928A95E1F78A859B85AB
:10493000892B29F088859F8189238F3FB1F516E067
:1049400080910E039091DD0289131DC067960FB60A
:10495000F894DEBF0FBECDBFDF91CF911F910895B8
:1049600096E0929FD001939FB00D1124A252BD4FAB
:10497000FE01319601900D929A95E1F78093DD0248
:104980000E94AD0EDCCF819FC001112482529D4F49
:104990000E94E7228823D1F280910E0390E00196D5
:1049A0008770992780930E03CBCF2091DD0230E0F2
:1049B000C90101968770992740910E03481719067F
:1049C00079F60E94EF171092DD0210920E0386E036
:1049D000E7EDF2E0DF011D928A95E9F7B0CF2F9263
:1049E0003F924F925F926F927F928F929F92AF927F
:1049F000BF92CF92DF92EF92FF920F931F93CF93CC
:104A0000DF93CDB7DEB72A970FB6F894DEBF0FBE9F
:104A1000CDBFAE014F5F5F4F6A018AE0DA011D92A0
:104A20008A95E9F70FE411E07A01AA24A394B12C46
:104A3000F80181918F018F3F09F44BC0F894E82F62
:104A4000E295EF70F0E021A18F70A50102C0440F44
:104A5000551F8A95E2F7CA01922F982B91A392A134
:104A60008095892382A3789400C0E4E5F1E030E0EA
:104A700020E0912C812C81918F3F09F4ACC0A82FAC
:104A8000A295AF70B0E090964C9150E08F7002C04C
:104A9000559547958A95E2F740FD9DC0C501022EC8
:104AA00002C0880F991F0A94E2F7882A992A2F5F7B
:104AB0003F4F2F303105F9F6F801319780818F3F54
:104AC00011F00E94800C50EA5A95F1F7D7018D92AF
:104AD0009C92B2E0EB0EF11CE1E004351E0709F0F8
:104AE000A7CF4AE050E0B6018AE193E00E943E2F52
:104AF0008C01FF24F394892B09F4F12C0115110585
:104B000041F08AE0F601AAE1B3E001900D928A95A6
:104B1000E1F750901703552009F46AC00E94591715
:104B20002091150330911603AC01421B530B9A01DF
:104B300090931603809315034F3F510511F008F031
:104B40004DC0452B09F444C0E22E1092170320916A
:104B5000180330911903EEE5F3E06AE173E03901DF
:104B60005BE4650E711C412C88248394912C1901FF
:104B700050E040E0D101DD901D01DD20D1F0CD01FC
:104B80000197ED1470F1DC011C92C080D180DB0133
:104B90008D919C918C259D255401042E02C0AA0C58
:104BA000BB1C0A94E2F78A219B218C259D259183C9
:104BB00080834F5F5F4F4F305105E1F6215F3F4FDC
:104BC00032966E5F7F4F6216730689F64092170326
:104BD000012BB1F44DC090E080E067CF2FEF30E0C3
:104BE000B3CFDE18DC01DC92452CE3CF108233C05A
:104BF000012BF1F10E94591790931603809315032E
:104C0000209118033091190360911703AAE1B3E0D2
:104C10008EE5C82E83E0D82EAA24A394B12C73E08D
:104C20004D915D91F601819191916F01482759272E
:104C3000F90190E080E08501082E02C0000F111FED
:104C40000A94E2F704231523012B81F2108111113C
:104C500002C0708361E0319601968F30910559F75B
:104C6000215F3F4FF3E0A432BF07D1F660931703F3
:104C70008F2D2A960FB6F894DEBF0FBECDBFDF9101
:104C8000CF911F910F91FF90EF90DF90CF90BF9049
:104C9000AF909F908F907F906F905F904F903F90DC
:104CA0002F9008951F921FB61F9211248F939F93E8
:104CB000AF93BF9380910005811113C080910105CE
:104CC00090910205A0910305B09104054196A11DA4
:104CD000B11D8093010590930205A0930305B09345
:104CE0000405BF91AF919F918F911F901FBE1F90A0
:104CF0001895CDB7DEB7E4970FB6F894DEBF0FBEB8
:104D0000CDBF84B7877F84BF0FB6F894A8958091F4
:104D10006000886180936000109260000FBE80E8A0
:104D200090E00FB6F89480936100909361000FBEFD
:104D300085B7806885BF85B7806885BF8EE79CE0B2
:104D400090939302809392020E9429040E94F4049B
:104D50008091E20084608093E200789480912F0536
:104D60008823A1F01091E9001F709091EC00892F29
:104D7000817090FD80E8182B1092E9008091E80086
:104D800083FD0E9404181F701093E90082E084BD27
:104D900093E095BD9AEF97BD80936E000E94171126
:104DA000811102C00E9454100FE411E0D8018D91CE
:104DB0008D018F3F11F00E94800CB1E004351B077C
:104DC000A9F704E511E0F80181918F018F3F11F0FF
:104DD0000E94800CF1E003361F07A9F710921B0315
:104DE00010921A0310925F0310925E0310921D033B
:104DF00010921C03109261031092600310921F0323
:104E000010921E031092630310926203109221030A
:104E100010922003109265031092640310922303F2
:104E20001092220310926703109266038BE490E0C5
:104E30000E94162EAC01909319038093180330E062
:104E400020E0FA01E20FF31F90E011929F5F9F3084
:104E5000E1F7215F3F4F2B34310599F70E94DA15B6
:104E6000811102C00E94E51582E090E00E94642F4B
:104E7000809353030E94301190930605809305059B
:104E80000E94EF248FEB9DE50197F1F700C0000031
:104E90000E94EF2480915E0380FF08C06FEF7FEFD8
:104EA00090E080E00E94A02F0E94B30F83E090E08A
:104EB0000E94642F0E94EB170E94FE11109275034E
:104EC0008FEF9FEF90938F0380938E0390939103C6
:104ED0008093900390939303809392039093950310
:104EE00080939403909397038093960390939903F0
:104EF0008093980390939B0380939A0390939D03D0
:104F000080939C031092240390933E0380933D036F
:104F10009093400380933F03909342038093410317
:104F200090934403809343039093460380934503F7
:104F3000909348038093470390934A0380934903D7
:104F400090934C0380934B030E94DA15811104C0A7
:104F50000E94E5150E94C21546E050E06CE170E049
:104F600081E495E00E94542F809141058C7F11F4DB
:104F70000E94C21580910505806880930505809187
:104F80000505909106050E9463108AE091E09093D8
:104F9000FD048093FC0480912F05853079F483E033
:104FA000E82E00E112E180912F05853009F43FC21F
:104FB0000E94EF170E944106109251030E94EF24B5
:104FC000882359F08FB7F89440910105509102055C
:104FD00060910305709104058FBF4EE553E05FA714
:104FE0004EA784E593E09DA78CA71AE7212E11E038
:104FF000312E1BA6712C08E0502EAEA5BFA58D90BA
:105000009D90BFA7AEA7ECA5FDA581919191FDA7AD
:10501000ECA78815990509F497C07101612CCC247F
:10502000C394D12C9C01282539253CAB2BAB32975E
:10503000FAABE9AB8BA99CA98C219D21892B09F4A2
:105040007AC069A27AA284010C211D2181E0011598
:10505000110509F480E08BA30E9459178160782F15
:105060009DA38CA349A15AA16BA18DA10E9460248C
:10507000A9A9BAA98D919C9111978C259D258D93F5
:105080009C93012B29F0F70180818F3F09F01FC20B
:10509000412C042D10E080912403800F912F911D4D
:1050A00009976CF1E8E0AE2EB12CA01AB10AB80154
:1050B0006B5D7C4FA50185E293E00E944B2FB80108
:1050C000635D7C4FA5018DE293E00E944B2FA5010B
:1050D000440F551FB801660F771F635C7C4F8DE34B
:1050E00093E00E944B2FB8016B5C7C4FA50185E3D8
:1050F00093E00E944B2F852D841980932403809187
:10510000240390E0F8A9AF2FB0E09D01220F331FD8
:105110002B533E4FAA0FBB1FBD016A537E4F41E088
:10512000480F941508F4D7C180932403EBA5EF5FD3
:10513000EBA7EC3018F56394CC0CDD1CFFEFEF1AF5
:10514000FF0A2FE0621276CF73943FE0230E311CEA
:1051500045E0741252CF5BA5511110C08FEF8EA3A2
:105160008FA318A60E9459178160782F9AA789A744
:105170004EA15FA168A58AA50E94602480914D037D
:1051800090914E03A0914F03B09150034FB7F89404
:10519000009101051091020520910305309104054D
:1051A0004FBF28013901481A590A6A0A7B0A4FB7CA
:1051B000F8948090010590900205A0900305B090AE
:1051C00004054FBF80924D0390924E03A0924F036F
:1051D000B092500360912403E4E2F3E0462F50E0E4
:1051E0000197AF4FBF4F801B910BA20BB30B651301
:1051F00088C1409324038091510310E0811108C0BD
:1052000080914105182F137019F0182F16951695D7
:1052100080911A01813009F49EC1882309F484C168
:10522000823009F4AAC1833009F4B2C186E0EFE606
:10523000F3E0DE01119601900D928A95E1F7E0907E
:105240007103D09072031091730300917403109254
:1052500071031092720310927303109274038E2DD7
:105260008D2909F448C080916D0390916E030E94CE
:105270004A179C0190916903992309F44FC3233382
:105280003105C8F19F3F19F09F5F90936903EE20AD
:1052900059F00E94040C9FEF1E140CF491E0899FBA
:1052A000802D112480937103DD2059F00E94040C9D
:1052B0009FEF1D140CF491E0899F802D11248093A1
:1052C0007203309171033323B1F0209172032223D2
:1052D00091F045EB3403C0011124992309F485C1F1
:1052E0009093710345EB240390011124332309F4B7
:1052F00080C130937203812F802B09F448C08091C4
:105300006B0390916C030E944A179C019091680373
:10531000992309F4FEC225363105C8F19F3F19F0E3
:105320009F5F90936803112359F00E94E20B9FEF57
:1053300011160CF491E0899F802D11248093730342
:10534000002359F00E94E20B9FEF10160CF491E03D
:10535000899F802D1124809374033091730333232C
:10536000B1F020917403222391F045EB3403C00186
:105370001124992309F441C19093730345EB24034D
:1053800090011124332309F43CC1309374038091BC
:10539000710390917203892B90917303892B9091E3
:1053A0007403892B11F00E94651786E0FE01319687
:1053B000AFE6B3E001900D928A95E1F70E944106B5
:1053C00090915203891721F00E9441068093520365
:1053D00080912F05843009F0DECD83E08093E900D1
:1053E0008091E80082FFD7CD8091E80090E085FFB2
:1053F0000CC00E94480430E2C32ED12C8E010F5FF6
:105400001F4F882309F40BC191E08091E8008B774E
:105410008093E800992309F4BECDE981E150E3319E
:1054200008F08CC1F0E0E85BFF4C0C94912D80916A
:105430002F05843009F438C08091510381110DC0CB
:105440000E9427131092150180914105837080936B
:1054500014010E946311E0921A0191E090935103AC
:1054600010920005A8E1B0E0E0E40FB6F894A8952A
:10547000A09360000FBEE093600083B7817F8460DB
:1054800083BF83B7816083BF7894889583B78E7F0D
:1054900083BF0FB6F894A8958091600088618093CF
:1054A0006000109260000FBE80912E05882309F4E1
:1054B0007ACD0E94EF24EEE5F3E081919191892B62
:1054C00009F008C223E0E836F207B9F76CCD88ABE3
:1054D00044244394DECD90E0FC01EC5DFC4FD90107
:1054E0005C915183DB015C915187B8A9B18B880F26
:1054F000991FFC01EC5DFC4F128E118E91E0842F00
:105500000ECE218D328D6901F12CE12C8C159D057B
:10551000AE05BF0520F441505F5F329668CE240D82
:10552000351D328F218FF8CF1092170180923905E7
:1055300090923A05A0923B05B0923C0589E2E4E2E4
:10554000F3E0A5E7B3E001900D928A95E1F781E0E1
:1055500080931A016BCE812F0E942713112309F427
:1055600065CE0E94410681FF61CE2FEF4FEF6FEFB6
:105570008EE190E00E94150859CE1093150180919C
:1055800041058370809314010E94631183E0E0CF92
:1055900080914005882341F046E050E06CE170E0E6
:1055A00081E495E00E94722F1092400540913905E8
:1055B00050913A0560913B0570913C052FB7F894E6
:1055C0008091010590910205A0910305B091040519
:1055D0002FBF841B950BA60BB70B4A97A105B105EE
:1055E00008F424CE10921A0121CE51E05093710399
:1055F00079CE51E0509372037ECE51E05093730305
:10560000BDCE51E050937403C2CE8091F100D80119
:105610008D938D01B1E0CB1AD10809F4F5CE8091BC
:10562000E80085FDF2CF8091E8008B778093E80059
:105630000E944804882399F3E7CE1A8289E08B837D
:105640001AC08A81823009F45BC18330D9F181307C
:1056500009F074C02FB7F8946091010570910205AC
:1056600080910305909104052FBF0E94972D6B83B5
:105670007C838D839E8380912F05843009F08BCCB1
:105680001091E9001F709091EC00892F817090FDBE
:1056900080E8182B82E08093E9008091E80080FF89
:1056A0000DC050E040E060E270E0CE0101960E9443
:1056B00079048091E8008E778093E8001F70109342
:1056C000E90069CC80915E0390915F039827892758
:1056D00098279C838B838091600390916103982726
:1056E000892798279E838D8380916203909163031D
:1056F00098278927982798878F83809164039091B2
:1057000065039827892798279A8789878091660358
:10571000909167039827892798279C878B87ABCF21
:105720008A81823059F46B817C818D819E810E94B7
:10573000972D86E290E00E94822F9DCF8FEF898384
:105740009ACF4C816B818A810E9482109827892789
:1057500098279E838D838FCF0D811E81102701276F
:1057600010278A81CB80EEE1CE9E60011124F6E9FC
:105770008F9FC00CD11C11248C8190E0880F991F41
:10578000C80ED91E612FC60187960E94822F602FF6
:10579000C6018896D0CF0E94E70F6DCF80E18A8343
:1057A0006ACF21E02A8381E84ACF0A811B81102732
:1057B00001271027AE014F5F5F4F5A01CC80CA010D
:1057C0008C0D911D6C01C80181589D4FCA14DB04DA
:1057D00009F451CF0138A1E01A0750F40E94642F58
:1057E000F50184830F5F1F4FBFEFAB1ABB0AEBCFEE
:1057F000D50114961C92F6CF0A811B811027012730
:105800001027FE0131965F01CC80C00ED12ED11C35
:10581000C80181589D4F0C151D0509F42CCF013886
:10582000F1E01F0728F4D50114966C910E94822F95
:10583000BFEFAB1ABB0A0F5F1F4FEACF0E94D70F13
:105840001ACF84E0ACCF0A811B81102701271027D3
:10585000FE0131965F01CC809F012C0D311D690145
:10586000C8018796CA14DB0409F405CF083532E075
:10587000130758F40E94642FD50114968C930F5F80
:105880001F4FFFEFAF1ABF0AEBCFF5011482F7CF1E
:105890000A811B811027012710279E012F5F3F4F90
:1058A0005901CC80C00ED12ED11CC8018796C016DC
:1058B000D10609F4E0CE083532E0130728F4D5010B
:1058C00014966C910E94822FBFEFAB1ABB0A0F5F38
:1058D0001F4FEBCF09BD19BD09B400FEFDCF80916C
:1058E000D8008F7D8093D8008091E0008260809303
:1058F000E0008091E00081FDFCCF0E94EF1753CBC8
:1059000086E290E00E94642F1B821C821D828E839F
:10591000B2CE2D32314008F003CD39CD2D32314099
:1059200008F0B2CCE8CC1092B9008CE08093B800BB
:1059300008959F92AF92BF92CF92DF92EF92FF9223
:105940000F931F93CF93DF93B82EEB010E9459174B
:105950006C01EE24E394F12CC431D10560F025E014
:10596000E22EF12CCF3FDC0731F0CE0164E170E094
:105970000E94692D7B0184EAA82E94E8992E10924A
:10598000BC00A092BC000E9459178C018091BC0001
:1059900087FF0DC08091B900887F883039F18091F0
:1059A000B900887F803111F10FEF1FEF09C00E940D
:1059B0005917801B910B8E159F0540F30EEF1FEFBB
:1059C000CF3FDC07E1F2C6010E944A178C179D0702
:1059D000B0F2C801DF91CF911F910F91FF90EF902E
:1059E000DF90CF90BF90AF909F900895B092BB0092
:1059F0009092BC000E9459178C018091BC0087FFD7
:105A00000AC08091B900887F883111F0803461F636
:105A100010E000E0DECF0E945917801B910B8E151D
:105A20009F0558F3CBCF0F931F93CF93DF93EB01D9
:105A30008093BB0084E88093BC000E9459178C01BE
:105A40008091BC0087FF11C02091B900287F81E0C0
:105A500090E0283211F490E080E0919581959109D1
:105A6000DF91CF911F910F910895CF3FDC0741F354
:105A70000E945917801B910B8C179D0708F38EEF1E
:105A80009FEFEECFCF92DF92EF92FF920F931F9393
:105A9000CF93DF936B018A017901B9010E94992CA0
:105AA000E6010C0D1D1DC017D10761F424E92093F8
:105AB000BC00DF91CF911F910F91FF90EF90DF908D
:105AC000CF90089597FDF2CFB70189910E94132DD1
:105AD000EACFAA1BBB1B51E107C0AA1FBB1FA61719
