:100000000C9411040C9458040C9458040C94580447
:100010000C9458040C9458040C9458040C945804F0
:100020000C9458040C9458040C946B220C942722C2
:100030000C9466230C9458040C9458040C945804A3
:100040000C9458040C9458040C9458040C945804C0
:100050000C9458040C9442230C9458040C945804A7
:100060000C9458040C9458040C9458040C945804A0
:100070000C9458040C9458040C9458040C94580490
:100080000C9458040C9458040C9458040C94580480
:100090000C9458040C9458040C9458040C94580470
:1000A0000C9458040C9458040C945804050109024B
:1000B000A10185020901A1000509190129081500FE
:1000C0002501950875018102050109300931158165
:1000D000257F95027508810609381581257F9501D0
:1000E00075088106050C0A38021581257F95017572
:1000F000088106C0C005010980A101850319012AF4
:10010000B700150126B700950175108100C0050CD8
:100110000901A101850419012AA002150126A002E6
:10012000950175108100C005010906A1018505052D
:100130000719E029E71500250195087501810205D9
:1001400007190029EF1500250195F07501810205B9
:10015000081901290595057501910295017503910D
:1001600001C00660FF0961A1010962150026FF00B8
:100170009520750881020963150026FF00952075FA
:10018000089102C005010906A101050719E029E748
:1001900015002501950875018102950175088101F9
:1001A0000507190029FF150026FF0095067508812F
:1001B000000508190129059505750191029501753C
:1001C000039101C0000000000000000000000000DA
:1001D000000000000000000000000000000000001F
:1001E00000000000000000007E0F00D4FFFFFFC7EA
:1001F0000000007800000000000000002A2B28000A
:1002000000000000000000000000000000000029C5
:10021000000000002C1E3420212224342627252E05
:10022000362D3738271E1F2021222324252633333D
:10023000362E37381F0405060708090A0B0C0D0E69
:100240000F101112131415161718191A1B1C1D2F35
:100250003130232D350405060708090A0B0C0D0E55
:100260000F101112131415161718191A1B1C1D2F15
:100270003130354C00047F3F1F64321464321478EF
:100280003C1E1E140A0500010101010101010101CA
:100290000202020202020202020303030303030337
:1002A0000304040404040404050505050506060604
:1002B0000606070707070708080808090909090AC1
:1002C0000A0A0B0B0B0C0C0C0D0D0D0E0E0E0F0F66
:1002D0000F101011111112121313141415151616F4
:1002E0001717181819191A1A1B1B1C1D1D1E1E1F63
:1002F0002020212222232424252626272829292AB2
:100300002B2C2D2D2E2F30313232333435363738D9
:10031000393A3B3C3D3E3F404142434445464748D5
:10032000494A4C4D4E4F50515354555658595A5BAB
:100330005D5E5F616264656668696B6C6D6F70724B
:10034000737577787A7B7D7E8082838587888A8CB7
:100350008E8F91939596989A9C9EA0A2A3A5A7A9EB
:10036000ABADAFB1B3B5B7BABCBEC0C2C4C6C9CBE2
:10037000CDCFD1D4D6D8DBDDDFE2E4E7E9EBEEF098
:10038000F3F5F8FAFDFFFFAA7F5540222325262822
:10039000292A2C2D2F3032333536383A3B3D3E401A
:1003A00042434547494A4C4E5051535557595A5C60
:1003B0005E6062646668696B6D6F71737577797B77
:1003C0007D7F81838587898A8C8E90929496989A76
:1003D0009C9E9FA1A3A5A7A8AAACAEAFB1B3B4B68B
:1003E000B8B9BBBCBEBFC1C2C3C5C6C7C9CACBCCE6
:1003F000CDCED0D1D2D2D3D4D5D6D7D7D8D9D9DAB9
:10040000DADBDBDBDCDCDCDCDCDDDDDDDDDCDCDC2D
:10041000DCDCDBDBDBDADAD9D9D8D7D7D6D5D4D355
:10042000D2D2D1D0CECDCCCBCAC9C7C6C5C3C2C12A
:10043000BFBEBCBBB9B8B6B4B3B1AFAEACAAA8A787
:10044000A5A3A19F9E9C9A98969492908E8C8A893F
:10045000878583817F7D7B79777573716F6D6B691C
:1004600068666462605E5C5A5957555351504E4CF1
:100470004A4947454342403E3D3B3A3836353332A0
:10048000302F2D2C2A29282625232229003A003B0B
:10049000003C003D003E003F004000410042004360
:1004A0000044004500460001514C0035001E001F6D
:1004B0000020002100220023002400250026002720
:1004C000002D002E004C002A004A002B00000014D2
:1004D000001A000800150017001C0018000C00127C
:1004E0000013002F00300031004B003900000004E1
:1004F000001600070009000A000B000D000E000F97
:100500000033003400280000004E00E10001511DBE
:10051000001B00060019000500110010003600370E
:100520000038000000E50052004D00E000E300004C
:1005300000E2002C0000002C0000002C000000E66F
:10054000000151E400500051004F00010001000182
:100550000001000100010001000100010001000193
:100560000001000100010001000100010001000183
:100570000001000100010001000100010001000173
:1005800000010001000100005C010001000000C248
:100590005CC35CC55CC65CC75CC85CC95CCA5C010A
:1005A0000001000100010001000100010000000144
:1005B0000001000100010001000100010001000133
:1005C0000001000100010000000100010001000124
:1005D000000100BD5CBF5CBE5CC05C0100010001AD
:1005E0000001000000010001000100010001000005
:1005F00000010001000000010000000100000001F6
:1006000000010001000100010001000100010001E2
:1006100000010001000100010001000100010001D2
:1006200000010001000100010001000100010001C2
:1006300000010001000100010001000100010001B2
:1006400000010001000100010001000100000001A3
:100650000001000100010001000100010001000192
:100660000001000100010001000100010000000183
:100670000001000100010001000100010001000172
:100680000001000100010000000100010001000163
:100690000001000100010001000100010001000152
:1006A0000001000000010001000100010001000044
:1006B0000001000100000001000000010000000135
:1006C0000001000100010001000100010001000122
:1006D0000001000100010001000100010001000112
:1006E0000001000100010001000100010001000102
:1006F00000010001000100010001000100010001F2
:1007000000010001000100010001000100000001E2
:1007100000010001000100010001000100010001D1
:1007200000010001000100010001000100000001C2
:1007300000010001000100010001000100010001B1
:1007400000010001000100000001000100010001A2
:100750000001000100010001000100010001000191
:100760000001000000010001000100010001000083
:100770000001000100000001000000010000000174
:10078000000100010001000100010009025B0003FB
:100790000100A0FA09040000010301010009211170
:1007A000010001224000070581030800010904013E
:1007B00000020300000009211101000122220007AC
:1007C000058203200001070503032000010904023C
:1007D00000010300000009211101000122B60007F9
:1007E0000584032000011201000200000008424BB2
:1007F00061600200010200010C034B004200440052
:10080000370035000000160371006D006B006200B8
:10081000750069006C00640065007200000004034C
:10082000090411241FBECFEFDAE0DEBFCDBF04B64E
:1008300003FE27C08091E2029091E302A091E402BE
:10084000B091E5028730904BA740B04BD1F41092A5
:10085000E2021092E3021092E4021092E50214BE4A
:1008600084B7877F84BF0FB6F894A8958091600005
:10087000886180936000109260000FBEE0E0F8E3B2
:10088000099511E0A0E0B1E0EEE4F7E502C00590C3
:100890000D92AA39B107D9F722E0AAE9B1E001C067
:1008A0001D92A23EB207E1F70E948D230C946E2B9D
:1008B0000C940000E8EDF0E080818E7F8083109240
:1008C000E2001092DA001092E100A0EEB0E08C910C
:1008D00081608C9380818F77808319BCA7EDB0E015
:1008E0008C918E7F8C9380818F7E80831092AF025B
:1008F00008952091E4003091E50095E6A90120914A
:10090000EC00822F817020FF06C08091E80080FFFC
:1009100006C080E008952091E80022FD1AC0809171
:10092000D402882389F0853089F08091EB0085FD21
:100930000FC02091E4003091E50042175307F9F20F
:100940009150E1F684E0089582E0089583E00895EF
:1009500081E00895EF92FF920F931F93CF937C0154
:100960008B010E947904C82F811117C08091E80083
:1009700085FD0BC08091E8008E778093E8000E948F
:100980007904882399F3C82F08C0F70181917F016A
:100990008093F1000150110949F78C2FCF911F91DD
:1009A0000F91FF90EF9008958091D60287FF13C0BA
:1009B0008091E80082FF06C08091E8008B778093E9
:1009C000E80004C08091D4028111F2CF0895809193
:1009D000D4028823D9F38091E80080FFF8CF80917A
:1009E000E8008E77ECCF982F9093E900242F762F94
:1009F00050E0891731F07091EC002091ED0050919A
:100A0000F00021FD07C09F5F973071F78093E900E8
:100A100081E008953091EB003E7F3093EB00309100
:100A2000ED003D7F3093ED003091EB00316030936D
:100A3000EB007093EC002093ED005093F0002091B8
:100A4000EE0027FDE0CF80E00895CF92DF92EF9295
:100A5000FF920F931F93CF93DF93C8EDD0E088816F
:100A60008F7E8883E7EDF0E080818160808384E081
:100A700082BF81E08093AF0288818E7F888302EEFF
:100A800010E0F80110821092DA0081EEC82ED12C0D
:100A9000F601108288818F778883888180688883B7
:100AA00088818F7D888319BC1092D4021092D50260
:100AB0001092D3021092D20290EEE92EF12CF7019F
:100AC00080818B7F808388818160888342E060E0C1
:100AD00080E00E94F304F60180818E7F8083F8011C
:100AE000808181608083808188608083F70180813C
:100AF0008E7F8083888180618883DF91CF911F9171
:100B00000F91FF90EF90DF90CF900895FC018091BE
:100B1000DC029091DD0286179707A0F06115710540
:100B200029F49091E8009E779093E80090E0611599
:100B3000710551F4911108C08091E80082FF34C022
:100B400080E00895BC01F2CF8091D4028823C1F1E6
:100B50008530C1F18091E80083FD30C08091E800CC
:100B600082FDEACF8091E80080FFE1CF8091F30021
:100B70002091F200382F6115710519F028303105E8
:100B800058F091E02830310509F090E02091E8001C
:100B90002E772093E800CBCF81918093F1006150B4
:100BA00071092F5F3F4FE7CF8091D402882341F036
:100BB000853041F08091E80083FFBECF81E0089549
:100BC00082E0089583E008958091B10208959C0128
:100BD0004FB7F8948091A6029091A702A091A80225
:100BE000B091A9024FBF821B930B08952FB7F894C1
:100BF0008091A6029091A702A091A802B091A902AB
:100C00002FBF08952091A3023091A402281739071D
:100C100071F09093A4028093A302E091A102F0915D
:100C2000A202309721F00084F185E02D0994089507
:100C300020919F023091A0022817390771F09093FC
:100C4000A00280939F02E091A102F091A20230974E
:100C500021F00680F781E02D09940895E091A1022A
:100C6000F091A202309721F00190F081E02D0994DB
:100C700080E00895CF92DF92EF92FF92863030F5B8
:100C8000811125C0909180009F7D909380002E98C7
:100C9000282F30E0AFEFBFEF0E94BB2925E030E006
:100CA00040E050E00E948429C9012C3764E13607F6
:100CB000A0F469E070E00E945C2970938B0060935F
:100CC0008A00FF90EF90DF90CF90089585E090919B
:100CD0008000906290938000DBCF2A50374D4F4FB9
:100CE0005F4F942F832F722F662725EF38E241E064
:100CF00050E00E94842969017A01CA01B9010E9469
:100D00004C299B01AC01C701B6010E944C29672FF9
:100D1000782F892F99276115710521E082079105A8
:100D200061F66FEF7FEFC9CF282F220F220F220F1E
:100D300090919E029770922B90939E02987F21E053
:100D400009F420E090919E0220FB90F990939E027E
:100D50000C943A06FA01811101C0FB01099408952F
:100D600080919902982F9E7F29F4817082608093F0
:100D7000990208958A34E8F381708864F8CFAF92BD
:100D8000BF92DF92EF92FF920F931F93CF93DF9367
:100D9000082F162FE901E42FF0E0EA57FD4F61110B
:100DA00010C0E4915E2F4E2F4983E8835A83DF9170
:100DB000CF911F910F91FF90EF90DF90BF90AF9078
:100DC0000895E62EF12C4491D42EE42FF0E026E095
:100DD000829FC00111242FEF30E0B9010E945C29ED
:100DE000802F90E0880F991F55E5569FD001579F9F
:100DF000B00D11248A1B9B0B982F990F890F590155
:100E0000AE18BF08AE9ED001AF9EB00DBE9EB00D15
:100E100011245B2F189F80011124012F11275901E4
:100E2000A01AB10AAE9E8001AF9E100DBE9E100D9D
:100E300011245901A81AB108AE9CC001AF9C900DB5
:100E4000BE9C900D1124892F9927281B390B2E9FAA
:100E5000C0012F9F900D3E9F900D1124E92F62300D
:100E60007105A1F050F46115710509F49DCF613051
:100E7000710581F0EB2F512F97CF6430710569F028
:100E800080F06630710509F48FCFF4CFE42F4B2F3B
:100E9000592F8ACFE42F412F87CFEB2F542F492F83
:100EA00083CF4B2F5D2DE12F7FCF0E94F6059C0154
:100EB00090915A0280915B02982B21F03093570257
:100EC0002093560290915C0280915D02982B21F054
:100ED0003093550220935402E091A102F091A202B6
:100EE000309749F082E0809358020480F581E02D2C
:100EF00088E592E00994089540915A02803F59F4A0
:100F000080915B0287FF0DC010925B0241110BC004
:100F10001092520208C0813F81F480915B02181642
:100F20009CF3442381F080915C0290915D02892BB7
:100F300009F05AC0109251020895823F49F447FFC8
:100F4000F0CF10925A0280915B028111ECCFE0CF7A
:100F5000833F19F41416ACF3E4CF90915C02893FFF
:100F600029F41916F4F610925C02DBCF8A3F19F4CB
:100F700097FFD7CFF8CF90915D028B3F29F497FF71
:100F8000D0CF10925D02CDCF8C3F19F41916CCF35F
:100F9000C8CF9CE0980F953090F4845F990B21E0C6
:100FA00030E0B90102C0660F771F8A95E2F7CB01E6
:100FB000809590915902892380935902B2CF8D3F39
:100FC00031F4809153028E7F80935302AACF8E3FDB
:100FD00021F4809153028D7FF7CF8F3F09F0A1CF8D
:100FE000809153028B7FF0CF08958091530280FD52
:100FF00016C081FD16C082FD16C080915102882363
:10100000A1F0883280F428E0829FC001112468E2B8
:1010100070E00E947029862F672B39F0089582E0D6
:10102000089584E0089588E0089581E0089580910E
:10103000530280FD14C081FD14C082FD16C0809152
:101040005202882381F0843180F422E3829FC00120
:10105000112464E170E00E947029862F08958CE0CD
:10106000089589E1089585E0089582E30895803F19
:1010700031F40E941708819580935B020895813FA7
:1010800019F40E941708F8CF823F31F40E94170824
:10109000819580935A020895833F19F40E9417089E
:1010A000F8CF893F29F40E94F50780935C020895E8
:1010B0008A3F21F40E94F5078195F7CF8B3F31F4E9
:1010C0000E94F507819580935D0208958C3F19F485
:1010D0000E94F507F8CF9CE0980F953070F4845F7C
:1010E000990B21E030E001C0220F8A95EAF7809148
:1010F0005902822B8093590208958D3F31F48091DB
:10110000530281608093530208958E3F21F48091B1
:1011100053028260F7CF8F3FB9F78091530284600A
:10112000F1CF80E00895F894E82FE295EF70F0E0B9
:1011300031A1282F2F7081E090E001C0880F2A95FF
:10114000EAF7982F9095932391A392A1892B82A3DC
:10115000789408959091AA0292FF06C0282F2871D2
:101160002830F9F4877F846093FF06C0282F287108
:101170002831F1F4877E84612091AB0220FF06C004
:10118000382F38713830D9F4877F816021FF06C04D
:10119000282F28712831D1F4877E816194FD877EC4
:1011A0000895282F24712430F9F68B7F8860DCCFD6
:1011B000282F2471243101F78B7E8861DDCF382FF1
:1011C0003171313019F78E7F8860E0CF282F21717F
:1011D000213121F78E7E8861E1CFCF93DF93EC013F
:1011E00082389105A9F1D8F58133910509F496C0AB
:1011F00048F58932910509F48AC08A9709F495C0A7
:10120000C11521E5D20708F0BCC0C11530E5D307F0
:1012100008F014C1C83ED10508F09CC0C03ED105FD
:1012200060F5C83AD10508F087C0C53AD10508F085
:10123000FDC0C130D10509F12097F9F0C430D105C6
:10124000E0F440C08533910509F45AC0C997C1F64E
:101250008091AA02837089F0C0EED0E00EC0833E78
:10126000910599F170F4803E910501F1823E91055E
:1012700039F68091AA0282FD21C0CE01DF91CF9183
:101280000895863E910561F1873E910571F1843E96
:10129000910509F0B5CF8091AB0281FFEECF80912F
:1012A000AA02C7EED0E084FD0DC0E7CF8091AA026C
:1012B00080FD12C19091AB0290FFDFCFC3EED0E072
:1012C00084FFDBCFD0E0C0E0D8CF8091AA0282FDBE
:1012D00006C19091AB0290FDBFCF84FFCECFF2CF7D
:1012E0008091AA0283FDDDCFC8CF8091AA0283FD41
:1012F000F9C09091AB0291FFF0CFC4EED0E0BDCF2A
:101300008091AA0285FFB9CFC9E2D0E0B6CF809123
:10131000AA0285FFB2CFC5E3D0E0AFCF8091AA0289
:1013200086FFABCFCAE2D0E0A8CF8091AA0286FFA9
:10133000A4CFC1E3D0E0A1CFCF3BD10518F6C85A66
:10134000D0E0CC0FDD1FCE5DDE4F0990D881C02DDF
:10135000D46493CFC11540E2D40758F4C11581E09D
:10136000D80708F08ACFC03FD10508F4ABCFD065CD
:1013700084CFC11590E4D90708F4A4CFDF70D06AF8
:101380007CCFC11525E5D20700F5C11534E5D3079B
:1013900008F08AC0C11543E5D40708F071C0C11533
:1013A00082E5D80708F467C0CE018370992721E051
:1013B00030E002C0220F331F8A95E2F7C695C6952A
:1013C00080E2C89FE001112452C0C11599E5D907F8
:1013D000A8F4C11528E5D20708F06BC0C11536E5A1
:1013E000D30708F06FCF8C2F0E94AA08C82FD0E037
:1013F000DC2FCC27CC27DF71D0623FCFC1154AE567
:10140000D40708F45BC0CE0190568115904208F0D5
:1014100059CF8D2F8F710E94AA0890E0982F8827AE
:1014200088279F719C012C2BE901E6CFC55AD0E09B
:10143000C15EDE4FC881D0E0D0641FCFCE01E4E0B2
:1014400096958795EA95E1F783702C2F269526953A
:10145000237040E2249F90011124382B8C2F83703D
:10146000C1E0D0E002C0CC0FDD1F8A95E2F7C22BAD
:10147000D32BDC6802CFDC2FCC27C16FD06AFDCE26
:10148000CE018370992721E030E002C0220F331F84
:101490008A95E2F7C695C69590E2C99FE0011124AE
:1014A000C22BD32BDA68E9CEDC2FCC27C46FD06AED
:1014B000E4CEDC2FCC27C06FD06ADFCE8C2F8F70AC
:1014C0000E94AA0834E0D695C7953A95E1F7CF7007
:1014D0009C2FEC01D069D1CEC9E3D0E0CECEC2EED4
:1014E000D0E0CBCEC6EED0E0C8CE809121028111F3
:1014F0001092210208958091200290911F02892B61
:1015000090911E02892B8093A00190912102992332
:10151000A1F0892B8093A00180911E01882341F1C5
:101520008091AA0287FF24C08EE1E2EAF1E090E018
:10153000815000F591110E94750AE091A102F0918D
:10154000A2023097E1F080911E01882359F080912A
:10155000AA0287FF07C08091A0018093A10185E0C6
:101560008093A0010280F381E02D80EA91E009944C
:1015700086E0DBCF21912223D9F29F5FD9CF089556
:1015800090911E019923D1F09091AA0297FF16C065
:10159000E82FE695E695E695EE31E0F4F0E0E056CA
:1015A000FE4F282F277081E090E001C0880F2A9518
:1015B000EAF780959281892382830895E2EAF1E037
:1015C0009191891303C0DF0111971C9291E0E83AD1
:1015D000F907B1F7089590911E019923C1F09091F8
:1015E000AA0297FF14C0E82FE695E695E695EE313E
:1015F000F8F4F0E0E056FE4F877021E030E001C0E3
:10160000220F8A95EAF78281822B82830895A2EACB
:10161000B1E0EFEF90E02D91821751F0EF3F19F418
:10162000211101C0E92F9F5F9630A9F7EF3F09F420
:1016300008950E2E000CFF0BE056FE4FE6CF809172
:101640001C029091EB01981301C008958F5F877081
:10165000FACF9295907F890F982F977086958695EF
:10166000869523E0829FF0011124EF53FE4F50E056
:1016700040E080E0219130E0092E02C036952795A8
:101680000A94E2F721703327042E01C0220F0A9436
:10169000EAF7822B4F5F5F4F4330510559F70895AA
:1016A0009295907F890F982F977041E001C0440F69
:1016B0009A95EAF786958695869593E0899FF0013D
:1016C0001124EF53FE4F30E020E070E05191DF0134
:1016D0001197CB01022E02C0969587950A94E2F7E6
:1016E000817081958527842385278C932F5F3F4FB9
:1016F0002330310559F7089590E080E00E941806E4
:1017000090E080E00E94020610921F0210921E02DA
:101710000E947B0A86E0E8E5F2E0DF011D928A95EF
:10172000E9F71092520210925102109253020C9457
:1017300055078093E1020C947C0B8091E102982F75
:101740009670963019F488600C94990B877FFCCFC3
:1017500021E030E001C0220F8A95EAF720958091C0
:10176000E10282230C94990B90911D0280958923AC
:1017700080931D02282F277039F4282F082E000C83
:10178000330B9217130621F49091AB0292FF07C01E
:101790008595859585950E94A80B10921D02089548
:1017A00021E030E001C0220F8A95EAF78091E10242
:1017B000822B0C94990B809322020C947C0B88232F
:1017C00041F08095909120028923809320020C940F
:1017D0007B0A0895882339F090912002982B9093EA
:1017E00020020C947B0A0895882309F459C082389A
:1017F00071F40E942E0681FF53C089E30E94EB0A18
:101800000E947B0A89E30E94C00A0C947B0A8338F9
:1018100059F40E942E0680FF43C083E50E94EB0A24
:101820000E947B0A83E5EFCF843859F40E942E068C
:1018300082FF36C087E40E94EB0A0E947B0A87E49D
:10184000E2CF9CEF980F913AF0F290E2980F983027
:1018500088F4877021E030E0A90102C0440F551FD1
:101860008A95E2F7CA01809590912002892380939E
:101870002002CBCF9BE5980F933020F490E080E0DE
:101880000C94180698E5980F973120F490E080E0CA
:101890000C940206803F20F00E947C070C945507B0
:1018A000089581FD02C02A9A08952A98089590917A
:1018B000D402943029F58093AC027093AE02609309
:1018C000AD029093E9008FEF9091E800815095FD73
:1018D00006C095ED9A95F1F700008111F5CF809142
:1018E000E80085FF0DC050E040E063E070E08CEA66
:1018F00092E00E94AA048091E8008E778093E8002D
:101900000895BC0184E00C94570CBC0183E00C9456
:10191000570C9C0184E08093E9009FEF8091E800E0
:10192000915085FD06C085ED8A95F1F70000911173
:10193000F5CF8091E80085FF0CC050E040E066E004
:1019400070E0C9010E94AA048091E8008E7780931C
:10195000E8000895CF93DF93EC0180911E01882366
:10196000B1F18091AA0287FF32C060E284E08093E7
:10197000E9008FEF9091E800815095FD06C095ED4C
:101980009A95F1F700008111F5CF8091E80085FF6D
:101990001BC080911E0170E050E040E0811104C046
:1019A00050E040E068E070E0CE010E94AA0480911F
:1019B000E8008E778093E80080E2FE01A2EBB2E0BF
:1019C00001900D928A95E1F7DF91CF91089568E03B
:1019D00081E0CDCF81E08093E00080E28093D80069
:1019E0001092C9008FE19EE40197F1F700C000005A
:1019F00087E090EBDC018093E2029093E302A093F6
:101A0000E402B093E50288E19CE00FB6F894A89553
:101A1000809360000FBE90936000FFCF8091990289
:101A200080FD0AC0E9E6F2E011821082128233964C
:101A300052E0E939F507C1F76A9A3EB13B7F2EB112
:101A400024604FB7F89489E692E0FC015191CF01F0
:101A500068E02EB9000000C057FF3EB9550F0000E6
:101A600000C000C000C03EB900C06A9591F7F2E026
:101A700089399F0751F74FBF8FE594E00197F1F740
:101A800000C000000895EF92FF920F931F93CF9331
:101A9000DF938C01C9E6D2E0F12CE12CF8019481AE
:101AA00060919B0280919A02F8E0EF16F104FCF439
:101AB0009923F9F09E0140919C020E94BF062FEFEE
:101AC000E21AF20A239680E1E816F10439F70E943F
:101AD0000E0DF801848190E001968170992784832E
:101AE000DF91CF911F910F91FF90EF90089599236F
:101AF00009F39E0140E0E1CF8F929F92AF92BF9297
:101B0000CF92DF92EF92FF920F931F93CF93DF93C9
:101B1000EC014C81042F10E09801D8010E94BB29F0
:101B20009B01AC010E94D1294B015C01E0E2F0E095
:101B3000E01BF10BA5E5B0E0AC019B010E94D129AF
:101B40006B017C019F01DF010E94B3299B01AC0165
:101B50000E94DC299B01AC01280D391D4A1D5B1D2B
:101B6000C701B6010E948429F22E822F90E039E24B
:101B70003F15D8F143E0249F900111243595279516
:101B8000122F109599E6C92E92E0D92E00E085E536
:101B9000E82EEF188E2D01FD8F2D9601412F6091BB
:101BA0009B020E94BF060F5F53E0C50ED11C00319F
:101BB00089F70E940E0D9C8181E0992319F09032E3
:101BC00019F48FEF80931D0180911D01890F8C8383
:101BD000DF91CF911F910F91FF90EF90DF90CF9009
:101BE000BF90AF909F908F90089525E530E0A901B8
:101BF000481B590BCA019A01220F331F280F391FA6
:101C000037FFBCCF2F5F3F4FB9CF0F931F93CF93B9
:101C1000DF93C9E6D2E0FE01118210821282339670
:101C200082E0E939F807C1F710E000E0809167022F
:101C3000082E000C990B081719078CF180911C01D4
:101C4000082E000C990B801791074CF19E014091D2
:101C50009C0260919B0280919A020E94BF060F5FD6
:101C60001F4F23960031110509F70E940E0D809138
:101C70001B0190916702980F9093670220911C01BD
:101C8000280F20931C01121614F49F301CF081952C
:101C900080931B01DF91CF911F910F9108951982BD
:101CA00018821A82DCCFCF92DF92EF92FF920F93CD
:101CB0001F93CF93DF93FC018281DD24DA9480FDB2
:101CC00002C0DD24D394C9E6D2E010E000E019821E
:101CD00018821A8294E0E92EF12CC12C80916602C0
:101CE0008C0D8131CCF18F70082E000C990B801770
:101CF000910791F480919C028E9DA0018F9D500DC3
:101D0000112455954795559547959E0160919B02E5
:101D100080919A020E94BF06CD0CF1E0EF1AF10803
:101D2000E9F60F5F1F4F23960031110581F60E94DF
:101D30000E0D8091660291E0D91214C0811110C07D
:101D40008FE080936602DF91CF911F910F91FF90FA
:101D5000EF90DF90CF90089587FFC6CF805FC4CF0C
:101D60008150EFCF90E001968F709927EACFEF92E4
:101D7000FF921F93CF93DF93EC0189E6E82E82E078
:101D8000F82E10E08C81970140919C0260919B029B
:101D9000810F0E94BF06115F83E0E80EF11C103F27
:101DA00089F70E940E0D9A818C8190FF08C08F5F89
:101DB0008C83DF91CF911F91FF90EF900895815018
:101DC000F7CF9091990290FF0CC0E9E6F2E0818391
:101DD00060834283339692E0E939F907C1F70C94A6
:101DE0000E0D08950F931F93CF93DF9300D00F92A2
:101DF000CDB7DEB78C018091680281110AC09E01C7
:101E00002F5F3F4F4FEF6FEF0E94BF068A81809395
:101E10006802F8016481613069F08091680240E0F5
:101E2000662361F040E0623011F44091680280E086
:101E300060E004C06091680240E080E00E94E10E32
:101E4000F801848190E0019663E070E00E947029BF
:101E500084830F900F900F90DF91CF911F910F917E
:101E60000895CF93DF9300D00F92CDB7DEB7909156
:101E7000990290FF0AC09E012F5F3F4F0E94BF064C
:101E80004B8169818A810E94E10E0F900F900F9023
:101E9000DF91CF910895CF93DF93EC01E9E9F2E070
:101EA000438162818C810E94310F8C818F5F8C8392
:101EB000DF91CF910895CF93DF93EC01EC81F0E0B7
:101EC000E557FC4F4491E9E9F2E0628181810E948B
:101ED000310F8C818F5F8C83DF91CF910895CF93E9
:101EE000C82F882309F4AFC08238C1F40E942E069F
:101EF00081FDA9C089E30E94EB0A0E947B0A2FEFB3
:101F000081EE94E0215080409040E1F700C0000055
:101F100089E30E94C00ACF910C947B0A8338A1F414
:101F20000E942E0680FD8FC083E50E94EB0A0E946E
:101F30007B0A2FEF81EE94E0215080409040E1F742
:101F400000C0000083E5E5CF8438A1F40E942E068E
:101F500082FD79C087E40E94EB0A0E947B0A2FEF82
:101F600081EE94E0215080409040E1F700C00000F5
:101F700087E4CFCF8CEF8C0F813A90F580911E01D2
:101F8000882301F18091AA0287FF1CC0EC2FE695FF
:101F9000E695E695F0E0E056FE4F828190E04C2F0A
:101FA000477021E030E002C0220F331F4A95E2F76C
:101FB00082239323892B81F08C2F0E94C00A0E94D8
:101FC0007B0A0AC0E2EAF1E088EA91E02191C217B7
:101FD00099F38E179F07D1F78C2F0E94EB0A9BCFA6
:101FE00080E28C0F883068F4C77021E030E001C0D7
:101FF000220FCA95EAF780912002822B809320025B
:102000008ACFEBE5EC0FE33040F4F0E0E15EFE4F09
:10201000808190E0CF910C941806E8E5EC0FE73151
:1020200050F4F0E0EE0FFF1FEE5DFE4F80819181D6
:10203000CF910C940206C03F30F08C2F0E943708DD
:10204000CF910C945507CF9108951F93CF93DF93B1
:10205000182FD0E0C0E0893311F4C0E5D0E0812F23
:102060000E946F0F209731F4812FDF91CF911F9144
:102070000C94F40B8FE99FE00197F1F700C000008A
:102080002197F0CF0F931F93CF93DF93C62FD42FB9
:10209000022FFC0182818823A1F06093E0020E945C
:1020A000F6059093DF028093DE02C77081E001C0E5
:1020B000880FCA95EAF7DF91CF911F910F910C9489
:1020C000EA0B8091E002681335C08091DE029091A6
:1020D000DF020E94E705883C910560F510E21D0FC4
:1020E000CD17B9F080E28C0F883040F4C77081E0E2
:1020F00001C0880FCA95EAF70E94DF0B183048F438
:1021000081E09D2F977001C0880F9A95EAF70E9491
:10211000EA0B802F0E942510183098F4D77081E0C8
:1021200001C0880FDA95EAF7DF91CF911F910F91E7
:102130000C94DF0BC77081E001C0880FCA95EAF7E5
:10214000F3CFDF91CF911F910F910895CF93DF933C
:10215000C7E2D3E060E0CE010E94F8292196C115C4
:1021600084E0D807B9F7DF91CF9108956F927F92FD
:102170008F929F92AF92BF92CF92DF92EF92FF9297
:102180000F931F93CF93DF938BE8C82E84E0D82E54
:1021900007E011E0E801C05CD10936011CC0F5017F
:1021A00085909490692DC7010E94F829682DC70178
:1021B00001960E94F82982E0A80EB11C82E0E80E88
:1021C000F11CCE15DF0559F780E2680E711CA09650
:1021D0000C171D0731F07E0180E2E81AF108530167
:1021E000DECF00541F4F80ECC80ED11C073084E0B6
:1021F000180781F6DF91CF911F910F91FF90EF901B
:10220000DF90CF90BF90AF909F908F907F906F9016
:102210000895CF93C82F6FEF811161E283E290E0C0
:102220000E94F8296FEFC11169E084E290E00E94FA
:10223000F8296FEFC11166E085E290E0CF910C9430
:10224000F82980E00E94091160E086E290E00E9497
:10225000F8290E94B6100E94A61081E00C94091182
:10226000682F86E090E00C94F829CF93C92F682F4F
:1022700084E090E00E94F8296C2F82E290E0CF91F8
:102280000C94F8299091AB0292FB222720F9281791
:1022900051F080FB92F99093AB028091AA02909149
:1022A000AB020C94351108950F931F93CF93DF93D6
:1022B00020E2629FE001112450E0440F551FC40F3B
:1022C000D51F30EC839FC00DD11D1124CE01879600
:1022D0000E94E429082F10E0102F0027CE018896D5
:1022E0000E94E4299801282BC901DF91CF911F9109
:1022F0000F910895462F843038F4763028F46031F9
:1023000018F4672F0C94541190E080E00895CF9258
:10231000DF92FF920F931F93CF93DF936C01009195
:10232000E10280912202082BC7E0D0E010E0FC2EF1
:10233000C8010C2E02C0959587950A94E2F780FD9E
:102340000CC02197A0F7F12C8F2DDF91CF911F9119
:102350000F91FF90DF90CF900895B6018C2F0E94CF
:102360007A110E94ED08019761F3EECFCF93DF93CE
:10237000EC010E948711BE010E947A11DF91CF917A
:102380000C94ED08FC01808191810E94B611292FE7
:102390002F7092959F7092509E3078F4E92FF0E064
:1023A000E059F44D0C94A629803F19F020F4883EA2
:1023B00020F481E00895843FE1F380E00895883EB1
:1023C000C0F3813FD1F7F5CF822F8695869586950C
:1023D000089583E290E00E94E429813289F484E246
:1023E00090E00E94E429893059F485E290E00E944F
:1023F000E42991E0863009F090E0892F81700895FA
:1024000080E0FCCFCF9384E090E00E94E429C82FC5
:1024100082E290E00E94E429982F8C2FCF910895BA
:1024200060919902669570E04BE050E080E191E0A8
:102430000E94542B892B19F481E0809365020E943D
:10244000F60590935F0280935E020895CF92DF922B
:10245000EF92FF926B017C010E94B006B701A601CA
:1024600088E090E0FF90EF90DF90CF900C940A2AE4
:102470007F928F929F92AF92BF92CF92DF92EF9214
:10248000FF920F931F93CF93DF9300D00F92CDB79E
:10249000DEB7182FD62E042FC22E9091990290FFEE
:1024A00029C0E92FE695AE2FB0E0AA59BE4F8C9116
:1024B000809364029E7F923071F59E012F5F3F4FA3
:1024C000812F0E94BF064B8169818A810E94E10EA3
:1024D00010939A02D0929B0200939C02CC2051F060
:1024E0006091990270919A0280919B0290919C0256
:1024F0000E9426120F900F900F90DF91CF911F91A5
:102500000F91FF90EF90DF90CF90BF90AF909F9092
:102510008F907F900895823019F400919C02D8CF5B
:10252000863019F410919A02D3CF8930D9F38931CA
:1025300079F6E9512E2F2170722EE695F0E0EA57D8
:10254000FC4F85909490992439E6E32E32E0F32EE7
:10255000B12CA12CC50124E0969587952A95E1F729
:10256000711013C0810F9701402F6D2D0E94BF067F
:10257000A80CB91C83E0E80EF11C29E9E21622E060
:10258000F20641F70E940E0DA3CF212F281B822FA8
:10259000EACFE9E9F2E0438128E0421B08F440E099
:1025A00021E0628181810C943812E9E9F2E04381F3
:1025B00028E0420F08F44FEF21E0628181810C9402
:1025C0003812E9E9F2E0628128E0621B08F460E079
:1025D00021E0438181810C943812E9E9F2E06281C3
:1025E00028E0620F08F46FEF21E0438181810C94B1
:1025F0003812E9E9F2E0818121E04381628188506B
:102600000C943812E9E9F2E0818121E04381628192
:10261000885F0C94381280919D02882319F08150B4
:1026200080939D026091990270919A0280919B0221
:1026300090919C020C94261280919D02833018F494
:102640008F5F80939D026091990270919A028091B0
:102650009B0290919C020C9426129091990290FFFB
:1026600036C09170811129C09260909399026623BF
:1026700051F06091990270919A0280919B02909121
:102680009C020E94261260919902669570E04BE0D0
:1026900050E080E191E00E94542B892BA9F0109228
:1026A000650281E08093610220E040919C0260918C
:1026B0009B0280919A020C943812853210F0986433
:1026C000D4CF880F982BD1CF0E941012EACF089553
:1026D000809199028695815009F484E261E00C941E
:1026E0002D138091990286958F5F853208F081E0E5
:1026F00061E00C942D139091990290FF07C096957C
:10270000981720F0961710F40C94711361E00C9454
:102710002D13E9E9F2E083E0808311828FEF828359
:102720008383148260817181828193810C9426124B
:1027300069EE7EEF90E080E00E94162A60E082E081
:1027400090E00E94F82960E083E090E00E94F82980
:102750001092220260E084E090E00E94F82960E09C
:1027600082E290E00E94F82960E085E090E00E941B
:10277000F82960E086E090E00E94F8296FEF87E09A
:1027800090E00E94F82940E050E0BA0188E090E033
:102790000E940A2A60E08DE090E00E94F82940E063
:1027A00050E0BA0188E190E00E940A2A60E087E1E7
:1027B00090E00E94F82940E050E0BA018CE190E0FE
:1027C0000E940A2A70E060E080E290E00E94162AEF
:1027D00040E050E0BA0188E190E00E940A2A80E0DF
:1027E0000E9409110E94211140E050E0BA018FE0DF
:1027F00090E00E940A2A40E050E0BA0183E190E0B4
:102800000C940A2A2F923F924F925F926F927F927E
:102810008F929F92AF92BF92CF92DF92EF92FF92F0
:102820000F931F93CF93DF93CDB7DEB72C970FB6DF
:10283000F894DEBF0FBECDBFAE014F5F5F4F6A01A0
:102840008CE0DA011D928A95E9F700E511E07A0142
:10285000AA24A394B12CF80181918F018F3F09F430
:102860004BC0F894E82FE295EF70F0E021A18F7053
:10287000A50102C0440F551F8A95E2F7CA01922FA5
:10288000982B91A392A18095892382A3789400C06C
:10289000E6E5F1E030E020E0912C812C81918F3F42
:1028A00009F4ACC0A82FA295AF70B0E090964C91FF
:1028B00050E08F7002C0559547958A95E2F740FD2C
:1028C0009DC0C501022E02C0880F991F0A94E2F72D
:1028D000882A992A2F5F3F4F20313105F9F6F801F8
:1028E000319780818F3F11F00E94930850EA5A95EA
:1028F000F1F7D7018D929C92B2E0EB0EF11CE1E072
:1029000006351E0709F0A7CF4CE050E0B60188E27B
:1029100092E00E94612B8C01FF24F394892B09F42F
:10292000F12C0115110541F08CE0F601A8E2B2E0AE
:1029300001900D928A95E1F750902502552009F4F7
:102940006AC00E94F6052091230230912402AC0156
:10295000421B530B9A0190932402809323024F3F12
:10296000510511F008F04DC0452B09F444C0E22E8A
:10297000109225022091260230912702E5E4F2E030
:1029800068E272E0390150E6650E711C412C882422
:102990008394912C190150E040E0D101DD901D019C
:1029A000DD20D1F0CD010197ED1470F1DC011C9216
:1029B000C080D180DB018D919C918C259D25540197
:1029C000042E02C0AA0CBB1C0A94E2F78A219B21A8
:1029D0008C259D25918380834F5F5F4F403151054A
:1029E000E1F6205F3F4F32966E5F7F4F62167306AF
:1029F00089F640922502012BB1F44DC090E080E0B1
:102A000067CF2FEF30E0B3CFDE18DC01DC92452C2E
:102A1000E3CF108233C0012BF1F10E94F6059093B1
:102A20002402809323022091260230912702609194
:102A30002502A8E2B2E085E4C82E82E0D82EAA24BE
:102A4000A394B12C75E04D915D91F6018191919126
:102A50006F0148275927F90190E080E08501082E91
:102A600002C0000F111F0A94E2F704231523012B63
:102A700081F21081111102C0708361E031960196DC
:102A80008031910559F7205F3F4FF2E0A433BF0733
:102A9000D1F6609325028F2D2C960FB6F894DEBFE9
:102AA0000FBECDBFDF91CF911F910F91FF90EF909F
:102AB000DF90CF90BF90AF909F908F907F906F905E
:102AC0005F904F903F902F90089590E080E00E949B
:102AD000F229893E9E4F11F40C94E91180E008958B
:102AE0000E94651581110AC00E94981380919E0270
:102AF0008470896280939E020E94301186E090E08B
:102B00000E94E42980939E02803320F087708862BF
:102B100080939E0290919E02892F817090FF04C045
:102B2000892F8695869586950C943A0610922002F8
:102B300080911E01E2EAF1E0882359F08091AA0217
:102B400087FF07C08EE1DF011D928A95E9F70C949B
:102B50007C0B86E0F8CF1F93CF93DF93CDB7DEB722
:102B6000AA970FB6F894DEBF0FBECDBF86ED92E0F8
:102B70002091F100DC012D93CD01B2E08E3D9B0749
:102B8000B9F78091D702833009F471C0B8F481306D
:102B900009F448C0823009F4B2C08091E80083FF94
:102BA00088C28091D6029091D7029A3008F081C2F3
:102BB000E92FF0E0E258F44D0C94A6298A3009F48C
:102BC0008DC08B3009F470C0893039F78091D602FE
:102BD000813219F78091DA029091DB02009711F0AF
:102BE0000297D9F68091E800877F8093E800809172
:102BF000E80082FF37C09091F3008091F2000297C5
:102C000029F48091F1008B7F813021F48091F100D3
:102C10008093B1028091E8008B778093E8000E9456
:102C2000D404BBCF8091D602813A09F0B6CF80910F
:102C3000E800877F8093E8008091DA029091DB02C0
:102C4000892B61F460E282EB92E070E00E948605DD
:102C50008091E8008B778093E8009FCF60E090E060
:102C600080E0F3CF8091D4028111C1CF96CF8091C3
:102C7000D602813A09F091CF8091DA029091DB027D
:102C8000892B09F08ACF8091E800877F8093E80044
:102C90008091E80080FFFCCF80911E018093F100BD
:102CA0008091E8008E77B9CF8091D602813209F009
:102CB00074CF8091DA029091DB02892B09F06DCFFD
:102CC0008091E800877F8093E8000E94D40480917F
:102CD000D80280931E010E9496155FCF8091D60284
:102CE000813209F05ACF8091E800877F8093E80015
:102CF0000E94D4048091D9028093B0024ECF80917B
:102D0000D602813A09F049CF8091E800877F80930D
:102D1000E8008091E80080FFFCCF8091B002BECF38
:102D2000803899F0823809F0C4C18091DA028F703E
:102D3000873008F0BEC18093E9008091EB0085FBED
:102D4000882780F91092E90006C08091D202909104
:102D5000D302911182609091E800977F9093E800F0
:102D60008093F1001092F1008091E8008E779DC170
:102D7000882309F48BC1823009F09BC18091D8026D
:102D800081118EC18091DA028F702FEF280F2630CB
:102D900008F08FC18093E9002091EB0020FF80C1F3
:102DA000933031F48091EB0080628093EB0078C126
:102DB0009091EB0090619093EB0021E030E001C036
:102DC000220F8A95EAF72093EA001092EA00809198
:102DD000EB008860EACF81116CC11091D8021F7797
:102DE0008091E3008078812B8093E3008091E8005C
:102DF000877F8093E8000E94D4048091E80080FFE0
:102E0000FCCF8091E30080688093E30082E01111A1
:102E100083E08093D4024DC18058823008F049C1CC
:102E20002091D8023091D9022C3DE3E03E07A1F574
:102E300083E08A838AE289834FB7F894DE01139690
:102E400020E03EE051E2E32FF0E050935700E491A0
:102E500020FF03C0E295EF703F5FEF708E2F90E090
:102E6000EA30C0F0C7968D939D932F5F243159F7B8
:102E70004FBF8091E800877F8093E8006AE270E0AE
:102E8000CE0101960E9486058091E8008B778093A1
:102E9000E8000FC1C096E7CF8091DA029091DB0283
:102EA000432F55274330510509F44AC078F5413086
:102EB000510509F47AC08BE590E0EBE8F7E0423089
:102EC000510509F0F6C02091E800277F2093E80023
:102ED0002091DC023091DD028217930708F49C01F7
:102EE00040E02115310509F065C0411163C08091B2
:102EF000E80082FDC9CF8091D402882329F2853071
:102F000019F28091E80083FFF2CFBECF4132510524
:102F100009F43CC04232510509F0CBC08330910521
:102F200008F0C7C0FC01EE0FFF1FE257FE4F0190F3
:102F3000F081E02D85579E4FDC018C9190E01AC006
:102F4000332721303105D1F02115310561F02230D0
:102F5000310509F0AEC0E8EFF7E0E4918E2F90E084
:102F6000E8EFF7E007C0EEE1F8E0E4918E2F90E0A3
:102F7000EEE1F8E0009709F49CC0A5CFE6E0F8E0A8
:102F8000E4918E2F90E0E6E0F8E0F4CF83309105F5
:102F900008F08FC0880F991FFC01EC56FE4F01907E
:102FA000F081E02D89E090E08ECF82E190E0E6EEC6
:102FB000F7E089CF8091D402882309F465CF85306A
:102FC00009F462CF8091E80083FD5ECF8091E80034
:102FD00082FD8DCF8091E80080FF83CF9091F30038
:102FE0008091F2002115310519F08830910550F0DB
:102FF00041E0089709F040E08091E8008E778093E7
:10300000E8006FCF44914093F1003196215031098F
:103010000196E8CF803809F04CC08091E800877FA6
:103020008093E8008091D5028093F1009DCE8111BC
:1030300040C01091D8021230E0F58091E800877FFF
:103040008093E8001093D5020E94D404112311F05C
:1030500084E005C08091E30087FDFACF81E0809392
:10306000D40242E061EC81E00E94F30442E261ECB0
:1030700084E00E94F30442E261EC82E00E94F304E7
:1030800042E260EC83E00E94F30413C08091D80216
:10309000813079F481E0933009F080E08093D302AD
:1030A0001092E9008091E800877F8093E8000E94F9
:1030B000D4048091E80083FF0AC08091E800877FF4
:1030C0008093E8008091EB0080628093EB00AA96E9
:1030D0000FB6F894DEBF0FBECDBFDF91CF911F9129
:1030E00008953F924F925F926F927F928F929F923C
:1030F000AF92BF92CF92DF92EF92FF920F931F9306
:10310000CF93DF9300D000D00F92CDB7DEB78C0104
:10311000FC0183819481892B31F080819181892305
:103120008F3F09F0CCC50F900F900F900F900F902C
:10313000DF91CF911F910F91FF90EF90DF90CF9093
:10314000BF90AF909F908F907F906F905F904F90C7
:103150003F9008950E948711F82E682F89819A81E7
:103160000E94500B69817A818F2D0E947A117C0117
:10317000F8018281882309F42CC5C70182519F453B
:10318000409708F05AC58FEF93E00E94E429FEEEC5
:10319000EF0E57E2852E53E0952E882381F1809122
:1031A0001D02877009F4BFCFF8018281882309F4DA
:1031B000BACF82E00F900F900F900F900F90DF9199
:1031C000CF911F910F91FF90EF90DF90CF90BF9024
:1031D000AF909F908F907F906F905F904F903F90B7
:1031E0000C94B40B811424E09206C9F2C4010E942D
:1031F000E429811101C0EA943FEF831A930AE11098
:10320000F1CF1C821B82442443944AE0342E740183
:103210008FEFE81AF80AC4010E94E42989831A8210
:10322000882309F4BCCF9FEF980F933000F58A8371
:10323000498292E0890E911CC7010E94E4298B8388
:10324000882309F4ACCFFE0131967F01F70120817C
:103250002223E9F2213009F049C091818281913025
:1032600041F4F2E0EF0EF11C0E94251009C0470165
:10327000EACF923049F422E0E20EF11C0E946F0F77
:103280003FEFE31AF30AE2CF933031F432E0E30E7A
:10329000F11C0E94F40BF4CF943021F08FEFE81A68
:1032A000F80AEECF92E0E90EF11C30E020E0B70121
:1032B0006F5F7F4FF70141818053990B8A309105F1
:1032C00050F021503109E0F28FE99FE00197F1F7CA
:1032D00000C00000F6CF329EF001339EF00D1124A5
:1032E0009C012E0F3F1F842F7B01E1CFE22FF0E0E6
:1032F000EC50FE4F5490822F86958695869590E0EF
:10330000FC01EC51FE4F64902770712C022E02C01C
:10331000759467940A94E2F7E1E06E227724FC0149
:10332000EC52FE4FA490B12C022E02C0B594A7948B
:103330000A94E2F7F1E0AF22BB24FC01EC53FE4F0C
:10334000C490D12C02C0D594C7942A95E2F721E00D
:10335000C222DD246114710419F081EE0E946F0F06
:10336000A114B10419F086EE0E946F0F852D0E9402
:103370002510AB2819F086EE0E94F40B672819F08F
:1033800081EE0E94F40BCD2809F47ACF8CE26CCF49
:1033900081E00E94D00B0E949D0B01CF81E00E9432
:1033A000A80BF9CF82E0F5CF82E0F9CF2FEBE21640
:1033B0002CE5F20609F455C008F43FC080ECE8168D
:1033C0008CE5F80609F05AC490919E02892F8695E3
:1033D000869586958F5F8F719770863008F059C0FB
:1033E000880F880F880F892B80939E0280919E0200
:1033F00010C085E00E94940680919E020E943011C8
:10340000CECE80919E02982F987F79F0885080933D
:103410009E02887F91E009F490E080919E0290FBEB
:1034200080F980939E020E94301180919E028695C1
:10343000869586950E943A06B2CE80919E02982F7C
:10344000969596959695953040F49F5F990F990FB4
:10345000990F8770892B80939E0280919E028160D4
:10346000E0CF80919E0280FF07C08E7F80939E02F6
:103470000E94301180E0DECF80FD91CE816080938C
:103480009E02813019F489E080939E0280919E0211
:10349000CACF90939E02AACF27E245EE65EE0BC4F9
:1034A00026E241EE60EE07C427E245EE64EE03C477
:1034B00026E241EE62EEFFC328E241E0EFCF8091C9
:1034C000AA02806136E0E3163CE5F30609F492C0F7
:1034D00008F497C08091AA0280628CC08091AA02F1
:1034E0008D7F9CE0E9169CE5F90609F483C078F429
:1034F0008091AA028C60FAE0EF16FCE5FF0609F461
:1035000079C008F48AC08091AA028E7F73C080912E
:10351000AA02877F3EE0E3163CE5F30609F46AC0A1
:1035200008F481C08091AA028F7E64C09BEFE916E7
:103530009CE5F90609F469C068F5F3E1EF16FCE5CE
:10354000FF0609F480C090F431E1E3163CE5F30690
:1035500009F475C082E1E8168CE5F80609F0FEC4AE
:103560000E9496158091AA028F7744C095E1E916D2
:103570009CE5F90609F46FC008F483C08091AB02A2
:103580008160FAEFEF16FCE5FF0609F0E7C48093CF
:10359000AB02E4C42FEFE2162CE5F20609F457C0A3
:1035A00090F48DEFE8168CE5F80609F440C08091A0
:1035B000AB028E7F9EEFE9169CE5F90640F3809101
:1035C000AB028360E4CFE1E0EE16EDE5FE0609F420
:1035D00061C008F44CC060E022E0E2162DE5F2067E
:1035E00009F0BCC48EE090E00E94F829B7C4809135
:1035F000AA0281608093AA02B1C48091AA02846069
:10360000F9CF8091AA028860F5CF8091AB028260E9
:10361000BECF8091AA028064EDCF0E949615809162
:10362000AA028068E7CF8091AA028B7FE3CF8091C6
:10363000AB028D7FACCF8091AA028F7DDBCF8091D2
:10364000AA028F7BD7CF8091AA02837FD3CF8091AC
:10365000AB028C7F9CCF8091AA0282FB992790F9C4
:1036600021E0922790FB82F990FB83F9C3CF8091F0
:10367000AB02982F909591708E7F892B90FB81F9EA
:1036800086CF0E9496159091AA02892F97FB87F901
:103690008058B0CF61E0A6CF8091200236E1E316DA
:1036A0003CE5F30609F01CC38A7A91E009F490E046
:1036B0009093C001811106C089E20E94EB0A0E942A
:1036C0007B0A6DCD85E3F9CF85E3B4C28091990281
:1036D00080FF1BC08E7F8093990260919902709148
:1036E0009A0280919B0290919C020E942612109255
:1036F00065028FEF90E7E2E081509040E040E1F713
:1037000000C000000E940E0D4ACD81608093990296
:1037100061E086950E942D1342CD48E653E161E7B2
:1037200073E10E94AA063BCD41E753E168E673E1ED
:10373000F8CF42E053E169EF72E1F3CF41EE52E19D
:103740006DEE72E1EECF49EC52E165ED72E1E9CF49
:1037500045ED52E169EC72E1E4CF4CE153E16BE0FD
:1037600073E1DFCF61E081E0D5CF65E082E00E94C8
:103770007B1315CD68E086E0FACF64E18FE0F7CFE8
:1037800067E185E1F4CF62E289E1F1CF61E083E2B4
:10379000C1CF9BE5E9169DE5F90611F1ECE5EE16C2
:1037A000EDE5FE0609F0CEC28091AB0282FB8827D0
:1037B00080F991E089270E944211C4C20E949615A7
:1037C000FFEF24E33CE0F15020403040E1F700C03F
:1037D00000000E94EA0C0E949813E1CC81E0EBCF3C
:1037E00080E0E9CFC7010E94290BD82EBAC22F2D45
:1037F0002F70C22E8F2D807F19F0C29490EFC922B6
:10380000DD20C9F0CC2069F080E28E0D883010F008
:1038100081100BC080912002C82AC09220020E9411
:103820007B0A8E2D0E946F0F19C080911F02C82A3B
:10383000C0921F02F4CF8E2D0E94F40BCC2071F0A9
:10384000C09480E28E0D883010F081103FC08091CE
:103850002002C822C09220020E947B0A292D2850F3
:10386000330B2430310520F40E942E060E94510CA7
:10387000AA2009F458CC80911D0280FD54CCF80197
:1038800012828595859585950E94D00BC8010E946E
:10389000711880911D028595859585950F900F90E3
:1038A0000F900F900F90DF91CF911F910F91FF908C
:1038B000EF90DF90CF90BF90AF909F908F907F90D0
:1038C0006F905F904F903F900C94A80B80911F02D7
:1038D000C822C0921F02C0CF3F2D3F70B32E8F2D44
:1038E000807F803219F0B29480EFB822882071F086
:1038F00081E0881681F1DD20D9F1CC2091F1F80129
:10390000858180FF8ECF8F7085832BC0DD20B1F045
:10391000909121028B2D892BC11003C00E94EA0BCC
:103920009DCFE1E0CE12FACF2091AB0222FD96CFDF
:10393000891709F493CF8093210290CFC11006C05C
:103940000E94750A8B2D0E94DF0B88CFF1E0CF1605
:1039500009F484CFF5CFDD2031F025E02C1508F4F3
:103960007DCF8B2DDBCF34E03C1508F477CFEACF49
:10397000CC2041F3F9E38F1209C02FEF37EE83E03B
:10398000215030408040E1F700C000008E2D0E94A1
:10399000F40B64CF8F2D86958695837061F081300E
:1039A00009F05CCFC7019370D11002C090E080E0B5
:1039B0000E94020653CFC7019370D11002C090E05D
:1039C00080E00E9418064ACF8E2DDD2029F00E944B
:1039D00037080E94550742CF0E947C07FACF8F2DEF
:1039E000837091F5D1103ACF4E2D42954695477090
:1039F000440F440F8E2D8F70042E01C0880F0A943F
:103A0000EAF72E2D2071E4FE07C02FE030E001C060
:103A1000220F4A95EAF720953F2D3695369533705B
:103A2000323069F050F440912202313029F0822B7B
:103A300084230E94DB0B12CF842B822BFACF282BFE
:103A4000809122028227F5CF8695DD2011F08F2DFF
:103A50008170882309F402CF4E2D42954695477018
:103A6000440F440F8E2D8F70042E01C0880F0A94CE
:103A7000EAF72E2D2071E4FE07C02FE030E001C0F0
:103A8000220F4A95EAF720953F2D369536953370EB
:103A9000323069F050F44091E102313029F0822B4C
:103AA00084230E94990BDACE842B822BFACF282B09
:103AB0008091E1028227F5CF9F2D9F70F92EDD20A6
:103AC00029F0892F0E94D00B8E2D28CF8E2D0E9499
:103AD000DF0B8F2D0E94A80BC1CE8E2DE2EF8E162C
:103AE00009F44BC0E81570F0F0EF8F1639F121EFB3
:103AF0008216D9F1DD2009F45CC0C11092CE8F2D61
:103B00008F7138C033EF8316E9F194EF8912F2CF49
:103B1000DD2009F443C02F2D2F71F22E822F0E9439
:103B2000D00B8091AB0282FD07C038E0F39EC0014C
:103B30001124836080931D028F2D1CC0DD2081F035
:103B4000E4E0EC1508F48ACE2F2D2F7181E090E08F
:103B500001C0880F2A95EAF79091E1028927A1CF49
:103B6000F5E0FC1508F47ACEEFCF8F2D8F71DD20B4
:103B700009F4B0CF0E94D00B71CE8F2D8F71DD2054
:103B8000C9F3A8CF80E0DD2009F48BCF9F2D9F7172
:103B900081E001C0880F9A95EAF783CF81E00E9407
:103BA000B40B81E08C1508F059CE82E00E94B40B72
:103BB00055CECC2059F0893309F0E8CE9FEFE7EEDF
:103BC000F3E09150E040F040E1F7DECE8F2D8F71B1
:103BD00081CFF0E1EF16FFE5FF0609F4DFCB21E12D
:103BE000E2162FE5F20609F4DFCB83EFE8168CE549
:103BF000F80609F455CC08F0BAC1E8EDEE16ECE58C
:103C0000FE0609F449CCF9EDEF16FCE5FF0609F4D0
:103C100053CC27EDE2162CE5F20609F449C0F6E193
:103C2000EF16FCE5FF0609F08DC08091C0018111FF
:103C30004BCD89E20E94C00A42CD30E1E3163FE558
:103C4000F30609F4A5CB81E1E8168FE5F80609F43F
:103C5000A9CB8DEBE8168CE5F80609F4D2CB08F079
:103C6000A5CBEBEBEE16ECE5FE0609F4C2CB80E04B
:103C7000FCEBEF16FCE5FF0609F4BCCB23EFE216E4
:103C80002CE5F20609F40CCC08F01AC188EDE81610
:103C90008CE5F80609F400CC99EDE9169CE5F906E7
:103CA00009F40ACCE7EDEE16ECE5FE0609F016C1C4
:103CB00026E241EE61EEC8010E94421070CA85E022
:103CC000DE01119601900D928A95E1F7F8012281AB
:103CD00089819A8121113ECA0E94290BF82E42CA7D
:103CE00082722CECE2162CE5F20609F436CD08F0CF
:103CF000A7C096ECE9169CE5F90609F41ACD08F080
:103D000076C0F3ECEF16FCE5FF0609F406CD08F0EB
:103D10005DC032ECE3163CE5F30609F4D7CCFAE5D6
:103D2000EF16FDE5FF0609F459CD08F032CDE11498
:103D30003CE5F30609F442CD8EEDE8168CE5F80675
:103D400009F449CDF8018281E080F180882309F4EB
:103D500049CDC7010E948711D82E682FC7010E9444
:103D6000500BB7018D2D0E947A110E94ED087C0145
:103D7000882EF801D280C580C2943FE0C322809192
:103D80001D028770A1F0AD2CDD2091F08F2D807F7A
:103D9000803421F080E28E0D883048F082E00E946D
:103DA000B40B80911D028770AA24A3948111A12CC9
:103DB0009F2C92942FE09222FBE0F91508F44ECD4F
:103DC000E92DF0E0E857F44D0C94A62994ECE9169F
:103DD0009CE5F90609F4A8CC49EF52E162E073E1F1
:103DE000E5ECEE16ECE5FE0609F49BCC98CFF9EC79
:103DF000EF16FCE5FF0609F4A6CC88F437ECE316D1
:103E00003CE5F30609F49ACC4DEE52E161EE72E125
:103E100098ECE9169CE5F90609F483CC80CFEAEC2E
:103E2000EE16ECE5FE0609F493CC4BE053E16CE1B1
:103E300073E1FBECEF16FCE5FF0609F472CC6FCFE3
:103E400021EDE2162CE5F20609F497CCB8F48EECDD
:103E5000E8168CE5F80609F488CC08F483CCEFEC7E
:103E6000EE16ECE5FE0609F485CC6EE089E0F0ED97
:103E7000EF16FCE5FF0609F47ACC51CF24EDE216EB
:103E80002CE5F20609F47FCC78F482EDE8168CE597
:103E9000F80609F475CC61E088E193EDE9169CE53C
:103EA000F90609F437CC3BCFE5EDEE16ECE5FE065E
:103EB00009F46CCCFDE5EF16FF0609F470C92FCFAD
:103EC000F5EFEF16FCE5FF0609F4F2CA08F4ECCAB8
:103ED00036EFE3163CE5F30609F457C01092E00212
:103EE00092E0E9169CE5F90608F4D6CBE6E1EE1679
:103EF000ECE5FE0630F0C7018A5F9C45099708F0A3
:103F0000CBCB0E9402129093AB028093AA02F0E105
:103F1000EF16FCE5FF0609F48ECB08F007CB38E07E
:103F2000E3163CE5F30609F474CB08F0D7CA94E035
:103F3000E9169CE5F90609F460CB08F0C0CAF2E086
:103F4000EF16FCE5FF0609F452CB8091AA028260CD
:103F500023E0E2162CE5F20609F44CCB8091AA028C
:103F60009091AB020E9435110E94961518C935EF49
:103F7000E3163CE5F30609F49BCA08F495CA96EFEC
:103F8000E9169CE5F90609F04ACE27E245EE66EE11
:103F900092CE1F93CF93DF938091EA01807FA9F4A3
:103FA0008091E701882389F080911C02D091EB0178
:103FB0006091E5017091E601A091E801B091E901FD
:103FC000C62FC72316E0D81304C0DF91CF911F91ED
:103FD000089590E0109711F0CF3F19F40196877083
:103FE000F2CF189F9001199F300D1124F901E4516F
:103FF000FE4F41814713F2CF40814613EFCF4281FC
:104000004111ECCF438154814A1B5B0B483C510565
:1040100028F78091EA018F7080618093EA01F901AD
:10402000EF50FE4F80818F708061808385EE91E03C
:104030000E947118DF91CF911F910C941F0BAF92CA
:10404000BF92CF92DF92EF92FF920F931F93CF9385
:10405000DF93CDB7DEB761970FB6F894DEBF0FBE22
:10406000CDBF8C0185E0F801DE011D9601900D9217
:104070008A95E1F7F801E28085EEA82E81E0B82E5E
:104080006091E8017091E9016115710509F432C18F
:104090009091E5014091E601892F84238F3F09F437
:1040A00029C120813181C380D480F090E701F601DD
:1040B000E61BF70BFF2009F4E8C08091EA01582FB6
:1040C000507FE83CF10508F0ABC0511177C0FE2CE1
:1040D000431321C092131FC0E1101DC08F70806177
:1040E0008093EA01C5010E9471188091EA01F801EC
:1040F00085838F2D61960FB6F894DEBF0FBECDBFBE
:10410000DF91CF911F910F91FF90EF90DF90CF90B3
:10411000BF90AF900895CD2829F0822F83238F3F41
:1041200009F003C180E0F82FF170DF2E80FF3CC062
:1041300080911C024091EB0156E0841315C02D873D
:104140003E878D859E850E94B611292F22952F705E
:104150002230F0F0243018F59F70F1F0F8019581CD
:10416000907FD1F4D12C1EC090E0589FF001599F50
:10417000F00D1124E451FE4F6181361306C06081B9
:10418000261303C06281E6120FC001968770D5CF57
:104190009F7011F0882331F3805E883018F3C801D6
:1041A0000E947118FD2CA5CFEE2009F4A2CF8091BA
:1041B000EA0181608093EA01F12C9BCF431306C092
:1041C000921304C0F801EE2009F479C0C8010E94DE
:1041D000C211882309F1EE20F9F08091EA018032C2
:1041E00070F02091E5013091E60138872F83198620
:1041F000DB86CA868C87CE0107960E94711886E0FE
:10420000F801A5EEB1E001900D928A95E1F70E94C8
:10421000C91FFF24F3946DCFC8010E947118F9CF14
:1042200051110AC085EE91E00E94711886E0F501F7
:1042300011928A95E9F7C0CF43130FC092130DC0B6
:10424000E1100BC0F8018583C8010E94711886E057
:10425000F50111928A95E9F74CCFC8010E94C2116D
:104260008823D1F2EE20C1F28091EA01803238F247
:104270002091E5013091E6013A8329831B82DD829A
:10428000CC828E83CE010196B8CFE83CF105F8F6DA
:10429000FE2CEE2009F243131FC092131DC0809123
:1042A000EA0180FD10C0982F907F69F0F8018583A6
:1042B000903F31F0982F907F905F8F70892B85838E
:1042C000C8010E94711886E0F801A5EEB1E00190E6
:1042D0000D928A95E1F70DCFC8010E94C21181119C
:1042E0008ECF8091EA0181608093EA01C8010E942B
:1042F0007118FFCEEE2009F48FCFC8010E94C211C1
:10430000F82E882309F488CF86E0F801A5EEB1E005
:1043100001900D928A95E1F78091E5019091E60177
:104320000E94B6110E94C91FE4CE81E08E25FBCE0B
:104330001F93CF93DF93CDB7DEB767970FB6F8948F
:10434000DEBF0FBECDBF4B8B5C8B6D8B7E8B8F8B9F
:10435000611110921F021A8A198A85E0FE01739674
:10436000DE011D9601900D928A95E1F786E0FE012F
:104370003D96DE01179601900D928A95E1F7CE01E8
:1043800007960E941F20811112C086E0FE01379619
:10439000DE01119601900D928A95E1F78A859B8541
:1043A000892B29F088859F8189238F3FB1F516E0FD
:1043B00080911C029091EB0189131DC067960FB686
:1043C000F894DEBF0FBECDBFDF91CF911F9108954E
:1043D00096E0929FD001939FB00D1124A451BE4F3F
:1043E000FE01319601900D929A95E1F78093EB01D1
:1043F0000E941F0BDCCF819FC001112484519E4F6E
:104400000E941F208823D1F280911C0290E0019627
:104410008770992780931C02CBCF2091EB0130E06D
:10442000C90101968770992740911C024817190607
:1044300079F60E9496151092EB0110921C0286E00C
:10444000E5EEF1E0DF011D928A95E9F7B0CF1F920A
:104450000F920FB60F9211242F933F934F935F93B8
:104460006F937F938F939F93AF93BF93CF93DF937C
:10447000EF93FF93D091E900DF708091EC00C82F9B
:10448000C17080FDC0E81092E9008091F000877F44
:104490008093F00078940E94AB151092E90080910F
:1044A000F00088608093F000CD2BCF70C093E900BE
:1044B000FF91EF91DF91CF91BF91AF919F918F913C
:1044C0007F916F915F914F913F912F910F900FBE10
:1044D0000F901F9018951F920F920FB60F921124F4
:1044E0002F933F934F935F936F937F938F939F93FC
:1044F000AF93BF93EF93FF938091E10082FF09C0D8
:104500008091E20082FF05C08091E1008B7F809363
:10451000E1008091DA0080FF24C08091D80080FF04
:1045200020C08091DA008E7F8093DA008091D900DC
:1045300080FF9BC080E189BD82E189BD09B400FE96
:10454000FDCF81E08093D4028091AF02811109C038
:104550000E945A040E9425058091E20084608093A5
:10456000E2008091E10080FF17C08091E20080FFAF
:1045700013C08091E2008E7F8093E2008091E20080
:1045800080618093E2008091D80080628093D8009F
:1045900019BC85E08093D4028091E10084FF29C09A
:1045A0008091E20084FF25C080E189BD82E189BD60
:1045B00089B5982F917080FFFBCF8091D8008F7DB7
:1045C0008093D8008091E1008F7E8093E1008091FC
:1045D000E2008F7E8093E2008091E2008160809310
:1045E000E2008091D502882309F445C084E08093DD
:1045F000D4028091E10083FF27C08091E20083FF15
:1046000023C08091E100877F8093E10082E0809366
:10461000D4021092D5028091E1008E7F8093E10058
:104620008091E2008E7F8093E2008091E2008061C1
:104630008093E20042E060E080E00E94F304809119
:10464000F00088608093F000FF91EF91BF91AF91EF
:104650009F918F917F916F915F914F913F912F919A
:104660000F900FBE0F901F90189519BC1092D40296
:104670001092AF0276CF8091E30087FD93E0909394
:10468000D402B7CF78941F921FB61F9211248F9334
:104690009F93AF93BF938091A6029091A702A091A0
:1046A000A802B091A9020196A11DB11D8093A60296
:1046B0009093A702A093A802B093A902BF91AF91D3
:1046C0009F918F911F901FBE1F9018951F921FB62C
:1046D0001F9211248F939F93AF93BF938091A50254
:1046E000811113C08091A6029091A702A091A80207
:1046F000B091A9024196A11DB11D8093A60290938D
:10470000A702A093A802B093A902BF91AF919F9175
:104710008F911F901FBE1F901895CDB7DEB7AA9737
:104720000FB6F894DEBF0FBECDBF84B7877F84BFBE
:104730000FB6F894A895809160008861809360001E
:10474000109260000FBE80E890E00FB6F89480935E
:104750006100909361000FBE85B7806885BF85B703
:10476000806885BF81E998E090939B0180939A01CE
:104770000E945A040E9425058091E2008460809383
:10478000E20078948091D4028823A1F01091E9008E
:104790001F709091EC00892F817090FD80E8182B9C
:1047A0001092E9008091E80083FD0E94AB151F7014
:1047B0001093E90082E084BD93E095BD9AEF97BD28
:1047C00080936E000E94E911811102C00E942111A4
:1047D00000E511E0F80181918F018F3F11F00E94F7
:1047E0009308F1E006351F07A9F706E511E0F80187
:1047F00081918F018F3F11F00E949308F1E00636FE
:104800001F07A9F7E8E2F2E0A5E4B2E011921192E5
:104810001D921D9222E0E433F207C1F780E690E09A
:104820000E942C2AAC01909327028093260230E04C
:1048300020E0FA01E20FF31F90E111929150E9F7A5
:10484000205F3F4F20363105A1F70E946515811189
:1048500002C00E94981382E090E00E94E4298093B5
:1048600038020E9402129093AB028093AA020E9427
:1048700002148FE39CE90197F1F700C000000E9449
:1048800002148091450280FF08C06FEF7FEF90E037
:1048900080E00E94162A0E94EA0C83E090E00E94C9
:1048A000E4290E94DB0B229A2A9A269A2E9882E209
:1048B0008093800089E1809381008FEF9FEF909338
:1048C0008700809386000E9470150E947015809169
:1048D0003402811133C00E946515811104C00E9409
:1048E00098130E94891388E090E00E94EC2960935D
:1048F000990270939A0280939B0290939C026E7F20
:1049000071F40E94891388E090E00E94EC29609382
:10491000990270939A0280939B0290939C020E944A
:10492000B006109265028091990280FF04C060E099
:1049300086950E942D1381E0809334028091AA0213
:1049400080688093AA028091AA029091AB020E9493
:10495000351186E091E09093A2028093A10230E4A9
:10496000232E8091D402FF24F39400E112E18530DC
:1049700009F406C20E940214882359F08FB7F894F4
:104980004091A6025091A7026091A8027091A902DD
:104990008FBF99E3C92E92E0D92E25E4622E22E042
:1049A000722E512C412CF301A190B1903F01F601E0
:1049B000E190F1906F01EA14FB04A9F1312C01E0C0
:1049C00010E0EA24FB244F01F2E08F1A9108C7019E
:1049D00080239123892B09F139A24AA221E0C50144
:1049E00080239123892B09F420E02BA30E94F60554
:1049F0008160782F9DA38CA349A15AA16BA18DA1A1
:104A00000E949821F40180819181802791279183D0
:104A100080835394FBE0F515E0F03394000F111FF1
:104A200020E13212D4CF439446E04412BCCF51105F
:104A300010C08FEF8EA38FA318A60E94F605816089
:104A4000782F9AA789A74EA15FA168A58AA50E9481
:104A50009821809165028823D1F180916402E091D0
:104A60009902E695E81BE0936002823009F0A7C145
:104A7000F0E0EE57FD4FE4910E2F10E0BBE5EB2E7A
:104A8000BFE0FB2E80916102882361F010926102E9
:104A90000E94F60590935F0280935E02109263027B
:104AA000109262020E94F605E0915E02F0915F02B0
:104AB0008E1B9F0B8F3F9F4750F4E00FF11FF09329
:104AC0005F02E0935E028EE592E0F701099586E0D1
:104AD000E8E5F2E0DE01119601900D928A95E1F78A
:104AE000F0905A02E0905B0210915C0200915D022E
:104AF00010925A0210925B0210925C0210925D02B8
:104B00008F2D8E2909F448C080915602909157024A
:104B10000E94E7059C0190915202992309F4B7C3C2
:104B200023333105C8F19F3F19F09F5F90935202E4
:104B3000FF2059F00E9417089FEF1F140CF491E01A
:104B4000899F802D112480935A02EE2059F00E94F3
:104B500017089FEF1E140CF491E0899F802D1124FB
:104B600080935B0230915A023323B1F020915B02B3
:104B7000222391F045EB3403C0011124992309F459
:104B800078C190935A0245EB2403900111243323FA
:104B900009F473C130935B02812F802B09F448C064
:104BA00080915402909155020E94E7059C019091DA
:104BB0005102992309F466C325363105C8F19F3F98
:104BC00019F09F5F90935102112359F00E94F5074D
:104BD0009FEF11160CF491E0899F802D1124809392
:104BE0005C02002359F00E94F5079FEF10160CF4A9
:104BF00091E0899F802D112480935D0230915C02A9
:104C00003323B1F020915D02222391F045EB340370
:104C1000C0011124992309F434C190935C0245EB3F
:104C2000240390011124332309F42FC130935D0232
:104C300080915A0290915B02892B90915C02892BA2
:104C400090915D02892B11F00E94550786E0FE01CC
:104C50003196A8E5B2E001900D928A95E1F70E94A5
:104C60002E0690913702891731F00E942E0680930C
:104C700037020E94510C8091D402843009F071CE29
:104C800083E08093E9008091E80082FF6ACE809102
:104C9000E80090E085FF06C00E947904882309F4AB
:104CA000F8C091E08091E8008B778093E800992329
:104CB00009F457CEE981E150E33108F06CC1F0E02E
:104CC000EC56F44D0C94A6298091D402843009F45A
:104CD00045C080E00E943A0680E00E94510C10928C
:104CE000650280913602811116C0F09236028091E1
:104CF0009902982F9170909335028E7F809399023C
:104D00009FEFE0E7F2E09150E040F040E1F700C0B3
:104D100000000E940E0D1092A50288E190E00FB6EF
:104D2000F894A895809360000FBE2092600083B72E
:104D3000817F846083BF83B7816083BF78948895C7
:104D400083B78E7F83BF0FB6F894A89580916000DB
:104D5000886180936000109260000FBE8091D30242
:104D6000882371F00E940214E5E4F2E081919191B0
:104D7000892B09F068C281E592E08E179F07B1F791
:104D80008091D402853009F49FCF0E9496150E942D
:104D900070150E942E060E94510C109236028091CE
:104DA0003502882349F080919902816080939902AD
:104DB00060E086950E942D130E941012DBCD863094
:104DC00059F4F0E0E158FD4FE4910E2F10E0ABE410
:104DD000EA2EAFE0FA2E56CE893061F4E695F0E087
:104DE000E458FD4FE4910E2F10E0F7EBEF2EFEE0BC
:104DF000FF2E48CE8F3061F4E695F0E0E758FD4F86
:104E0000E4910E2F10E0E3E5EE2EEEE0FE2E3ACE1A
:104E1000853159F4F0E0EA58FD4FE4910E2F10E08F
:104E200075E0E72E7EE0F72E2DCE08E210E04CE78D
:104E3000E42E4DE0F42E883109F424CE833249F477
:104E4000E4E7F2E00591149162EFE62E6EE0F62EB3
:104E500019CE04EF11E053E4E52E5DE0F52E843227
:104E600009F410CE00ED17E03FEAE32E36E0F32E12
:104E700009CE81E080935A0286CE81E080935B0266
:104E80008BCE81E080935C02CACE81E080935D028C
:104E9000CFCE00E210E0CE0101967C018091E800C7
:104EA00085FD0AC08091E8008B778093E8000E941E
:104EB0007904882399F3F5CE8091F100F70181936D
:104EC0007F010150110951F7ECCE1A8289E08B83E2
:104ED0001AC08A81823009F4CCC18330D9F1813083
:104EE00009F059C02FB7F8946091A6027091A702FB
:104EF0008091A8029091A9022FBF0E94AC296B83D8
:104F00007C838D839E838091D402843009F029CDE7
:104F10001091E9001F709091EC00892F817090FD35
:104F200080E8182B82E08093E9008091E80080FF00
:104F30000DC050E040E060E270E0CE0101960E94BA
:104F4000AA048091E8008E778093E8001F70109388
:104F5000E90007CDDE011196E5E4F2E08081918160
:104F6000329612969C93129713968C9313971296DF
:104F700022E0E135F20791F7C6CF8A81823059F4F9
:104F80006B817C818D819E810E94AC2986E290E0BC
:104F90000E94F829B8CF8FEF8983B5CF4C816B8100
:104FA0008A810E9454119827892798279E838D8390
:104FB000AACFED80FE80FE24EF24FE248A810B819F
:104FC00040E2049F8001112490EC899F000D111D87
:104FD00011248C8190E0880F991F080F191F6F2DE5
:104FE000C80187960E94F8296E2DC8018896D0CFF7
:104FF0000E94B61088CF8A81893061F48B81E5E008
:105000008E9FC00111246FEF70E00E945C29862FF3
:105010000E9494068A818138C1F060F4803809F0DA
:1050200072CF20E04B8160919B0280919A020E9496
:10503000381269CF823859F1833809F064CF20E003
:1050400040919C026C818B81F2CF60E08B810E9449
:105050002D139B8180919902911111C08E7F8093B5
:10506000990210926502FFEF20E742E0F1502040E4
:105070004040E1F700C000000E940E0D44CF816067
:105080008093990260E086950E942D133CCF8B811E
:1050900080939D0238CF8A81893059F08A30C1F0DF
:1050A000813821F1B8F4803809F02DCF80919C022D
:1050B0000ECF80919E02869586958695EFEF8E9F06
:1050C000C001112465E070E00E945C296B831BCF56
:1050D0001B8219CF823891F0833809F014CF809168
:1050E0009A028B8380919B028C830DCF80919902D1
:1050F00080FF02C08695EBCE80E0E9CE80919D02D4
:10510000E6CE80919E020E943011609199027091CA
:105110009A0280919B0290919C020E942612F3CEEB
:1051200080E18A83F0CE1A8289EDD1CE0A811B817B
:10513000102701271027CE0101966C01EC80FC019D
:10514000EE0DF11D7F01C801895D9C4FCE14DF0477
:1051500009F4D9CE093D110550F40E94E429F60165
:1051600084830F5F1F4FFFEFCF1ADF0AECCFF601EA
:105170001482F7CF0A811B81102701271027CE0147
:1051800001966C01EC80E00EF12EF11CC801895DE6
:105190009C4FE016F10609F4B6CE093D110520F446
:1051A000F60164810E94F829FFEFCF1ADF0A0F5F32
:1051B0001F4FECCF0E94A610A6CE84E0B2CF0A818A
:1051C0001B81102701271027CE0101966C01EC806E
:1051D000FC01EE0DF11D7F01C8018796EC14FD0462
:1051E00009F491CE0115F3E01F0750F40E94E42961
:1051F000F60184830F5F1F4FFFEFCF1ADF0AECCF5A
:10520000F6011482F7CF0A811B811027012710278E
:10521000CE0101966C01EC80E00EF12EF11CC8016C
:105220008796E016F10609F46ECE0115E3E01E073D
:1052300020F4F60164810E94F829FFEFCF1ADF0AFB
:105240000F5F1F4FECCF09BD19BD09B400FEFDCFA4
:105250008091D8008F7D8093D8008091E00082609B
:105260008093E0008091E00081FDFCCF0E949615C4
:1052700087CD86E290E00E94E4291B821C821D8279
:105280008E8341CE2D32314008F09BCCD1CC2D32D3
:10529000314008F04ACC80CCDB018F939F930E9471
:1052A000D129BF91AF91A29F800D911DA39F900D19
:1052B000B29F900D11240895AA1BBB1B51E107C09A
:1052C000AA1FBB1FA617B70710F0A61BB70B881F96
:1052D000991F5A95A9F780959095BC01CD01089525
:1052E00097FB072E16F4009407D077FD09D00E9493
:1052F0005C2907FC05D03EF4909581959F4F089559
:10530000709561957F4F0895A1E21A2EAA1BBB1BD1
:10531000FD010DC0AA1FBB1FEE1FFF1FA217B30781
:10532000E407F50720F0A21BB30BE40BF50B661F97
:10533000771F881F991F1A9469F76095709580955B
:1053400090959B01AC01BD01CF010895EE0FFF1FA9
:105350000590F491E02D099469279627692778270D
:105360008727782708950E94BB29332312F48A1BCC
:105370009B0B0C94CC29A29FB001B39FC001A39FAB
:10538000700D811D1124911DB29F700D811D11247E
:10539000911D08950E94BB29B7FF0895821B930BAE
:1053A00008950E94BB29A59F900DB49F900DA49FC6
:1053B000800D911D11240895B7FF0C94D1290E94EE
:1053C000D129821B930B0895F999FECF92BD81BD1F
:1053D000F89A992780B50895A6E1B0E044E050E03E
:1053E0000C941E2AA8E1B0E042E050E00C941E2A82
:1053F000262FF999FECF92BD81BDF89A019700B48E
:10540000021639F01FBA20BD0FB6F894FA9AF99A2D
:105410000FBE08950396272F0E94F9290E94F829AC
:10542000252F0E94F929242F0C94F9290196272F62
:105430000E94F9290C94F829DC01CB01FC01F999AF
:10544000FECF06C0F2BDE1BDF89A319600B40D92D0
:1054500041505040B8F708950F931F93CF93DF93B7
:105460009C01029710F422E030E0E0919C01F09161
:105470009D0190E080E0B0E0A0E0309791F40097CB
:1054800009F445C0821B930B84309105B8F58A81DD
:105490009B816115710569F1FB0193838283FE0194
:1054A00011C0408151810281138142175307F0F0EE
:1054B0004217530799F4109761F012960C931297C4
:1054C00013961C933296CF01DF91CF911F910F91CC
:1054D000089500939C0110939D01F4CF009719F05B
:1054E0004817590718F4CA01BD01EF01DF01F8019F
:1054F000C4CF90939D0180939C01D1CFFE01E80F12
:10550000F91F21933193029799838883DCCF80918F
:105510009E0190919F01892B41F48091020190910D
:10552000030190939F0180939E01809100019091CF
:105530000101009741F48DB79EB74091040150914D
:105540000501841B950B40919E0150919F014817C6
:10555000590708F0B8CF841B950B8217930708F4FE
:10556000B2CFB9016E5F7F4F8617970708F4ABCFB4
:10557000640F751F70939F0160939E01FA01219340
:105580003193A1CFCF93DF939C010097E9F0FC0109
:10559000329713821282C0919C01D0919D01DE014D
:1055A00090E080E02097A1F480819181280F391F3D
:1055B00080919E0190919F018217930709F067C027
:1055C000F0939F01E0939E01DF91CF910895DA015E
:1055D000AE17BF0708F041C012964D915C9113972A
:1055E000CD014115510599F7DC011396FC93EE931B
:1055F00012974D915D91A40FB51FEA17FB0781F437
:10560000208131812E5F3F4F240F351FDC01119621
:105610003C932E932281338113963C932E931297C1
:10562000B0E0A0E08A819B810097B1F5FE018191F5
:105630009191E80FF91F80919E0190919F018E1723
:105640009F0711F6109759F510929D0110929C0139
:10565000D0939F01C0939E01B7CFB383A2834081B3
:105660005181240F351FA217B30771F44E5F5F4FAE
:105670002D913C911197420F531F518340831296F5
:105680002D913C9133832283009709F0ADCFF093A5
:105690009D01E0939C0198CFDE01EC01C3CF1396EE
:1056A0001C921E921297D4CFFC014150504030F012
:1056B00001900616D1F73197CF01089588279927D1
:1056C0000895FB01DC0104C08D910190801921F443
:1056D00041505040C8F7881B990B0895F894FFCFAC
:1056E000D411D411DD11DD11DF11DD11DD11DD115A
:1056F000D411D411E411DD11DD11E4119016B816A6
:105700005918B8165918EB160C1759180A18171803
:10571000F71BF71B6C1C6C1CCA1CE41C2E1C2E1CDB
:10572000EF1C5C1D6D1D6D1D65276927BD27CE27EC
:10573000D927F827FB274B288128CB27CB27902870
:0E57400093289628BA28DA28DD28DF280329C6
:10574E000000E6022000E405AA0C890C850C810CF1
:10575E0001191A1B1C1D1E1F20212201020101818D
:10576E008283E200E900EA00B500B600B700CD0082
:10577E008301CC008A0192019401210223022402AA
:10578E002502260227022A02B300B4006F00700021
:10579E00909192939537F0F1C66766F59431303556
:1057AE0034979633F4F60001020202020606060949
:1057BE0009090909090F0F0F0F0F0F1515151819E4
:1057CE0019191919191919191923244022B6840106
:0A57DE006201AC009D07B607D60774
:00000001FF
