:100000000C94D0030C9417040C9417040C9417044C
:100010000C9417040C9417040C9417040C941704F4
:100020000C9417040C9417040C94E7210C94A3214E
:100030000C94E2220C9417040C9417040C941704EB
:100040000C9417040C9417040C9417040C941704C4
:100050000C9417040C94BE220C9417040C941704EF
:100060000C9417040C9417040C9417040C941704A4
:100070000C9417040C9417040C9417040C94170494
:100080000C9417040C9417040C9417040C94170484
:100090000C9417040C9417040C9417040C94170474
:1000A0000C9417040C9417040C941704050109020E
:1000B000A10185020901A1000509190129081500FE
:1000C0002501950875018102050109300931158165
:1000D000257F95027508810609381581257F9501D0
:1000E00075088106050C0A38021581257F95017572
:1000F000088106C0C005010980A101850319012AF4
:10010000B700150126B700950175108100C0050CD8
:100110000901A101850419012AA002150126A002E6
:10012000950175108100C005010906A1018505052D
:100130000719E029E71500250195087501810205D9
:1001400007190029EF1500250195F07501810205B9
:10015000081901290595057501910295017503910D
:1001600001C00660FF0961A1010962150026FF00B8
:100170009520750881020963150026FF00952075FA
:10018000089102C005010906A101050719E029E748
:1001900015002501950875018102950175088101F9
:1001A0000507190029FF150026FF0095067508812F
:1001B000000508190129059505750191029501753C
:1001C000039101C0000000000000000000000000DA
:1001D000000000000000000000000000000000001F
:1001E00000000000000000007E0F00D4FFFFFFC7EA
:1001F0000000007800000000000000002A2B28000A
:1002000000000000000000000000000000000029C5
:10021000000000002C1E3420212224342627252E05
:10022000362D3738271E1F2021222324252633333D
:10023000362E37381F0405060708090A0B0C0D0E69
:100240000F101112131415161718191A1B1C1D2F35
:100250003130232D350405060708090A0B0C0D0E55
:100260000F101112131415161718191A1B1C1D2F15
:100270003130354C00047F3F1F64321464321478EF
:100280003C1E1E140A0500010101010101010101CA
:100290000202020202020202020303030303030337
:1002A0000304040404040404050505050506060604
:1002B0000606070707070708080808090909090AC1
:1002C0000A0A0B0B0B0C0C0C0D0D0D0E0E0E0F0F66
:1002D0000F101011111112121313141415151616F4
:1002E0001717181819191A1A1B1B1C1D1D1E1E1F63
:1002F0002020212222232424252626272829292AB2
:100300002B2C2D2D2E2F30313232333435363738D9
:10031000393A3B3C3D3E3F404142434445464748D5
:10032000494A4C4D4E4F50515354555658595A5BAB
:100330005D5E5F616264656668696B6C6D6F70724B
:10034000737577787A7B7D7E8082838587888A8CB7
:100350008E8F91939596989A9C9EA0A2A3A5A7A9EB
:10036000ABADAFB1B3B5B7BABCBEC0C2C4C6C9CBE2
:10037000CDCFD1D4D6D8DBDDDFE2E4E7E9EBEEF098
:10038000F3F5F8FAFDFFFFAA7F5540222325262822
:10039000292A2C2D2F3032333536383A3B3D3E401A
:1003A00042434547494A4C4E5051535557595A5C60
:1003B0005E6062646668696B6D6F71737577797B77
:1003C0007D7F81838587898A8C8E90929496989A76
:1003D0009C9E9FA1A3A5A7A8AAACAEAFB1B3B4B68B
:1003E000B8B9BBBCBEBFC1C2C3C5C6C7C9CACBCCE6
:1003F000CDCED0D1D2D2D3D4D5D6D7D7D8D9D9DAB9
:10040000DADBDBDBDCDCDCDCDCDDDDDDDDDCDCDC2D
:10041000DCDCDBDBDBDADAD9D9D8D7D7D6D5D4D355
:10042000D2D2D1D0CECDCCCBCAC9C7C6C5C3C2C12A
:10043000BFBEBCBBB9B8B6B4B3B1AFAEACAAA8A787
:10044000A5A3A19F9E9C9A98969492908E8C8A893F
:10045000878583817F7D7B79777573716F6D6B691C
:1004600068666462605E5C5A5957555351504E4CF1
:100470004A4947454342403E3D3B3A3836353332A0
:10048000302F2D2C2A29282625232229001E001F43
:100490000020002100220023002400250026002740
:1004A000002D002E0000002A004A002B000000143E
:1004B000001A000800150017001C0018000C00129C
:1004C0000013002F00300031004B00390000000401
:1004D000001600070009000A000B000D000E000FB7
:1004E0000033003400280000004E00E10000001D31
:1004F000001B00060019000500110010003600372F
:100500000038000000E50052004D00E000E300006C
:1005100000E200000000002C00000000000000E6E7
:10052000000151E400500051004F0035003A003BFB
:10053000003C003D003E003F0040004100420043BF
:10054000004400450000004C00490001000000018B
:1005500000520001000100010001000100460047B7
:10056000004800520001000100010001000000509D
:100570000051004F0001000100010001004A004B42
:100580000050004F000100000001000100000001C8
:10059000000100010001000100010001004D004EBA
:1005A000005100000001004B0001000100010000AB
:1005B0000001000000000001000000000000000138
:1005C00000010001004A004E004D00010001000141
:1005D0000001000100010001000100010001000113
:1005E0000001000100000001000100010000000105
:1005F00000010001000100010001000100010001F3
:1006000000010001000100010001000100000001E3
:1006100000010001000100010001000100010001D2
:1006200000010001000100000001000100000001C4
:1006300000010001000100010001000100010001B2
:1006400000010000000100010001000100010000A4
:100650000001000000000001000000000000000197
:100660000001000100010001000100010001000182
:100670000001000100010001000100010001000172
:100680000001000100000001000100010000000164
:100690000001000100010001000100010001000152
:1006A0000001000100010001000100010000000143
:1006B0000001000100010001000100010001000132
:1006C0000001000100010000000100010000000124
:1006D0000001000100010001000100010001000112
:1006E0000001000000010001000100010001000004
:1006F00000010000000000010000000000000001F7
:10070000000100010001000100010009025B00037B
:100710000100A0FA090400000103010100092111F0
:1007200001000122400007058103080001090401BE
:10073000000203000000092111010001222200072C
:1007400005820320000107050303200001090402BC
:1007500000010300000009211101000122B6000779
:100760000584032000011201000200000008424B32
:10077000676002000102000110034B0042004400C8
:100780003600370076003200000010034B004200B4
:100790004400460061006E00730000000403090479
:1007A00011241FBECFEFDAE0DEBFCDBF04B603FEDB
:1007B00027C08091D6029091D702A091D802B09123
:1007C000D9028730904BA740B04BD1F41092D6029B
:1007D0001092D7021092D8021092D90214BE84B798
:1007E000877F84BF0FB6F894A895809160008861D8
:1007F00080936000109260000FBEE0E0F8E309957E
:1008000011E0A0E0B1E0EAEBF6E502C005900D9240
:10081000AA39B107D9F722E0AAE9B1E001C01D92D7
:10082000A63DB207E1F70E9409230C94242B0C94F7
:100830000000E8EDF0E080818E7F80831092E2007E
:100840001092DA001092E100A0EEB0E08C9181608D
:100850008C9380818F77808319BCA7EDB0E08C9159
:100860008E7F8C9380818F7E80831092A302089567
:100870002091E4003091E50095E6A9012091EC007B
:10088000822F817020FF06C08091E80080FF06C0A3
:1008900080E008952091E80022FD1AC08091C802EE
:1008A000882389F0853089F08091EB0085FD0FC0A9
:1008B0002091E4003091E50042175307F9F291507E
:1008C000E1F684E0089582E0089583E0089581E0F0
:1008D0000895EF92FF920F931F93CF937C018B01AA
:1008E0000E943804C82F811117C08091E80085FD4F
:1008F0000BC08091E8008E778093E8000E94380456
:10090000882399F3C82F08C0F70181917F01809354
:10091000F1000150110949F78C2FCF911F910F91D0
:10092000FF90EF9008958091CA0287FF13C08091D5
:10093000E80082FF06C08091E8008B778093E80092
:1009400004C08091C8028111F2CF08958091C8023D
:100950008823D9F38091E80080FFF8CF8091E800E8
:100960008E77ECCF982F9093E900242F762F50E0CC
:10097000891731F07091EC002091ED005091F0005A
:1009800021FD07C09F5F973071F78093E90081E0F8
:1009900008953091EB003E7F3093EB003091ED00F5
:1009A0003D7F3093ED003091EB0031603093EB00F0
:1009B0007093EC002093ED005093F0002091EE0036
:1009C00027FDE0CF80E00895CF92DF92EF92FF9273
:1009D0000F931F93CF93DF93C8EDD0E088818F7E74
:1009E0008883E7EDF0E080818160808384E082BFCE
:1009F00081E08093A30288818E7F888302EE10E0DD
:100A0000F80110821092DA0081EEC82ED12CF60186
:100A1000108288818F778883888180688883888125
:100A20008F7D888319BC1092C8021092C90210925F
:100A3000C7021092C60290EEE92EF12CF7018081D8
:100A40008B7F808388818160888342E060E080E0E2
:100A50000E94B204F60180818E7F8083F80180813C
:100A600081608083808188608083F70180818E7FB0
:100A70008083888180618883DF91CF911F910F915E
:100A8000FF90EF90DF90CF900895FC018091D0020D
:100A90009091D10286179707A0F06115710529F48E
:100AA0009091E8009E779093E80090E061157105C1
:100AB00051F4911108C08091E80082FF34C080E0B9
:100AC0000895BC01F2CF8091C8028823C1F185301E
:100AD000C1F18091E80083FD30C08091E80082FD83
:100AE000EACF8091E80080FFE1CF8091F300209170
:100AF000F200382F6115710519F02830310558F0D2
:100B000091E02830310509F090E02091E8002E773F
:100B10002093E800CBCF81918093F100615071095F
:100B20002F5F3F4FE7CF8091C802882341F0853087
:100B300041F08091E80083FFBECF81E0089582E01C
:100B4000089583E008958091A50208959C014FB710
:100B5000F89480919A0290919B02A0919C02B0918E
:100B60009D024FBF821B930B08952FB7F89480917D
:100B70009A0290919B02A0919C02B0919D022FBF7E
:100B8000089520911E012223C9F020919E0227FF83
:100B900015C0E62FE695E695E695EE31D8F4E80F18
:100BA000F92FF11D677021E030E001C0220F6A9536
:100BB000EAF720958281282322830895FC0132964A
:100BC00008962191621303C0DF0111971C92E81768
:100BD000F907B9F7089520911E012223C1F0209151
:100BE0009E0227FF14C0E62FE695E695E695EE31C6
:100BF000F8F4E80FF92FF11D677021E030E001C033
:100C0000220F6A95EAF78281822B82830895FC0184
:100C100032962FEF30E04191641751F02F3F19F4D5
:100C2000411101C0232F3F5F3630A9F72F3F09F450
:100C30000895820F911D27FD9A95FC016283089506
:100C400020919702309198022817390771F09093FC
:100C5000980280939702E0919502F0919602309766
:100C600021F00084F185E02D0994089520919302EC
:100C7000309194022817390771F090939402809371
:100C80009302E0919502F0919602309721F0068050
:100C9000F781E02D09940895E0919502F091960274
:100CA000309721F00190F081E02D099480E00895C3
:100CB000CF92DF92EF92FF92843030F5811125C000
:100CC000909180009F77909380002D98282F30E09E
:100CD000AFEFBFEF0E94712923E030E040E050E029
:100CE0000E943A29C9012C3764E13607A0F469E073
:100CF00070E00E9412297093890060938800FF9031
:100D0000EF90DF90CF90089583E0909180009068FD
:100D100090938000DBCF2A50374D4F4F5F4F942F79
:100D2000832F722F662725EF38E241E050E00E94C2
:100D30003A2969017A01CA01B9010E9402299B017D
:100D4000AC01C701B6010E940229672F782F892FB5
:100D500099276115710521E08207910561F66FEF12
:100D60007FEFC9CF282F220F220F220F90919202DE
:100D70009770922B90939202987F21E009F420E0E3
:100D80009091920220FB90F9909392020C94580655
:100D9000FA01811101C0FB010994089580918D022F
:100DA000982F9E7F61F48170826080938D02809184
:100DB0009002813F18F080EF8093900208958A346A
:100DC000B0F381708864F1CFAF92BF92DF92EF925F
:100DD000FF920F931F93CF93DF93082F162FE901F4
:100DE000E42FF0E0EA57FD4F611110C0E4915E2F4F
:100DF0004E2F4983E8835A83DF91CF911F910F9142
:100E0000FF90EF90DF90BF90AF900895E62EF12C09
:100E10004491D42EE42FF0E026E0829FC0011124FB
:100E20002FEF30E0B9010E941229802F90E0880F47
:100E3000991F55E5569FD001579FB00D11248A1B6D
:100E40009B0B982F990F890F5901AE18BF08AE9EC2
:100E5000D001AF9EB00DBE9EB00D11245B2F189F28
:100E600080011124012F11275901A01AB10AAE9E49
:100E70008001AF9E100DBE9E100D11245901A81ABD
:100E8000B108AE9CC001AF9C900DBE9C900D11248A
:100E9000892F9927281B390B2E9FC0012F9F900D5A
:100EA0003E9F900D1124E92F62307105A1F050F49E
:100EB0006115710509F49DCF6130710581F0EB2F4B
:100EC000512F97CF6430710569F080F0663071055D
:100ED00009F48FCFF4CFE42F4B2F592F8ACFE42F73
:100EE000412F87CFEB2F542F492F83CF4B2F5D2DD1
:100EF000E12F7FCF0E94B5059C0190914E02809119
:100F00004F02982B21F030934B0220934A0290918C
:100F1000500280915102982B21F030934902209386
:100F20004802E0919502F0919602309749F082E0F4
:100F300080934C020480F581E02D8CE492E00994CA
:100F4000089540914E02803F59F480914F0287FFEF
:100F50000DC010924F0241110BC01092460208C002
:100F6000813F81F480914F0218169CF3442381F055
:100F70008091500290915102892B09F05AC0109231
:100F800045020895823F49F447FFF0CF10924E0288
:100F900080914F028111ECCFE0CF833F19F41416FA
:100FA000ACF3E4CF90915002893F29F41916F4F67E
:100FB00010925002DBCF8A3F19F497FFD7CFF8CFBA
:100FC000909151028B3F29F497FFD0CF109251029C
:100FD000CDCF8C3F19F41916CCF3C8CF9CE0980FF5
:100FE000953090F4845F990B21E030E0B90102C0A4
:100FF000660F771F8A95E2F7CB01809590914D029D
:10100000892380934D02B2CF8D3F31F48091470206
:101010008E7F80934702AACF8E3F21F480914702B2
:101020008D7FF7CF8F3F09F0A1CF809147028B7F53
:10103000F0CF08958091470280FD16C081FD16C053
:1010400082FD16C0809145028823A1F0883280F489
:1010500028E0829FC001112468E270E00E942629E6
:10106000862F672B39F0089582E0089584E0089573
:1010700088E0089581E008958091470280FD14C0C2
:1010800081FD14C082FD16C080914602882381F044
:10109000843180F422E3829FC001112464E170E076
:1010A0000E942629862F08958CE0089589E10895ED
:1010B00085E0089582E30895803F31F40E943C0862
:1010C000819580934F020895813F19F40E943C0856
:1010D000F8CF823F31F40E943C08819580934E0204
:1010E0000895833F19F40E943C08F8CF893F29F402
:1010F0000E941A088093500208958A3F21F40E94AA
:101100001A088195F7CF8B3F31F40E941A08819518
:101110008093510208958C3F19F40E941A08F8CF69
:101120009CE0980F953070F4845F990B21E030E0DB
:1011300001C0220F8A95EAF780914D02822B80939D
:101140004D0208958D3F31F4809147028160809374
:10115000470208958E3F21F4809147028260F7CFC5
:101160008F3FB9F7809147028460F1CF80E0089506
:10117000F894E82FE295EF70F0E031A1282F2F705E
:1011800081E090E001C0880F2A95EAF7982F9095AA
:10119000932391A392A1892B82A37894089590918F
:1011A0009E0292FF06C0282F28712830F9F4877F0D
:1011B000846093FF06C0282F28712831F1F4877EC0
:1011C000846120919F0220FF06C0382F387138308B
:1011D000D9F4877F816021FF06C0282F287128312C
:1011E000D1F4877E816194FD877E0895282F247134
:1011F0002430F9F68B7F8860DCCF282F24712431CE
:1012000001F78B7E8861DDCF382F3171313019F7CE
:101210008E7F8860E0CF282F2171213121F78E7ECB
:101220008861E1CFCF93DF93EC0182389105A9F17A
:10123000D8F58133910509F496C048F589329105B6
:1012400009F48AC08A9709F495C0C11521E5D2072F
:1012500008F0BCC0C11530E5D30708F014C1C83E82
:10126000D10508F09CC0C03ED10560F5C83AD10553
:1012700008F087C0C53AD10508F0FDC0C130D105DE
:1012800009F12097F9F0C430D105E0F440C085336E
:10129000910509F45AC0C997C1F680919E028370E6
:1012A00089F0C0EED0E00EC0833E910599F170F454
:1012B000803E910501F1823E910539F680919E02B2
:1012C00082FD21C0CE01DF91CF910895863E910528
:1012D00061F1873E910571F1843E910509F0B5CF2A
:1012E00080919F0281FFEECF80919E02C7EED0E0F9
:1012F00084FD0DC0E7CF80919E0280FD12C19091C8
:101300009F0290FFDFCFC3EED0E084FFDBCFD0E0C1
:10131000C0E0D8CF80919E0282FD06C190919F02CD
:1013200090FDBFCF84FFCECFF2CF80919E0283FD90
:10133000DDCFC8CF80919E0283FDF9C090919F02BE
:1013400091FFF0CFC4EED0E0BDCF80919E0285FF2B
:10135000B9CFC9E2D0E0B6CF80919E0285FFB2CF6F
:10136000C5E3D0E0AFCF80919E0286FFABCFCAE24B
:10137000D0E0A8CF80919E0286FFA4CFC1E3D0E049
:10138000A1CFCF3BD10518F6C85AD0E0CC0FDD1F56
:10139000CE5DDE4F0990D881C02DD46493CFC115A6
:1013A00040E2D40758F4C11581E0D80708F08ACF8D
:1013B000C03FD10508F4ABCFD06584CFC11590E410
:1013C000D90708F4A4CFDF70D06A7CCFC11525E51A
:1013D000D20700F5C11534E5D30708F08AC0C1155E
:1013E00043E5D40708F071C0C11582E5D80708F4B9
:1013F00067C0CE018370992721E030E002C0220F40
:10140000331F8A95E2F7C695C69580E2C89FE00132
:10141000112452C0C11599E5D907A8F4C11528E5D2
:10142000D20708F06BC0C11536E5D30708F06FCFBF
:101430008C2F0E94CF08C82FD0E0DC2FCC27CC27E0
:10144000DF71D0623FCFC1154AE5D40708F45BC015
:10145000CE0190568115904208F059CF8D2F8F7193
:101460000E94CF0890E0982F882788279F719C01C1
:101470002C2BE901E6CFC55AD0E0C15EDE4FC88112
:10148000D0E0D0641FCFCE01E4E096958795EA9531
:10149000E1F783702C2F26952695237040E2249F38
:1014A00090011124382B8C2F8370C1E0D0E002C052
:1014B000CC0FDD1F8A95E2F7C22BD32BDC6802CF5D
:1014C000DC2FCC27C16FD06AFDCECE018370992767
:1014D00021E030E002C0220F331F8A95E2F7C69563
:1014E000C69590E2C99FE0011124C22BD32BDA6884
:1014F000E9CEDC2FCC27C46FD06AE4CEDC2FCC271A
:10150000C06FD06ADFCE8C2F8F700E94CF0834E07E
:10151000D695C7953A95E1F7CF709C2FEC01D0692D
:10152000D1CEC9E3D0E0CECEC2EED0E0CBCEC6EE77
:10153000D0E0C8CE80911B02811110921B02089549
:1015400080911A0290911902892B90911802892B8F
:101550008093A00190911B029923A1F0892B809385
:10156000A00180911E01882341F180919E0287FF96
:1015700024C08EE1E2EAF1E090E0815000F59111A3
:101580000E949A0AE0919502F09196023097E1F05C
:1015900080911E01882359F080919E0287FF07C029
:1015A0008091A0018093A10185E08093A001028039
:1015B000F381E02D80EA91E0099486E0DBCF219170
:1015C0002223D9F29F5FD9CF08958091160290917E
:1015D000E501981301C008958F5F8770FACF929547
:1015E000907F890F982F977086958695869523E032
:1015F000829FF0011124EF53FE4F50E040E080E065
:10160000219130E0092E02C0369527950A94E2F721
:1016100021703327042E01C0220F0A94EAF7822B8F
:101620004F5F5F4F4330510559F708959295907F72
:10163000890F982F977041E001C0440F9A95EAF7FF
:1016400086958695869593E0899FF0011124EF5346
:10165000FE4F30E020E070E05191DF011197CB01A7
:10166000022E02C0969587950A94E2F781708195C3
:101670008527842385278C932F5F3F4F23303105A7
:1016800059F7089590E080E00E94360690E080E0EF
:101690000E94200610921902109218020E94A00ABD
:1016A00086E0ECE4F2E0DF011D928A95E9F7109202
:1016B000460210924502109247020C947A078093DA
:1016C000D5020C94420B8091D502982F96709630DB
:1016D00019F488600C945F0B877FFCCF21E030E029
:1016E00001C0220F8A95EAF720958091D5028223C6
:1016F0000C945F0B909117028095892380931702B9
:10170000282F277039F4282F082E000C330B92173E
:10171000130621F490919F0292FF07C0859585954D
:1017200085950E946E0B10921702089521E030E01B
:1017300001C0220F8A95EAF78091D502822B0C9482
:101740005F0B80931C020C94420B882341F0809520
:1017500090911A02892380931A020C94A00A08958A
:10176000882339F090911A02982B90931A020C94C6
:10177000A00A08958823B1F19CEF980F913A38F4AC
:10178000682F80EA91E00E94C1050C94A00A90E2C3
:10179000980F983088F4877021E030E0A90102C0EA
:1017A000440F551F8A95E2F7CA01809590911A025D
:1017B000892380931A02E9CF9BE5980F933020F498
:1017C00090E080E00C94360698E5980F973120F46D
:1017D00090E080E00C942006803F20F00E94A1075A
:1017E0000C947A070895CF93C82F882309F46EC00C
:1017F0008CEF8C0F813AB8F580911E01882311F18E
:1018000080919E0287FF1EC0EC2FE695E695E69537
:10181000F0E0E056FE4F828190E04C2F477021E0CF
:1018200030E002C0220F331F4A95E2F78223932350
:10183000892B89F06C2F80EA91E00E94C1050E94FB
:10184000A00A09C0E2EAF1E08191C81799F381E0AA
:10185000E83AF807C9F76C2F80EA91E00E94EB059F
:10186000CF910C94A00A80E28C0F883068F4C77086
:1018700021E030E001C0220FCA95EAF780911A02F8
:10188000822B80931A02ECCFEBE5EC0FE33040F4AF
:10189000F0E0E15EFE4F808190E0CF910C9436063F
:1018A000E8E5EC0FE73150F4F0E0EE0FFF1FEE5DDE
:1018B000FE4F80819181CF910C942006C03F30F083
:1018C0008C2F0E945C08CF910C947A07CF910895D9
:1018D00081FD02C05C9A08955C9808959091C802B9
:1018E000943029F58093A0027093A2026093A10224
:1018F0009093E9008FEF9091E800815095FD06C02C
:1019000095ED9A95F1F700008111F5CF8091E800EF
:1019100085FF0DC050E040E063E070E080EA92E0B7
:101920000E9469048091E8008E778093E800089512
:10193000BC0184E00C946E0CBC0183E00C946E0C32
:101940009C0184E08093E9009FEF8091E800915032
:1019500085FD06C085ED8A95F1F700009111F5CF60
:101960008091E80085FF0CC050E040E066E070E048
:10197000C9010E9469048091E8008E778093E80095
:101980000895CF93DF93EC0180911E018823B1F17C
:1019900080919E0287FF32C060E284E08093E9007C
:1019A0008FEF9091E800815095FD06C095ED9A95D6
:1019B000F1F700008111F5CF8091E80085FF1BC091
:1019C00080911E0170E050E040E0811104C050E0C1
:1019D00040E068E070E0CE010E9469048091E80078
:1019E0008E778093E80080E2FE01A6EAB2E00190E3
:1019F0000D928A95E1F7DF91CF91089568E081E03B
:101A0000CDCF81E08093E00080E28093D8001092F7
:101A1000C9008FE19EE40197F1F700C0000087E064
:101A200090EBDC018093D6029093D702A093D8026A
:101A3000B093D90288E19CE00FB6F894A895809302
:101A400060000FBE90936000FFCF80918D0280FDFB
:101A50000AC0EDE5F2E0118210821282339652E064
:101A6000ED38F507C1F76A9A3EB13B7F2EB124608D
:101A70004FB7F8948DE592E0FC015191CF0168E0F9
:101A80002EB9000000C057FF3EB9550F000000C03E
:101A900000C000C03EB900C06A9591F7F2E08D38F1
:101AA0009F0751F74FBF8FE594E00197F1F700C012
:101AB00000000895EF92FF920F931F93CF93DF934F
:101AC0008C01CDE5D2E0F12CE12CF80194816091FC
:101AD0008F0280918E02F8E0EF16F10414F599233D
:101AE00011F140919002413F08F040EF9E010E94A9
:101AF000E4062FEFE21AF20A239680E1E816F104D9
:101B000021F70E94250DF801848190E001968170F3
:101B100099278483DF91CF911F910F91FF90EF90D0
:101B200008959923F1F29E0140E0E1CF8F929F92B8
:101B3000AF92BF92CF92DF92EF92FF920F931F93DB
:101B4000CF93DF93EC014C81042F10E09801D80172
:101B50000E9471299B01AC010E9487294B015C0105
:101B6000E0E2F0E0E01BF10BA5E5B0E0AC019B0189
:101B70000E9487296B017C019F01DF010E94692976
:101B80009B01AC010E9492299B01AC01280D391DDB
:101B90004A1D5B1DC701B6010E943A29F22E822F11
:101BA00090E039E23F1508F43EC043E0249F9001E5
:101BB000112435952795122F10959DE5C92E92E099
:101BC000D92E00E085E5E82EEF188E2D01FD8F2D32
:101BD000412F113F08F040EF960160918F020E9463
:101BE000E4060F5F53E0C50ED11C003171F70E946F
:101BF000250D9C8181E0992319F0903219F48FEF23
:101C000080931D0180911D01890F8C83DF91CF91FD
:101C10001F910F91FF90EF90DF90CF90BF90AF900A
:101C20009F908F90089525E530E0A901481B590B3E
:101C3000CA019A01220F331F280F391F37FFB9CF6E
:101C40002F5F3F4FB6CF0F931F93CF93DF93CDE519
:101C5000D2E0FE01118210821282339682E0ED38CA
:101C6000F807C1F710E000E080915B02082E000C3D
:101C7000990B08171907A4F180911C01082E000C7C
:101C8000990B8017910764F140919002413F08F051
:101C900040EF9E0160918F0280918E020E94E406C7
:101CA0000F5F1F4F239600311105F1F60E94250D9D
:101CB00080911B0190915B02980F90935B022091A1
:101CC0001C01280F20931C01121614F49F301CF0E5
:101CD000819580931B01DF91CF911F910F91089502
:101CE000198218821A82DCCFCF92DF92EF92FF9294
:101CF0000F931F93CF93DF93FC018281DD24DA944D
:101D000080FD02C0DD24D394CDE5D2E010E000E0F8
:101D1000198218821A8294E0E92EF12CC12C80914C
:101D20005A028C0D8131E4F18F70082E000C990B52
:101D300080179107A9F4809190028E9DA0018F9D3C
:101D4000500D11245595479555954795413F08F0FD
:101D500040EF9E0160918F0280918E020E94E40606
:101D6000CD0CF1E0EF1AF108D1F60F5F1F4F23966B
:101D70000031110569F60E94250D80915A0291E00B
:101D8000D91214C0811110C08FE080935A02DF91E4
:101D9000CF911F910F91FF90EF90DF90CF9008951A
:101DA00087FFC3CF805FC1CF8150EFCF90E0019616
:101DB0008F709927EACFEF92FF921F93CF93DF9313
:101DC000EC018DE5E82E82E0F82E10E040919002C3
:101DD000413F08F040EF8C81970160918F02810FA5
:101DE0000E94E406115F83E0E80EF11C103F71F7DA
:101DF0000E94250D9A818C8190FF08C08F5F8C8393
:101E0000DF91CF911F91FF90EF9008958150F7CF10
:101E100090918D0290FF0CC0EDE5F2E0818360832C
:101E20004283339692E0ED38F907C1F70C94250D03
:101E300008950F931F93CF93DF9300D00F92CDB7E8
:101E4000DEB78C0180915C0281110AC09E012F5F78
:101E50003F4F40EF6FEF0E94E4068A8180935C025F
:101E6000F8016481613069F080915C0240E0662392
:101E700061F040E0623011F440915C0280E060E08B
:101E800004C060915C0240E080E00E94080FF8010D
:101E9000848190E0019663E070E00E9426298483AB
:101EA0000F900F900F90DF91CF911F910F91089598
:101EB000CF93DF9300D00F92CDB7DEB790918D0214
:101EC00090FF0DC0413F08F040EF9E012F5F3F4F54
:101ED0000E94E4064B8169818A810E94080F0F905D
:101EE0000F900F90DF91CF910895CF93DF93EC0186
:101EF000EDE8F2E0438162818C810E94580F8C8171
:101F00008F5F8C83DF91CF910895CF93DF93EC01A6
:101F1000EC81F0E0E557FC4F4491EDE8F2E062819E
:101F200081810E94580F8C818F5F8C83DF91CF91CC
:101F300008951F93CF93DF93182FD0E0C0E089332B
:101F400011F4C0E5D0E0812F0E94F30B209731F40B
:101F5000812FDF91CF911F910C94BA0B8FE99FE0F5
:101F60000197F1F700C000002197F0CF0F931F9366
:101F7000CF93DF93C62FD42F022FFC0182818823B9
:101F8000A1F06093D4020E94B5059093D302809390
:101F9000D202C77081E001C0880FCA95EAF7DF91CD
:101FA000CF911F910F910C94B00B8091D4026813C4
:101FB00035C08091D2029091D3020E94A605883C40
:101FC000910560F510E21D0FCD17B9F080E28C0F7E
:101FD000883040F4C77081E001C0880FCA95EAF7E5
:101FE0000E94A50B183048F481E09D2F977001C026
:101FF000880F9A95EAF70E94B00B802F0E94990FE4
:10200000183098F4D77081E001C0880FDA95EAF7AC
:10201000DF91CF911F910F910C94A50BC77081E0B8
:1020200001C0880FCA95EAF7F3CFDF91CF911F91D6
:102030000F910895CF93DF93C7EAD2E060E0CE011D
:102040000E94AE292196C11584E0D807B9F7DF9127
:10205000CF9108956F927F928F929F92AF92BF928D
:10206000CF92DF92EF92FF920F931F93CF93DF9364
:102070008BE8C82E84E0D82E07EE10E0E801C05AA5
:10208000D10936011CC0F50185909490692DC701D6
:102090000E94AE29682DC70101960E94AE2982E0F8
:1020A000A80EB11C82E0E80EF11CCE15DF0559F731
:1020B00080E2680E711CA0960C171D0731F07E019E
:1020C00080E2E81AF1085301DECF00561F4F80EA84
:1020D000C80ED11C073683E0180781F6DF91CF9137
:1020E0001F910F91FF90EF90DF90CF90BF90AF9036
:1020F0009F908F907F906F900895CF93C82F6FEF30
:10210000811161E283E290E00E94AE296FEFC1117C
:1021100069E084E290E00E94AE296FEFC11166E0B1
:1021200085E290E0CF910C94AE2980E00E947D1072
:1021300060E086E290E00E94AE290E942A100E9490
:102140001A1081E00C947D10682F86E090E00C94CA
:10215000AE29CF93C92F682F84E090E00E94AE296A
:102160006C2F82E290E0CF910C94AE2990919F0267
:1021700092FB222720F9281751F080FB92F99093C7
:102180009F0280919E0290919F020C94A910089545
:102190000F931F93CF93DF9320E2629FE0011124FE
:1021A00050E0440F551FC40FD51F30EA839FC00D68
:1021B000D11D1124CE0187960E949A29082F10E084
:1021C000102F0027CE0188960E949A299801282B6B
:1021D000C901DF91CF911F910F910895462F84304F
:1021E00038F4753028F4603118F4672F0C94C81057
:1021F00090E080E00895CF92DF92FF920F931F93BB
:10220000CF93DF936C010091D50280911C02082BC3
:10221000C7E0D0E010E0FC2EC8010C2E02C095955E
:1022200087950A94E2F780FD0CC02197A0F7F12C66
:102230008F2DDF91CF911F910F91FF90DF90CF9065
:102240000895B6018C2F0E94EE100E94120901978A
:1022500061F3EECFCF93DF93EC010E94FB10BE0140
:102260000E94EE10DF91CF910C941209FC01808145
:1022700091810E942A11292F2F7092959F70925060
:102280009E3078F4E92FF0E0EA5DF44D0C945C297F
:10229000803F19F020F4883E20F481E00895843FC7
:1022A000E1F380E00895883EC0F3813FD1F7F5CF98
:1022B000822F869586958695089583E290E00E9408
:1022C0009A29813289F484E290E00E949A29893027
:1022D00059F485E290E00E949A2991E0863009F055
:1022E00090E0892F8170089580E0FCCFCF9384E047
:1022F00090E00E949A29C82F82E290E00E949A29D9
:10230000982F8C2FCF91089560918D02669570E083
:102310004BE050E080E191E00E940A2B892B19F4F8
:1023200081E0809359020E94B505909353028093F7
:1023300052020895CF92DF92EF92FF926B017C01DF
:102340000E94CE06B701A60188E090E0FF90EF90D2
:10235000DF90CF900C94C0297F928F929F92AF9282
:10236000BF92CF92DF92EF92FF920F931F93CF9382
:10237000DF9300D00F92CDB7DEB7082FD62E142FE3
:10238000C22E90918D0290FF2DC0E92FE695AE2FC1
:10239000B0E0AB59BE4F8C91809358029E7F923033
:1023A00091F5413F08F040EF9E012F5F3F4F6D2DAB
:1023B000802F0E94E4064B8169818A810E94080F68
:1023C00000938E02D0928F0210939002CC2051F095
:1023D00060918D0270918E0280918F029091900297
:1023E0000E949A110F900F900F90DF91CF911F9143
:1023F0000F91FF90EF90DF90CF90BF90AF909F90A4
:102400008F907F900895823019F410919002D8CF68
:10241000863019F400918E02D3CF8930D9F38931F7
:1024200079F6E9512E2F2170722EE695F0E0EA57E9
:10243000FC4F8590949099243DE5E32E32E0F32EF5
:10244000B12CA12CC50124E0969587952A95E1F73A
:10245000711016C0800F412F113F08F040EF970117
:102460006D2D0E94E406A80CB91C83E0E80EF11C57
:102470002DE8E21622E0F20629F70E94250DA0CFF2
:10248000202F281B822FE7CFEDE8F2E0438128E0E0
:10249000421B08F440E021E0628181810C94AC1180
:1024A000EDE8F2E0438128E0420F08F44FEF21E02D
:1024B000628181810C94AC11EDE8F2E0628128E048
:1024C000621B08F460E021E0438181810C94AC112F
:1024D000EDE8F2E0628128E0620F08F46FEF21E09E
:1024E000438181810C94AC11EDE8F2E0818121E01F
:1024F0004381628188500C94AC11EDE8F2E0818157
:1025000021E043816281885F0C94AC11809191023B
:10251000882319F081508093910260918D0270910F
:102520008E0280918F02909190020C949A1180916A
:102530009102833018F48F5F8093910260918D0235
:1025400070918E0280918F02909190020C949A115A
:1025500090918D0290FF36C09170811129C09260D8
:1025600090938D02662351F060918D0270918E02DE
:1025700080918F02909190020E949A1160918D0239
:10258000669570E04BE050E080E191E00E940A2BFC
:10259000892BA9F01092590281E08093550220E026
:1025A0004091900260918F0280918E020C94AC1148
:1025B000853210F09864D4CF880F982BD1CF0E9429
:1025C0008411EACF089580918D028695815009F497
:1025D00084E261E00C94A81280918D0286958F5F51
:1025E000853208F081E061E00C94A81290918D0290
:1025F00090FF07C09695981720F0961710F40C944A
:10260000EC1261E00C94A812EDE8F2E083E0808324
:1026100011828FEF828380EF8383148260817181C6
:10262000828193810C949A1169EE7EEF90E080E0B4
:102630000E94CC2960E082E090E00E94AE2960E038
:1026400083E090E00E94AE2910921C0260E084E0DA
:1026500090E00E94AE2960E082E290E00E94AE2904
:1026600060E085E090E00E94AE2960E086E090E0C6
:102670000E94AE296FEF87E090E00E94AE2940E013
:1026800050E0BA0188E090E00E94C02960E08DE04F
:1026900090E00E94AE2940E050E0BA0188E190E06D
:1026A0000E94C02960E087E190E00E94AE2940E0EE
:1026B00050E0BA018CE190E00E94C02970E060E037
:1026C00080E290E00E94CC2940E050E0BA0188E12D
:1026D00090E00E94C02980E00E947D100E94951029
:1026E00040E050E0BA018FE090E00E94C02940E055
:1026F00050E0BA0183E190E00C94C0292F923F9200
:102700004F925F926F927F928F929F92AF92BF9201
:10271000CF92DF92EF92FF920F931F93CF93DF93AD
:10272000CDB7DEB72A970FB6F894DEBF0FBECDBF88
:10273000AE014F5F5F4F6A018AE0DA011D928A9510
:10274000E9F700E511E07A01AA24A394B12CF8017D
:1027500081918F018F3F09F44BC0F894E82FE295E7
:10276000EF70F0E021A18F70A50102C0440F551F4A
:102770008A95E2F7CA01922F982B91A392A1809596
:10278000892382A3789400C0E5E5F1E030E020E001
:10279000912C812C81918F3F09F4ACC0A82FA29578
:1027A000AF70B0E090964C9150E08F7002C055959C
:1027B00047958A95E2F740FD9DC0C501022E02C0F3
:1027C000880F991F0A94E2F7882A992A2F5F3F4FB2
:1027D00020313105F9F6F801319780818F3F11F0F2
:1027E0000E94B80850EA5A95F1F7D7018D929C9251
:1027F000B2E0EB0EF11CE1E005351E0709F0A7CFB2
:102800004AE050E0B60182E292E00E94172B8C0170
:10281000FF24F394892B09F4F12C0115110541F0E3
:102820008AE0F601A2E2B2E001900D928A95E1F70A
:1028300050901F02552009F46AC00E94B5052091EE
:102840001D0230911E02AC01421B530B9A01909362
:102850001E0280931D024F3F510511F008F04DC03C
:10286000452B09F444C0E22E10921F022091200251
:1028700030912102EBE3F2E062E272E0390150E5CF
:10288000650E711C412C88248394912C190150E011
:1028900040E0D101DD901D01DD20D1F0CD01019797
:1028A000ED1470F1DC011C92C080D180DB018D91B0
:1028B0009C918C259D255401042E02C0AA0CBB1CA2
:1028C0000A94E2F78A219B218C259D2591838083A0
:1028D0004F5F5F4F40315105E1F6205F3F4F329629
:1028E0006E5F7F4F6216730689F640921F02012BBE
:1028F000B1F44DC090E080E067CF2FEF30E0B3CF70
:10290000DE18DC01DC92452CE3CF108233C0012BB2
:10291000F1F10E94B50590931E0280931D02209153
:1029200020023091210260911F02A2E2B2E08BE30B
:10293000C82E82E0D82EAA24A394B12C75E04D9124
:102940005D91F601819191916F0148275927F90115
:1029500090E080E08501082E02C0000F111F0A944C
:10296000E2F704231523012B81F21081111102C01B
:10297000708361E0319601968031910559F7205FAF
:102980003F4FF2E0AC32BF07D1F660931F028F2DAC
:102990002A960FB6F894DEBF0FBECDBFDF91CF9160
:1029A0001F910F91FF90EF90DF90CF90BF90AF906D
:1029B0009F908F907F906F905F904F903F902F905F
:1029C000089590E080E00E94A829893E9E4F11F46E
:1029D0000C945D1180E008950E94E11481110AC0F9
:1029E0000E941413809192028470896180939202F4
:1029F0000E94A41086E090E00E949A29809392029F
:102A0000803220F0877088618093920290919202C8
:102A1000892F817090FF04C0892F869586958695B1
:102A20000C94580610921A0280911E01E2EAF1E01D
:102A3000882359F080919E0287FF07C08EE1DF0155
:102A40001D928A95E9F70C94420B86E0F8CF1F930C
:102A5000CF93DF93CDB7DEB7AA970FB6F894DEBF5A
:102A60000FBECDBF8AEC92E02091F100DC012D93E6
:102A7000CD01B2E0823D9B07B9F78091CB02833054
:102A800009F471C0B8F4813009F448C0823009F407
:102A9000B2C08091E80083FF88C28091CA02909101
:102AA000CB029A3008F081C2E92FF0E0EC5CF44DE3
:102AB0000C945C298A3009F48DC08B3009F470C005
:102AC000893039F78091CA02813219F78091CE029C
:102AD0009091CF02009711F00297D9F68091E8000B
:102AE000877F8093E8008091E80082FF37C0909153
:102AF000F3008091F200029729F48091F1008B7F1E
:102B0000813021F48091F1008093A5028091E8004A
:102B10008B778093E8000E949304BBCF8091CA0218
:102B2000813A09F0B6CF8091E800877F8093E80072
:102B30008091CE029091CF02892B61F460E286EA07
:102B400092E070E00E9445058091E8008B778093C9
:102B5000E8009FCF60E090E080E0F3CF8091C80272
:102B60008111C1CF96CF8091CA02813A09F091CFED
:102B70008091CE029091CF02892B09F08ACF80916B
:102B8000E800877F8093E8008091E80080FFFCCF19
:102B900080911E018093F1008091E8008E77B9CF7B
:102BA0008091CA02813209F074CF8091CE02909157
:102BB000CF02892B09F06DCF8091E800877F809349
:102BC000E8000E9493048091CC0280931E010E9431
:102BD00012155FCF8091CA02813209F05ACF8091DD
:102BE000E800877F8093E8000E9493048091CD02E3
:102BF0008093A4024ECF8091CA02813A09F049CF56
:102C00008091E800877F8093E8008091E80080FF52
:102C1000FCCF8091A402BECF803899F0823809F0B1
:102C2000C4C18091CE028F70873008F0BEC18093FE
:102C3000E9008091EB0085FB882780F91092E9007C
:102C400006C08091C6029091C70291118260909156
:102C5000E800977F9093E8008093F1001092F100D4
:102C60008091E8008E779DC1882309F48BC1823062
:102C700009F09BC18091CC0281118EC18091CE025E
:102C80008F702FEF280F263008F08FC18093E90056
:102C90002091EB0020FF80C1933031F48091EB0054
:102CA00080628093EB0078C19091EB0090619093EB
:102CB000EB0021E030E001C0220F8A95EAF7209373
:102CC000EA001092EA008091EB008860EACF81115F
:102CD0006CC11091CC021F778091E3008078812B2A
:102CE0008093E3008091E800877F8093E8000E9452
:102CF00093048091E80080FFFCCF8091E30080681E
:102D00008093E30082E0111183E08093C8024DC1FB
:102D10008058823008F049C12091CC023091CD0218
:102D20002C3DE3E03E07A1F583E08A838AE28983B4
:102D30004FB7F894DE01139620E03EE051E2E32F16
:102D4000F0E050935700E49120FF03C0E295EF704C
:102D50003F5FEF708E2F90E0EA30C0F0C7968D9302
:102D60009D932F5F243159F74FBF8091E800877FF3
:102D70008093E8006AE270E0CE0101960E9445056A
:102D80008091E8008B778093E8000FC1C096E7CF71
:102D90008091CE029091CF02432F552743305105A9
:102DA00009F44AC078F54130510509F47AC08BE541
:102DB00090E0EBE0F7E04230510509F0F6C02091D9
:102DC000E800277F2093E8002091D0023091D102C3
:102DD0008217930708F49C0140E02115310509F0A2
:102DE00065C0411163C08091E80082FDC9CF809128
:102DF000C802882329F2853019F28091E80083FF08
:102E0000F2CFBECF4132510509F43CC042325105E8
:102E100009F0CBC08330910508F0C7C0FC01EE0F6C
:102E2000FF1FE357FE4F0190F081E02D86579E4F24
:102E3000DC018C9190E01AC0332721303105D1F0AC
:102E40002115310561F02230310509F0AEC0E8E707
:102E5000F7E0E4918E2F90E0E8E7F7E007C0ECE9B7
:102E6000F7E0E4918E2F90E0ECE9F7E0009709F4A9
:102E70009CC0A5CFEAE8F7E0E4918E2F90E0EAE865
:102E8000F7E0F4CF8330910508F08FC0880F991FC9
:102E9000FC01ED56FE4F0190F081E02D89E090E0BD
:102EA0008ECF82E190E0E6E6F7E089CF8091C8021C
:102EB000882309F465CF853009F462CF8091E8005A
:102EC00083FD5ECF8091E80082FD8DCF8091E80088
:102ED00080FF83CF9091F3008091F200211531059E
:102EE00019F08830910550F041E0089709F040E072
:102EF0008091E8008E778093E8006FCF44914093F3
:102F0000F1003196215031090196E8CF803809F05F
:102F10004CC08091E800877F8093E8008091C902CF
:102F20008093F1009DCE811140C01091CC021230EF
:102F3000E0F58091E800877F8093E8001093C90254
:102F40000E949304112311F084E005C08091E300F6
:102F500087FDFACF81E08093C80242E061EC81E016
:102F60000E94B20442E261EC84E00E94B20442E2B8
:102F700061EC82E00E94B20442E260EC83E00E94D5
:102F8000B20413C08091CC02813079F481E0933097
:102F900009F080E08093C7021092E9008091E80078
:102FA000877F8093E8000E9493048091E80083FF6C
:102FB0000AC08091E800877F8093E8008091EB0051
:102FC00080628093EB00AA960FB6F894DEBF0FBE26
:102FD000CDBFDF91CF911F9108953F924F925F92A5
:102FE0006F927F928F929F92AF92BF92CF92DF9219
:102FF000EF92FF920F931F93CF93DF9300D000D0F7
:103000000F92CDB7DEB78C01FC0183819481892BAF
:1030100031F08081918189238F3F09F0CCC50F90D9
:103020000F900F900F900F90DF91CF911F910F9104
:10303000FF90EF90DF90CF90BF90AF909F908F90D8
:103040007F906F905F904F903F9008950E94FB108B
:10305000F82E682F89819A810E94160B69817A81E6
:103060008F2D0E94EE107C01F8018281882309F4E3
:103070002AC5C70182519F45409708F05AC58FEF76
:1030800093E00E949A29FEEEEF0E57EA852E52E059
:10309000952E882381F180911702877009F4BFCFA4
:1030A000F8018281882309F4BACF82E00F900F9053
:1030B0000F900F900F90DF91CF911F910F91FF9084
:1030C000EF90DF90CF90BF90AF909F908F907F90C8
:1030D0006F905F904F903F900C947A0B811424E096
:1030E0009206C9F2C4010E949A29811101C0EA9492
:1030F0003FEF831A930AE110F1CF1C821B82442414
:1031000043944AE0342E74018FEFE81AF80AC401A0
:103110000E949A2989831A82882309F4BCCF9FEFE1
:10312000980F933000F58A83498292E0890E911CB2
:10313000C7010E949A298B83882309F4ACCFFE0132
:1031400031967F01F70120812223E9F2213009F035
:1031500049C091818281913041F4F2E0EF0EF11C7F
:103160000E94990F09C04701EACF923049F422E04A
:10317000E20EF11C0E94F30B3FEFE31AF30AE2CFD9
:10318000933031F432E0E30EF11C0E94BA0BF4CF1D
:10319000943021F08FEFE81AF80AEECF92E0E90EB2
:1031A000F11C30E020E0B7016F5F7F4FF7014181F4
:1031B0008053990B8A30910550F021503109E0F28B
:1031C0008FE99FE00197F1F700C00000F6CF329E33
:1031D000F001339EF00D11249C012E0F3F1F842F10
:1031E0007B01E1CFE22FF0E0EC50FE4F5490822FB4
:1031F00086958695869590E0FC01EC51FE4F649093
:103200002770712C022E02C0759467940A94E2F71D
:10321000E1E06E227724FC01EC52FE4FA490B12C29
:10322000022E02C0B594A7940A94E2F7F1E0AF220F
:10323000BB24FC01EC53FE4FC490D12C02C0D594AA
:10324000C7942A95E2F721E0C222DD2461147104BB
:1032500019F081EE0E94F30BA114B10419F086EE6F
:103260000E94F30B852D0E94990FAB2819F086EE72
:103270000E94BA0B672819F081EE0E94BA0BCD2884
:1032800009F47ACF8CE26CCF81E00E94960B0E9409
:10329000630B01CF81E00E946E0BF9CF82E0F5CF86
:1032A00082E0F9CF2FEBE2162CE5F20609F455C0C7
:1032B00008F43FC080ECE8168CE5F80609F05AC423
:1032C00090919202892F8695869586958F5F8F7152
:1032D0009770843008F059C0880F880F880F892BA9
:1032E000809392028091920210C083E00E94B20605
:1032F000809192020E94A410CECE80919202982FCB
:10330000987F79F0885080939202887F91E009F449
:1033100090E08091920290FB80F9809392020E944B
:10332000A410809192028695869586950E945806F3
:10333000B2CE80919202982F96959695969593305D
:1033400040F49F5F990F990F990F8770892B809395
:103350009202809192028160E0CF8091920280FF80
:1033600007C08E7F809392020E94A41080E0DECF7F
:1033700080FD91CE816080939202813019F489E0C2
:103380008093920280919202CACF90939202AACF28
:1033900027E245EE65EE0BC426E241EE60EE07C47F
:1033A00027E245EE64EE03C426E241EE62EEFFC37F
:1033B00028E241E0EFCF80919E02806136E0E31683
:1033C0003CE5F30609F492C008F497C080919E0290
:1033D00080628CC080919E028D7F9CE0E9169CE506
:1033E000F90609F483C078F480919E028C60FAE0BB
:1033F000EF16FCE5FF0609F479C008F48AC0809155
:103400009E028E7F73C080919E02877F3EE0E3160E
:103410003CE5F30609F46AC008F481C080919E027D
:103420008F7E64C09BEFE9169CE5F90609F469C03C
:1034300068F5F3E1EF16FCE5FF0609F480C090F4AF
:1034400031E1E3163CE5F30609F475C082E1E816C4
:103450008CE5F80609F0FEC40E94121580919E02C8
:103460008F7744C095E1E9169CE5F90609F46FC031
:1034700008F483C080919F028160FAEFEF16FCE5AB
:10348000FF0609F0E7C480939F02E4C42FEFE21621
:103490002CE5F20609F457C090F48DEFE8168CE5A0
:1034A000F80609F440C080919F028E7F9EEFE916D6
:1034B0009CE5F90640F380919F028360E4CFE1E050
:1034C000EE16EDE5FE0609F461C008F44CC060E0BC
:1034D00022E0E2162DE5F20609F0BCC48EE090E091
:1034E0000E94AE29B7C480919E02816080939E02A3
:1034F000B1C480919E028460F9CF80919E02886061
:10350000F5CF80919F028260BECF80919E02806441
:10351000EDCF0E94121580919E028068E7CF8091C6
:103520009E028B7FE3CF80919F028D7FACCF8091F5
:103530009E028F7DDBCF80919E028F7BD7CF8091C3
:103540009E02837FD3CF80919F028C7F9CCF8091FE
:103550009E0282FB992790F921E0922790FB82F945
:1035600090FB83F9C3CF80919F02982F9095917023
:103570008E7F892B90FB81F986CF0E941215909146
:103580009E02892F97FB87F98058B0CF61E0A6CFC4
:1035900080911A0236E1E3163CE5F30609F01CC3FC
:1035A0008A7A91E009F490E09093C00169E2811178
:1035B00065E380EA91E00E94EB050E94A00A6BCDD2
:1035C00080918D0280FF1BC08E7F80938D02609161
:1035D0008D0270918E0280918F02909190020E94D4
:1035E0009A11109259028FEF90E7E2E081509040DB
:1035F000E040E1F700C000000E94250D4CCD816045
:1036000080938D0261E086950E94A81244CD43EE1E
:1036100052E16CEE72E10E94C8063DCD4CEE52E1E3
:1036200063EE72E1F8CF4DE752E164E772E1F3CF68
:103630004CE552E168E672E1EECF44E452E160E528
:1036400072E1E9CF40E552E164E472E1E4CF47E999
:1036500052E166E872E1DFCF61E081E0D5CF65E05D
:1036600082E00E94F61217CD68E086E0FACF64E1AE
:103670008FE0F7CF67E185E1F4CF62E289E1F1CF36
:1036800061E083E2C1CF9BE5E9169DE5F90611F102
:10369000ECE5EE16EDE5FE0609F0D0C280919F0242
:1036A00082FB882780F991E089270E94B610C6C264
:1036B0000E941215FFEF24E33CE0F150204030401F
:1036C000E1F700C000000E94010D0E941413E3CC3A
:1036D00081E0EBCF80E0E9CFC7010E94EF0AD82E4E
:1036E000BCC22F2D2F70C22E8F2D807F19F0C29457
:1036F00090EFC922DD20C9F0CC2069F080E28E0D68
:10370000883010F081100BC080911A02C82AC09234
:103710001A020E94A00A8E2D0E94F30B19C08091FC
:103720001902C82AC0921902F4CF8E2D0E94BA0B3A
:10373000CC2071F0C09480E28E0D883010F08110A2
:103740003FC080911A02C822C0921A020E94A00AA9
:10375000292D2850330B2430310520F40E944C06CB
:103760000E94680CAA2009F45ACC8091170280FDAF
:1037700056CCF80112828595859585950E94960B09
:10378000C8010E94ED178091170285958595859552
:103790000F900F900F900F900F90DF91CF911F918E
:1037A0000F91FF90EF90DF90CF90BF90AF909F90E0
:1037B0008F907F906F905F904F903F900C946E0B26
:1037C00080911902C822C0921902C0CF3F2D3F70CC
:1037D000B32E8F2D807F803219F0B29480EFB82203
:1037E000882071F081E0881681F1DD20D9F1CC20AC
:1037F00091F1F801858180FF8ECF8F7085832BC07A
:10380000DD20B1F090911B028B2D892BC11003C0DC
:103810000E94B00B9DCFE1E0CE12FACF20919F0223
:1038200022FD96CF891709F493CF80931B0290CF86
:10383000C11006C00E949A0A8B2D0E94A50B88CF4A
:10384000F1E0CF1609F484CFF5CFDD2031F025E08B
:103850002C1508F47DCF8B2DDBCF34E03C1508F41C
:1038600077CFEACFCC2041F3F9E38F1209C02FEFD5
:1038700037EE83E0215030408040E1F700C0000087
:103880008E2D0E94BA0B64CF8F2D869586958370FE
:1038900061F0813009F05CCFC7019370D11002C094
:1038A00090E080E00E94200653CFC7019370D110B2
:1038B00002C090E080E00E9436064ACF8E2DDD20C7
:1038C00029F00E945C080E947A0742CF0E94A1075B
:1038D000FACF8F2D837091F5D1103ACF4E2D4295AE
:1038E00046954770440F440F8E2D8F70042E01C0F3
:1038F000880F0A94EAF72E2D2071E4FE07C02FE00E
:1039000030E001C0220F4A95EAF720953F2D369509
:1039100036953370323069F050F440911C023130EA
:1039200029F0822B84230E94A10B12CF842B822B9F
:10393000FACF282B80911C028227F5CF8695DD20B7
:1039400011F08F2D8170882309F402CF4E2D4295FE
:1039500046954770440F440F8E2D8F70042E01C082
:10396000880F0A94EAF72E2D2071E4FE07C02FE09D
:1039700030E001C0220F4A95EAF720953F2D369599
:1039800036953370323069F050F44091D5023130C1
:1039900029F0822B84230E945F0BDACE842B822BAA
:1039A000FACF282B8091D5028227F5CF9F2D9F70CB
:1039B000F92EDD2029F0892F0E94960B8E2D28CF1D
:1039C0008E2D0E94A50B8F2D0E946E0BC1CE8E2DC9
:1039D000E2EF8E1609F44BC0E81570F0F0EF8F1689
:1039E00039F121EF8216D9F1DD2009F45CC0C11054
:1039F00092CE8F2D8F7138C033EF8316E9F194EF9B
:103A00008912F2CFDD2009F443C02F2D2F71F22E41
:103A1000822F0E94960B80919F0282FD07C038E0A2
:103A2000F39EC00111248360809317028F2D1CC068
:103A3000DD2081F0E4E0EC1508F48ACE2F2D2F7103
:103A400081E090E001C0880F2A95EAF79091D502B5
:103A50008927A1CFF5E0FC1508F47ACEEFCF8F2DA2
:103A60008F71DD2009F4B0CF0E94960B71CE8F2D9F
:103A70008F71DD20C9F3A8CF80E0DD2009F48BCF62
:103A80009F2D9F7181E001C0880F9A95EAF783CF3F
:103A900081E00E947A0B81E08C1508F059CE82E01B
:103AA0000E947A0B55CECC2059F0893309F0E8CE2C
:103AB0009FEFE7EEF3E09150E040F040E1F7DECE1B
:103AC0008F2D8F7181CFF0E1EF16FFE5FF0609F42E
:103AD000E1CB21E1E2162FE5F20609F4E1CB83EF19
:103AE000E8168CE5F80609F457CC08F0BCC1E8EDFF
:103AF000EE16ECE5FE0609F44BCCF9EDEF16FCE50D
:103B0000FF0609F455CC27EDE2162CE5F20609F480
:103B10004BC0F6E1EF16FCE5FF0609F08FC080917F
:103B2000C00169E2811165E380EA91E00E94C1056C
:103B300044CD30E1E3163FE5F30609F4A5CB81E17E
:103B4000E8168FE5F80609F4A9CB8DEBE8168CE5AD
:103B5000F80609F4D2CB08F0A5CBEBEBEE16ECE5BA
:103B6000FE0609F4C2CB80E0FCEBEF16FCE5FF0695
:103B700009F4BCCB23EFE2162CE5F20609F40CCCD9
:103B800008F01AC188EDE8168CE5F80609F400CCB7
:103B900099EDE9169CE5F90609F40ACCE7EDEE1675
:103BA000ECE5FE0609F016C126E241EE61EEC80121
:103BB0000E94B60F70CA85E0DE01119601900D9249
:103BC0008A95E1F7F801228189819A8121113ECA03
:103BD0000E94EF0AF82E42CA82722CECE2162CE503
:103BE000F20609F434CD08F0A7C096ECE9169CE57E
:103BF000F90609F418CD08F076C0F3ECEF16FCE5F1
:103C0000FF0609F404CD08F05DC032ECE3163CE594
:103C1000F30609F4D5CCFAE5EF16FDE5FF0609F445
:103C200057CD08F030CDE1143CE5F30609F440CD62
:103C30008EEDE8168CE5F80609F447CDF80182818F
:103C4000E080F180882309F447CDC7010E94FB1072
:103C5000D82E682FC7010E94160BB7018D2D0E9428
:103C6000EE100E9412097C01882EF801D280C580D6
:103C7000C2943FE0C322809117028770A1F0AD2C5F
:103C8000DD2091F08F2D807F803421F080E28E0D39
:103C9000883048F082E00E947A0B8091170287708A
:103CA000AA24A3948111A12C9F2C92942FE09222FC
:103CB000FBE0F91508F44CCDE92DF0E0E25CF44DA1
:103CC0000C945C2994ECE9169CE5F90609F4A6CC61
:103CD00044E752E16DE772E1E5ECEE16ECE5FE0635
:103CE00009F499CC98CFF9ECEF16FCE5FF0609F43E
:103CF000A4CC88F437ECE3163CE5F30609F498CC41
:103D000048E652E16CE572E198ECE9169CE5F906AB
:103D100009F481CC80CFEAECEE16ECE5FE0609F45E
:103D200091CC46E852E167E972E1FBECEF16FCE565
:103D3000FF0609F470CC6FCF21EDE2162CE5F206F8
:103D400009F495CCB8F48EECE8168CE5F80609F485
:103D500086CC08F481CCEFECEE16ECE5FE0609F417
:103D600083CC6EE089E0F0EDEF16FCE5FF0609F488
:103D700078CC51CF24EDE2162CE5F20609F47DCC87
:103D800078F482EDE8168CE5F80609F473CC61E06E
:103D900088E193EDE9169CE5F90609F435CC3BCFB3
:103DA000E5EDEE16ECE5FE0609F46ACCFDE5EF164E
:103DB000FF0609F470C92FCFF5EFEF16FCE5FF06FB
:103DC00009F4F2CA08F4ECCA36EFE3163CE5F30650
:103DD00009F457C01092D40292E0E9169CE5F90666
:103DE00008F4D6CBE6E1EE16ECE5FE0630F0C701AE
:103DF0008A5F9C45099708F0CBCB0E94761190937F
:103E00009F0280939E02F0E1EF16FCE5FF0609F4A5
:103E10008ECB08F007CB38E0E3163CE5F30609F457
:103E200074CB08F0D7CA94E0E9169CE5F90609F4CA
:103E300060CB08F0C0CAF2E0EF16FCE5FF0609F41B
:103E400052CB80919E02826023E0E2162CE5F206BE
:103E500009F44CCB80919E0290919F020E94A91080
:103E60000E94121518C935EFE3163CE5F30609F474
:103E70009BCA08F495CA96EFE9169CE5F90609F085
:103E800048CE27E245EE66EE92CE1F93CF93DF93A6
:103E90008091E401807FA9F48091E101882389F079
:103EA00080911602D091E5016091DF017091E001EF
:103EB000A091E201B091E301C62FC72316E0D81309
:103EC00004C0DF91CF911F91089590E0109711F0F9
:103ED000CF3F19F401968770F2CF189F9001199F78
:103EE000300D1124F901EA51FE4F41814713F2CF01
:103EF00040814613EFCF42814111ECCF4381548181
:103F00004A1B5B0B483C510528F78091E4018F70F8
:103F100080618093E401F901E551FE4F80818F704B
:103F2000806180838FED91E00E94ED17DF91CF914A
:103F30001F910C94E50AAF92BF92CF92DF92EF925D
:103F4000FF920F931F93CF93DF93CDB7DEB76197A7
:103F50000FB6F894DEBF0FBECDBF8C0185E0F8012F
:103F6000DE011D9601900D928A95E1F7F801E2803D
:103F70008FEDA82E81E0B82E6091E2017091E301EF
:103F80006115710509F432C19091DF014091E001A2
:103F9000892F84238F3F09F429C120813181C38077
:103FA000D480F090E101F601E61BF70BFF2009F445
:103FB000E8C08091E401582F507FE83CF10508F0FB
:103FC000ABC0511177C0FE2C431321C092131FC008
:103FD000E1101DC08F7080618093E401C5010E94D3
:103FE000ED178091E401F80185838F2D61960FB65E
:103FF000F894DEBF0FBECDBFDF91CF911F910F911F
:10400000FF90EF90DF90CF90BF90AF900895CD28B4
:1040100029F0822F83238F3F09F003C180E0F82F1E
:10402000F170DF2E80FF3CC0809116024091E501C7
:1040300056E0841315C02D873E878D859E850E948E
:104040002A11292F22952F702230F0F0243018F5F4
:104050009F70F1F0F8019581907FD1F4D12C1EC0B2
:1040600090E0589FF001599FF00D1124EA51FE4F46
:104070006181361306C06081261303C06281E61297
:104080000FC001968770D5CF9F7011F0882331F350
:10409000805E883018F3C8010E94ED17FD2CA5CF73
:1040A000EE2009F4A2CF8091E40181608093E401C5
:1040B000F12C9BCF431306C0921304C0F801EE20ED
:1040C00009F479C0C8010E943611882309F1EE2055
:1040D000F9F08091E401803270F02091DF0130919D
:1040E000E00138872F831986DB86CA868C87CE014C
:1040F00007960E94ED1786E0F801AFEDB1E0019060
:104100000D928A95E1F70E94451FFF24F3946DCF2D
:10411000C8010E94ED17F9CF51110AC08FED91E04F
:104120000E94ED1786E0F50111928A95E9F7C0CF5C
:1041300043130FC092130DC0E1100BC0F80185832B
:10414000C8010E94ED1786E0F50111928A95E9F702
:104150004CCFC8010E9436118823D1F2EE20C1F263
:104160008091E401803238F22091DF013091E0014A
:104170003A8329831B82DD82CC828E83CE01019615
:10418000B8CFE83CF105F8F6FE2CEE2009F2431317
:104190001FC092131DC08091E40180FD10C0982FB4
:1041A000907F69F0F8018583903F31F0982F907FE0
:1041B000905F8F70892B8583C8010E94ED1786E080
:1041C000F801AFEDB1E001900D928A95E1F70DCFC6
:1041D000C8010E94361181118ECF8091E401816067
:1041E0008093E401C8010E94ED17FFCEEE2009F490
:1041F0008FCFC8010E943611F82E882309F488CF8A
:1042000086E0F801AFEDB1E001900D928A95E1F7FB
:104210008091DF019091E0010E942A110E94451FC8
:10422000E4CE81E08E25FBCE1F93CF93DF93CDB7F5
:10423000DEB767970FB6F894DEBF0FBECDBF4B8BCE
:104240005C8B6D8B7E8B8F8B6111109219021A8A99
:10425000198A85E0FE017396DE011D9601900D928C
:104260008A95E1F786E0FE013D96DE011796019002
:104270000D928A95E1F7CE0107960E949B1F81114E
:1042800012C086E0FE013796DE01119601900D9274
:104290008A95E1F78A859B85892B29F088859F81FE
:1042A00089238F3FB1F516E0809116029091E501C8
:1042B00089131DC067960FB6F894DEBF0FBECDBF41
:1042C000DF91CF911F91089596E0929FD001939F27
:1042D000B00D1124AA51BE4FFE01319601900D92EE
:1042E0009A95E1F78093E5010E94E50ADCCF819F72
:1042F000C00111248A519E4F0E949B1F8823D1F236
:104300008091160290E0019687709927809316029B
:10431000CBCF2091E50130E0C90101968770992744
:10432000409116024817190679F60E94121510924C
:10433000E5011092160286E0EFEDF1E0DF011D923B
:104340008A95E9F7B0CF1F920F920FB60F92112402
:104350002F933F934F935F936F937F938F939F938D
:10436000AF93BF93CF93DF93EF93FF93D091E90087
:10437000DF708091EC00C82FC17080FDC0E8109202
:10438000E9008091F000877F8093F00078940E948C
:1043900027151092E9008091F00088608093F0006A
:1043A000CD2BCF70C093E900FF91EF91DF91CF91BA
:1043B000BF91AF919F918F917F916F915F914F913D
:1043C0003F912F910F900FBE0F901F9018951F9245
:1043D0000F920FB60F9211242F933F934F935F9339
:1043E0006F937F938F939F93AF93BF93EF93FF93BD
:1043F0008091E10082FF09C08091E20082FF05C048
:104400008091E1008B7F8093E1008091DA0080FF52
:1044100024C08091D80080FF20C08091DA008E7F78
:104420008093DA008091D90080FF9BC080E189BD34
:1044300082E189BD09B400FEFDCF81E08093C8020E
:104440008091A302811109C00E9419040E94E40412
:104450008091E20084608093E2008091E10080FF1F
:1044600017C08091E20080FF13C08091E2008E7F30
:104470008093E2008091E20080618093E20080916D
:10448000D80080628093D80019BC85E08093C80270
:104490008091E10084FF29C08091E20084FF25C063
:1044A00080E189BD82E189BD89B5982F917080FF37
:1044B000FBCF8091D8008F7D8093D8008091E10060
:1044C0008F7E8093E1008091E2008F7E8093E200F6
:1044D0008091E20081608093E2008091C90288238C
:1044E00009F445C084E08093C8028091E10083FF15
:1044F00027C08091E20083FF23C08091E100877F85
:104500008093E10082E08093C8021092C9028091FA
:10451000E1008E7F8093E1008091E2008E7F8093A6
:10452000E2008091E20080618093E20042E060E07E
:1045300080E00E94B2048091F00088608093F000D7
:10454000FF91EF91BF91AF919F918F917F916F916B
:104550005F914F913F912F910F900FBE0F901F9041
:10456000189519BC1092C8021092A30276CF8091C0
:10457000E30087FD93E09093C802B7CF78941F9231
:104580001FB61F9211248F939F93AF93BF93809177
:104590009A0290919B02A0919C02B0919D0201967B
:1045A000A11DB11D80939A0290939B02A0939C023F
:1045B000B0939D02BF91AF919F918F911F901FBEAD
:1045C0001F9018951F921FB61F9211248F939F93CF
:1045D000AF93BF9380919902811113C080919A0289
:1045E00090919B02A0919C02B0919D024196A11DC9
:1045F000B11D80939A0290939B02A0939C02B0936A
:104600009D02BF91AF919F918F911F901FBE1F90F0
:104610001895CDB7DEB7AA970FB6F894DEBF0FBED8
:10462000CDBF84B7877F84BF0FB6F894A8958091DB
:104630006000886180936000109260000FBE80E887
:1046400090E00FB6F89480936100909361000FBEE4
:1046500085B7806885BF85B7806885BF86EB98E0A1
:1046600090939B0180939A010E9419040E94E40494
:104670008091E20084608093E20078948091C80287
:104680008823A1F01091E9001F709091EC00892F10
:10469000817090FD80E8182B1092E9008091E8006D
:1046A00083FD0E9427151F701093E90082E084BDEE
:1046B00093E095BD9AEF97BD80936E000E945D11C7
:1046C000811102C00E94951000E511E0F80181916E
:1046D0008F018F3F11F00E94B808F1E005351F07E8
:1046E000A9F705E511E0F80181918F018F3F11F0E5
:1046F0000E94B808F1E005361F07A9F710922302BF
:104700001092220210923C0210923B02109225025B
:104710001092240210923E0210923D021092270243
:10472000109226021092400210923F02109229022B
:1047300010922802109242021092410210922B0213
:1047400010922A02109244021092430280E590E0F7
:104750000E94E229AC01909321028093200230E074
:1047600020E0FA01E20FF31F90E111929150E9F776
:10477000205F3F4F20353105A1F70E94E1148111E0
:1047800002C00E94141382E090E00E949A29809354
:1047900030020E94761190939F0280939E020E94A5
:1047A0007E138FE39CE90197F1F700C000000E949F
:1047B0007E1380913B0280FF08C06FEF7FEF90E097
:1047C00080E00E94CC290E94010D83E090E00E94CD
:1047D0009A290E94A10B549A5C9A259A2D9882E8F6
:1047E0008093800089E1809381008FEF9FEF909309
:1047F0008700809386000E94EC140E94EC14809144
:104800002C02811133C00E94E114811104C00E9466
:1048100014130E94041388E090E00E94A229609380
:104820008D0270938E0280938F02909390026E7F20
:1048300071F40E94041388E090E00E94A229609322
:104840008D0270938E0280938F02909390020E944B
:10485000CE061092590280918D0280FF04C060E064
:1048600086950E94A81281E080932C0280919E027E
:10487000806880939E0280919E0290919F020E9488
:10488000A91086E091E0909396028093950230E41F
:10489000232E8091C802FF24F39400E112E18530B9
:1048A00009F406C20E947E13882359F08FB7F8944A
:1048B00040919A0250919B0260919C0270919D02DE
:1048C0008FBF9BE3692E92E0792E21E3C22E22E076
:1048D000D22E512C412CF301A190B1903F01F60151
:1048E000E190F1906F01EA14FB04A9F1312C01E091
:1048F00010E0EA24FB244F01F2E08F1A9108C7016F
:1049000080239123892B09F139A24AA221E0C50114
:1049100080239123892B09F420E02BA30E94B50565
:104920008160782F9DA38CA349A15AA16BA18DA171
:104930000E941421F4018081918180279127918325
:1049400080835394FBE0F515E0F03394000F111FC2
:1049500020E13212D4CF439445E04412BCCF511031
:1049600010C08FEF8EA38FA318A60E94B50581609B
:10497000782F9AA789A74EA15FA168A58AA50E9452
:104980001421809159028823D1F180915802E0913D
:104990008D02E695E81BE0935402823009F0A7C12E
:1049A000F0E0EE57FD4FE4910E2F10E0B5E8EB2E4E
:1049B000BFE0FB2E80915502882361F010925502D2
:1049C0000E94B505909353028093520210925702B1
:1049D000109256020E94B505E0915202F0915302E6
:1049E0008E1B9F0B8F3F9F4750F4E00FF11FF093FA
:1049F0005302E093520282E592E0F701099586E0C6
:104A0000ECE4F2E0DE01119601900D928A95E1F757
:104A1000F0904E02E0904F0210915002009151022E
:104A200010924E0210924F021092500210925102B8
:104A30008F2D8E2909F448C080914A0290914B0233
:104A40000E94A6059C0190914602992309F4D5C3C2
:104A500023333105C8F19F3F19F09F5F90934602C1
:104A6000FF2059F00E943C089FEF1F140CF491E0C6
:104A7000899F802D112480934E02EE2059F00E94D0
:104A80003C089FEF1E140CF491E0899F802D1124A7
:104A900080934F0230914E023323B1F020914F02A8
:104AA000222391F045EB3403C0011124992309F42A
:104AB00078C190934E0245EB2403900111243323D7
:104AC00009F473C130934F02812F802B09F448C041
:104AD00080914802909149020E94A6059C01909104
:104AE0004502992309F484C325363105C8F19F3F57
:104AF00019F09F5F90934502112359F00E941A0804
:104B00009FEF11160CF491E0899F802D1124809362
:104B10005002002359F00E941A089FEF10160CF45F
:104B200091E0899F802D1124809351023091500291
:104B30003323B1F020915102222391F045EB34034D
:104B4000C0011124992309F434C19093500245EB1C
:104B5000240390011124332309F42FC1309351020F
:104B600080914E0290914F02892B90915002892B97
:104B700090915102892B11F00E947A0786E0FE0184
:104B80003196ACE4B2E001900D928A95E1F70E9473
:104B90004C0690912F02891731F00E944C068093A9
:104BA0002F020E94680C8091C802843009F071CEF7
:104BB00083E08093E9008091E80082FF6ACE8091D3
:104BC000E80090E085FF06C00E943804882309F4BD
:104BD000F8C091E08091E8008B778093E8009923FA
:104BE00009F457CEE981E150E33108F087C1F0E0E4
:104BF000E65BF44D0C945C298091C802843009F482
:104C000045C080E00E94580680E00E94680C109227
:104C1000590280912E02811116C0F0922E028091CD
:104C20008D02982F917090932D028E7F80938D022C
:104C30009FEFE0E7F2E09150E040F040E1F700C084
:104C400000000E94250D1092990288E190E00FB6B5
:104C5000F894A895809360000FBE2092600083B7FF
:104C6000817F846083BF83B7816083BF7894889598
:104C700083B78E7F83BF0FB6F894A89580916000AC
:104C8000886180936000109260000FBE8091C7021F
:104C9000882371F00E947E13EBE3F2E08191919101
:104CA000892B09F086C285E492E08E179F07B1F741
:104CB0008091C802853009F49FCF0E9412150E948E
:104CC000EC140E944C060E94680C10922E028091F7
:104CD0002D02882349F080918D02816080938D029E
:104CE00060E086950E94A8120E948411DBCD863078
:104CF00059F4F0E0E158FD4FE4910E2F10E0A5E7E4
:104D0000EA2EAFE0FA2E56CE893061F4E695F0E057
:104D1000E458FD4FE4910E2F10E0FBEDEF2EFEE086
:104D2000FF2E48CE8F3061F4E695F0E0E758FD4F56
:104D3000E4910E2F10E0E4E7EE2EEEE0FE2E3ACEE8
:104D4000853159F4F0E0EA58FD4FE4910E2F10E060
:104D500073E2E72E7EE0F72E2DCE08E210E046E962
:104D6000E42E4DE0F42E883109F424CE833249F448
:104D7000E4E7F2E00591149169E1E62E6FE0F62E8A
:104D800019CE04EF11E05AE5E52E5DE0F52E8432F0
:104D900009F410CE00ED17E03DECE32E36E0F32EE3
:104DA00009CE81E080934E0286CE81E080934F024F
:104DB0008BCE81E080935002CACE81E08093510275
:104DC000CFCE00E210E0CE0101967C018091E80098
:104DD00085FD0AC08091E8008B778093E8000E94EF
:104DE0003804882399F3F5CE8091F100F70181937F
:104DF0007F010150110951F7ECCE1A8289E08B83B3
:104E00001AC08A81823009F4EAC18330D9F1813035
:104E100009F074C02FB7F89460919A0270919B02C8
:104E200080919C0290919D022FBF0E9462296B830A
:104E30007C838D839E838091C802843009F029CDC4
:104E40001091E9001F709091EC00892F817090FD06
:104E500080E8182B82E08093E9008091E80080FFD1
:104E60000DC050E040E060E270E0CE0101960E948B
:104E700069048091E8008E778093E8001F7010939A
:104E8000E90007CD80913B0290913C029827892749
:104E900098279C838B8380913D0290913E029827B6
:104EA000892798279E838D8380913F0290914002AD
:104EB00098278927982798878F838091410290911E
:104EC00042029827892798279A87898780914302E9
:104ED000909144029827892798279C878B87ABCF8E
:104EE0008A81823059F46B817C818D819E810E9400
:104EF000622986E290E00E94AE299DCF8FEF8983E0
:104F00009ACF4C816B818A810E94C810982789278B
:104F100098279E838D838FCFED80FE80FE24EF2423
:104F2000FE248A810B81F0E20F9F8001112420EA88
:104F3000829F000D111D11248C8190E0880F991F14
:104F4000080F191F6F2DC80187960E94AE296E2D7C
:104F5000C8018896D0CF0E942A106DCF8A818930EF
:104F600061F48B8143E0849FC00111246FEF70E0F6
:104F70000E941229862F0E94B2068A818138C1F0D0
:104F800060F4803809F057CF20E04B8160918F02A8
:104F900080918E020E94AC114ECF823859F1833835
:104FA00009F049CF20E0409190026C818B81F2CFD3
:104FB00060E08B810E94A8129B8180918D029111EB
:104FC00011C08E7F80938D02109259028FEF90E76F
:104FD000E2E081509040E040E1F700C000000E9414
:104FE000250D29CF816080938D0260E086950E9417
:104FF000A81221CF8B81809391021DCF8A818930A5
:1050000059F08A30C1F0813821F1B8F4803809F0C4
:1050100012CF80919002F3CE809192028695869570
:105020008695FFEF8F9FC001112463E070E00E941E
:1050300012296B8300CF1B82FECE823891F0833819
:1050400009F0F9CE80918E028B8380918F028C8340
:10505000F2CE80918D0280FF02C08695D0CE80E096
:10506000CECE80919102CBCE809192020E94A4106C
:1050700060918D0270918E0280918F0290919002CA
:105080000E949A11D8CE80E18A83D5CE81E08A83AE
:1050900089E5B5CE0A811B81102701271027CE0193
:1050A00001966C01EC80FC01EE0DF11D7F01C80141
:1050B00089559D4FEC14FD0409F4BDCE0935F1E08E
:1050C0001F0750F40E949A29F60184830F5F1F4F37
:1050D000FFEFCF1ADF0AEBCFF6011482F7CF0A8178
:1050E0001B81102701271027CE0101966C01EC804F
:1050F000E00EF12EF11CC80189559D4FE016F10616
:1051000009F499CE0935E1E01E0720F4F601648127
:105110000E94AE29FFEFCF1ADF0A0F5F1F4FEBCFC0
:105120000E941A1088CE84E0AFCF0A811B8110271D
:1051300001271027CE0101966C01EC80FC01EE0DD9
:10514000F11D7F01C8018796CE14DF0409F473CEE8
:105150000038F2E01F0750F40E949A29F601848378
:105160000F5F1F4FFFEFCF1ADF0AECCFF60114825B
:10517000F7CF0A811B81102701271027CE01019646
:105180006C01EC80E00EF12EF11CC80187960E1523
:105190001F0509F450CE0038E2E01E0720F4F601A6
:1051A00064810E94AE29FFEFCF1ADF0A0F5F1F4F05
:1051B000ECCF09BD19BD09B400FEFDCF8091D80028
:1051C0008F7D8093D8008091E00082608093E00022
:1051D0008091E00081FDFCCF0E94121569CD86E22E
:1051E00090E00E949A291B821C821D828E8323CE0E
:1051F0002D32314008F07DCCB3CC2D32314008F057
:105200002CCC62CCDB018F939F930E948729BF91A6
:10521000AF91A29F800D911DA39F900DB29F900D05
:1052200011240895AA1BBB1B51E107C0AA1FBB1F75
:10523000A617B70710F0A61BB70B881F991F5A9522
:10524000A9F780959095BC01CD01089597FB072E95
:1052500016F4009407D077FD09D00E94122907FCAC
:1052600005D03EF4909581959F4F08957095619576
:105270007F4F0895A1E21A2EAA1BBB1BFD010DC092
:10528000AA1FBB1FEE1FFF1FA217B307E407F507F6
:1052900020F0A21BB30BE40BF50B661F771F881FD2
:1052A000991F1A9469F760957095809590959B0168
:1052B000AC01BD01CF010895EE0FFF1F0590F491E1
:1052C000E02D09946927962769277827872778276B
:1052D00008950E947129332312F48A1B9B0B0C94AE
:1052E0008229A29FB001B39FC001A39F700D811DB1
:1052F0001124911DB29F700D811D1124911D0895DF
:105300000E947129B7FF0895821B930B08950E9494
:105310007129A59F900DB49F900DA49F800D911DA4
:1053200011240895B7FF0C9487290E948729821BB6
:10533000930B0895F999FECF92BD81BDF89A9927F4
:1053400080B50895A6E1B0E044E050E00C94D42983
:10535000A8E1B0E042E050E00C94D429262FF9995E
:10536000FECF92BD81BDF89A019700B4021639F0C4
:105370001FBA20BD0FB6F894FA9AF99A0FBE089595
:105380000396272F0E94AF290E94AE29252F0E9445
:10539000AF29242F0C94AF290196272F0E94AF2903
:1053A0000C94AE29DC01CB01FC01F999FECF06C0BB
:1053B000F2BDE1BDF89A319600B40D9241505040D3
:1053C000B8F708950F931F93CF93DF939C01029733
:1053D00010F422E030E0E0919C01F0919D0190E01A
:1053E00080E0B0E0A0E0309791F4009709F445C068
:1053F000821B930B84309105B8F58A819B816115DE
:10540000710569F1FB0193838283FE0111C0408124
:1054100051810281138142175307F0F0421753075D
:1054200099F4109761F012960C93129713961C93AF
:105430003296CF01DF91CF911F910F910895009384
:105440009C0110939D01F4CF009719F0481759075C
:1054500018F4CA01BD01EF01DF01F801C4CF909338
:105460009D0180939C01D1CFFE01E80FF91F21938C
:105470003193029799838883DCCF80919E0190912C
:105480009F01892B41F48091020190910301909337
:105490009F0180939E0180910001909101010097EE
:1054A00041F48DB79EB74091040150910501841BD2
:1054B000950B40919E0150919F014817590708F0A4
:1054C000B8CF841B950B8217930708F4B2CFB901AC
:1054D0006E5F7F4F8617970708F4ABCF640F751F79
:1054E00070939F0160939E01FA0121933193A1CFA4
:1054F000CF93DF939C010097E9F0FC013297138270
:105500001282C0919C01D0919D01DE0190E080E06B
:105510002097A1F480819181280F391F80919E01ED
:1055200090919F018217930709F067C0F0939F0144
:10553000E0939E01DF91CF910895DA01AE17BF0786
:1055400008F041C012964D915C911397CD01411521
:10555000510599F7DC011396FC93EE9312974D9148
:105560005D91A40FB51FEA17FB0781F420813181FB
:105570002E5F3F4F240F351FDC0111963C932E9375
:105580002281338113963C932E931297B0E0A0E0D2
:105590008A819B810097B1F5FE0181919191E80F7D
:1055A000F91F80919E0190919F018E179F0711F620
:1055B000109759F510929D0110929C01D0939F0174
:1055C000C0939E01B7CFB383A28340815181240F42
:1055D000351FA217B30771F44E5F5F4F2D913C91B9
:1055E0001197420F531F5183408312962D913C9186
:1055F00033832283009709F0ADCFF0939D01E093B0
:105600009C0198CFDE01EC01C3CF13961C921E9231
:105610001297D4CFFC014150504030F00190061653
:10562000D1F73197CF010895882799270895FB0175
:10563000DC0104C08D910190801921F4415050404B
:10564000C8F7881B990B0895F894FFCF48114811AB
:10565000511151115311511151115111481148114A
:1056600058115111511158110C163416D517341602
:10567000D51767168816D51786179317711B711BD8
:10568000E61BE61B441C5E1CA81BA81B691CD61C41
:10569000E71CE71CFD260127702781278C27AB27F5
:1056A000AE27FE2734287E277E27432846284A280F
:0A56B0006F28902893289528B92848
:1056BA000000DA022000A305C10CA00C9C0C980C77
:1056CA0001191A1B1C1D1E1F202122010201018122
:1056DA008283E200E900EA00B500B600B700CD0017
:1056EA008301CC008A01920194012102230224023F
:1056FA002502260227022A02B300B4006F007000B6
:10570A003790F0F1F43031323391929396973436E0
:10571A006667F7F6F50001020202020606060909A3
:10572A00090909090F0F0F0F0F0F15151518191968
:10573A00191919191919191923244022B684016251
:0A574A0001AC001D073607560700EA
:00000001FF
