:100000000C946A030C94B1030C94B1030C94B103E7
:100010000C94B1030C94B1030C94B1030C94B10390
:100020000C94B1030C94B1030C94D42B0C94892A36
:100030000C94961F0C94B1030C94B1030C94B1036F
:100040000C94B1030C94B1030C94B1030C94B10360
:100050000C94B1030C94581F0C94B1030C94B1038D
:100060000C94B1030C94B1030C94B1030C94B10340
:100070000C94B1030C94B1030C94B1030C94B10330
:100080000C94B1030C94B1030C94B1030C94B10320
:100090000C94B1030C94B1030C94B1030C94B10310
:1000A0000C94B1030C94B1030C94B10334083708D9
:1000B000590866086D088D082309230923092309B7
:1000C0002309900892089708BB08DC08DF08E208BB
:1000D00004099C07A209D509190A5A0AA40AF00AB8
:1000E000F30AF60AF90AFE0A010B040B070B0C0BC4
:1000F000110B140B170B1A0B1D0B220B640B1A0C94
:10010000B30CB60CBB0CBE0CC10CC40CC70C241C2D
:10011000241C5E1C5E1CB71C5E1E5E1E5E1ED31C75
:10012000B11DC21DC21D702170218321832179213F
:10013000832183218321702170217E2183218321CA
:100140007E219D28C4286B2AC4286B2A10293329B4
:100150006B2A282A382A000101010101010101014D
:100160000202020202020202020303030303030368
:100170000304040404040404050505050506060635
:100180000606070707070708080808090909090AF2
:100190000A0A0B0B0B0C0C0C0D0D0D0E0E0E0F0F97
:1001A0000F10101111111212131314141515161625
:1001B0001717181819191A1A1B1B1C1D1D1E1E1F94
:1001C0002020212222232424252626272829292AE3
:1001D0002B2C2D2D2E2F303132323334353637380B
:1001E000393A3B3C3D3E3F40414243444546474807
:1001F000494A4C4D4E4F50515354555658595A5BDD
:100200005D5E5F616264656668696B6C6D6F70727C
:10021000737577787A7B7D7E8082838587888A8CE8
:100220008E8F91939596989A9C9EA0A2A3A5A7A91C
:10023000ABADAFB1B3B5B7BABCBEC0C2C4C6C9CB13
:10024000CDCFD1D4D6D8DBDDDFE2E4E7E9EBEEF0C9
:10025000F3F5F8FAFDFF165C1E001F0020002100D8
:100260002200230024002500260027002D002E0058
:100270002A004A002B0014001A000800150017007D
:100280001C0018000C00120013002F003000310079
:100290004B00390004001600070009000A000B009B
:1002A0000D000E000F0033003400000028004E0047
:1002B000E1001D001B0006001900050011001000E0
:1002C000360037003800E500000052004D00E00025
:1002D000E300E200000000002C0000000000E60047
:1002E000000001515000000051004F00165C3A0020
:1002F0003B003C003D003E003F004000410042000A
:100300004300440045004C004A000100C25CC35C4D
:10031000C55CC65CC75CC85CC95CCA5C01004600C1
:1003200047004800005C4B000100CB5CCC5C010046
:1003300001000100010001000100010001000100B5
:100340000000DE5C4E00E100010001000100010040
:100350000100010001000100010001000100000096
:10036000A900A80001000100010000000000010038
:1003700000000000010000000100AC000000AA0025
:10038000AB000100010001000100010001000100BB
:100390000100010001000100010001000100010055
:1003A0000100010001000100010001000100010045
:1003B0000100010001000100010001000100010035
:1003C0000100010001000100010001000100010025
:1003D0000100010001000000010001000100010016
:1003E0000100010001000100010001000100010005
:1003F00001000100000001000100010001000100F6
:1004000000000000010000000000010000000100E9
:1004100001000000010001000100010001000100D5
:1004200001000100010001000100010001000100C4
:1004300001000100010001000100010001000100B4
:1004400001000100010001000100010001000100A4
:100450000100010001000100010001000100010094
:100460000100010001000100010001000000010085
:100470000100010001000100010001000100010074
:100480000100010001000100010000000100010065
:100490000100010001000000000001000000000058
:1004A0000100000001000100000001000100000047
:1004B000000000000000000000000000000000003C
:1004C000000000000000000000000000000000002C
:1004D00000007E0F00D4FFFFFFC70000007800007F
:1004E0000000000000002A2B28000000000000008F
:1004F00000000000000000000029000000002C1E89
:100500003420212224342627252E362D3738271E45
:100510001F202122232425263333362E37381F046B
:1005200005060708090A0B0C0D0E0F101112131403
:1005300015161718191A1B1C1D2F3130232D3504C1
:1005400005060708090A0B0C0D0E0F1011121314E3
:1005500015161718191A1B1C1D2F3130354C0501A3
:100560000980A101850319012AB700150126B700EA
:10057000950175108100C0050C0901A101850419C0
:10058000012AA002150126A002950175108100C064
:1005900005010906A1018505050719E029E71500F0
:1005A00025019508750181020507190029EF15003D
:1005B000250195F0750181020508190129059505A8
:1005C00075019102950175039101C00660FF0961F3
:1005D000A1010962150026FF009520750881020916
:1005E00063150026FF00952075089102C0050109DA
:1005F00006A101050719E029E715002501950875F1
:100600000181029501750881010507190029FF156F
:100610000026FF00950675088100050819012905C7
:10062000950575019102950175039101C009025B61
:1006300000030100A0FA0904000001030101000900
:100640002111010001224000070581030800010972
:10065000040100020300000009211101000122220F
:10066000000705820320000107050303200001099C
:100670000402000103000000092111010001226DA4
:10068000000705840320000112011001000000088A
:10069000424B251202000102000122034B004200DE
:1006A0004400360037006D006B004900490020000F
:1006B0005200470042002000760032000000100384
:1006C0004B0042004400660061006E0073000000B1
:1006D0000403090411241FBECFEFDAE0DEBFCDBF53
:1006E00004B603FE27C08091A9069091AA06A091A6
:1006F000AB06B091AC068730904BA740B04BD1F41D
:100700001092A9061092AA061092AB061092AC069F
:1007100014BE84B7877F84BF0FB6F894A8958091E4
:100720006000886180936000109260000FBEE0E07E
:10073000F8E3099513E0A0E0B1E0EAE0F2E602C0D8
:1007400005900D92AA39B107D9F726E0AAE9B3E0DE
:1007500001C01D92A93AB207E1F70E94B3030C94BD
:1007600003310C940000CF93DF93CDB7DEB7C354B1
:10077000D1090FB6F894DEBF0FBECDBF84B7877F17
:1007800084BF0FB6F894A89580916000886180932B
:100790006000109260000FBE90E080E80FB6F89401
:1007A00080936100909361000FBE85B7806885BF1C
:1007B00085B7806885BF87EB9EE190939B0380930C
:1007C0009A030E94CD2A0E94732B8091E2008460DC
:1007D0008093E2007894809163068823A1F01091C1
:1007E000E9001F709091EC00892F817090FD80E8E6
:1007F000182B1092E9008091E80083FD0E94B72732
:100800001F701093E90082E084BD93E095BD9AEFDC
:1008100097BD80936E0080EF0E94811481EF0E944B
:10082000811484EF0E94811486EC0E94811486E674
:100830000E94811403E211E0D8018D918D010E9484
:100840008114B1E002331B07B9F7EEE9F3E088EA5F
:1008500093E0AAE3B4E0119211921D921D928E17BB
:100860009F07C9F78BE490E00E94D92FAC019093C9
:100870009D0380939C0320E030E08BEFFA01E20FB0
:10088000F31F90E081939F5F9F30E1F7215F3F4F1F
:100890002B34310599F780E090E00E94072F8A3EC3
:1008A0009E4F11F00E943A2082E090E00E94FF2EBD
:1008B00080932F040E9429209093A9038093A8037A
:1008C0000E9493168FE39CE90197F1F700C00000A6
:1008D0000E94931680913A0480FF17C06FEF83E265
:1008E00090E00E941D2F6FEF84E290E00E941D2F88
:1008F0006FEF85E290E00E941D2F6FEF7FEF80E0A9
:1009000090E00E943B2F0E94341F83E090E00E9401
:10091000FF2E682F70E080E090E00E944B220E9442
:10092000781010926D06E6E8F6E086E996E02FEF83
:100930003FEF219331938E179F07D9F71092AD03A4
:10094000E6ECF3E086ED93E02FEF3FEF2193319358
:100950008E179F07D9F780E090E00E94072F8A3E0C
:100960009E4F21F00E943A200E94131346E050E06F
:100970006CE170E08AE996E00E94EF2E80919A0681
:100980008C7F11F40E94131383E290E00E94FF2EEB
:10099000813281F484E290E00E94FF2E863051F48F
:1009A00085E290E00E94FF2E91E0813109F090E015
:1009B000892F01C080E080FF8DC48091A8038068EA
:1009C0008093A8038091A8039091A9030E941C2002
:1009D0008CE091E09093AB038093AA03FE013196E3
:1009E0001F019E01255F3F4F3CA72BA78091630607
:1009F000853009F05BC060E4E62E11E070E1F72E6F
:100A000002E180916306853009F04AC08091630657
:100A1000843009F431C040E060E080E00E94E112DF
:100A200010932D0440E060E080E00E94E1121093FA
:100A30002D041092AC0348E150E00FB6F894A8954D
:100A4000409360000FBEE092600083B7817F8460B6
:100A500083BF83B7816083BF7894889583B78E7F87
:100A600083BF0FB6F894A895809160008861809349
:100A70006000109260000FBE80916206882309F426
:100A8000C0CF0E949316EAE3F4E081919191892B03
:100A900009F001C484E494E08E179F07B1F7B1CF49
:100AA0000E947A240E94581210922D040E949316DC
:100AB00081110E947E1FA0E3B4E0B8ABAFA7EEEDBA
:100AC000F3E0FBABEAAB2AE334E03DAF2CAF882484
:100AD0008394912C0FEF1CAA31E0300F3DAB9401B1
:100AE00021503109ACADBDADED91FD91BDAFACAFC5
:100AF000FAAFE9AFAFA5B8A98D919C91E827F92786
:100B0000F8AFEFABEF2B09F457C1BFE00B9FC0016B
:100B10001124FC01E252FC4FFEA7EDA7CAA8DBA8F6
:100B2000FFE0CF0ED11C4AA85BA811E066246394B5
:100B3000712C4FE0409FC0011124DC01A252BC4F38
:100B4000BFAFAEAF489DC001499D900D1124FC017F
:100B5000E252FC4F2296FFAFEEAF2297429FC001B8
:100B6000439F900D11249C0122523C4F24963FAF8D
:100B70002EAF24973FEF310F39AB8FA998AD862167
:100B80009721892B09F407C139A34DA94AA3E9ACE0
:100B9000FAACE620F72081E0E114F10409F480E0EA
:100BA0008BA30E948A1F8160782F9DA38CA349A1EB
:100BB0005AA16BA18DA10E948E11AFA5B8A98D91EC
:100BC0009C911197862597258D939C93EF2839F05A
:100BD000A10169A98DA90E94E5128EAB01C01EAAD0
:100BE000B091AD03BBAFEEA9EE2EF12CC7018B0F78
:100BF000911D09976CF188E0A82EB12CAE18BF08A2
:100C0000B70162557C4FA5018EEA93E00E94FA304D
:100C1000B7016A547C4FA50186EB93E00E94FA303D
:100C2000A501440F551FB701660F771F6A537C4F0C
:100C300086EC93E00E94FA30B70162547C4FA50124
:100C40008EEB93E00E94FA308BAD81508093AD0320
:100C5000F090AD03AE014F5F5F4F60E0862F8F0DC8
:100C6000BEA9B61709F190E0DA017D91AD01272FF9
:100C700030E0FC01E355FC4FD901AA0FBB1FA05681
:100C8000BD4FAC91A183220F331FD901AF55BD4F8A
:100C90002C912187718B880F991FFC01E355FC4F24
:100CA000128E118E6F5FDACF8093AD0380919A061A
:100CB0008C7F843509F06AC08EEF810FE9A98E1709
:100CC00060F42496EEADFFAD2497E80FF11D20816E
:100CD00030E1230F08F42FEF2083D2012C9130E272
:100CE000230F08F42FEF2C931F3049F011962C910D
:100CF000119730E1230F08F42FEF11962C93B5E0F4
:100D00008B1609F1E9A98E1760F42296EEADFFADBE
:100D10002297E80FF11D20813DE0230F08F42FEF0B
:100D20002083D6012C9130E1230F08F42FEF2C9370
:100D30001F3049F011962C9111973DE0230F08F4D4
:100D40002FEF11962C93BDA90B1700F5E9A98E176B
:100D500050F4EEADFFADE80FF11D20813DE0230F13
:100D600008F42FEF2083ADA5BEA52C9130E1230F11
:100D700008F42FEF2C931F3049F011962C91119706
:100D80004DE0240F08F42FEF11962C935CA95F5FC0
:100D90005CAB5C30C0F5660C771C1F5F8DA59EA513
:100DA00001969EA78DA79FEFC91AD90AAFEF4A1ADD
:100DB0005A0A103109F0DECEEFA5F8A93296F8AB49
:100DC000EFA72AA93BA9215F3F4F3BAB2AAB3FEFDF
:100DD000831A930A0DA946E08416910409F07CCE8B
:100DE0005CA9511110C08FEF8EA38FA318A60E948B
:100DF0008A1F8160782F9AA789A74EA15FA168A555
:100E00008AA50E948E118091D6039091D703A0915C
:100E1000D803B091D9032FB7F894C0902904D0908B
:100E20002A04E0902B04F0902C042FBFC81AD90A92
:100E3000EA0AFB0A0E947E1F6093D6037093D703D1
:100E40008093D8039093D903A091AD03EDEAF3E02A
:100E50002A2F30E088248A94982CA12CB12C8C184D
:100E60009D08AE08BF08A31799F0418D528D2A0145
:100E7000612C712C84149504A604B70410F421503D
:100E800004C04C0D5D1D528F418F3F5F3296EBCFFA
:100E90002093AD0320912D04211108C010919A06D2
:100EA000212F237019F01695169501C010E020919E
:100EB0001A012130E9F038F0223009F45BC0233008
:100EC00009F462C07EC01092170160939606709379
:100ED0009706809398069093990689E2EDEAF3E0ED
:100EE000ADE6B6E001900D928A95E1F781E03FC052
:100EF00080910B0118130DC020919A06237030E0E9
:100F000040910A0150E081E02417350719F480E090
:100F100001C081E081708093190180919F069091BA
:100F20001801981709F4EFC18093180140E060E0C0
:100F300080E00E94E112E7C180911901882329F025
:100F400040E060E080E00E94E11280E090911701B3
:100F50009F5F909317018111E1C182E080931A0194
:100F6000809119018111DAC11111DBC183E08093F5
:100F70001A0127C010930B0180919A068370809309
:100F80000A010E94D30FF2CF409196065091970626
:100F900060919806709199062FB7F8948091290472
:100FA00090912A04A0912B04B0912C042FBF841B94
:100FB000950BA60BB70B4097A105B10510F0109249
:100FC0001A010E94581290912E04891721F00E9454
:100FD000581280932E0480916306843009F006CD68
:100FE00083E08093E9008091E80082FFFFCC80914C
:100FF000E80085FF23C00E94EC2A81111DC080E219
:10100000E82EF12C8E010F5F1F4F09C08091F10077
:10101000D8018D938D01B1E0EB1AF10869F0809150
:10102000E80085FDF3CF8091E8008B778093E8009E
:101030000E94EC2A882399F391E001C090E080910E
:10104000E8008B778093E800992309F4CFCCE981FD
:101050008E2F90E0FC013197E331F10508F0F3C0E9
:10106000EA5AFF4F0C94CC2F1A8289E05EC08A8125
:10107000823009F426C1833051F0813009F0E3C099
:101080000E947E1F9B838C837D836E83DEC0FE0166
:101090003196AAE3B4E08C9111969C911197129627
:1010A0009283838332962BA53CA52E173F0799F791
:1010B000CCC08A81823009F0C6C06B817C818D8171
:1010C0009E810E94D22F86E290E024C04C816B81E9
:1010D0008A810E94A8129D83FBC00D811E8110276A
:1010E000012710278C81EB809A813EE1E39E7001FD
:1010F000112446E9949FE00CF11C1124E80EF11C28
:10110000E80EF11C612FC70187960E941D2F602FEA
:10111000C70188960E941D2F98C00E94741295C026
:1011200080E14EC081E08A8381E88B838EC00A8192
:101130001B81102701271027CC80D12C7101C801F9
:1011400081589D4F9701221933092C153D0508F050
:101150007CC0013851E0150730F40E94FF2ED70102
:1011600014968C9302C0F70114820F5F1F4FFFEF9C
:10117000EF1AFF0AE4CF0A811B81102701271027ED
:10118000CC80D12C7101C80181589D4F9701221943
:1011900033092C153D0508F058C0013821E012072D
:1011A00028F4D70114966C910E941D2F0F5F1F4FDA
:1011B000BFEFEB1AFB0AE7CF0E94641246C084E03F
:1011C0008A8343C00A811B81102701271027CC8006
:1011D000D12C7101C80187969701221933092C156A
:1011E0003D0598F50835E2E01E0730F40E94FF2E19
:1011F000D70114968C9302C0F70114820F5F1F4F22
:10120000FFEFEF1AFF0AE6CF0A811B8110270127A3
:101210001027CC80D12C7101C80187969701221923
:1012200033092C153D0588F4083522E0120728F40F
:10123000D70114966C910E941D2F0F5F1F4FBFEFB7
:10124000EB1AFB0AE9CF8FEF898380916306843024
:1012500009F0CCCB1091E9001F709091EC00892F20
:10126000817090FD80E8182B82E08093E9008091E6
:10127000E80080FF0CC040E050E060E270E0C10197
:101280000E948B278091E8008E778093E8001F7082
:101290001093E900ABCBF9BC09BD09B400FEFDCF4A
:1012A0008091D8008F7D8093D8008091E00082608B
:1012B0008093E0008091E00081FDFCCF0E947A24C1
:1012C000A0CB86E290E00E94FF2E1B821C821D8232
:1012D0008E83BBCF60E086E290E00E941D2F0E94CB
:1012E00074120E94641261E283E290E00E941D2F5A
:1012F00066E084E290E00E941D2F61E185E290E0CB
:101300000E941D2F5ACB812F90E08E319105A8F0BD
:10131000809117018F5F809317011FCE112309F46D
:1013200050CE0E94581281FF4CCE2FEF4FEF6FEF3F
:101330008EE190E00E94E31244CEFC01E759FF4F9A
:101340000C94CC2F009117018EE0089F002D1124E2
:10135000AEE0FA2EF00E83E48F1510F4F3E4FF2EC6
:1013600060919B0670919C0680919D060E94AB1334
:10137000E62ED72EC82E0F1590F4E02FF0E0DF01F7
:10138000AA5DBC4F8C9190911801982331F02C2DBF
:101390004E2D6D2DCF010E94E3120F5FECCF81E047
:1013A00092E49F1508F0D2CDD0CD009117018EE0C8
:1013B000089F002D1124EEE0FE2EF00EA3E4AF15E1
:1013C00010F473E4F72ED0909C06E0909D06C09038
:1013D0009B06B6018E2D0E94AB13B62EA72E982E1B
:1013E00060919E066C0D7D2D8E2D0E94AB13E62E16
:1013F000D72EC82E0F15B8F4802F90E0FC01EA5DBF
:10140000FC4F308120911801232359F030FF04C094
:101410002C2D4E2D6D2D03C0292D4B2D6A2D0E9494
:10142000E3120F5FE7CF81E0B2E4BF1508F08ECD85
:101430008CCD009117018EE0089F002D11246EE0E5
:10144000D62ED00EE3E4ED1510F453E4D52EB09073
:101450009C06A0909D0620919E0640E4C42E3C2D43
:10146000329F312D1124C32E0D1508F067C0E02ED8
:10147000F12CF701EA5DFC4F9081809118018923DE
:10148000B9F0F701EE0FFF1FEF55FD4F80818295F8
:101490008F7060919B068C9D600D11247B2D8A2D91
:1014A0000E94AB13462F282F672FC7010E94E3121B
:1014B0000F5FDACF009117018EE0089F002D1124F5
:1014C0002EE0D22ED00E53E45D1510F493E4D92E05
:1014D000B0909C06A0909D0620919E0680E4C82EA8
:1014E0003C2D329F312D1124C32E0D1538F5E02EE1
:1014F000F12CF701EA5DFC4F90818091180189235E
:10150000D9F0F701EE0FFF1FE056FD4F6081C69E38
:10151000B0011124B5E075956795BA95E1F7809112
:101520009B06680F7B2D8A2D0E94AB13462F282F18
:10153000672FC7010E94E3120F5FD7CF81E042E41B
:101540004D1508F003CD01CD009117018EE0089FE5
:10155000002D11247EE0F72EF00E53E45F1510F4F9
:1015600063E4F62ED0909B06E0909C06C0909D060A
:1015700060919E0666956695669580919606909117
:1015800097060E94A1130E942613805887FD81951B
:10159000880F282F3C2D239F212D1124822F6D2D64
:1015A0007E2D0E94AB13E62ED72EC82E0F1590F479
:1015B000E02FF0E0DF01AA5DBC4F8C919091180103
:1015C000982331F02C2D4E2D6D2DCF010E94E3126A
:1015D0000F5FECCF81E042E44F1508F0B7CCB5CCFB
:1015E0008CEA9EE008C08CE49FE018C080E39FE096
:1015F00010C08AEA9EE00E949B25A8CC81EA9EE06A
:10160000FACF88E99EE0F7CF8DE79EE0F4CF8EE633
:101610009EE00E94C3249ACC88E793E10E943F2574
:1016200095CC8FE19FE0FACF8BE09FE0F2CF80E492
:101630009EE005C08EE09EE002C080ED9DE00E942D
:10164000E52584CC8091190181111EC060919E0610
:1016500020E1620F08F46FEF809196069091970653
:101660000E94A1136AE070E00E94A42F892B09F068
:101670006CCC0E94DF2E63E470E00E94B82F609172
:1016800018010E943B1461CC809117019EE0899F54
:10169000802D11240EE0080F043408F003E4E82E36
:1016A000F12CC02ED12CEC14FD044CF460911801E7
:1016B000C7010E943B145FEFE51AF50AF4CF81E001
:1016C000033408F443CC41CCE09017018EE0E89E4F
:1016D000002D1124800F8DA78C3410F09BE49DA762
:1016E00080911901882361F040E060E080E00E9471
:1016F000E1128BE4EEEDF3E0DF011D928A95E9F74C
:1017000080911701811120C02091DB033091DC030F
:101710004FB7F8948091290490912A04A0912B044A
:10172000B0912C044FBF821B930B21E089319105AE
:1017300008F420E02093DA03499730F00E948A1FD2
:101740009093DC038093DB03E02EF12CBDA56B2E80
:10175000712C5AEA552EE614F7040CF065C0C70147
:1017600065E070E00E94B82F6B014C012FE0289FCC
:10177000F001299FF00D1124E252FC4FE60FF71FF4
:101780000081A1010E94E512482E51018A2D821983
:10179000841508F031C0D501EC91F0E0EA5DFC4F12
:1017A000908180911801892319F1302F25E5321B92
:1017B00008F430E070919C06252D200F08F42FEFDF
:1017C00040919D0652E0259F200D11242E5F249FFD
:1017D000212D1124652D631B822F0E94AB13462FF0
:1017E000D5019C91282F672F892F90E00E94E3124A
:1017F000BFEFAB1ABB0ACACF8091DA03882381F00E
:1018000021E0021B08F400E03FE0389DC001399D53
:10181000900D112482529C4FFC01EC0DFD1D0083A4
:101820004FEFE41AF40A97CF81E05DA55B3408F42A
:101830008DCB8BCB80911901882371F040E060E063
:1018400080E00E94E1128BE4EEEDF3E0DF011D92F7
:101850008A95E9F71092DD039EEDC92E93E0D92E0B
:10186000712C66246A9420EDA22EB12C30EC532EFC
:101870004FE2842E912C760100E001110CC0809182
:10188000DD03811108C00E94DF2E853595401CF4D0
:10189000F601608206C0D7018C9181508E3F08F41A
:1018A0008C93A101672D802F0E94E512882309F1F6
:1018B000F70140813981413D70F050E0405D5109B0
:1018C000549EC001559E900D1124B4010E94A42F76
:1018D000262F4FEF0AC0FFEF4F9FC0011124B50123
:1018E0000E94A42F462F20E060E0832F90E00E940A
:1018F000E3120F5F2FE0E20EF11C053009F0BDCFBF
:1019000073943FEFC31AD30A4FE07412B4CF80919F
:10191000DD038F5F8D3118F48093DD0316CB1092B9
:10192000DD032BE034E084E04EEFAEEDB3E0F901EF
:101930009FE0843041F4DC965C91DC975F3F19F4C2
:10194000DC964C93DC9750815F3F11F440835787BE
:101950009150319611969111ECCF81502F50310951
:101960008111E3CFF2CA89EC9DE002C083EC9DE0D7
:101970000E944626EBCA8AEA9DE00BC082E79DE002
:1019800008C080E49DE005C088E29DE002C082E1DD
:101990009DE00E94B226DACA8334910540F5880F93
:1019A000991F880F991FFC01E65CFE4F528133811D
:1019B000808183707181A82FB0E0E0E98E9FC00123
:1019C0001124825A9B4FFC01E70FF11DB4976083ED
:1019D000FC01E50FF11DB4974083830F911DFC01BD
:1019E000B4972083FD01E45AFB4F81E08083089582
:1019F000FF920F931F93CF93DF93182F062FF42E90
:101A0000C0E0D0E02F2D402F612FCE010E94CC0CE2
:101A10002196C334D105B1F7DF91CF911F910F917A
:101A2000FF900895EF92FF920F939701201B3109C9
:101A30002F3F310519F010F02FEF30E02095382FAF
:101A4000320F08F43FEF832F0F91FF90EF9008952E
:101A5000EF92FF920F939701201B31092F3F310521
:101A600019F010F02FEF30E0322F3095482F430F50
:101A700008F44FEF842F620F0F91FF90EF900895BD
:101A8000EF92FF920F93972F093438F4B701601B40
:101A900071096F3F710519F010F06FEF70E0485F4A
:101AA0005F4F4131510540F0A901485F5F4F41311F
:101AB000510510F06FEF70E06095482F460F08F465
:101AC0004FEF842F37FF02C02D5F3F4F359527958D
:101AD0003595279560919B06620F792F0F91FF90A6
:101AE000EF900895EF92FF920F93E00EF11CF90131
:101AF00037FF03C0F195E195F10924E0EE0FFF1FD8
:101B00002A95E1F7EF3FF10519F014F0EFEFF0E05F
:101B10009A0157FF03C031952195310994E0220FB6
:101B2000331F9A95E1F72E173F070CF4F901EE0DDC
:101B3000FF1DEF3FF10519F010F0EFEFF0E02E2F51
:101B40002095382F320F08F43FEF832F0F91FF902D
:101B5000EF900895EF92FF920F93970195E0099F00
:101B6000200D311D11242F3F310519F010F02FEFFA
:101B700030E02095382F320F08F43FEF832F0F917C
:101B8000FF90EF90089522E8241B08F420E0620FF4
:101B900008954095282F429F412D1124842F0895A8
:101BA0000F931F9310E0F801EE0FFF1FE056FD4F5B
:101BB0009081905797FD9195000F111FF801EF55F7
:101BC000FD4FE081F0E0B097DF01AA0FBB1F8D0150
:101BD0000E0F1F1F2003D001219FB00D1124E8E339
:101BE000F0E0E91BF10997FDF3959F01220F331FE8
:101BF00089010E0F1F1F40039001419F300D1124DA
:101C00002A0F3B1F37FF02C021583F4F220F232FBF
:101C1000221F330B620F1F910F9108950F931F9393
:101C2000522F10E0F801EE0FFF1FEF55FD4FE0813E
:101C3000F0E0B097EE0FFF1F9F015203D001539FBA
:101C4000B00D1124000F111FF801E056FD4F008167
:101C500010E000571109000F111F40039001419F30
:101C6000300D11242A0F3B1F37FF02C021583F4F70
:101C7000220F232F221F330B620F1F910F91089504
:101C80000F931F93522F10E0F801EE0FFF1FEF5537
:101C9000FD4FE081F0E0B0979F015203D001539FC8
:101CA000B00D1124000F111FF801E056FD4F008107
:101CB00010E00057110940039001419F300D11249D
:101CC0002A0F3B1F37FF02C021583F4F220F232FFF
:101CD000221F330B620F1F910F910895EF920F9304
:101CE0001F9393E0099F80011124159507956E2D90
:101CF000600F1F910F91EF900895A22F50E0FA010D
:101D0000EE0FFF1FEF55FD4F9081905297FD91957B
:101D1000440F551FFA01E056FD4F3081232F30E06C
:101D20002A1B3109290F311D97FD3A95620F08953D
:101D3000E42FF0E0EE0FFF1FEF55FD4F6081621BB7
:101D40000895E42FF0E0EE0FFF1FE056FD4F608195
:101D5000621B0895622F0895E42FF0E0EE0FFF1F3D
:101D6000E056FD4F408134EE439F412D1124E82F72
:101D7000F0E050E0445E5F4FDA01A21BB1099D0123
:101D8000B7FF03C031952195310993E0220F331F2E
:101D90009A95E1F7AF01421B530B9A0157FF02C01E
:101DA00020E030E0582F259F212D1124822F089507
:101DB000FC019B01009721F477FF2BC080E8089578
:101DC000AC0197FF04C044275527481B590BB901A4
:101DD000640F751F37FD0CC0241B350BC901A5E02E
:101DE000880F991FAA95E1F70E94B82F80E20CC0D6
:101DF000CB0165E0880F991F6A95E1F7BA01621B74
:101E0000730B0E94B82F80E6861BF7FF03C08195F5
:101E1000089580E00895EF920F93CF93DF93D72F2B
:101E2000C82FC9010E19BA010E94D80E602F681B75
:101E30007D2F8C2FDF91CF910F91EF9008950F930D
:101E4000CF93DF93D72FC82FC901BA010E94D80EB4
:101E5000682F600F7D2F8C2FDF91CF910F91089508
:101E6000EF920F931F93CF93DF93D62FC72F182F87
:101E7000C9010E19010FBA010E94D80E081B202FAC
:101E8000219F212D1124822F6D2F7C2FDF91CF9147
:101E90001F910F91EF900895FF920F931F93CF938F
:101EA000DF93F62ED72F182FC901C12FC01BBA01FF
:101EB0000E94D80E982F990F890FC81B2C2F219F95
:101EC000212D1124822F6F2D7D2FDF91CF911F9116
:101ED0000F91FF9008959091A80392FF0DC0282FB5
:101EE0002871283019F4877F846006C0282F247158
:101EF000243011F48B7F886093FF0DC0282F287148
:101F0000283119F4877E846106C0282F247124317A
:101F100011F48B7E88612091A90320FF0DC0382F1A
:101F20003871383019F4877F816006C0382F3171DD
:101F3000313011F48E7F886021FF0DC0282F287169
:101F4000283119F4877E816106C0282F2171213143
:101F500011F48E7E886194FD877E08950F931F9300
:101F6000CF93DF93082F000FEB0114E21093480486
:101F7000E9E4F4E0DE018D91819384E0E935F8072E
:101F8000D1F724E630E041E150E068E474E0802FCE
:101F90000E946C2E105F6096143B41F7DF91CF9149
:101FA0001F910F91089580915C04882329F06EE5BC
:101FB00074E084E70E94AE0F10925C0480915D048F
:101FC000882329F06EEE74E087E70E94AE0F10922E
:101FD0005D040895E8E4F4E06083418324E630E0A2
:101FE00042E050E0BF01880F0C946C2EDF92EF921C
:101FF000FF920F931F93CF93DF93262F30E0A90119
:102000004E555A4F7A01FA01908191110AC0F70199
:102010001082DF91CF911F910F91FF90EF90DF9091
:102020000895D82EF2E16F9FE001112400E010E046
:10203000F801EC0FFD1FE258FA4F4081602F8D2D03
:102040000E94EA0F0F5F1F4F0231110589F7DFCFA2
:10205000CF93DF93C82F4BE06DEF0E94EA0F40E073
:102060006AE08C2F0E94EA0F8FE39CE90197F1F759
:1020700000C0000040E060E08C2F0E94EA0F40E0CA
:1020800061E08C2F0E94EA0F40E066E08C2F0E94F6
:10209000EA0F40E06DEF8C2F0E94EA0FD0E040E0A5
:1020A0006D2F8C2F0E94EA0FDF5FD231C1F740E025
:1020B0006D2F8C2F0E94EA0FDF5FD432C1F740E012
:1020C0006D2F8C2F0E94EA0FDF5FD43BC1F74BE0EE
:1020D0006DEF8C2F0E94EA0F41E06AE08C2F0E9486
:1020E000EA0F40E06DEF8C2FDF91CF910C94EA0F57
:1020F0007F928F929F92AF92BF92CF92DF92EF9298
:10210000FF920F931F93CF93DF930E94DF2D84E7FD
:102110000E94281087E70E9428100AE311E0E12CB2
:10212000F12C42E138E0A32EB12CCC24C394D12C65
:1021300077247394D80111962C91119730E0C9013E
:1021400084971296CC911297D0E0A4971396EC91B5
:10215000F0E0B497BC0197FF02C0695F7F4FA3E036
:1021600075956795AA95E1F7D701AA0FBB1FAA0F2E
:10217000BB1FA65CBE4F2C91237030E0429FD00164
:10218000439FB00D1124A258BA4F4D01860E911CE9
:10219000B5010E94B82FB60102C0660F771F8A955D
:1021A000E2F7CB01D4019C91892B8C93CE01D7FD12
:1021B000079663E0959587956A95E1F7429FB00190
:1021C000439F700D112462587A4F4B01880E911C69
:1021D000CE01B5010E94B82FB60102C0660F771F6D
:1021E0008A95E2F7CB01D4019C91892B8C93CF0186
:1021F000F7FD079653E0959587955A95E1F7429F2D
:10220000E001439FD00D1124C258DA4FC80FD11DF1
:10221000CF01B5010E94B82FF60102C0EE0FFF1FDB
:102220008A95E2F7CF019881892B8883F901EE55D1
:10223000FA4F7082FFEFEF1AFF0A0C5F1F4F63E443
:10224000E616F10409F076CF60E084E70E94F60F0D
:1022500061E087E7DF91CF911F910F91FF90EF90A1
:10226000DF90CF90BF90AF909F908F907F900C9415
:10227000F60FEAE9F6E0438120E1421B08F440E072
:102280008181628190E00C947E27EAE9F6E0438147
:1022900020E1420F08F44FEF8181628190E00C94BD
:1022A0007E27EAE9F6E0628120E1621B08F460E043
:1022B0008181438190E00C947E27EAE9F6E0628117
:1022C00020E1620F08F46FEF8181438190E00C946C
:1022D0007E27EAE9F6E0818190E0438162810897F8
:1022E0000C947E27EAE9F6E0818190E043816281E7
:1022F00008960C947E2780919A0686958695815043
:1023000009F48DE10C94AD2480919A06869586950A
:102310008F5F8E3108F081E00C94AD241F93CF9332
:10232000DF93CDB7DEB767970FB6F894DEBF0FBE69
:10233000CDBF342F4B8B252F5C8B6D8B7E8B8F8B82
:102340004E895F8961111092380686E0FE013D9644
:10235000DF01982F1D929A95E9F73D872E876F87A9
:10236000598B488BDE01179601900D928A95E1F703
:10237000CE0107960E94CB2281113EC086E0FE016D
:102380003796DE01119601900D928A95E1F7FF8153
:10239000E8856A857B856115710531F0EF3F31F481
:1023A00081E0FF3F19F403C081E001C080E080FDBF
:1023B00023C02091D20530E0C9010196877099278A
:1023C0004091030650E08417950779F1F983EA8379
:1023D0007D836C8396E0929FD001939FB00D112472
:1023E000AD52BA4FFE01319601900D929A95E1F7E8
:1023F0008093D2050E94552216E0809103069091A9
:10240000D2058917F9F0189FC00111248D529A4FF7
:102410000E94CB228823B1F08091030690E00196C0
:102420008770992780930306E8CF0E947A24109240
:10243000D20510920306ECECF5E086E0DF011D9278
:102440008A95E9F767960FB6F894DEBF0FBECDBF49
:10245000DF91CF911F9108952091A8053091A90592
:102460002817390771F09093A9058093A805E0918A
:10247000AA03F091AB03309721F00084F185E02DA1
:10248000099408952091A6053091A70528173907CA
:1024900071F09093A7058093A605E091AA03F091AF
:1024A000AB03309721F00680F781E02D0994089561
:1024B000E091AA03F091AB03309721F00190F081F5
:1024C000E02D099480E00895CF93DF93CFE7D2E029
:1024D00060E0CE010E941D2F2196C11584E0D8072F
:1024E000B9F7DF91CF910895CF92DF92EF92FF92EB
:1024F0000F931F93CF93DF93C0E0D0E08E010A5675
:102500001F4F6E018EE1C80ED11CFE01EA5AFD4F2D
:10251000E590F4906F2DCE0187960E941D2F6E2DB1
:10252000CE0188960E941D2F2296CC15DD0569F7F5
:102530000C171D0731F7E80108351240F9F6DF9155
:10254000CF911F910F91FF90EF90DF90CF90089562
:102550000F931F93CF93DF93C42FD0E0CC0FDD1FD9
:102560002EE1629FC00DD11D112436E9839FC00D5D
:10257000D11D1124CE0187960E94FF2E082F10E056
:10258000102F0027CE0188960E94FF2E9801282B3D
:10259000C901DF91CF911F910F910895462F84308B
:1025A00038F4753028F46F3018F4672F0C94A812A3
:1025B00080E090E00895882311F0FA0101C0FB014A
:1025C00009940C94F80C0C94CC0C2FE0829FC00161
:1025D0001124FC01EB5AFD4FE60FF11D80818F3F66
:1025E00021F0FA01808381E0089580E0089546E0BB
:1025F00050E06CE170E08AE996E00C940D2FEAE976
:10260000F6E0248130E1230F08F42FEF24830C94AB
:10261000F712EAE9F6E0248130E1231B08F420E018
:1026200024830C94F712EAE9F6E089E28083809132
:102630001B0190911C01A0911D0181839283A383B2
:102640008FE784838FEF85830C94F712482F982FA0
:1026500046FD9095E92FEF739F7046FD9F5FE295D1
:10266000EF70EE0FF0E0EE5CFE4F2181299F802D90
:10267000212D112482958F702295207F822B30810D
:10268000982F930F892F47FD819580580895BC019D
:102690008230910508F40895613E8EE1780748F490
:1026A0009B0195E0369527959A95E1F748E0420F12
:1026B00001C04FEF91E0242F30E0290F311D3595F7
:1026C0002795229FF001239FF00DF00D11246E1726
:1026D0007F0718F44FEF420F04C02F3F39F091E00D
:1026E000920F491740F78FEF890F08958FEF0895E4
:1026F0000F93CF93DF93D72FC82F47FD4195E8E382
:10270000F0E0CF01841B910947FD9395889FB001AC
:10271000899F700D700D1124229FC001239F900D81
:10272000900D1124860F971F0E944713682F660F84
:10273000860F682F600F7D2F8C2FDF91CF910F9127
:10274000089520E030E0869F212D969F200D311DB9
:102750001124C9010895CF92DF92EF92FF920F9357
:102760001F93CF93DF93F62E472FE82FF0E07111E0
:1027700006C0EA5AFE4F8491782F682F73C0272F26
:1027800030E0EA5AFE4FE491FE2F0E2F10E056E0A3
:10279000659FC0011124CFEFD0E0BE010E94A42F9D
:1027A0005BEA5603C001579F900D11248F0D911DB8
:1027B0008F0D911D982F990F980F7E01E21AF30A41
:1027C000E09ED001E19EB00DF09EB00D11248B2F44
:1027D000499FA0011124452F55277E01E41AF50ACF
:1027E000E09EA001E19E500DF09E500D11246E015F
:1027F000C91AD108C29E7001C39EF00CD29EF00C83
:1028000011242F2D3327C21BD30BC09F9001C19FD2
:10281000300DD09F300D1124932F6230710591F04F
:1028200048F461157105E1F061307105B9F49E2F2E
:10283000E52F16C06430710569F040F0663071050F
:1028400079F00CC09E2FEB2F832F0AC0EB2F8F2F18
:10285000952F06C09B2F8E2FE32F02C09B2F852F15
:102860007E2F692FDF91CF911F910F91FF90EF90F5
:10287000DF90CF900895DF92EF92FF920F931F9316
:10288000CF93DF93EC01FC01EA5DFC4F908169235B
:1028900081F1D0909C0600919D0610919B06E12E3F
:1028A000F12C0E94DF2E282FC7018C549F4F68E621
:1028B00071E00E94B82F8E199F0997FD0396959598
:1028C0008795959587952370612F289F600D11241A
:1028D0007D2D802F0E94AB13462F282F672FCE010E
:1028E000DF91CF911F910F91FF90EF90DF900C94AB
:1028F000E312DF91CF911F910F91FF90EF90DF9046
:102900000895F894E82FE295EF70F0E031A1282FB8
:102910002F7081E090E001C0880F2A95EAF7982F88
:102920009095932391A392A1892B82A378940895E3
:10293000CF93DF930E94CE12EC018238910559F1BA
:10294000A0F48133910509F473C040F489329105F4
:1029500009F467C08A9709F472C084C08533910571
:1029600009F458C0C997B9F07DC0833E910571F153
:1029700038F4803E9105B1F0823E910511F172C0AC
:10298000863E9105B9F1873E9105C9F1843E9105D6
:1029900009F068C024C08091A80380FD5DC081FD5E
:1029A0005BC060C08091A80380FD50C08091A903E6
:1029B00080FF36C18091A80384FD30C1C3EED0E012
:1029C0002FC18091A80382FF2BC1F4CF8091A8036F
:1029D00082FD3FC08091A90380FD3EC0EBCF809176
:1029E000A90381FF1DC18091A80384FD17C1C7EE13
:1029F000D0E016C18091A80383FF12C1F4CF80916B
:102A0000A80383FD2CC08091A90381FFECCFC4EE05
:102A1000D0E006C18091A80385FF02C1C9E2D0E0E1
:102A2000FFC08091A80385FFFBC0C5E3D0E0F8C0DC
:102A30008091A80386FFF4C0CAE2D0E0F1C0809183
:102A4000A80386FFEDC0C1E3D0E0EAC0C9E3D0E04F
:102A5000E7C0C2EED0E0E4C0C0EED0E0E1C0C6EE18
:102A6000D0E0DEC0C11582E5D80708F066C0C11508
:102A700091E5D90728F0DC2FCC27C16FD06AD0C0F0
:102A8000C83ED10560F5C03ED10508F0C9C0C83ABE
:102A9000D105B0F4C53AD10540F0C55AD0E0C759C8
:102AA000DC4FC881D0E0D064BBC0C130D10509F48F
:102AB000B7C008F4B3C0C430D10508F4AFC0B0C08B
:102AC000CF3BD10508F0AAC0C85AD0E0CC0FDD1F1B
:102AD000C459DC4F0990D881C02DD464A1C0C11560
:102AE00020E5D207E0F0CE0174E0969587957A95BF
:102AF000E1F783709C2F937021E030E002C0220F39
:102B0000331F9A95E2F73C68382BCF70C695C6956F
:102B100080E2C89FE0011124C22BD32B81C0C115D4
:102B200080E4D80718F0DF70D06A7AC0CE019A9599
:102B300081159F4108F474C071C0C11586E5D8079E
:102B4000F0F5C11595E5D90750F08C2F0E946B0F59
:102B50008F71C82FD0E0DC2FCC27D06261C0C115A7
:102B600024E5D20728F0DC2FCC27C46FD06A58C0E8
:102B70009E01237033278C2F86958695C115D345EA
:102B800078F4C1E0D0E002C0CC0FDD1F2A95E2F757
:102B900020E2829FC0011124C82BD92BDC6840C0E1
:102BA000C1E0D0E002C0CC0FDD1F2A95E2F720E2A1
:102BB000829FC0011124C82BD92BDA6831C0C115FE
:102BC0002AE5D207E8F4C11589E5D80780F08C2FF3
:102BD0008F700E946B0F94E0D695C7959A95E1F798
:102BE000CF70D0E0DC2FCC27D069C82B19C0C1151D
:102BF00098E5D90798F0DC2FCC27C06FD06A10C0B9
:102C0000CE0190568115904248F48D2F8F710E940D
:102C10006B0FDD27D0628F71D82B02C0C0E0D0E0EF
:102C2000CE01DF91CF9108950F931F93CF93DF9340
:102C3000C42F122FFC0182818823C9F04093AA057A
:102C40000E948A1F9093A5058093A40580E28C0FB3
:102C5000883008F063C0C77081E001C0880FCA9552
:102C6000EAF7DF91CF911F910F910C94122D809173
:102C7000AA0548133CC02091A4053091A5054FB783
:102C8000F8948091290490912A04A0912B04B0918A
:102C90002C044FBF821B930B883C910540F5D0E27A
:102CA000D10FC117B9F080E28C0F883040F4C770A3
:102CB00081E001C0880FCA95EAF70E94072DD8303D
:102CC00030F581E0912F977001C0880F9A95EAF74F
:102CD0000E94122D802F0E94C12DD830F8F4212F90
:102CE000277081E001C0880F2A95EAF70AC080E2C8
:102CF0008C0F883098F4C77081E001C0880FCA95A6
:102D0000EAF7DF91CF911F910F910C94072D802F3F
:102D1000DF91CF911F910F910C94C12DDF91CF9135
:102D20001F910F9108952F923F924F925F926F9251
:102D30007F928F929F92AF92BF92CF92DF92EF924B
:102D4000FF920F931F93CF93DF9300D000D0CDB7A6
:102D5000DEB73EE1E32E31E0F32E4EE9842E43E070
:102D6000942E84011982CC24C394D12CFC82EB8252
:102D7000D7018C91F894E82FE295EF70F0E021A153
:102D80008F70A60102C0440F551F8A95E2F7CA0151
:102D9000922F982B91A392A18095892382A3789456
:102DA00000C0E3E2F1E020E030E0A12CB12C419141
:102DB000842F82958F7090E0DC0190968C9190E04A
:102DC0004F7002C0959587954A95E2F780FD08C03F
:102DD000C601022E02C0880F991F0A94E2F702C0B2
:102DE00080E090E0A82AB92A2F5F3F4F2F303105AD
:102DF000F1F6BFEFEB1AFB0AEB81FC8180810E94A8
:102E00008114F0EAFA95F1F7D8018D919C91119710
:102E1000A816B90621F0AD92BC9281E001C080E015
:102E2000B981B82BB9830E5F1F4FE3E0083A1E0744
:102E300009F09CCF0E948A1FAC01609145047091FB
:102E40004604909346048093450490914404292FAE
:102E500030E0261B370BC901840F951F6BEF70E024
:102E60000E94A42F8A8380934404B0904704BB201F
:102E700009F46DC01092470440919C0350919D034A
:102E8000AAE3B4E03A01FBE46F0E711C0EE913E013
:102E9000A12C22242394312C2BEF422E512C5C8325
:102EA0004B8360E070E0EB81FC81F080FBEFFF166C
:102EB000B9F12F2D30E0EA80EF1428F0FC01E21B7D
:102EC000F30B9F0106C07201E21AF30A9701280F63
:102ED000391F6901330FEE08FF0825E0C216D1043F
:102EE000E104F104E0F0EBEFEE2EEB81FC81E082F7
:102EF0002D913C911197F801C080D180C226D32634
:102F00007101062E02C0EE0CFF1C0A94E2F7EC20C1
:102F1000FD20E226F3261196FC92EE9201C0AB2C26
:102F20002B813C812F5F3F4F3C832B836F5F7F4F13
:102F30006F30710509F0B7CF415F5F4F12960E5F9A
:102F40001F4F6416750609F0AACFA0924704E980C6
:102F5000EE20D9F180919C0390919D03D09047047D
:102F6000AAE3B4E08C01055B1F4FEE24E394F12C3F
:102F70003BEFC32EF401419151914F012D913D91B1
:102F800042275327FC0120E030E0B701022E02C0A7
:102F9000660F771F0A94E2F764237523672B41F0CD
:102FA00060816B3F31F46A816083DD24D39401C07A
:102FB000C08231962F5F3F4F2F30310531F70F968A
:102FC00080179107B9F6D092470489810F900F902E
:102FD0000F900F90DF91CF911F910F91FF90EF9085
:102FE000DF90CF90BF90AF909F908F907F906F9029
:102FF0005F904F903F902F9008953F924F925F9235
:103000006F927F928F929F92AF92BF92CF92DF92F8
:10301000EF92FF920F931F93CF93DF93CDB7DEB75D
:1030200029970FB6F894DEBF0FBECDBFFC0180819B
:10303000918123813481232B31F09F3F31F491E042
:103040008F3F19F403C091E001C090E090FD73C67A
:103050007F0185E0DE01119601900D928A95E1F7DE
:10306000F701228189819A81222349F00E9411214E
:10307000182F682F89819A810E94B32103C00E9472
:103080008721182F69817A81812F0E94CE128C01AD
:10309000F7018281882309F4F2C0980122513F454B
:1030A0002031310508F019C18FEF93E00E94FF2E07
:1030B0008111EFC002513FE7832E32E0932E0023AF
:1030C00079F08114F4E09F0609F4E3C0C4010E9482
:1030D000FF2E811101C001501FEF811A910AEFCF1D
:1030E0001E821F8218861986442443942AE0322EB9
:1030F00084010F5F1F4FC4010E94FF2E8E831F8229
:10310000882309F4C6C09FEF980F933060F48F8333
:103110004E8222E0820E911CC8010E94FF2E8887F9
:10312000811102C0B6C048018E010A5F1F4FF8012D
:1031300020812223E9F2213009F04CC081818130C5
:1031400049F46801F2E0CF0ED11CF80182810E949F
:10315000C12D0AC0823051F46801F2E0CF0ED11CBB
:10316000F80182810E944E2D860186C0833049F489
:103170006801F2E0CF0ED11CF80182810E941C2D63
:10318000F3CF843019F00F5F1F4F76C0F801228112
:103190000E5F1F4F80E090E030E0205331092A306D
:1031A000310568F4389EA001399E500D1124C901E3
:1031B000840F951F0F5F1F4FF8012081EDCF0097FF
:1031C00009F45AC0EFE9FFE03197F1F700C00000C1
:1031D0000197F5CFE22FF0E0E252FB4F5490822F9F
:1031E00086958695869590E0FC01E253FB4F6490AE
:1031F0002770712C022E02C0759467940A94E2F72E
:10320000F1E06F227724FC01E254FB4FA490B12C33
:10321000022E02C0B594A7940A94E2F731E0A322EB
:10322000BB24FC01E255FB4FC490D12C02C0D594C5
:10323000C7942A95E2F781E0C822DD246114710465
:1032400019F081EE0E944E2DA114B10419F086EE02
:103250000E944E2D852D0E94C12DAB2819F086EEBF
:103260000E941C2D672819F081EE0E941C2DCD288C
:1032700019F08CE20E94C12D0F5F1F4F58CF003113
:103280003FE5130709F04EC581E00E94E8210E9446
:103290008F2480913606877009F44DC5F70182812D
:1032A000882309F448C582E029960FB6F894DEBF5A
:1032B0000FBECDBFDF91CF911F910F91FF90EF9087
:1032C000DF90CF90BF90AF909F908F907F906F9046
:1032D0005F904F903F900C940D220031FFE51F0747
:1032E00011F481E005C001312FE5120721F482E0DD
:1032F0000E942A22CCCF033FFCE51F0749F406E2D7
:1033000021EE40EE63EF7CE5C7010E941416C1CFA9
:10331000043F2CE5120708F042C1083D3CE51307C5
:1033200031F407E225EE45EE68ED7CE5EDCF093D91
:103330009CE5190731F408E221E045EE69ED7CE5F2
:10334000E3CF073DECE51E0731F406E221EE41EE46
:1033500067ED7CE5D9CF882309F456C11092AA0500
:1033600002309CE5190708F439C10631ECE51E0767
:1033700030F0C8018A5F9C45099708F02FC10E9470
:1033800029209093A9038093A8030031FCE51F072F
:1033900009F4C3C008F041C008303CE5130709F444
:1033A0009AC0F0F404309CE5190709F487C068F46A
:1033B0000230FCE51F0709F477C003301C4509F013
:1033C000E5C08091A803826076C006303CE5130713
:1033D00009F46EC008F07BC08091A80388606BC0C0
:1033E0000C309CE5190709F485C068F40A30FCE547
:1033F0001F0709F474C008F079C00E947A248091F4
:10340000A803806858C00E303CE5130709F476C065
:1034100008F07FC08091A8038BC00B3F9CE5190783
:1034200009F44FC018F50331FCE51F0709F47DC00E
:1034300078F401313CE5130709F473C002311C45EF
:1034400009F0A4C00E947A248091A8038F7733C02A
:1034500005319CE5190709F472C008F486C00A3FDB
:103460001C4509F093C08091A9033EC00F3F2CE595
:10347000120709F45FC058F40D3F8CE5180709F4F2
:1034800044C008F43FC08091A90382602DC0013080
:10349000EDE51E0709F475C008F45DC002301D4556
:1034A00009F074C060E06EC08091A803816003C021
:1034B0008091A80380618093A80368C08091A803CD
:1034C00011C08091A90382608093A9035FC080919D
:1034D000A8038062F0CF8091A8038064ECCF809134
:1034E000A80388608460E7CF8160EECF8091A80355
:1034F0008E7FE1CF8091A8038D7FDDCF8091A803DF
:10350000877FD9CF8091A90318C08091A9038D7FAF
:10351000DBCF8091A8038F7ECECF8091A8038F7DD3
:10352000CACF8091A8038F7BC6CF8091A803877FE5
:103530008B7FC1CF8091A9038D7F8E7FC5CF809176
:10354000A80382FB222720F991E0922790FB82F9C1
:1035500090FB83F9B0CF8091A903982F909591703B
:103560008E7F892B90FB81F9AFCF0E947A248091C6
:10357000A80387FB222720F991E0922790FB87F987
:103580009ACF61E08EE090E00E941D2F8091A80309
:103590009091A9030E941C200E947A247ACE053FB4
:1035A000FCE51F0731F406E221EE42EE65EF7CE513
:1035B000ABCE053F2CE5120730F407E225EE44EED2
:1035C00064EF7CE5A1CE063F3CE5130709F0C3CECE
:1035D00007E225EE46EE66EF7CE596CE8091390651
:1035E00006319CE5190709F58A7A91E009F490E023
:1035F0009093AB05882311F065E301C069E28CEA82
:1036000095E00E94E71F0EC006311C4509F0D6C0A8
:103610008091AB05882309F48CC365E38CEA95E0BF
:103620000E94BF1F0E94AB2034CE82720A3C3CE550
:10363000130709F47BC098F5053CECE51E0709F477
:1036400061C0B8F4033C2CE5120709F451C008F03E
:1036500054C0023C8CE5180709F07FC090919A068F
:1036600081E0892780939A0610921A010E94F7122E
:1036700010CE073C9CE5190709F44EC008F447C07A
:10368000083CFCE51F0709F44CC0093C2CE5120777
:1036900009F063C049E351E165E471E155C00F3CB5
:1036A0003CE5130709F455C098F40C3CECE51E0703
:1036B00009F446C008F43FC00D3C2CE5120709F49C
:1036C00046C00E3C3CE5130709F047C085E042C008
:1036D000063D8CE5180730F4013D1C4508F0D9CDB6
:1036E0008FE038C00D35EDE51E0709F4D2CD35C0A9
:1036F0004BE751E164E871E127C044E851E16BE731
:1037000071E122C049E651E162E771E11DC042E783
:1037100051E169E671E118C041E551E16DE571E102
:1037200013C04DE551E161E571E10EC045E451E1A1
:1037300069E371E109C049E053E16FEF72E104C050
:103740004FEF52E169E073E10E94DB12A2CD81E00C
:1037500001C08AE00E94AD249CCD0A35FDE51F071B
:1037600041F150F401153CE51307A9F00E3D1C454D
:1037700029F50E943A208DCD0B359DE51907D9F02A
:103780000C351D45D9F48091A90382FB882780F967
:1037900091E0892711C00E947A24FFEF04E31CE026
:1037A000F15000401040E1F700C000000E94341FBB
:1037B00070CD81E001C080E00E94FF20F70182818E
:1037C00000811181882349F0C8010E941121D82E5F
:1037D000682FC8010E94B32104C0C8010E9487213C
:1037E000D82EB8018D2D0E9498148C01982EF701C7
:1037F000B280A580A2949FE0A922809136068770AE
:1038000099F0BB2089F0812F807F803421F080E205
:10381000800F883048F082E00E940D2280913606A9
:103820008770DD24D3948111D12CC12EC2948FE0F6
:10383000C8228C2D90E08C30910508F03FC2FC012D
:10384000E957FF4F0C94CC2F812F807F1F70882366
:1038500011F01295107FBB20B9F0112309F419C2A1
:1038600080E2800F883010F0911006C080913906F8
:10387000182B1093390605C080913806182B109329
:1038800038060E94AB2005C2802F0E941C2D1123F8
:1038900009F414C2005E1095083010F0911006C0B3
:1038A0008091390618231093390605C08091380697
:1038B0001823109338060E94AB2000C2812F807F0E
:1038C0001F70803211F01295107F992021F0F1E0E5
:1038D0009F1611F130C0BB20B1F0AA2081F001E0A9
:1038E000A0120DC08091A90382FDE8C180913A0623
:1038F000182B181709F4E2C110933A06DFC1809122
:103900003A06812B10C0AA2021F021E0A21609F46A
:10391000D5C10E94A52027C0BB2041F035E03A1553
:1039200008F4CCC1812F0E94122DC8C184E08A15F1
:1039300008F4C4C118C0BB2049F0AA2099F3F701CC
:10394000858180FFA6C18F708583ECCFAA2059F0B6
:10395000093309F0B0C1FFEF17EE23E0F15010403A
:103960002040E1F7A6C1812F0E94072DA7C1812F1A
:1039700086958695837019F0813059F09FC1BB20E0
:1039800019F0C801937002C080E090E00E944212DA
:103990009BC1BB2019F0C801937002C080E090E089
:1039A0000E942C1291C1812F837009F069C0B1105F
:1039B00089C1902F929596959770990F990F802FA6
:1039C0008F70882E912CA12CB12C092E04C0880C4C
:1039D000991CAA1CBB1C0A94D2F704FF12C04FE02A
:1039E00050E060E070E004C0440F551F661F771F71
:1039F0009A95D2F7DB01CA0180959095A095B09574
:103A000003C080E090E0DC0116951695412F4370CD
:103A1000423019F1C8F400913B0610913C06209108
:103A20003D0630913E06413059F088299929AA294E
:103A3000BB29BC01CD0160237123822393230AC0DB
:103A4000802A912AA22AB32ABC01CD0168297929AA
:103A50008A299B290E944B2235C188299929AA29A4
:103A6000BB2900913B0610913C0620913D06309108
:103A70003E06BC01CD016027712782279327EACF3C
:103A8000BB2019F0812F817001C08695882309F42D
:103A900019C1902F929596959770990F990F802F35
:103AA0008F70882E912CA12CB12C092E04C0880C6B
:103AB000991CAA1CBB1C0A94D2F704FF12C04FE049
:103AC00050E060E070E004C0440F551F661F771F90
:103AD0009A95D2F7DB01CA0180959095A095B09593
:103AE00003C080E090E0DC0116951695412F4370ED
:103AF0004230D9F068F50091A0061091A1062091FE
:103B0000A2063091A306413059F088299929AA29A3
:103B1000BB29BC01CD0160237123822393231EC0E6
:103B2000802A912AA22AB32A13C088299929AA296E
:103B3000BB290091A0061091A1062091A206309108
:103B4000A306BC01CD01602771278227932706C0F9
:103B5000BC01CD01682979298A299B290E94DE218F
:103B6000B1C01F70BB2039F0812F0E942A22802F04
:103B70000E94122DA7C0802F0E94072D812F0E9426
:103B8000E821A0C0802F32EF931609F440C0391508
:103B900038F090EF991661F0E1EF9E1699F174C03C
:103BA000F3EF9F16D9F124EF921609F44EC06CC0C2
:103BB000BB2019F134E03A1508F480C01F7181E090
:103BC00090E0A0E0B0E0AC01BD0104C0440F551F7F
:103BD000661F771F1A95D2F78091A0069091A106D3
:103BE000A091A206B091A3068A019B01082719277C
:103BF0002A273B27C901B80125C025E02A1508F46A
:103C00005DC0DCCFBB2029F0812F8F7130C0BB207D
:103C1000D9F3812F8F710E94E82150C0BB2079F029
:103C20001F7181E090E0A0E0B0E0BC01CD0104C0D4
:103C3000660F771F881F991F1A95D2F703C060E09F
:103C400070E0CB010E94DE2139C0BB2099F01F71CA
:103C5000812F0E942A228091A90382FD07C038E0AB
:103C6000139FC0011124836080933606812F0E9428
:103C70002A2224C081E00E940D2281E08A15F0F4FE
:103C800082E00E940D221AC0BB2039F0AA2009F45C
:103C9000BBCF802F0E944E2D11C0AA2009F4B9CFAE
:103CA000893349F49FEFE7EEF3E09150E040F040B4
:103CB000E1F700C00000802F0E941C2D88EF8C0DC2
:103CC000843010F40E945812DD20A9F1809136064C
:103CD00080FD31C0F70112828595859585950E94FA
:103CE0002A22C7010E94FD17809136068595859589
:103CF000859529960FB6F894DEBF0FBECDBFDF9134
:103D0000CF911F910F91FF90EF90DF90CF90BF90D8
:103D1000AF909F908F907F906F905F904F903F906B
:103D20000C94E82101319FE5190709F0E4CA82E00B
:103D3000ACCA69E273CC29960FB6F894DEBF0FBE09
:103D4000CDBFDF91CF911F910F91FF90EF90DF904A
:103D5000CF90BF90AF909F908F907F906F905F902B
:103D60004F903F900895089580914006089580E017
:103D70000895CF93DF9300D01F92CDB7DEB7909117
:103D80006306943011F589837B836A839093E900FD
:103D90008FEF9091E800815095FD06C095ED9A95C2
:103DA000F1F700008111F5CF8091E80085FF0DC08B
:103DB00040E050E063E070E0CE0101960E948B2766
:103DC0008091E8008E778093E8000F900F900F901D
:103DD000DF91CF910895BC0184E00C94B91EBC0121
:103DE00083E00C94B91ECF93DF9320911601222318
:103DF00039F02091A80327FF03C060E224E002C04D
:103E000068E021E02093E9002FEF3091E800215095
:103E100035FD06C035ED3A95F1F700002111F5CFDB
:103E20002091E80025FF1DC0EC0180911601811151
:103E300005C040E050E068E070E003C070E040E0A2
:103E400050E0CE010E948B278091E8008E7780930E
:103E5000E80080E2FE01A1E4B6E001900D928A95AF
:103E6000E1F7DF91CF91089581E08093E00080E257
:103E70008093D8001092C9008FE19EE40197F1F77A
:103E800000C0000087E090EBDC018093A9069093CE
:103E9000AA06A093AB06B093AC069CE088E10FB6EF
:103EA000F894A895809360000FBE90936000FFCFB8
:103EB00078941F920F920FB60F9211248F939F93B5
:103EC000AF93BF938091290490912A04A0912B0471
:103ED000B0912C040196A11DB11D809329049093EB
:103EE0002A04A0932B04B0932C04BF91AF919F910F
:103EF0008F910F900FBE0F901F9018952FB7F894C9
:103F00006091290470912A0480912B0490912C04D3
:103F10002FBF08952FB7F8948091290490912A0417
:103F2000A0912B04B0912C042FBF08951F920F92E3
:103F30000FB60F9211248F939F93AF93BF938091ED
:103F4000AC03811113C08091290490912A04A0919F
:103F50002B04B0912C044196A11DB11D809329041E
:103F600090932A04A0932B04B0932C04BF91AF919B
:103F70009F918F910F900FBE0F901F9018952091D9
:103F800016012223C9F02091A80327FF15C0262F70
:103F90002695269526952E31C8F4FC01E20FF11DD9
:103FA000677081E090E001C0880F6A95EAF780951C
:103FB0009281892382830895FC01069622816213EF
:103FC00001C012823196E817F907C1F708952091D0
:103FD00016012223C1F02091A80327FF14C0262F29
:103FE0002695269526952E3130F5FC01E20FF11D20
:103FF000677081E090E001C0880F6A95EAF79281CE
:10400000892B82830895FC0132962FEF30E0419195
:10401000641789F02F3F19F4411101C0232F3F5F2E
:104020003630A9F72F3F39F0FC01E20FF11D27FDD3
:10403000FA95628308950895CF93C92F682F84E07D
:1040400090E00E941D2F6C2F82E290E0CF910C94A3
:104050001D2FCF9384E090E00E94FF2EC82F82E2B4
:1040600090E00E94FF2E2C2F30E0A901582BCA01AE
:10407000CF9108956AEE7EEF80E090E00E943B2FA2
:1040800060E082E090E00E941D2F60E083E090E01D
:104090000E941D2F10923B0610923C0610923D0686
:1040A00010923E0660E084E090E00E941D2F60E0E8
:1040B00082E290E00E941D2F60E085E090E00E9487
:1040C0001D2F60E086E090E00E941D2F6FEF87E0DB
:1040D00090E00E941D2F40E050E0BA0188E090E09F
:1040E0000E942F2F60E08DE090E00E941D2F40E0A5
:1040F00050E0BA0188E190E00E942F2F60E087E154
:1041000090E00E941D2F40E050E0BA018CE190E069
:104110000E942F2F60E070E080E290E00E943B2F31
:1041200040E050E0BA0188E190E00E942F2F40E08B
:1041300050E0BA018FE090E00E942F2F40E050E065
:10414000BA0183E190E00C942F2F80913A068111FF
:1041500010923A0608959091390680913806892B7D
:1041600020913706982F922B9093AC0580913A06B8
:104170008823D9F0892B8093AC0580911601882380
:1041800031F08091A80387FF02C08EE101C086E074
:10419000EEEAF5E090E0815028F021912223D9F356
:1041A0009F5FF9CF91110E94A520E091AA03F091A1
:1041B000AB033097A9F080911601882359F08091C4
:1041C000A80387FF07C08091AC058093AD0585E00B
:1041D0008093AC050280F381E02D8CEA95E0099490
:1041E000089580E090E00E94421280E090E00E94FA
:1041F0002C1210923806109237060C94AB20909136
:10420000A90392FB222720F9281751F080FB92F98D
:104210009093A9038091A8039091A9030C941C206A
:104220000895BF92CF92DF92EF92FF920F931F9368
:10423000CF93DF938C01C090A006D090A106E090B0
:10424000A206F090A30680913B0690913C06A091B7
:104250003D06B0913E06C82AD92AEA2AFB2ACFE1B8
:10426000D0E0D701C6010C2E04C0B695A79597954E
:1042700087950A94D2F780FD04C0219790F7B12C5E
:1042800007C0BC2EB8018C2F0E9498140197A9F387
:104290008B2DDF91CF911F910F91FF90EF90DF90C9
:1042A000CF90BF900895CF93DF93EC010E9411212E
:1042B000BE010E949814DF91CF9108950E9453216E
:1042C000292F2F70E92FE295EF704E2F50E0FA0161
:1042D0003297EE30F105B8F4ED56FF4F0C94CC2F29
:1042E000803F99F018F4883E70F40FC0843F59F471
:1042F0000CC0883E50F0813F31F407C0822F869574
:1043000086958695089580E0089581E008952FE0D0
:10431000929F800D1124682F669566956695982F5B
:10432000977085E0689FB001112440E050E080E084
:10433000FB01E40FF51FEC5FF94F208130E0092EFF
:1043400002C0369527950A94E2F721703327042E90
:1043500001C0220F0A94EAF7822B4F5F5F4F45306E
:10436000510531F708952FE0929F800D1124E82F19
:10437000E695E695E695877051E001C0550F8A9560
:10438000EAF785E0E89FF0011124EC5FF94F20E0A7
:1043900030E070E04081CB01022E02C096958795F7
:1043A0000A94E2F78170819584278523842781937D
:1043B0002F5F3F4F2530310569F708956093A006C0
:1043C0007093A1068093A2069093A3060C94F1200B
:1043D0000F931F9341E050E060E070E004C0440F91
:1043E000551F661F771F8A95D2F7409550956095A7
:1043F00070958091A0069091A106A091A206B0911F
:10440000A3068A019B01082319232A233B23C90100
:10441000B8011F910F910C94DE21209136068095F2
:10442000822380933606982F977041F430E0482F0E
:10443000082E000C550B2417350721F49091A90381
:1044400092FF07C08595859585950E94E821109279
:10445000360608950F931F9341E050E060E070E04E
:1044600004C0440F551F661F771F8A95D2F78091AD
:10447000A0069091A106A091A206B091A3068A0180
:104480009B01082B192B2A2B3B2BC901B8011F912B
:104490000F910C94DE2160933B0670933C06809351
:1044A0003D0690933E060C94F12080910306909176
:1044B000D205891719F08F5F8770FBCF08950F938E
:1044C0001F93CF93DF938091D10582958F7009F070
:1044D0005DC08091CE05882309F458C08091030601
:1044E0001091D2056091CC057091CD05C091CF059A
:1044F000D091D00591E06F3F09F090E0292F06E0C0
:10450000811709F443C0209721F07F3F21F030E06C
:1045100003C031E001C0322F90E030FD34C0089F6D
:10452000F001099FF00D1124DF01AD52BA4F119631
:104530003C911197371327C03C91361324C0129633
:104540003C91129731111FC013964D915C911497B5
:104550004C1B5D0B483C5105B0F48091D1058F7028
:1045600080618093D105E852FA4F80818F7080611D
:1045700080838CEC95E00E94FD17DF91CF911F9115
:104580000F910C94552201968770BACFDF91CF918D
:104590001F910F9108959F92AF92BF92CF92DF9299
:1045A000EF92FF920F931F93CF93DF93CDB7DEB7B8
:1045B00061970FB6F894DEBF0FBECDBF8C0185E0CA
:1045C000F801DE011D9601900D928A95E1F7F80140
:1045D00090818181E2803091CC056091CD05409140
:1045E000CF055091D0054115510531F06F3F31F4A1
:1045F00021E03F3F19F403C021E001C020E0F22F89
:10460000F1709F2E20FD23C1F801C380D4802CECD3
:10461000A22E25E0B22EF090CE05F601E41BF50B9C
:10462000FF2009F4CEC02091D105E83CF10508F047
:1046300099C0422F407F09F051C0681311C039134F
:104640000FC0FE2CE1100CC02F7020612093D1050B
:10465000C5010E94FD178091D105F801858337C1FE
:10466000CD2831F08F3F31F421E09F3F19F403C092
:1046700021E001C020E020FD03C021E02E2502C082
:1046800020E030E0F22FF170FF2E20FF1DC02091BE
:1046900003064091D20556E0241709F4F6C030E035
:1046A000529FF001539FF00D1124ED52FA4F61819A
:1046B000861306C06081961303C06281E61204C0AF
:1046C0002F5F3F4F2770E8CFFE2CEE2009F4FFC08C
:1046D0008091D10581608093D10550C0681307C0D7
:1046E000391305C0E11003C0F80125838DC09D87F3
:1046F0008E878D859E850E945E21882369F1EE203C
:1047000059F12091D105822F82958F7090E0029708
:1047100074F08091CC059091CD0598878F83198690
:10472000DB86CA862C87CE0107960E94FD1786E09D
:10473000F801ACECB5E001900D928A95E1F70E948A
:104740005F220DC06817E1F09D878E878D859E855D
:104750000E945E2181111EC0C8010E94FD17FF2426
:10476000F394B5C0422F407F69F78CEC95E00E942E
:10477000FD1786E0F50111928A95E9F7F12CA7C0A3
:104780003913E2CFE110E0CFF8012583C8010E9480
:10479000FD1757C0EE2001F32091D105822F82959D
:1047A0008F7090E002971CF28091CC059091CD051E
:1047B0009A8389831B82DD82CC822E83CE0101966F
:1047C000B4CFE83CF105E8F5FE2CEE2029F26813A1
:1047D00027C0391325C02091D10520FD18C0822F94
:1047E00082958F70482F50E04115510581F0F801F6
:1047F00025834F30510541F08F5F982F9295907F20
:10480000822F8F70892B8583C8010E94FD1786E057
:10481000F801ACECB5E001900D928A95E1F757C034
:104820009D878E878D859E850E945E2181117FCF19
:104830008091D10581608093D105C8010E94FD1748
:1048400046C086E0F50111928A95E9F740C0EE2056
:1048500009F482CF9D878E878D859E850E945E217B
:10486000F82E882309F478CF86E0F801ACECB5E0A7
:1048700001900D928A95E1F78091CC059091CD053C
:104880000E9453210E945F2222C09D878E878D85C2
:104890009E850E945321292F22952F70223028F4C3
:1048A0009F7039F0811105C00BC0243028F49F702F
:1048B00049F4805E883020F0C8010E94FD179F2CCB
:1048C000F92C05C0F8019581907F99F7F9CF8F2DCC
:1048D00061960FB6F894DEBF0FBECDBFDF91CF91CA
:1048E0001F910F91FF90EF90DF90CF90BF90AF900E
:1048F0009F9008951092390680911601882331F017
:104900008091A80387FF02C08EE101C086E0EEEA35
:10491000F5E0DF011D928A95E9F70C94F1200F93E1
:104920001F938091A0069091A106A091A206B0913C
:10493000A3068C019D010670112722273327BC0195
:10494000CD01063011052105310511F4686001C063
:10495000677F1F910F910C94DE2190919A069370BE
:1049600089F0811102C0946007C08E3110F0946705
:1049700003C0880F880F982B90939A0610921A0103
:104980000C94F71208956F927F928F929F92AF923C
:10499000BF92CF92DF92EF920F931F93CF93DF934B
:1049A0003C01C09117018EE0C89FC02D1124DEE0AC
:1049B000DC0FD43408F0D3E460919E0666958091B4
:1049C0009606909197060E94A113182FCD1708F014
:1049D00044C08C2E912CF401EA5DFC4F90818091B3
:1049E00018018923C1F1F401EE0FFF1FE056FD4FBE
:1049F000C080D12C80E7C81AD108F401EE0FFF1F48
:104A0000EF55FD4FA080B12CE0E2AE1AB108CC9C6E
:104A10009001CD9C300D300D1124AA9CC001AB9C9F
:104A2000900D900D1124820F931F0E944713082FA1
:104A300060919B0670919C0680919D06E12E9501E8
:104A4000A601F30109950E94AB13462F282F672F6B
:104A5000C4010E94E312CF5FB9CF81E0D33408F0E4
:104A600080E0DF91CF911F910F91EF90DF90CF9079
:104A7000BF90AF909F908F907F906F900895CF924E
:104A8000DF92EF92FF920F931F93CF93DF936C010E
:104A9000C09117018EE0C89FC02D1124DEE0DC0F0D
:104AA000D43408F0D3E460919E0666958091960612
:104AB000909197060E94A113182FCD1778F5EC2E30
:104AC000F12CF701EA5DFC4F908180911801892358
:104AD00019F1F701EE0FFF1FEF55FD4F208130E078
:104AE00020523109F701EE0FFF1FE056FD4F4081C4
:104AF00050E04057510960919B0670919C0680914F
:104B00009D06012FF60109950E94AB13462F282F11
:104B1000672FC7010E94E312CF5FCFCF81E0D3346C
:104B200008F080E0DF91CF911F910F91FF90EF90FF
:104B3000DF90CF900895DF92EF92FF920F931F9333
:104B4000CF93DF937C01C09117018EE0C89FC02DE9
:104B50001124DEE0DC0FD43408F0D3E460919E062B
:104B60006695669580919606909197060E94A1138E
:104B7000D82ECD17F0F40C2F10E0F801EA5DFC4FB1
:104B8000908180911801892391F060919B0670912A
:104B90009C0680919D062D2D4C2FF70109950E94B2
:104BA000AB13462F282F672FC8010E94E312CF5F57
:104BB000E0CF81E0D33408F080E0DF91CF911F9106
:104BC0000F91FF90EF90DF9008959F92AF92BF9268
:104BD000CF92DF92EF92FF920F931F93CF93DF93C9
:104BE0006C01C09117018EE0C89FC02D1124DEE03A
:104BF000DC0FD43408F0D3E460919E066695669588
:104C000080919606909197060E94A113182F80E438
:104C1000810F0E94261390E8F92EF80E812F0E9432
:104C2000261320E8922E980ECD1700F5AC2EB12C4D
:104C3000F501EA5DFC4F9081809118018923A1F074
:104C400060919B0670919C0680919D06E12E0C2F31
:104C5000292D4F2DF60109950E94AB13462F282FC1
:104C6000672FC5010E94E312CF5FDECF81E0D3340E
:104C700008F080E0DF91CF911F910F91FF90EF90AE
:104C8000DF90CF90BF90AF909F900895CF92DF922A
:104C9000EF92FF920F931F93CF93DF936C01C0911C
:104CA00017018EE0C89FC02D1124DEE0DC0FD43444
:104CB00008F0D3E420919E0630E040E050E06FEF32
:104CC0007FEF80E090E00E94412F8901CD17E8F549
:104CD000EC2EF12CF701EA5DFC4F908180911801D8
:104CE000892389F190916D06915097FD15C0492F48
:104CF000092E000C550BFA01E359F94F8189C813AD
:104D0000F3CF440F551FFA01E359F94F218D328D2E
:104D10002017310748F701C0980160919E06C9012C
:104D20000E94A113AC0160919B0670919C0680913A
:104D30009D06F60109950E94AB13462F282F672F79
:104D4000C7010E94E312CF5FC1CF81E0D33408F0E6
:104D500080E0DF91CF911F910F91FF90EF90DF9056
:104D6000CF9008952F923F924F925F926F927F92D1
:104D70008F929F92AF92BF92CF92DF92EF92FF926B
:104D80000F931F93CF93DF93CDB7DEB72A970FB65C
:104D9000F894DEBF0FBECDBF9C838B8310911701AB
:104DA0008EE0189F102D11242EE0210F298324342A
:104DB00010F033E4398380916D068A838981181756
:104DC00008F07EC0A12EB12CF501EA5DFC4F908168
:104DD00080911801892309F471C030909B0640909E
:104DE0009C068DE6882E86E0982E96E8692E96E041
:104DF000792E512C212CC501880F991FFC01E056FA
:104E0000FD4FFE83ED83C501880F991F9C012F552F
:104E10003D4F38872F83FFEF8F1A9F0A2A81221573
:104E2000E1F1ED81FE81F0812F2F30E0F4018081EE
:104E3000281B31093A872987EF81F885C080D12C5A
:104E4000F4018085C81AD108C901889F9001899F03
:104E5000300D300D1124CC9CC001CD9C900D900DD7
:104E60001124820F931F0E944713082F60919E0602
:104E7000F301819191913F010E94A1137C01960160
:104E800049855A85632D742D852DEB81FC8109950B
:104E9000362E472E582E2394BECF20919D06352DB9
:104EA000329F312D1124832F632D742D0E94AB135B
:104EB000462F282F672FC5010E94E3121F5F7ECF68
:104EC00081E09981933408F080E02A960FB6F89437
:104ED000DEBF0FBECDBFDF91CF911F910F91FF902D
:104EE000EF90DF90CF90BF90AF909F908F907F908A
:104EF0006F905F904F903F902F90089590919A06F9
:104F0000937041F080939B0660939C0640939D06AE
:104F10000C94F7120895EF92FF920F931F93CF9383
:104F2000DF937C018B010E94EC2A811119C0E701FB
:104F300001151105A1F08091E80085FD0AC080915E
:104F4000E8008E778093E8000E94EC2A882381F3A2
:104F500007C089918093F10001501109E9CF80E0E9
:104F6000DF91CF911F910F91FF90EF9008951F93C4
:104F7000CF93DF93CDB7DEB7AA970FB6F894DEBF15
:104F80000FBECDBFE5E6F6E08091F100819346E0EB
:104F9000ED36F407C9F780916606833009F462C0E4
:104FA00030F4813071F0823009F49CC0B3C08A3093
:104FB00009F488C08B3009F46DC0893009F0AAC0AB
:104FC00020C080916506813A09F0A4C08091E80074
:104FD000877F8093E8008091690690916A06892B0B
:104FE00021F460E281E496E003C060E080E090E0BC
:104FF00070E00E94A92C8091E8008B778093E800F4
:1050000089C080916506813209F084C0809169066B
:1050100090916A06009719F0029709F07BC0809181
:10502000E800877F8093E8008091E80082FD05C05A
:10503000809163068111F8CF6DC02091F3008091BB
:10504000F20090E0922B029729F48091F1008B7F7F
:10505000813021F48091F100809340068091E80036
:105060008B7754C080916506813A09F053C08091D6
:10507000690690916A06892B09F04CC08091E8007E
:10508000877F8093E8008091E80080FFFCCF8091CB
:10509000160137C0809165068132E1F5809169067D
:1050A00090916A06892BB1F58091E800877F809303
:1050B000E8000E941F2B80916706809316010E94D2
:1050C0007A2428C080916506813221F58091E8001C
:1050D000877F8093E8000E941F2B80916806809351
:1050E0003F0618C080916506813AA1F48091E800DE
:1050F000877F8093E8008091E80080FFFCCF80915B
:105100003F068093F1008091E8008E778093E8005D
:105110000E941F2B8091E80083FFDDC1809165060E
:1051200090916606492F50E04A30510508F0D3C1EE
:10513000FA01EF55FF4F0C94CC2F803821F08238C4
:1051400009F0C9C108C08091610690916206992357
:1051500089F082600FC0809169068F70873008F0F7
:10516000BAC18093E9008091EB0085FB882780F924
:105170001092E9009091E800977F9093E800809367
:10518000F1001092F10070C1282F2D7F09F0A3C10A
:10519000882319F0823061F09EC1809167068130CA
:1051A00009F099C1933009F080E0809362062EC027
:1051B0008091670681112AC0809169068F702FEF58
:1051C000280F263008F087C18093E9002091EB007A
:1051D00020FF1CC0933021F48091EB00806214C04A
:1051E0009091EB0090619093EB0021E030E0A901F9
:1051F00002C0440F551F8A95E2F74093EA001092CF
:10520000EA008091EB0088608093EB001092E90047
:105210008091E800877F8093E8000E941F2B5BC18C
:10522000811159C1109167061F778091E300807842
:10523000812B8093E3008091E800877F8093E800D2
:105240000E941F2B8091E80080FFFCCF8091E3003B
:1052500080688093E300111102C082E001C083E006
:105260008093630638C18058823008F034C12091A1
:105270006706309168062C3D53E0350779F583E0E9
:105280008A838AE289834FB7F894DE01139620E07F
:105290003EE051E2E32FF0E050935700E49120FF0D
:1052A00003C0E295EF703F5FEF708E2F90E0EA3021
:1052B00010F0C79601C0C0968D939D932F5F243147
:1052C00049F74FBF8091E800877F8093E8006AE24A
:1052D00070E0CE0101960E94A92CB4C080916906AD
:1052E00090916A06432F552743305105A9F068F481
:1052F0004130510509F4FEC04230510509F0EBC0C0
:105300008BE590E0EDE2F6E04BC04132510529F12A
:105310004232510589F1DFC0C901992781309105D9
:10532000A1F058F0029709F0D6C0EAE9F6E0E4915E
:105330008E2F90E0EAE9F6E030C0E0EDF6E0E4918F
:105340008E2F90E0E0EDF6E028C0EEEBF6E0E49181
:105350008E2F90E0EEEBF6E020C08330910508F050
:10536000BAC0880F991FFC01E15BFD4F0190F081ED
:10537000E02D89E090E014C08330910508F0ABC0C7
:10538000FC01EE0FFF1FE75BFD4F0190F081E02D68
:10539000DC01AA5BBD4F8C9190E0009709F49BC0A3
:1053A0002091E800277F2093E80020916B06309140
:1053B0006C062817390708F4C90140E0009789F105
:1053C00020916306222309F43DC02530D9F12091B4
:1053D000E80023FD37C02091E80022FD2FC0209176
:1053E000E80020FFEBCF4091F3002091F20030E085
:1053F000342B009759F02830310540F44491409304
:10540000F100319601972F5F3F4FF3CF41E02830F5
:10541000310509F040E02091E8002E772093E80064
:10542000CDCF4111CDCF0AC080916306882351F0C2
:10543000853041F08091E80083FD04C08091E80050
:1054400082FFF2CF8091E8008B778093E80043C021
:10545000803809F040C08091E800877F8093E800A1
:10546000809164068093F1008091E8008E77D3CE1E
:10547000811131C080916706909168069927029743
:1054800054F58091E800877F8093E80010916706CB
:10549000109364060E941F2B111106C08091E30037
:1054A00087FD02C081E001C084E08093630642E092
:1054B00061EC81E00E943E2B42E261EC84E00E94BC
:1054C0003E2B42E261EC82E00E943E2B42E260EC25
:1054D00083E00E943E2B8091E80083FF10C0809102
:1054E000E800877F8093E8008091EB0080628093E2
:1054F000EB0005C082E190E0E8E8F6E051CFAA9623
:105500000FB6F894DEBF0FBECDBFDF91CF911F91D4
:1055100008951F920F920FB60F9211242F933F936D
:105520004F935F936F937F938F939F93AF93BF93AB
:10553000CF93DF93EF93FF93C091E900CF708091F9
:10554000EC00D82FD17080FDD0E81092E900809156
:10555000F000877F8093F00078940E94B727109224
:10556000E9008091F00088608093F000CD2BCF702F
:10557000C093E900FF91EF91DF91CF91BF91AF917F
:105580009F918F917F916F915F914F913F912F915B
:105590000F900FBE0F901F901895E8EDF0E08081FE
:1055A0008E7F80831092E2001092DA001092E10068
:1055B000A0EEB0E08C9181608C9380818F778083A6
:1055C00019BCA7EDB0E08C918E7F8C9380818F7E8B
:1055D00080831092A40608952091E4003091E500A4
:1055E00095E64091EC00842F817040FF23C08091AC
:1055F000E80080FD1DC080916306882399F0853006
:1056000099F08091EB0085FD11C04091E40050912C
:10561000E5002417350729F3915011F09A01E1CFE5
:1056200084E0089582E0089583E0089581E008957C
:1056300080E008954091E80042FFDDCF0895809119
:10564000650687FF11C08091E80082FD05C080914A
:1056500063068111F8CF11C08091E8008B770BC0F1
:1056600080916306882349F08091E80080FFF8CF9D
:105670008091E8008E778093E8000895982F973006
:1056800068F59093E900981739F07091EC0020913B
:10569000ED005091F00003C0242F762F50E021FD43
:1056A00002C09F5FECCF3091EB003E7F3093EB0068
:1056B0003091ED003D7F3093ED003091EB00316093
:1056C0003093EB007093EC002093ED005093F000CA
:1056D0002091EE0027FDE5CF80E008958F70809344
:1056E000E90081E00895CF92DF92EF92FF920F934D
:1056F0001F93CF93DF93C8EDD0E088818F7E88839E
:10570000E7EDF0E080818160808384E082BF81E00A
:105710008093A40688818E7F888302EE10E0F801D2
:1057200010821092DA0081EEC82ED12CF601108280
:1057300088818F77888388818068888388818F7D3E
:10574000888319BC10926306109264061092620658
:105750001092610690EEE92EF12CF70180818B7F8B
:10576000808388818160888342E060E080E00E94DD
:105770003E2BF60180818E7F8083F80180818160DD
:105780008083808188608083F70180818E7F808321
:10579000888180618883DF91CF911F910F91FF9065
:1057A000EF90DF90CF9008951F920F920FB60F9257
:1057B00011242F933F934F935F936F937F938F9316
:1057C0009F93AF93BF93EF93FF938091E10082FF8C
:1057D00009C08091E20082FF05C08091E1008B7FCB
:1057E0008093E1008091DA0080FF2AC08091D80088
:1057F00080FF26C08091DA008E7F8093DA0080914E
:10580000D90080FF18C080E189BD82E189BD09B45B
:1058100000FEFDCF81E0809363068091A406811194
:105820000FC00E94CD2A0E94732B8091E2008460F9
:105830008093E20005C019BC109263061092A40682
:105840008091E10080FF17C08091E20080FF13C0CB
:105850008091E2008E7F8093E2008091E20080617F
:105860008093E2008091D80080628093D80019BCB8
:1058700085E0809363068091E10084FF2EC08091D3
:10588000E20084FF2AC080E189BD82E189BD09B4BC
:1058900000FEFDCF8091D8008F7D8093D80080914D
:1058A000E1008F7E8093E1008091E2008F7E809303
:1058B000E2008091E20081608093E20080916406C2
:1058C000882311F084E007C08091E30087FD02C0C7
:1058D00081E001C083E0809363068091E10083FF53
:1058E00027C08091E20083FF23C08091E100877F81
:1058F0008093E10082E080936306109264068091B9
:10590000E1008E7F8093E1008091E2008E7F8093A2
:10591000E2008091E20080618093E20042E060E07A
:1059200080E00E943E2B8091F00088608093F00020
:10593000FF91EF91BF91AF919F918F917F916F9167
:105940005F914F913F912F910F900FBE0F901F903D
:10595000189520916B0630916C062617370748F092
:105960006115710539F42091E8002E772093E80045
:1059700001C0B901FC0120E06115710579F1809148
:1059800063068823F1F18530F1F18091E80083FD11
:105990003CC08091E80082FD2EC08091E80080FF2D
:1059A000EBCF2091F3008091F20090E0922B6115F3
:1059B000710551F08830910538F421912093F10060
:1059C000615071090196F3CF21E0089709F020E0BA
:1059D0008091E8008E778093E800CECF2111CFCF61
:1059E0000AC080916306882361F0853061F0809160
:1059F000E80083FD0AC08091E80082FFF2CF80E0DA
:105A0000089582E0089583E0089581E00895882351
:105A100041F08095909139068923809339060C9442
:105A2000AB200895882339F090913906892B809313
:105A300039060C94AB200895882379F19CEF980FD8
:105A4000913A30F4682F8CEA95E00E94BF1F14C091
:105A500090E2980F983090F4877021E030E0A9012F
:105A600002C0440F551F8A95E2F7CA0180959091B4
:105A700039068923809339060C94AB209BE5980F57
:105A8000933020F480E090E00C944212885A8731E1
:105A900020F480E090E00C942C120895CF9388239A
:105AA00009F46DC09CEF980F913AC8F5C82F80910A
:105AB00016018823E1F08091A80387FF18C0EC2F1E
:105AC000E695E695E695F0E0E455FA4F8281282FB9
:105AD00030E04C2F477081E090E002C0880F991FA2
