:100000000C9418030C945F030C945F030C945F032F
:100010000C945F030C945F030C945F030C945F03D8
:100020000C945F030C945F030C945F030C94902278
:100030000C944C220C945D230C945F030C945F038E
:100040000C945F030C945F030C9484230C94392369
:100050000C945F030C945F030C945F030C945F0398
:100060000C945F030C945F030C945F030C945F0388
:100070000C945F0305010902A10185020901A10099
:100080000509190129081500250195087501810246
:100090000501093009311581257F95027508810612
:1000A00009381581257F950175088106050C0A38E8
:1000B000021581257F950175088106C0C0050109DB
:1000C00080A101850319012AB700150126B7009503
:1000D0000175108100C0050C0901A10185041901F9
:1000E0002AA002150126A002950175108100C00505
:1000F000010906A1018505050719E029E715002575
:10010000019508750181020507190029EF150025E1
:100110000195F075018102050819012905950575FC
:10012000019102950175039101C00660FF0961A16B
:10013000010962150026FF009520750881020963F8
:10014000150026FF00952075089102C005010906DB
:10015000A101050719E029E715002501950875019A
:1001600081029501750881010507190029FF150015
:1001700026FF0095067508810005081901290595D7
:100180000575019102950175039101C00000000001
:10019000000000000000000000000000000000005F
:1001A000000000000000000000000000000000004F
:1001B0007E0F00D4FFFFFFC70000007800000000A2
:1001C000000000002A2B28000000000000000000B2
:1001D0000000000000000029000000002C1E342058
:1001E000212224342627252E362D3738271E1F207E
:1001F0002122232425263333362E37381F040506C3
:100200000708090A0B0C0D0E0F1011121314151606
:100210001718191A1B1C1D2F3130232D3504050604
:100220000708090A0B0C0D0E0F10111213141516E6
:100230001718191A1B1C1D2F3130354C00047F3F35
:100240001F643214643214783C1E1E140A05000127
:100250000101010101010101020202020202020286
:100260000203030303030303030404040404040458
:10027000050505050506060606060707070707081C
:10028000080808090909090A0A0A0B0B0B0C0C0CCF
:100290000D0D0D0E0E0E0F0F0F1010111111121269
:1002A00013131414151516161717181819191A1AE6
:1002B0001B1B1C1D1D1E1E1F202021222223242447
:1002C000252626272829292A2B2C2D2D2E2F303183
:1002D0003232333435363738393A3B3C3D3E3F4095
:1002E0004142434445464748494A4C4D4E4F505180
:1002F0005354555658595A5B5D5E5F61626465663A
:1003000068696B6C6D6F7072737577787A7B7D7EC0
:100310008082838587888A8C8E8F91939596989A10
:100320009C9EA0A2A3A5A7A9ABADAFB1B3B5B7BA28
:10033000BCBEC0C2C4C6C9CBCDCFD1D4D6D8DBDDFC
:10034000DFE2E4E7E9EBEEF0F3F5F8FAFDFFFFAAF0
:100350007F55402223252628292A2C2D2F30323361
:100360003536383A3B3D3E4042434547494A4C4E7C
:100370005051535557595A5C5E6062646668696BA8
:100380006D6F71737577797B7D7F81838587898AAE
:100390008C8E90929496989A9C9E9FA1A3A5A7A8B4
:1003A000AAACAEAFB1B3B4B6B8B9BBBCBEBFC1C2E4
:1003B000C3C5C6C7C9CACBCCCDCED0D1D2D2D3D477
:1003C000D5D6D7D7D8D9D9DADADBDBDBDCDCDCDC95
:1003D000DCDDDDDDDDDCDCDCDCDCDBDBDBDADAD963
:1003E000D9D8D7D7D6D5D4D3D2D2D1D0CECDCCCBE5
:1003F000CAC9C7C6C5C3C2C1BFBEBCBBB9B8B6B403
:10040000B3B1AFAEACAAA8A7A5A3A19F9E9C9A9892
:10041000969492908E8C8A89878583817F7D7B7963
:10042000777573716F6D6B6968666462605E5C5A44
:100430005957555351504E4C4A4947454342403E07
:100440003D3B3A3836353332302F2D2C2A29282699
:100450002523220000000000000000000000010130
:100460000203040506080A0C0F1114181C20242985
:100470002E33393F464C535B626A7179818A929A76
:10048000A2AAB2B9C1C8CFD5DCE1E7EBF0F4F7FA24
:10049000FCFDFEFFFEFDFCFAF7F4F0EBE7E1DCD536
:1004A000CFC8C1B9B2AAA29A928A8179716A625BF5
:1004B000534C463F39332E2924201C1814110F0C9D
:1004C0000A08060504030201010000000000000004
:1004D0000000002900E000E2002A0053005400550B
:1004E0000056005F006000610057005C005D005E28
:1004F00000570059005A005B005800620062006318
:10050000005800010001000100010001000100018C
:1005100000010001000100010001000100010001D3
:1005200000010001000100010001000100010001C3
:1005300000010001000100010001000100010001B3
:1005400000010001000100010001000100010001A3
:100550000001000100010001000100010001000193
:100560000001000100010001000100010001000183
:100570000001000100010001000100010001000173
:100580000001000100010001000100010001000163
:1005900000010009025B00030100A0FA0904000049
:1005A000010301010009211101000122400007059A
:1005B0008103080001090401000203000000092171
:1005C0001101000122220007058203200001070516
:1005D00003032000010904020001030000000921B7
:1005E0001101000122B60007058403200001120159
:1005F00000020000000803A1060001000102000142
:1006000018034B00420044005000410044002D00FC
:100610004D004B0049004900000010034B00420010
:100620004400660061006E007300000004030904CA
:1006300011241FBECFEFD4E0DEBFCDBF04B603FE52
:1006400027C08091B6029091B702A091B802B091F4
:10065000B9028730904BA740B04BD1F41092B6024C
:100660001092B7021092B8021092B90214BE84B769
:10067000877F84BF0FB6F894A89580916000886149
:1006800080936000109260000FBEE0E0F8E30995EF
:1006900022E0A4E9B1E001C01D92A63BB207E1F758
:1006A00011E0A0E0B1E0E2E6F9E502C005900D92AC
:1006B000A439B107D9F70E94E6230C94322C0C948C
:1006C00000002091E4003091E50095E6A901209119
:1006D000EC00822F817020FF06C08091E80080FF2F
:1006E00006C080E008952091E80022FD1AC08091A4
:1006F000A802882389F0853089F08091EB0085FD80
:100700000FC02091E4003091E50042175307F9F241
:100710009150E1F684E0089582E0089583E0089521
:1007200081E00895EF92FF920F931F93CF937C0186
:100730008B010E946103C82F811117C08091E800CE
:1007400085FD0BC08091E8008E778093E8000E94C1
:100750006103882399F3C82F08C0F70181917F01B5
:100760008093F1000150110949F78C2FCF911F910F
:100770000F91FF90EF9008958091AA0287FF13C018
:100780008091E80082FF06C08091E8008B7780931B
:10079000E80004C08091A8028111F2CF08958091F1
:1007A000A8028823D9F38091E80080FFF8CF8091D8
:1007B000E8008E77ECCF982F9093E900242F762FC6
:1007C00050E0891731F07091EC002091ED005091CC
:1007D000F00021FD07C09F5F953071F78093E9001D
:1007E00081E008953091EB003E7F3093EB00309133
:1007F000ED003D7F3093ED003091EB0031603093A0
:10080000EB007093EC002093ED005093F0002091EA
:10081000EE0027FDE0CF80E00895FC018091B0025A
:100820009091B10286179707A0F06115710529F420
:100830009091E8009E779093E80090E06115710533
:1008400051F4911108C08091E80082FF32C080E02D
:100850000895BC01F2CF8091A8028823B1F18530C0
:10086000B1F18091E80083FD2EC08091E80082FD07
:10087000EACF8091E80080FFE1CF2091F20030E0E4
:100880006115710519F02830310558F091E02830D4
:10089000310509F090E02091E8002E772093E800E0
:1008A000CDCF81918093F100615071092F5F3F4F4F
:1008B000E7CF8091A802882341F0853041F08091F4
:1008C000E80083FFC0CF81E0089582E0089583E0CF
:1008D00008958091850208959C014FB7F894809106
:1008E0007B0290917C02A0917D02B0917E024FBF6D
:1008F000821B930B08952FB7F89480917B029091FF
:100900007C02A0917D02B0917E022FBF08952091BC
:100910007802309179022817390771F090937902A3
:1009200080937802E0917602F0917702309721F07F
:100930000084F185E02D099408952091740230918E
:1009400075022817390771F090937502809374022D
:10095000E0917602F0917702309721F00680F781DE
:10096000E02D09940895E0917602F0917702309796
:1009700021F00190F081E02D099480E00895CF925C
:10098000DF92EF92FF928C3724E1920750F469E0F6
:1009900070E00E94382ACB01FF90EF90DF90CF905B
:1009A0000895B0E0A0E0BC01CD016A50774D8F4FB3
:1009B0009F4F982F872F762F662725EF38E241E04B
:1009C00050E00E94102C69017A01CA01B9010E940D
:1009D000F72BA70196010E94F72B672F782F892FFD
:1009E00099276115710521E082079105A1F66FEF46
:1009F0007FEFD1CF863000F581111FC0909180002C
:100A0000977F909380002F98682F70E090E080E0AF
:100A10002FEF3FEF40E050E00E94F72B25E030E061
:100A200040E050E00E94102CC9010E94BF04909346
:100A30008D0080938C00089585E0909180009860EF
:100A400090938000E1CF282F220F220F220F909148
:100A500070029770922B90937002987F21E009F4B6
:100A600020E09091700220FB90F9909370020C941A
:100A7000FA04FA01811101C0FB01099408958091E3
:100A80006B02982F9E7F29F48170826080936B02A5
:100A900008958A34E8F381708864F8CFAF92BF92EA
:100AA000CF92DF92EF92FF920F931F93CF93DF933A
:100AB0008901E42FF0E0E25BFD4F611115C09491D4
:100AC000392FE92FD8011196EC9311979C93129628
:100AD0003C93DF91CF911F910F91FF90EF90DF90AA
:100AE000CF90BF90AF900895C82FD0E0E62EF12CA4
:100AF000E4914E2FAE2EB12CCE0166E070E00E9444
:100B0000272ACC24CA94D12CB6010E94382ADB01B2
:100B1000CC0FDD1FCB0165E570E00E94272AC81BC2
:100B2000D90B8C2F880FC80FC6018E199F09B501EC
:100B30000E94272A392FD0E0CE01B7010E94272A30
:100B4000692F70E0C601861B970BB5010E94272A0A
:100B5000292FC6018C1B9D0BB7010E94272A692FE4
:100B600070E0C601861B970BB5010E94272A892FCA
:100B7000A230B10589F040F4109709F4A3CF119782
:100B800079F0932F322F9ECFA430B10561F078F029
:100B9000169709F497CFF5CF9E2FE32F382F92CFDA
:100BA0009E2FE22F8FCF932F3E2FE82F8BCFE32F57
:100BB000342F922F87CF0E947B049C0190912C02AE
:100BC00080912D02982B21F0309329022093280246
:100BD00090912E0280912F02982B21F030932702C2
:100BE00020932602E0917602F0917702309749F047
:100BF00082E080932A020480F581E02D8AE292E06F
:100C00000994089540912C02803F59F480912D025F
:100C100087FF0DC010922D0241110BC010922402CB
:100C200008C0813F81F480912D0218169CF3442363
:100C300081F080912E0290912F02892B09F05AC0E9
:100C4000109223020895823F49F447FFF0CF10929B
:100C50002C0280912D028111ECCFE0CF833F19F45B
:100C60001416ACF3E4CF90912E02893F29F41916A3
:100C7000F4F610922E02DBCF8A3F19F497FFD7CFFC
:100C8000F8CF90912F028B3F29F497FFD0CF10928D
:100C90002F02CDCF8C3F19F41916CCF3C8CF9CE0AE
:100CA000980F953090F4845F990B21E030E0B90102
:100CB00002C0660F771F8A95E2F7CB01809590916D
:100CC0002B02892380932B02B2CF8D3F31F4809188
:100CD00025028E7F80932502AACF8E3F21F480913A
:100CE00025028D7FF7CF8F3F09F0A1CF809125029C
:100CF0008B7FF0CF08958091250280FF0CC060911A
:100D0000150170E075956795759567956115710585
:100D100059F1862F089581FF06C06091150170E09A
:100D200075956795F3CF6091150170E082FD0CC059
:100D3000609123026623A9F020911401809115018E
:100D400090E0621730F0BC0160387105F8F28FE76F
:100D5000089570E00E94272A622F70E00E944C2ABA
:100D6000F3CF61E070E0D5CF81E008958091250256
:100D700080FF11C08091130190E065E070E00E9457
:100D8000272A959587959595879580389105B0F593
:100D90000097B1F1089581FF0AC08091130190E09E
:100DA00065E070E00E94272A95958795EECF82FF37
:100DB00008C08091130190E065E070E00E94272A4E
:100DC000E4CF809124028823B1F020911201609138
:100DD000130170E0821710F0CB01EECF90E00E947B
:100DE000272A65E070E00E94272A622F70E00E94A7
:100DF0004C2ACB01CACF85E090E008958FE7089593
:100E000081E00895803F31F40E94B6068195809379
:100E10002D020895813F19F40E94B606F8CF823F53
:100E200031F40E94B606819580932C020895833F89
:100E300019F40E94B606F8CF893F29F40E947B0678
:100E400080932E0208958A3F21F40E947B068195AB
:100E5000F7CF8B3F31F40E947B06819580932F0260
:100E600008958C3F19F40E947B06F8CF9CE0980F00
:100E7000953070F4845F990B21E030E001C0220FBF
:100E80008A95EAF780912B02822B80932B0208959A
:100E90008D3F31F480912502816080932502089571
:100EA0008E3F21F4809125028260F7CF8F3FB9F702
:100EB000809125028460F1CF80E00895F894E82FB6
:100EC000E295EF70F0E031A1282F2F7081E090E0E3
:100ED00001C0880F2A95EAF7982F9095932391A344
:100EE00092A1892B82A37894089590917F0292FF1A
:100EF00006C0282F28712830F9F4877F846093FF7B
:100F000006C0282F28712831F1F4877E8461209152
:100F1000800220FF06C0382F38713830D9F4877F1F
:100F2000816021FF06C0282F28712831D1F4877EE7
:100F3000816194FD877E0895282F24712430F9F66D
:100F40008B7F8860DCCF282F2471243101F78B7EC2
:100F50008861DDCF382F3171313019F78E7F88608D
:100F6000E0CF282F2171213121F78E7E8861E1CFDA
:100F7000CF93DF93EC0182389105A9F1D8F5813345
:100F8000910509F496C048F58932910509F48AC0A3
:100F90008A9709F495C0C11521E5D20708F0BCC0B5
:100FA000C11530E5D30708F016C1C83ED10508F0D9
:100FB0009CC0C03ED10560F5C83AD10508F087C095
:100FC000C53AD10508F0FFC0C130D10509F120971D
:100FD000F9F0C430D105E0F440C08533910509F43F
:100FE0005AC0C997C1F680917F02837089F0C0EE24
:100FF000D0E00EC0833E910599F170F4803E9105DA
:1010000001F1823E910539F680917F0282FD21C077
:10101000CE01DF91CF910895863E910561F1873E23
:10102000910571F1843E910509F0B5CF8091800260
:1010300081FFEECF80917F02C7EED0E084FD0DC02E
:10104000E7CF80917F0280FD18C19091800290FFD0
:10105000DFCFC3EED0E084FFDBCFD0E0C0E0D8CF5D
:1010600080917F0282FD0CC19091800290FDBFCFE4
:1010700084FFCECFF2CF80917F0283FDDDCFC8CF3A
:1010800080917F0283FDFFC09091800291FFF0CF9D
:10109000C4EED0E0BDCF80917F0285FFB9CFC9E219
:1010A000D0E0B6CF80917F0285FFB2CFC5E3D0E01C
:1010B000AFCF80917F0286FFABCFCAE2D0E0A8CF4E
:1010C00080917F0286FFA4CFC1E3D0E0A1CFCF3BC8
:1010D000D10518F6C85AD0E0CC0FDD1FC85DDE4F31
:1010E0000990D881C02DD46493CFC11540E2D407B4
:1010F00058F4C11581E0D80708F08ACFC03FD10568
:1011000008F4ABCFD06584CFC11520E4D20708F432
:10111000A4CFDF70D06A7CCFC11535E5D30710F5B9
:10112000C11544E5D40708F090C0C11583E5D80780
:1011300008F075C0C11522E5D20708F46BC0CE01D6
:101140008370992721E030E002C0220F331F8A9577
:10115000E2F7C695C695D0E0E5E0CC0FDD1FEA9535
:10116000E1F754C0C11539E5D307A8F4C11548E526
:10117000D40708F06FC0C11586E5D80708F06DCF19
:101180008C2F0E947507C82FD0E0DC2FCC27CC27EE
:10119000DF71D0623DCFC1152AE5D20708F45FC0E8
:1011A000CE0190568115904208F057CF8D2F8F7148
:1011B0000E94750790E0982F882788279F719C01CF
:1011C0002C2BE901E6CFC55AD0E0CB5DDE4FC881BC
:1011D000D0E0D0641DCFCE01A4E096958795AA9566
:1011E000E1F783702C2F26952695237030E0B5E02B
:1011F000220F331FBA95E1F7382B8C2F8370C1E093
:10120000D0E002C0CC0FDD1F8A95E2F7C22BD32BB2
:10121000DC68FECEDC2FCC27C16FD06AF9CECE01C0
:101220008370992721E030E002C0220F331F8A9596
:10123000E2F7C695C695D0E075E0CC0FDD1F7A9534
:10124000E1F7C22BD32BDA68E3CEDC2FCC27C46FB7
:10125000D06ADECEDC2FCC27C06FD06AD9CE8C2FDF
:101260008F700E94750734E0D695C7953A95E1F7DF
:10127000CF709C2FEC01D069CBCEC9E3D0E0C8CEB3
:10128000C2EED0E0C5CEC6EED0E0C2CE8091030261
:10129000811110920302089580910202909101023F
:1012A000892B90910002892B80939A0190910302DF
:1012B0009923A1F0892B80939A018091240188239E
:1012C00041F180917F0287FF24C08EE1ECE9F1E0DB
:1012D00090E0815000F591110E944609E09176025C
:1012E000F09177023097E1F080912401882359F042
:1012F00080917F0287FF07C080919A0180939B01B4
:1013000085E080939A010280F381E02D8AE991E0E3
:10131000099486E0DBCF21912223D9F29F5FD9CFB8
:101320000895909124019923D1F090917F0297FF25
:1013300016C0E82FE695E695E695EE31E0F4F0E08C
:10134000E656FE4F282F277081E090E001C0880FFD
:101350002A95EAF780959281892382830895ECE9A2
:10136000F1E09191891303C0DF0111971C9291E084
:10137000E23AF907B1F70895909124019923C1F059
:1013800090917F0297FF14C0E82FE695E695E695C9
:10139000EE31F8F4F0E0E656FE4F877021E030E0E1
:1013A00001C0220F8A95EAF78281822B82830895F9
:1013B000ACE9B1E0EFEF90E02D91821751F0EF3FF3
:1013C00019F4211101C0E92F9F5F9630A9F7EF3F73
:1013D00009F408950E2E000CFF0BE656FE4FE6CFE3
:1013E0008091FE019091CD01981301C008958F5F07
:1013F0008770FACF990F990F890FA82FA77086953C
:101400008695869590E063E070E00E94272AFC01B3
:10141000E254FE4F50E040E080E0219130E00A2E9F
:1014200002C0369527950A94E2F721703327042EDF
:1014300001C0220F0A94EAF7822B4F5F5F4F4330BF
:10144000510559F70895CF93DF93262F990F990FE0
:10145000890F982F9770E1E001C0EE0F9A95EAF797
:1014600086958695869590E063E070E00E94272A35
:10147000DC01A254BE4F50E040E0622F70E08D913D
:10148000ED0121979B01042E02C0369527950A9401
:10149000E2F72170219528272E23282728834F5FE4
:1014A0005F4F4330510559F7DF91CF91089590E098
:1014B00080E00E949D0490E080E00E9487041092EA
:1014C0000102109200020E944C0986E0EAE2F2E07A
:1014D000DF011D928A95E9F71092240210922302EF
:1014E000109225020C94DB058093B5020C94570AE8
:1014F0008091B502982F9670963019F488600C94FC
:10150000740A877FFCCF21E030E001C0220F8A956A
:10151000EAF720958091B50282230C94740A909189
:10152000FF01809589238093FF01282F277039F4CC
:10153000282F082E000C330B9217130621F49091DC
:10154000800292FF07C08595859585950E94830A44
:101550001092FF01089521E030E001C0220F8A952A
:10156000EAF78091B502822B0C94740A80930402EE
:101570000C94570A882341F08095909102028923A8
:10158000809302020C944C090895882339F09091BD
:101590000202982B909302020C944C090895882320
:1015A00009F459C0823871F40E94B30481FF53C01A
:1015B00089E30E94BC090E944C0989E30E949109B9
:1015C0000C944C09833859F40E94B30480FF43C043
:1015D00083E50E94BC090E944C0983E5EFCF843863
:1015E00059F40E94B30482FF36C087E40E94BC090C
:1015F0000E944C0987E4E2CF9CEF980F913AF0F2F9
:1016000090E2980F983088F4877021E030E0A901CB
:1016100002C0440F551F8A95E2F7CA018095909148
:101620000202892380930202CBCF9BE5980F93306F
:1016300020F490E080E00C949D0498E5980F973199
:1016400020F490E080E00C948704803F20F00E941A
:1016500002060C94DB05089580FD02C02C9A0895C3
:101660002C9808959091A802943029F580938102D6
:1016700070938302609382029093E9008FEF9091C0
:10168000E800815095FD06C095ED9A95F1F70000B0
:101690008111F5CF8091E80085FF0DC050E040E05A
:1016A00063E070E081E892E00E9492038091E8009C
:1016B0008E778093E8000895BC0184E00C94320B8F
:1016C000BC0183E00C94320B9C0184E08093E90020
:1016D0009FEF8091E800915085FD06C085ED8A95C9
:1016E000F1F700009111F5CF8091E80085FF0CC063
:1016F00050E040E066E070E0C9010E9492038091F2
:10170000E8008E778093E8000895CF93DF93EC0193
:10171000809124018823B1F180917F0287FF32C03C
:1017200060E284E08093E9008FEF9091E8008150BF
:1017300095FD06C095ED9A95F1F700008111F5CF62
:101740008091E80085FF1BC08091240170E050E08B
:1017500040E0811104C050E040E068E070E0CE015C
:101760000E9492038091E8008E778093E80080E2E7
:10177000FE01A6E8B2E001900D928A95E1F7DF91B3
:10178000CF91089568E081E0CDCF81E08093E000C3
:1017900080E28093D8001092C9008FE19EE4019707
:1017A000F1F700C0000087E090EBDC018093B60207
:1017B0009093B702A093B802B093B90288E19CE07D
:1017C0000FB6F894A895809360000FBE90936000C8
:1017D000FFCF80916B0280FD0AC0EBE3F2E0118243
:1017E00010821282339652E0EB36F507C1F7259A44
:1017F00035B13F7D25B120624FB7F8948BE392E07D
:10180000FC015191CF0168E025B9000000C057FFED
:1018100035B9550F000000C000C000C035B900C088
:101820006A9591F7F2E08B369F0751F74FBF8FE52E
:1018300094E00197F1F700C000000895EF92FF9245
:101840000F931F93CF93DF938C01CBE3D2E0F12C66
:10185000E12CF801948160916D0280916C02F8E0B6
:10186000EF16F104FCF49923F9F09E0140916E0209
:101870000E944E052FEFE21AF20A239680E1E81645
:10188000F10439F70E94E90BF801848190E0019698
:10189000817099278483DF91CF911F910F91FF90E1
:1018A000EF900895992309F39E0140E0E1CF4F9214
:1018B0005F926F927F928F929F92AF92BF92CF92E0
:1018C000DF92EF92FF920F931F93CF93DF938C01E0
:1018D000FC01C481CC2ED12CF12CE12CA701960166
:1018E000C701B6010E94F72BA70196010E94F72BB2
:1018F0002B013C0140E2C42ED12CCC1AD1080D2C76
:10190000000CEE08FF0825E530E040E050E00E94C2
:10191000F72B4B015C01A7019601C701B6010E949C
:10192000F72BA70196010E94F72B9B01AC01240D18
:10193000351D461D571DC501B4010E94102CD22E25
:10194000822F90E0F9E2F21708F443C063E070E000
:101950000E94272A97FD019695958795C82FC095D7
:101960003BE3E32E32E0F32ED0E085E5C82ECD1820
:101970008C2DD1FD8D2D97014C2F60916D020E9411
:101980004E05DF5F53E0E50EF11CD03189F70E9470
:10199000E90BF801948181E0992319F0903219F450
:1019A0008FEF8093230180912301890FF8018483B5
:1019B000DF91CF911F910F91FF90EF90DF90CF902B
:1019C000BF90AF909F908F907F906F905F904F905F
:1019D000089525E530E0A901481B590BCA01B6CF8F
:1019E0000F931F93CF93DF93CBE3D2E0FE011182DD
:1019F00010821282339682E0EB36F807C1F710E0CE
:101A000000E080913902082E000C990B0817190785
:101A10008CF180912201082E000C990B8017910700
:101A20004CF19E0140916E0260916D0280916C02BA
:101A30000E944E050F5F1F4F23960031110509F7D5
:101A40000E94E90B8091210190913902980F9093A7
:101A5000390220912201280F20932201121614F43A
:101A60009F301CF0819580932101DF91CF911F91D0
:101A70000F910895198218821A82DCCFCF92DF92DB
:101A8000EF92FF920F931F93CF93DF93FC0182811C
:101A9000DD24DA9480FD02C0DD24D394CBE3D2E0D0
:101AA00010E000E0198218821A8234E0E32EF12C53
:101AB000C12C809138028C0D8131CCF18F70082EB1
:101AC000000C990B8017910791F480916E0290E0C1
:101AD000B7010E94272A95958795959587959E0130
:101AE000482F60916D0280916C020E944E05CD0CD2
:101AF000F1E0EF1AF108E9F60F5F1F4F239600316E
:101B0000110581F60E94E90B8091380291E0D9120B
:101B100014C0811110C08FE080933802DF91CF9103
:101B20001F910F91FF90EF90DF90CF90089587FF66
:101B3000C6CF805FC4CF8150EFCF90E001968F7009
:101B40009927EACFEF92FF921F93CF93DF93EC0197
:101B50008BE3E82E82E0F82E10E08C819701409113
:101B60006E0260916D02810F0E944E05115F83E04D
:101B7000E80EF11C103F89F70E94E90B9A818C81D5
:101B800090FF08C08F5F8C83DF91CF911F91FF90F2
:101B9000EF9008958150F7CF90916B0290FF0CC0A9
:101BA000EBE3F2E0818360834283339692E0EB368D
:101BB000F907C1F70C94E90B08950F931F93CF9386
:101BC000DF9300D00F92CDB7DEB78C0180913A023F
:101BD00081110AC09E012F5F3F4F4FEF6FEF0E94B0
:101BE0004E058A8180933A02F8016481613069F080
:101BF00080913A0240E0662361F040E0623011F4E7
:101C000040913A0280E060E004C060913A0240E016
:101C100080E00E94CC0DF801848190E0019663E0A1
:101C200070E00E944C2A84830F900F900F90DF91F8
:101C3000CF911F910F910895CF93DF9300D00F9212
:101C4000CDB7DEB790916B0290FF0AC09E012F5F67
:101C50003F4F0E944E054B8169818A810E94CC0DC5
:101C60000F900F900F90DF91CF910895CF93DF9356
:101C7000EC01EBE6F2E0438162818C810E941C0E54
:101C80008C818F5F8C83DF91CF910895CF93DF9309
:101C9000EC01EC81F0E0ED5AFC4F4491EBE6F2E010
:101CA000628181810E941C0E8C818F5F8C83DF9109
:101CB000CF910895CF93DF93C7EED0E060E0CE01DF
:101CC0000E94C32B2196C11584E0D807B9F7DF9194
:101CD000CF9108956F927F928F929F92AF92BF9211
:101CE000CF92DF92EF92FF920F931F93CF93DF93E8
:101CF00083EDC82E84E0D82E0FE510E0E801E097D0
:101D000036011CC0F50185909490692DC7010E9491
:101D1000C32B682DC70101960E94C32B82E0A80E39
:101D2000B11C82E0E80EF11CCE15DF0559F788E002
:101D3000680E711C28960C171D0731F07E0188E093
:101D4000E81AF1085301DECF005D1F4F80E3C80E93
:101D5000D11C0F3181E0180789F6DF91CF911F91D7
:101D60000F91FF90EF90DF90CF90BF90AF909F903A
:101D70008F907F906F900895CF93C82F6FEF811150
:101D800061E283E290E00E94C32B6FEFC11169E032
:101D900084E290E00E94C32B6FEFC11166E085E200
:101DA00090E0CF910C94C32B80E00E94BC0E60E0C9
:101DB00086E290E00E94C32B0E946A0E0E945A0E97
:101DC00081E00C94BC0E682F86E090E00C94C32B4D
:101DD0008091700281FF11C08D7F809370020E94FC
:101DE000E30E80916F008E7F80936F008091700270
:101DF0008695869586950C94FA04089580917002D4
:101E000081FD10C08260809370020E94E30E1092E8
:101E10007302109272021092710280916F008160C1
:101E200080936F000895CF93C92F682F84E090E0CE
:101E30000E94C32B6C2F82E290E0CF910C94C32BB5
:101E40009091800292FB222720F9281751F080FB05
:101E500092F99093800280917F02909180020C947D
:101E6000130F08950F931F93CF93DF93C62FD0E0E6
:101E700093E0CC0FDD1F9A95E1F750E0440F551F1A
:101E8000C40FD51F90E060E370E00E94272AC80FBE
:101E9000D91FCE0187960E94AF2B082F10E0102F7C
:101EA0000027CE0188960E94AF2B9801282BC901EC
:101EB000DF91CF911F910F910895462F843038F410
:101EC000763028F4643018F4672F0C94320F90E0C9
:101ED00080E00895CF92DF92FF920F931F93CF93EC
:101EE000DF936C010091B50280910402082BC7E0DA
:101EF000D0E010E0FC2EC8010C2E02C0959587950D
:101F00000A94E2F780FD0CC02197A0F7F12C8F2DE9
:101F1000DF91CF911F910F91FF90DF90CF900895A7
:101F2000B6018C2F0E945D0F0E94B807019761F3E4
:101F3000EECFCF93DF93EC010E946A0FBE010E94A7
:101F40005D0FDF91CF910C94B807FC0180819181E6
:101F50000E94990F292F2F7092959F7092509E305A
:101F600078F4E92FF0E0EC5CF34D0C94602A803FAC
:101F700019F020F4883E20F481E00895843FE1F3D5
:101F800080E00895883EC0F3813FD1F7F5CF822FDE
:101F9000869586958695089583E290E00E94AF2B02
:101FA000813289F484E290E00E94AF2B893059F4A9
:101FB00085E290E00E94AF2B91E0863009F090E03E
:101FC000892F8170089580E0FCCFCF9384E090E06A
:101FD0000E94AF2BC82F82E290E00E94AF2B982F77
:101FE0008C2FCF91089560916B02669570E04BE065
:101FF00050E086E191E00E94952B892B19F481E055
:10200000809337020E947B049093310280933002C8
:102010000895CF92DF92EF92FF926B017C010E94B4
:102020003F05B701A60188E090E0FF90EF90DF90B8
:10203000CF900C94D52B7F928F929F92AF92BF92AC
:10204000CF92DF92EF92FF920F931F93CF93DF9384
:1020500000D00F92CDB7DEB7182FD62E042FC22E88
:1020600090916B0290FF29C0E92FE695AE2FB0E06A
:10207000A05ABE4F8C91809336029E7F923071F5AC
:102080009E012F5F3F4F812F0E944E054B8169813A
:102090008A810E94CC0D10936C02D0926D02009345
:1020A0006E02CC2051F060916B0270916C028091B5
:1020B0006D0290916E020E9409100F900F900F9088
:1020C000DF91CF911F910F91FF90EF90DF90CF9014
:1020D000BF90AF909F908F907F900895823019F4B9
:1020E00000916E02D8CF863019F410916C02D3CFD4
:1020F0008930D9F3893179F6E9512E2F2170722E6A
:10210000E695F0E0E25BFC4F8590949099243BE3E8
:10211000E32E32E0F32EB12CA12CC50124E09695DC
:1021200087952A95E1F7711013C0810F9701402F11
:102130006D2D0E944E05A80CB91C83E0E80EF11C21
:102140002BE6E21622E0F20641F70E94E90BA3CF4C
:10215000212F281B822FEACFEBE6F2E0438128E013
:10216000421B08F440E021E0628181810C941B1045
:10217000EBE6F2E0438128E0420F08F44FEF21E064
:10218000628181810C941B10EBE6F2E0628128E011
:10219000621B08F460E021E0438181810C941B10F4
:1021A000EBE6F2E0628128E0620F08F46FEF21E0D5
:1021B000438181810C941B10EBE6F2E0818121E0E8
:1021C0004381628188500C941B10EBE6F2E0818120
:1021D00021E043816281885F0C941B1080916F0223
:1021E000882319F0815080936F0260916B02709187
:1021F0006C0280916D0290916E020C940910809196
:102200006F02833018F48F5F80936F0260916B02CE
:1022100070916C0280916D0290916E020C94091085
:1022200090916B0290FF36C09170811129C092602D
:1022300090936B02662351F060916B0270916C0277
:1022400080916D0290916E020E94091060916B0264
:10225000669570E04BE050E086E191E00E94952B9E
:10226000892BA9F01092370281E08093330220E09D
:1022700040916E0260916D0280916C020C941B1073
:10228000853210F09864D4CF880F982BD1CF0E945C
:10229000F30FEACF089580916B028695815009F47F
:1022A00084E261E00C94101180916B0286958F5F3F
:1022B000853208F081E061E00C94101190916B027E
:1022C00090FF07C09695981720F0961710F40C947D
:1022D000541161E00C941011EBE6F2E083E080838E
:1022E00011828FEF82838383148260817181828166
:1022F00093810C94091069EE7EEF90E080E00E94DB
:10230000E12B60E082E090E00E94C32B60E083E07C
:1023100090E00E94C32B1092040260E084E090E001
:102320000E94C32B60E082E290E00E94C32B60E039
:1023300085E090E00E94C32B60E086E090E00E9480
:10234000C32B6FEF87E090E00E94C32B40E050E08A
:10235000BA0188E090E00E94D52B60E08DE090E02B
:102360000E94C32B40E050E0BA0188E190E00E9457
:10237000D52B60E087E190E00E94C32B40E050E065
:10238000BA018CE190E00E94D52B70E060E080E221
:1023900090E00E94E12B40E050E0BA0188E190E03B
:1023A0000E94D52B80E00E94BC0E0E94D40E40E01B
:1023B00050E0BA018FE090E00E94D52B40E050E061
:1023C000BA0183E190E00C94D52B4F925F926F920B
:1023D0007F928F929F92AF92BF92CF92DF92EF92B5
:1023E000FF920F931F93CF93DF9300D000D000D0C4
:1023F000CDB7DEB7AE014F5F5F4F6A0186E0DA010D
:102400001D928A95E9F736E5E32E31E0F32E10E0D0
:1024100000E0AA24A394B12CF70181917F018F3FA2
:1024200009F449C0F894E82FE295EF70F0E021A19B
:102430008F70A50102C0440F551F8A95E2F7CA01AB
:10244000922F982B91A392A18095892382A37894AF
:1024500000C0ECE5F1E030E020E0912C41914F3FED
:1024600009F4A2C0A42FA295AF70B0E090968C9111
:1024700090E04F7002C0959587954A95E2F780FDF0
:1024800093C08A2D022E01C0880F0A94EAF7982A79
:102490002F5F3F4F2430310509F7F70131978081D5
:1024A0008F3F11F00E945E0750EA5A95F1F7F6014E
:1024B000E00FF11F90820F5F1F4F0630110509F0EA
:1024C000ABCF46E050E0B6018BE092E00E94A22B39
:1024D0008C01FF24F394892B09F4F12C01151105CB
:1024E00041F086E0F601ABE0B2E001900D928A95F2
:1024F000E1F7E0900702EE2009F462C00E947B043D
:102500002091050230910602DC01A21BB30B9D0154
:102510009093060280930502AF3FB10511F008F0D9
:1025200045C0AB2BF1F1922E109207028091090267
:1025300090910A02EBE1F2E04BE052E06C01B8E16D
:10254000CB0ED11C712CAA24A394B12C2C0130E009
:1025500020E0D2018D902D018820A9F0BD016150AD
:102560007109981430F1DB011C926080DA016C91E2
:10257000862C8626B501022E01C0660F0A94EAF762
:102580006821662560832F5F3F4F2430310509F7AE
:10259000049631964F5F5F4FC816D906B9F6709210
:1025A0000702012BA9F447C080E071CF2FEF30E084
:1025B000BACF8918DB018C927E2CE5CF10822EC019
:1025C000012BC9F10E947B049093060280930502BF
:1025D0004091090250910A0260910702ABE0B2E01B
:1025E0000BE112E081E1C82E82E0D82E75E08D91DA
:1025F000F80191918F018927FA0130E020E090E005
:102600005C01022E02C0B594A7940A94E2F7A0FEE2
:10261000D5CFE080E11002C0708361E031962F5F7A
:102620003F4F2430310561F74C5F5F4FCA16DB0620
:10263000F1F6609307028F2D26960FB6F894DEBF51
:102640000FBECDBFDF91CF911F910F91FF90EF9003
:10265000DF90CF90BF90AF909F908F907F906F90C2
:102660005F904F90089590E080E00E94BD2B893EDE
:102670009E4F11F40C94CC0F80E008950E94331308
:1026800081110AC00E947B1180917002847089625E
:10269000809370020E94E30E86E090E00E94AF2BD0
:1026A00080937002803320F087708862809370027C
:1026B00090917002892F817090FF04C0892F8695B8
:1026C000869586950C94FA0410920202809124015A
:1026D000ECE9F1E0882359F080917F0287FF07C081
:1026E0008EE1DF011D928A95E9F70C94570A86E086
:1026F000F8CF1F93CF93DF93CDB7DEB7AA970FB66E
:10270000F894DEBF0FBECDBF8AEA92E02091F100BF
:10271000DC012D93CD01B2E0823B9B07B9F780919C
:10272000AB02833009F46FC0B8F4813009F446C0BD
:10273000823009F4B0C08091E80083FF85C28091A7
:10274000AA029091AB029A3008F07EC2E92FF0E025
:10275000EE5BF34D0C94602A8A3009F48BC08B3009
:1027600009F46EC0893039F78091AA02813219F7D5
:102770008091AE029091AF02009711F00297D9F6C6
:102780008091E800877F8093E8008091E80082FFD5
:1027900035C08091F200823029F48091F1008B7F66
:1027A000813021F48091F100809385028091E800CE
:1027B0008B778093E8000E94BC03BDCF8091AA0272
:1027C000813A09F0B8CF8091E800877F8093E800D4
:1027D0008091AE029091AF02892B61F460E286E8AD
:1027E00092E070E00E940D048091E8008B77809366
:1027F000E800A1CF60E090E080E0F3CF8091A802F4
:102800008111C3CF98CF8091AA02813A09F093CF6A
:102810008091AE029091AF02892B09F08CCF80910C
:10282000E800877F8093E8008091E80080FFFCCF7C
:10283000809124018093F1008091E8008E77B9CFD8
:102840008091AA02813209F076CF8091AE029091F8
:10285000AF02892B09F06FCF8091E800877F8093CA
:10286000E8000E94BC038091AC02809324010E9486
:10287000641361CF8091AA02813209F05CCF80910C
:10288000E800877F8093E8000E94BC038091AD023E
:102890008093840250CF8091AA02813A09F04BCFF5
:1028A0008091E800877F8093E8008091E80080FFB6
:1028B000FCCF80918402BECF803899F0823809F035
:1028C000C3C18091AE028F70853008F0BDC1809386
:1028D000E9008091EB0085FB882780F91092E900E0
:1028E00006C08091A6029091A702911182609091FA
:1028F000E800977F9093E8008093F1001092F10038
:102900008091E8008E779CC1882309F48AC18230C7
:1029100009F09AC18091AC0281118DC18091AE0203
:102920008F702FEF280F243008F08EC18093E900BC
:102930002091EB0020FF7FC1933031F48091EB00B8
:1029400080628093EB0077C19091EB00906190934F
:10295000EB0021E030E001C0220F8A95EAF72093D6
:10296000EA001092EA008091EB008860EACF8111C2
:102970006BC11091AC021F778091E3008078812BAE
:102980008093E3008091E800877F8093E8000E94B5
:10299000BC038091E80080FFFCCF8091E300806859
:1029A0008093E30082E0111183E08093A8024CC180
:1029B0008058823008F048C12091AC023091AD02BD
:1029C0002C3DE3E03E07A1F583E08A838AE2898318
:1029D0004FB7F894DE01139620E03EE051E2E32F7A
:1029E000F0E050935700E49120FF03C0E295EF70B0
:1029F0003F5FEF708E2F90E0EA30C0F0C7968D9366
:102A00009D932F5F243159F74FBF8091E800877F56
:102A10008093E8006AE270E0CE0101960E940D0406
:102A20008091E8008B778093E8000EC1C096E7CFD5
:102A30008091AE029091AF02432F5527433051054C
:102A400009F44AC078F54130510509F47AC08BE5A4
:102A500090E0E3E9F5E04230510509F0F5C020913E
:102A6000E800277F2093E8002091B0023091B10266
:102A70008217930708F49C0140E02115310509F005
:102A800065C0411163C08091E80082FDC9CF80918B
:102A9000A802882329F2853019F28091E80083FF8B
:102AA000F2CFBECF4132510509F43CC0423251054C
:102AB00009F0CAC08330910508F0C6C0FC01EE0FD2
:102AC000FF1FE857FE4F0190F081E02D8B579E4F7E
:102AD000DC018C9190E01AC0332721303105D1F010
:102AE0002115310561F02230310509F0ADC0E0E07B
:102AF000F6E0E4918E2F90E0E0E0F6E007C0ECE233
:102B0000F6E0E4918E2F90E0ECE2F6E0009709F415
:102B10009BC0A5CFEAE1F6E0E4918E2F90E0EAE1D8
:102B2000F6E0F4CF8330910508F08EC0880F991F2E
:102B3000FC01E257FE4F0190F081E02D89E090E02A
:102B40008ECF82E190E0EEEEF5E089CF8091A80291
:102B5000882309F465CF853009F462CF8091E800BD
:102B600083FD5ECF8091E80082FD8DCF8091E800EB
:102B700080FF83CF8091F20090E02115310519F09C
:102B80008830910550F041E0089709F040E08091CD
:102B9000E8008E778093E80070CF44914093F10075
:102BA0003196215031090196E8CF803809F04CC0A8
:102BB0008091E800877F8093E8008091A90280934C
:102BC000F1009ECE811140C01091AC021230E0F5B0
:102BD0008091E800877F8093E8001093A9020E940B
:102BE000BC03112311F084E005C08091E30087FD50
:102BF000FACF81E08093A80242E061EC81E00E947C
:102C0000DB0342E261EC84E00E94DB0342E261EC20
:102C100082E00E94DB0342E260EC83E00E94DB037F
:102C200013C08091AC02813079F481E0933009F0D7
:102C300080E08093A7021092E9008091E800877FEE
:102C40008093E8000E94BC038091E80083FF0AC0E3
:102C50008091E800877F8093E8008091EB0080629C
:102C60008093EB00AA960FB6F894DEBF0FBECDBFDF
:102C7000DF91CF911F910895EBEFE80FEF3308F04C
:102C80006CC0F0E0E45BF34D0C94602A0E947B1171
:102C900081E0089580912202807F8093220281E06A
:102CA0008093210208950E9464132FEF84E39CE037
:102CB000215080409040E1F700C000000E94C50B09
:102CC00090912202892F8E7F90FF81608093220253
:102CD00080FDDECF817F80932202DACF90912202A5
:102CE000892F8D7F91FF82608093220281FFD0CF58
:102CF000809122028160EFCF90912202892F8B7FF9
:102D000092FF84608093220282FDF2CFC1CF909126
:102D10002202892F877F93FF88608093220283FDA0
:102D2000E7CFB6CF0E94641390917F02892F97FB63
:102D300087F9805880937F02ABCF81E00E94B60A6A
:102D40000E946413A5CF895391E001C0990F8A9521
:102D5000EAF7892FF3CF8D51F7CF80E00895CF9315
:102D6000C82F882309F4ABC08238C1F40E94B30491
:102D700081FDA5C089E30E94BC090E944C092FEF88
:102D800081EE94E0215080409040E1F700C00000C7
:102D900089E30E949109CF910C944C098338A1F4E6
:102DA0000E94B30480FD8BC083E50E94BC090E9491
:102DB0004C092FEF81EE94E0215080409040E1F7E4
:102DC00000C0000083E5E5CF8438A1F40E94B3047D
:102DD00082FD75C087E40E94BC090E944C092FEF58
:102DE00081EE94E0215080409040E1F700C0000067
:102DF00087E4CFCF8CEF8C0F813A08F0E5C080914B
:102E000021028130B9F1882359F1823009F44DC093
:102E10001092210280912401882309F4C6C0809178
:102E20007F0287FFC2C0EC2FE695E695E695F0E0BD
:102E3000E656FE4F828190E04C2F477021E030E053
:102E400002C0220F331F4A95E2F782239323892B76
:102E500009F4B6C08C2F0E9491090E944C09B0C0A1
:102E6000809102028232B1F68C2F0E943C168111B1
:102E700026C0D0CF809102028232B1F3C43171F00A
:102E800038F4CB3049F0C03161F080E08170EFCF91
:102E9000C93221F0C833C9F781E0F8CF109221027E
:102EA000F4CF82E080932102F7CFC93209F43FC00A
:102EB000E8F4C431E1F128F4C73009F45BC0CF91E4
:102EC000089582EE8C0F8A30D0F7CD51C093BD01AA
:102ED000C33009F446C0B0F5C13009F43FC081E108
:102EE00091E0C230B1F11092BD01E9CFC03509F4D3
:102EF00054C0B8F48AE0CF3411F7E091BB01F091EF
:102F0000BC013097E1F22081082E000C990B820F52
:102F1000911D8F3F910509F00CF443C08FEF808322
:102F2000CECFC135E1F181E0C23539F3C8CF809110
:102F3000BD01882321F21092BD011092BC011092B4
:102F4000BB01BDCFC53099F078F084E191E0C63087
:102F500051F69093BC018093BB01B1CF80E191E029
:102F6000F8CF83E191E0F5CF82E191E0F2CF85E106
:102F700091E0EFCF8EE18093100182E38093110105
:102F80008AE08093130184E18093120188E08093AA
:102F9000150188E28093140192CF86EFAECF8FEFB8
:102FA000ACCF97FFBCCF10828ACFECE9F1E082EA88
:102FB00091E02191C21709F44DCF8E179F07C9F7F1
:102FC0008C2F0E94BC09E7CE80E28C0F883068F419
:102FD000C77021E030E001C0220FCA95EAF7809166
:102FE0000202822B80930202D6CEEBE5EC0FE33097
:102FF00040F4F0E0EB5DFE4F808190E0CF910C94C7
:103000009D04E8E5EC0FE73150F4F0E0EE0FFF1F10
:10301000E85DFE4F80819181CF910C948704C03F81
:1030200008F44DCF8C2F0E940207CF910C94DB0542
:103030001F93CF93DF93182FD0E0C0E0893311F4B2
:10304000C0E5D0E0812F0E94AF16209731F4812F88
:10305000DF91CF911F910C94CF0A8FE99FE00197E8
:10306000F1F700C000002197F0CF0F931F93CF938B
:10307000DF93C62FD42F022FFC0182818823A1F079
:103080006093B4020E947B049093B3028093B202D7
:10309000C77081E001C0880FCA95EAF7DF91CF9130
:1030A0001F910F910C94C50A8091B402681335C02A
:1030B0008091B2029091B3020E946C04883C910509
:1030C00060F510E21D0FCD17B9F080E28C0F88304B
:1030D00040F4C77081E001C0880FCA95EAF70E94EA
:1030E000BA0A183048F481E09D2F977001C0880F0C
:1030F0009A95EAF70E94C50A802F0E941818183086
:1031000098F4D77081E001C0880FDA95EAF7DF9173
:10311000CF911F910F910C94BA0AC77081E001C042
:10312000880FCA95EAF7F3CFDF91CF911F910F91E6
:1031300008954F925F926F927F928F929F92AF927B
:10314000BF92CF92DF92EF92FF920F931F93CF9394
:10315000DF9300D000D00F92CDB7DEB78C01FC0119
:1031600083819481892B31F08081918189238F3FE4
:1031700009F095C50F900F900F900F900F90DF9171
:10318000CF911F910F91FF90EF90DF90CF90BF9064
:10319000AF909F908F907F906F905F904F90089529
:1031A0000E946A0FF82E682F89819A810E94230A53
:1031B00069817A818F2D0E945D0F7C01F8018281E7
:1031C000882309F428C5C70182519F45409708F01C
:1031D0004FC58FEF93E00E94AF2BFEEEEF0E47EE50
:1031E000842E912C882371F18091FF01877011F258
:1031F000F8018281882309F4BDCF82E00F900F90FF
:103200000F900F900F90DF91CF911F910F91FF9032
:10321000EF90DF90CF90BF90AF909F908F907F9076
:103220006F905F904F900C948F0A811424E0920667
:10323000D9F2C4010E94AF2B811101C0EA943FEF83
:10324000831A930AE110F1CF1C821B824424439419
:1032500074016FEFE61AF60AC4010E94AF2B89834E
:103260001A82882309F4C0CF9FEF980F933000F59E
:103270008A83498272E0870E911CC7010E94AF2B9E
:103280008B83882309F4B0CFCE0101967C01F7012E
:1032900020812223E9F2213009F04AC09181828104
:1032A000913041F4F2E0EF0EF11C0E94181809C0B1
:1032B0004701EACF923049F422E0E20EF11C0E946D
:1032C000AF163FEFE31AF30AE2CF933031F432E066
:1032D000E30EF11C0E94CF0AF4CF943021F06FEF7F
:1032E000E61AF60AEECF72E0E70EF11C50E040E07D
:1032F000D7011196F701D180682F6053770B9B019E
:103300006A30710550F041505109D8F28FE99FE0C1
:103310000197F1F700C00000F6CFCA016AE070E043
:103320000E94272AA901480F591F8D2D7D01E0CF4A
:10333000E22FF0E0E454FE4F5490822F869586955C
:10334000869590E0FC01E455FE4F64902770712C47
:10335000022E02C0759467940A94E2F7E1E06E22AF
:103360007724FC01E456FE4FA490B12C022E02C03B
:10337000B594A7940A94E2F7F1E0AF22BB24FC01D4
:10338000E457FE4FC490D12C02C0D594C7942A951F
:10339000E2F721E0C222DD246114710419F081EE0C
:1033A0000E94AF16A114B10419F086EE0E94AF1668
:1033B000852D0E941818AB2819F086EE0E94CF0ABE
:1033C000672819F081EE0E94CF0ACD2809F479CF41
:1033D0008CE26BCF81E00E94AB0A0E94780A04CF96
:1033E00081E00E94830AF9CF82E0F5CF82E0F9CF35
:1033F00085E00E942305809170020E94E30EF4CEC6
:1034000080E0F7CF80917002982F987F79F08850F4
:1034100080937002887F91E009F490E080917002BF
:1034200090FB80F9809370020E94E30E80917002FD
:103430008695869586950E94FA04D6CE8091700274
:10344000982F969596959695953040F49F5F990F95
:10345000990F990F8770892B809370028091700269
:103460008160E0CF8091700280FF07C08E7F8093E3
:1034700070020E94E30E80E0DECF80FDB5CE816059
:1034800080937002813019F489E0809370028091FA
:103490007002CACF90917002892F86958695869585
:1034A0008F5F8F719770863048F4880F880F880F70
:1034B000892B8093700280917002ACCF9093700240
:1034C000FACF8091700281FF03C00E94E80E8CCE7B
:1034D0000E94FE0E89CE27E245EE65EEC5C326E2C8
:1034E00041EE60EEC1C327E245EE64EEBDC326E2C5
:1034F00041EE62EEB9C328E241E0EFCF86E0E81684
:103500008CE5F80609F4ADC080917F02886097E0F1
:10351000E9169CE5F90608F499C080917F02806263
:1035200095C080917F028D7FECE0EE16ECE5FE0603
:1035300009F48CC078F480917F028C602AE0E21656
:103540002CE5F20609F482C008F493C080917F0252
:103550008E7F7CC080917F02877F6EE0E6166CE5EF
:10356000F60609F473C080917F028B7F7FE0E71637
:103570007CE5F70608F46AC080917F028F7E66C002
:103580008BEFE8168CE5F80609F467C068F5E3E10F
:10359000EE16ECE5FE0609F47AC090F421E1E2169D
:1035A0002CE5F20609F46FC032E1E3163CE5F306C0
:1035B00009F0ECC40E94641380917F028F7746C0AB
:1035C00065E1E6166CE5F60609F469C008F47DC00D
:1035D0008AEFE8168CE5F80609F0D8C480918002DD
:1035E000816080938002D2C49FEFE9169CE5F906C2
:1035F00009F451C0A0F4809180028D7FFDEFEF1699
:10360000FCE5FF0671F3809180028E7F2EEFE216BB
:103610002CE5F20630F3809180028360E2CF31E046
:10362000E3163DE5F30609F459C008F444C060E030
:1036300072E0E7167DE5F70609F0A8C48EE090E099
:103640000E94C32BA3C480917F02816080937F027C
:103650009DC480917F028460F9CF80918002826056
:10366000C0CF80917F028061F1CF80917F02806422
:10367000EDCF0E94641380917F028068E7CF809134
:103680007F028F7DE3CF80917F028F7BDFCF8091A0
:103690007F02837FDBCF809180028C7FA2CF8091DD
:1036A0007F0282FB992790F921E0922790FB82F913
:1036B00090FB83F9CBCF80918002982F90959170E9
:1036C0008E7F892B90FB81F98CCF0E94641390919F
:1036D0007F02892F97FB87F98058B8CF61E0AECF82
:1036E0008091020296E1E9169CE5F90609F0E8C22C
:1036F0008A7A91E009F490E09093BA01811106C0B2
:1037000089E20E94BC090E944C096ECD85E3F9CF85
:1037100085E3DFC380916B0280FF1BC08E7F8093A7
:103720006B0260916B0270916C0280916D029091BE
:103730006E020E94091010923702EFEFF0E722E0CC
:10374000E150F0402040E1F700C000000E94E90B8A
:103750004BCD816080936B0261E086950E941011D1
:1037600043CD4BE451E164E571E10E9439053CCD64
:1037700044E551E16BE471E1F8CF45EE50E16CEDC9
:1037800070E1F3CF44EC50E160ED70E1EECF4CEA34
:1037900050E168EB70E1E9CF48EB50E16CEA70E191
:1037A000E4CF4FEF50E16EEE70E1DFCF61E081E0FA
:1037B000D5CF65E082E00E945E1116CD68E086E01C
:1037C000FACF64E18FE0F7CF67E185E1F4CF62E201
:1037D00089E1F1CF61E083E2C1CF9BE5E9169DE588
:1037E000F90611F1ECE5EE16EDE5FE0609F09AC2D8
:1037F0008091800282FB882780F991E089270E94CE
:10380000200F90C20E946413FFEF24E33CE0F150CC
:1038100020403040E1F700C000000E94C50B0E942C
:103820007B11E2CC81E0EBCF80E0E9CFC7010E94C1
:10383000FA09D82E86C22F2D2F70C22E8F2D807F91
:1038400019F0C29490EFC922DD20C9F0CC2069F0B4
:1038500080E28E0D883010F081100BC08091020242
:10386000C82AC09202020E944C098E2D0E94AF16F7
:1038700019C080910102C82AC0920102F4CF8E2D96
:103880000E94CF0ACC2071F0C09480E28E0D883067
:1038900010F081103EC080910202C822C092020244
:1038A0000E944C09692D6850770B6430710520F433
:1038B0000E94B3040E942C0BAA2009F45BCC8091D7
:1038C000FF0180FD57CCF80112828595859585957D
:1038D0000E94AB0AC8010E9499188091FF0185954A
:1038E000859585950F900F900F900F900F90DF9119
:1038F000CF911F910F91FF90EF90DF90CF90BF90ED
:10390000AF909F908F907F906F905F904F900C94AE
:10391000830A80910102C822C0920102C1CF3F2DCB
:103920003F70B32E8F2D807F803219F0B29480EFDC
:10393000B822882071F061E0861681F1DD20D9F18E
:10394000CC2091F1F801858180FF8FCF8F70858326
:103950002BC0DD20B1F0909103028B2D892BC1107B
:1039600003C00E94C50A9ECF71E0C712FACF209112
:10397000800222FD97CF891709F494CF8093030228
:1039800091CFC11006C00E9446098B2D0E94BA0A31
:1039900089CF81E0C81609F485CFF5CFDD2031F05D
:1039A00095E09C1508F47ECF8B2DDBCFE4E0EC1581
:1039B00008F478CFEACFCC2041F3F9E38F1209C0A5
:1039C0002FEF37EE63E0215030406040E1F700C058
:1039D00000008E2D0E94CF0A65CF8F2D869586958B
:1039E000837061F0813009F05DCFC7019370D11011
:1039F00002C090E080E00E94870454CFC70193701A
:103A0000D11002C090E080E00E949D044BCF8E2D2B
:103A1000DD2029F00E9402070E94DB0543CF0E94AF
:103A20000206FACF8F2D837091F5D1103BCF4E2D2A
:103A3000429546954770440F440F8E2D8F70042E8B
:103A400001C0880F0A94EAF72E2D2071E4FE07C00A
:103A50002FE030E001C0220F4A95EAF720953F2D74
:103A6000369536953370323069F050F44091040247
:103A7000313029F0822B84230E94B60A13CF842B85
:103A8000822BFACF282B809104028227F5CF8695CE
:103A9000DD2011F08F2D8170882309F403CF4E2D86
:103AA000429546954770440F440F8E2D8F70042E1B
:103AB00001C0880F0A94EAF72E2D2071E4FE07C09A
:103AC0002FE030E001C0220F4A95EAF720953F2D04
:103AD000369536953370323069F050F44091B50226
:103AE000313029F0822B84230E94740ADBCE842B90
:103AF000822BFACF282B8091B5028227F5CF7F2D1C
:103B00007F70F72EDD2029F0872F0E94AB0A8E2DC3
:103B100028CF8E2D0E94BA0A8F2D0E94830AC2CE12
:103B20008E2D92EF891609F44AC0981570F0E0EFD7
:103B30008E1631F1F1EF8F16D1F1DD2009F45BC063
:103B4000C11093CE8F2D8F7137C023EF8216E1F114
:103B500034EF8312F2CFDD2009F442C08F2D8F7134
:103B6000F82E0E94AB0A8091800282FD07C08F2D43
:103B7000880F880F880F83608093FF018F2D1CC0F2
:103B8000DD2081F064E06C1508F48CCE2F2D2F71B0
:103B900081E090E001C0880F2A95EAF79091B50284
:103BA0008927A2CF75E07C1508F47CCEEFCF8F2D4E
:103BB0008F71DD2009F4B1CF0E94AB0A73CE8F2D37
:103BC0008F71DD20C9F3A9CF80E0DD2009F48CCF0F
:103BD0009F2D9F7181E001C0880F9A95EAF784CFED
:103BE00081E00E948F0A91E09C1508F05BCE82E094
:103BF0000E948F0A57CECC2059F0893309F0E9CEC4
:103C0000EFEFF7EE23E0E150F0402040E1F7DFCEA8
:103C10008F2D8F7182CFF0E1EF16FFE5FF0609F4DB
:103C2000DFCB21E1E2162FE5F20609F4DFCB93EFBB
:103C3000E9169CE5F90609F452CC08F031C1F8ED1B
:103C4000EF16FCE5FF0609F446CC29EDE2162CE55B
:103C5000F20609F450CC37EDE3163CE5F30609F023
:103C60002DC126E241EE61EEC8010E943518BCCAA2
:103C700030E1E3163FE5F30609F4ACCB61E1E6166B
:103C80006FE5F60609F4B0CBF701EB5BFC45E730D6
:103C9000F10508F021C1E557F34D0C94602A85E049
:103CA000DE01119601900D928A95E1F7F8012281CB
:103CB00089819A81211174CA0E94FA09F82E78CA62
:103CC00082722CECE2162CE5F20609F46ACD08F0BB
:103CD000A7C066ECE6166CE5F60609F44ECD08F0D2
:103CE00076C093ECE9169CE5F90609F43ACD08F0A4
:103CF0005DC0F2ECEF16FCE5FF0609F40BCD3AE5EA
:103D0000E3163DE5F30609F48DCD08F066CDE11428
:103D10007CE5F70609F476CD8EEDE8168CE5F8061D
:103D200009F47DCDF8018281E080F180882309F4D7
:103D30007DCDC7010E946A0FD82E682FC7010E944F
:103D4000230AB7018D2D0E945D0F0E94B8077C01E8
:103D5000882EF801D280C580C2943FE0C3228091B2
:103D6000FF018770A1F0AD2CDD2091F08F2D807FB9
:103D7000803421F080E28E0D883048F082E00E948D
:103D80008F0A8091FF018770AA24A3948111A12C2E
:103D90009F2C92942FE09222FBE0F91508F482CD3B
:103DA000E92DF0E0EE56F34D0C94602A24ECE21677
:103DB0002CE5F20609F4DCCC4CED50E165EE70E147
:103DC00035ECE3163CE5F30609F4CFCC98CF69EC6B
:103DD000E6166CE5F60609F4DACC88F497ECE916F9
:103DE0009CE5F90609F4CECC40ED50E164EC70E1BD
:103DF000E8ECEE16ECE5FE0609F4B7CC80CFFAEC61
:103E0000EF16FCE5FF0609F4C7CC4EEE50E16FEF6C
:103E100070E12BECE2162CE5F20609F4A6CC6FCF8C
:103E200031EDE3163CE5F30609F4CBCCB8F47EECB7
:103E3000E7167CE5F70609F4BCCC08F4B7CC9FEC98
:103E4000E9169CE5F90609F4B9CC6EE089E0E0EDED
:103E5000EE16ECE5FE0609F4AECC51CFF4EDEF160C
:103E6000FCE5FF0609F4B3CC78F432EDE3163CE54B
:103E7000F30609F4A9CC63EDE6166CE5F60609F045
:103E80003ECF61E088E16ACC75EDE7167CE5F70688
:103E900009F4A0CC8DE5E816F80609F4A5C92FCFE2
:103EA00065EFE6166CE5F60609F421CB08F41BCBAA
:103EB00086EFE8168CE5F80609F47FC0F6E1EF1608
:103EC000FCE5FF0609F02ECF8091BA01811120CCCC
:103ED00089E20E94910917CC93EFE9169CE5F90657
:103EE00009F4FDCA08F05BC0F8EDEF16FCE5FF062B
:103EF00009F4F1CA29EDE2162CE5F20609F4FBCA31
:103F000037EDE3163CE5F30609F4ABCE1092B402AC
:103F100062E0E6166CE5F60608F4E2CB76E1E71619
:103F20007CE5F70630F0C7018A5F9C45099708F0E9
:103F3000D7CB0E94E50F9093800280937F0280E1AF
:103F4000E8168CE5F80609F49ACB08F019CBE8E0FE
:103F5000EE16ECE5FE0609F488CB08F0E2CA24E090
:103F6000E2162CE5F20609F474CB08F0C7CA62E049
:103F7000E6166CE5F60609F466CB80917F02826056
:103F800073E0E7167CE5F70609F460CB80917F02C9
:103F9000909180020E94130F0E94641325C965EF5F
:103FA000E6166CE5F60609F4A2CA08F49CCA86EF88
:103FB000E8168CE5F80609F0A9CF27E245EE66EE93
:103FC00053CE1F93CF93DF938091CC01807FA1F4D8
:103FD0008091C901882381F02091FE011091CD01CB
:103FE0004091C701A091C801C091CA01D091CB01F5
:103FF000B42FBA23121304C0DF91CF911F910895FB
:1040000030E0209711F0BF3F21F42F5F3F4F277022
:10401000F1CFC90166E070E00E94272AFC01E2535B
:10402000FE4F81818A13F1CF80818413EECF82818C
:104030008111EBCF838194818C1B9D0B883C910572
:1040400020F78091CC018F7080618093CC01C901F1
:1040500066E070E00E94272AFC01ED52FE4F90813D
:104060009F709061908387EC91E00E949918DF9196
:10407000CF911F910C94F009AF92BF92CF92DF9233
:10408000EF92FF920F931F93CF93DF93CDB7DEB7DD
:1040900061970FB6F894DEBF0FBECDBF8C0185E0EF
:1040A000F801DE011D9601900D928A95E1F7D80185
:1040B0001296EC90129787ECA82E81E0B82E6091B2
:1040C000CA017091CB016115710509F438C1909155
:1040D000C7012091C801892F82238F3F09F42FC186
:1040E0004C911196EC9111971396CD90DC90F09035
:1040F000C901D601A61BB70BFF2009F4EBC08091C4
:10410000CC01382F307FA83CB10508F0AEC031118A
:104110007AC0FE2C2E1321C094131FC0E1101DC0C5
:104120008F7080618093CC01C5010E9499188091A5
:10413000CC01F80185838F2D61960FB6F894DEBF10
:104140000FBECDBFDF91CF911F910F91FF90EF90E8
:10415000DF90CF90BF90AF900895CD2829F0842FA5
:104160008E238F3F09F006C180E0F82FF170DF2E1B
:104170002091FE01F091CD0180FD21C0EE20D9F209
:104180008091CC0181608093CC01F12CD4CF30E0C0
:10419000C90166E070E00E94272ADC01A253BE4FED
:1041A00011968C911197E81307C08C91481304C0A5
:1041B00012968C91E812E2CF2F5F3F4F27702F139A
:1041C000E6CF4D87EE878D859E850E94990F292F1A
:1041D00022952F70223058F0243080F49F7059F0CF
:1041E000D80115969C91907F31F4D12C0AC09F7014
:1041F00011F08823D1F3805E8830B8F3C8010E94A3
:104200009918FD2C98CF2E1306C0941304C0F80102
:10421000EE2009F479C0C8010E94A50F882309F196
:10422000EE20F9F08091CC01803270F02091C7012E
:104230003091C80138872F831986DB86CA868C8720
:10424000CE0107960E94991886E0F801A7ECB1E02C
:1042500001900D928A95E1F70E94E11FFF24F394EB
:104260006ACFC8010E949918F9CF31110AC087ECB2
:1042700091E00E94991886E0D5011D928A95E9F790
:1042800084CF2E130FC094130DC0E1100BC0F801A2
:104290008583C8010E94991886E0D5011D928A95F0
:1042A000E9F749CFC8010E94A50F8823D1F2EE207B
:1042B000C1F28091CC01803238F22091C701309157
:1042C000C8013A8329831B82DD82CC828E83CE0192
:1042D0000196B8CFA83CB105F8F6FE2CEE2009F205
:1042E0002E131FC094131DC08091CC0180FD10C0FF
:1042F000982F907F69F0F8018583903F31F0982FD7
:10430000907F905F8F70892B8583C8010E949918D8
:1043100086E0F801A7ECB1E001900D928A95E1F7F3
:104320000ACFC8010E94A50F81118ECF8091CC01C8
:1043300081608093CC01C8010E949918FCCEEE20C8
:1043400009F48FCFC8010E94A50FF82E882309F425
:1043500088CF86E0F801A7ECB1E001900D928A9534
:10436000E1F78091C7019091C8010E94990F0E94C6
:10437000E11FE1CE81E08E25F8CECF93DF93CDB75C
:10438000DEB767970FB6F894DEBF0FBECDBF4B8B7D
:104390005C8B6D8B7E8B8F8B6111109201021A8A60
:1043A000198A85E0FE017396DE011D9601900D923B
:1043B0008A95E1F786E0FE013D96DE0117960190B1
:1043C0000D928A95E1F7CE0107960E943C2081115B
:1043D00012C086E0FE013796DE01119601900D9223
:1043E0008A95E1F78A859B85892B29F088859F81AD
:1043F00089238F3FB1F58091FE019091CD01891302
:104400001CC067960FB6F894DEBF0FBECDBFDF911C
:10441000CF91089566E070E00E94272ADC01A25344
:10442000BE4F96E0FE01319601900D929A95E1F70C
:104430002093CD010E94F009DECF90E066E070E0AD
:104440000E94272A82539E4F0E943C208823C9F253
:104450008091FE0190E00196877099278093FE017C
:10446000CACF8091CD0190E09C012F5F3F4F277014
:1044700033274091FE014217130661F60E94641330
:104480001092CD011092FE0186E0E7ECF1E0DF0131
:104490001D928A95E9F7AFCF1F920F920FB60F9238
:1044A00011242F933F934F935F936F937F938F9339
:1044B0009F93AF93BF93CF93DF93EF93FF93D091ED
:1044C000E900DF708091EC00C82FC17080FDC0E86A
:1044D0001092E9008091F000877F8093F00078943B
:1044E0000E9479131092E9008091F0008860809317
:1044F000F000CD2BCF70C093E900FF91EF91DF91D9
:10450000CF91BF91AF919F918F917F916F915F916B
:104510004F913F912F910F900FBE0F901F901895C4
:104520001F920F920FB60F9211242F933F934F9328
:104530005F936F937F938F939F93AF93BF93EF930B
:10454000FF938091E10082FF09C08091E20082FF29
:1045500005C08091E1008B7F8093E1008091E100B4
:1045600080FF17C08091E20080FF13C08091E200BD
:104570008E7F8093E2008091E20080618093E20070
:104580008091D80080628093D80019BC85E0809328
:10459000A8028091E10084FF29C08091E20084FF9D
:1045A00025C084E089BD86E089BD89B5982F9170CA
:1045B00080FFFBCF8091D8008F7D8093D8008091C1
:1045C000E1008F7E8093E1008091E2008F7E8093F6
:1045D000E2008091E20081608093E2008091A90274
:1045E000882309F43FC084E08093A8028091E10011
:1045F00083FF27C08091E20083FF23C08091E10008
:10460000877F8093E10082E08093A8021092A90244
:104610008091E1008E7F8093E1008091E2008E7FA7
:104620008093E2008091E20080618093E20042E0AA
:1046300060E080E00E94DB038091F000886080935E
:10464000F000FF91EF91BF91AF919F918F917F917A
:104650006F915F914F913F912F910F900FBE0F90EF
:104660001F9018958091E30087FD93E09093A80236
:10467000BDCF78941F921FB61F9211248F939F93E2
:10468000AF93BF9380917B0290917C02A0917D02B9
:10469000B0917E020196A11DB11D80937B02909383
:1046A0007C02A0937D02B0937E02BF91AF919F9157
:1046B0008F911F901FBE1F9018951F921FB61F92BB
:1046C00011248F939F93AF93BF9380917A028111AE
:1046D00013C080917B0290917C02A0917D02B091E9
:1046E0007E024196A11DB11D80937B0290937C02B6
:1046F000A0937D02B0937E02BF91AF919F918F9165
:104700001F901FBE1F9018951F920F920FB60F9209
:1047100011242F933F934F935F936F937F938F93C6
:104720009F93AF93BF93EF93FF9380917202909109
:104730007302019668EB75E00E94382A9093730229
:10474000809372026BE070E00E94382A6F7780914C
:104750007102823041F4603451F480916F008E7F99
:1047600080936F0004C0813011F46F37B1F3E62FEE
:10477000F0E0ED5AFB4F849190E061E071E00E941F
:10478000272A65E070E00E94382ACB012091700250
:10479000269526952695622F70E00E94272A0E9472
:1047A000BF0490938D0080938C00FF91EF91BF9197
:1047B000AF919F918F917F916F915F914F913F91B9
:1047C0002F910F900FBE0F901F901895CDB7DEB7A9
:1047D000AA970FB6F894DEBF0FBECDBF84B7877F10
:1047E00084BF0FB6F894A89580916000886180938B
:1047F0006000109260000FBE80E890E00FB6F89461
:1048000080936100909361000FBE8CE597E09093D8
:104810009501809394011092E2001092E100809142
:10482000E00081608093E0008091D8008F778093D2
:10483000D80019BC8091630081608093630010925E
:104840000802809163008E7F8093630081E08093F3
:1048500008021092E2001092E1008091D8008F7758
:104860008093D8008091D80080688093D800809190
:10487000D8008F7D8093D80084E089BD86E089BD13
:1048800089B5282F2170F22E80FFFACF1092A8024E
:104890001092A9021092A7021092A60242E060E0D4
:1048A00080E00E94DB038091E1008E7F8093E10035
:1048B0008091E20081608093E2008091E200886054
:1048C0008093E2008091E0008E7F8093E0008091F1
:1048D000E20084608093E20078948091A8028823AB
:1048E000A1F01091E9001F709091EC00892F817068
:1048F00090FD80E8182B1092E9008091E80083FD7C
:104900000E9479131F701093E90082E084BD93E048
:1049100095BD9AEF97BD80936E000E94CC0F8111D8
:1049200002C00E94D40E06E511E0F80181918F01CA
:104930008F3F11F00E945E07F1E00C351F07A9F7C9
:1049400084E60E945E0785E60E945E0783E30E947C
:104950005E0782E30E945E07EBE0F2E081E192E015
:10496000ABE1B2E011921D928E179F07D9F788E153
:1049700090E00E946D2AAC0190930A028093090294
:1049800030E020E0FA01E20FF31F94E01192915021
:10499000E9F72C5F3F4F28313105A1F70E9433130F
:1049A000811102C00E947B1182E090E00E94AF2B37
:1049B000809322020E94E50F9093800280937F02F1
:1049C0000E94E5118FE39CE90197F1F700C0000018
:1049D0000E94E51180911B0280FF08C06FEF7FEFFE
:1049E00090E080E00E94E12B0E94C50B83E090E004
:1049F0000E94AF2B0E94B60A249A2C9A279A2F98CD
:104A00008AE08093800089E1809381008FEF9FEF9F
:104A100090938700809386000E943E1380917002DD
:104A200081FF0BC0109273021092720210927102F9
:104A300080916F00816080936F000E943E1380918F
:104A40001102811133C00E943313811104C00E94EE
:104A50007B110E946C1188E090E00E94B72B60935C
:104A60006B0270936C0280936D0290936E026E7F66
:104A700071F40E946C1188E090E00E94B72B609363
:104A80006B0270936C0280936D0290936E020E9491
:104A90003F051092370280916B0280FF04C060E0F6
:104AA00086950E94101181E08093110280917F020F
:104AB000806880937F0280917F02909180020E94A3
:104AC000130F86E091E0909377028093760228E1BD
:104AD000C22ED12C8BE192E036E0E32EE80E8091DD
:104AE000A802BB24B39404E016E0853009F4BFC1EA
:104AF0000E94E511882359F08FB7F89440917B020A
:104B000050917C0260917D0270917E028FBF05E121
:104B100012E09BE1A92E92E0B92E612C512CF501F7
:104B200021905F01F80131908F01321459F1412C2D
:104B30007F2C32244F01F1E08F1A9108832D8721B9
:104B4000E1F049A25AA291E0822D872109F490E078
:104B50009BA30E947B048160782F9DA38CA349A115
:104B60005AA16BA18DA10E94BD21F40180818725EE
:104B700080836394FBE0F615D8F04394770C24E02F
:104B80004212DCCF539486E05812C9CF611010C096
:104B90008FEF8EA38FA318A60E947B048160782FCD
:104BA0009AA789A74EA15FA168A58AA50E94BD21E9
:104BB000809137028823D1F180913602E0916B0217
:104BC000E695E81BE0933202823009F06FC1F0E015
:104BD000E65BFD4FE4910E2F10E086E4A82E8EE0F8
:104BE000B82E80913302882361F0109233020E9424
:104BF0007B04909331028093300210923502109220
:104C000034020E947B04E0913002F09131028E1B4D
:104C10009F0B8F3F9F4750F4E00FF11FF09331023D
:104C2000E093300280E392E0F501099586E0EAE244
:104C3000F2E0DE01119601900D928A95E1F7A090C5
:104C40002C02B0902D0210912E0200912F02109292
:104C50002C0210922D0210922E0210922F028A2DF9
:104C60008B2991F080912802909129020E946C0476
:104C7000FC0120912402222309F472C180911101C8
:104C80008E171F0608F47BC1812F802B09F44DC0BD
:104C900080912602909127020E946C049C019091C1
:104CA0002302992309F4C5C32536310508F43DC014
:104CB0009F3F19F09F5F90932302112351F00E94B0
:104CC0007B066FEF11160CF46F2D0E941E2A809345
:104CD0002E02002351F00E947B066FEF10160CF499
:104CE0006F2D0E941E2A80932F0280912E0288230E
:104CF000E1F020912F022223C1F0082E000C990B25
:104D000065EB70E00E94272A992309F47BC19093F8
:104D10002E02822F220F990B65EB70E00E94272A4A
:104D2000992309F473C190932F0280912C029091E2
:104D30002D02892B90912E02892B90912F02892B85
:104D400011F00E94DB0586E0FE013196AAE2B2E096
:104D500001900D928A95E1F70E94B304909114029C
:104D6000891731F00E94B304809314020E942C0B27
:104D70008091A802843009F0B2CE83E08093E900EC
:104D80008091E80082FFABCE8091E80090E085FF43
:104D900006C00E946103882309F43CC191E0809120
:104DA000E8008B778093E800992309F498CEE98195
:104DB000E150E33108F0B0C1F0E0E256F34D0C945D
:104DC000602A8091A802843009F444C080E00E94E7
:104DD000FA0480E00E942C0B10923702809113029B
:104DE000811116C0B092130280916B02982F9170BE
:104DF000909312028E7F80936B029FEFE0E7F2E0C8
:104E00009150E040F040E1F700C000000E94E90B43
:104E100010927A0220E40FB6F894A895C092600030
:104E20000FBE2093600083B7817F846083BF83B708
:104E3000816083BF7894889583B78E7F83BF0FB6D8
:104E4000F894A8958091600088618093600010922A
:104E500060000FBE8091A702882349F00E94E511EF
:104E6000EBE1F2E081918111C5C2EE12FBCF80919E
:104E7000A802853009F4A5CF0E9464130E943E1356
:104E80000E94B3040E942C0B109213028091120214
:104E9000882349F080916B02816080936B0260E00F
:104EA00086950E9410110E94F30F22CE863059F48D
:104EB000F0E0E95BFD4FE4910E2F10E0B6E3AB2E7E
:104EC000BEE0BB2E8ECE893061F4E695F0E0EC5B5F
:104ED000FD4FE4910E2F10E0A2EAAA2EADE0BA2E0B
:104EE00080CE8F3061F4E695F0E0EF5BFD4FE4910A
:104EF0000E2F10E0FEE3AF2EFDE0BF2E72CE853107
:104F000059F4F0E0E25CFD4FE4910E2F10E0E0EF89
:104F1000AE2EECE0BE2E65CE08E210E057E5A52EE1
:104F20005CE0B52E883109F45CCE833249F4ECE3C1
:104F3000F2E0059114917DEDA72E7DE0B72E51CEC4
:104F400004EF11E06EE1A62E6CE0B62E843209F477
:104F500048CE00ED17E04EE3A42E45E0B42E41CE3E
:104F60008091100190E06AE070E00E94272A8E177D
:104F70009F0708F089CE2F5F2093240202C02F3FA5
:104F8000D1F7AA2051F00E94B6066FEF1A140CF464
:104F90006F2D0E941E2A80932C02BB2051F00E948C
:104FA000B6066FEF1B140CF46F2D0E941E2A80931F
:104FB0002D0280912C02882309F466CE20912D02C7
:104FC000222309F461CE082E000C990B65EB70E0EA
:104FD0000E94272A992371F090932C02822F220F8E
:104FE000990B65EB70E00E94272A992339F0909382
:104FF0002D024ACE81E080932C02F0CF81E0809395
:105000002D0242CE81E080932E0283CE81E08093F8
:105010002F028BCE00E210E0CE0101965C01809160
:10502000E80085FD0AC08091E8008B778093E80056
:105030000E946103882399F3B1CE8091F100F501BC
:1050400081935F010150110951F7A8CE1A8289E0BE
:105050008B832DC08A81823009F4E2C18330A9F0AC
:10506000813009F059C02FB7F89460917B0270919C
:105070007C0280917D0290917E022FBF0E94662A61
:105080006B837C838D839E8312C080911B028B83F4
:1050900080911C028C8380911D028D8380911E0261
:1050A0008E8380911F028F83809120028887809158
:1050B000A802843009F013CD1091E9001F7090917F
:1050C000EC00892F817090FD80E8182B82E080939E
:1050D000E9008091E80080FF0DC050E040E060E210
:1050E00070E0CE0101960E9492038091E8008E77D5
:1050F0008093E8001F701093E900F1CC8A81823020
:1051000059F46B817C818D819E810E94662A86E2A2
:1051100090E00E94C32BCBCF8FEF8983C8CF4C8107
:105120006B818A810E94320F9827892798279E8356
:105130008D83BDCFAD80BE80BA24AB24BA248A81D2
:1051400090E060E370E00E94272A0B8110E023E0EA
:10515000000F111F2A95E1F7080F191F8C8190E0AD
:10516000880F991F080F191F6B2DC80187960E9481
:10517000C32B6A2DC8018896CCCF0E946A0E97CFA8
:105180008A81893091F08A30F1F08A81813879F111
:1051900018F5803809F08BCF20E04B8160916D02CB
:1051A00080916C020E941B1082CF8B8190E065E0A1
:1051B00070E00E94272A6FEF70E00E94382A862F45
:1051C0000E942305E2CF8B81811103C00E94E80E6B
:1051D000DCCF0E94FE0ED9CF823859F1833809F016
:1051E00066CF20E040916E026C818B81DBCF60E066
:1051F0008B810E9410119B8180916B02911111C0D3
:105200008E7F80936B0210923702FFEF20E782E0DF
:10521000F15020408040E1F700C000000E94E90BFF
:1052200046CF816080936B0260E086950E941011EA
:105230003ECF8B8180936F023ACF8A81893059F0BB
:105240008A30C9F0813841F1D8F4803809F02FCF85
:1052500080916E02FDCE809170028695869586952E
:1052600090E06FEF70E00E94272A65E070E00E94F6
:10527000382A6B831CCF8091700286958170E8CEAE
:10528000823891F0833809F012CF80916C028B83C1
:1052900080916D028C830BCF80916B0280FF02C0E6
:1052A0008695D6CE80E0D4CE80916F02D1CE80910B
:1052B00070020E94E30E60916B0270916C0280910B
:1052C0006D0290916E020E940910F1CE80E18A83F6
:1052D000EECE83E08A8389E1BBCE0A811B81102751
:1052E00001271027FE0131965F018C80CF01880DC8
:1052F000911D4C01C80189519F4F8A149B0409F4E8
:10530000D6CE0931E3E01E0750F40E94AF2BF50121
:1053100084830F5F1F4FFFEFAF1ABF0AEBCFF5017A
:105320001482F7CF0A811B81102701271027CE0195
:1053300001964C01AC80A00EB12EB11CC801895160
:105340009F4FA016B10609F4B2CE0931E3E01E0763
:1053500020F4F40164810E94C32BFFEF8F1A9F0A8F
:105360000F5F1F4FEBCF0E945A0EA1CE84E0AFCF4C
:105370000A811B81102701271027CE0101965C01AD
:105380008C80FC01E80DF11D4F01C80187968A143D
:105390009B0409F48CCE003C110550F40E94AF2B05
:1053A000F50184830F5F1F4FFFEFAF1ABF0AEDCFE8
:1053B000F5011482F7CF0A811B81102701271027DE
:1053C000CE0101964C01AC80A00EB12EB11CC801DB
:1053D0008796A016B10609F46ACE003C110520F4A8
:1053E000F40164810E94C32BFFEF8F1A9F0A0F5FA5
:1053F0001F4FEDCF09BD19BD09B400FEFDCF80914F
:10540000D8008F7D8093D8008091E00082608093E7
:10541000E0008091E00081FDFCCF0E94641327CD65
:1054200086E290E00E94AF2B1B821C821D828E833D
:105430003ECE2D32314008F03DCC77CC002480FDAB
:10544000060E660F11F08695D1F7802D0895002481
:10545000552704C0080E591F880F991F009729F07F
:1054600076956795B8F37105B9F7802D952F089556
:10547000AA1BBB1B51E107C0AA1FBB1FA617B7077A
:1054800010F0A61BB70B881F991F5A95A9F7809596
:105490009095BC01CD01089597FB072E16F400945A
:1054A00007D077FD09D00E94382A07FC05D03EF4CA
:1054B000909581959F4F0895709561957F4F0895C0
:1054C000EE0FFF1F0590F491E02D099469279627B0
:1054D000692778278727782708950F931F93CF93FD
:1054E000DF939C01029710F422E030E0E0919601F6
:1054F000F091970190E080E0B0E0A0E0309791F467
:10550000009709F445C0821B930B84309105B8F5D0
:105510008A819B816115710569F1FB019383828307
:10552000FE0111C04081518102811381421753074E
:10553000F0F04217530799F4109761F012960C930C
:10554000129713961C933296CF01DF91CF911F9142
:105550000F9108950093960110939701F4CF00974F
:1055600019F04817590718F4CA01BD01EF01DF010E
:10557000F801C4CF9093970180939601D1CFFE019B
:10558000E80FF91F21933193029799838883DCCF29
:105590008091980190919901892B41F480910201A9
:1055A000909103019093990180939801809100015B
:1055B00090910101009741F48DB79EB7409104018D
:1055C00050910501841B950B4091980150919901D0
:1055D0004817590708F0B8CF841B950B821793071B
:1055E00008F4B2CFB9016E5F7F4F8617970708F4B2
:1055F000ABCF640F751F7093990160939801FA0106
:1056000021933193A1CFCF93DF939C010097E9F0D1
:10561000FC01329713821282C0919601D0919701BA
:10562000DE0190E080E02097A1F480819181280F35
:10563000391F80919801909199018217930709F081
:1056400067C0F0939901E0939801DF91CF9108959D
:10565000DA01AE17BF0708F041C012964D915C9178
:105660001397CD014115510599F7DC011396FC9371
:10567000EE9312974D915D91A40FB51FEA17FB07AA
:1056800081F4208131812E5F3F4F240F351FDC01D3
:1056900011963C932E932281338113963C932E9343
:1056A0001297B0E0A0E08A819B810097B1F5FE01DE
:1056B00081919191E80FF91F809198019091990142
:1056C0008E179F0711F6109759F5109297011092B7
:1056D0009601D0939901C0939801B7CFB383A28369
:1056E00040815181240F351FA217B30771F44E5F1B
:1056F0005F4F2D913C911197420F531F518340836F
:1057000012962D913C9133832283009709F0ADCFFF
:10571000F0939701E093960198CFDE01EC01C3CF9F
:1057200013961C921E921297D4CFFC014150504008
:1057300030F001900616D1F73197CF0108958827F0
:1057400099270895FB01DC0104C08D910190801917
:1057500021F441505040C8F7881B990B0895F999DE
:10576000FECF92BD81BDF89A992780B50895A6E134
:10577000B0E044E050E00C94E92BA8E1B0E042E056
:1057800050E00C94E92B262FF999FECF92BD81BDF4
:10579000F89A019700B4021639F01FBA20BD0FB66F
:1057A000F894FA9AF99A0FBE08950396272F0E944B
:1057B000C42B0E94C32B252F0E94C42B242F0C9492
:1057C000C42B0196272F0E94C42B0C94C32BDC0101
:1057D000CB01FC01F999FECF06C0F2BDE1BDF89AFC
:1057E000319600B40D9241505040B8F70895EE271D
:1057F000FF27AA27BB2708C0A20FB31FE41FF51F6E
:10580000220F331F441F551F9695879577956795EF
:1058100098F37040A9F7009799F7BD01CF0108955B
:10582000A1E21A2EAA1BBB1BFD010DC0AA1FBB1FA4
:10583000EE1FFF1FA217B307E407F50720F0A21B16
:10584000B30BE40BF50B661F771F881F991F1A9483
:1058500069F760957095809590959B01AC01BD01AD
:10586000CF010895F894FFCFB70FB70FC00FC00F47
:10587000C20FC00FC00FC00FB70FB70FC70FC00FB9
:10588000C00FC70F5C148414241684142416B71494
:10589000D8142416D515E21553164A166016481664
:1058A000AD16AD164816AD16AD167C16AD1687169C
:1058B0009216AD16AD16AD16AD164816AD16AD1650
:1058C0004816AD166E16AD16AD16AB16AB16AB166A
:1058D000AB16AB16AB16AB16AB16AB169D16AD16CC
:1058E00053164616AD16AD16AD16AD16AD16AD1661
:1058F000AD16AD16AD16AD169D16AD16AD16481605
:10590000AD16A316A316A316A316A316A316A316C5
:10591000A316A3169D16F819001A021A1E1A321A97
:105920004A1A611A1B1C1B1C8F1C8F1CED1C071DA7
:10593000521C521C121D7F1D901D901D26282A28C6
:105940007E288F289A28BD28C0281D2957298C28F1
:105950008C28662969296D299229B329B629B82985
:02596000DB2941
:105962000000BA0220006904850B640B600B5C0B1B
:105972001E32140A280801191A1B1C1D1E1F202181
:105982002201020101818283E200E900EA00B500FE
:10599200B600B700CD008301CC008A0192019401C8
:1059A2002102230224022502260227022A02B30030
:1059B200B4006F007000939192666736646533326B
:1059C2000001020202020606060909090909090F75
:1059D2000F0F0F0F0F151515181919191919191974
:1059E20019191923244022B64C012A017400A50575
:0459F200BE05DE050B
:00000001FF
