:100000000C940C030C9453030C9453030C9453035F
:100010000C9453030C9453030C9453030C94530308
:100020000C9453030C9453030C94D21B0C948E1B0E
:100030000C94CD1C0C9453030C9453030C94530355
:100040000C9453030C9453030C9453030C945303D8
:100050000C9453030C94A91C0C9453030C94530359
:100060000C9453030C9453030C9453030C945303B8
:100070000C9453030C9453030C9453030C945303A8
:100080000C9453030C9453030C9453030C94530398
:100090000C9453030C9453030C9453030C94530388
:1000A0000C9453030C9453030C945303050109025D
:1000B000A10185020901A1000509190129081500FE
:1000C0002501950875018102050109300931158165
:1000D000257F95027508810609381581257F9501D0
:1000E00075088106050C0A38021581257F95017572
:1000F000088106C0C005010980A101850319012AF4
:10010000B700150126B700950175108100C0050CD8
:100110000901A101850419012AA002150126A002E6
:10012000950175108100C005010906A1018505052D
:100130000719E029E71500250195087501810205D9
:1001400007190029EF1500250195F07501810205B9
:10015000081901290595057501910295017503910D
:1001600001C00660FF0961A1010962150026FF00B8
:100170009520750881020963150026FF00952075FA
:10018000089102C005010906A101050719E029E748
:1001900015002501950875018102950175088101F9
:1001A0000507190029FF150026FF0095067508812F
:1001B000000508190129059505750191029501753C
:1001C000039101C0000000000000000000000000DA
:1001D000000000000000000000000000000000001F
:1001E00000000000000000007E0F00D4FFFFFFC7EA
:1001F0000000007800000000000000002A2B28000A
:1002000000000000000000000000000000000029C5
:10021000000000002C1E3420212224342627252E05
:10022000362D3738271E1F2021222324252633333D
:10023000362E37381F0405060708090A0B0C0D0E69
:100240000F101112131415161718191A1B1C1D2F35
:100250003130232D350405060708090A0B0C0D0E55
:100260000F101112131415161718191A1B1C1D2F15
:100270003130354C290000003A003B003C003D0085
:100280003E003F00400041000000420043004400A7
:1002900045004B0035001E001F00200021002200F9
:1002A000230024002500260027002D002E00350005
:1002B0002A0049002B0014001A000800150017003E
:1002C0001C0018000C00120013002F003000310039
:1002D00000004C00390004001600070009000A0065
:1002E0000B000D000E000F0033003400000028004A
:1002F00000004E00E10064001D001B000600190014
:10030000050011001000360037003800E50000003D
:1003100052000000E000E300E200000000000000E6
:100320002C00000000000000E600E4005000000087
:1003300051004F0001000000010001000100010018
:1003400001000100010001000000010001000100A6
:100350000100010001000100010001000100010095
:100360000100010001000100010001000100010085
:100370000100010001000100010001000100010075
:100380000100010001000100010001000100010065
:100390000000010001000100010001000100010056
:1003A0000100010001000100010001000000010046
:1003B0000000010001000100010001000100010036
:1003C0000100010001000100010001000100000026
:1003D0000100000001000100010000000000000019
:1003E0000100000000000000010001000100000009
:1003F00001000100010000000100010001000100F6
:1004000001000100010001000000010001000100E5
:1004100001000100010001000100010001000100D4
:1004200001000100010001000100010001000100C4
:1004300001000100010001000100010001000100B4
:1004400001000100010001000100010001000100A4
:100450000000010001000100010001000100010095
:100460000100010001000100010001000000010085
:100470000000010001000100010001000100010075
:100480000100010001000100010001000100000065
:100490000100000001000100010000000000000058
:1004A0000100000000000000010001000100000048
:1004B0000100010001000000010001000100010035
:1004C0000100010001000100000001000100010025
:1004D0000100010001000100010001000100010014
:1004E0000100010001000100010001000100010004
:1004F00001000100010001000100010001000100F4
:1005000001000100010001000100010001000100E3
:1005100000000100010001000100010001000100D4
:1005200001000100010001000100010000000100C4
:1005300000000100010001000100010001000100B4
:1005400001000100010001000100010001000000A4
:100550000100000001000100010000000000000097
:100560000100000000000000010001000100000087
:100570000100010009025B00030100A0FA09040068
:1005800000010301010009211101000122400007BF
:1005900005810308000109040100020300000009AD
:1005A000211101000122220007058203200001071A
:1005B00005030320000109040200010300000009F3
:1005C000211101000122B600070584032000011259
:1005D00001000200000008424B0700010001020078
:1005E000011E03420045004C004C00410020005316
:1005F000004F004C004400450052004500440000FC
:100600000010034B0042004400460041004E0053DE
:10061000000000040309040011241FBECFEFDAE03C
:10062000DEBFCDBF04B603FE27C080916D0290915E
:100630006E02A0916F02B09170028730904BA7407C
:10064000B04BD1F410926D0210926E0210926F02B4
:100650001092700214BE84B7877F84BF0FB6F894DF
:10066000A89580916000886180936000109260007E
:100670000FBEE0E0F8E3099511E0A0E0B1E0E4E0AE
:10068000F7E402C005900D92A836B107D9F722E031
:10069000A8E6B1E001C01D92AD36B207E1F70E94B5
:1006A000F41C0C9449230C940000E8EDF0E08081E8
:1006B0008E7F80831092E2001092DA001092E100A7
:1006C000A0EEB0E08C9181608C9380818F778083E5
:1006D00019BCA7EDB0E08C918E7F8C9380818F7ECA
:1006E000808310923A0208952091E4003091E50051
:1006F00095E6A9012091EC00822F817020FF06C0B1
:100700008091E80080FF06C080E008952091E80015
:1007100022FD1AC080915F02882389F0853089F01C
:100720008091EB0085FD0FC02091E4003091E50041
:1007300042175307F9F29150E1F684E0089582E000
:10074000089583E0089581E00895EF92FF920F935A
:100750001F93CF937C018B010E947403C82F8111DA
:1007600017C08091E80085FD0BC08091E8008E776E
:100770008093E8000E947403882399F3C82F08C06F
:10078000F70181917F018093F1000150110949F730
:100790008C2FCF911F910F91FF90EF900895809132
:1007A000610287FF13C08091E80082FF06C080913C
:1007B000E8008B778093E80004C080915F0281118C
:1007C000F2CF089580915F028823D9F38091E800E9
:1007D00080FFF8CF8091E8008E77ECCF982F909330
:1007E000E900242F762F50E0891731F07091EC004A
:1007F0002091ED005091F00021FD07C09F5F9730E0
:1008000071F78093E90081E008953091EB003E7F1D
:100810003093EB003091ED003D7F3093ED0030914F
:10082000EB0031603093EB007093EC002093ED000F
:100830005093F0002091EE0027FDE0CF80E0089576
:10084000CF92DF92EF92FF920F931F93CF93DF939C
:10085000C8EDD0E088818F7E8883E7EDF0E080816D
:100860008160808384E082BF81E080933A02888146
:100870008E7F888302EE10E0F80110821092DA0079
:1008800081EEC82ED12CF601108288818F77888363
:1008900088818068888388818F7D888319BC1092C5
:1008A0005F021092600210925E0210925D0290EE62
:1008B000E92EF12CF70180818B7F80838881816014
:1008C000888342E060E080E00E94EE03F6018081D0
:1008D0008E7F8083F8018081816080838081886041
:1008E0008083F70180818E7F808388818061888307
:1008F000DF91CF911F910F91FF90EF90DF90CF90FC
:100900000895FC018091670290916802861797070D
:10091000A0F06115710529F49091E8009E779093FD
:10092000E80090E06115710551F4911108C08091C3
:10093000E80082FF34C080E00895BC01F2CF8091CE
:100940005F028823C1F18530C1F18091E80083FD09
:1009500030C08091E80082FDEACF8091E80080FFFE
:10096000E1CF8091F3002091F200382F61157105DD
:1009700019F02830310558F091E02830310509F0A0
:1009800090E02091E8002E772093E800CBCF819172
:100990008093F100615071092F5F3F4FE7CF809145
:1009A0005F02882341F0853041F08091E80083FFA9
:1009B000BECF81E0089582E0089583E0089580919C
:1009C0003C0208959C014FB7F894809131029091B8
:1009D0003202A0913302B09134024FBF821B930BBD
:1009E00008952FB7F8948091310290913202A0912E
:1009F0003302B09134022FBF089520912E0230911E
:100A00002F022817390771F090932F0280932E023E
:100A1000E0912C02F0912D02309721F00084F185B5
:100A2000E02D0994089520912A0230912B02281775
:100A3000390771F090932B0280932A02E0912C02E7
:100A4000F0912D02309721F00680F781E02D099476
:100A50000895E0912C02F0912D02309721F0019041
:100A6000F081E02D099480E00895CF92DF92EF921B
:100A7000FF92843030F5811125C090918000977FDE
:100A8000909380002F98282F30E0AFEFBFEF0E94A7
:100A9000B82123E030E040E050E00E948921C90104
:100AA0002C3764E13607A0F469E070E00E94612110
:100AB00070938D0060938C00FF90EF90DF90CF904B
:100AC000089583E090918000986090938000DBCF40
:100AD0002A50374D4F4F5F4F942F832F722F662729
:100AE00025EF38E241E050E00E94892169017A0156
:100AF000CA01B9010E9451219B01AC01C701B60195
:100B00000E945121672F782F892F99276115710530
:100B100021E08207910561F66FEF7FEFC9CF282FA3
:100B2000220F220F220F909129029770922B9093FF
:100B30002902987F21E009F420E09091290220FB0E
:100B400090F9909329020C9435050E94F1049C01C0
:100B50009091250280912602982B21F03093220259
:100B6000209321029091270280912802982B21F056
:100B70003093200220931F02E0912C02F0912D026D
:100B8000309749F082E0809323020480F581E02DC4
:100B900083E292E00994089540912502803F59F440
:100BA0008091260287FF0DC01092260241110BC0D2
:100BB00010921D0208C0813F81F480912602181610
:100BC0009CF3442381F08091270290912802892B85
:100BD00009F05AC010921C020895823F49F447FF61
:100BE000F0CF10922502809126028111ECCFE0CF48
:100BF000833F19F41416ACF3E4CF90912702893F98
:100C000029F41916F4F610922702DBCF8A3F19F463
:100C100097FFD7CFF8CF909128028B3F29F497FF09
:100C2000D0CF10922802CDCF8C3F19F41916CCF3F7
:100C3000C8CF9CE0980F953090F4845F990B21E029
:100C400030E0B90102C0660F771F8A95E2F7CB0149
:100C5000809590912402892380932402B2CF8D3F06
:100C600031F480911E028E7F80931E02AACF8E3FA8
:100C700021F480911E028D7FF7CF8F3F09F0A1CF25
:100C800080911E028B7FF0CF089580911E0280FD1F
:100C900016C081FD16C082FD16C080911C028823FB
:100CA000A1F0883280F428E0829FC001112468E21C
:100CB00070E00E947521862F672B39F0089582E03D
:100CC000089584E0089588E0089581E00895809172
:100CD0001E0280FD14C081FD14C082FD16C08091EB
:100CE0001D02882381F0843180F422E3829FC001B9
:100CF000112464E170E00E947521862F08958CE034
:100D0000089589E1089585E0089582E30895803F7C
:100D100031F40E9467068195809326020895813FF1
:100D200019F40E946706F8CF823F31F40E946706EB
:100D30008195809325020895833F19F40E946706E8
:100D4000F8CF893F29F40E94450680932702089531
:100D50008A3F21F40E9445068195F7CF8B3F31F4FD
:100D60000E94450681958093280208958C3F19F4CE
:100D70000E944506F8CF9CE0980F953070F4845F90
:100D8000990B21E030E001C0220F8A95EAF78091AB
:100D90002402822B8093240208958D3F31F48091A8
:100DA0001E02816080931E0208958E3F21F480917F
:100DB0001E028260F7CF8F3FB9F780911E028460D8
:100DC000F1CF80E00895F894E82FE295EF70F0E01D
:100DD00031A1282F2F7081E090E001C0880F2A9563
:100DE000EAF7982F9095932391A392A1892B82A340
:100DF000789408959091350292FF06C0282F2871AB
:100E00002830F9F4877F846093FF06C0282F28716B
:100E10002831F1F4877E84612091360220FF06C0DC
:100E2000382F38713830D9F4877F816021FF06C0B0
:100E3000282F28712831D1F4877E816194FD877E27
:100E40000895282F24712430F9F68B7F8860DCCF39
:100E5000282F2471243101F78B7E8861DDCF382F54
:100E60003171313019F78E7F8860E0CF282F2171E2
:100E7000213121F78E7E8861E1CFCF93DF93EC01A2
:100E800082389105A9F1D8F58133910509F496C00E
:100E900048F58932910509F48AC08A9709F495C00A
:100EA000C11521E5D20708F0BCC0C11530E5D30754
:100EB00008F014C1C83ED10508F09CC0C03ED10561
:100EC00060F5C83AD10508F087C0C53AD10508F0E9
:100ED000FDC0C130D10509F12097F9F0C430D1052A
:100EE000E0F440C08533910509F45AC0C997C1F6B2
:100EF00080913502837089F0C0EED0E00EC0833E51
:100F0000910599F170F4803E910501F1823E9105C1
:100F100039F68091350282FD21C0CE01DF91CF915B
:100F20000895863E910561F1873E910571F1843EF9
:100F3000910509F0B5CF8091360281FFEECF809107
:100F40003502C7EED0E084FD0DC0E7CF80913502B9
:100F500080FD12C19091360290FFDFCFC3EED0E04A
:100F600084FFDBCFD0E0C0E0D8CF8091350282FD96
:100F700006C19091360290FDBFCF84FFCECFF2CF55
:100F80008091350283FDDDCFC8CF8091350283FD8E
:100F9000F9C09091360291FFF0CFC4EED0E0BDCF02
:100FA0008091350285FFB9CFC9E2D0E0B6CF8091FC
:100FB000350285FFB2CFC5E3D0E0AFCF80913502D7
:100FC00086FFABCFCAE2D0E0A8CF8091350286FF82
:100FD000A4CFC1E3D0E0A1CFCF3BD10518F6C85ACA
:100FE000D0E0CC0FDD1FCC5EDE4F0990D881C02D44
:100FF000D46493CFC11540E2D40758F4C11581E001
:10100000D80708F08ACFC03FD10508F4ABCFD06530
:1010100084CFC11590E4D90708F4A4CFDF70D06A5B
:101020007CCFC11525E5D20700F5C11534E5D307FE
:1010300008F08AC0C11543E5D40708F071C0C11596
:1010400082E5D80708F467C0CE018370992721E0B4
:1010500030E002C0220F331F8A95E2F7C695C6958D
:1010600080E2C89FE001112452C0C11599E5D9075B
:10107000A8F4C11528E5D20708F06BC0C11536E504
:10108000D30708F06FCF8C2F0E94FA06C82FD0E04C
:10109000DC2FCC27CC27DF71D0623FCFC1154AE5CA
:1010A000D40708F45BC0CE0190568115904208F039
:1010B00059CF8D2F8F710E94FA0690E0982F8827C4
:1010C00088279F719C012C2BE901E6CFC55AD0E0FF
:1010D000CF5EDE4FC881D0E0D0641FCFCE01E4E008
:1010E00096958795EA95E1F783702C2F269526959E
:1010F000237040E2249F90011124382B8C2F8370A1
:10110000C1E0D0E002C0CC0FDD1F8A95E2F7C22B10
:10111000D32BDC6802CFDC2FCC27C16FD06AFDCE89
:10112000CE018370992721E030E002C0220F331FE7
:101130008A95E2F7C695C69590E2C99FE001112411
:10114000C22BD32BDA68E9CEDC2FCC27C46FD06A50
:10115000E4CEDC2FCC27C06FD06ADFCE8C2F8F700F
:101160000E94FA0634E0D695C7953A95E1F7CF701C
:101170009C2FEC01D069D1CEC9E3D0E0CECEC2EE37
:10118000D0E0CBCEC6EED0E0C8CE8091EF01811189
:101190001092EF0108958091EE019091ED01892B5D
:1011A0009091EC01892B80936E019091EF0199232E
:1011B000A1F0892B80936E0180911001882341F169
:1011C0008091350287FF24C08EE1E0E7F1E090E0F6
:1011D000815000F591110E94C508E0912C02F09118
:1011E0002D023097E1F080911001882359F0809111
:1011F000350287FF07C080916E0180936F0185E003
:1012000080936E010280F381E02D8EE691E00994D7
:1012100086E0DBCF21912223D9F29F5FD9CF0895B9
:10122000909110019923D1F09091350297FF16C04B
:10123000E82FE695E695E695EE31E0F4F0E0E25928
:10124000FE4F282F277081E090E001C0880F2A957B
:10125000EAF780959281892382830895E0E7F1E09F
:101260009191891303C0DF0111971C9291E0E63739
:10127000F907B1F70895909110019923C1F0909169
:10128000350297FF14C0E82FE695E695E695EE3116
:10129000F8F4F0E0E259FE4F877021E030E001C041
:1012A000220F8A95EAF78281822B82830895A0E734
:1012B000B1E0EFEF90E02D91821751F0EF3F19F47C
:1012C000211101C0E92F9F5F9630A9F7EF3F09F484
:1012D00008950E2E000CFF0BE259FE4FE6CF8091D1
:1012E000EA019091B901981301C008958F5F87704A
:1012F000FACF9295907F890F982F97708695869553
:10130000869523E0829FF0011124E157FE4F50E0C3
:1013100040E080E0219130E0092E02C0369527950B
:101320000A94E2F721703327042E01C0220F0A9499
:10133000EAF7822B4F5F5F4F4330510559F708950D
:101340009295907F890F982F977041E001C0440FCC
:101350009A95EAF786958695869593E0899FF001A0
:101360001124E157FE4F30E020E070E05191DF01A1
:101370001197CB01022E02C0969587950A94E2F749
:10138000817081958527842385278C932F5F3F4F1C
:101390002330310559F7089590E080E00E9413054D
:1013A00090E080E00E94FD041092ED011092EC01AB
:1013B0000E94CB0886E0E3E2F2E0DF011D928A950D
:1013C000E9F710921D0210921C0210921E020C945A
:1013D000A50580936C020C94CC0980916C02982F27
:1013E0009670963019F488600C94E909877FFCCFD9
:1013F00021E030E001C0220F8A95EAF72095809124
:101400006C0282230C94E9099091EB018095892369
:101410008093EB01282F277039F4282F082E000C19
:10142000330B9217130621F49091360292FF07C0F6
:101430008595859585950E94F8091092EB01089590
:1014400021E030E001C0220F8A95EAF780916C021A
:10145000822B0C94E9098093F0010C94CC09882329
:1014600041F080959091EE0189238093EE010C94D8
:10147000CB080895882339F09091EE01982B909332
:10148000EE010C94CB080895882309F459C08238E2
:1014900071F40E94290581FF53C089E30E943B0932
:1014A0000E94CB0889E30E9410090C94CB08833872
:1014B00059F40E94290580FF43C083E50E943B093F
:1014C0000E94CB0883E5EFCF843859F40E942905A8
:1014D00082FF36C087E40E943B090E94CB0887E464
:1014E000E2CF9CEF980F913AF0F290E2980F98308B
:1014F00088F4877021E030E0A90102C0440F551F35
:101500008A95E2F7CA0180959091EE018923809334
:10151000EE01CBCF9BE5980F933020F490E080E074
:101520000C94130598E5980F973120F490E080E033
:101530000C94FD04803F20F00E94CC050C94A5057E
:10154000089581FD02C0769A089576980895909145
:101550005F02943029F580933702709339026093CB
:1015600038029093E9008FEF9091E800815095FD4B
:1015700006C095ED9A95F1F700008111F5CF8091A5
:10158000E80085FF0DC050E040E063E070E087E3D5
:1015900092E00E94A5038091E8008E778093E80096
:1015A0000895BC0184E00C94A70ABC0183E00C946C
:1015B000A70A9C0184E08093E9009FEF8091E800F6
:1015C000915085FD06C085ED8A95F1F700009111D7
:1015D000F5CF8091E80085FF0CC050E040E066E068
:1015E00070E0C9010E94A5038091E8008E77809386
:1015F000E8000895CF93DF93EC01809110018823D8
:10160000B1F18091350287FF32C060E284E08093BF
:10161000E9008FEF9091E800815095FD06C095EDAF
:101620009A95F1F700008111F5CF8091E80085FFD0
:101630001BC08091100170E050E040E0811104C0B7
:1016400050E040E068E070E0CE010E94A503809188
:10165000E8008E778093E80080E2FE01ADE3B2E01F
:1016600001900D928A95E1F7DF91CF91089568E09E
:1016700081E0CDCF81E08093E00080E28093D800CC
:101680001092C9008FE19EE40197F1F700C00000BD
:1016900087E090EBDC0180936D0290936E02A09343
:1016A0006F02B093700288E19CE00FB6F894A895A1
:1016B000809360000FBE90936000FFCFCF93C82F40
:1016C000882309F4AFC08238C1F40E94290581FD46
:1016D000A9C089E30E943B090E94CB082FEF81EE4D
:1016E00094E0215080409040E1F700C0000089E381
:1016F0000E941009CF910C94CB088338A1F40E946A
:10170000290580FD8FC083E50E943B090E94CB081C
:101710002FEF81EE94E0215080409040E1F700C02F
:10172000000083E5E5CF8438A1F40E94290582FDFD
:1017300079C087E40E943B090E94CB082FEF81EE1D
:1017400094E0215080409040E1F700C0000087E421
:10175000CFCF8CEF8C0F813A90F5809110018823C8
:1017600001F18091350287FF1CC0EC2FE695E695CC
:10177000E695F0E0E259FE4F828190E04C2F4770F1
:1017800021E030E002C0220F331F4A95E2F78223A6
:101790009323892B81F08C2F0E9410090E94CB0883
:1017A0000AC0E0E7F1E086E791E02191C21799F3E2
:1017B0008E179F07D1F78C2F0E943B099BCF80E2A9
:1017C0008C0F883068F4C77021E030E001C0220F30
:1017D000CA95EAF78091EE01822B8093EE018ACFC1
:1017E000EBE5EC0FE33040F4F0E0EF5EFE4F80817C
:1017F00090E0CF910C941305E8E5EC0FE73150F43D
:10180000F0E0EE0FFF1FEC5EFE4F80819181CF91E3
:101810000C94FD04C03F30F08C2F0E948706CF91BE
:101820000C94A505CF9108951F93CF93DF93182FA4
:10183000D0E0C0E0893311F4C0E5D0E0812F0E94F0
:101840005E0B209731F4812FDF91CF911F910C9483
:10185000440A8FE99FE00197F1F700C0000021974B
:10186000F0CF0F931F93CF93DF93C62FD42F022F68
:10187000FC0182818823A1F060936B020E94F10435
:1018800090936A0280936902C77081E001C0880F5B
:10189000CA95EAF7DF91CF911F910F910C943A0A04
:1018A00080916B02681335C08091690290916A0241
:1018B0000E94E204883C910560F510E21D0FCD17EF
:1018C000B9F080E28C0F883040F4C77081E001C02D
:1018D000880FCA95EAF70E942F0A183048F481E071
:1018E0009D2F977001C0880F9A95EAF70E943A0AD7
:1018F000802F0E94140C183098F4D77081E001C03A
:10190000880FDA95EAF7DF91CF911F910F910C9430
:101910002F0AC77081E001C0880FCA95EAF7F3CF9C
:10192000DF91CF911F910F910895CF93DF93C7E27D
:10193000D3E060E0CE010E94E0212196C11584E051
:10194000D807B9F7DF91CF9108956F927F928F9268
:101950009F92AF92BF92CF92DF92EF92FF920F933E
:101960001F93CF93DF9384E7C82E82E0D82E07E041
:1019700011E0E801C05CD10936011CC0F501859079
:101980009490692DC7010E94E021682DC70101963E
:101990000E94E02182E0A80EB11C82E0E80EF11C5A
:1019A000CE15DF0559F780E2680E711CA0960C1762
:1019B0001D0731F07E0180E2E81AF1085301DECF05
:1019C00000541F4F80ECC80ED11C073084E018076C
:1019D00081F6DF91CF911F910F91FF90EF90DF90F3
:1019E000CF90BF90AF909F908F907F906F90089511
:1019F000CF93C82F6FEF811161E283E290E00E94E4
:101A0000E0216FEFC11169E084E290E00E94E021E3
:101A10006FEFC11166E085E290E0CF910C94E02178
:101A200080E00E94F80C60E086E290E00E94E021F5
:101A30000E94A50C0E94950C81E00C94F80C682F74
:101A400086E090E00C94E021CF93C92F682F84E0CA
:101A500090E00E94E0216C2F82E290E0CF910C9404
:101A6000E0219091360292FB222720F9281751F0AD
:101A700080FB92F990933602809135029091360264
:101A80000C94240D08950F931F93CF93DF9320E2BE
:101A9000629FE001112450E0440F551FC40FD51F71
:101AA00030EC839FC00DD11D1124CE0187960E947A
:101AB000D221082F10E0102F0027CE0188960E9417
:101AC000D2219801282BC901DF91CF911F910F914D
:101AD0000895462F843038F4763028F4603118F4B5
:101AE000672F0C94430D90E080E00895CF92DF9231
:101AF000FF920F931F93CF93DF936C0100916C02C1
:101B00008091F001082BC7E0D0E010E0FC2EC80166
:101B10000C2E02C0959587950A94E2F780FD0CC0C3
:101B20002197A0F7F12C8F2DDF91CF911F910F916D
:101B3000FF90DF90CF900895B6018C2F0E94690D21
:101B40000E943D07019761F3EECFCF93DF93EC0145
:101B50000E94760DBE010E94690DDF91CF910C9419
:101B60003D07FC01808191810E94A50D292F2F70D6
:101B700092959F7092509E3078F4E92FF0E0E55BEB
:101B8000FC4D0C94AB21803F19F020F4883E20F4EA
:101B900081E00895843FE1F380E00895883EC0F33A
:101BA000813FD1F7F5CF822F86958695869508954A
:101BB00083E290E00E94D221813289F484E290E0B5
:101BC0000E94D221893059F485E290E00E94D2210E
:101BD00091E0863009F090E0892F8170089580E0CF
:101BE000FCCFCF9384E090E00E94D221C82F82E204
:101BF00090E00E94D221982F8C2FCF9108952F92A0
:101C00003F924F925F926F927F928F929F92AF928C
:101C1000BF92CF92DF92EF92FF920F931F93CF93D9
:101C2000DF93CDB7DEB72C970FB6F894DEBF0FBEAB
:101C3000CDBFAE014F5F5F4F6A018CE0DA011D92AC
:101C40008A95E9F702E411E07A01AA24A394B12C61
:101C5000F80181918F018F3F09F44BC0F894E82F70
:101C6000E295EF70F0E021A18F70A50102C0440F52
:101C7000551F8A95E2F7CA01922F982B91A392A142
:101C80008095892382A3789400C0E8E4F1E030E0F5
:101C900020E0912C812C81918F3F09F4ACC0A82FBA
:101CA000A295AF70B0E090964C9150E08F7002C05A
:101CB000559547958A95E2F740FD9DC0C501022ED6
:101CC00002C0880F991F0A94E2F7882A992A2F5F89
:101CD0003F4F20313105F9F6F801319780818F3F70
:101CE00011F00E94E30650EA5A95F1F7D7018D9260
:101CF0009C92B2E0EB0EF11CE1E008341E0709F003
:101D0000A7CF4CE050E0B60186EF91E00E943C2363
:101D10008C01FF24F394892B09F4F12C0115110592
:101D200041F08CE0F601A6EFB1E001900D928A95AA
:101D3000E1F75090F301552009F46AC00E94F104C4
:101D40002091F1013091F201AC01421B530B9A0139
:101D50009093F2018093F1014F3F510511F008F08B
:101D60004DC0452B09F444C0E22E1092F30120919E
:101D7000F4013091F501E0E1F2E066EF71E0390144
:101D800050E6650E711C412C88248394912C190116
:101D900050E040E0D101DD901D01DD20D1F0CD010A
:101DA0000197ED1470F1DC011C92C080D180DB0141
:101DB0008D919C918C259D255401042E02C0AA0C66
:101DC000BB1C0A94E2F78A219B218C259D259183D7
:101DD00080834F5F5F4F40315105E1F6205F3F4FF9
:101DE00032966E5F7F4F6216730689F64092F3015A
:101DF000012BB1F44DC090E080E067CF2FEF30E0D1
:101E0000B3CFDE18DC01DC92452CE3CF108233C067
:101E1000012BF1F10E94F1049093F2018093F10102
:101E20002091F4013091F5016091F301A6EFB1E04A
:101E300080E1C82E82E0D82EAA24A394B12C75E0AC
:101E40004D915D91F601819191916F01482759273C
:101E5000F90190E080E08501082E02C0000F111FFB
:101E60000A94E2F704231523012B81F2108111114A
:101E700002C0708361E0319601968031910559F777
:101E8000205F3F4FF2E0A230BF07D1F66093F3012D
:101E90008F2D2C960FB6F894DEBF0FBECDBFDF910D
:101EA000CF911F910F91FF90EF90DF90CF90BF9057
:101EB000AF909F908F907F906F905F904F903F90EA
:101EC0002F90089590E080E00E94DA21893E9E4F95
:101ED00011F40C94D80D80E0089569EE7EEF90E047
:101EE00080E00E94FE2160E082E090E00E94E0211C
:101EF00060E083E090E00E94E0211092F00160E059
:101F000084E090E00E94E02160E082E290E00E94A4
:101F1000E02160E085E090E00E94E02160E086E062
:101F200090E00E94E0216FEF87E090E00E94E021C6
:101F300040E050E0BA0188E090E00E94F22160E0C9
:101F40008DE090E00E94E02140E050E0BA0188E19D
:101F500090E00E94F22160E087E190E00E94E021A1
:101F600040E050E0BA018CE190E00E94F22170E084
:101F700060E080E290E00E94FE2140E050E0BA0183
:101F800088E190E00E94F22180E00E94F80C0E941B
:101F9000100D40E050E0BA018FE090E00E94F22185
:101FA00040E050E0BA0183E190E00C94F2210E94FD
:101FB000620F81110AC00E946D0F80912902847006
:101FC0008961809329020E941F0D86E090E00E94A3
:101FD000D22180932902803220F08770886180931B
:101FE000290290912902892F817090FF04C0892FC6
:101FF0008695869586950C9435051092EE01809114
:102000001001E0E7F1E0882359F08091350287FF65
:1020100007C08EE1DF011D928A95E9F70C94CC0987
:1020200086E0F8CF1F93CF93DF93CDB7DEB7AA97A3
:102030000FB6F894DEBF0FBECDBF81E692E02091CF
:10204000F100DC012D93CD01B2E089369B07B9F791
:1020500080916202833009F471C0B8F4813009F4D0
:1020600048C0823009F4B2C08091E80083FF88C282
:1020700080916102909162029A3008F081C2E92F4A
:10208000F0E0E75AFC4D0C94AB218A3009F48DC086
:102090008B3009F470C0893039F780916102813248
:1020A00019F78091650290916602009711F00297EE
:1020B000D9F68091E800877F8093E8008091E8005E
:1020C00082FF37C09091F3008091F200029729F4CB
:1020D0008091F1008B7F813021F48091F100809319
:1020E0003C028091E8008B778093E8000E94CF0348
:1020F000BBCF80916102813A09F0B6CF8091E800B0
:10210000877F8093E8008091650290916602892B19
:1021100061F460E28DE392E070E00E9481048091BE
:10212000E8008B778093E8009FCF60E090E080E04C
:10213000F3CF80915F028111C1CF96CF8091610270
:10214000813A09F091CF8091650290916602892BC6
:1021500009F08ACF8091E800877F8093E800809122
:10216000E80080FFFCCF809110018093F100809106
:10217000E8008E77B9CF80916102813209F074CF87
:102180008091650290916602892B09F06DCF809154
:10219000E800877F8093E8000E94CF03809163026C
:1021A000809310010E94FD0F5FCF80916102813208
:1021B00009F05ACF8091E800877F8093E8000E9461
:1021C000CF038091640280933B024ECF80916102E5
:1021D000813A09F049CF8091E800877F8093E80039
:1021E0008091E80080FFFCCF80913B02BECF803819
:1021F00099F0823809F0C4C1809165028F708730F0
:1022000008F0BEC18093E9008091EB0085FB882730
:1022100080F91092E90006C080915D0290915E0203
:10222000911182609091E800977F9093E8008093ED
:10223000F1001092F1008091E8008E779DC1882313
:1022400009F48BC1823009F09BC180916302811136
:102250008EC1809165028F702FEF280F263008F015
:102260008FC18093E9002091EB0020FF80C1933063
:1022700031F48091EB0080628093EB0078C1909103
:10228000EB0090619093EB0021E030E001C0220F61
:102290008A95EAF72093EA001092EA008091EB0019
:1022A0008860EACF81116CC1109163021F77809121
:1022B000E3008078812B8093E3008091E800877FA2
:1022C0008093E8000E94CF038091E80080FFFCCF5C
:1022D0008091E30080688093E30082E0111183E045
:1022E00080935F024DC18058823008F049C120912F
:1022F0006302309164022C3DE3E03E07A1F583E0E8
:102300008A838AE289834FB7F894DE01139620E02E
:102310003EE051E2E32FF0E050935700E49120FFBC
:1023200003C0E295EF703F5FEF708E2F90E0EA30D0
:10233000C0F0C7968D939D932F5F243159F74FBFFF
:102340008091E800877F8093E8006AE270E0CE0128
:1023500001960E9481048091E8008B778093E800C9
:102360000FC1C096E7CF8091650290916602432F1E
:1023700055274330510509F44AC078F541305105DD
:1023800009F47AC08BE590E0E4E7F5E042305105CE
:1023900009F0F6C02091E800277F2093E800209103
:1023A0006702309168028217930708F49C0140E0AD
:1023B0002115310509F065C0411163C08091E80025
:1023C00082FDC9CF80915F02882329F2853019F2FE
:1023D0008091E80083FFF2CFBECF4132510509F46E
:1023E0003CC04232510509F0CBC08330910508F062
:1023F000C7C0FC01EE0FFF1FE55AFE4F0190F081B0
:10240000E02D885A9E4FDC018C9190E01AC0332752
:1024100021303105D1F02115310561F0223031052F
:1024200009F0AEC0E1EEF5E0E4918E2F90E0E1EE30
:10243000F5E007C0E3E1F6E0E4918E2F90E0E3E100
:10244000F6E0009709F49CC0A5CFE1E0F6E0E49146
:102450008E2F90E0E1E0F6E0F4CF8330910508F0B4
:102460008FC0880F991FFC01EF59FE4F0190F0813A
:10247000E02D89E090E08ECF82E190E0EFECF5E096
:1024800089CF80915F02882309F465CF853009F4F4
:1024900062CF8091E80083FD5ECF8091E80082FDED
:1024A0008DCF8091E80080FF83CF9091F3008091E1
:1024B000F2002115310519F08830910550F041E006
:1024C000089709F040E08091E8008E778093E8005B
:1024D0006FCF44914093F10031962150310901961C
:1024E000E8CF803809F04CC08091E800877F809366
:1024F000E800809160028093F1009DCE811140C080
:10250000109163021230E0F58091E800877F80939C
:10251000E800109360020E94CF03112311F084E0C1
:1025200005C08091E30087FDFACF81E080935F02D0
:1025300042E061EC81E00E94EE0342E261EC84E063
:102540000E94EE0342E261EC82E00E94EE0342E26E
:1025500060EC83E00E94EE0313C08091630281303F
:1025600079F481E0933009F080E080935E0210926C
:10257000E9008091E800877F8093E8000E94CF0304
:102580008091E80083FF0AC08091E800877F8093F4
:10259000E8008091EB0080628093EB00AA960FB672
:1025A000F894DEBF0FBECDBFDF91CF911F9108958C
:1025B0003F924F925F926F927F928F929F92AF92D3
:1025C000BF92CF92DF92EF92FF920F931F93CF9320
:1025D000DF9300D000D00F92CDB7DEB78C01FC01A5
:1025E00083819481892B31F08081918189238F3F70
:1025F00009F08CC50F900F900F900F900F90DF9106
:10260000CF911F910F91FF90EF90DF90CF90BF90EF
:10261000AF909F908F907F906F905F904F903F9082
:1026200008950E94760DF82E682F89819A810E9464
:10263000A00969817A818F2D0E94690D7C01F801C2
:102640008281882309F4B1C4C70182519F45409714
:1026500008F0D8C48FEF93E00E94D221FEEEEF0E77
:1026600057E2852E53E0952E882381F18091EB016E
:10267000877009F4BFCFF8018281882309F4BACFAB
:1026800082E00F900F900F900F900F90DF91CF91FD
:102690001F910F91FF90EF90DF90CF90BF90AF9080
:1026A0009F908F907F906F905F904F903F900C9491
:1026B000040A811424E09206C9F2C4010E94D221C6
:1026C000811101C0EA943FEF831A930AE110F1CF20
:1026D0001C821B82442443944AE0342E74018FEF01
:1026E000E81AF80AC4010E94D22189831A82882339
:1026F00009F4BCCF9FEF980F933000F58A8349828D
:1027000092E0890E911CC7010E94D2218B838823FD
:1027100009F4ACCFFE0131967F01F701208122231D
:10272000E9F2213009F049C091818281913041F470
:10273000F2E0EF0EF11C0E94140C09C04701EACF31
:10274000923049F422E0E20EF11C0E945E0B3FEF52
:10275000E31AF30AE2CF933031F432E0E30EF11CD6
:102760000E94440AF4CF943021F08FEFE81AF80A5F
:10277000EECF92E0E90EF11C30E020E0B7016F5F90
:102780007F4FF70141818053990B8A30910550F0BA
:1027900021503109E0F28FE99FE00197F1F700C085
:1027A0000000F6CF329EF001339EF00D11249C0103
:1027B0002E0F3F1F842F7B01E1CFE22FF0E0EC5082
:1027C000FE4F5490822F86958695869590E0FC0169
:1027D000EC51FE4F64902770712C022E02C075944C
:1027E00067940A94E2F7E1E06E227724FC01EC5250
:1027F000FE4FA490B12C022E02C0B594A7940A9467
:10280000E2F7F1E0AF22BB24FC01EC53FE4FC49091
:10281000D12C02C0D594C7942A95E2F721E0C222B8
:10282000DD246114710419F081EE0E945E0BA11485
:10283000B10419F086EE0E945E0B852D0E94140CE7
:10284000AB2819F086EE0E94440A672819F081EE41
:102850000E94440ACD2809F47ACF8CE26CCF81E043
:102860000E94200A0E94ED0901CF81E00E94F80930
:10287000F9CF82E0F5CF82E0F9CF2FEBE2162CE51D
:10288000F20609F455C008F43FC080ECE8168CE568
:10289000F80609F0D8C390912902892F869586956C
:1028A00086958F5F8F719770843008F059C0880FBC
:1028B000880F880F892B809329028091290210C0EC
:1028C00083E00E948F05809129020E941F0DCECEC9
:1028D00080912902982F987F79F08850809329025F
:1028E000887F91E009F490E08091290290FB80F9C3
:1028F000809329020E941F0D80912902869586955A
:1029000086950E943505B2CE80912902982F969522
:1029100096959695933040F49F5F990F990F990F74
:102920008770892B80932902809129028160E0CFF2
:102930008091290280FF07C08E7F809329020E9428
:102940001F0D80E0DECF80FD91CE81608093290253
:10295000813019F489E08093290280912902CACF3D
:1029600090932902AACF27E245EE65EE47C326E2FF
:1029700041EE60EE43C327E245EE64EE3FC326E23C
:1029800041EE62EE3BC328E241E0EFCF8091350299
:10299000806136E0E3163CE5F30609F492C008F4E2
:1029A00097C08091350280628CC0809135028D7F06
:1029B0009CE0E9169CE5F90609F483C078F480915F
:1029C00035028C60FAE0EF16FCE5FF0609F479C0E9
:1029D00008F48AC0809135028E7F73C080913502E1
:1029E000877F3EE0E3163CE5F30609F46AC008F48D
:1029F00081C0809135028F7E64C09BEFE9169CE513
:102A0000F90609F469C068F5F3E1EF16FCE5FF0685
:102A100009F480C090F431E1E3163CE5F30609F4D3
:102A200075C082E1E8168CE5F80609F066C30E94DD
:102A3000FD0F809135028F7744C095E1E9169CE542
:102A4000F90609F46FC008F483C0809136028160F2
:102A5000FAEFEF16FCE5FF0609F04FC3809336024C
:102A60004CC32FEFE2162CE5F20609F457C090F4A0
:102A70008DEFE8168CE5F80609F440C08091360227
:102A80008E7F9EEFE9169CE5F90640F380913602B1
:102A90008360E4CFE1E0EE16EDE5FE0609F461C0E7
:102AA00008F44CC060E022E0E2162DE5F20609F0E1
:102AB00024C38EE090E00E94E0211FC38091350284
:102AC00081608093350219C3809135028460F9CF0B
:102AD000809135028860F5CF809136028260BECF4A
:102AE000809135028064EDCF0E94FD0F8091350208
:102AF0008068E7CF809135028B7FE3CF80913602EB
:102B00008D7FACCF809135028F7DDBCF80913502F8
:102B10008F7BD7CF80913502837FD3CF80913602D0
:102B20008C7F9CCF8091350282FB992790F921E020
:102B3000922790FB82F990FB83F9C3CF80913602F4
:102B4000982F909591708E7F892B90FB81F986CF7D
:102B50000E94FD0F90913502892F97FB87F98058CD
:102B6000B0CF61E0A6CF36E1E3163CE5F30609F00D
:102B7000DEC28091EE018A7A91E009F490E09093B0
:102B80008E01811106C089E20E943B090E94CB0898
:102B90006DCD85E3F9CF85E34EC30E94FD0F8FEF26
:102BA00094E3ECE081509040E040E1F700C0000089
:102BB0000E943A0B81E0E1C280E0DFC2C7010E94BF
:102BC0007909D82EEBC22F2D2F70C22E8F2D807F2A
:102BD00019F0C29490EFC922DD20C9F0CC2069F031
:102BE00080E28E0D883010F081100BC08091EE01D4
:102BF000C82AC092EE010E94CB088E2D0E945E0B67
:102C000019C08091ED01C82AC092ED01F4CF8E2D3C
:102C10000E94440ACC2071F0C09480E28E0D88306E
:102C200010F081103FC08091EE01C822C092EE01E9
:102C30000E94CB08292D2850330B2430310520F475
:102C40000E9429050E94A10AAA2009F4D3CC8091F0
:102C5000EB0180FDCFCCF801128285958595859595
:102C60000E94200AC8010E94D8128091EB0185952C
:102C7000859585950F900F900F900F900F90DF9195
:102C8000CF911F910F91FF90EF90DF90CF90BF9069
:102C9000AF909F908F907F906F905F904F903F90FC
:102CA0000C94F8098091ED01C822C092ED01C0CFCB
:102CB0003F2D3F70B32E8F2D807F803219F0B2945C
:102CC00080EFB822882071F081E0881681F1DD2044
:102CD000D9F1CC2091F1F801858180FF8ECF8F70E2
:102CE00085832BC0DD20B1F09091EF018B2D892BD6
:102CF000C11003C00E943A0A9DCFE1E0CE12FACF84
:102D00002091360222FD96CF981709F493CF809335
:102D1000EF0190CFC11006C00E94C5088B2D0E9404
:102D20002F0A88CFF1E0CF1609F484CFF5CFDD204C
:102D300031F025E02C1508F47DCF8B2DDBCF34E06E
:102D40003C1508F477CFEACFCC2041F3F9E38F129A
:102D500009C02FEF37EE83E0215030408040E1F78B
:102D600000C000008E2D0E94440A64CF8F2D8695EE
:102D70008695837061F0813009F05CCFC701937054
:102D8000D11002C090E080E00E94FD0453CFC70143
:102D90009370D11002C090E080E00E9413054ACFEA
:102DA0008E2DDD2029F00E9487060E94A50542CFC6
:102DB0000E94CC05FACF8F2D837091F5D1103ACFB8
:102DC0004E2D429546954770440F440F8E2D8F70BF
:102DD000042E01C0880F0A94EAF72E2D2071E4FE1C
:102DE00007C02FE030E001C0220F4A95EAF7209596
:102DF0003F2D369536953370323069F050F440915E
:102E0000F001313029F0822B84230E942B0A12CF4B
:102E1000842B822BFACF282B8091F0018227F5CFCB
:102E20008695DD2011F08F2D8170882309F402CF63
:102E30004E2D429546954770440F440F8E2D8F704E
:102E4000042E01C0880F0A94EAF72E2D2071E4FEAB
:102E500007C02FE030E001C0220F4A95EAF7209525
:102E60003F2D369536953370323069F050F44091ED
:102E70006C02313029F0822B84230E94E909DACEDA
:102E8000842B822BFACF282B80916C028227F5CFDE
:102E90009F2D9F70F92EDD2029F0892F0E94200A96
:102EA0008E2D28CF8E2D0E942F0A8F2D0E94F8097B
:102EB000C1CE8E2DE2EF8E1609F44BC0E81570F0EE
:102EC000F0EF8F1639F121EF8216D9F1DD2009F4E8
:102ED0005CC0C11092CE8F2D8F7138C033EF831636
:102EE000E9F194EF8912F2CFDD2009F443C02F2DD0
:102EF0002F71F22E822F0E94200A8091360282FDCD
:102F000007C038E0F39EC001112483608093EB0179
:102F10008F2D1CC0DD2081F0E4E0EC1508F48ACE92
:102F20002F2D2F7181E090E001C0880F2A95EAF7DC
:102F300090916C028927A1CFF5E0FC1508F47ACEB8
:102F4000EFCF8F2D8F71DD2009F4B0CF0E94200AC2
:102F500071CE8F2D8F71DD20C9F3A8CF80E0DD20E9
:102F600009F48BCF9F2D9F7181E001C0880F9A9546
:102F7000EAF783CF81E00E94040A81E08C1508F013
:102F800059CE82E00E94040A55CECC2059F08933F4
:102F900009F0E8CE9FEFE7EEF3E09150E040F0401B
:102FA000E1F7DECE8F2D8F7181CFF0E1EF16FFE5D7
:102FB000FF0609F45ACC21E1E2162FE5F20609F4E6
:102FC0005ACC23EFE2162CE5F20609F4D0CC08F037
:102FD0001AC188EDE8168CE5F80609F4C4CC99ED21
:102FE000E9169CE5F90609F4CECCE7EDEE16ECE522
:102FF000FE0609F015C126E241EE61EEC8010E940D
:10300000310C34CB30E1E3163FE5F30609F427CC6D
:1030100081E1E8168FE5F80609F42BCC8DEBE81674
:103020008CE5F80609F454CC08F027CCEBEBEE164F
:10303000ECE5FE0609F444CC80E0FCEBEF16FCE581
:10304000FF0609F43ECC83EFE8168CE5F80609F498
:103050008ECC08F0F3C0E8EDEE16ECE5FE0609F4C0
:1030600082CCF9EDEF16FCE5FF0609F48CCC27EDD8
:10307000E2162CE5F20609F4BECF10926B0292E044
:10308000E9169CE5F90608F46ECDE6E1EE16ECE5EE
:10309000FE0630F0C7018A5F9C45099708F063CDB2
:1030A0000E94F10D9093360280933502F0E1EF1605
:1030B000FCE5FF0609F426CD08F09FCC38E0E316C6
:1030C0003CE5F30609F40CCD08F06FCC94E0E9166A
:1030D0009CE5F90609F4F8CC08F058CCF2E0EF16BC
:1030E000FCE5FF0609F4EACC80913502826023E01A
:1030F000E2162CE5F20609F4E4CC809135029091B9
:1031000036020E94240D0E94FD0FB0CA85E0DE0148
:10311000119601900D928A95E1F7F801228189813B
:103120009A8121117ECA0E947909F82E82CA2AE565
:10313000E2162DE5F20609F43DCD68F4E1148CE5C4
:10314000F80609F42ACD9EEDE9169CE5F906B9F4D6
:103150000E946D0F8BCAEBE5EE16EDE5FE0609F455
:103160002BCDFCE5EF16FDE5FF0649F48091360214
:1031700082FB882780F991E089270E94310DF801B0
:103180008281E080F180882309F418CDC7010E9474
:10319000760DD82E682FC7010E94A009B7018D2D8A
:1031A0000E94690D0E943D077C01882EF801D280A3
:1031B000C580C2943FE0C3228091EB018770A1F0EB
:1031C000AD2CDD2091F08F2D807F803421F080E2C6
:1031D0008E0D883048F082E00E94040A8091EB0155
:1031E0008770AA24A3948111A12C9F2C92942FE084
:1031F0009222FBE0F91508F41DCDE92DF0E0ED5920
:10320000FC4D0C94AB21F5EFEF16FCE5FF0609F43D
:10321000B6CB08F4B0CB36EFE3163CE5F306E1F0AD
:10322000F6E1EF16FCE5FF0609F0A9CF80918E01CB
:103230008111B1CC89E20E941009A8CC35EFE316C8
:103240003CE5F30609F49BCB08F495CB96EFE91621
:103250009CE5F90609F011CF27E245EE66EECECEE9
:103260001F93CF93DF938091B801807FA9F4809161
:10327000B501882389F08091EA01D091B90160916C
:10328000B3017091B401A091B601B091B701C62FFE
:10329000C72316E0D81304C0DF91CF911F91089582
:1032A00090E0109711F0CF3F19F401968770F2CF9C
:1032B000189F9001199F300D1124F901E654FE4F1B
:1032C00041814713F2CF40814613EFCF4281411134
:1032D000ECCF438154814A1B5B0B483C510528F7D6
:1032E0008091B8018F7080618093B801F901E15439
:1032F000FE4F80818F708061808383EB91E00E941C
:10330000D812DF91CF911F910C946F09AF92BF92A9
:10331000CF92DF92EF92FF920F931F93CF93DF93A1
:10332000CDB7DEB761970FB6F894DEBF0FBECDBF45
:103330008C0185E0F801DE011D9601900D928A95C1
:10334000E1F7F801E28083EBA82E81E0B82E6091CE
:10335000B6017091B7016115710509F432C1909100
:10336000B3014091B401892F84238F3F09F429C10F
:1033700020813181C380D480F090B501F601E61B35
:10338000F70BFF2009F4E8C08091B801582F507F57
:10339000E83CF10508F0ABC0511177C0FE2C431397
:1033A00021C092131FC0E1101DC08F7080618093F7
:1033B000B801C5010E94D8128091B801F801858337
:1033C0008F2D61960FB6F894DEBF0FBECDBFDF9193
:1033D000CF911F910F91FF90EF90DF90CF90BF9012
:1033E000AF900895CD2829F0822F83238F3F09F0D5
:1033F00003C180E0F82FF170DF2E80FF3CC0809188
:10340000EA014091B90156E0841315C02D873E872B
:103410008D859E850E94A50D292F22952F70223023
:10342000F0F0243018F59F70F1F0F8019581907F4D
:10343000D1F4D12C1EC090E0589FF001599FF00D9F
:103440001124E654FE4F6181361306C060812613B5
:1034500003C06281E6120FC001968770D5CF9F70BE
:1034600011F0882331F3805E883018F3C8010E9480
:10347000D812FD2CA5CFEE2009F4A2CF8091B8017F
:1034800081608093B801F12C9BCF431306C0921347
:1034900004C0F801EE2009F479C0C8010E94B10D02
:1034A000882309F1EE20F9F08091B801803270F0A4
:1034B0002091B3013091B40138872F831986DB86C0
:1034C000CA868C87CE0107960E94D81286E0F80142
:1034D000A3EBB1E001900D928A95E1F70E943019BB
:1034E000FF24F3946DCFC8010E94D812F9CF511177
:1034F0000AC083EB91E00E94D81286E0F501119298
:103500008A95E9F7C0CF43130FC092130DC0E110A5
:103510000BC0F8018583C8010E94D81286E0F5012E
:1035200011928A95E9F74CCFC8010E94B10D88230A
:10353000D1F2EE20C1F28091B801803238F22091B0
:10354000B3013091B4013A8329831B82DD82CC829E
:103550008E83CE010196B8CFE83CF105F8F6FE2C3B
:10356000EE2009F243131FC092131DC08091B801D1
:1035700080FD10C0982F907F69F0F8018583903FFF
:1035800031F0982F907F905F8F70892B8583C801D1
:103590000E94D81286E0F801A3EBB1E001900D92F1
:1035A0008A95E1F70DCFC8010E94B10D81118ECF30
:1035B0008091B80181608093B801C8010E94D8123F
:1035C000FFCEEE2009F48FCFC8010E94B10DF82E76
:1035D000882309F488CF86E0F801A3EBB1E00190DD
:1035E0000D928A95E1F78091B3019091B4010E9408
:1035F000A50D0E943019E4CE81E08E25FBCE1F93ED
:10360000CF93DF93CDB7DEB767970FB6F894DEBFE1
:103610000FBECDBF4B8B5C8B6D8B7E8B8F8B611107
:103620001092ED011A8A198A85E0FE017396DE0177
:103630001D9601900D928A95E1F786E0FE013D9678
:10364000DE01179601900D928A95E1F7CE0107965B
:103650000E948619811112C086E0FE013796DE01B4
:10366000119601900D928A95E1F78A859B85892BA9
:1036700029F088859F8189238F3FB1F516E08091DD
:10368000EA019091B90189131DC067960FB6F894AD
:10369000DEBF0FBECDBFDF91CF911F91089596E0A1
:1036A000929FD001939FB00D1124A654BE4FFE01EE
:1036B000319601900D929A95E1F78093B9010E949D
:1036C0006F09DCCF819FC001112486549E4F0E9458
:1036D00086198823D1F28091EA0190E001968770E3
:1036E00099278093EA01CBCF2091B90130E0C9013D
:1036F0000196877099274091EA014817190679F6D3
:103700000E94FD0F1092B9011092EA0186E0E3EBEE
:10371000F1E0DF011D928A95E9F7B0CF1F920F9279
:103720000FB60F9211242F933F934F935F936F9394
:103730007F938F939F93AF93BF93CF93DF93EF9339
:10374000FF93D091E900DF708091EC00C82FC17029
:1037500080FDC0E81092E9008091F000877F80939F
:10376000F00078940E9412101092E9008091F0000D
:1037700088608093F000CD2BCF70C093E900FF915B
:10378000EF91DF91CF91BF91AF919F918F917F91F9
:103790006F915F914F913F912F910F900FBE0F90BE
:1037A0001F9018951F920F920FB60F9211242F930E
:1037B0003F934F935F936F937F938F939F93AF93B9
:1037C000BF93EF93FF938091E10082FF09C0809146
:1037D000E20082FF05C08091E1008B7F8093E100D1
:1037E0008091DA0080FF24C08091D80080FF20C043
:1037F0008091DA008E7F8093DA008091D90080FF7B
:103800009BC080E189BD82E189BD09B400FEFDCF86
:1038100081E080935F0280913A02811109C00E9489
:1038200055030E9420048091E20084608093E200AE
:103830008091E10080FF17C08091E20080FF13C0FB
:103840008091E2008E7F8093E2008091E2008061AF
:103850008093E2008091D80080628093D80019BCE8
:1038600085E080935F028091E10084FF29C0809110
:10387000E20084FF25C080E189BD82E189BD89B570
:10388000982F917080FFFBCF8091D8008F7D80931F
:10389000D8008091E1008F7E8093E1008091E2006A
:1038A0008F7E8093E2008091E20081608093E2004D
:1038B00080916002882309F445C084E080935F0210
:1038C0008091E10083FF27C08091E20083FF23C045
:1038D0008091E100877F8093E10082E080935F0226
:1038E000109260028091E1008E7F8093E1008091D0
:1038F000E2008E7F8093E2008091E20080618093FD
:10390000E20042E060E080E00E94EE038091F0007F
:1039100088608093F000FF91EF91BF91AF919F91EC
:103920008F917F916F915F914F913F912F910F9068
:103930000FBE0F901F90189519BC10925F02109245
:103940003A0276CF8091E30087FD93E090935F0287
:10395000B7CF78941F921FB61F9211248F939F9315
:10396000AF93BF938091310290913202A0913302C4
:10397000B09134020196A11DB11D80933102909344
:103980003202A0933302B0933402BF91AF919F9162
:103990008F911F901FBE1F9018951F921FB61F92E8
:1039A00011248F939F93AF93BF9380913002811125
:1039B00013C08091310290913202A0913302B091F4
:1039C00034024196A11DB11D8093310290933202C1
:1039D000A0933302B0933402BF91AF919F918F9126
:1039E0001F901FBE1F901895CDB7DEB7AA970FB6D0
:1039F000F894DEBF0FBECDBF84B7877F84BF0FB6FC
:103A0000F894A8958091600088618093600010927E
:103A100060000FBE80E890E00FB6F89480936100DC
:103A2000909361000FBE85B7806885BF85B78068B9
:103A300085BF81EE96E090936901809368010E94B2
:103A400055030E9420048091E20084608093E2008C
:103A5000789480915F028823A1F01091E9001F7093
:103A60009091EC00892F817090FD80E8182B1092C6
:103A7000E9008091E80083FD0E9412101F701093EE
:103A8000E90082E084BD93E095BD9AEF97BD8093F5
:103A90006E000E94D80D811102C00E94100D02E438
:103AA00011E0F80181918F018F3F11F00E94E30630
:103AB000F1E008341F07A9F708E411E0E8E5EE2E6D
:103AC000E1E0FE2EF80181918F018F3F11F00E94FD
:103AD000E306E016F106B1F7E6EFF1E082E092E0EE
:103AE000A0E1B2E0119211921D921D928E179F07D4
:103AF000C9F780E690E00E941422AC019093F50192
:103B00008093F40130E020E0FA01E20FF31F90E12E
:103B100011929150E9F7205F3F4F20363105A1F710
:103B20000E94620F811102C00E946D0F82E090E03E
:103B30000E94D221809303020E94F10D90933602DD
:103B4000809335020E94FF0D8FE39CE90197F1F706
:103B500000C000000E94FF0D8091100280FF08C08D
:103B60006FEF7FEF90E080E00E94FE210E943A0B11
:103B700083E090E00E94D2210E942B0A279A2F987E
:103B80008AE08093800089E1809381008FEF9FEF2E
:103B900090938700809386000E94D70F6E9A0E94B0
:103BA000D70F80913502806880933502809135026D
:103BB000909136020E94240D86E091E090932D02B0
:103BC00080932C0270E4272E80915F0200E112E1C5
:103BD000853009F4B1C10E94FF0D882359F08FB7D9
:103BE000F894409131025091320260913302709109
:103BF00034028FBF54E0C52E52E0D52E60E1662E10
:103C000062E0762E512C412CF301A190B1903F013E
:103C1000F601E190F1906F01EA14FB04A9F1312C57
:103C200001E010E0EA24FB244F01F2E08F1A910832
:103C3000C70180239123892B09F139A24AA221E0EF
:103C4000C8018A219B21892B09F420E02BA30E9423
:103C5000F1048160782F9DA38CA349A15AA16BA187
:103C60008DA10E94FF1AF401808191818027912704
:103C7000918380835394FBE0F515E0F03394000FBB
:103C8000111F20E13212D4CF439446E04412BCCF3E
:103C9000511010C08FEF8EA38FA318A60E94F104BD
:103CA0008160782F9AA789A74EA15FA168A58AA5F0
:103CB0000E94FF1A86E0E3E2F2E0DE011196019035
:103CC0000D928A95E1F7F0902502E090260210917E
:103CD00027020091280210922502109226021092CB
:103CE0002702109228028F2D8E2909F448C0809156
:103CF0002102909122020E94E2049C0190911D02F7
:103D0000992309F4C9C223333105C8F19F3F19F043
:103D10009F5F90931D02FF2059F00E9467069FEF5E
:103D20001F140CF491E0899F802D112480932502AB
:103D3000EE2059F00E9467069FEF1E140CF491E0EC
:103D4000899F802D112480932602309125023323F0
:103D5000B1F020912602222391F045EB3403C001FB
:103D60001124992309F4F6C09093250245EB24030E
:103D700090011124332309F4F1C030932602812FDE
:103D8000802B09F448C080911F02909120020E946C
:103D9000E2049C0190911C02992309F478C2253613
:103DA0003105C8F19F3F19F09F5F90931C021123CA
:103DB00059F00E9445069FEF11160CF491E0899F7F
:103DC000802D112480932702002359F00E9445067C
:103DD0009FEF10160CF491E0899F802D11248093A1
:103DE0002802309127023323B1F0209128022223A8
:103DF00091F045EB3403C0011124992309F4B2C0BA
:103E00009093270245EB240390011124332309F4F6
:103E1000ADC0309328028091250290912602892B13
:103E200090912702892B90912802892B11F00E94F2
:103E3000A50586E0FE013196A3E2B2E001900D9265
:103E40008A95E1F70E94290590910202891731F0C5
:103E50000E942905809302020E94A10A80915F02BC
:103E6000843009F0B1CE83E08093E9008091E800CE
:103E700082FFAACE8091E80090E085FF0CC00E94EE
:103E8000740330E2E32EF12C8E010F5F1F4F882365
:103E900009F47AC091E08091E8008B778093E80084
:103EA000992309F491CEE981E150E33108F0E0C0B3
:103EB000F0E0E159FC4D0C94AB2180915F0284301D
:103EC00049F180E00E94350580E00E94A10A10922D
:103ED0003002E8E1F0E00FB6F894A895E0936000B6
:103EE0000FBE2092600083B7817F846083BF83B759
:103EF000816083BF7894889583B78E7F83BF0FB628
:103F0000F894A89580916000886180936000109279
:103F100060000FBE80915E02882371F00E94FF0D49
:103F2000E0E1F2E081919191892B09F091C18CE15E
:103F300092E08E179F07B1F780915F02853009F4F8
:103F4000BCCF0E94FD0F0E94D70F0E9429050E943E
:103F5000A10A41CE81E08093250208CF81E08093C1
:103F600026020DCF81E0809327024CCF81E0809321
:103F7000280251CF8091F100F80181938F01F1E087
:103F8000EF1AF10809F486CF8091E80085FDF2CFA1
:103F90008091E8008B778093E8000E947403882367
:103FA00099F378CF1A8289E08B831AC08A81823094
:103FB00009F464C18330D9F1813009F059C02FB7B9
:103FC000F8946091310270913202809133029091A5
:103FD00034022FBF0E94B1216B837C838D839E832B
:103FE00080915F02843009F0EFCD1091E9001F70DD
:103FF0009091EC00892F817090FD80E8182B82E071
:104000008093E9008091E80080FF0DC050E040E01F
:1040100060E270E0CE0101960E94A5038091E80065
:104020008E778093E8001F701093E900CDCDDE01FC
:104030001196E0E1F2E080819181329612969C9394
:10404000129713968C931397129622E0EC31F20795
:1040500091F7C6CF8A81823059F46B817C818D8142
:104060009E810E94B12186E290E00E94E021B8CFBB
:104070008FEF8983B5CF4C816B818A810E94430D7C
:104080009827892798279E838D83AACF0D811E812B
:104090001027012710278A81EB8040E2E49E7001FF
:1040A000112490EC899FE00CF11C11248C8190E08C
:1040B000880F991FE80EF91E612FC70187960E948D
:1040C000E021602FC7018896D0CF0E94A50C88CF31
:1040D0008A81893009F084CF8B81E3E08E9FC00113
:1040E00011246FEF70E00E946121862F0E948F05DE
:1040F00077CF8A81893029F08A3009F071CF1B820D
:104100006FCF80912902869586958695FFEF8F9FC8
:10411000C001112463E070E00E9461216B8360CFD5
:10412000809129020E941F0D5BCF80E18A8358CFC6
:104130001A8289ED39CF0A811B81102701271027A8
:10414000CE0101967C01CC80FC01EC0DF11D6F01CC
:10415000C801895D9C4FEC14FD0409F441CF093D71
:10416000110550F40E94D221F70184830F5F1F4F85
:10417000FFEFEF1AFF0AECCFF7011482F7CF0A81A5
:104180001B81102701271027CE0101966C01EC80BE
:10419000E00EF12EF11CC801895D9C4FE016F1067E
:1041A00009F41ECF093D110520F4F60164810E9437
:1041B000E021FFEFCF1ADF0A0F5F1F4FECCF0E9405
:1041C000950C0ECF84E0B2CF0A811B811027012706
:1041D0001027CE0101967C01CC80FC01EC0DF11D75
:1041E0006F01C8018796CE14DF0409F4F9CE0115DA
:1041F000F3E01F0750F40E94D221F70184830F5F80
:104200001F4FFFEFEF1AFF0AECCFF7011482F7CF31
:104210000A811B81102701271027CE0101966C010E
:10422000EC80E00EF12EF11CC8018796E016F10635
:1042300009F4D6CE0115E3E01E0720F4F6016481EF
:104240000E94E021FFEFCF1ADF0A0F5F1F4FECCF74
:1042500009BD19BD09B400FEFDCF8091D8008F7D46
:104260008093D8008091E00082608093E00080918C
:10427000E00081FDFCCF0E94FD0F5ECE86E290E063
:104280000E94D2211B821C821D828E83A9CE2D32D8
:10429000314008F089CDBFCD2D32314008F038CD06
:1042A0006ECDDB018F939F930E94C721BF91AF9189
:1042B000A29F800D911DA39F900DB29F900D112480
:1042C0000895AA1BBB1B51E107C0AA1FBB1FA6175D
:1042D000B70710F0A61BB70B881F991F5A95A9F7AF
:1042E00080959095BC01CD01089597FB072E16F49B
:1042F000009407D077FD09D00E94612107FC05D00A
:104300003EF4909581959F4F0895709561957F4FEC
:104310000895A1E21A2EAA1BBB1BFD010DC0AA1F06
:10432000BB1FEE1FFF1FA217B307E407F50720F01E
:10433000A21BB30BE40BF50B661F771F881F991F99
:104340001A9469F760957095809590959B01AC01E2
:10435000BD01CF010895EE0FFF1F0590F491E02DF0
:10436000099469279627692778278727782708954A
:10437000A29FB001B39FC001A39F700D811D1124A6
:10438000911DB29F700D811D1124911D08950E94F1
:10439000B821A59F900DB49F900DA49F800D911DF5
:1043A00011240895F999FECF92BD81BDF89A9927FD
:1043B00080B50895A8E1B0E042E050E00C940622F8
:1043C000262FF999FECF92BD81BDF89A019700B4CE
:1043D000021639F01FBA20BD0FB6F894FA9AF99A6E
:1043E0000FBE08950396272F0E94E1210E94E0212D
:1043F000252F0E94E121242F0C94E1210196272FE3
:104400000E94E1210C94E021DC01CB01FC01F9992F
:10441000FECF06C0F2BDE1BDF89A319600B40D9210
:1044200041505040B8F708950F931F93CF93DF93F7
:104430009C01029710F422E030E0E0916A01F091D3
:104440006B0190E080E0B0E0A0E0309791F400973D
:1044500009F445C0821B930B84309105B8F58A811D
:104460009B816115710569F1FB0193838283FE01D4
:1044700011C0408151810281138142175307F0F02E
:104480004217530799F4109761F012960C93129704
:1044900013961C933296CF01DF91CF911F910F910C
:1044A000089500936A0110936B01F4CF009719F0FF
:1044B0004817590718F4CA01BD01EF01DF01F801DF
:1044C000C4CF90936B0180936A01D1CFFE01E80FB6
:1044D000F91F21933193029799838883DCCF8091D0
:1044E0006C0190916D01892B41F4809102019091B2
:1044F000030190936D0180936C0180910001909174
:104500000101009741F48DB79EB74091040150918D
:104510000501841B950B40916C0150916D0148176A
:10452000590708F0B8CF841B950B8217930708F43E
:10453000B2CFB9016E5F7F4F8617970708F4ABCFF4
:10454000640F751F70936D0160936C01FA012193E4
:104550003193A1CFCF93DF939C010097E9F0FC0149
:10456000329713821282C0916A01D0916B01DE01F1
:1045700090E080E02097A1F480819181280F391F7D
:1045800080916C0190916D018217930709F067C0CB
:10459000F0936D01E0936C01DF91CF910895DA0102
:1045A000AE17BF0708F041C012964D915C9113976A
:1045B000CD014115510599F7DC011396FC93EE935B
:1045C00012974D915D91A40FB51FEA17FB0781F477
:1045D000208131812E5F3F4F240F351FDC01119662
:1045E0003C932E932281338113963C932E93129702
:1045F000B0E0A0E08A819B810097B1F5FE01819136
:104600009191E80FF91F80916C0190916D018E17C7
:104610009F0711F6109759F510926B0110926A01DD
:10462000D0936D01C0936C01B7CFB383A283408157
:104630005181240F351FA217B30771F44E5F5F4FEE
:104640002D913C911197420F531F51834083129635
:104650002D913C9133832283009709F0ADCFF093E5
:104660006B01E0936A0198CFDE01EC01C3CF139692
:104670001C921E921297D4CFFB01DC0104C08D91D5
:104680000190801921F441505040C8F7881B990BC4
:104690000895F894FFCFC30DC30DCC0DCC0DCE0DF6
:1046A000CC0DCC0DCC0DC30DC30DD30DCC0DCC0D4D
:1046B000D30DF7101F11C0121F11C0125211731128
:1046C000C01271127E12E315E31558165816B6166D
:1046D000D0161A161A16DB16481759175917D21F73
:1046E000D61F2A203B204620652068207920902074
:1046F00038203820952098209B20BF20DF20E22002
:04470000E420082188
:10470400000071022000DF04FA0AD90AD50AD10A8E
:1047140001818283E200E900EA00B500B600B70037
:10472400CD008301CC008A0192019401210223026D
:1047340024022502260227022A02B300B4006F00D5
:1047440070003031323391366667F7F6F5F4F1F0E4
:1047540092939594969734354022B684016201ACC5
:084764000086059F05BF05005A
:00000001FF
