:100000000C94BF030C9406040C9406040C94060490
:100010000C9406040C9406040C9406040C94060438
:100020000C9406040C9406040C9471150C94EC19B1
:100030000C9474250C9406040C9406040C94060489
:100040000C9406040C9406040C9406040C94060408
:100050000C9406040C9448160C9406040C940604A4
:100060000C9406040C9406040C9406040C940604E8
:100070000C9406040C9406040C9406040C940604D8
:100080000C9406040C9406040C9406040C940604C8
:100090000C9406040C9406040C9406040C940604B8
:1000A0000C9406040C9406040C9406040501090241
:1000B000A10185020901A1000509190129081500FE
:1000C0002501950875018102050109300931158165
:1000D000257F95027508810609381581257F9501D0
:1000E00075088106050C0A38021581257F95017572
:1000F000088106C0C005010980A101850319012AF4
:10010000B700150126B700950175108100C0050CD8
:100110000901A101850419012AA002150126A002E6
:10012000950175108100C005010906A1018505052D
:100130000719E029E71500250195087501810205D9
:1001400007190029EF1500250195F07501810205B9
:10015000081901290595057501910295017503910D
:1001600001C00660FF0961A1010962150026FF00B8
:100170009520750881020963150026FF00952075FA
:10018000089102C005010906A101050719E029E748
:1001900015002501950875018102950175088101F9
:1001A0000507190029FF150026FF0095067508812F
:1001B000000508190129059505750191029501753C
:1001C000039101C0000000000000000000000000DA
:1001D000000000000000000000000000000000001F
:1001E00000000000000000007E0F00D4FFFFFFC7EA
:1001F0000000007800000000000000002A2B28000A
:1002000000000000000000000000000000000029C5
:10021000000000002C1E3420212224342627252E05
:10022000362D3738271E1F2021222324252633333D
:10023000362E37381F0405060708090A0B0C0D0E69
:100240000F101112131415161718191A1B1C1D2F35
:100250003130232D350405060708090A0B0C0D0E55
:100260000F101112131415161718191A1B1C1D2F15
:100270003130354C0001010101010101010102028F
:100280000202020202020203030303030303030444
:10029000040404040404050505050506060606060F
:1002A000070707070708080808090909090A0A0AC9
:1002B0000B0B0B0C0C0C0D0D0D0E0E0E0F0F0F106B
:1002C00010111111121213131414151516161717F5
:1002D000181819191A1A1B1B1C1D1D1E1E1F202061
:1002E000212222232424252626272829292A2B2CAB
:1002F0002D2D2E2F30313232333435363738393ACE
:100300003B3C3D3E3F404142434445464748494AC5
:100310004C4D4E4F50515354555658595A5B5D5E93
:100320005F616264656668696B6C6D6F707273752E
:1003300077787A7B7D7E8082838587888A8C8E8F92
:1003400091939596989A9C9EA0A2A3A5A7A9ABADC0
:10035000AFB1B3B5B7BABCBEC0C2C4C6C9CBCDCFAE
:10036000D1D4D6D8DBDDDFE2E4E7E9EBEEF0F3F55C
:10037000F8FAFDFF009B8B7B00AB8A7A00AA9A7982
:1003800000A9998900A8988800A7978700A6968653
:1003900000A5958500A49484003C4C5C002C4D5D28
:1003A000002D3D5E002E3E4E003040500031415148
:1003B000002A3A4A00293949002838480027374797
:1003C0000026364600253556002445550034445451
:1003D00000AC9C8C00AD9D8D00AE9E8E00AF9F8FBB
:1003E00000B0A09000B1A19100324252002B3B4BD3
:1003F00001A9998901A8988801A7978701A69686DF
:1004000001A5958501A49484013C4C5C012C4D5DB3
:10041000012D3D5E012E3E4E012F3F4F01304050D9
:100420000033435301AB8A7A012838480127374704
:1004300001263646012535560124455501AC9C8CD4
:1004400001AD9D8D01AE9E8E01AF9F8F0131415157
:10045000013242520133435300B2A281019B8B7B94
:10046000012B3B4B012A3A4A0134445401B1A1917A
:1004700001B2A28101A3938300A3938300B392826C
:10048000165C1E001F002000210022002300240013
:100490002500260027002D002E002A004A002B00F0
:1004A00014001A000800150017001C0018000C00AA
:1004B000120013002F00300031004B0039000400FF
:1004C0001600070009000A000B000D000E000F00C7
:1004D00033003400000028004E00E1001D001B0026
:1004E0000600190005001100100036003700380022
:1004F000E500000052004D00E000E300E2000000D3
:1005000000002C0000000000E60000000151500037
:10051000000051004F00165C3A003B003C003D00DB
:100520003E003F00400041004200430044004500BF
:100530004C004A000100C25CC35CC55CC65CC75C81
:10054000C85CC95CCA5C0100460047004800005C0A
:100550004B000100CB5CCC5C0100010001000100FC
:10056000010001000100010001000000DE5C4E00FE
:10057000E100010001000100010001000100010093
:1005800001000100010001000000A900A800010015
:100590000100010000000000010000000000010057
:1005A00000000100AC000000AA00AB000100010047
:1005B0000100010001000100010001000100010033
:1005C0000100010001000100010001000100010023
:1005D0000100010001000100010001000100010013
:1005E0000100010001000100010001000100010003
:1005F00001000100010001000100010001000100F3
:1006000000000100010001000100010001000100E3
:1006100001000100010001000100010001000000D3
:1006200001000100010001000100000000000100C4
:1006300000000000010000000100010000000100B6
:1006400001000100010001000100010001000100A2
:100650000100010001000100010001000100010092
:100660000100010001000100010001000100010082
:100670000100010001000100010001000100010072
:100680000100010001000100010001000100010062
:100690000100010001000000010001000100010053
:1006A0000100010001000100010001000100010042
:1006B0000100010000000100010001000100010033
:1006C0000000000001000000000001000000010027
:1006D000010000000100010009025B00030100A00D
:1006E000FA090400000103010100092111010001C0
:1006F00022400007058103080001090401000203EC
:1007000000000009211101000122220007058203D7
:100710002000010705030320000109040200010372
:1007200000000009211101000122B6000705840321
:100730002000011201000200000008424B251202B5
:10074000000102000120036B0062006400360037E4
:10075000006D006B00690069007200670062002094
:100760000076003200000010034B00420044006697
:100770000061006E007300000004030904001124EE
:100780001FBECFEFDAE0DEBFCDBF04B603FE27C049
:100790008091400590914105A0914205B09143059B
:1007A0008730904BA740B04BD1F410924005109287
:1007B0004105109242051092430514BE84B7877F0D
:1007C00084BF0FB6F894A8958091600088618093EB
:1007D0006000109260000FBEE0E0F8E3099512E0BF
:1007E000A0E0B1E0E2ECFDE502C005900D92AA3870
:1007F000B107D9F725E0AAE8B2E001C01D92A03404
:10080000B207E1F70E949B250C94912E0C940000F6
:1008100090913905937051F0811109C094609093C3
:1008200039051092160181E08093380508958731CB
:1008300010F09865F4CF880F880F982BF0CF909127
:100840003905937049F080933A0560933B054093D6
:100850003C0581E0809338050895E8EDF0E0808163
:100860008E7F80831092E2001092DA001092E100F5
:10087000A0EEB0E08C9181608C9380818F77808333
:1008800019BCA7EDB0E08C918E7F8C9380818F7E18
:1008900080831092020508952091E4003091E500D4
:1008A00095E6A9012091EC00822F817020FF06C0FF
:1008B0008091E80080FF06C080E008952091E80064
:1008C00022FD1AC080912705882389F0853089F0A0
:1008D0008091EB0085FD0FC02091E4003091E50090
:1008E00042175307F9F29150E1F684E0089582E04F
:1008F000089583E0089581E00895EF92FF920F93A9
:100900001F93CF937C018B010E944C04C82F81114F
:1009100017C08091E80085FD0BC08091E8008E77BC
:100920008093E8000E944C04882399F3C82F08C0E4
:10093000F70181917F018093F1000150110949F77E
:100940008C2FCF911F910F91FF90EF900895809180
:10095000290587FF13C08091E80082FF06C08091BF
:10096000E8008B778093E80004C08091270581110F
:10097000F2CF0895809127058823D9F38091E8006C
:1009800080FFF8CF8091E8008E77ECCF982F90937E
:10099000E900242F762F50E0891731F07091EC0098
:1009A0002091ED005091F00021FD07C09F5F97302E
:1009B00071F78093E90081E008953091EB003E7F6C
:1009C0003093EB003091ED003D7F3093ED0030919E
:1009D000EB0031603093EB007093EC002093ED005E
:1009E0005093F0002091EE0027FDE0CF80E00895C5
:1009F000CF92DF92EF92FF920F931F93CF93DF93EB
:100A0000C8EDD0E088818F7E8883E7EDF0E08081BB
:100A10008160808384E082BF81E0809302058881C9
:100A20008E7F888302EE10E0F80110821092DA00C7
:100A300081EEC82ED12CF601108288818F778883B1
:100A400088818068888388818F7D888319BC109213
:100A5000270510922805109226051092250590EE84
:100A6000E92EF12CF70180818B7F80838881816062
:100A7000888342E060E080E00E94C604F601808145
:100A80008E7F8083F801808181608083808188608F
:100A90008083F70180818E7F808388818061888355
:100AA000DF91CF911F910F91FF90EF90DF90CF904A
:100AB0000895FC0180912F059091300586179707C6
:100AC000A0F06115710529F49091E8009E7790934C
:100AD000E80090E06115710551F4911108C0809112
:100AE000E80082FF34C080E00895BC01F2CF80911D
:100AF00027058823C1F18530C1F18091E80083FD8D
:100B000030C08091E80082FDEACF8091E80080FF4C
:100B1000E1CF8091F3002091F200382F611571052B
:100B200019F02830310558F091E02830310509F0EE
:100B300090E02091E8002E772093E800CBCF8191C0
:100B40008093F100615071092F5F3F4FE7CF809193
:100B50002705882341F0853041F08091E80083FF2C
:100B6000BECF81E0089582E0089583E008958091EA
:100B700004050895209112012223C9F02091FD045B
:100B800027FF15C0E62FE695E695E695EE31D8F4F9
:100B9000E80FF92FF11D677021E030E001C0220F4E
:100BA0006A95EAF720958281282322830895FC0123
:100BB000329608962191621303C0DF0111971C92AF
:100BC000E817F907B9F70895209112012223C1F01F
:100BD0002091FD0427FF14C0E62FE695E695E695E3
:100BE000EE31F8F4E80FF92FF11D677021E030E0E5
:100BF00001C0220F6A95EAF78281822B82830895D1
:100C0000FC0132962FEF30E04191641751F02F3FF5
:100C100019F4411101C0232F3F5F3630A9F72F3F50
:100C200009F40895820F911D27FD9A95FC016283B6
:100C300008952091F6043091F7042817390771F0D0
:100C40009093F7048093F604E091F404F091F50496
:100C5000309721F00084F185E02D099408952091CA
:100C6000F2043091F3042817390771F09093F304DC
:100C70008093F204E091F404F091F504309721F0B0
:100C80000680F781E02D09940895E091F404F09135
:100C9000F504309721F00190F081E02D099480E077
:100CA0000895FA01811101C0FB0109948334910573
:100CB00070F5FC01EE0FFF1FEE0FFF1FDF01AC58B8
:100CC000BC4FCD010296FC0154910196FC01349178
:100CD000FD0185918370E491A82FB0E0F0E98F9F2A
:100CE000C001112484559C4FE80FF92FF11DB497D2
:100CF0006083FC01E50FF11DB4974083830F911DC4
:100D0000FC01B4972083A655BC4F81E08C930895D5
:100D1000FF920F931F93CF93DF93182F062FF42E7C
:100D2000D0E0C0E02F2D402F612FCE010E9456064B
:100D30002196C334D105B1F7DF91CF911F910F9167
:100D4000FF900895E9E3F5E0248130E1231B08F4E6
:100D500020E0248381E0809338050895E9E3F5E0FD
:100D6000248130E1230F08F42FEF248381E0809366
:100D700038050895E9E3F5E0438120E1421B08F4DA
:100D800040E08181628190E00C941F04E9E3F5E08A
:100D9000438120E1420F08F44FEF8181628190E0AE
:100DA0000C941F04E9E3F5E0628120E1621B08F482
:100DB00060E08181438190E00C941F04E9E3F5E059
:100DC000628120E1620F08F46FEF8181438190E03E
:100DD0000C941F04E9E3F5E081814381628188502E
:100DE000990B0C941F04E9E3F5E0818190E04381C5
:100DF000628108960C941F0480913905869586952A
:100E0000815009F486E10C94080480913905869597
:100E100086958F5F873108F081E00C940804E42FF9
:100E2000F0E0EE0FFF1FEF53FE4F9081921B97FDF6
:100E30009195292F38E1239F212D1124620F0895C8
:100E40000F931F9310E0F801EE0FFF1FEF53FE4FBB
:100E50009081905797FD9195000F111FF801EE5367
:100E6000FE4F00810052110B2003F001219FF00D75
:100E7000112408E310E0091B110997FD13954003A5
:100E80009001419F300D1124E20FF31F9F01220FAB
:100E9000331F2E0F3F1F37FF02C021583F4F220F35
:100EA000232F221F330B620F1F910F9108950F9371
:100EB0001F93522F10E0F801EE0FFF1FEE53FE4F6D
:100EC000A081A052BB0B9D015203F001539FF00D76
:100ED0001124000F111FD801AF53BE4F0C910057C2
:100EE000110B40039001419F300D11242E0F3F1F25
:100EF00037FF02C0215C3F4F96E0359527959A95C4
:100F0000E1F7620F1F910F9108950F931F93522FD6
:100F100010E0F801EE0FFF1FEE53FE4FA081A0522C
:100F2000BB0B9D015203F001539FF00D1124000FE4
:100F3000111FD801AF53BE4F0C910057110B400346
:100F40009001419F300D11242E0F3F1F37FF02C02B
:100F500021583F4F220F232F221F330B620F1F9167
:100F60000F910895EF920F93972F23E0029FB00106
:100F70001124759567956E0D792F0F91EF90089557
:100F8000322F50E0FA01EE0FFF1FEE53FE4F90811B
:100F9000905297FD9195440F551FFA01EF53FE4F64
:100FA0002081231B330B290F311D97FD3A95620FCA
:100FB0000895E42FF0E0EE0FFF1FEE53FE4F608127
:100FC000621B0895E42FF0E0EE0FFF1FEF53FE4F7A
:100FD0006081621B0895622F0895E42FF0E0EE0F08
:100FE000FF1FEF53FE4F408134EE439F412D1124EC
:100FF000E82FF0E050E0445E5F4FDA01A21BB10938
:101000009D01B7FF03C031952195310993E0220F6F
:10101000331F9A95E1F7AF01421B530B9A0157FD1D
:1010200020E0582F259F212D1124822F08950C9404
:1010300088060C94560622E8241B08F420E0620F70
:101040000895FC019B01009729F480E077FF2BC0F5
:1010500080E80895AC0197FF04C044275527481B3A
:10106000590BB901640F751F37FD10C0241B350BD8
:10107000C901A5E0880F991FAA95E1F70E949F2C4E
:1010800080E2861BF7FF0FC081950895CB0165E0D4
:10109000880F991F6A95E1F7BA01621B730B0E94D2
:1010A0009F2C80E6EECF0895EF920F93CF93DF93BE
:1010B000D72FC82FC9010E19BA010E942108602F2D
:1010C000681B7D2F8C2FDF91CF910F91EF900895AA
:1010D0000F93CF93DF93D72FC82FC901BA010E9476
:1010E0002108682F600F7D2F8C2FDF91CF910F91FA
:1010F0000895EF920F931F93CF93DF93D62FC72FAF
:10110000182FC9010E19010FBA010E942108081BEE
:10111000202F219F212D1124822F6D2F7C2FDF91D5
:10112000CF911F910F91EF9008950F931F93CF933D
:10113000DF93D62FC72F182FC901212F201B022F75
:10114000BA010E942108982F990F990F891B800FCF
:10115000282F219F212D1124822F6D2F7C2FDF918D
:10116000CF911F910F910895E82F86FDE0952E2FC6
:101170002F7086FD2F5FE695E695E695E670F0E028
:10118000E15AFE4F9181929F902D212D112492952D
:101190009F702295207F922B2081920F87FD919541
:1011A00080E8890F08950F931F93CF93DF938B01EE
:1011B000D82FC42F822F0E94B408EC2FF0E0EE0F3E
:1011C000FF1FEF53FE4F90819058890F87FD819547
:1011D000880F682F2CE0629F612D1124600F712F02
:1011E0008D2FDF91CF911F910F910895AC01823027
:1011F000910508F408959FEF413E8EE1580740F4B1
:101200009A0195E0369527959A95E1F798E0920F27
:1012100061E0E62FE90FFF27FF1F9F013595279516
:10122000822F229FF001239FF00DF00D11244E1705
:101230005F0738F49FEF920F961758F78FEF860FDE
:1012400008952F3FE9F361E0620FF6CF0F93CF933C
:10125000DF93D72FC82F47FD419588E390E0841B8B
:10126000910947FD9395889FB001899F700D700D7E
:101270001124229FC001239F900D900D1124860FF1
:10128000971F0E94F608982F990F890F682F600FFB
:101290007D2F8C2FDF91CF910F91089530E020E0CA
:1012A000869F212D969F200D311D1124C90108957F
:1012B000AF92BF92CF92DF92FF920F931F93CF9383
:1012C000DF93362F472FE82FF0E0EC58FD4F7111D8
:1012D0000FC0E4918E2F2E2F6E2F722FDF91CF91A2
:1012E0001F910F91FF90DF90CF90BF90AF90089526
:1012F000C72FD0E02491F22E022F10E056E0659F18
:10130000C0011124EFEFF0E0BF010E948B2C832F6E
:1013100090E0880F991F35E5369FD001379FB00DBB
:1013200011248A1B9B0B982F990F980F6F01CC1AD1
:10133000DD0AC09ED001C19EB00DD09EB00D11241B
:101340008B2F499FA0011124452F55276F01C41AE7
:10135000D50AC09EA001C19E500DD09E500D1124F3
:101360005F01A91AB108AC9E6001AD9ED00CBC9E75
:10137000D00C1124CD2CDD24EC19FD09E09FE001F7
:10138000E19FD00DF09FD00D1124ED2F623071053B
:10139000A1F050F46115710509F49ECF613071051B
:1013A00081F0EB2F852F98CF6430710569F080F0C4
:1013B0006630710509F490CFF4CFE22F2B2F8D2FDB
:1013C0008BCFE22F252F88CFEB2F822F2D2F84CF8D
:1013D0002B2F8F2DE52F80CFDF92EF92FF920F936F
:1013E0001F93CF93DF937C01C0911301CC0FCC0FDF
:1013F00014E01C0F012F143408F003E460913D0544
:101400006695669521E0620F08F46FEF80913105D3
:10141000909132050E944E09D82ED0E0C01760F09E
:1014200081E0133408F080E0DF91CF911F910F919C
:10143000FF90EF90DF900895FE01E95BFD4F808102
:1014400090911401892391F060913A0570913B05C8
:1014500080913C052D2D4C2FF70109950E945809CC
:10146000462F282F672FCE010E9419082196D6CF2C
:101470009F92AF92BF92CF92DF92EF92FF920F9323
:101480001F93CF93DF936C01C0911301CC0FCC0F4E
:1014900014E01C0FB12E143410F033E4B32E60911D
:1014A0003D056695669580913105909132050E94C3
:1014B0004E09F82E80E48F0D0E94B40890E8A92E02
:1014C000A80E8F2D0E94B40820E8922E980ED0E02E
:1014D000CB1580F081E0133408F080E0DF91CF91EC
:1014E0001F910F91FF90EF90DF90CF90BF90AF9042
:1014F0009F900895FE01E95BFD4F8081909114015A
:101500008923A1F060913A0570913B0580913C05DB
:10151000EF2C0C2F292D4A2DF60109950E94580910
:10152000462F282F672FCE010E9419082196D0CF71
:101530007F928F929F92AF92BF92CF92DF92EF9263
:10154000FF920F931F93CF93DF935C01C091130120
:10155000CC0FCC0F14E01C0FF12E143410F033E438
:10156000F32E60913D05669580913105909132058D
:101570000E944E09782ED0E0CF1590F081E0133410
:1015800008F080E0DF91CF911F910F91FF90EF90D5
:10159000DF90CF90BF90AF909F908F907F900895F5
:1015A000FE01E95BFD4F8081909114018923C9F10F
:1015B000CE01880F991F8A589E4FFC01E55BFF4FB3
:1015C0002081422F4057550B6A01845B9F4FFC01DD
:1015D0008081282F2052330B4901449F9001459F61
:1015E000300D300D1124889CC001899C900D900D08
:1015F0001124820F931F0E94F608082F60913A056C
:1016000070913B0580913C05E72C9401A601F50102
:1016100009950E945809462F282F672FCE010E9456
:1016200019082196A9CFCF92DF92EF92FF920F93E4
:101630001F93CF93DF937C01C0911301CC0FCC0F8C
:1016400014E01C0FD12E143410F033E4D32E60912B
:101650003D05669580913105909132050E944E09B5
:10166000C82ED0E0CD1568F081E0133408F080E09A
:10167000DF91CF911F910F91FF90EF90DF90CF906E
:101680000895FE01E95BFD4F80819091140189234B
:1016900011F1CE01880F991F8A589E4FFC01E45B1F
:1016A000FF4F20812052330B855B9F4FFC0140810F
:1016B0004057550B60913A0570913B0580913C0570
:1016C0000C2DF70109950E945809462F282F672FE6
:1016D000CE010E9419082196C5CF9F92AF92BF926A
:1016E000CF92DF92EF92FF920F931F93CF93DF93EE
:1016F000182F80911101811323C0909139059370A7
:101700002091100130E081E09217130609F480E087
:1017100081708093150180913E0590911401981776
:1017200039F08093140140E060E080E00E941708E7
:10173000173190F4E12FF0E0ED56F14D0C94D22CDE
:1017400081E0E6CF80911501882309F4FDC040E0D7
:1017500060E080E00E94170880E0F6C0C0911301AD
:10176000CC0FCC0F04E00C0FF02E043410F0F3E497
:10177000FF2E60913A0570913B0580913C050E94D7
:101780005809E62ED72EC82ED0E0CF1528F081E0DC
:10179000033408F4D9C0E0CFFE01E95BFD4F80813E
:1017A00090911401892331F02C2D4E2D6D2DCE01F9
:1017B0000E9419082196E9CFC0911301CC0FCC0FDC
:1017C00004E00C0FF02E043410F0E3E4FE2ED09071
:1017D0003B05E0903C05D0913A056D2F7D2D8E2D77
:1017E0000E945809C62EB72EA82E60913D056D0F98
:1017F0007D2D8E2D0E945809E62ED72E982ED0E0F2
:10180000CF1528F6FE01E95BFD4F90818091140110
:10181000892359F0292D4E2D6D2D90FD03C02A2DC1
:101820004C2D6B2DCE010E9419082196E9CFC09155
:101830001301CC0FCC0F04E00C0FE02E043410F099
:1018400073E4E72ED0903B05C0903C0520913D0508
:1018500060E4F62E3F2D329F312D1124F32ED0E07F
:10186000CE1508F094CFFE01E95BFD4F8081909189
:1018700014018923D9F0FE01EE0FFF1FEF53FE4F35
:101880006081F69EB001112455E0759567955A95D3
:10189000E1F780913A05680F7D2D8C2D0E94580943
:1018A000462F282F672FCE010E9419082196D8CFE6
:1018B000C0911301CC0FCC0F04E00C0FF02E0434B8
:1018C00010F033E4F32EE0903A05D0913B05D09030
:1018D0003C0560913D05669566956695809131055C
:1018E000909132050E944E090E94B408805887FDED
:1018F0008195880F282F3D2D239F212D1124822F84
:101900006E2D7D2F0E945809E62ED72EC82ED0E0CE
:10191000CF1508F03CCFFE01E95BFD4F808190912F
:101920001401892331F02C2D4E2D6D2DCE010E94F6
:1019300019082196EDCF8DEE97E00E94EC0904C0C6
:1019400085E998E00E94130B909113019F5F90939B
:10195000130181110CC082E0809316018091150162
:10196000811105C0111103C083E080931601DF913E
:10197000CF911F910F91FF90EF90DF90CF90BF908C
:10198000AF909F90089589E798E00E94980ADCCF75
:101990008BEE97E0D2CF82EE97E0CFCF89ED97E044
:1019A000CCCF80EC97E0C9CF82EB97E0EECF86E218
:1019B00099E0C8CF88E698E0C5CF84E598E0E5CF08
:1019C00085E897E00E94380ABFCF87E597E0FACF15
:1019D00080E297E0F7CFC0911301CC0FCC0F04E069
:1019E0000C0FF02E043410F023E4F22ED0903B05BF
:1019F000E0903C05D0913A0560913D05669566956D
:101A0000669580913105909132050E944E090E94A1
:101A1000B408805887FD8195880F682F2CE0629F5D
:101A2000612D11246D0F7D2D8E2D0E945809E62EFB
:101A3000D72EC82ED0E0CF1508F0A9CEFE01E95B65
:101A4000FD4F808190911401892331F02C2D4E2D72
:101A50006D2DCE010E9419082196EDCF83ED98E0FF
:101A60006CCF8FE097E069CFC0911301CC0FCC0F02
:101A700004E00C0FD02E043410F093E4D92E209102
:101A80003D0531E0230F08F42FEF30E050E040E057
:101A90006FEF7FEF80E090E00E94B32C7901D0E0FF
:101AA0002C2FCD1508F073CEFE01E95BFD4F808130
:101AB00090911401892311F140916D034150042E3E
:101AC000000C550B47FF1CC0C70160913D0531E07C
:101AD000630F08F46FEF0E944E09AC0160913A0564
:101AE00070913B0580913C050E941B080E9458099B
:101AF000462F282F672FCE010E9419082196D0CF9C
:101B0000FA01E359FC4F818982130AC0FA01EE0FF2
:101B1000FF1FE359FC4F818D928D8E159F05A8F212
:101B200041505109CFCF40916903803F59F48091D2
:101B30006A0387FF0DC010926A0341110BC0109217
:101B4000610308C0813F81F480916A0318169CF3F9
:101B5000442381F080916B0390916C03892B09F0F1
:101B60005AC0109260030895823F49F447FFF0CFB6
:101B70001092690380916A038111ECCFE0CF833F1B
:101B800019F41416ACF3E4CF90916B03893F29F458
:101B90001916F4F610926B03DBCF8A3F19F497FF06
:101BA000D7CFF8CF90916C038B3F29F497FFD0CF1C
:101BB00010926C03CDCF8C3F19F41916CCF3C8CF1B
:101BC0009CE0980F953090F4845F990B21E030E011
:101BD000B90102C0660F771F8A95E2F7CB018095A5
:101BE00090916803892380936803B2CF8D3F31F4CD
:101BF000809162038E7F80936203AACF8E3F21F48F
:101C0000809162038D7FF7CF8F3F09F0A1CF809144
:101C100062038B7FF0CF08958091620380FD16C030
:101C200081FD16C082FD16C0809160038823A1F05B
:101C3000883280F428E0829FC001112468E270E0BD
:101C40000E949F2C862F672B39F0089582E008951B
:101C500084E0089588E0089581E00895809162030A
:101C600080FD14C081FD14C082FD16C08091610307
:101C7000882381F0843180F422E3829FC001112403
:101C800064E170E00E949F2C862F08958CE00895F7
:101C900089E1089585E0089582E30895803F31F455
:101CA0000E942E0E819580936A030895813F19F456
:101CB0000E942E0EF8CF823F31F40E942E0E8195A5
:101CC000809369030895833F19F40E942E0EF8CF84
:101CD000893F29F40E940C0E80936B0308958A3F7C
:101CE00021F40E940C0E8195F7CF8B3F31F40E94B6
:101CF0000C0E819580936C0308958C3F19F40E941B
:101D00000C0EF8CF9CE0980F953070F4845F990B1F
:101D100021E030E001C0220F8A95EAF78091680344
:101D2000822B8093680308958D3F31F48091620384
:101D300081608093620308958E3F21F48091620355
:101D40008260F7CF8F3FB9F7809162038460F1CF53
:101D500080E00895F894E82FE295EF70F0E031A16B
:101D6000282F2F7081E090E001C0880F2A95EAF7B4
:101D7000982F9095932391A392A1892B82A3789475
:101D800008959091FD0492FF06C0282F28712830F5
:101D9000F9F4877F846093FF06C0282F28712831CB
:101DA000F1F4877E84612091FE0420FF06C0382F65
:101DB00038713830D9F4877F816021FF06C0282F21
:101DC00028712831D1F4877E816194FD877E089542
:101DD000282F24712430F9F68B7F8860DCCF282FE0
:101DE0002471243101F78B7E8861DDCF382F31716A
:101DF000313019F78E7F8860E0CF282F2171213193
:101E000021F78E7E8861E1CFCF93DF93EC0182389A
:101E10009105A9F1D8F58133910509F496C048F5EB
:101E20008932910509F48AC08A9709F495C0C115D1
:101E300021E5D20708F0BCC0C11530E5D30708F092
:101E400014C1C83ED10508F09CC0C03ED10560F564
:101E5000C83AD10508F087C0C53AD10508F0FDC0E1
:101E6000C130D10509F12097F9F0C430D105E0F473
:101E700040C08533910509F45AC0C997C1F68091D5
:101E8000FD04837089F0C0EED0E00EC0833E910562
:101E900099F170F4803E910501F1823E910539F689
:101EA0008091FD0482FD21C0CE01DF91CF91089584
:101EB000863E910561F1873E910571F1843E910561
:101EC00009F0B5CF8091FE0481FFEECF8091FD0433
:101ED000C7EED0E084FD0DC0E7CF8091FD0480FD0A
:101EE00012C19091FE0490FFDFCFC3EED0E084FFDB
:101EF000DBCFD0E0C0E0D8CF8091FD0482FD06C1E9
:101F00009091FE0490FDBFCF84FFCECFF2CF8091A1
:101F1000FD0483FDDDCFC8CF8091FD0483FDF9C0B2
:101F20009091FE0491FFF0CFC4EED0E0BDCF809140
:101F3000FD0485FFB9CFC9E2D0E0B6CF8091FD04A2
:101F400085FFB2CFC5E3D0E0AFCF8091FD0486FF1F
:101F5000ABCFCAE2D0E0A8CF8091FD0486FFA4CF2A
:101F6000C1E3D0E0A1CFCF3BD10518F6C85AD0E0ED
:101F7000CC0FDD1FC35EDE4F0990D881C02DD46425
:101F800093CFC11540E2D40758F4C11581E0D807BA
:101F900008F08ACFC03FD10508F4ABCFD06584CF1D
:101FA000C11590E4D90708F4A4CFDF70D06A7CCFC4
:101FB000C11525E5D20700F5C11534E5D30708F0B2
:101FC0008AC0C11543E5D40708F071C0C11582E588
:101FD000D80708F467C0CE018370992721E030E06C
:101FE00002C0220F331F8A95E2F7C695C69580E29C
:101FF000C89FE001112452C0C11599E5D907A8F482
:10200000C11528E5D20708F06BC0C11536E5D30726
:1020100008F06FCF8C2F0E94C10EC82FD0E0DC2FAC
:10202000CC27CC27DF71D0623FCFC1154AE5D4075A
:1020300008F45BC0CE0190568115904208F059CF4C
:102040008D2F8F710E94C10E90E0982F88278827CE
:102050009F719C012C2BE901E6CFC55AD0E0C65EEA
:10206000DE4FC881D0E0D0641FCFCE01E4E096956A
:102070008795EA95E1F783702C2F26952695237096
:1020800040E2249F90011124382B8C2F8370C1E0F3
:10209000D0E002C0CC0FDD1F8A95E2F7C22BD32B14
:1020A000DC6802CFDC2FCC27C16FD06AFDCECE0119
:1020B0008370992721E030E002C0220F331F8A95F8
:1020C000E2F7C695C69590E2C99FE0011124C22BA4
:1020D000D32BDA68E9CEDC2FCC27C46FD06AE4CEEC
:1020E000DC2FCC27C06FD06ADFCE8C2F8F700E9480
:1020F000C10E34E0D695C7953A95E1F7CF709C2F85
:10210000EC01D069D1CEC9E3D0E0CECEC2EED0E0B2
:10211000CBCEC6EED0E0C8CE80910B0381111092D9
:102120000B03089580910A0390910903892B9091E4
:102130000803892B8093900290910B039923A1F0BF
:10214000892B8093900280911201882341F1809124
:10215000FD0487FF24C08EE1E2E9F2E090E08150C7
:1021600000F591110E948C10E091F404F091F504B7
:102170003097E1F080911201882359F08091FD049D
:1021800087FF07C0809190028093910285E0809341
:1021900090020280F381E02D80E992E0099486E0CC
:1021A000DBCF21912223D9F29F5FD9CF089580916F
:1021B00006039091D502981301C008958F5F877030
:1021C000FACF2FE0929F800D1124982F977086955B
:1021D0008695869523E0829FF0011124EF54FD4FF0
:1021E00050E040E080E0219130E0092E02C03695B9
:1021F00027950A94E2F721703327042E01C0220F9D
:102200000A94EAF7822B4F5F5F4F4330510559F72D
:1022100008952FE0929F800D1124982F977041E030
:1022200001C0440F9A95EAF786958695869593E0C6
:10223000899FF0011124EF54FD4F90E080E070E0A1
:102240005191DF0111979B01082E02C03695279509
:102250000A94E2F7217021952527242325272C9322
:1022600001968330910561F70895882341F08095A8
:1022700090910A03892380930A030C949210089585
:10228000882339F090910A03982B90930A030C94B9
:102290009210089590912705943029F58093FF04BA
:1022A00070930105609300059093E9008FEF909182
:1022B000E800815095FD06C095ED9A95F1F7000074
:1022C0008111F5CF8091E80085FF0DC050E040E01E
:1022D00063E070E08FEF94E00E947D048091E8005D
:1022E0008E778093E8000895BC0184E00C944A1135
:1022F000BC0183E00C944A119C0184E08093E900C6
:102300009FEF8091E800915085FD06C085ED8A958C
:10231000F1F700009111F5CF8091E80085FF0CC026
:1023200050E040E066E070E0C9010E947D048091C9
:10233000E8008E778093E8000895CF93DF93EC0157
:10234000809112018823B1F18091FD0487FF32C092
:1023500060E284E08093E9008FEF9091E800815083
:1023600095FD06C095ED9A95F1F700008111F5CF26
:102370008091E80085FF1BC08091120170E050E061
:1023800040E0811104C050E040E068E070E0CE0120
:102390000E947D048091E8008E778093E80080E2BF
:1023A000FE01A5E0B5E001900D928A95E1F7DF917D
:1023B000CF91089568E081E0CDCF81E08093E00087
:1023C00080E28093D8001092C9008FE19EE40197CB
:1023D000F1F700C0000087E090EBDC01809340053E
:1023E00090934105A0934205B093430588E19CE09A
:1023F0000FB6F894A895809360000FBE909360008C
:10240000FFCFCF93DF93CFE7D2E060E0CE010E9411
:102410002F2D2196C11584E0D807B9F7DF91CF9110
:1024200008956F927F928F929F92AF92BF92CF92B8
:10243000DF92EF92FF920F931F93CF93DF9380E889
:10244000C82E84E0D82E9BEDE92EF12CE701C65969
:10245000D10936011BC0F50185909490692DC80102
:102460000E942F2D682DC80101960E942F2D82E019
:10247000A80EB11C0E5F1F4FC017D10761F78EE188
:10248000680E711C6E96CE15DF0529F08E010E5177
:1024900011095301E0CF7E0186E9E80EF11C86E9BF
:1024A000C80ED11C83E3E81683E0F80679F6DF91C5
:1024B000CF911F910F91FF90EF90DF90CF90BF9041
:1024C000AF909F908F907F906F900895CF93C82F7B
:1024D0006FEF811161E283E290E00E942F2D6FEF98
:1024E000C11169E084E290E00E942F2D6FEFC111CD
:1024F00061E085E290E0CF910C942F2D80E00E9466
:10250000661260E086E290E00E942F2D0E94111278
:102510000E94011281E00C946612CF93C92F682F9C
:1025200084E090E00E942F2D6C2F82E290E0CF910A
:102530000C942F2D9091FE0492FB222720F928174E
:1025400051F080FB92F99093FE048091FD049091EC
:10255000FE040C948D1208950F931F93CF93DF9375
:10256000C42FD0E0CC0FDD1F2EE1629FC00DD11D26
:10257000112436E9839FC00DD11D1124CE01879609
:102580000E94112D082F10E0102F0027CE018896F1
:102590000E94112D9801282BC901DF91CF911F9125
:1025A0000F910895462F843038F4753028F46F3039
:1025B00018F4672F0C94AC1290E080E00895CF924D
:1025C000DF92FF920F931F93CF93DF936C010091E3
:1025D0003F0580910C03082BC7E0D0E010E0FC2EF3
:1025E000C8010C2E02C0959587950A94E2F780FDEC
:1025F0000CC02197A0F7F12C8F2DDF91CF911F9167
:102600000F91FF90DF90CF900895B6018C2F0E941C
:10261000D2120E94040F019761F3EECFCF93DF93A4
:10262000EC010E94DF12BE010E94D212DF91CF9115
:102630000C94040FFC01808191810E940E13292FBC
:102640002F7092959F7092509E3078F4E92FF0E0B1
:10265000E655F14D0C94D22C803F19F020F4883EC1
:1026600020F481E00895843FE1F380E00895883EFE
:10267000C0F3813FD1F7F5CF822F86958695869559
:10268000089583E290E00E94112D813289F484E262
:1026900090E00E94112D893059F485E290E00E946B
:1026A000112D91E0813009F090E0892F817008951B
:1026B00080E0FCCFCF9384E090E00E94112DC82FE2
:1026C00082E290E00E94112D982F8C2FCF910895D7
:1026D0000F931F93CF93DF93082F000FEB0114E2AA
:1026E00010939603E7E9F3E0DE018D91819383E097
:1026F000E73AF807D1F724E630E041E150E066E937
:1027000073E0802F0E94642C105F6096143B41F7A9
:10271000DF91CF911F910F9108958091AA03882393
:1027200029F06CEA73E084E70E9468131092AA0310
:102730008091AB03882329F06CE374E087E70E9463
:1027400068131092AB030895E6E9F3E060834183D8
:1027500024E630E042E050E0BF01880F0C94642C86
:10276000EF92FF920F931F93CF93DF93E82E062FE4
:1027700010E000511B4FF8018081882381F0F2E1C5
:102780006F9FE0011124C453DB4FF12C49916F2D51
:102790008E2D0E94A413F39482E1F812F7CFF80172
:1027A0001082DF91CF911F910F91FF90EF900895CC
:1027B000CF93DF93C82F4BE06DEF0E94A41340E04E
:1027C0006AE08C2F0E94A4138FE39CE90197F1F734
:1027D00000C0000040E060E08C2F0E94A41340E0A5
:1027E00061E08C2F0E94A41340E066E08C2F0E94D1
:1027F000A41340E06DEF8C2F0E94A413D0E040E0C2
:102800006D2F8C2F0E94A413DF5FD231C1F740E0FF
:102810006D2F8C2F0E94A413DF5FD432C1F740E0EC
:102820006D2F8C2F0E94A413DF5FD43BC1F74BE0C8
:102830006DEF8C2F0E94A41341E06AE08C2F0E9460
:10284000A41340E06DEF8C2FDF91CF910C94A41373
:102850006F927F928F929F92AF92BF92CF92DF92B0
:10286000EF92FF920F931F93CF93DF930E94B52BAC
:1028700084E70E94D81387E70E94D81364E7E62E06
:1028800063E0F62ED12CC12C72E1772EE8E08E2E7B
:10289000912CAA24A394B12C66246394F701319659
:1028A000449150E0CA018497319604910452110B6F
:1028B0003196C491C452DD0BF601EE0FFF1FEE0FEF
:1028C000FF1FEC58FC4F2491237030E0FC0197FD72
:1028D000379643E0F595E7954A95E1F7729EA0019A
:1028E000739E500D112444535B4FE40FF52FF11DDF
:1028F000B4010E949F2CA50101C0440F8A95EAF7FC
:102900008081842B8083F80117FD379693E0F5953D
:10291000E7959A95E1F7729EC001739E900D112480
:1029200084539B4FE80FF92FF11DC801B4010E9499
:102930009F2CA50101C0440F8A95EAF78081842B62
:102940008083FE01D7FD379683E0F595E7958A955C
:10295000E1F7729EC001739E900D112484539B4F2A
:10296000E80FF92FF11DCE01B4010E949F2CA501A3
:1029700001C0440F8A95EAF78081842B808320511F
:102980003B4FF9016082FFEFCF1ADF0A84E0E80EC7
:10299000F11CE3E4CE16D10409F080CF60E084E7B7
:1029A0000E94B01361E087E7DF91CF911F910F91F3
:1029B000FF90EF90DF90CF90BF90AF909F908F905F
:1029C0007F906F900C94B013E9E3F5E081E280838F
:1029D0008091170190911801A09119018183928330
:1029E000A3838FE784838FEF858346E050E06CE11B
:1029F00070E0CF010C941F2D90E080E00E94192D13
:102A0000893E9E4F11F40C94411380E0089569EEC5
:102A10007EEF90E080E00E944D2D60E082E090E04B
:102A20000E942F2D60E083E090E00E942F2D1092F5
:102A30000C0360E084E090E00E942F2D60E082E2D1
:102A400090E00E942F2D60E085E090E00E942F2D05
:102A500060E086E090E00E942F2D6FEF87E090E02D
:102A60000E942F2D40E050E0BA0188E090E00E94E3
:102A7000412D60E08DE090E00E942F2D40E050E07D
:102A8000BA0188E190E00E94412D60E087E190E08A
:102A90000E942F2D40E050E0BA018CE190E00E94AE
:102AA000412D70E060E080E290E00E944D2D40E01A
:102AB00050E0BA0188E190E00E94412D80E00E9440
:102AC00066120E947E1240E050E0BA018FE090E072
:102AD0000E94412D40E050E0BA0183E190E00C9467
:102AE000412D1F920F920FB60F9211242F933F93F7
:102AF0004F935F936F937F938F939F93AF93BF9306
:102B0000EF93FF938091E10082FF09C08091E20082
:102B100082FF05C08091E1008B7F8093E10080916E
:102B2000DA0080FF24C08091D80080FF20C080910F
:102B3000DA008E7F8093DA008091D90080FF9BC0FD
:102B400080E189BD82E189BD09B400FEFDCF81E04D
:102B50008093270580910205811109C00E942D04F0
:102B60000E94F8048091E20084608093E2008091EA
:102B7000E10080FF17C08091E20080FF13C08091C8
:102B8000E2008E7F8093E2008091E200806180937A
:102B9000E2008091D80080628093D80019BC85E063
:102BA000809327058091E10084FF29C08091E20095
:102BB00084FF25C080E189BD82E189BD89B5982F58
:102BC000917080FFFBCF8091D8008F7D8093D800DB
:102BD0008091E1008F7E8093E1008091E2008F7E02
:102BE0008093E2008091E20081608093E200809116
:102BF0002805882309F445C084E080932705809147
:102C0000E10083FF27C08091E20083FF23C0809111
:102C1000E100877F8093E10082E080932705109296
:102C200028058091E1008E7F8093E1008091E20091
:102C30008E7F8093E2008091E20080618093E200C9
:102C400042E060E080E00E94C6048091F00088606D
:102C50008093F000FF91EF91BF91AF919F918F9181
:102C60007F916F915F914F913F912F910F900FBE88
:102C70000F901F90189519BC10922705109202050D
:102C800076CF8091E30087FD93E090932705B7CF3F
:102C900078941F921FB61F9211248F939F93AF9326
:102CA000BF938091F9049091FA04A091FB04B09134
:102CB000FC040196A11DB11D8093F9049093FA04C0
:102CC000A093FB04B093FC04BF91AF919F918F91AF
:102CD0001F901FBE1F9018959C014FB7F8948091CC
:102CE000F9049091FA04A091FB04B091FC044FBF49
:102CF000821B930B08952FB7F8948091F90490915B
:102D0000FA04A091FB04B091FC042FBF08950E9427
:102D10007B169C019091690380916A03982B21F0A6
:102D2000309366032093650390916B0380916C034D
:102D3000982B21F03093640320936303E091F40413
:102D4000F091F504309749F082E0809367030480A6
:102D5000F581E02D87E693E00994089590E080E006
:102D60000E942F0690E080E00E941906109209034D
:102D7000109208030E94921086E0E7E6F3E0DF017C
:102D80001D928A95E9F710926103109260031092E8
:102D900062030C94871680933F050C94AE168091C5
:102DA0003F05982F9670963019F488600C94CB16D6
:102DB000877FFCCF21E030E001C0220F8A95EAF73F
:102DC000209580913F0582230C94CB1690910703A8
:102DD0008095892380930703282F277039F4282FA3
:102DE000082E000C330B9217130621F49091FE0469
:102DF00092FF07C08595859585950E94DA161092F9
:102E00000703089521E030E001C0220F8A95EAF718
:102E100080913F05822B0C94CB1680930C030C946D
:102E2000AE1610920A0380911201E2E9F2E08823C3
:102E300059F08091FD0487FF07C08EE1DF011D92EC
:102E40008A95E9F70C94AE1686E0F8CF1F93CF93DE
:102E5000DF93CDB7DEB7AA970FB6F894DEBF0FBEEB
:102E6000CDBF89E295E02091F100DC012D93CD01E9
:102E7000B5E081339B07B9F780912A05833009F4C7
:102E800071C0B8F4813009F448C0823009F4B2C08E
:102E90008091E80083FF88C28091290590912A05DE
:102EA0009A3008F081C2E92FF0E0E854F14D0C941B
:102EB000D22C8A3009F48DC08B3009F470C089306F
:102EC00039F780912905813219F780912D0590916C
:102ED0002E05009711F00297D9F68091E800877FC0
:102EE0008093E8008091E80082FF37C09091F30062
:102EF0008091F200029729F48091F1008B7F81305C
:102F000021F48091F100809304058091E8008B7793
:102F10008093E8000E94A704BBCF80912905813AE5
:102F200009F0B6CF8091E800877F8093E800809118
:102F30002D0590912E05892B61F460E285E095E0E6
:102F400070E00E9459058091E8008B778093E8003B
:102F50009FCF60E090E080E0F3CF80912705811162
:102F6000C1CF96CF80912905813A09F091CF809108
:102F70002D0590912E05892B09F08ACF8091E800CC
:102F8000877F8093E8008091E80080FFFCCF8091EC
:102F900012018093F1008091E8008E77B9CF809183
:102FA0002905813209F074CF80912D0590912E056D
:102FB000892B09F06DCF8091E800877F8093E8002E
:102FC0000E94A70480912B05809312010E94111783
:102FD0005FCF80912905813209F05ACF8091E800B6
:102FE000877F8093E8000E94A70480912C0580933E
:102FF00003054ECF80912905813A09F049CF809190
:10300000E800877F8093E8008091E80080FFFCCF94
:1030100080910305BECF803899F0823809F0C4C191
:1030200080912D058F70873008F0BEC18093E90034
:103030008091EB0085FB882780F91092E90006C09B
:103040008091250590912605911182609091E8006C
:10305000977F9093E8008093F1001092F1008091A7
:10306000E8008E779DC1882309F48BC1823009F076
:103070009BC180912B0581118EC180912D058F7090
:103080002FEF280F263008F08FC18093E9002091A0
:10309000EB0020FF80C1933031F48091EB0080621F
:1030A0008093EB0078C19091EB0090619093EB00DE
:1030B00021E030E001C0220F8A95EAF72093EA0070
:1030C0001092EA008091EB008860EACF81116CC118
:1030D00010912B051F778091E3008078812B8093DE
:1030E000E3008091E800877F8093E8000E94A704B6
:1030F0008091E80080FFFCCF8091E300806880939E
:10310000E30082E0111183E0809327054DC18058D0
:10311000823008F049C120912B0530912C052C3DBF
:10312000E3E03E07A1F583E08A838AE289834FB713
:10313000F894DE01139620E03EE051E2E32FF0E048
:1031400050935700E49120FF03C0E295EF703F5F7A
:10315000EF708E2F90E0EA30C0F0C7968D939D936C
:103160002F5F243159F74FBF8091E800877F80930C
:10317000E8006AE270E0CE0101960E945905809154
:10318000E8008B778093E8000FC1C096E7CF80916D
:103190002D0590912E05432F55274330510509F4F5
:1031A0004AC078F54130510509F47AC08BE590E0CA
:1031B000E8EDF6E04230510509F0F6C02091E80054
:1031C000277F2093E80020912F053091300582174A
:1031D000930708F49C0140E02115310509F065C012
:1031E000411163C08091E80082FDC9CF809127051D
:1031F000882329F2853019F28091E80083FFF2CF0D
:10320000BECF4132510509F43CC04232510509F0AC
:10321000CBC08330910508F0C7C0FC01EE0FFF1F43
:10322000E659FE4F0190F081E02D89599E4FDC0157
:103230008C9190E01AC0332721303105D1F021154F
:10324000310561F02230310509F0AEC0E5E4F7E068
:10325000E4918E2F90E0E5E4F7E007C0E9E7F7E0BE
:10326000E4918E2F90E0E9E7F7E0009709F49CC025
:10327000A5CFE7E6F7E0E4918E2F90E0E7E6F7E0F0
:10328000F4CF8330910508F08FC0880F991FFC019F
:10329000E059FE4F0190F081E02D89E090E08ECF63
:1032A00082E190E0E3E3F7E089CF8091270588236E
:1032B00009F465CF853009F462CF8091E80083FD81
:1032C0005ECF8091E80082FD8DCF8091E80080FF85
:1032D00083CF9091F3008091F2002115310519F010
:1032E0008830910550F041E0089709F040E0809166
:1032F000E8008E778093E8006FCF44914093F1000F
:103300003196215031090196E8CF803809F04CC040
:103310008091E800877F8093E80080912805809362
:10332000F1009DCE811140C010912B051230E0F5C7
:103330008091E800877F8093E800109328050E9421
:10334000A704112311F084E005C08091E30087FDFC
:10335000FACF81E08093270542E061EC81E00E9492
:10336000C60442E261EC84E00E94C60442E261ECE1
:1033700082E00E94C60442E260EC83E00E94C60440
:1033800013C080912B05813079F481E0933009F0EE
:1033900080E0809326051092E9008091E800877F05
:1033A0008093E8000E94A7048091E80083FF0AC090
:1033B0008091E800877F8093E8008091EB00806235
:1033C0008093EB00AA960FB6F894DEBF0FBECDBF78
:1033D000DF91CF911F9108951F920F920FB60F9218
:1033E00011242F933F934F935F936F937F938F930A
:1033F0009F93AF93BF93CF93DF93EF93FF93D091BE
:10340000E900DF708091EC00C82FC17080FDC0E83A
:103410001092E9008091F000877F8093F00078940B
:103420000E9426171092E9008091F0008860809336
:10343000F000CD2BCF70C093E900FF91EF91DF91A9
:10344000CF91BF91AF919F918F917F916F915F913C
:103450004F913F912F910F900FBE0F901F90189595
:103460008823B1F19CEF980F913A38F4682F80E9E6
:1034700092E00E94BA050C94921090E2980F983056
:1034800088F4877021E030E0A90102C0440F551F85
:103490008A95E2F7CA01809590910A038923809367
:1034A0000A03E9CF9BE5980F933020F490E080E089
:1034B0000C942F0698E5980F973120F490E080E067
:1034C0000C941906803F20F00E94930D0C948716EF
:1034D0000895CF93C82F882309F46EC08CEF8C0F0A
:1034E000813AB8F580911201882311F18091FD0491
:1034F00087FF1EC0EC2FE695E695E695F0E0E057D5
:10350000FD4F828190E04C2F477021E030E002C0F7
:10351000220F331F4A95E2F782239323892B89F0E8
:103520006C2F80E992E00E94BA050E94921009C0B7
:10353000E2E9F2E08191C81799F382E0E839F807EF
:10354000C9F76C2F80E992E00E94E405CF910C94BA
:10355000921080E28C0F883068F4C77021E030E070
:1035600001C0220FCA95EAF780910A03822B80934B
:103570000A03ECCFEBE5EC0FE33040F4F0E0E65E5D
:10358000FE4F808190E0CF910C942F06E8E5EC0F80
:10359000E73150F4F0E0EE0FFF1FE35EFE4F808155
:1035A0009181CF910C941906C03F30F08C2F0E946E
:1035B0004E0ECF910C948716CF9108951F93CF9301
:1035C000DF93182FD0E0C0E0893311F4C0E5D0E0DC
:1035D000812F0E94691A209731F4812FDF91CF91BA
:1035E0001F910C94301A8FE99FE00197F1F700C00A
:1035F00000002197F0CF0F931F93CF93DF93C62F37
:10360000D42F022FFC0182818823A1F0609337051B
:103610000E947B169093360580933505C77081E034
:1036200001C0880FCA95EAF7DF91CF911F910F91E2
:103630000C94401180913705681335C08091350591
:10364000909136050E946C16883C910560F510E259
:103650001D0FCD17B9F080E28C0F883040F4C77091
:1036600081E001C0880FCA95EAF70E943511183031
:1036700048F481E09D2F977001C0880F9A95EAF772
:103680000E944011802F0E94DE1A183098F4D770E3
:1036900081E001C0880FDA95EAF7DF91CF911F91A1
:1036A0000F910C943511C77081E001C0880FCA9545
:1036B000EAF7F3CFDF91CF911F910F9108953F92D9
:1036C0004F925F926F927F928F929F92AF92BF9232
:1036D000CF92DF92EF92FF920F931F93CF93DF93DE
:1036E00000D000D00F92CDB7DEB78C01FC018381F2
:1036F0009481892B31F08081918189238F3F09F05A
:1037000053C50F900F900F900F900F90DF91CF91B6
:103710001F910F91FF90EF90DF90CF90BF90AF90EF
:103720009F908F907F906F905F904F903F90089503
:103730000E94DF12F82E682F89819A810E94091158
:1037400069817A818F2D0E94D2127C01F8018281D9
:10375000882309F4EFC4970122513F4520313105F8
:1037600008F015C58FEF93E00E94112DFEEEEF0ECD
:103770005FE7852E52E0952E882381F18091070323
:10378000877009F4BECFF8018281882309F4B9CF8C
:1037900082E00F900F900F900F900F90DF91CF91DC
:1037A0001F910F91FF90EF90DF90CF90BF90AF905F
:1037B0009F908F907F906F905F904F903F900C9470
:1037C000E616811424E09206C9F2C4010E94112D6C
:1037D000811101C0EA943FEF831A930AE110F1CFFF
:1037E0001C821B82442443944AE0342E74018FEFE0
:1037F000E81AF80AC4010E94112D89831A828823CD
:1038000009F4BCCF9FEF980F933000F58A8349826B
:1038100092E0890E911CC7010E94112D8B83882391
:1038200009F4ACCFFE0131967F01F70120812223FC
:10383000E9F2213009F049C091818281913041F44F
:10384000F2E0EF0EF11C0E94DE1A09C04701EACF38
:10385000923049F422E0E20EF11C0E94691A3FEF17
:10386000E31AF30AE2CF933031F432E0E30EF11CB5
:103870000E94301AF4CF943021F08FEFE81AF80A42
:10388000EECF92E0E90EF11C30E020E0B7016F5F6F
:103890007F4FF70141818053990B8A30910550F099
:1038A00021503109E0F28FE99FE00197F1F700C064
:1038B0000000F6CF329EF001339EF00D11249C01E2
:1038C0002E0F3F1F842F7B01E1CFE22FF0E0EC5061
:1038D000FE4F5490822F86958695869590E0FC0148
:1038E000EC51FE4F64902770712C022E02C075942B
:1038F00067940A94E2F7E1E06E227724FC01EC522F
:10390000FE4FA490B12C022E02C0B594A7940A9445
:10391000E2F7F1E0AF22BB24FC01EC53FE4FC49070
:10392000D12C02C0D594C7942A95E2F721E0C22297
:10393000DD246114710419F081EE0E94691AA1144A
:10394000B10419F086EE0E94691A852D0E94DE1AD4
:10395000AB2819F086EE0E94301A672819F081EE24
:103960000E94301ACD2809F47ACF8CE26CCF81E026
:103970000E9402170E94CF1601CF81E00E94DA1642
:10398000F9CF82E0FBCF95EFE9169CE5F90609F443
:1039900062C008F45CC027E245EE66EEF6EFEF1673
:1039A000FCE5FF0609F4EFC3882309F40EC4109266
:1039B000370522E0E2162CE5F20608F445C136E1AF
:1039C000E3163CE5F30630F0C7018A5F9C45099792
:1039D00008F03AC10E945A139093FE048093FD04AC
:1039E00080E1E8168CE5F80609F4FDC008F07CC01B
:1039F000E8E0EE16ECE5FE0609F4E7C008F048C082
:103A000024E0E2162CE5F20609F4D7C058F582E06E
:103A1000E8168CE5F80609F4CAC08091FD048260BE
:103A200093E0E9169CE5F90609F4C4C08091FD0411
:103A30009091FE040E948D120E9411179FCE27E2E2
:103A400045EE65EEA0C326E241EE60EE9CC327E2A0
:103A500045EE64EE98C326E241EE62EE94C328E29E
:103A600041E0EFCF8091FD048061E6E0EE16ECE5E9
:103A7000FE0609F49FC08091FD048860F7E0EF1610
:103A8000FCE5FF0608F496C08091FD04806292C0B8
:103A90008091FD048D7F2CE0E2162CE5F20609F4FE
:103AA00089C060F48AE0E8168CE5F80609F497C04E
:103AB00008F48FC08091FD048E7F7CC08091FD044E
:103AC000877FEEE0EE16ECE5FE0609F473C0809108
:103AD000FD048B7FFFE0EF16FCE5FF0608F46AC0EB
:103AE0008091FD048F7E66C02BEFE2162CE5F20676
:103AF00009F467C068F583E1E8168CE5F80609F477
:103B00007AC090F4E1E1EE16ECE5FE0609F46FC030
:103B1000F2E1EF16FCE5FF0609F088CF0E941117CD
:103B20008091FD048F7746C025E1E2162CE5F20670
:103B300009F469C008F47DC08AEFE8168CE5F80640
:103B400009F074CF8091FE0481608093FE046ECFF3
:103B50009FEFE9169CE5F90609F451C0A0F48091A5
:103B6000FE048D7FFDEFEF16FCE5FF0671F38091FB
:103B7000FE048E7F2EEFE2162CE5F20630F38091E4
:103B8000FE048360E2CF31E0E3163DE5F30609F47D
:103B900059C008F444C060E092E0E9169DE5F906DA
:103BA00009F044CF8EE090E00E942F2D3FCF80910E
:103BB000FD0481608093FD0439CF8091FD04846011
:103BC000F9CF8091FE048260C0CF8091FD048064B3
:103BD000F1CF0E9411178091FD048068EBCF809196
:103BE000FD048C60E7CF8091FD048F7DE3CF809151
:103BF000FD048F7BDFCF8091FD04837FDBCF80913D
:103C0000FE048C7FA2CF8091FD0482FB992790F95E
:103C100021E0922790FB82F990FB83F9CBCF809132
:103C2000FE04982F909591708E7F892B90FB81F9DF
:103C30008CCF0E9411179091FD04892F97FB87F973
:103C40008058B8CF61E0AECF80910A03E6E1EE166E
:103C5000ECE5FE0609F0C8C28A7A91E009F490E02A
:103C60009093B00269E2811165E380E992E00E94DD
:103C7000E4050E94921082CD8091390591E0892758
:103C800080933905109216019093380577CD4CEF4B
:103C900056E065E077E00E94510670CD45E057E0C0
:103CA0006CEF76E0F8CF4AEE56E063EF76E0F3CFC4
:103CB00043EF56E06AEE76E0EECF42ED56E06EED71
:103CC00076E0E9CF4EED56E062ED76E0E4CF46ECEB
:103CD00056E06AEB76E0DFCF42EA56E06EEA76E045
:103CE000DACF4EEA56E062EA76E0D5CF81E00E9474
:103CF000080444CD89E0FBCF9BE5E9169DE5F90674
:103D000011F1ECE5EE16EDE5FE0609F09FC280919B
:103D1000FE0482FB882780F991E089270E949A128D
:103D200095C20E941117FFEF24E33CE0F1502040C0
:103D30003040E1F700C000000E94DD110E9407152D
:103D40001DCD81E0EBCF80E0E9CFC7010E94E110FB
:103D5000D82E8BC22F2D2F70C22E8F2D807F19F061
:103D6000C29490EFC922DD20C9F0CC2069F080E236
:103D70008E0D883010F081100BC080910A03C82A84
:103D8000C0920A030E9492108E2D0E94691A19C0D7
:103D900080910903C82AC0920903F4CF8E2D0E9496
:103DA000301ACC2071F0C09480E28E0D883010F073
:103DB00081103DC080910A03C822C0920A030E946C
:103DC0009210292D2850330B2430310510F40E9415
:103DD0004506AA2009F495CC8091070380FD91CC7B
:103DE000F80112828595859585950E940217C80174
:103DF0000E945F1B809107038595859585950F909F
:103E00000F900F900F900F90DF91CF911F910F9116
:103E1000FF90EF90DF90CF90BF90AF909F908F90EA
:103E20007F906F905F904F903F900C94DA16809146
:103E30000903C822C0920903C2CF3F2D3F70B32EA1
:103E40008F2D807F803219F0B29480EFB8228820C5
:103E500071F081E0881681F1DD20D9F1CC2091F15B
:103E6000F801858180FF90CF8F7085832BC0DD2086
:103E7000B1F090910B038B2D892BC11003C00E94D0
:103E800040119FCFE1E0CE12FACF2091FE0422FD37
:103E900098CF891709F495CF80930B0392CFC11067
:103EA00006C00E948C108B2D0E9435118ACFF1E044
:103EB000CF1609F486CFF5CFDD2031F025E02C15A3
:103EC00008F47FCF8B2DDBCF34E03C1508F479CF9D
:103ED000EACFCC2041F3F9E38F1209C02FEF37EE80
:103EE00083E0215030408040E1F700C000008E2D7B
:103EF0000E94301A66CF8F2D86958695837061F06B
:103F0000813009F05ECFC7019370D11002C090E0FC
:103F100080E00E94190655CFC7019370D11002C0EE
:103F200090E080E00E942F064CCF8E2DDD2029F0FE
:103F30000E944E0E0E94871644CF0E94930DFACF26
:103F40008F2D837091F5D1103CCF4E2D4295469523
:103F50004770440F440F8E2D8F70042E01C0880FC0
:103F60000A94EAF72E2D2071E4FE07C02FE030E01E
:103F700001C0220F4A95EAF720953F2D36953695D8
:103F80003370323069F050F440910C03313029F035
:103F9000822B84230E940D1714CF842B822BFACFFF
:103FA000282B80910C038227F5CF8695DD2011F018
:103FB0008F2D8170882309F404CF4E2D42954695AC
:103FC0004770440F440F8E2D8F70042E01C0880F50
:103FD0000A94EAF72E2D2071E4FE07C02FE030E0AE
:103FE00001C0220F4A95EAF720953F2D3695369568
:103FF0003370323069F050F440913F05313029F090
:10400000822B84230E94CB16DCCE842B822BFACF0A
:10401000282B80913F058227F5CF9F2D9F70F92E89
:10402000DD2029F0892F0E9402178E2D28CF8E2D9A
:104030000E9435118F2D0E94DA16C3CE8E2DE2EF2D
:104040008E1609F44BC0E81570F0F0EF8F1639F1B9
:1040500021EF8216D9F1DD2009F45CC0C11094CEA5
:104060008F2D8F7138C033EF8316E9F194EF8912E9
:10407000F2CFDD2009F443C02F2D2F71F22E822FB5
:104080000E9402178091FE0482FD07C038E0F39E73
:10409000C00111248360809307038F2D1CC0DD2095
:1040A00081F0E4E0EC1508F48CCE2F2D2F7181E027
:1040B00090E001C0880F2A95EAF790913F05892783
:1040C000A1CFF5E0FC1508F47CCEEFCF8F2D8F71DA
:1040D000DD2009F4B0CF0E94021773CE8F2D8F71AF
:1040E000DD20C9F3A8CF80E0DD2009F48BCF9F2D20
:1040F0009F7181E001C0880F9A95EAF783CF81E034
:104100000E94E61681E08C1508F05BCE82E00E94EA
:10411000E61657CECC2059F0893309F0E8CE9FEF50
:10412000E7EEF3E09150E040F040E1F7DECE8F2D76
:104130008F7181CFF0E1EF16FFE5FF0609F41DCC8A
:1041400021E1E2162FE5F20609F41BCC93EFE91604
:104150009CE5F90609F477CC08F015CCF8EDEF16DC
:10416000FCE5FF0609F46BCC29EDE2162CE5F2061E
:1041700009F475CC37EDE3163CE5F30609F014CCF1
:1041800026E241EE61EEC8010E94FB1AF7CA30E157
:10419000E3163FE5F30609F4EACB91E1E9169FE562
:1041A000F906A1F682E0E4CB85E0DE0111960190EC
:1041B0000D928A95E1F7F801228189819A81211176
:1041C000B7CA0E94E110F82EBBCAF6E1EF16FCE573
:1041D000FF06E1F58091B00269E2811165E380E9B3
:1041E00092E00E94BA0545CD82722AECE2162CE5D7
:1041F000F20609F46CCD08F086C095ECE9169CE552
:10420000F90609F450CD08F065C0F3ECEF16FCE5B3
:10421000FF0609F43CCD08F041CD32ECE3163CE555
:10422000F30609F429CDFAE5EF16FDE5FF0609F4DA
:1042300088CD08F061CDE1143CE5F30609F471CDB9
:104240008EEDE8168CE5F80609F478CDF801828148
:10425000E080F180882309F478CDC7010E94DF1245
:10426000D82E682FC7010E940911B7018D2D0E9419
:10427000D2120E94040F7C01882EF801D280C580E2
:10428000C2943FE0C322809107038770A1F0AD2C58
:10429000DD2091F08F2D807F803421F080E28E0D23
:1042A000883048F082E00E94E6168091070387700C
:1042B000AA24A3948111A12C9F2C92942FE09222E6
:1042C000FBE0F91508F47DCDE92DF0E0EE53F14D5A
:1042D0000C94D22C97ECE9169CE5F90609F4EDCC88
:1042E00008F4E6CCF8ECEF16FCE5FF0609F4EACC9E
:1042F0004AEB56E066EC76E029ECE2162CE5F20695
:1043000009F4C9CC90CF3FECE3163CE5F30609F481
:10431000F1CCB0F4ECECEE16ECE5FE0609F4E1CCE1
:1043200008F4DACC2DECE2162CE5F20609F4DECC2A
:1043300084E03EECE3163CE5F30609F4D8CC73CFF9
:1043400086EDE8168CE5F80640F48EE091EDE9166E
:104350009CE5F90608F4CBCC11CAEDE5EE16FE0695
:1043600009F40CCA60CF1F93CF93DF938091D402DE
:10437000807FA9F48091D102882389F0809106037F
:10438000D091D5026091CF027091D002A091D2025B
:10439000B091D302C62FC72316E0D81304C0DF9113
:1043A000CF911F91089590E0109711F0CF3F19F42D
:1043B00001968770F2CF189F9001199F300D11243C
:1043C000F901EA52FD4F41814713F2CF4081461374
:1043D000EFCF42814111ECCF438154814A1B5B0BEB
:1043E000483C510528F78091D4028F7080618093FA
:1043F000D402F901E552FD4F80818F708061808386
:104400008FEC92E00E945F1BDF91CF911F910C9483
:10441000D710AF92BF92CF92DF92EF92FF920F939D
:104420001F93CF93DF93CDB7DEB761970FB6F894A4
:10443000DEBF0FBECDBF8C0185E0F801DE011D9609
:1044400001900D928A95E1F7F801E2808FECA82E99
:1044500082E0B82E6091D2027091D302611571058D
:1044600009F432C19091CF024091D002892F842368
:104470008F3F09F429C120813181C380D480F0901D
:10448000D102F601E61BF70BFF2009F4E8C080918A
:10449000D402582F507FE83CF10508F0ABC0511111
:1044A00077C0FE2C431321C092131FC0E1101DC022
:1044B0008F7080618093D402C5010E945F1B809140
:1044C000D402F80185838F2D61960FB6F894DEBF74
:1044D0000FBECDBFDF91CF911F910F91FF90EF9055
:1044E000DF90CF90BF90AF900895CD2829F0822F14
:1044F00083238F3F09F003C180E0F82FF170DF2E96
:1045000080FF3CC0809106034091D50256E08413A1
:1045100015C02D873E878D859E850E940E13292FFD
:1045200022952F702230F0F0243018F59F70F1F0B2
:10453000F8019581907FD1F4D12C1EC090E0589F56
:10454000F001599FF00D1124EA52FD4F618136139D
:1045500006C06081261303C06281E6120FC0019677
:104560008770D5CF9F7011F0882331F3805E88303B
:1045700018F3C8010E945F1BFD2CA5CFEE2009F4A3
:10458000A2CF8091D40281608093D402F12C9BCF82
:10459000431306C0921304C0F801EE2009F479C059
:1045A000C8010E941A13882309F1EE20F9F08091C6
:1045B000D402803270F02091CF023091D00238873F
:1045C0002F831986DB86CA868C87CE0107960E94C8
:1045D0005F1B86E0F801AFECB2E001900D928A9586
:1045E000E1F70E94B321FF24F3946DCFC8010E942C
:1045F0005F1BF9CF51110AC08FEC92E00E945F1B44
:1046000086E0F50111928A95E9F7C0CF43130FC0F8
:1046100092130DC0E1100BC0F8018583C8010E9400
:104620005F1B86E0F50111928A95E9F74CCFC8012E
:104630000E941A138823D1F2EE20C1F28091D40295
:10464000803238F22091CF023091D0023A83298310
:104650001B82DD82CC828E83CE010196B8CFE83CEE
:10466000F105F8F6FE2CEE2009F243131FC0921359
:104670001DC08091D40280FD10C0982F907F69F0FA
:10468000F8018583903F31F0982F907F905F8F7075
:10469000892B8583C8010E945F1B86E0F801AFEC7F
:1046A000B2E001900D928A95E1F70DCFC8010E940A
:1046B0001A1381118ECF8091D40281608093D4022D
:1046C000C8010E945F1BFFCEEE2009F48FCFC80106
:1046D0000E941A13F82E882309F488CF86E0F80187
:1046E000AFECB2E001900D928A95E1F78091CF0294
:1046F0009091D0020E940E130E94B321E4CE81E07B
:104700008E25FBCE1F93CF93DF93CDB7DEB7679790
:104710000FB6F894DEBF0FBECDBF4B8B5C8B6D8B9D
:104720007E8B8F8B6111109209031A8A198A85E09A
:10473000FE017396DE011D9601900D928A95E1F7B8
:1047400086E0FE013D96DE01179601900D928A9556
:10475000E1F7CE0107960E940922811112C086E07E
:10476000FE013796DE01119601900D928A95E1F7D0
:104770008A859B85892B29F088859F8189238F3F96
:10478000B1F516E0809106039091D50289131DC002
:1047900067960FB6F894DEBF0FBECDBFDF91CF9105
:1047A0001F91089596E0929FD001939FB00D112420
:1047B000AA52BD4FFE01319601900D929A95E1F7F4
:1047C0008093D5020E94D710DCCF819FC0011124B5
:1047D0008A529D4F0E9409228823D1F280910603BC
:1047E00090E001968770992780930603CBCF2091A4
:1047F000D50230E0C90101968770992740910603E0
:104800004817190679F60E9411171092D5021092D6
:10481000060386E0EFECF2E0DF011D928A95E9F7EE
:10482000B0CF2F923F924F925F926F927F928F9272
:104830009F92AF92BF92CF92DF92EF92FF920F932F
:104840001F93CF93DF93CDB7DEB72A970FB6F894B7
:10485000DEBF0FBECDBFAE014F5F5F4F6A018AE082
:10486000DA011D928A95E9F70BE411E07A01AA2496
:10487000A394B12CF80181918F018F3F09F44BC0B3
:10488000F894E82FE295EF70F0E021A18F70A50178
:1048900002C0440F551F8A95E2F7CA01922F982B48
:1048A00091A392A18095892382A3789400C0E0E52A
:1048B000F1E030E020E0912C812C81918F3F09F4D0
:1048C000ACC0A82FA295AF70B0E090964C9150E08C
:1048D0008F7002C0559547958A95E2F740FD9DC0BF
:1048E000C501022E02C0880F991F0A94E2F7882A98
:1048F000992A2F5F3F4F2F303105F9F6F801319794
:1049000080818F3F11F00E94AA0E50EA5A95F1F76C
:10491000D7018D929C92B2E0EB0EF11CE1E00035E4
:104920001E0709F0A7CF4AE050E0B60182E193E00C
:104930000E947B2E8C01FF24F394892B09F4F12C27
:104940000115110541F08AE0F601A2E1B3E0019002
:104950000D928A95E1F750900F03552009F46AC033
:104960000E947B1620910D0330910E03AC01421B77
:10497000530B9A0190930E0380930D034F3F510503
:1049800011F008F04DC0452B09F444C0E22E1092FE
:104990000F032091100330911103E6E5F3E062E18B
:1049A00073E039015BE4650E711C412C882483940B
:1049B000912C190150E040E0D101DD901D01DD2076
:1049C000D1F0CD010197ED1470F1DC011C92C08093
:1049D000D180DB018D919C918C259D255401042E65
:1049E00002C0AA0CBB1C0A94E2F78A219B218C25E9
:1049F0009D25918380834F5F5F4F4F305105E1F6D6
:104A0000215F3F4F32966E5F7F4F6216730689F6C5
:104A100040920F03012BB1F44DC090E080E067CFCE
:104A20002FEF30E0B3CFDE18DC01DC92452CE3CF72
:104A3000108233C0012BF1F10E947B1690930E037C
:104A400080930D03209110033091110360910F03A7
:104A5000A2E1B3E086E5C82E83E0D82EAA24A39471
:104A6000B12C73E04D915D91F601819191916F01AF
:104A700048275927F90190E080E08501082E02C0FF
:104A8000000F111F0A94E2F704231523012B81F272
:104A90001081111102C0708361E0319601968F3050
:104AA000910559F7215F3F4FF3E0AC31BF07D1F6D5
:104AB00060930F038F2D2A960FB6F894DEBF0FBEBA
:104AC000CDBFDF91CF911F910F91FF90EF90DF90BD
:104AD000CF90BF90AF909F908F907F906F905F909E
:104AE0004F903F902F9008951F921FB61F92112450
:104AF0008F939F93AF93BF938091F804811113C05C
:104B00008091F9049091FA04A091FB04B091FC0407
:104B10004196A11DB11D8093F9049093FA04A093CE
:104B2000FB04B093FC04BF91AF919F918F911F90B4
:104B30001FBE1F901895CDB7DEB7E4970FB6F89457
:104B4000DEBF0FBECDBF84B7877F84BF0FB6F8949A
:104B5000A895809160008861809360001092600049
:104B60000FBE80E890E00FB6F894809361009093B8
:104B700061000FBE85B7806885BF85B7806885BF37
:104B800088EA9EE090938B0280938A020E942D0413
:104B90000E94F8048091E20084608093E20078949F
:104BA000809127058823A1F01091E9001F70909152
:104BB000EC00892F817090FD80E8182B1092E9009D
:104BC0008091E80083FD0E9426171F701093E90072
:104BD00082E084BD93E095BD9AEF97BD80936E000F
:104BE0000E944113811102C00E947E120BE411E069
:104BF000D8018D918D018F3F11F00E94AA0EB1E076
:104C000000351B07A9F700E511E0F80181918F013C
:104C10008F3F11F00E94AA0EF1E00F351F07A9F790
:104C2000109213031092120310925703109256031E
:104C30001092150310921403109259031092580306
:104C4000109217031092160310925B0310925A03EE
:104C5000109219031092180310925D0310925C03D6
:104C600010921B0310921A0310925F0310925E03BE
:104C70008BE490E00E94532DAC019093110380933C
:104C8000100330E020E0FA01E20FF31F90E01192F0
:104C90009F5F9F30E1F7215F3F4F2B34310599F73C
:104CA0000E94FC14811102C00E94071582E090E06E
:104CB0000E94112D80934B030E945A139093FE047F
:104CC0008093FD040E9411248FEB9DE50197F1F77D
:104CD00000C000000E9411248091560380FF08C08C
:104CE0006FEF7FEF90E080E00E944D2D0E94DD117C
:104CF00083E090E00E94112D0E940D170E9428145D
:104D000010926D038FEF9FEF90938703809386033C
:104D1000909389038093880390938B0380938A03F5
:104D200090938D0380938C0390938F0380938E03D5
:104D300090939103809390039093930380939203B5
:104D4000909395038093940310921C0390933603E1
:104D500080933503909338038093370390933A03FD
:104D60008093390390933C0380933B0390933E03DD
:104D700080933D039093400380933F0390934203BD
:104D80008093410390934403809343030E94FC1457
:104D9000811104C00E9407150E94E41446E050E00F
:104DA0006CE170E089E395E00E94012D8091390566
:104DB0008C7F11F40E94E4148091FD04806880933C
:104DC000FD048091FD049091FE040E948D1286E006
:104DD00091E09093F5048093F40480912705853049
:104DE00079F483E0E82E00E112E180912705853017
:104DF00009F43FC20E9411170E9445061092490310
:104E00000E941124882359F08FB7F8944091F90437
:104E10005091FA046091FB047091FC048FBF46E549
:104E200053E05FA74EA78CE493E09DA78CA716E7FD
:104E3000212E11E0312E1BA6712C08E0502EAEA5BC
:104E4000BFA58D909D90BFA7AEA7ECA5FDA58191B4
:104E50009191FDA7ECA78815990509F497C07101F8
:104E6000612CCC24C394D12C9C01282539253CAB42
:104E70002BAB3297FAABE9AB8BA99CA98C219D2176
:104E8000892B09F47AC069A27AA284010C211D2120
:104E900081E00115110509F480E08BA30E947B16C7
:104EA0008160782F9DA38CA349A15AA16BA18DA1EC
:104EB0000E948223A9A9BAA98D919C9111978C2552
:104EC0009D258D939C93012B29F0F70180818F3FC5
:104ED00009F01FC2412C042D10E080911C03800FAB
:104EE000912F911D09976CF1E8E0AE2EB12CA01A1C
:104EF000B10AB801635E7C4FA5018DE193E00E9489
:104F0000882EB8016B5D7C4FA50185E293E00E947D
:104F1000882EA501440F551FB801660F771F6B5CE3
:104F20007C4F85E393E00E94882EB801635D7C4F3F
:104F3000A5018DE293E00E94882E852D841980932F
:104F40001C0380911C0390E0F8A9AF2FB0E09D01F5
:104F5000220F331F2F533E4FAA0FBB1FBD016E53AD
:104F60007E4F41E0480F941508F4D7C180931C038D
:104F7000EBA5EF5FEBA7EC3018F56394CC0CDD1CD0
:104F8000FFEFEF1AFF0A2FE0621276CF73943FE033
:104F9000230E311C45E0741252CF5BA5511110C095
:104FA0008FEF8EA38FA318A60E947B168160782FA7
:104FB0009AA789A74EA15FA168A58AA50E9482230E
:104FC0008091450390914603A0914703B091480317
:104FD0004FB7F8940091F9041091FA042091FB0462
:104FE0003091FC044FBF28013901481A590A6A0A56
:104FF0007B0A4FB7F8948090F9049090FA04A0903F
:10500000FB04B090FC044FBF80924503909246038E
:10501000A0924703B092480360911C03ECE1F3E0D7
:10502000462F50E00197AF4FBF4F801B910BA20B53
:10503000B30B651388C140931C038091490310E0B2
:10504000811108C080913905182F137019F0182F9D
:105050001695169580911601813009F49EC188231A
:1050600009F484C1823009F4AAC1833009F4B2C1C1
:1050700086E0E7E6F3E0DE01119601900D928A9555
:10508000E1F7E0906903D0906A0310916B030091FF
:105090006C031092690310926A0310926B031092D2
:1050A0006C038E2D8D2909F448C080916503909181
:1050B00066030E946C169C0190916103992309F488
:1050C0004FC323333105C8F19F3F19F09F5F909381
:1050D0006103EE2059F00E942E0E9FEF1E140CF477
:1050E00091E0899F802D112480936903DD2059F080
:1050F0000E942E0E9FEF1D140CF491E0899F802DCD
:10510000112480936A03309169033323B1F0209115
:105110006A03222391F045EB3403C0011124992343
:1051200009F485C19093690345EB24039001112490
:10513000332309F480C130936A03812F802B09F453
:1051400048C080916303909164030E946C169C0197
:1051500090916003992309F4FEC225363105C8F108
:105160009F3F19F09F5F90936003112359F00E94B5
:105170000C0E9FEF11160CF491E0899F802D1124E5
:1051800080936B03002359F00E940C0E9FEF1016C2
:105190000CF491E0899F802D112480936C03309151
:1051A0006B033323B1F020916C03222391F045EB84
:1051B0003403C0011124992309F441C190936B0376
:1051C00045EB240390011124332309F43CC13093AF
:1051D0006C038091690390916A03892B90916B0312
:1051E000892B90916C03892B11F00E94871686E021
:1051F000FE013196A7E6B3E001900D928A95E1F7A2
:105200000E94450690914A03891721F00E944506A5
:1052100080934A0380912705843009F0DECD83E036
:105220008093E9008091E80082FFD7CD8091E8006B
:1052300090E085FF0CC00E944C0430E2C32ED12CBC
:105240008E010F5F1F4F882309F40BC191E08091FD
:10525000E8008B778093E800992309F4BECDE981BB
:10526000E150E33108F08CC1F0E0E253F14D0C94D1
:10527000D22C80912705843009F438C080914903ED
:1052800081110DC00E946D0B1092110180913905A2
:105290008370809310010E948D13E092160191E0BB
:1052A000909349031092F804A8E1B0E0E0E40FB64F
:1052B000F894A895A09360000FBEE093600083B7B8
:1052C000817F846083BF83B7816083BF7894889532
:1052D00083B78E7F83BF0FB6F894A8958091600046
:1052E000886180936000109260000FBE8091260557
:1052F000882309F47ACD0E941124E6E5F3E0819138
:105300009191892B09F008C223E0E036F207B9F742
:105310006CCD88AB44244394DECD90E0FC01E45E88
:10532000FC4FD9015C915183DB015C915187B8A995
:10533000B18B880F991FFC01E45EFC4F128E118E19
:1053400091E0842F0ECE218D328D6901F12CE12C5C
:105350008C159D05AE05BF0520F441505F5F329668
:1053600068CE240D351D328F218FF8CF1092130196
:105370008092310590923205A0923305B0923405A7
:1053800089E2ECE1F3E0ADE6B3E001900D928A959D
:10539000E1F781E0809316016BCE812F0E946D0BA7
:1053A000112309F465CE0E94450681FF61CE2FEFDF
:1053B0004FEF6FEF8EE190E00E94190859CE1093E5
:1053C0001101809139058370809310010E948D1323
:1053D00083E0E0CF80913805882341F046E050E03B
:1053E0006CE170E089E395E00E941F2D1092380572
:1053F000409131055091320560913305709134052B
:105400002FB7F8948091F9049091FA04A091FB04CD
:10541000B091FC042FBF841B950BA60BB70B4A97CA
:10542000A105B10508F424CE1092160121CE51E059
:105430005093690379CE51E050936A037ECE51E0D8
:1054400050936B03BDCE51E050936C03C2CE80915C
:10545000F100D8018D938D01B1E0CB1AD10809F488
:10546000F5CE8091E80085FDF2CF8091E8008B7742
:105470008093E8000E944C04882399F3E7CE1A82B7
:1054800089E08B831AC08A81823009F45BC1833042
:10549000D9F1813009F074C02FB7F8946091F90404
:1054A0007091FA048091FB049091FC042FBF0E943C
:1054B000D82C6B837C838D839E83809127058430D9
:1054C00009F08BCC1091E9001F709091EC00892FAE
:1054D000817090FD80E8182B82E08093E900809134
:1054E000E80080FF0DC050E040E060E270E0CE01D7
:1054F00001960E947D048091E8008E778093E800F9
:105500001F701093E90069CC809156039091570366
:105510009827892798279C838B83809158039091A3
:1055200059039827892798279E838D8380915A0352
:1055300090915B0398278927982798878F8380917C
:105540005C0390915D039827892798279A8789871C
:1055500080915E0390915F039827892798279C8705
:105560008B87ABCF8A81823059F46B817C818D81AE
:105570009E810E94D82C86E290E00E942F2D9DCF24
:105580008FEF89839ACF4C816B818A810E94AC1204
:105590009827892798279E838D838FCF0D811E8121
:1055A0001027012710278A81CB80EEE1CE9E600173
:1055B0001124F6E98F9FC00CD11C11248C8190E03E
:1055C000880F991FC80ED91E612FC60187960E94A9
:1055D0002F2D602FC6018896D0CF0E9411126DCF5B
:1055E00080E18A836ACF21E02A8381E84ACF0A8159
:1055F0001B81102701271027AE014F5F5F4F5A0113
:10560000CC80CA018C0D911D6C01C80181589D4F41
:10561000CA14DB0409F451CF0138A1E01A0750F491
:105620000E94112DF50184830F5F1F4FBFEFAB1A4E
:10563000BB0AEBCFD50114961C92F6CF0A811B81D1
:10564000102701271027FE0131965F01CC80C00E84
:10565000D12ED11CC80181589D4F0C151D0509F490
:105660002CCF0138F1E01F0728F4D50114966C9176
:105670000E942F2DBFEFAB1ABB0A0F5F1F4FEACF5F
:105680000E9401121ACF84E0ACCF0A811B8110273F
:1056900001271027FE0131965F01CC809F012C0D60
:1056A000311D6901C8018796CA14DB0409F405CFCE
:1056B000083532E0130758F40E94112DD5011496D5
:1056C0008C930F5F1F4FFFEFAF1ABF0AEBCFF501AF
:1056D0001482F7CF0A811B811027012710279E0112
:1056E0002F5F3F4F5901CC80C00ED12ED11CC80175
:1056F0008796C016D10609F4E0CE083532E01307CC
:1057000028F4D50114966C910E942F2DBFEFAB1A8F
:10571000BB0A0F5F1F4FEBCF09BD19BD09B400FED7
:10572000FDCF8091D8008F7D8093D8008091E000DC
:1057300082608093E0008091E00081FDFCCF0E94B8
:10574000111753CB86E290E00E94112D1B821C8220
:105750001D828E83B2CE2D32314008F003CD39CD7B
:105760002D32314008F0B2CCE8CC1092B9008CE078
:105770008093B80008959F92AF92BF92CF92DF922C
:10578000EF92FF920F931F93CF93DF93B82EEB010D
:105790000E947B166C01EE24E394F12CC431D105F8
:1057A00060F025E0E22EF12CCF3FDC0731F0CE0196
:1057B00064E170E00E948B2C7B0184EAA82E94E8BF
:1057C000992E1092BC00A092BC000E947B168C0106
:1057D0008091BC0087FF0DC08091B900887F883020
:1057E00039F18091B900887F803111F10FEF1FEFFF
:1057F00009C00E947B16801B910B8E159F0540F3FC
:105800000EEF1FEFCF3FDC07E1F2C6010E946C16DE
:105810008C179D07B0F2C801DF91CF911F910F91B6
:10582000FF90EF90DF90CF90BF90AF909F90089542
:10583000B092BB009092BC000E947B168C018091BC
:10584000BC0087FF0AC08091B900887F883111F0C1
:10585000803461F610E000E0DECF0E947B16801BF2
:10586000910B8E159F0558F3CBCF0F931F93CF93BA
:10587000DF93EB018093BB0084E88093BC000E941F
:105880007B168C018091BC0087FF11C02091B9006C
:10589000287F81E090E0283211F490E080E091953B
:1058A00081959109DF91CF911F910F910895CF3F7D
:1058B000DC0741F30E947B16801B910B8C179D0720
:1058C00008F38EEF9FEFEECFCF92DF92EF92FF9231
:1058D0000F931F93CF93DF936B018A017901B90175
:1058E0000E94BB2BE6010C0D1D1DC017D10761F4F2
:1058F00024E92093BC00DF91CF911F910F91FF907D
:10590000EF90DF90CF90089597FDF2CFB701899186
:105910000E94352CEACFAA1BBB1B51E107C0AA1F6E
:10592000BB1FA617B70710F0A61BB70B881F991F40
:105930005A95A9F780959095BC01CD01089597FBE4
:10594000072E16F4009407D077FD09D00E948B2C07
:1059500007FC05D03EF4909581959F4F0895709572
:1059600061957F4F0895052E97FB1EF400940E94C9
:10597000CA2C57FD07D00E94DF2C07FC03D04EF441
:105980000C94CA2C50954095309521953F4F4F4F20
:105990005F4F089590958095709561957F4F8F4FDB
:1059A0009F4F0895EE0FFF1F0590F491E02D09948D
:1059B0006927962769277827872778270895A1E2FE
:1059C0001A2EAA1BBB1BFD010DC0AA1FBB1FEE1F79
:1059D000FF1FA217B307E407F50720F0A21BB30BC4
:1059E000E40BF50B661F771F881F991F1A9469F740
:1059F00060957095809590959B01AC01BD01CF019C
:105A00000895DC01CB01FC01F999FECF06C0F2BD7F
:105A1000E1BDF89A319600B40D9241505040B8F76C
:105A20000895F999FECF92BD81BDF89A992780B566
:105A30000895A8E1B0E042E050E00C94032DDC01B1
:105A4000A40FB51F4150504048F0CB01840F951F63
:105A50002E910E94302D41505040D0F70895262FAE
:105A6000F999FECF92BD81BDF89A019700B4021654
:105A700039F01FBA20BD0FB6F894FA9AF99A0FBE02
:105A800008950396272F0E94302D0E942F2D252F39
:105A90000E94302D242F0C94302D0196272F0E9428
:105AA000302D0C942F2D0F931F93CF93DF939C01D8
:105AB000029710F422E030E0E0918C02F0918D0228
:105AC00090E080E0B0E0A0E0309791F4009709F416
:105AD00045C0821B930B84309105B8F58A819B8168
