:100000000C9400040C9447040C9447040C9447048B
:100010000C9447040C9447040C9447040C94470434
:100020000C9447040C9447040C9474210C943021D4
:100030000C946F220C9447040C9447040C944704CE
:100040000C9447040C9447040C9447040C94470404
:100050000C9447040C944B220C9447040C944704D2
:100060000C9447040C9447040C9447040C944704E4
:100070000C9447040C9447040C9447040C944704D4
:100080000C9447040C9447040C9447040C944704C4
:100090000C9447040C9447040C9447040C944704B4
:1000A0000C9447040C9447040C944704050109027E
:1000B000A10185020901A1000509190129081500FE
:1000C0002501950875018102050109300931158165
:1000D000257F95027508810609381581257F9501D0
:1000E00075088106050C0A38021581257F95017572
:1000F000088106C0C005010980A101850319012AF4
:10010000B700150126B700950175108100C0050CD8
:100110000901A101850419012AA002150126A002E6
:10012000950175108100C005010906A1018505052D
:100130000719E029E71500250195087501810205D9
:1001400007190029EF1500250195F07501810205B9
:10015000081901290595057501910295017503910D
:1001600001C00660FF0961A1010962150026FF00B8
:100170009520750881020963150026FF00952075FA
:10018000089102C005010906A101050719E029E748
:1001900015002501950875018102950175088101F9
:1001A0000507190029FF150026FF0095067508812F
:1001B000000508190129059505750191029501753C
:1001C000039101C0000000000000000000000000DA
:1001D000000000000000000000000000000000001F
:1001E00000000000000000007E0F00D4FFFFFFC7EA
:1001F0000000007800000000000000002A2B28000A
:1002000000000000000000000000000000000029C5
:10021000000000002C1E3420212224342627252E05
:10022000362D3738271E1F2021222324252633333D
:10023000362E37381F0405060708090A0B0C0D0E69
:100240000F101112131415161718191A1B1C1D2F35
:100250003130232D350405060708090A0B0C0D0E55
:100260000F101112131415161718191A1B1C1D2F15
:100270003130354C1E0F0500047F3F1F643214647B
:100280003214783C1E1E140A05000101010101010F
:10029000010101020202020202020202030303033D
:1002A000030303030404040404040405050505050D
:1002B00006060606060707070707080808080909CB
:1002C00009090A0A0A0B0B0B0C0C0C0D0D0D0E0E76
:1002D0000E0F0F0F10101111111212131314141509
:1002E0001516161717181819191A1A1B1B1C1D1D7D
:1002F0001E1E1F20202122222324242526262728D3
:1003000029292A2B2C2D2D2E2F3031323233343502
:10031000363738393A3B3C3D3E3F40414243444505
:10032000464748494A4C4D4E4F50515354555658E4
:10033000595A5B5D5E5F616264656668696B6C6D8E
:100340006F7072737577787A7B7D7E808283858704
:10035000888A8C8E8F91939596989A9C9EA0A2A342
:10036000A5A7A9ABADAFB1B3B5B7BABCBEC0C2C447
:10037000C6C9CBCDCFD1D4D6D8DBDDDFE2E4E7E907
:10038000EBEEF0F3F5F8FAFDFFFFAA7F55402223CC
:10039000252628292A2C2D2F3032333536383A3B62
:1003A0003D3E4042434547494A4C4E5051535557B4
:1003B000595A5C5E6062646668696B6D6F717375D3
:1003C00077797B7D7F81838587898A8C8E909294D3
:1003D00096989A9C9E9FA1A3A5A7A8AAACAEAFB1E0
:1003E000B3B4B6B8B9BBBCBEBFC1C2C3C5C6C7C92A
:1003F000CACBCCCDCED0D1D2D2D3D4D5D6D7D7D8E4
:10040000D9D9DADADBDBDBDCDCDCDCDCDDDDDDDD35
:10041000DCDCDCDCDCDBDBDBDADAD9D9D8D7D7D63D
:10042000D5D4D3D2D2D1D0CECDCCCBCAC9C7C6C5F4
:10043000C3C2C1BFBEBCBBB9B8B6B4B3B1AFAEAC3A
:10044000AAA8A7A5A3A19F9E9C9A98969492908EE5
:100450008C8A89878583817F7D7B79777573716FBE
:100460006D6B6968666462605E5C5A59575553519A
:10047000504E4C4A4947454342403E3D3B3A383650
:10048000353332302F2D2C2A2928262523222900E6
:100490003A003B003C003D003E003F004000410070
:1004A000420043004400450046004A0035001E005B
:1004B0001F00200021002200230024002500260028
:1004C00027002D002E002A004D002B0014001A00DA
:1004D0000800150017001C0018000C001200130083
:1004E0002F00300031004B003900040016000700D7
:1004F00009000A000B000D000E000F00330034004D
:10050000490028004E00E1001D001B0006001900F4
:10051000050011001000360037003800E50000002B
:1005200052004C00E000E300E200000000002C005C
:1005300000000000E600E700E40050000000510069
:100540004F00010001000100010001000100010055
:100550000100010001000100010001000100010093
:100560000100010001000100010001000100010083
:1005700001000100010001000100005C0100010018
:10058000C25CC35CC55CC65CC75CC85CC95CCA5C59
:100590000100010001000100010001000100010053
:1005A0000100010001000100010001000100010043
:1005B0000100010001000100010001000100010033
:1005C0000100BD5CBF5CBE5CC05C010001000100BD
:1005D0000100000001000100010001000100000015
:1005E0000000010000000000010001000100010006
:1005F00000000100010001000100010001000100F4
:1006000001000100010001000100010001000100E2
:1006100001000100010001000100010001000100D2
:100620000100010001000100010001000100005C67
:1006300001000100C25CC35CC55CC65CC75CC85CF1
:10064000C95CCA5C01000100010001000100010059
:100650000100010001000100010001000100010092
:100660000100010001000100010001000100010082
:10067000010001000100BD5CBF5CBE5CC05C01000C
:100680000100010001000000010001000100010063
:100690000100000000000100000000000100010056
:1006A0000100010000000100010001000100010043
:1006B0000100010001000100010001000100010032
:1006C0000100010001000100010001000100010022
:1006D0000100010001000100010001000100010012
:1006E0000100005C01000100C25CC35CC55CC65C2B
:1006F000C75CC85CC95CCA5C010001000100010064
:1007000001000100010001000100010001000100E1
:1007100001000100010001000100010001000100D1
:1007200001000100010001000100BD5CBF5CBE5C76
:10073000C05C010001000100010000000100010097
:1007400001000100010000000000010000000000A5
:100750000100010001000100000001000100090288
:100760005B00030100A0FA0904000001030101007D
:100770000921110100012240000705810308000141
:1007800009040100020300000009211101000122F7
:100790002200070582032000010705030320000152
:1007A00009040200010300000009211101000122D7
:1007B000B6000705840320000112010002000000BA
:1007C00008424B62600300010200011C034B00421F
:1007D000004400370035005F0048004F00540053CC
:1007E00000570041005000000010034B004200443D
:1007F00000460041004E00530000000403090400BD
:1008000011241FBECFEFDAE0DEBFCDBF04B603FE7A
:1008100027C080914B0390914C03A0914D03B09160
:100820004E038730904BA740B04BD1F410924B034E
:1008300010924C0310924D0310924E0314BE84B7D5
:10084000877F84BF0FB6F894A89580916000886177
:1008500080936000109260000FBEE0E0F8E309951D
:1008600023E0A4EAB1E001C01D92AB34B207E1F786
:1008700011E0A0E0B1E0ECE8F6E502C005900D92D1
:10088000A43AB107D9F70E9496220C940D2B0C9430
:100890000000E8EDF0E080818E7F80831092E2001E
:1008A0001092DA001092E100A0EEB0E08C9181602D
:1008B0008C9380818F77808319BCA7EDB0E08C91F9
:1008C0008E7F8C9380818F7E808310921803089591
:1008D0002091E4003091E50095E6A9012091EC001B
:1008E000822F817020FF06C08091E80080FF06C043
:1008F00080E008952091E80022FD1AC080913D0318
:10090000882389F0853089F08091EB0085FD0FC048
:100910002091E4003091E50042175307F9F291501D
:10092000E1F684E0089582E0089583E0089581E08F
:100930000895EF92FF920F931F93CF937C018B0149
:100940000E946804C82F811117C08091E80085FDBE
:100950000BC08091E8008E778093E8000E946804C5
:10096000882399F3C82F08C0F70181917F018093F4
:10097000F1000150110949F78C2FCF911F910F9170
:10098000FF90EF90089580913F0387FF13C08091FF
:10099000E80082FF06C08091E8008B778093E80032
:1009A00004C080913D038111F2CF089580913D03F1
:1009B0008823D9F38091E80080FFF8CF8091E80088
:1009C0008E77ECCF982F9093E900242F762F50E06C
:1009D000891731F07091EC002091ED005091F000FA
:1009E00021FD07C09F5F973071F78093E90081E098
:1009F00008953091EB003E7F3093EB003091ED0095
:100A00003D7F3093ED003091EB0031603093EB008F
:100A10007093EC002093ED005093F0002091EE00D5
:100A200027FDE0CF80E00895CF92DF92EF92FF9212
:100A30000F931F93CF93DF93C8EDD0E088818F7E13
:100A40008883E7EDF0E080818160808384E082BF6D
:100A500081E08093180388818E7F888302EE10E006
:100A6000F80110821092DA0081EEC82ED12CF60126
:100A7000108288818F7788838881806888838881C5
:100A80008F7D888319BC10923D0310923E03109213
:100A90003C0310923B0390EEE92EF12CF70180818C
:100AA0008B7F808388818160888342E060E080E082
:100AB0000E94E204F60180818E7F8083F8018081AC
:100AC00081608083808188608083F70180818E7F50
:100AD0008083888180618883DF91CF911F910F91FE
:100AE000FF90EF90DF90CF900895FC018091450337
:100AF0009091460386179707A0F06115710529F4B8
:100B00009091E8009E779093E80090E06115710560
:100B100051F4911108C08091E80082FF34C080E058
:100B20000895BC01F2CF80913D038823C1F1853047
:100B3000C1F18091E80083FD30C08091E80082FD22
:100B4000EACF8091E80080FFE1CF8091F30020910F
:100B5000F200382F6115710519F02830310558F071
:100B600091E02830310509F090E02091E8002E77DF
:100B70002093E800CBCF81918093F10061507109FF
:100B80002F5F3F4FE7CF80913D03882341F08530B1
:100B900041F08091E80083FFBECF81E0089582E0BC
:100BA000089583E0089580911A0308959C014FB73A
:100BB000F89480910F0390911003A0911103B091CC
:100BC00012034FBF821B930B08952FB7F8948091A7
:100BD0000F0390911003A0911103B09112032FBF46
:100BE0000895209122012223C9F02091130327FFA9
:100BF00015C0E62FE695E695E695EE31D8F4E80FB8
:100C0000F92FF11D677021E030E001C0220F6A95D5
:100C1000EAF720958281282322830895FC013296E9
:100C200008962191621303C0DF0111971C92E81707
:100C3000F907B9F70895209122012223C1F02091EC
:100C4000130327FF14C0E62FE695E695E695EE31EF
:100C5000F8F4E80FF92FF11D677021E030E001C0D2
:100C6000220F6A95EAF78281822B82830895FC0124
:100C700032962FEF30E04191641751F02F3F19F475
:100C8000411101C0232F3F5F3630A9F72F3F09F4F0
:100C90000895820F911D27FD9A95FC0162830895A6
:100CA00020910C0330910D032817390771F09093B0
:100CB0000D0380930C03E0910A03F0910B0330972E
:100CC00021F00084F185E02D099408952091080316
:100CD000309109032817390771F090930903809325
:100CE0000803E0910A03F0910B03309721F006808E
:100CF000F781E02D09940895E0910A03F0910B0328
:100D0000309721F00190F081E02D099480E0089562
:100D1000FA01811101C0FB01099408958091030338
:100D2000982F9E7F29F48170826080930303089539
:100D30008635E8F381708465F8CFAF92BF92DF9279
:100D4000EF92FF920F931F93CF93DF93082F162FED
:100D5000E901E42FF0E0E757FD4F611110C0E49185
:100D60005E2F4E2F4983E8835A83DF91CF911F91E5
:100D70000F91FF90EF90DF90BF90AF900895E62E17
:100D8000F12C4491D42EE42FF0E026E0829FC001A4
:100D900011242FEF30E0B9010E946428802F90E0E9
:100DA000880F991F55E5569FD001579FB00D11240C
:100DB0008A1B9B0B982F990F890F5901AE18BF08FA
:100DC000AE9ED001AF9EB00DBE9EB00D11245B2F24
:100DD000189F80011124012F11275901A01AB10A6F
:100DE000AE9E8001AF9E100DBE9E100D11245901C4
:100DF000A81AB108AE9CC001AF9C900DBE9C900D8E
:100E00001124892F9927281B390B2E9FC0012F9F52
:100E1000900D3E9F900D1124E92F62307105A1F0D5
:100E200050F46115710509F49DCF6130710581F0B1
:100E3000EB2F512F97CF6430710569F080F0663049
:100E4000710509F48FCFF4CFE42F4B2F592F8ACFA0
:100E5000E42F412F87CFEB2F542F492F83CF4B2FD8
:100E60005D2DE12F7FCF0E94E5059C0190916402EA
:100E700080916502982B21F03093610220936002EB
:100E80009091660280916702982B21F030935F0267
:100E900020935E02E0910A03F0910B03309749F032
:100EA00082E0809362020480F581E02D82E692E088
:100EB0000994089540916402803F59F4809165023D
:100EC00087FF0DC01092650241110BC010925C02A9
:100ED00008C0813F81F48091650218169CF3442379
:100EE00081F08091660290916702892B09F05AC0C7
:100EF00010925B020895823F49F447FFF0CF1092B1
:100F00006402809165028111ECCFE0CF833F19F438
:100F10001416ACF3E4CF90916602893F29F41916B8
:100F2000F4F610926602DBCF8A3F19F497FFD7CF11
:100F3000F8CF909167028B3F29F497FFD0CF1092A2
:100F40006702CDCF8C3F19F41916CCF3C8CF9CE0C3
:100F5000980F953090F4845F990B21E030E0B9014F
:100F600002C0660F771F8A95E2F7CB0180959091BA
:100F70006302892380936302B2CF8D3F31F4809165
:100F80005D028E7F80935D02AACF8E3F21F4809117
:100F90005D028D7FF7CF8F3F09F0A1CF80915D0279
:100FA0008B7FF0CF089580915D0280FD16C081FD9A
:100FB00016C082FD16C080915B028823A1F08832A2
:100FC00080F428E0829FC001112468E270E00E9452
:100FD0007828862F672B39F0089582E0089584E001
:100FE000089588E0089581E0089580915D0280FD74
:100FF00014C081FD14C082FD16C080915C0288235C
:1010000081F0843180F422E3829FC001112464E1E5
:1010100070E00E947828862F08958CE0089589E179
:10102000089585E0089582E30895803F31F40E9499
:10103000F5078195809365020895813F19F40E9418
:10104000F507F8CF823F31F40E94F5078195809330
:1010500064020895833F19F40E94F507F8CF893F91
:1010600029F40E94D3078093660208958A3F21F4F1
:101070000E94D3078195F7CF8B3F31F40E94D307AD
:1010800081958093670208958C3F19F40E94D307DD
:10109000F8CF9CE0980F953070F4845F990B21E0B5
:1010A00030E001C0220F8A95EAF780916302822B1B
:1010B0008093630208958D3F31F480915D028160D9
:1010C00080935D0208958E3F21F480915D028260DD
:1010D000F7CF8F3FB9F780915D028460F1CF80E058
:1010E0000895F894E82FE295EF70F0E031A1282FF1
:1010F0002F7081E090E001C0880F2A95EAF7982FC1
:101100009095932391A392A1892B82A3789408951B
:101110009091130392FF06C0282F28712830F9F40C
:10112000877F846093FF06C0282F28712831F1F44F
:10113000877E84612091140320FF06C0382F387108
:101140003830D9F4877F816021FF06C0282F2871AD
:101150002831D1F4877E816194FD877E0895282F00
:1011600024712430F9F68B7F8860DCCF282F24711E
:10117000243101F78B7E8861DDCF382F317131301A
:1011800019F78E7F8860E0CF282F2171213121F758
:101190008E7E8861E1CFCF93DF93EC018238910599
:1011A000A9F1D8F58133910509F496C048F5893243
:1011B000910509F48AC08A9709F495C0C11521E503
:1011C000D20708F0BCC0C11530E5D30708F014C140
:1011D000C83ED10508F09CC0C03ED10560F5C83AB4
:1011E000D10508F087C0C53AD10508F0FDC0C1306F
:1011F000D10509F12097F9F0C430D105E0F440C0E1
:101200008533910509F45AC0C997C1F6809113033B
:10121000837089F0C0EED0E00EC0833E910599F155
:1012200070F4803E910501F1823E910539F680917E
:10123000130382FD21C0CE01DF91CF910895863E38
:10124000910561F1873E910571F1843E910509F0A8
:10125000B5CF8091140381FFEECF80911303C7EEC9
:10126000D0E084FD0DC0E7CF8091130380FD12C153
:101270009091140390FFDFCFC3EED0E084FFDBCF6B
:10128000D0E0C0E0D8CF8091130382FD06C19091D9
:10129000140390FDBFCF84FFCECFF2CF8091130314
:1012A00083FDDDCFC8CF8091130383FDF9C09091FA
:1012B000140391FFF0CFC4EED0E0BDCF80911303B3
:1012C00085FFB9CFC9E2D0E0B6CF8091130385FF87
:1012D000B2CFC5E3D0E0AFCF8091130386FFABCF91
:1012E000CAE2D0E0A8CF8091130386FFA4CFC1E368
:1012F000D0E0A1CFCF3BD10518F6C85AD0E0CC0F33
:10130000DD1FCA5DDE4F0990D881C02DD46493CF14
:10131000C11540E2D40758F4C11581E0D80708F0A0
:101320008ACFC03FD10508F4ABCFD06584CFC115BB
:1013300090E4D90708F4A4CFDF70D06A7CCFC11540
:1013400025E5D20700F5C11534E5D30708F08AC0BA
:10135000C11543E5D40708F071C0C11582E5D8076F
:1013600008F467C0CE018370992721E030E002C005
:10137000220F331F8A95E2F7C695C69580E2C89F73
:10138000E001112452C0C11599E5D907A8F4C1158F
:1013900028E5D20708F06BC0C11536E5D30708F081
:1013A0006FCF8C2F0E948808C82FD0E0DC2FCC276D
:1013B000CC27DF71D0623FCFC1154AE5D40708F4CE
:1013C0005BC0CE0190568115904208F059CF8D2F09
:1013D0008F710E94880890E0982F882788279F7136
:1013E0009C012C2BE901E6CFC55AD0E0CD5DDE4F44
:1013F000C881D0E0D0641FCFCE01E4E096958795F8
:10140000EA95E1F783702C2F26952695237040E20C
:10141000249F90011124382B8C2F8370C1E0D0E0E1
:1014200002C0CC0FDD1F8A95E2F7C22BD32BDC68FC
:1014300002CFDC2FCC27C16FD06AFDCECE018370E6
:10144000992721E030E002C0220F331F8A95E2F78E
:10145000C695C69590E2C99FE0011124C22BD32BFB
:10146000DA68E9CEDC2FCC27C46FD06AE4CEDC2F5B
:10147000CC27C06FD06ADFCE8C2F8F700E94880877
:1014800034E0D695C7953A95E1F7CF709C2FEC01E3
:10149000D069D1CEC9E3D0E0CECEC2EED0E0CBCE83
:1014A000C6EED0E0C8CE80912B02811110922B02A3
:1014B000089580912A0290912902892B9091280207
:1014C000892B8093AA0190912B029923A1F0892B5B
:1014D0008093AA0180912201882341F18091130316
:1014E00087FF24C08EE1ECEAF1E090E0815000F546
:1014F00091110E94530AE0910A03F0910B03309777
:10150000E1F080912201882359F08091130387FF35
:1015100007C08091AA018093AB0185E08093AA0166
:101520000280F381E02D8AEA91E0099486E0DBCF26
:1015300021912223D9F29F5FD9CF0895809126026D
:101540009091F501981301C008958F5F8770FACFCD
:101550002FE0929F800D1124982F97708695869585
:10156000869523E0829FF0011124E553FE4F50E061
:1015700040E080E0219130E0092E02C036952795A9
:101580000A94E2F721703327042E01C0220F0A9437
:10159000EAF7822B4F5F5F4F4330510559F70895AB
:1015A0002FE0929F800D1124982F977041E001C089
:1015B000440F9A95EAF786958695869593E0899FDC
:1015C000F0011124E553FE4F90E080E070E051916E
:1015D000DF0111979B01082E02C0369527950A94CA
:1015E000E2F7217021952527242325272C930196A6
:1015F0008330910561F7089590E080E00E946606CF
:1016000090E080E00E945006109229021092280279
:101610000E94590A86E0E2E6F2E0DF011D928A9517
:10162000E9F710925C0210925B0210925D020C943A
:10163000330780934A030C94FC0A80914A03982F45
:101640009670963019F488600C94190B877FFCCF44
:1016500021E030E001C0220F8A95EAF720958091C1
:101660004A0382230C94190B9091270280958923B9
:1016700080932702282F277039F4282F082E000C7A
:10168000330B9217130621F49091140392FF07C0B5
:101690008595859585950E94280B109227020895BF
:1016A00021E030E001C0220F8A95EAF780914A03D9
:1016B000822B0C94190B80932C020C94FC0A882327
:1016C00041F0809590912A02892380932A020C94FC
:1016D000590A0895882339F090912A02982B909303
:1016E0002A020C94590A08958823B1F19CEF980FAF
:1016F000913A38F4682F8AEA91E00E94F1050C943F
:10170000590A90E2980F983088F4877021E030E011
:10171000A90102C0440F551F8A95E2F7CA018095BE
:1017200090912A02892380932A02E9CF9BE5980FA2
:10173000933020F490E080E00C94660698E5980FD2
:10174000973120F490E080E00C945006803F20F028
:101750000E945A070C9433070895CF93C82F88230B
:1017600009F46EC08CEF8C0F813AB8F5809122019C
:10177000882311F18091130387FF1EC0EC2FE6959B
:10178000E695E695F0E0E655FE4F828190E04C2F1D
:10179000477021E030E002C0220F331F4A95E2F784
:1017A00082239323892B89F06C2F8AEA91E00E948F
:1017B000F1050E94590A09C0ECEAF1E08191C817CD
:1017C00099F381E0E23BF807C9F76C2F8AEA91E0D0
:1017D0000E941B06CF910C94590A80E28C0F88302E
:1017E00068F4C77021E030E001C0220FCA95EAF723
:1017F00080912A02822B80932A02ECCFEBE5EC0F3A
:10180000E33040F4F0E0ED5DFE4F808190E0CF9159
:101810000C946606E8E5EC0FE73150F4F0E0EE0FCB
:10182000FF1FEA5DFE4F80819181CF910C9450069D
:10183000C03F30F08C2F0E941508CF910C943307D5
:10184000CF91089581FF02C0469A08954698089561
:1018500090913D03943029F58093150370931703FD
:10186000609316039093E9008FEF9091E800815008
:1018700095FD06C095ED9A95F1F700008111F5CF21
:101880008091E80085FF0DC050E040E063E070E02B
:1018900085E193E00E9499048091E8008E7780931F
:1018A000E8000895BC0184E00C94280CBC0183E09E
:1018B0000C94280C9C0184E08093E9009FEF8091B8
:1018C000E800915085FD06C085ED8A95F1F700008E
:1018D0009111F5CF8091E80085FF0CC050E040E009
:1018E00066E070E0C9010E9499048091E8008E775B
:1018F0008093E8000895CF93DF93EC01809122015B
:101900008823B1F18091130387FF32C060E284E045
:101910008093E9008FEF9091E800815095FD06C01B
:1019200095ED9A95F1F700008111F5CF8091E800CF
:1019300085FF1BC08091220170E050E040E08111E2
:1019400004C050E040E068E070E0CE010E949904DD
:101950008091E8008E778093E80080E2FE01ABE1A1
:10196000B3E001900D928A95E1F7DF91CF91089550
:1019700068E081E0CDCF81E08093E00080E2809359
:10198000D8001092C9008FE19EE40197F1F700C0E2
:10199000000087E090EBDC0180934B0390934C03B5
:1019A000A0934D03B0934E0388E19CE00FB6F894EA
:1019B000A895809360000FBE90936000FFCF809148
:1019C000030380FD0AC0E3E7F2E011821082128275
:1019D000339652E0E93AF507C1F7809A31B33E7F7A
:1019E00021B321604FB7F89483E792E0FC01519155
:1019F000CF0168E021BB000000C057FF31BB550F8D
:101A0000000000C000C000C031BB00C06A9591F763
:101A1000F2E0893A9F0751F74FBF8FE594E00197B5
:101A2000F1F700C000000895EF92FF920F931F930B
:101A3000CF93DF938C01C3E7D2E0F12CE12CF801C6
:101A400094816091050380910403F9E0EF16F1049D
:101A5000FCF49923F9F09E01409106030E949D0633
:101A60002FEFE21AF20A239682E1E816F10439F721
:101A70000E94DF0CF801848190E001968170992723
:101A80008483DF91CF911F910F91FF90EF90089584
:101A9000992309F39E0140E0E1CF8F929F92AF928C
:101AA000BF92CF92DF92EF92FF920F931F93CF934B
:101AB000DF93EC014C81042F10E09801D8010E94C3
:101AC000FE2A9B01AC010E94C92A4B015C01E0E2A5
:101AD000F0E0E01BF10BA5E5B0E0AC019B010E943A
:101AE000C92A6B017C019F01DF010E9499289B019B
:101AF000AC010E94D42A9B01AC01280D391D4A1D5E
:101B00005B1DC701B6010E94DC2AF22E822F90E0F5
:101B100039E23F15D8F143E0249F90011124359517
:101B20002795122F109593E7C92E92E0D92E00E049
:101B300085E5E82EEF188E2D01FD8F2D9601412FA2
:101B4000609105030E949D060F5F53E0C50ED11CF6
:101B5000023189F70E94DF0C9C8181E0992319F002
:101B6000903219F48FEF8093210180912101890F28
:101B70008C83DF91CF911F910F91FF90EF90DF90B9
:101B8000CF90BF90AF909F908F90089525E530E063
:101B9000A901481B590BCA019A01220F331F280FB4
:101BA000391F37FFBCCF2F5F3F4FB9CF0F931F9324
:101BB000CF93DF93C3E7D2E0FE011182108212823D
:101BC000339682E0E93AF807C1F710E000E080912F
:101BD0007102082E000C990B081719078CF18091DF
:101BE0002001082E000C990B801791074CF19E01E3
:101BF0004091060360910503809104030E949D06B5
:101C00000F5F1F4F23960231110509F70E94DF0C69
:101C100080911F0190917102980F90937102209111
:101C20002001280F20932001121614F491311CF08A
:101C3000819580931F01DF91CF911F910F9108959E
:101C4000198218821A82DCCFBF92CF92DF92EF9274
:101C5000FF920F931F93CF93DF93FC018281DD24CA
:101C6000DA9480FD02C0DD24D39403E712E0D0E0D3
:101C7000C0E022E1B22EF80111821082128294E0BB
:101C8000E92EF12CC12C809170028C0D83310CF463
:101C90003DC06B2D0E945628892F082E000C990BF1
:101CA0008C179D0791F4809106038E9DA0018F9D56
:101CB000500D11245595479555954795980160917C
:101CC0000503809104030E949D06CD0CF1E0EF1AFC
:101CD000F108C9F621960D5F1F4FC231D10559F6A3
:101CE0000E94DF0C8091700291E0D91215C0811121
:101CF00011C081E180937002DF91CF911F910F910C
:101D0000FF90EF90DF90CF90BF90089587FFC5CFF1
:101D10008E5EC3CF8150EECF90E00196BE010E944F
:101D20007828E8CFEF92FF921F93CF93DF93EC01D7
:101D300083E7E82E82E0F82E10E08C819701409135
:101D4000060360910503810F0E949D06125F83E0E8
:101D5000E80EF11C1C3F89F70E94DF0C9A818C81F0
:101D600090FF08C08F5F8C83DF91CF911F91FF9010
:101D7000EF9008958150F7CF9091030390FF0CC02E
:101D8000E3E7F2E0818360834283339692E0E93AAD
:101D9000F907C1F70C94DF0C08950F931F93CF93AD
:101DA000DF9300D00F92CDB7DEB78C018091720225
:101DB00081110AC09E012F5F3F4F4FEF6FEF0E94CE
:101DC0009D068A8180937202F8016481613069F016
:101DD0008091720240E0662361F040E0623011F4CD
:101DE0004091720280E060E004C06091720240E0C5
:101DF00080E00E94BC0EF801848190E0019663E0CF
:101E000070E00E94782884830F900F900F90DF91EC
:101E1000CF911F910F910895CF93DF9300D00F9230
:101E2000CDB7DEB79091030390FF0AC09E012F5FEC
:101E30003F4F0E949D064B8169818A810E94BC0EA2
:101E40000F900F900F90DF91CF910895CF93DF9374
:101E5000EC01E3E0F3E0438162818C810E940C0F8E
:101E60008C818F5F8C83DF91CF910895CF93DF9327
:101E7000EC01EC81F0E0E257FC4F4491E3E0F3E049
:101E8000628181810E940C0F8C818F5F8C83DF9136
:101E9000CF9108951F93CF93DF93182FD0E0C0E028
:101EA000893311F4C0E5D0E0812F0E94AD0B20975B
:101EB00031F4812FDF91CF911F910C94740B8FE936
:101EC0009FE00197F1F700C000002197F0CF0F933A
:101ED0001F93CF93DF93C62FD42F022FFC01828153
:101EE0008823A1F0609349030E94E505909348037D
:101EF00080934703C77081E001C0880FCA95EAF755
:101F0000DF91CF911F910F910C946A0B809149033F
:101F1000681335C080914703909148030E94D6050D
:101F2000883C910560F510E21D0FCD17B9F080E2F5
:101F30008C0F883040F4C77081E001C0880FCA95CB
:101F4000EAF70E945F0B183048F481E09D2F9770EC
:101F500001C0880F9A95EAF70E946A0B802F0E94B1
:101F60004A0F183098F4D77081E001C0880FDA95D5
:101F7000EAF7DF91CF911F910F910C945F0BC7701F
:101F800081E001C0880FCA95EAF7F3CFDF91CF91C6
:101F90001F910F910895CF93DF93C8EFD2E060E0D7
:101FA000CE010E94762A2196C11584E0D807B9F7A0
:101FB000DF91CF9108956F927F928F929F92AF920F
:101FC000BF92CF92DF92EF92FF920F931F93CF9326
:101FD000DF938EE8C82E84E0D82E9AEFE92EF12CFC
:101FE000E701C45BD10936011BC0F50185909490CF
:101FF000692DC8010E94762A682DC80101960E94A9
:10200000762A82E0A80EB11C0E5F1F4FC017D107C1
:1020100061F78EE1680E711C6E96CE15DF0529F012
:102020008E010E5111095301E0CF7E0184EBE80EC1
:10203000F11C84EBC80ED11C8AECE81683E0F8068C
:1020400079F6DF91CF911F910F91FF90EF90DF9084
:10205000CF90BF90AF909F908F907F906F9008959A
:10206000CF93C82F6FEF811161E283E290E00E946D
:10207000762A6FEFC11169E084E290E00E94762A2F
:102080006FEFC11166E185E290E0CF910C94762A62
:1020900080E00E94301060E087E290E00E94762AA3
:1020A00060E086E290E00E94762A0E94DB0F0E94A8
:1020B000CB0F81E00C943010CF93C92F682F84E0B0
:1020C00090E00E94762A6C2F82E290E0CF910C94EF
:1020D000762A9091140392FB222720F9281751F0B9
:1020E00080FB92F990931403809113039091140351
:1020F0000C945C1008950F931F93CF93DF93C42F1C
:10210000D0E0CC0FDD1F2EE1629FC00DD11D112448
:1021100034EB839FC00DD11D1124CE0188960E94FF
:10212000622A082F10E0102F0027CE0189960E9406
:10213000622A9801282BC901DF91CF911F910F913D
:102140000895462F843038F4763028F46F3018F430
:10215000672F0C947B1090E080E00895CF92DF927F
:10216000FF920F931F93CF93DF936C0100914A036B
:1021700080912C02082BC7E0D0E010E0FC2EC801B3
:102180000C2E02C0959587950A94E2F780FD0CC04D
:102190002197A0F7F12C8F2DDF91CF911F910F91F7
:1021A000FF90DF90CF900895B6018C2F0E94A11070
:1021B0000E94CB08019761F3EECFCF93DF93EC0140
:1021C0000E94AE10BE010E94A110DF91CF910C942D
:1021D000CB08FC01808191810E94DD10292F2F7096
:1021E00092959F7092509E3078F4E92FF0E0E15F75
:1021F000F44D0C948C28803F19F020F4883E20F494
:1022000081E00895843FE1F380E00895883EC0F3C3
:10221000813FD1F7F5CF822F8695869586950895D3
:1022200083E290E00E94622A813289F484E290E0A5
:102230000E94622A893059F485E290E00E94622A65
:1022400091E0863109F090E0892F8170089580E057
:10225000FCCFCF9384E090E00E94622AC82F82E2F4
:1022600090E00E94622A982F8C2FCF9108954F9270
:102270005F926F927F928F929F92AF92BF92CF9216
:10228000DF92EF92FF920F931F93CF93DF93FC01A6
:102290006280448081E08483EEE8F3E07490EDE0B6
:1022A000F4E0E491C9EAD2E033E7E32E32E0F32E22
:1022B00043E0C42E43E0D42E52E0A52EBB24B394B9
:1022C00088248A94912C55245A94E7190E2F10E0F3
:1022D00082E0861530F080910403888380910503A5
:1022E0008983411021C01B821A8297014A8169812A
:1022F00088810E949D06259683E0E80EF11CCC168D
:10230000DD0631F7DF91CF911F910F91FF90EF9094
:10231000DF90CF90BF90AF909F908F907F906F9005
:102320005F904F900C94DF0C8B818823E9F08150F3
:102330008B83859DC00111246C8170E00E9464280C
:10234000FB01FF27E257FC4F8491E82FE719E59D39
:10235000C0011124B8010E94642880910603689F7F
:10236000B00111247A83C1CF0E9410292091060365
:10237000269521582A9DA0012B9D500D1124452FF3
:102380005527841795070CF0B0CF82E0861588F4A6
:102390000E941029B4010E94782888830E94102985
:1023A000209105032695622F70E00E947828280F5F
:1023B00029831A8280910603893C20F088EC8C8363
:1023C0008B8393CF8431D8F784E1F9CF60910303F5
:1023D000669570E04BE050E084E191E00E94482A6D
:1023E000892B19F481E080936F020E94E505909398
:1023F0006902809368020895CF92DF92EF92FF9274
:102400006B017C010E948E06B701A60188E090E076
:10241000FF90EF90DF90CF900C94882A5F926F929C
:102420007F928F929F92AF92BF92CF92DF92EF9264
:10243000FF920F931F93CF93DF9300D00F92CDB7EE
:10244000DEB7182F762E042F622E9091030390FF93
:1024500029C0E92FE695AE2FB0E0A759BE4F8C9169
:1024600080936E029E7F923081F59E012F5F3F4FD9
:10247000812F0E949D064B8169818A810E94BC0E3A
:10248000109304037092050300930603662051F035
:1024900060910303709104038091050390910603FA
:1024A0000E94FC110F900F900F90DF91CF911F9120
:1024B0000F91FF90EF90DF90CF90BF90AF909F90E3
:1024C0008F907F906F905F900895823019F4009103
:1024D0000603D6CF863019F410910403D1CF89308A
:1024E000D9F3893169F6E9518E2F8170582EE6951E
:1024F000F0E0E757FC4FA590B490BB2483E7E82EAB
:1025000082E0F82ED12CC12C92E1892E912CC601AB
:10251000B4010E946428812F511013C0860F9701C7
:10252000402F672D0E949D06CA0CDB1C83E0E80E3D
:10253000F11C89EAE81682E0F80649F70E94DF0CF0
:102540009FCF861BECCFE3E0F3E043812AE0421B00
:1025500008F440E021E0628181810C940E12E3E0F6
:10256000F3E043812AE0420F08F44FEF21E062815B
:1025700081810C940E12E3E0F3E062812AE0621B99
:1025800008F460E021E0438181810C940E12E3E0C5
:10259000F3E062812AE0620F08F46FEF21E04381EB
:1025A00081810C940E12E3E0F3E0818121E043810C
:1025B00062818A500C940E12E3E0F3E0818121E005
:1025C00043816281865F0C940E12809107038823F9
:1025D00019F0815080930703609103037091040305
:1025E00080910503909106030C94FC1180910703E0
:1025F000833018F48F5F8093070360910303709119
:10260000040380910503909106030C94FC119091B2
:10261000030390FF36C09170811129C0926090939E
:102620000303662351F060910303709104038091CA
:102630000503909106030E94FC11609103036695C7
:1026400070E04BE050E084E191E00E94482A892B41
:10265000A9F010926F0281E080936B0220E040911C
:10266000060360910503809104030C940E128B32D3
:1026700010F09465D4CF880F982BD1CF0E94E6112B
:10268000EACF0895809103038695815009F48AE288
:1026900061E00C9407138091030386958F5F8B3262
:1026A00008F081E061E00C9407139091030390FF20
:1026B00007C09695981720F0961710F40C944B13BA
:1026C00061E00C940713E3E0F3E08DE08083118276
:1026D0008FEF828383838FE0848360817181828125
:1026E00093810C94FC1169EE7EEF90E080E00E94F3
:1026F000942A60E082E090E00E94762A60E083E025
:1027000090E00E94762A10922C0260E084E090E033
:102710000E94762A60E082E290E00E94762A60E0E1
:1027200085E090E00E94762A60E086E090E00E94DA
:10273000762A6FEF87E090E00E94762A40E050E032
:10274000BA0188E090E00E94882A60E08DE090E085
:102750000E94762A40E050E0BA0188E190E00E94B1
:10276000882A60E087E190E00E94762A40E050E00D
:10277000BA018CE190E00E94882A70E060E080E27B
:1027800090E00E94942A40E050E0BA0188E190E095
:102790000E94882A80E00E9430100E94481040E089
:1027A00050E0BA018FE090E00E94882A40E050E0BB
:1027B000BA0183E190E00C94882A2F923F924F92C5
:1027C0005F926F927F928F929F92AF92BF92CF92C1
:1027D000DF92EF92FF920F931F93CF93DF93CDB7CA
:1027E000DEB72C970FB6F894DEBF0FBECDBFAE019B
:1027F0004F5F5F4F6A018CE0DA011D928A95E9F71D
:1028000004E511E07A01AA24A394B12CF801819186
:102810008F018F3F09F44BC0F894E82FE295EF70D9
:10282000F0E021A18F70A50102C0440F551F8A95C9
:10283000E2F7CA01922F982B91A392A18095892348
:1028400082A3789400C0EAE5F1E030E020E0912C2A
:10285000812C81918F3F09F4ACC0A82FA295AF7055
:10286000B0E090964C9150E08F7002C0559547951E
:102870008A95E2F740FD9DC0C501022E02C0880F77
:10288000991F0A94E2F7882A992A2F5F3F4F2F3029
:102890003105F9F6F801319780818F3F11F00E94E0
:1028A000710850EA5A95F1F7D7018D929C92B2E0E7
:1028B000EB0EF11CE1E00A351E0709F0A7CF4CE052
:1028C00050E0B60182E392E00E94552A8C01FF2479
:1028D000F394892B09F4F12C0115110541F08CE0DA
:1028E000F601A2E3B2E001900D928A95E1F75090D3
:1028F0002F02552009F46AC00E94E50520912D029F
:1029000030912E02AC01421B530B9A0190932E0280
:1029100080932D024F3F510511F008F04DC0452B1B
:1029200009F444C0E22E10922F022091300230911F
:102930003102EFE4F2E062E372E039015AE5650E3C
:10294000711C412C88248394912C190150E040E0A3
:10295000D101DD901D01DD20D1F0CD010197ED14F5
:1029600070F1DC011C92C080D180DB018D919C91C3
:102970008C259D255401042E02C0AA0CBB1C0A9470
:10298000E2F78A219B218C259D25918380834F5FCF
:102990005F4F4F305105E1F6215F3F4F32966E5F3A
:1029A0007F4F6216730689F640922F02012BB1F415
:1029B0004DC090E080E067CF2FEF30E0B3CFDE185E
:1029C000DC01DC92452CE3CF108233C0012BF1F106
:1029D0000E94E50590932E0280932D0220913002F3
:1029E0003091310260912F02A2E3B2E08FE4C82E51
:1029F00082E0D82EAA24A394B12C75E04D915D916C
:102A0000F601819191916F0148275927F90190E0D2
:102A100080E08501082E02C0000F111F0A94E2F722
:102A200004231523012B81F21081111102C0708340
:102A300061E0319601968F30910559F7215F3F4F44
:102A4000F2E0AE33BF07D1F660932F028F2D2C96A4
:102A50000FB6F894DEBF0FBECDBFDF91CF911F91AF
:102A60000F91FF90EF90DF90CF90BF90AF909F902D
:102A70008F907F906F905F904F903F902F90089530
:102A800090E080E00E94702A893E9E4F11F40C94E1
:102A9000101180E0089510922A0280912201ECEA40
:102AA000F1E0882359F08091130387FF07C08EE17E
:102AB000DF011D928A95E9F70C94FC0A86E0F8CFB5
:102AC0001F93CF93DF93CDB7DEB7AA970FB6F894D5
:102AD000DEBF0FBECDBF8FE393E02091F100DC019C
:102AE0002D93CD01B3E087349B07B9F78091400364
:102AF000833009F471C0B8F4813009F448C08230E1
:102B000009F4B2C08091E80083FF88C280913F033E
:102B1000909140039A3008F081C2E92FF0E0E35E23
:102B2000F44D0C948C288A3009F48DC08B3009F454
:102B300070C0893039F780913F03813219F7809155
:102B4000430390914403009711F00297D9F68091C6
:102B5000E800877F8093E8008091E80082FF37C01B
:102B60009091F3008091F200029729F48091F10096
:102B70008B7F813021F48091F10080931A03809142
:102B8000E8008B778093E8000E94C304BBCF80915C
:102B90003F03813A09F0B6CF8091E800877F8093A8
:102BA000E8008091430390914403892B61F460E233
:102BB0008BE193E070E00E9475058091E8008B77CF
:102BC0008093E8009FCF60E090E080E0F3CF8091B9
:102BD0003D038111C1CF96CF80913F03813A09F027
:102BE00091CF8091430390914403892B09F08ACFC0
:102BF0008091E800877F8093E8008091E80080FF63
:102C0000FCCF809122018093F1008091E8008E77C3
:102C1000B9CF80913F03813209F074CF8091430393
:102C200090914403892B09F06DCF8091E800877F54
:102C30008093E8000E94C3048091410380932201A5
:102C40000E944B155FCF80913F03813209F05ACF2C
:102C50008091E800877F8093E8000E94C304809100
:102C60004203809319034ECF80913F03813A09F0CC
:102C700049CF8091E800877F8093E8008091E80049
:102C800080FFFCCF80911903BECF803899F0823845
:102C900009F0C4C1809143038F70873008F0BEC132
:102CA0008093E9008091EB0085FB882780F91092E2
:102CB000E90006C080913B0390913C039111826032
:102CC0009091E800977F9093E8008093F100109234
:102CD000F1008091E8008E779DC1882309F48BC1B3
:102CE000823009F09BC18091410381118EC1809196
:102CF00043038F702FEF280F263008F08FC1809389
:102D0000E9002091EB0020FF80C1933031F48091E5
:102D1000EB0080628093EB0078C19091EB009061B2
:102D20009093EB0021E030E001C0220F8A95EAF792
:102D30002093EA001092EA008091EB008860EACFCD
:102D400081116CC1109141031F778091E30080785D
:102D5000812B8093E3008091E800877F8093E800D7
:102D60000E94C3048091E80080FFFCCF8091E300C3
:102D700080688093E30082E0111183E080933D033B
:102D80004DC18058823008F049C1209141033091F3
:102D900042032C3DE3E03E07A1F583E08A838AE20B
:102DA00089834FB7F894DE01139620E03EE051E2AC
:102DB000E32FF0E050935700E49120FF03C0E29529
:102DC000EF703F5FEF708E2F90E0EA30C0F0C79653
:102DD0008D939D932F5F243159F74FBF8091E80069
:102DE000877F8093E8006AE270E0CE0101960E943E
:102DF00075058091E8008B778093E8000FC1C0963D
:102E0000E7CF8091430390914403432F55274330EC
:102E1000510509F44AC078F54130510509F47AC0EA
:102E20008BE590E0EEE5F7E04230510509F0F6C0A1
:102E30002091E800277F2093E800209145033091FE
:102E400046038217930708F49C0140E021153105E1
:102E500009F065C0411163C08091E80082FDC9CFCF
:102E600080913D03882329F2853019F28091E80092
:102E700083FFF2CFBECF4132510509F43CC042324C
:102E8000510509F0CBC08330910508F0C7C0FC01A3
:102E9000EE0FFF1FE956FE4F0190F081E02D8C569A
:102EA0009E4FDC018C9190E01AC033272130310510
:102EB000D1F02115310561F02230310509F0AEC0A5
:102EC000EBECF7E0E4918E2F90E0EBECF7E007C03D
:102ED000EBEFF7E0E4918E2F90E0EBEFF7E0009757
:102EE00009F49CC0A5CFE9EEF7E0E4918E2F90E0C5
:102EF000E9EEF7E0F4CF8330910508F08FC0880F3A
:102F0000991FFC01E356FE4F0190F081E02D89E00E
:102F100090E08ECF82E190E0E9EBF7E089CF8091FD
:102F20003D03882309F465CF853009F462CF809191
:102F3000E80083FD5ECF8091E80082FD8DCF809117
:102F4000E80080FF83CF9091F3008091F20021157B
:102F5000310519F08830910550F041E0089709F0EB
:102F600040E08091E8008E778093E8006FCF449135
:102F70004093F1003196215031090196E8CF803815
:102F800009F04CC08091E800877F8093E800809131
:102F90003E038093F1009DCE811140C0109141030A
:102FA0001230E0F58091E800877F8093E80010936D
:102FB0003E030E94C304112311F084E005C08091F8
:102FC000E30087FDFACF81E080933D0342E061ECAE
:102FD00081E00E94E20442E261EC84E00E94E204AB
:102FE00042E261EC82E00E94E20442E260EC83E0B3
:102FF0000E94E20413C080914103813079F481E0A2
:10300000933009F080E080933C031092E9008091B6
:10301000E800877F8093E8000E94C3048091E80065
:1030200083FF0AC08091E800877F8093E800809149
:10303000EB0080628093EB00AA960FB6F894DEBF97
:103040000FBECDBFDF91CF911F9108953F924F9258
:103050005F926F927F928F929F92AF92BF92CF9228
:10306000DF92EF92FF920F931F93CF93DF9300D0E5
:1030700000D00F92CDB7DEB78C01FC018381948123
:10308000892B31F08081918189238F3F09F078C5A8
:103090000F900F900F900F900F90DF91CF911F9195
:1030A0000F91FF90EF90DF90CF90BF90AF909F90E7
:1030B0008F907F906F905F904F903F9008950E9407
:1030C000AE10F82E682F89819A810E94D00A6981FA
:1030D0007A818F2D0E94A1107C01F80182818823C2
:1030E00009F414C5970122513F452031310508F0FC
:1030F0003AC58FEF93E00E94622AFEEEEF0E58EF82
:10310000852E52E0952E882381F1809127028770C9
:1031100009F4BECFF8018281882309F4B9CF82E097
:103120000F900F900F900F900F90DF91CF911F9104
:103130000F91FF90EF90DF90CF90BF90AF909F9056
:103140008F907F906F905F904F903F900C94340BD6
:10315000811424E09206C9F2C4010E94622A8111FE
:1031600001C0EA943FEF831A930AE110F1CF1C8269
:103170001B82442443944AE0342E74018FEFE81AF2
:10318000F80AC4010E94622A89831A82882309F4FA
:10319000BCCF9FEF980F933000F58A83498292E06D
:1031A000890E911CC7010E94622A8B83882309F42F
:1031B000ACCFFE0131967F01F70120812223E9F295
:1031C000213009F049C091818281913041F4F2E0CF
:1031D000EF0EF11C0E944A0F09C04701EACF92305E
:1031E00049F422E0E20EF11C0E94AD0B3FEFE31A1E
:1031F000F30AE2CF933031F432E0E30EF11C0E9487
:10320000740BF4CF943021F08FEFE81AF80AEECF68
:1032100092E0E90EF11C30E020E0B7016F5F7F4FD4
:10322000F70141818053990B8A30910550F021506C
:103230003109E0F28FE99FE00197F1F700C000004B
:10324000F6CF329EF001339EF00D11249C012E0F1B
:103250003F1F842F7B01E1CFE22FF0E0EC50FE4FC7
:103260005490822F86958695869590E0FC01EC51CE
:10327000FE4F64902770712C022E02C075946794E3
:103280000A94E2F7E1E06E227724FC01EC52FE4F53
:10329000A490B12C022E02C0B594A7940A94E2F730
:1032A000F1E0AF22BB24FC01EC53FE4FC490D12CC3
:1032B00002C0D594C7942A95E2F721E0C222DD240A
:1032C0006114710419F081EE0E94AD0BA114B104D8
:1032D00019F086EE0E94AD0B852D0E944A0FAB2897
:1032E00019F086EE0E94740B672819F081EE0E9497
:1032F000740BCD2809F47ACF8CE26CCF81E00E9468
:10330000500B0E941D0B01CF81E00E94280BF9CFCA
:1033100082E0FBCF95EFE9169CE5F90609F462C05F
:1033200008F45CC027E245EE66EEF6EFEF16FCE52A
:10333000FF0609F414C4882309F433C41092490326
:1033400022E0E2162CE5F20608F445C136E1E31668
:103350003CE5F30630F0C7018A5F9C45099708F009
:103360003AC10E942911909314038093130380E1C2
:10337000E8168CE5F80609F4FDC008F07CC0E8E02A
:10338000EE16ECE5FE0609F4E7C008F048C024E0BC
:10339000E2162CE5F20609F4D7C058F582E0E816EB
:1033A0008CE5F80609F4CAC080911303826093E0AB
:1033B000E9169CE5F90609F4C4C0809113039091C5
:1033C00014030E945C100E944B159FCE27E245EE2D
:1033D00065EEC5C326E241EE60EEC1C327E245EECD
:1033E00064EEBDC326E241EE62EEB9C328E241E0DD
:1033F000EFCF809113038061E6E0EE16ECE5FE0668
:1034000009F49FC0809113038860F7E0EF16FCE594
:10341000FF0608F496C080911303806292C08091E9
:1034200013038D7F2CE0E2162CE5F20609F489C027
:1034300060F48AE0E8168CE5F80609F497C008F411
:103440008FC0809113038E7F7CC080911303877F90
:10345000EEE0EE16ECE5FE0609F473C0809113036E
:103460008B7FFFE0EF16FCE5FF0608F46AC0809151
:1034700013038F7E66C02BEFE2162CE5F20609F4EB
:1034800067C068F583E1E8168CE5F80609F47AC0B0
:1034900090F4E1E1EE16ECE5FE0609F46FC0F2E10E
:1034A000EF16FCE5FF0609F088CF0E944B158091CE
:1034B00013038F7746C025E1E2162CE5F20609F4E6
:1034C00069C008F47DC08AEFE8168CE5F80609F0BB
:1034D00074CF809114038160809314036ECF9FEFAB
:1034E000E9169CE5F90609F451C0A0F48091140393
:1034F0008D7FFDEFEF16FCE5FF0671F3809114035D
:103500008E7F2EEFE2162CE5F20630F38091140345
:103510008360E2CF31E0E3163DE5F30609F459C0DC
:1035200008F444C060E092E0E9169DE5F90609F070
:1035300044CF8EE090E00E94762A3FCF8091130323
:1035400081608093130339CF809113038460F9CF96
:10355000809114038260C0CF809113038064F1CF07
:103560000E944B15809113038068EBCF8091130369
:103570008C60E7CF809113038F7DE3CF809113039D
:103580008F7BDFCF80911303837FDBCF8091140388
:103590008C7FA2CF8091130382FB992790F921E0C1
:1035A000922790FB82F990FB83F9CBCF8091140393
:1035B000982F909591708E7F892B90FB81F98CCFFD
:1035C0000E944B1590911303892F97FB87F9805820
:1035D000B8CF61E0AECF80912A02E6E1EE16ECE5CD
:1035E000FE0609F0EDC28A7A91E009F490E090932A
:1035F000CA0169E2811165E38AEA91E00E941B0633
:103600000E94590A82CD8091030380FF1BC08E7FE8
:103610008093030360910303709104038091050379
:10362000909106030E94FC1110926F02FFEF20E7B9
:1036300032E0F15020403040E1F700C000000E942D
:10364000DF0C63CD81608093030361E086950E9467
:1036500007135BCD42E453E16BE473E10E948806FB
:1036600054CD4BE453E162E473E1F8CF4CED52E109
:1036700063ED72E1F3CF4BEB52E167EC72E1EECF19
:1036800043EA52E16FEA72E1E9CF4FEA52E163EABD
:1036900072E1E4CF46EF52E165EE72E1DFCF61E027
:1036A00081E0D5CF65E082E00E9455132ECD68E021
:1036B00086E0FACF64E18FE0F7CF67E185E1F4CFF0
:1036C00062E289E1F1CF61E083E2C1CF2BE5E2164E
:1036D0002DE5F20611F13CE5E3163DE5F30609F0B0
:1036E000A1C28091140382FB882780F991E0892789
:1036F0000E94691097C20E944B158FEF94E3ECE093
:1037000081509040E040E1F700C000000E94BB0CF7
:103710000E947313FACC81E0EBCF80E0E9CFC701C0
:103720000E94A80AD82E8DC22F2D2F70C22E8F2D49
:10373000807F19F0C29490EFC922DD20C9F0CC201F
:1037400069F080E28E0D883010F081100BC08091FE
:103750002A02C82AC0922A020E94590A8E2D0E946B
:10376000AD0B19C080912902C82AC0922902F4CF5A
:103770008E2D0E94740BCC2071F0C09480E28E0DCF
:10378000883010F081103FC080912A02C822C09278
:103790002A020E94590A292D2850330B2430310562
:1037A00020F40E947C060E94220CAA2009F470CC0E
:1037B0008091270280FD6CCCF80112828595859559
:1037C00085950E94500BC8010E94261880912702FF
:1037D0008595859585950F900F900F900F900F9080
:1037E000DF91CF911F910F91FF90EF90DF90CF90DD
:1037F000BF90AF909F908F907F906F905F904F9011
:103800003F900C94280B80912902C822C092290273
:10381000C0CF3F2D3F70B32E8F2D807F803219F0A7
:10382000B29480EFB822882071F081E0881681F18F
:10383000DD20D9F1CC2091F1F801858180FF8ECF78
:103840008F7085832BC0DD20B1F090912B02892FE2
:103850008B29C11003C00E946A0B9DCFE1E0CE12FC
:10386000FACF2091140322FD96CF981709F493CF35
:1038700080932B0290CFC11006C00E94530A8B2D5B
:103880000E945F0B88CFF1E0CF1609F484CFF5CF0B
:10389000DD2031F025E02C1508F47DCF8B2DDBCF1A
:1038A00034E03C1508F477CFEACFCC2041F3F9E3BC
:1038B0008F1209C02FEF37EE83E021503040804057
:1038C000E1F700C000008E2D0E94740B64CF8F2D95
:1038D00086958695837061F0813009F05CCFC701D1
:1038E0009370D11002C090E080E00E94500653CF48
:1038F000C7019370D11002C090E080E00E9466067C
:103900004ACF8E2DDD2029F00E9415080E94330732
:1039100042CF0E945A07FACF8F2D837091F5D110B4
:103920003ACF4E2D429546954770440F440F8E2D49
:103930008F70042E01C0880F0A94EAF72E2D207193
:10394000E4FE07C02FE030E001C0220F4A95EAF7FD
:1039500020953F2D369536953370323069F050F40E
:1039600040912C02313029F0822B84230E945B0B82
:1039700012CF842B822BFACF282B80912C02822706
:10398000F5CF8695DD2011F08F2D8170882309F405
:1039900002CF4E2D429546954770440F440F8E2D11
:1039A0008F70042E01C0880F0A94EAF72E2D207123
:1039B000E4FE07C02FE030E001C0220F4A95EAF78D
:1039C00020953F2D369536953370323069F050F49E
:1039D00040914A03313029F0822B84230E94190B35
:1039E000DACE842B822BFACF282B80914A038227B0
:1039F000F5CF9F2D9F70F92EDD2029F0892F0E9491
:103A0000500B8E2D28CF8E2D0E945F0B8F2D0E9484
:103A1000280BC1CE8E2DE2EF8E1609F44BC0E815AF
:103A200070F0F0EF8F1639F121EF8216D9F1DD2019
:103A300009F45CC0C11092CE8F2D8F7138C033EF66
:103A40008316E9F194EF8912F2CFDD2009F443C027
:103A50002F2D2F71F22E822F0E94500B8091140374
:103A600082FD07C038E0F39EC0011124836080937B
:103A700027028F2D1CC0DD2081F0E4E0EC1508F456
:103A80008ACE2F2D2F7181E090E001C0880F2A95FA
:103A9000EAF790914A038927A1CFF5E0FC1508F4D5
:103AA0007ACEEFCF8F2D8F71DD2009F4B0CF0E9439
:103AB000500B71CE8F2D8F71DD20C9F3A8CF80E020
:103AC000DD2009F48BCF9F2D9F7181E001C0880F0D
:103AD0009A95EAF783CF81E00E94340B81E08C1540
:103AE00008F059CE82E00E94340B55CECC2059F01C
:103AF000893309F0E8CE9FEFE7EEF3E09150E04024
:103B0000F040E1F7DECE8F2D8F7181CFF0E1EF161F
:103B1000FFE5FF0609F4F8CB21E1E2162FE5F206F6
:103B200009F4F6CB93EFE9169CE5F90609F452CCBB
:103B300008F0F0CBF8EDEF16FCE5FF0609F446CCF3
:103B400029EDE2162CE5F20609F450CC37EDE31628
:103B50003CE5F30609F0EFCB26E241EE61EEC80149
:103B60000E94670FD2CA30E1E3163FE5F30609F47D
:103B7000C5CB91E1E9169FE5F906A1F682E0BFCB3E
:103B800085E0DE01119601900D928A95E1F7F8012A
:103B9000228189819A81211192CA0E94A80AF82E55
:103BA00096CAF6E1EF16FCE5FF06E1F58091CA0141
:103BB00069E2811165E38AEA91E00E94F10520CD76
:103BC00082722CECE2162CE5F20609F463CD08F0C3
:103BD000A7C096ECE9169CE5F90609F447CD08F074
:103BE00076C0F3ECEF16FCE5FF0609F433CD08F0E0
:103BF0005DC032ECE3163CE5F30609F404CD8AE53A
:103C0000E8168DE5F80609F486CD08F05FCDE114DD
:103C1000ECE5FE0609F46FCDFEEDEF16FCE5FF06C0
:103C200009F476CDF8018281E080F180882309F4DF
:103C300076CDC7010E94AE10D82E682FC7010E9412
:103C4000D00AB7018D2D0E94A1100E94CB087C01E3
:103C5000882EF801D280C580C2943FE0C3228091B3
:103C600027028770A1F0AD2CDD2091F08F2D807F91
:103C7000803421F080E28E0D883048F082E00E948E
:103C8000340B809127028770AA24A3948111A12C60
:103C90009F2C92942FE09222FBE0F91508F47BCD43
:103CA000E92DF0E0E95DF44D0C948C2894ECE916D4
:103CB0009CE5F90609F4D5CC43ED52E16CED72E1D7
:103CC000E5ECEE16ECE5FE0609F4C8CC98CFF9EC6D
:103CD000EF16FCE5FF0609F4D3CC88F437ECE316C5
:103CE0003CE5F30609F4C7CC47EC52E16BEB72E11B
:103CF00098ECE9169CE5F90609F4B0CC80CFEAEC23
:103D0000EE16ECE5FE0609F4C0CC45EE52E166EF96
:103D100072E1FBECEF16FCE5FF0609F49FCC6FCFD8
:103D200021EDE2162CE5F20609F4C4CCB8F48EECD1
:103D3000E8168CE5F80609F4B5CC08F4B0CCEFEC45
:103D4000EE16ECE5FE0609F4B2CC6EE089E0F0ED8B
:103D5000EF16FCE5FF0609F4A7CC51CF24EDE216DF
:103D60002CE5F20609F4ACCC78F482EDE8168CE58B
:103D7000F80609F4A2CC61E088E193EDE9169CE530
:103D8000F90609F464CC3BCFE5EDEE16ECE5FE0652
:103D900009F499CC6AE285E2FDE5EF16FF0609F425
:103DA00083CC2DCF1F93CF93DF938091F401807F3D
:103DB000A9F48091F101882389F080912602D091A5
:103DC000F5016091EF017091F001A091F201B091C5
:103DD000F301C62FC72316E0D81304C0DF91CF919B
:103DE0001F91089590E0109711F0CF3F19F40196BC
:103DF0008770F2CF189F9001199F300D1124F9019F
:103E0000EA50FE4F41814713F2CF40814613EFCF76
:103E100042814111ECCF438154814A1B5B0B483CEA
:103E2000510528F78091F4018F7080618093F4012F
:103E3000F901E550FE4F80818F70806180838FEEA5
:103E400091E00E942618DF91CF911F910C949E0A59
:103E5000AF92BF92CF92DF92EF92FF920F931F9398
:103E6000CF93DF93CDB7DEB761970FB6F894DEBF7F
:103E70000FBECDBF8C0185E0F801DE011D960190DB
:103E80000D928A95E1F7F801E2808FEEA82E81E08D
:103E9000B82E6091F2017091F3016115710509F47A
:103EA00032C19091EF014091F001892F84238F3F1F
:103EB00009F429C120813181C380D480F090F101BF
:103EC000F601E61BF70BFF2009F4E8C08091F4012E
:103ED000582F507FE83CF10508F0ABC0511177C076
:103EE000FE2C431321C092131FC0E1101DC08F7020
:103EF00080618093F401C5010E9426188091F4012D
:103F0000F80185838F2D61960FB6F894DEBF0FBE42
:103F1000CDBFDF91CF911F910F91FF90EF90DF9078
:103F2000CF90BF90AF900895CD2829F0822F8323A2
:103F30008F3F09F003C180E0F82FF170DF2E80FF82
:103F40003CC0809126024091F50156E0841315C0D3
:103F50002D873E878D859E850E94DD10292F229515
:103F60002F702230F0F0243018F59F70F1F0F80136
:103F70009581907FD1F4D12C1EC090E0589FF00124
:103F8000599FF00D1124EA50FE4F6181361306C08F
:103F90006081261303C06281E6120FC0019687700C
:103FA000D5CF9F7011F0882331F3805E883018F3ED
:103FB000C8010E942618FD2CA5CFEE2009F4A2CF3F
:103FC0008091F40181608093F401F12C9BCF431325
:103FD00006C0921304C0F801EE2009F479C0C801AC
:103FE0000E94E910882309F1EE20F9F08091F40194
:103FF000803270F02091EF013091F00138872F83EB
:104000001986DB86CA868C87CE0107960E94261801
:1040100086E0F801AFEEB1E001900D928A95E1F7EC
:104020000E94D21EFF24F3946DCFC8010E9426186F
:10403000F9CF51110AC08FEE91E00E94261886E058
:10404000F50111928A95E9F7C0CF43130FC092137F
:104050000DC0E1100BC0F8018583C8010E9426182D
:1040600086E0F50111928A95E9F74CCFC8010E94CC
:10407000E9108823D1F2EE20C1F28091F401803260
:1040800038F22091EF013091F0013A8329831B82AD
:10409000DD82CC828E83CE010196B8CFE83CF1055B
:1040A000F8F6FE2CEE2009F243131FC092131DC038
:1040B0008091F40180FD10C0982F907F69F0F80185
:1040C0008583903F31F0982F907F905F8F70892B80
:1040D0008583C8010E94261886E0F801AFEEB1E0A2
:1040E00001900D928A95E1F70DCFC8010E94E91069
:1040F00081118ECF8091F40181608093F401C80119
:104100000E942618FFCEEE2009F48FCFC8010E942E
:10411000E910F82E882309F488CF86E0F801AFEE85
:10412000B1E001900D928A95E1F78091EF019091B5
:10413000F0010E94DD100E94D21EE4CE81E08E25A7
:10414000FBCE1F93CF93DF93CDB7DEB767970FB644
:10415000F894DEBF0FBECDBF4B8B5C8B6D8B7E8B1F
:104160008F8B6111109229021A8A198A85E0FE014B
:104170007396DE011D9601900D928A95E1F786E017
:10418000FE013D96DE01179601900D928A95E1F7AA
:10419000CE0107960E94281F811112C086E0FE0101
:1041A0003796DE01119601900D928A95E1F78A8586
:1041B0009B85892B29F088859F8189238F3FB1F5C5
:1041C00016E0809126029091F50189131DC0679633
:1041D0000FB6F894DEBF0FBECDBFDF91CF911F9118
:1041E000089596E0929FD001939FB00D1124AA509C
:1041F000BE4FFE01319601900D929A95E1F78093A2
:10420000F5010E949E0ADCCF819FC00111248A50D3
:104210009E4F0E94281F8823D1F28091260290E0B1
:1042200001968770992780932602CBCF2091F501C4
:1042300030E0C901019687709927409126024817FE
:10424000190679F60E944B151092F501109226027C
:1042500086E0EFEEF1E0DF011D928A95E9F7B0CF3D
:104260001F920F920FB60F9211242F933F934F93EB
:104270005F936F937F938F939F93AF93BF93CF93EE
:10428000DF93EF93FF93D091E900DF708091EC0012
:10429000C82FC17080FDC0E81092E9008091F00045
:1042A000877F8093F00078940E9460151092E90057
:1042B0008091F00088608093F000CD2BCF70C09388
:1042C000E900FF91EF91DF91CF91BF91AF919F9165
:1042D0008F917F916F915F914F913F912F910F90AF
:1042E0000FBE0F901F9018951F920F920FB60F924E
:1042F00011242F933F934F935F936F937F938F93EB
:104300009F93AF93BF93EF93FF938091E10082FF60
:1043100009C08091E20082FF05C08091E1008B7F9F
:104320008093E1008091DA0080FF24C08091D80062
:1043300080FF20C08091DA008E7F8093DA00809128
:10434000D90080FF9BC080E189BD82E189BD09B4AD
:1043500000FEFDCF81E080933D0380911803811121
:1043600009C00E9449040E9414058091E200846003
:104370008093E2008091E10080FF17C08091E2000D
:1043800080FF13C08091E2008E7F8093E2008091D5
:10439000E20080618093E2008091D8008062809387
:1043A000D80019BC85E080933D038091E10084FF33
:1043B00029C08091E20084FF25C080E189BD82E1AF
:1043C00089BD89B5982F917080FFFBCF8091D8006F
:1043D0008F7D8093D8008091E1008F7E8093E100F3
:1043E0008091E2008F7E8093E2008091E200816004
:1043F0008093E20080913E03882309F445C084E065
:1044000080933D038091E10083FF27C08091E2000B
:1044100083FF23C08091E100877F8093E10082E0E9
:1044200080933D0310923E038091E1008E7F809344
:10443000E1008091E2008E7F8093E2008091E200B3
:1044400080618093E20042E060E080E00E94E2044C
:104450008091F00088608093F000FF91EF91BF9110
:10446000AF919F918F917F916F915F914F913F910C
:104470002F910F900FBE0F901F90189519BC10929E
:104480003D031092180376CF8091E30087FD93E0FF
:1044900090933D03B7CF78941F921FB61F921124BB
:1044A0008F939F93AF93BF9380910F0390911003CD
:1044B000A0911103B09112030196A11DB11D80932B
:1044C0000F0390931003A0931103B0931203BF91B5
:1044D000AF919F918F911F901FBE1F9018951F92B3
:1044E0001FB61F9211248F939F93AF93BF93809118
:1044F0000E03811113C080910F0390911003A091BE
:104500001103B09112034196A11DB11D80930F03B9
:1045100090931003A0931103B0931203BF91AF9136
:104520009F918F911F901FBE1F901895CDB7DEB73A
:10453000AA970FB6F894DEBF0FBECDBF84B7877FB2
:1045400084BF0FB6F894A89580916000886180932D
:104550006000109260000FBE80E890E00FB6F89403
:1045600080936100909361000FBE85B7806885BF1E
:1045700085B7806885BF8FE698E09093A50180930A
:10458000A4010E9449040E9414058091E200846005
:104590008093E200789480913D038823A1F01091EC
:1045A000E9001F709091EC00892F817090FD80E8E8
:1045B000182B1092E9008091E80083FD0E9460159D
:1045C0001F701093E90082E084BD93E095BD9AEFDF
:1045D00097BD80936E000E941011811102C00E944D
:1045E000481004E511E0EAE5EE2EE1E0FE2EF801C8
:1045F00081918F018F3F11F00E947108E016F10642
:10460000B1F70AE511E079E6E72E71E0F72EF8013F
:1046100081918F018F3F11F00E947108E016F10621
:10462000B1F7E2E3F2E0AFE4B2E0119211921D9231
:104630001D9222E0EE33F207C1F78AE590E00E9476
:104640002029AC01909331028093300230E020E0C9
:10465000FA01E20FF31F9FE011929150E9F7215FF9
:104660003F4F2A353105A1F70E944015811102C044
:104670000E94731382E090E00E94622A80934202BB
:104680000E94291190931403809313030E94DD1359
:104690008FE39CE90197F1F700C000000E94DD1351
:1046A00080914F0280FF08C06FEF7FEF90E080E0C5
:1046B0000E94942A0E94BB0C83E090E00E94622A30
:1046C0000E945B0B3E9A469880913E02811133C056
:1046D0000E944015811104C00E9473130E9463134D
:1046E00088E090E00E946A2A6093030370930403B9
:1046F00080930503909306036E7F71F40E94631309
:1047000088E090E00E946A2A609303037093040398
:1047100080930503909306030E948E0610926F0209
:104720008091030380FF04C060E086950E94071318
:1047300081E080933E02809113038068809313038D
:1047400080911303909114030E945C108AE091E021
:1047500090930B0380930A0360E4262E80913D031F
:10476000FF24F39400E112E1853009F403C20E94B2
:10477000DD13882359F08FB7F89440910F035091BF
:10478000100360911103709112038FBF43E4C42E94
:1047900042E0D42E5FE4652E52E0752E512C412C60
:1047A000F301A190B1903F01F601E190F1906F010A
:1047B000EA14FB04A9F1312C01E010E0EA24FB2407
:1047C0004F01F2E08F1A9108C70180239123892BB2
:1047D00009F139A24AA221E0C50180239123892B46
:1047E00009F420E02BA30E94E5058160782F9DA3AA
:1047F0008CA349A15AA16BA18DA10E94A120F40113
:104800008081918180279127918380835394FBE05D
:10481000F515E0F03394000F111F2FE03212D4CFC2
:10482000439446E04412BCCF511010C08FEF8EA3CA
:104830008FA318A60E94E5058160782F9AA789A703
:104840004EA15FA168A58AA50E94A12080916F0258
:104850008823D1F180916E02E0910303E695E81B75
:10486000E0936A02823009F0A2C1F0E0EB57FD4FFD
:10487000E4910E2F10E026E3E22E2FE0F22E80913D
:104880006B02882361F010926B020E94E505909301
:1048900069028093680210926D0210926C020E946D
:1048A000E505E0916802F09169028E1B9F0B8F3F36
:1048B0009F4750F4E00FF11FF0936902E093680204
:1048C00088E692E0F701099586E0E2E6F2E0DE0193
:1048D000119601900D928A95E1F7F0906402E090B4
:1048E00065021091660200916702109264021092B4
:1048F000650210926602109267028F2D8E2909F4CC
:1049000048C080916002909161020E94D6059C018E
:1049100090915C02992309F4B8C323333105C8F19F
:104920009F3F19F09F5F90935C02FF2059F00E9417
:10493000F5079FEF1F140CF491E0899F802D11243F
:1049400080936402EE2059F00E94F5079FEF1E1439
:104950000CF491E0899F802D1124809365023091A1
:1049600064023323B1F020916502222391F045EBDC
:104970003403C0011124992309F485C19093640282
:1049800045EB240390011124332309F480C13093B3
:104990006502812F802B09F448C080915E029091BE
:1049A0005F020E94D6059C0190915B02992309F455
:1049B00067C325363105C8F19F3F19F09F5F90937B
:1049C0005B02112359F00E94D3079FEF11160CF4DC
:1049D00091E0899F802D112480936602002359F075
:1049E0000E94D3079FEF10160CF491E0899F802D51
:1049F000112480936702309166023323B1F0209135
:104A00006702222391F045EB3403C001112499235E
:104A100009F441C19093660245EB240390011124EF
:104A2000332309F43CC13093670280916402909172
:104A30006502892B90916602892B90916702892BE0
:104A400011F00E94330786E0FE013196A2E6B2E043
:104A500001900D928A95E1F70E947C0690914102A7
:104A6000891731F00E947C06809341020E94220C3B
:104A700080913D03843009F071CE83E08093E9009A
:104A80008091E80082FF6ACE8091E80090E085FF87
:104A900006C00E946804882309F405C191E0809152
:104AA000E8008B778093E800992309F457CEE981D9
:104AB000E150E33108F09BC1F0E0ED5CF44D0C9463
:104AC0008C2880913D03843009F442C080E00E942C
:104AD000220C10926F0280914002811116C0F09258
:104AE000400280910303982F917090933F028E7F34
:104AF000809303039FEFE0E7F2E09150E040F04045
:104B0000E1F700C000000E94DF0C10920E0388E164
:104B100090E00FB6F894A895809360000FBE2092A5
:104B2000600083B7817F846083BF83B7816083BF68
:104B30007894889583B78E7F83BF0FB6F894A89535
:104B400080916000886180936000109260000FBEC9
:104B500080913C03882371F00E94DD13EFE4F2E0C2
:104B600081919191892B09F075C28BE592E08E17A6
:104B70009F07B1F780913D03853009F4A2CF0E94D1
:104B80004B150E947C060E94220C109240028091DC
:104B90003F02882349F080910303816080930303DF
:104BA00060E086950E9407130E94E611E0CD8630F2
:104BB00059F4F0E0EE57FD4FE4910E2F10E096E22D
:104BC000E92E9FE0F92E5BCE893061F4E695F0E0A6
:104BD000E158FD4FE4910E2F10E082E9E82E8EE0BF
:104BE000F82E4DCE8F3061F4E695F0E0E458FD4F9D
:104BF000E4910E2F10E0B4E2EB2EBEE0FB2E3FCE90
:104C0000853159F4F0E0E758FD4FE4910E2F10E0A4
:104C1000A6EDEA2EADE0FA2E32CE08E210E07DE4F9
:104C2000E72E7DE0F72E883109F429CE833249F44E
:104C3000E7E7F2E005911491FDECEF2EFEE0FF2E88
:104C40001ECE04EF11E064E1E62E6DE0F62E843214
:104C500009F415CE00ED17E05DE8E52E56E0F52EDF
:104C6000853209F00CCE8E2F63E00E944A28E92F8E
:104C7000F0E0EC58FD4FE4910E2F10E0E7E3EE2E4C
:104C8000E1E1FE2EFCCD81E08093640279CE81E0EB
:104C9000809365027ECE81E080936602BDCE81E086
:104CA00080936702C2CE00E210E0CE0101967C0143
:104CB0008091E80085FD0AC08091E8008B778093A1
:104CC000E8000E946804882399F3E8CE8091F100FF
:104CD000F70181937F010150110951F7DFCE1A824C
:104CE00089E08B8332C08A818230C1F0833009F43D
:104CF00053C0813009F07BC02FB7F89460910F0347
:104D00007091100380911103909112032FBF0E94A4
:104D100092286B837C838D839E8317C086E290E00C
:104D20000E94622A90E0B0E0A0E0CC24D82EE92EC8
:104D3000FA2E87E290E00E94622A1B821C82C82A17
:104D4000DC24CD24DC24DE82CD8280913D038430BE
:104D500009F004CD1091E9001F709091EC00892FAB
:104D6000817090FD80E8182B82E08093E9008091AB
:104D7000E80080FF0DC050E040E060E270E0CE014E
:104D800001960E9499048091E8008E778093E80054
:104D90001F701093E900E2CCDE011196EFE4F2E01F
:104DA00080819181329612969C93129713968C93E0
:104DB0001397129622E0EB35F20791F7C6CF8A815E
:104DC0008230A9F46B817C818D819E810E94922822
:104DD0006B017C0187E290E00E94762A99278F2D53
:104DE0007E2D6D2D86E290E00E94762AAECF8FEF69
:104DF0008983ABCF4C816B818A810E947B1098277D
:104E0000892798279E838D83A0CFED80FE80FE2486
:104E1000EF24FE248A810B814EE1049F800111243E
:104E200094EB899F000D111D11248C8190E0880F57
:104E3000991F080F191F6F2DC80188960E94762AA6
:104E40006E2DC8018996D0CF0E94DB0F7ECF8A815C
:104E50008138C1F060F4803809F077CF20E04B81D1
:104E600060910503809104030E940E126ECF823878
:104E700059F1833809F069CF20E0409106036C8135
:104E80008B81F2CF60E08B810E9407139B81809120
:104E90000303911111C08E7F8093030310926F0260
:104EA000EFEFF0E722E0E150F0402040E1F700C0F2
:104EB00000000E94DF0C49CF81608093030360E013
:104EC00086950E94071341CF8B81809307033DCFC6
:104ED0008A81813899F030F4803809F036CF80919A
:104EE0000603FFCE823891F0833809F02ECF8091EF
:104EF00004038B83809105038C8327CF8091030368
:104F000080FF02C08695EDCE80E0EBCE8091070356
:104F1000E8CE6091030370910403809105039091A2
:104F200006030E94FC1111CF80E18A830ECF81E03D
:104F30008A8388E0D6CE0A811B811027012710279B
:104F4000CE0101966C01EC80FC01EE0DF11D7F019C
:104F5000C80188509D4FCE14DF0409F4F6CE083006
:104F6000F1E01F0750F40E94622AF60184830F5F6C
:104F70001F4FFFEFCF1ADF0AEBCFF6011482F7CFF6
:104F80000A811B81102701271027CE0101966C0191
:104F9000EC80E00EF12EF11CC80188509D4FE01608
:104FA000F10609F4D2CE0830E1E01E0720F4F60144
:104FB00064810E94762AFFEFCF1ADF0A0F5F1F4F2E
:104FC000EBCF0E94CB0FC1CE84E0AFCF0A811B8113
:104FD000102701271027CE0101966C01EC80FC01FF
:104FE000EE0DF11D7F01C8018896EC14FD0409F453
:104FF000ACCE003DF2E01F0750F40E94622AF60199
:1050000084830F5F1F4FFFEFCF1ADF0AECCFF6014B
:105010001482F7CF0A811B81102701271027CE01A8
:1050200001966C01EC80E00EF12EF11CC80188960F
:10503000E016F10609F489CE003DE2E01E0720F4F7
:10504000F60164810E94762AFFEFCF1ADF0A0F5F14
:105050001F4FECCF09BD19BD09B400FEFDCF8091F3
:10506000D8008F7D8093D8008091E000826080938B
:10507000E0008091E00081FDFCCF0E944B157ACDCD
:105080002D32314008F09ACCD0CC2D32314008F08E
:1050900049CC7FCC991B79E004C0991F961708F082
:1050A000961B881F7A95C9F78095089587FB082E6F
:1050B000062687FD819567FD61950E944A280EF4BA
:1050C000919507FC81950895AA1BBB1B51E107C070
:1050D000AA1FBB1FA617B70710F0A61BB70B881F88
:1050E000991F5A95A9F780959095BC01CD01089517
:1050F00097FB072E16F4009407D077FD09D00E9485
:10510000642807FC05D03EF4909581959F4F089543
:10511000709561957F4F0895EE0FFF1F0590F491F4
:10512000E02D09946927962769277827872778270C
:1051300008950E94FE2A332312F48A1B9B0B0C94C1
:10514000A3280E94FE2AB7FF0895821B930B08959F
:10515000CF92DF92EF92FF92CF93DF93CDB7DEB77E
:105160002A970FB6F894DEBF0FBECDBF89879A8706
:10517000A985BA852D913D914D915C9129833A8302
:105180004B835C83232B242B252B41F424E239ED24
:105190004BE557E029833A834B835C8369817A81AD
:1051A0008B819C812DE133EF41E050E00E94AA2ADF
:1051B00069017A01A7EAB1E49B01AC010E94C92A06
:1051C00069837A838B839C83ACEEB4EFA70196014D
:1051D0000E94D72A9B01AC0189819A81AB81BC8155
:1051E000820F931FA41FB51FB7FF03C00197A1092A
:1051F000B048E985FA8580839183A283B3839F7742
:105200002A960FB6F894DEBF0FBECDBFDF91CF91C7
:10521000FF90EF90DF90CF9008950E94A828089506
:1052200080E091E00E94A8280895B0E0A0E080937B
:10523000000190930101A0930201B093030108952E
:105240000F931F93CF93DF939C01029710F422E0FA
:1052500030E0E091A601F091A70190E080E0B0E09D
:10526000A0E0309791F4009709F445C0821B930B9E
:1052700084309105B8F58A819B816115710569F1CA
:10528000FB0193838283FE0111C040815181028121
:10529000138142175307F0F04217530799F4109700
:1052A00061F012960C93129713961C933296CF01CD
:1052B000DF91CF911F910F9108950093A601109354
:1052C000A701F4CF009719F04817590718F4CA013D
:1052D000BD01EF01DF01F801C4CF9093A7018093D6
:1052E000A601D1CFFE01E80FF91F21933193029758
:1052F00099838883DCCF8091A8019091A901892BA3
:1053000041F480910601909107019093A901809347
:10531000A8018091040190910501009741F48DB797
:105320009EB74091080150910901841B950B409153
:10533000A8015091A9014817590708F0B8CF841B5C
:10534000950B8217930708F4B2CFB9016E5F7F4FB8
:105350008617970708F4ABCF640F751F7093A901E8
:105360006093A801FA0121933193A1CFCF93DF93EA
:105370009C010097E9F0FC01329713821282C091E0
:10538000A601D091A701DE0190E080E02097A1F472
:1053900080819181280F391F8091A8019091A901E6
:1053A0008217930709F067C0F093A901E093A80161
:1053B000DF91CF910895DA01AE17BF0708F041C021
:1053C00012964D915C911397CD014115510599F7B6
:1053D000DC011396FC93EE9312974D915D91A40F0F
:1053E000B51FEA17FB0781F4208131812E5F3F4F03
:1053F000240F351FDC0111963C932E9322813381BB
:1054000013963C932E931297B0E0A0E08A819B8183
:105410000097B1F5FE0181919191E80FF91F8091FC
:10542000A8019091A9018E179F0711F6109759F5C1
:105430001092A7011092A601D093A901C093A801D0
:10544000B7CFB383A28340815181240F351FA217A8
:10545000B30771F44E5F5F4F2D913C911197420F4E
:10546000531F5183408312962D913C9133832283A5
:10547000009709F0ADCFF093A701E093A60198CF74
:10548000DE01EC01C3CF13961C921E921297D4CF6B
:10549000FC014150504030F001900616D1F7319791
:1054A000CF010895882799270895FB01DC0104C0E6
:1054B0008D910190801921F441505040C8F7881B0C
:1054C000990B0895F999FECF92BD81BDF89A99275D
:1054D00080B50895A6E1B0E044E050E00C949C2A29
:1054E000A8E1B0E042E050E00C949C2A262FF99904
:1054F000FECF92BD81BDF89A019700B4021639F033
:105500001FBA20BD0FB6F894FA9AF99A0FBE089503
:105510000396272F0E94772A0E94762A252F0E9421
:10552000772A242F0C94772A0196272F0E94772A16
:105530000C94762ADC01CB01FC01F999FECF06C060
:10554000F2BDE1BDF89A319600B40D924150504041
:10555000B8F70895052E97FB1EF400940E94C12A07
:1055600057FD07D00E94DC2A07FC03D04EF40C94B0
:10557000C12A50954095309521953F4F4F4F5F4F31
:10558000089590958095709561957F4F8F4F9F4FAF
:1055900008950E94FE2AA59F900DB49F900DA49F90
:1055A000800D911D11240895B7FF0C94C92A0E9403
:1055B000C92A821B930B0895A1E21A2EAA1BBB1BBA
:1055C000FD010DC0AA1FBB1FEE1FFF1FA217B307CF
:1055D000E407F50720F0A21BB30BE40BF50B661FE5
:1055E000771F881F991F1A9469F7609570958095A9
:1055F00090959B01AC01BD01CF010895A29FB00120
:10560000B39FC001A39F700D811D1124911DB29FF6
:10561000700D811D1124911D0895F894FFCFFB108A
:10562000FB10041104110611041104110411FB10E4
:10563000FB100B11041104110B1145166D160E18F9
:105640006D160E18A016C1160E18BF17CC17941B96
:10565000941B091C091C671C811CCB1BCB1B8C1CBD
:10566000F91C0A1D0A1D6F267326DF26FA26052758
:105670002427272768278927F726F726942797279F
:0C5680009B27C027E127E427E6270A2823
:10568C000100000000004F032000D3057B0C5A0CD6
:10569C00560C520C01191A1B1C1D1E1F2021220115
:1056AC00020101818283E200E900EA00B500B60044
:1056BC00B700CD008301CC008A0192019401210234
:1056CC00230224022502260227022A02B300B40078
:1056DC006F007000C63031323336F7F6F5F4F190C6
:1056EC00919293959496973435000102020202062A
:1056FC0006060909090909090F0F0F0F0F0F1515D8
:10570C0015181919191919191919191923242525D5
:10571C00252525254022B684016201AC007007893D
:04572C0007A90700C2
:00000001FF
