:100000000C9483040C94CA040C94CA040C94CA047F
:100010000C94CA040C94CA040C94CA040C94CA0428
:100020000C94CA040C94CA040C94A6240C94622464
:100030000C94A1250C94CA040C94CA040C94CA0410
:100040000C94CA040C94CA040C94CA040C94CA04F8
:100050000C94C8250C947D250C94CA040C94CA04F5
:100060000C94CA040C94CA040C94CA040C94CA04D8
:100070000C94CA040C94CA040C94CA040C94CA04C8
:100080000C94CA040C94CA040C94CA040C94CA04B8
:100090000C94CA040C94CA040C94CA040C94CA04A8
:1000A0000C94CA040C94CA040C94CA0405010902F5
:1000B000A10185020901A1000509190129081500FE
:1000C0002501950875018102050109300931158165
:1000D000257F95027508810609381581257F9501D0
:1000E00075088106050C0A38021581257F95017572
:1000F000088106C0C005010980A101850319012AF4
:10010000B700150126B700950175108100C0050CD8
:100110000901A101850419012AA002150126A002E6
:10012000950175108100C005010906A1018505052D
:100130000719E029E71500250195087501810205D9
:1001400007190029EF1500250195F07501810205B9
:10015000081901290595057501910295017503910D
:1001600001C00660FF0961A1010962150026FF00B8
:100170009520750881020963150026FF00952075FA
:10018000089102C005010906A101050719E029E748
:1001900015002501950875018102950175088101F9
:1001A0000507190029FF150026FF0095067508812F
:1001B000000508190129059505750191029501753C
:1001C000039101C0000000000000000000000000DA
:1001D000000000000000000000000000000000001F
:1001E00000000000000000007E0F00D4FFFFFFC7EA
:1001F0000000007800000000000000002A2B28000A
:1002000000000000000000000000000000000029C5
:10021000000000002C1E3420212224342627252E05
:10022000362D3738271E1F2021222324252633333D
:10023000362E37381F0405060708090A0B0C0D0E69
:100240000F101112131415161718191A1B1C1D2F35
:100250003130232D350405060708090A0B0C0D0E55
:100260000F101112131415161718191A1B1C1D2F15
:100270003130354C00047F3F1F64321464321478EF
:100280003C1E1E140A0500010101010101010101CA
:100290000202020202020202020303030303030337
:1002A0000304040404040404050505050506060604
:1002B0000606070707070708080808090909090AC1
:1002C0000A0A0B0B0B0C0C0C0D0D0D0E0E0E0F0F66
:1002D0000F101011111112121313141415151616F4
:1002E0001717181819191A1A1B1B1C1D1D1E1E1F63
:1002F0002020212222232424252626272829292AB2
:100300002B2C2D2D2E2F30313232333435363738D9
:10031000393A3B3C3D3E3F404142434445464748D5
:10032000494A4C4D4E4F50515354555658595A5BAB
:100330005D5E5F616264656668696B6C6D6F70724B
:10034000737577787A7B7D7E8082838587888A8CB7
:100350008E8F91939596989A9C9EA0A2A3A5A7A9EB
:10036000ABADAFB1B3B5B7BABCBEC0C2C4C6C9CBE2
:10037000CDCFD1D4D6D8DBDDDFE2E4E7E9EBEEF098
:10038000F3F5F8FAFDFFFFAA7F5540222325262822
:10039000292A2C2D2F3032333536383A3B3D3E401A
:1003A00042434547494A4C4E5051535557595A5C60
:1003B0005E6062646668696B6D6F71737577797B77
:1003C0007D7F81838587898A8C8E90929496989A76
:1003D0009C9E9FA1A3A5A7A8AAACAEAFB1B3B4B68B
:1003E000B8B9BBBCBEBFC1C2C3C5C6C7C9CACBCCE6
:1003F000CDCED0D1D2D2D3D4D5D6D7D7D8D9D9DAB9
:10040000DADBDBDBDCDCDCDCDCDDDDDDDDDCDCDC2D
:10041000DCDCDBDBDBDADAD9D9D8D7D7D6D5D4D355
:10042000D2D2D1D0CECDCCCBCAC9C7C6C5C3C2C12A
:10043000BFBEBCBBB9B8B6B4B3B1AFAEACAAA8A787
:10044000A5A3A19F9E9C9A98969492908E8C8A893F
:10045000878583817F7D7B79777573716F6D6B691C
:1004600068666462605E5C5A5957555351504E4CF1
:100470004A4947454342403E3D3B3A3836353332A0
:10048000302F2D2C2A2928262523220000000000A9
:1004900000000000000001010203040506080A0C28
:1004A0000F1114181C2024292E33393F464C535B5E
:1004B000626A7179818A929AA2AAB2B9C1C8CFD56B
:1004C000DCE1E7EBF0F4F7FAFCFDFEFFFEFDFCFAE1
:1004D000F7F4F0EBE7E1DCD5CFC8C1B9B2AAA29A34
:1004E000928A8179716A625B534C463F39332E2977
:1004F00024201C1814110F0C0A080605040302011D
:10050000010000000000000000000029003A003C4B
:10051000003E004000420044004600480000003B0E
:10052000003D003F0041004300450047000000350A
:10053000001F0021002300250027002E0049004B4A
:10054000001E0020002200240026002D002A004A60
:100550000000002B001A0015001C000C00130030D6
:10056000004C004E00140008001700180012002F65
:100570000031004D0000003900160009000B000E8C
:100580000033004C0000000000040007000A000DCA
:10059000000F003400280000000000E1001D0006EC
:1005A00000050010003700E5000000000031001BCE
:1005B0000019001100360038004C0052000000E025
:1005C00000E20000002C000000E600650050004F33
:1005D00000E3000000000000000000E700E400511C
:1005E0000000000100010001000100010001000104
:1005F00000010001000000010001000100010001F4
:1006000000010001000000010001000100010001E3
:1006100000010001000100010001000100010001D2
:1006200000010001000100010000000100010001C3
:1006300000010001000100010001000100010001B2
:1006400000010001000100010001000100000001A3
:100650000001000100010001000100010000000094
:100660000001000100010001000100010001000083
:100670000000000100010001000100010001000173
:100680000000000000010001000100010001000164
:100690000001000100000001000100000001000055
:1006A0000001000100010001000100000000000045
:1006B0000000000100010001000000010001000134
:1006C0000001000100010001000100010000000123
:1006D0000001000100010001000100010000000113
:1006E0000001000100010001000100010001000102
:1006F00000010001000100010001000100010001F2
:1007000000000001000100010001000100010001E2
:1007100000010001000100010001000100010001D1
:1007200000010001000000010001000100010001C2
:1007300000010001000000000001000100010001B3
:1007400000010001000100000000000100010001A3
:100750000001000100010001000000000001000193
:100760000001000100010001000100010000000182
:100770000001000000010000000100010001000173
:100780000001000000000000000000010001000165
:100790000000000100010001000100010001000152
:1007A0000001000100000001000100010001000142
:1007B0000001000100000001000100010001000132
:1007C0000001000100010001000100010001000121
:1007D0000001000100010001000000010001000112
:1007E0000001000100010001000100010001000101
:1007F00000010001000100010001000100000001F2
:1008000000010001000100010001000100000000E2
:1008100000010001000100010001000100010000D1
:1008200000000001000100010001000100010001C1
:1008300000000000000100010001000100010001B2
:1008400000010001000000010001000000010000A3
:100850000001000100010001000100000000000093
:10086000000000010001000100000009025B00031C
:100870000100A0FA0904000001030101000921118F
:10088000010001224000070581030800010904015D
:1008900000020300000009211101000122220007CB
:1008A000058203200001070503032000010904025B
:1008B00000010300000009211101000122B6000718
:1008C000058403200001120100020000000803A1BA
:1008D000050001000102000116034B004200440024
:1008E000380058002D004D004B0049004900000021
:1008F00010034B0042004400660061006E0073006C
:1009000000000403090411241FBECFEFDAE0DEBFAC
:10091000CDBF04B603FE27C0809125039091260326
:10092000A0912703B09128038730904BA740B04B8C
:10093000D1F41092250310922603109227031092EF
:10094000280314BE84B7877F84BF0FB6F894A89598
:1009500080916000886180936000109260000FBEFB
:10096000E0E0F8E3099511E0A0E0B1E0E2EAFDE59E
:1009700002C005900D92A03AB107D9F723E0A0EA92
:10098000B1E001C01D92A532B207E1F70E942D2609
:100990000C94522E0C940000E8EDF0E080818E7FE4
:1009A00080831092E2001092DA001092E100A0EE33
:1009B000B0E08C9181608C9380818F77808319BCAB
:1009C000A7EDB0E08C918E7F8C9380818F7E8083A9
:1009D0001092F20208952091E4003091E50095E62E
:1009E000A9012091EC00822F817020FF06C0809128
:1009F000E80080FF06C080E008952091E80022FD15
:100A00001AC080911703882389F0853089F080917E
:100A1000EB0085FD0FC02091E4003091E500421706
:100A20005307F9F29150E1F684E0089582E00895C9
:100A300083E0089581E00895EF92FF920F931F9352
:100A4000CF937C018B010E94EB04C82F811117C04A
:100A50008091E80085FD0BC08091E8008E7780933F
:100A6000E8000E94EB04882399F3C82F08C0F7011F
:100A700081917F018093F1000150110949F78C2F7A
:100A8000CF911F910F91FF90EF90089580911903DE
:100A900087FF13C08091E80082FF06C08091E800C4
:100AA0008B778093E80004C0809117038111F2CF07
:100AB0000895809117038823D9F38091E80080FF7F
:100AC000F8CF8091E8008E77ECCF982F9093E900D3
:100AD000242F762F50E0891731F07091EC0020918F
:100AE000ED005091F00021FD07C09F5F973071F736
:100AF0008093E90081E008953091EB003E7F3093D0
:100B0000EB003091ED003D7F3093ED003091EB0034
:100B100031603093EB007093EC002093ED00509324
:100B2000F0002091EE0027FDE0CF80E00895CF9205
:100B3000DF92EF92FF920F931F93CF93DF93C8ED55
:100B4000D0E088818F7E8883E7EDF0E0808181604E
:100B5000808384E082BF81E08093F20288818E7F6F
:100B6000888302EE10E0F80110821092DA0081EE24
:100B7000C82ED12CF601108288818F7788838881D6
:100B80008068888388818F7D888319BC10921703C1
:100B900010921803109216031092150390EEE92E8E
:100BA000F12CF70180818B7F80838881816088832D
:100BB00042E060E080E00E946505F60180818E7F62
:100BC0008083F80180818160808380818860808358
:100BD000F70180818E7F8083888180618883DF91A7
:100BE000CF911F910F91FF90EF90DF90CF900895DC
:100BF000FC0180911F039091200386179707A0F0B6
:100C00006115710529F49091E8009E779093E800B2
:100C100090E06115710551F4911108C08091E800D0
:100C200082FF34C080E00895BC01F2CF80911703A9
:100C30008823C1F18530C1F18091E80083FD30C087
:100C40008091E80082FDEACF8091E80080FFE1CF4B
:100C50008091F3002091F200382F6115710519F091
:100C60002830310558F091E02830310509F090E046
:100C70002091E8002E772093E800CBCF81918093DC
:100C8000F100615071092F5F3F4FE7CF809117034B
:100C9000882341F0853041F08091E80083FFBECF8A
:100CA00081E0089582E0089583E008958091F40240
:100CB00008959C014FB7F8948091E9029091EA025F
:100CC000A091EB02B091EC024FBF821B930B0895F1
:100CD0002FB7F8948091E9029091EA02A091EB027B
:100CE000B091EC022FBF08952091E6023091E70207
:100CF0002817390771F09093E7028093E602E0919C
:100D0000E402F091E502309721F00084F185E02DB6
:100D1000099408952091E2023091E30228173907DF
:100D200071F09093E3028093E202E091E402F0918B
:100D3000E502309721F00680F781E02D09940895AF
:100D4000E091E402F091E502309721F00190F0810A
:100D5000E02D099480E00895CF92DF92EF92FF9208
:100D60008C3724E1920750F469E070E00E94342C43
:100D7000CB01FF90EF90DF90CF900895B0E0A0E01E
:100D8000BC01CD016A50774D8F4F9F4F982F872F11
:100D9000762F662725EF38E241E050E00E945C2C78
:100DA00069017A01CA01B9010E94162C9B01AC01AC
:100DB000C701B6010E94162C672F782F892F99271B
:100DC0006115710521E08207910591F66FEF7FEFC4
:100DD000CFCF8430E0F481111BC090918000977FC9
:100DE000909380002F98282F30E0AFEFBFEF0E9444
:100DF000932C23E030E040E050E00E945C2CC901DD
:100E00000E94AC0690938D0080938C00089583E03F
:100E100090918000986090938000E5CF282F220F5A
:100E2000220F220F9091DE029770922B9093DE0298
:100E3000987F21E009F420E09091DE0220FB90F9F8
:100E40009093DE020C94E906FA01811101C0FB01C6
:100E5000099408958091D902982F9E7F61F4817042
:100E600082608093D9028091DC02893C18F088EC82
:100E70008093DC0208958A34B0F381708864F1CFE6
:100E8000AF92BF92DF92EF92FF920F931F93CF9397
:100E9000DF93082F162FE901E42FF0E0EA57FD4F0A
:100EA000611110C0E4915E2F4E2F4983E8835A836D
:100EB000DF91CF911F910F91FF90EF90DF90BF9046
:100EC000AF900895E62EF12C4491D42EE42FF0E05B
:100ED00026E0829FC00111242FEF30E0B9010E946B
:100EE000342C802F90E0880F991F55E5569FD00134
:100EF000579FB00D11248A1B9B0B982F990F890FB8
:100F00005901AE18BF08AE9ED001AF9EB00DBE9E77
:100F1000B00D11245B2F189F80011124012F112780
:100F20005901A01AB10AAE9E8001AF9E100DBE9E5F
:100F3000100D11245901A81AB108AE9CC001AF9C34
:100F4000900DBE9C900D1124892F9927281B390BD9
:100F50002E9FC0012F9F900D3E9F900D1124E92FD1
:100F600062307105A1F050F46115710509F49DCF4F
:100F70006130710581F0EB2F512F97CF64307105EF
:100F800069F080F06630710509F48FCFF4CFE42F5B
:100F90004B2F592F8ACFE42F412F87CFEB2F542F80
:100FA000492F83CF4B2F5D2DE12F7FCF0E94680605
:100FB0009C0190918E0280918F02982B21F03093AA
:100FC0008B0220938A029091900280919102982B3B
:100FD00021F03093890220938802E091E402F0919D
:100FE000E502309749F082E080938C020480F5811D
:100FF000E02D8CE892E00994089540918E02803FA4
:1010000059F480918F0287FF0DC010928F02411119
:101010000BC01092860208C0813F81F480918F023C
:1010200018169CF3442381F08091900290919102D4
:10103000892B09F05AC0109285020895823F49F425
:1010400047FFF0CF10928E0280918F028111ECCF7A
:10105000E0CF833F19F41416ACF3E4CF90919002E3
:10106000893F29F41916F4F610929002DBCF8A3FDB
:1010700019F497FFD7CFF8CF909191028B3F29F4C5
:1010800097FFD0CF10929102CDCF8C3F19F4191653
:10109000CCF3C8CF9CE0980F953090F4845F990B07
:1010A00021E030E0B90102C0660F771F8A95E2F7B0
:1010B000CB01809590918D02892380938D02B2CFD0
:1010C0008D3F31F4809187028E7F80938702AACF73
:1010D0008E3F21F4809187028D7FF7CF8F3F09F0FB
:1010E000A1CF809187028B7FF0CF089580918702F6
:1010F00080FF0CC06091150170E07595679575953E
:1011000067956115710549F1862F089581FF06C025
:101110006091150170E075956795F3CF60911501A9
:1011200082FD0BC0909185029923A1F0609114017A
:1011300080911501961738F0682F70E060387105BE
:1011400000F38FE70895899FC001112470E00E9489
:10115000482CF4CF61E070E0D7CF81E00895809112
:10116000870280FF12C06091130185E0689FB00183
:101170001124759567957595679560387105A8F583
:1011800061157105A1F1862F089581FF09C0609155
:10119000130185E0689FB001112475956795EDCF27
:1011A0006091130182FD0AC0809186028823D1F0EC
:1011B0009091120160911301891728F085E0689FD2
:1011C000B0011124DACF869FB001112485E0869FFB
:1011D0009001879F300D1124692F70E0C9010E9492
:1011E000482CCBCF65E070E0CECF8FE7089581E04B
:1011F0000895803F31F40E94AF08819580938F025B
:101200000895813F19F40E94AF08F8CF823F31F46E
:101210000E94AF08819580938E020895833F19F450
:101220000E94AF08F8CF893F29F40E947608809386
:10123000900208958A3F21F40E9476088195F7CFA5
:101240008B3F31F40E947608819580939102089536
:101250008C3F19F40E947608F8CF9CE0980F9530E7
:1012600070F4845F990B21E030E001C0220F8A9571
:10127000EAF780918D02822B80938D0208958D3F35
:1012800031F48091870281608093870208958E3FB8
:1012900021F4809187028260F7CF8F3FB9F7809168
:1012A00087028460F1CF80E00895F894E82FE295FA
:1012B000EF70F0E031A1282F2F7081E090E001C0A5
:1012C000880F2A95EAF7982F9095932391A392A1DE
:1012D000892B82A3789408959091ED0292FF06C025
:1012E000282F28712830F9F4877F846093FF06C087
:1012F000282F28712831F1F4877E84612091EE0235
:1013000020FF06C0382F38713830D9F4877F8160CC
:1013100021FF06C0282F28712831D1F4877E8161F2
:1013200094FD877E0895282F24712430F9F68B7F51
:101330008860DCCF282F2471243101F78B7E8861EF
:10134000DDCF382F3171313019F78E7F8860E0CFD3
:10135000282F2171213121F78E7E8861E1CFCF9333
:10136000DF93EC0182389105A9F1D8F5813391051D
:1013700009F496C048F58932910509F48AC08A9724
:1013800009F495C0C11521E5D20708F0BCC0C1150C
:1013900030E5D30708F014C1C83ED10508F09CC061
:1013A000C03ED10560F5C83AD10508F087C0C53AFE
:1013B000D10508F0FDC0C130D10509F12097F9F041
:1013C000C430D105E0F440C08533910509F45AC01A
:1013D000C997C1F68091ED02837089F0C0EED0E02C
:1013E0000EC0833E910599F170F4803E910501F1A4
:1013F000823E910539F68091ED0282FD21C0CE0139
:10140000DF91CF910895863E910561F1873E910568
:1014100071F1843E910509F0B5CF8091EE0281FF14
:10142000EECF8091ED02C7EED0E084FD0DC0E7CF96
:101430008091ED0280FD12C19091EE0290FFDFCF0E
:10144000C3EED0E084FFDBCFD0E0C0E0D8CF809106
:10145000ED0282FD06C19091EE0290FDBFCF84FFA8
:10146000CECFF2CF8091ED0283FDDDCFC8CF80914A
:10147000ED0283FDF9C09091EE0291FFF0CFC4EE32
:10148000D0E0BDCF8091ED0285FFB9CFC9E2D0E0B9
:10149000B6CF8091ED0285FFB2CFC5E3D0E0AFCFEC
:1014A0008091ED0286FFABCFCAE2D0E0A8CF809159
:1014B000ED0286FFA4CFC1E3D0E0A1CFCF3BD105A1
:1014C00018F6C85AD0E0CC0FDD1FC85DDE4F09907A
:1014D000D881C02DD46493CFC11540E2D40758F40D
:1014E000C11581E0D80708F08ACFC03FD10508F4C4
:1014F000ABCFD06584CFC11590E4D90708F4A4CF51
:10150000DF70D06A7CCFC11525E5D20700F5C11583
:1015100034E5D30708F08AC0C11543E5D40708F0C5
:1015200071C0C11582E5D80708F467C0CE01837089
:10153000992721E030E002C0220F331F8A95E2F79D
:10154000C695C69580E2C89FE001112452C0C1151E
:1015500099E5D907A8F4C11528E5D20708F06BC0B2
:10156000C11536E5D30708F06FCF8C2F0E946C09A8
:10157000C82FD0E0DC2FCC27CC27DF71D0623FCF43
:10158000C1154AE5D40708F45BC0CE019056811519
:10159000904208F059CF8D2F8F710E946C0990E016
:1015A000982F882788279F719C012C2BE901E6CF73
:1015B000C55AD0E0CB5DDE4FC881D0E0D0641FCFEC
:1015C000CE01E4E096958795EA95E1F783702C2F9C
:1015D00026952695237040E2249F90011124382BF4
:1015E0008C2F8370C1E0D0E002C0CC0FDD1F8A9544
:1015F000E2F7C22BD32BDC6802CFDC2FCC27C16FE4
:10160000D06AFDCECE018370992721E030E002C080
:10161000220F331F8A95E2F7C695C69590E2C99FBF
:10162000E0011124C22BD32BDA68E9CEDC2FCC27C2
:10163000C46FD06AE4CEDC2FCC27C06FD06ADFCE77
:101640008C2F8F700E946C0934E0D695C7953A951F
:10165000E1F7CF709C2FEC01D069D1CEC9E3D0E087
:10166000CECEC2EED0E0CBCEC6EED0E0C8CE8091DA
:101670003002811110923002089580912F029091D2
:101680002E02892B90912D02892B8093A601909197
:1016900030029923A1F0892B8093A6018091240127
:1016A000882341F18091ED0287FF24C08EE1E8EAB2
:1016B000F1E090E0815000F591110E94370BE0912C
:1016C000E402F091E5023097E1F080912401882353
:1016D00059F08091ED0287FF07C08091A6018093A9
:1016E000A70185E08093A6010280F381E02D86EAC0
:1016F00091E0099486E0DBCF21912223D9F29F5F0C
:10170000D9CF0895909124019923D1F09091ED02C1
:1017100097FF16C0E82FE695E695E695EE31E0F4E2
:10172000F0E0EA55FE4F282F277081E090E001C0DD
:10173000880F2A95EAF780959281892382830895FC
:10174000E8EAF1E09191891303C0DF0111971C923F
:1017500091E0EE3AF907B1F70895909124019923A9
:10176000C1F09091ED0297FF14C0E82FE695E69541
:10177000E695EE31F8F4F0E0EA55FE4F877021E08F
:1017800030E001C0220F8A95EAF78281822B8283A2
:101790000895A8EAB1E0EFEF90E02D91821751F0A3
:1017A000EF3F19F4211101C0E92F9F5F9630A9F78F
:1017B000EF3F09F408950E2E000CFF0BEA55FE4F83
:1017C000E6CF80912B029091FA01981301C0089501
:1017D0008F5F8770FACF29E0929F800D1124982F98
:1017E000977086958695869523E0829FF001112457
:1017F000E653FE4F50E040E080E0219130E0092EBA
:1018000002C0369527950A94E2F721703327042EFB
:1018100001C0220F0A94EAF7822B4F5F5F4F4330DB
:10182000510559F7089529E0929F800D1124982FB2
:10183000977041E001C0440F9A95EAF78695869526
:10184000869593E0899FF0011124E653FE4F90E0C6
:1018500080E070E05191DF0111979B01082E02C0DA
:10186000369527950A94E2F72170219525272423A0
:1018700025272C9301968330910561F7089590E018
:1018800080E00E948A0690E080E00E947406109238
:101890002E0210922D020E943D0B86E0ECE8F2E051
:1018A000DF011D928A95E9F7109286021092850257
:1018B000109287020C94D607809324030C943F0C5B
:1018C00080912403982F9670963019F488600C94B8
:1018D0005C0C877FFCCF21E030E001C0220F8A95AD
:1018E000EAF720958091240382230C945C0C90915C
:1018F0002C028095892380932C02282F277039F49D
:10190000282F082E000C330B9217130621F4909108
:10191000EE0292FF07C08595859585950E946B0C18
:1019200010922C02089521E030E001C0220F8A9528
:10193000EAF780912403822B0C945C0C8093310293
:101940000C943F0C882341F0809590912F028923BD
:1019500080932F020C943D0B0895882339F09091C9
:101960002F02982B90932F020C943D0B08958823FF
:1019700009F459C0823871F40E94A00681FF53C057
:1019800089E30E94AD0B0E943D0B89E30E94820B0C
:101990000C943D0B833859F40E94A00680FF43C08D
:1019A00083E50E94AD0B0E943D0B83E5EFCF8438A9
:1019B00059F40E94A00682FF36C087E40E94AD0B56
:1019C0000E943D0B87E4E2CF9CEF980F913AF0F232
:1019D00090E2980F983088F4877021E030E0A901F8
:1019E00002C0440F551F8A95E2F7CA018095909175
:1019F0002F02892380932F02CBCF9BE5980F933042
:101A000020F490E080E00C948A0698E5980F9731D6
:101A100020F490E080E00C947406803F20F00E9457
:101A2000FD070C94D6070895809581FF05C0769A2E
:101A300082FF04C02A9A08957698FACF2A980895CA
:101A400090911703943029F58093EF027093F1027F
:101A50006093F0029093E9008FEF9091E80081503D
:101A600095FD06C095ED9A95F1F700008111F5CF2F
:101A70008091E80085FF0DC050E040E063E070E039
:101A80008FEE92E00E941C058091E8008E77809393
:101A9000E8000895BC0184E00C94200DBC0183E0B3
:101AA0000C94200D9C0184E08093E9009FEF8091CD
:101AB000E800915085FD06C085ED8A95F1F700009C
:101AC0009111F5CF8091E80085FF0CC050E040E017
:101AD00066E070E0C9010E941C058091E8008E77E5
:101AE0008093E8000895CF93DF93EC018091240167
:101AF0008823B1F18091ED0287FF32C060E284E07B
:101B00008093E9008FEF9091E800815095FD06C029
:101B100095ED9A95F1F700008111F5CF8091E800DD
:101B200085FF1BC08091240170E050E040E08111EE
:101B300004C050E040E068E070E0CE010E941C0567
:101B40008091E8008E778093E80080E2FE01A5EFA7
:101B5000B2E001900D928A95E1F7DF91CF9108955F
:101B600068E081E0CDCF81E08093E00080E2809367
:101B7000D8001092C9008FE19EE40197F1F700C0F0
:101B8000000087E090EBDC0180932503909326030F
:101B9000A0932703B093280388E19CE00FB6F89444
:101BA000A895809360000FBE90936000FFCF809156
:101BB000D90280FD0AC0EDE9F2E0118210821282A2
:101BC000339652E0E93DF507C1F7239A35B1377FE7
:101BD00025B128604FB7F8948DE992E0FC0151914E
:101BE000CF0168E025B9000000C057FF35B9550F97
:101BF000000000C000C000C035B900C06A9591F770
:101C0000F2E0893D9F0751F74FBF8FE594E00197C0
:101C1000F1F700C000000895EF92FF920F931F9319
:101C2000CF93DF938C01CDE9D2E0F12CE12CF801C8
:101C300094816091DB028091DA02FAE0EF16F10400
:101C400014F5992311F14091DC02493C08F048EC6D
:101C50009E010E9440072FEFE21AF20A239684E1C8
:101C6000E816F10421F70E94D70DF801848190E075
:101C70000196817099278483DF91CF911F910F91F5
:101C8000FF90EF9008959923F1F29E0140E0E1CF9B
:101C90008F929F92AF92BF92CF92DF92EF92FF927C
:101CA0000F931F93CF93DF93EC014C81042F10E02F
:101CB0009801D8010E94932C9B01AC010E94A92C91
:101CC0004B015C01E0E2F0E0E01BF10BA5E5B0E0C8
:101CD000AC019B010E94A92C6B017C019F01DF01DB
:101CE0000E948B2C9B01AC010E94B42C9B01AC0187
:101CF000280D391D4A1D5B1DC701B6010E945C2CD1
:101D0000F22E822F90E039E23F1508F43EC043E006
:101D1000249F9001112435952795122F10959DE948
:101D2000C92E92E0D92E00E085E5E82EEF188E2D21
:101D300001FD8F2D412F193C08F048EC9601609170
:101D4000DB020E9440070F5F53E0C50ED11C043137
:101D500071F70E94D70D9C8181E0992319F0903290
:101D600019F48FEF8093230180912301890F8C83D5
:101D7000DF91CF911F910F91FF90EF90DF90CF9067
:101D8000BF90AF909F908F90089525E530E0A90116
:101D9000481B590BCA019A01220F331F280F391F04
:101DA00037FFB9CF2F5F3F4FB6CF0F931F93CF931E
:101DB000DF93CDE9D2E0FE011182108212823396C8
:101DC00082E0E93DF807C1F710E000E080919B0256
:101DD000082E000C990B08171907A4F18091220115
:101DE000082E000C990B8017910764F14091DC02DA
:101DF000493C08F048EC9E016091DB028091DA02D8
:101E00000E9440070F5F1F4F239604311105F1F622
:101E10000E94D70D8091210190919B02980F909381
:101E20009B0220912201280F20932201121614F404
:101E300093311CF0819580932101DF91CF911F9107
:101E40000F910895198218821A82DCCFBF92CF9227
:101E5000DF92EF92FF920F931F93CF93DF93FC01DA
:101E60008281DD24DA9480FD02C0DD24D3940DE963
:101E700012E0D0E0C0E024E1B22EF801118210821D
:101E8000128294E0E92EF12CC12C80919A028C0DE3
:101E900085310CF440C06B2D0E94262C892F082E12
:101EA000000C990B8C179D07A9F48091DC028E9D84
:101EB000A0018F9D500D1124559547955595479537
:101EC000493C08F048EC98016091DB028091DA020D
:101ED0000E944007CD0CF1E0EF1AF108B1F621960F
:101EE0000D5F1F4FC431D10541F60E94D70D80917F
:101EF0009A0291E0D91215C0811111C083E180933B
:101F00009A02DF91CF911F910F91FF90EF90DF9098
:101F1000CF90BF90089587FFC2CF8C5EC0CF815015
:101F2000EECF90E00196BE010E94482CE8CFEF92E0
:101F3000FF921F93CF93DF93EC018DE9E82E82E0AF
:101F4000F82E10E04091DC02493C08F048EC8C810E
:101F500097016091DB02810F0E944007145F83E0CC
:101F6000E80EF11C103F71F70E94D70D9A818C8109
:101F700090FF08C08F5F8C83DF91CF911F91FF90FE
:101F8000EF9008958150F7CF9091D90290FF0CC047
:101F9000EDE9F2E0818360834283339692E0E93D8C
:101FA000F907C1F70C94D70D08950F931F93CF93A2
:101FB000DF9300D00F92CDB7DEB78C0180919C02E9
:101FC00081110AC09E012F5F3F4F48EC6FEF0E94C6
:101FD00040078A8180939C02F8016481613069F036
:101FE00080919C0240E0662361F040E0623011F491
:101FF00040919C0280E060E004C060919C0240E05F
:1020000080E00E94C40FF801848190E0019663E0B3
:1020100070E00E94482C84830F900F900F90DF9106
:10202000CF911F910F910895CF93DF9300D00F921E
:10203000CDB7DEB79091D90290FF0DC0493C08F0B2
:1020400048EC9E012F5F3F4F0E9440074B81698102
:102050008A810E94C40F0F900F900F90DF91CF9153
:102060000895CF93DF93EC01E9EDF2E043816281C3
:102070008C810E9414108C818F5F8C83DF91CF91B3
:102080000895CF93DF93EC01EC81F0E0E557FC4F2E
:102090004491E9EDF2E0628181810E9414108C810B
:1020A0008F5F8C83DF91CF910895CF93DF93C7E843
:1020B000D3E060E0CE010E94DC2C2196C11584E0C3
:1020C000D807B9F7DF91CF9108956F927F928F92E1
:1020D0009F92AF92BF92CF92DF92EF92FF920F93B7
:1020E0001F93CF93DF938BE0C82E85E0D82E91E12C
:1020F000E92EFF24F394E701C85DD10936011BC026
:10210000F50185909490692DC8010E94DC2C682D02
:10211000C80101960E94DC2C82E0A80EB11C0E5F63
:102120001F4FC017D10761F782E1680E711C6296DC
:10213000CE15DF0529F08E01025111095301E0CFC0
:102140007E0188EDE80EF11C88EDC80ED11C81E7F8
:10215000E81684E0F80679F6DF91CF911F910F9190
:10216000FF90EF90DF90CF90BF90AF909F908F90B7
:102170007F906F900895CF93C82F6FEF811161E228
:1021800083E290E00E94DC2C6FEFC11169E084E2F1
:1021900090E00E94DC2C6FEFC11166E085E290E0D8
:1021A000CF910C94DC2C80E00E94BB1060E086E2B2
:1021B00090E00E94DC2C0E9465100E94551081E086
:1021C0000C94BB10682F86E090E00C94DC2C80917E
:1021D000DE0281FF11C08D7F8093DE020E94E2103B
:1021E00080916F008E7F80936F008091DE028695D4
:1021F000869586950C94E90608958091DE0281FD0E
:1022000010C082608093DE020E94E2101092E10210
:102210001092E0021092DF0280916F008160809343
:102220006F000895CF93C92F682F84E090E00E943B
:10223000DC2C6C2F82E290E0CF910C94DC2C9091FE
:10224000EE0292FB222720F9281751F080FB92F929
:102250009093EE028091ED029091EE020C94121197
:1022600008950F931F93CF93DF93C42FD0E0CC0F2B
:10227000DD1F22E1629FC00DD11D112438ED839F27
:10228000C00DD11D1124CE0187960E94C82C082FA5
:1022900010E0102F0027CE0188960E94C82C9801CC
:1022A000282BC901DF91CF911F910F910895462FDF
:1022B000843038F47C3028F4693018F4672F0C949B
:1022C000311190E080E00895CF92DF92FF920F935A
:1022D0001F93CF93DF936C0100912403809131020F
:1022E000082BC7E0D0E010E0FC2EC8010C2E02C085
:1022F000959587950A94E2F780FD0CC02197A0F789
:10230000F12C8F2DDF91CF911F910F91FF90DF90D6
:10231000CF900895B6018C2F0E9457110E94AF09EB
:10232000019761F3EECFCF93DF93EC010E9464112C
:10233000BE010E945711DF91CF910C94AF09FC01AF
:10234000808191810E949311292F2F7092959F7007
:1023500092509E3078F4E92FF0E0EC5AF14D0C9455
:102360007E2C803F19F020F4883E20F481E008950F
:10237000843FE1F380E00895883EC0F3813FD1F7C8
:10238000F5CF822F869586958695089583E290E015
:102390000E94C82C813289F484E290E00E94C82C0B
:1023A000893059F485E290E00E94C82C91E0863093
:1023B00009F090E0892F8170089580E0FCCFCF93E1
:1023C00084E090E00E94C82CC82F82E290E00E9436
:1023D000C82C982F8C2FCF9108956091D9026695C3
:1023E00070E04BE050E086E191E00E94382E892BAE
:1023F00019F481E0809399020E94680690939302F9
:10240000809392020895CF92DF92EF92FF926B0138
:102410007C010E942A07B701A60188E090E0FF90A6
:10242000EF90DF90CF900C94EE2C5F926F927F92A2
:102430008F929F92AF92BF92CF92DF92EF92FF92D4
:102440000F931F93CF93DF9300D00F92CDB7DEB7DA
:10245000082F762E142F622E9091D90290FF2DC056
:10246000E92FE695AE2FB0E0A559BE4F8C91809331
:1024700098029E7F9230A1F5493C08F048EC9E01FD
:102480002F5F3F4F672D802F0E9440074B8169814E
:102490008A810E94C40F0093DA027092DB021093CB
:1024A000DC02662051F06091D9027091DA028091CD
:1024B000DB029091DC020E9403120F900F900F90AC
:1024C000DF91CF911F910F91FF90EF90DF90CF9010
:1024D000BF90AF909F908F907F906F905F90089586
:1024E000823019F41091DC02D6CF863019F40091B5
:1024F000DA02D1CF8930D9F3893169F6E9518E2FCB
:102500008170582EE695F0E0EA57FC4FA590B49004
:10251000BB248DE9E82E82E0F82ED12CC12C94E169
:10252000892E912CC601B4010E94342C802F5110A9
:1025300016C0860F412F193C08F048EC9701672D13
:102540000E944007CA0CDB1C83E0E80EF11C89EDF9
:10255000E81682E0F80631F70E94D70D9CCF861B63
:10256000E9CFE9EDF2E0438128E0421B08F440E0C6
:1025700021E0628181810C941512E9EDF2E0438142
:1025800028E0420F08F44FEF21E0628181810C9432
:102590001512E9EDF2E0628128E0621B08F460E0C8
:1025A00021E0438181810C941512E9EDF2E0628112
:1025B00028E0620F08F46FEF21E0438181810C94E1
:1025C0001512E9EDF2E0818121E0438162818850BA
:1025D0000C941512E9EDF2E0818121E043816281E2
:1025E000885F0C9415128091DD02882319F08150C8
:1025F0008093DD026091D9027091DA028091DB0252
:102600009091DC020C9403128091DD02833018F467
:102610008F5F8093DD026091D9027091DA02809120
:10262000DB029091DC020C9403129091D90290FF8E
:1026300036C09170811129C092609093D9026623AF
:1026400051F06091D9027091DA028091DB02909191
:10265000DC020E9403126091D902669570E04BE0A3
:1026600050E086E191E00E94382E892BA9F010926B
:10267000990281E08093950220E04091DC02609114
:10268000DB028091DA020C941512853210F0986406
:10269000D4CF880F982BD1CF0E94ED11EACF0895A7
:1026A0008091D9028695815009F484E261E00C940E
:1026B00015138091D90286958F5F853208F081E0ED
:1026C00061E00C9415139091D90290FF07C0969584
:1026D000981720F0961710F40C94591361E00C949D
:1026E0001513E9EDF2E083E0808311828FEF82839E
:1026F00088EC8383148260817181828193810C9440
:10270000031269EE7EEF90E080E00E94FA2C60E018
:1027100082E090E00E94DC2C60E083E090E00E9488
:10272000DC2C1092310260E084E090E00E94DC2C0E
:1027300060E082E290E00E94DC2C60E085E090E0C6
:102740000E94DC2C60E086E090E00E94DC2C6FEFC1
:1027500087E090E00E94DC2C40E050E0BA0188E085
:1027600090E00E94EE2C60E08DE090E00E94DC2C76
:1027700040E050E0BA0188E190E00E94EE2C60E079
:1027800087E190E00E94DC2C40E050E0BA018CE14F
:1027900090E00E94EE2C70E060E080E290E00E9409
:1027A000FA2C40E050E0BA0188E190E00E94EE2C63
:1027B00080E00E94BB100E94D31040E050E0BA01BC
:1027C0008FE090E00E94EE2C40E050E0BA0183E1FF
:1027D00090E00C94EE2C2F923F924F925F926F926A
:1027E0007F928F929F92AF92BF92CF92DF92EF92A1
:1027F000FF920F931F93CF93DF93CDB7DEB7689708
:102800000FB6F894DEBF0FBECDBFAE014F5F5F4F76
:102810006A0188E1DA011D928A95E9F706E511E07F
:102820007A01AA24A394B12CF80181918F018F3FE2
:1028300009F44BC0F894E82FE295EF70F0E021A185
:102840008F70A50102C0440F551F8A95E2F7CA0197
:10285000922F982B91A392A18095892382A378949B
:1028600000C0E2E6F1E030E020E0912C812C819183
:102870008F3F09F4ACC0A82FA295AF70B0E090963E
:102880004C9150E08F7002C0559547958A95E2F7BC
:1028900040FD9DC0C501022E02C0880F991F0A94F9
:1028A000E2F7882A992A2F5F3F4F29303105F9F640
:1028B000F801319780818F3F11F00E94550950EA4D
:1028C0005A95F1F7D7018D929C92B2E0EB0EF11C74
:1028D000E1E002361E0709F0A7CF48E150E0B6015B
:1028E00087E392E00E94452E8C01FF24F394892B0C
:1028F00009F4F12C0115110541F088E1F601A7E377
:10290000B2E001900D928A95E1F750903402552083
:1029100009F46AC00E9468062091320230913302A5
:10292000AC01421B530B9A01909333028093320205
:102930004F3F510511F008F04DC0452B09F444C03C
:10294000E22E109234022091350230913602EBE6ED
:10295000F2E067E372E039015CE6650E711C412C20
:1029600088248394912C190150E040E0D101DD903E
:102970001D01DD20D1F0CD010197ED1470F1DC01D6
:102980001C92C080D180DB018D919C918C259D256E
:102990005401042E02C0AA0CBB1C0A94E2F78A213F
:1029A0009B218C259D25918380834F5F5F4F49300C
:1029B0005105E1F6275F3F4F32966E5F7F4F6216FB
:1029C000730689F640923402012BB1F44DC090E0B9
:1029D00080E067CF2FEF30E0B3CFDE18DC01DC9270
:1029E000452CE3CF108233C0012BF1F10E94680621
:1029F0009093330280933202209135023091360257
:102A000060913402A7E3B2E08BE6C82E82E0D82EB4
:102A1000AA24A394B12C75E04D915D91F6018191AA
:102A200091916F0148275927F90190E080E08501D5
:102A3000082E02C0000F111F0A94E2F70423152389
:102A4000012B81F21081111102C0708361E0319677
:102A500001968930910559F7275F3F4FF2E0AF3477
:102A6000BF07D1F6609334028F2D68960FB6F894A5
:102A7000DEBF0FBECDBFDF91CF911F910F91FF90B1
:102A8000EF90DF90CF90BF90AF909F908F907F900E
:102A90006F905F904F903F902F90089590E080E06E
:102AA0000E94D62C893E9E4F11F40C94C61180E0F2
:102AB00008950E944E1581110AC00E9481138091D1
:102AC000DE02847089618093DE020E94E21086E05B
:102AD00090E00E94C82C8093DE02803220F0877044
:102AE00088618093DE029091DE02892F817090FFD1
:102AF00004C0892F8695869586950C94E9061092D8
:102B00002F0280912401E8EAF1E0882359F08091B6
:102B1000ED0287FF07C08EE1DF011D928A95E9F77C
:102B20000C943F0C86E0F8CF1F93CF93DF93CDB783
:102B3000DEB7AA970FB6F894DEBF0FBECDBF89E10E
:102B400093E02091F100DC012D93CD01B3E08132BF
:102B50009B07B9F780911A03833009F471C0B8F468
:102B6000813009F448C0823009F4B2C08091E80095
:102B700083FF88C28091190390911A039A3008F05C
:102B800081C2E92FF0E0EE59F14D0C947E2C8A3091
:102B900009F48DC08B3009F470C0893039F7809109
:102BA0001903813219F780911D0390911E0300973C
:102BB00011F00297D9F68091E800877F8093E800B2
:102BC0008091E80082FF37C09091F3008091F2007D
:102BD000029729F48091F1008B7F813021F480915C
:102BE000F1008093F4028091E8008B778093E800F5
:102BF0000E944605BBCF80911903813A09F0B6CFF8
:102C00008091E800877F8093E80080911D03909178
:102C10001E03892B61F460E285EF92E070E00E9470
:102C2000F8058091E8008B778093E8009FCF60E003
:102C300090E080E0F3CF809117038111C1CF96CF50
:102C400080911903813A09F091CF80911D039091F1
:102C50001E03892B09F08ACF8091E800877F80933B
:102C6000E8008091E80080FFFCCF809124018093F0
:102C7000F1008091E8008E77B9CF809119038132FD
:102C800009F074CF80911D0390911E03892B09F0E8
:102C90006DCF8091E800877F8093E8000E94460511
:102CA00080911B03809324010E947F155FCF809148
:102CB0001903813209F05ACF8091E800877F809311
:102CC000E8000E94460580911C038093F3024ECFDA
:102CD00080911903813A09F049CF8091E800877FFC
:102CE0008093E8008091E80080FFFCCF8091F302A0
:102CF000BECF803899F0823809F0C4C180911D039D
:102D00008F70873008F0BEC18093E9008091EB009E
:102D100085FB882780F91092E90006C08091150391
:102D200090911603911182609091E800977F9093A3
:102D3000E8008093F1001092F1008091E8008E7716
:102D40009DC1882309F48BC1823009F09BC1809119
:102D50001B0381118EC180911D038F702FEF280FEF
:102D6000263008F08FC18093E9002091EB0020FF0E
:102D700080C1933031F48091EB0080628093EB004E
:102D800078C19091EB0090619093EB0021E030E0EE
:102D900001C0220F8A95EAF72093EA001092EA0018
:102DA0008091EB008860EACF81116CC110911B0308
:102DB0001F778091E3008078812B8093E3008091DE
:102DC000E800877F8093E8000E9446058091E80034
:102DD00080FFFCCF8091E30080688093E30082E075
:102DE000111183E0809317034DC18058823008F0A1
:102DF00049C120911B0330911C032C3DE3E03E07A9
:102E0000A1F583E08A838AE289834FB7F894DE01D3
:102E1000139620E03EE051E2E32FF0E0509357009C
:102E2000E49120FF03C0E295EF703F5FEF708E2FBB
:102E300090E0EA30C0F0C7968D939D932F5F2431C8
:102E400059F74FBF8091E800877F8093E8006AE2DE
:102E500070E0CE0101960E94F8058091E8008B7722
:102E60008093E8000FC1C096E7CF80911D03909139
:102E70001E03432F55274330510509F44AC078F506
:102E80004130510509F47AC08BE590E0EBE6F8E0BB
:102E90004230510509F0F6C02091E800277F2093C9
:102EA000E80020911F03309120038217930708F454
:102EB0009C0140E02115310509F065C0411163C056
:102EC0008091E80082FDC9CF80911703882329F201
:102ED000853019F28091E80083FFF2CFBECF4132F6
:102EE000510509F43CC04232510509F0CBC0833092
:102EF000910508F0C7C0FC01EE0FFF1FED56FE4F15
:102F00000190F081E02D80579E4FDC018C9190E084
:102F10001AC0332721303105D1F02115310561F078
:102F20002230310509F0AEC0E8EDF8E0E4918E2FD3
:102F300090E0E8EDF8E007C0E2E0F9E0E4918E2FE0
:102F400090E0E2E0F9E0009709F49CC0A5CFE0EF43
:102F5000F8E0E4918E2F90E0E0EFF8E0F4CF8330DA
:102F6000910508F08FC0880F991FFC01E756FE4FAE
:102F70000190F081E02D89E090E08ECF82E190E039
:102F8000E6ECF8E089CF80911703882309F465CF38
:102F9000853009F462CF8091E80083FD5ECF809197
:102FA000E80082FD8DCF8091E80080FF83CF909173
:102FB000F3008091F2002115310519F08830910558
:102FC00050F041E0089709F040E08091E8008E77EA
:102FD0008093E8006FCF44914093F10031962150E7
:102FE00031090196E8CF803809F04CC08091E800A3
:102FF000877F8093E800809118038093F1009DCE35
:10300000811140C010911B031230E0F58091E8005F
:10301000877F8093E800109318030E9446051123D0
:1030200011F084E005C08091E30087FDFACF81E0D4
:103030008093170342E061EC81E00E94650542E263
:1030400061EC84E00E94650542E261EC82E00E944E
:10305000650542E260EC83E00E94650513C0809143
:103060001B03813079F481E0933009F080E0809394
:1030700016031092E9008091E800877F8093E800B2
:103080000E9446058091E80083FF0AC08091E80015
:10309000877F8093E8008091EB0080628093EB0053
:1030A000AA960FB6F894DEBF0FBECDBFDF91CF91C9
:1030B0001F910895EBEFE80FEF3308F06CC0F0E0DC
:1030C000E459F14D0C947E2C0E94811381E0089507
:1030D00080918402807F8093840281E080938302C8
:1030E00008950E947F152FEF84E39CE021508040DB
:1030F0009040E1F700C000000E94B30D909184025F
:10310000892F8E7F90FF81608093840280FDDECFC7
:10311000817F80938402DACF90918402892F8D7F02
:1031200091FF82608093840281FFD0CF80918402DE
:103130008160EFCF90918402892F8B7F92FF846012
:103140008093840282FDF2CFC1CF90918402892FB7
:10315000877F93FF88608093840283FDE7CFB6CF9B
:103160000E947F159091ED02892F97FB87F9805877
:103170008093ED02ABCF81E00E949E0C0E947F15F0
:10318000A5CF895391E001C0990F8A95EAF7892F5D
:10319000F3CF8D51F7CF80E00895CF93C82F8823C8
:1031A00009F4ABC08238C1F40E94A00681FDA5C01D
:1031B00089E30E94AD0B0E943D0B2FEF81EE94E05E
:1031C000215080409040E1F700C0000089E30E9458
:1031D000820BCF910C943D0B8338A1F40E94A00682
:1031E00080FD8BC083E50E94AD0B0E943D0B2FEF4D
:1031F00081EE94E0215080409040E1F700C0000053
:1032000083E5E5CF8438A1F40E94A00682FD75C055
:1032100087E40E94AD0B0E943D0B2FEF81EE94E0FE
:10322000215080409040E1F700C0000087E4CFCFFC
:103230008CEF8C0F813A08F0E5C0809183028130D9
:10324000B9F1882359F1823009F44DC010928302FC
:1032500080912401882309F4C6C08091ED0287FF84
:10326000C2C0EC2FE695E695E695F0E0EA55FE4FF4
:10327000828190E04C2F477021E030E002C0220FA5
:10328000331F4A95E2F782239323892B09F4B6C0B2
:103290008C2F0E94820B0E943D0BB0C080912F02A8
:1032A0008232B1F68C2F0E945A18811126C0D0CFDD
:1032B00080912F028232B1F3C43171F038F4CB30F7
:1032C00049F0C03161F080E08170EFCFC93221F068
:1032D000C833C9F781E0F8CF10928302F4CF82E0BF
:1032E00080938302F7CFC93209F43FC0E8F4C431B8
:1032F000E1F128F4C73009F45BC0CF91089582EE64
:103300008C0F8A30D0F7CD51C093C901C33009F476
:1033100046C0B0F5C13009F43FC081E191E0C23050
:10332000B1F11092C901E9CFC03509F454C0B8F425
:103330008AE0CF3411F7E091C701F091C8013097CE
:10334000E1F22081082E000C990B820F911D8F3F16
:10335000910509F00CF443C08FEF8083CECFC135C7
:10336000E1F181E0C23539F3C8CF8091C9018823EA
:1033700021F21092C9011092C8011092C701BDCF6D
:10338000C53099F078F084E191E0C63051F6909321
:10339000C8018093C701B1CF80E191E0F8CF83E10C
:1033A00091E0F5CF82E191E0F2CF85E191E0EFCFBE
:1033B0008EE18093100182E3809311018AE0809373
:1033C000130184E18093120188E08093150188E263
:1033D0008093140192CF86EFAECF8FEFACCF97FFE3
:1033E000BCCF10828ACFE8EAF1E08EEA91E0219129
:1033F000C21709F44DCF8E179F07C9F78C2F0E9473
:10340000AD0BE7CE80E28C0F883068F4C77021E006
:1034100030E001C0220FCA95EAF780912F02822B7B
:1034200080932F02D6CEEBE5EC0FE33040F4F0E0D2
:10343000EB5DFE4F808190E0CF910C948A06E8E529
:10344000EC0FE73150F4F0E0EE0FFF1FE85DFE4FA8
:1034500080819181CF910C947406C03F08F44DCFC8
:103460008C2F0E94F908CF910C94D6071F93CF930D
:10347000DF93182FD0E0C0E0893311F4C0E5D0E02D
:10348000812F0E94CD18209731F4812FDF91CF91A9
:103490001F910C94B70C8FE99FE00197F1F700C0E2
:1034A00000002197F0CF0F931F93CF93DF93C62F88
:1034B000D42F022FFC0182818823A1F06093230383
:1034C0000E9468069093220380932103C77081E0D5
:1034D00001C0880FCA95EAF7DF91CF911F910F9134
:1034E0000C94AD0C80912303681335C080912103A7
:1034F000909122030E945906883C910560F510E2E4
:103500001D0FCD17B9F080E28C0F883040F4C770E2
:1035100081E001C0880FCA95EAF70E94A20C18301A
:1035200048F481E09D2F977001C0880F9A95EAF7C3
:103530000E94AD0C802F0E94361A183098F4D77074
:1035400081E001C0880FDA95EAF7DF91CF911F91F2
:103550000F910C94A20CC77081E001C0880FCA952E
:10356000EAF7F3CFDF91CF911F910F9108953F922A
:103570004F925F926F927F928F929F92AF92BF9283
:10358000CF92DF92EF92FF920F931F93CF93DF932F
:1035900000D000D00F92CDB7DEB78C01FC01838143
:1035A0009481892B31F08081918189238F3F09F0AB
:1035B00099C50F900F900F900F900F90DF91CF91C2
:1035C0001F910F91FF90EF90DF90CF90BF90AF9041
:1035D0009F908F907F906F905F904F903F90089555
:1035E0000E946411F82E682F89819A810E94130C21
:1035F00069817A818F2D0E9457117C01F8018281A7
:10360000882309F42BC5C70182519F45409708F0D4
:1036100052C58FEF93E00E94C82CFEEEEF0E57E8E4
:10362000852E53E0952E882381F180912C0287709E
:1036300009F4BFCFF8018281882309F4BACF82E070
:103640000F900F900F900F900F90DF91CF911F91DF
:103650000F91FF90EF90DF90CF90BF90AF909F9031
:103660008F907F906F905F904F903F900C94770C6D
:10367000811424E09206C9F2C4010E94C82C811171
:1036800001C0EA943FEF831A930AE110F1CF1C8244
:103690001B82442443944AE0342E74018FEFE81ACD
:1036A000F80AC4010E94C82C89831A82882309F46D
:1036B000BCCF9FEF980F933000F58A83498292E048
:1036C000890E911CC7010E94C82C8B83882309F4A2
:1036D000ACCFFE0131967F01F70120812223E9F270
:1036E000213009F049C091818281913041F4F2E0AA
:1036F000EF0EF11C0E94361A09C04701EACF923042
:1037000049F422E0E20EF11C0E94CD183FEFE31ACB
:10371000F30AE2CF933031F432E0E30EF11C0E9461
:10372000B70CF4CF943021F08FEFE81AF80AEECFFF
:1037300092E0E90EF11C30E020E0B7016F5F7F4FAF
:10374000F70141818053990B8A30910550F0215047
:103750003109E0F28FE99FE00197F1F700C0000026
:10376000F6CF329EF001339EF00D11249C012E0FF6
:103770003F1F842F7B01E1CFE22FF0E0EC50FE4FA2
:103780005490822F86958695869590E0FC01EC51A9
:10379000FE4F64902770712C022E02C075946794BE
:1037A0000A94E2F7E1E06E227724FC01EC52FE4F2E
:1037B000A490B12C022E02C0B594A7940A94E2F70B
:1037C000F1E0AF22BB24FC01EC53FE4FC490D12C9E
:1037D00002C0D594C7942A95E2F721E0C222DD24E5
:1037E0006114710419F081EE0E94CD18A114B10486
:1037F00019F086EE0E94CD18852D0E94361AAB284E
:1038000019F086EE0E94B70C672819F081EE0E942D
:10381000B70CCD2809F47ACF8CE26CCF81E00E94FE
:10382000930C0E94600C01CF81E00E946B0CF9CFD9
:1038300082E0F5CF82E0F9CF83E00E940E0780910D
:10384000DE020E94E210F1CE80E0F7CF8091DE022E
:10385000982F987F79F088508093DE02887F91E0DE
:1038600009F490E08091DE0290FB80F98093DE0203
:103870000E94E2108091DE028695869586950E94D0
:10388000E906D3CE8091DE02982F9695969596956F
:10389000933040F49F5F990F990F990F8770892B90
:1038A0008093DE028091DE028160E0CF8091DE02B3
:1038B00080FF07C08E7F8093DE020E94E21080E0CE
:1038C000DECF80FDB2CE81608093DE02813019F4BC
:1038D00089E08093DE028091DE02CACF9091DE0201
:1038E000892F8695869586958F5F8F719770843026
:1038F00048F4880F880F880F892B8093DE0280910F
:10390000DE02ACCF9093DE02FACF8091DE0281FF1F
:1039100003C00E94E71089CE0E94FD1086CE27E2E8
:1039200045EE65EEC4C326E241EE60EEC0C327E279
:1039300045EE64EEBCC326E241EE62EEB8C328E277
:1039400041E0EFCF8091ED02806126E0E2162CE5A8
:10395000F20609F498C08091ED02886037E0E31622
:103960003CE5F30608F48FC08091ED0280628BC0C5
:103970008CE0E8168CE5F80609F49AC078F480919A
:10398000ED028C60EAE0EE16ECE5FE0609F47BC081
:1039900008F488C08091ED028E7F75C08091ED02A1
:1039A000877F2EE0E2162CE5F20609F46CC08091C8
:1039B000ED028B7F3FE0E3163CE5F30608F463C0BD
:1039C0008091ED028F7E5FC08BEFE8168CE5F806E4
:1039D00009F460C068F5E3E1EE16ECE5FE0609F4D3
:1039E00077C090F421E1E2162CE5F20609F46CC0F0
:1039F00032E1E3163CE5F30609F0EBC40E947F15C3
:103A00008091ED028F773FC085E1E8168CE5F806DE
:103A100009F466C008F47AC08091EE028160EAEF92
:103A2000EE16ECE5FE0609F0D4C48093EE02D1C494
:103A3000FFEFEF16FCE5FF0609F44EC068F4809135
:103A4000EE028D7F3DEFE3163CE5F30671F3A0F146
:103A50008091EE028360E9CF91E0E9169DE5F906D9
:103A600009F45DC008F448C060E0F2E0EF16FDE53F
:103A7000FF0609F0AEC48EE090E00E94DC2CA9C4E1
:103A80008091ED0281608093ED02A3C48091ED02EC
:103A90008460F9CF8091EE028260C7CF8091ED0201
:103AA0008064F1CF0E947F158091ED028068EBCF9A
:103AB0008091ED028D7FE7CF8091EE028E7FB5CFB2
:103AC0008091ED028F7DDFCF8091ED028F7BDBCF88
:103AD0008091ED02837FD7CF8091EE028C7FA5CFBE
:103AE0008091ED0282FB992790F921E0922790FBCB
:103AF00082F990FB83F9C7CF8091EE02982F9095C1
:103B000091708E7F892B90FB81F98FCF0E947F155A
:103B10009091ED02892F97FB87F98058B4CF61E02F
:103B2000AACF80912F0226E1E2162CE5F20609F0D9
:103B3000EAC28A7A91E009F490E09093C60181117B
:103B400006C089E20E94AD0B0E943D0B6ECD85E35D
:103B5000F9CF85E3E1C38091D90280FF1BC08E7F3E
:103B60008093D9026091D9027091DA028091DB02D0
:103B70009091DC020E940312109299023FEF80E7BD
:103B800092E0315080409040E1F700C000000E9478
:103B9000D70D4BCD81608093D90261E086950E945C
:103BA000151343CD40E553E169E573E10E94240715
:103BB0003CCD49E553E160E573E1F8CF4AEE52E1CF
:103BC00061EE72E1F3CF49EC52E165ED72E1EECFC7
:103BD00041EB52E16DEB72E1E9CF4DEB52E161EB6C
:103BE00072E1E4CF44E053E163EF72E1DFCF61E0E3
:103BF00081E0D5CF65E082E00E94631316CD68E0D6
:103C000086E0FACF64E18FE0F7CF67E185E1F4CF9A
:103C100062E289E1F1CF61E083E2C1CF8BE5E81692
:103C20008DE5F80611F19CE5E9169DE5F90609F028
:103C30009CC28091EE0282FB882780F991E089275F
:103C40000E941F1192C20E947F15EFEFF4E32CE057
:103C5000E150F0402040E1F700C000000E94B30DA9
:103C60000E948113E2CC81E0EBCF80E0E9CFC70175
:103C70000E94EB0BD82E88C22F2D2F70C22E8F2DB5
:103C8000807F19F0C29490EFC922DD20C9F0CC20CA
:103C900069F080E28E0D883010F081100BC08091A9
:103CA0002F02C82AC0922F020E943D0B8E2D0E9427
:103CB000CD1819C080912E02C82AC0922E02F4CFCE
:103CC0008E2D0E94B70CCC2071F0C09480E28E0D36
:103CD000883010F081103FC080912F02C822C0921E
:103CE0002F020E943D0B292D2850330B2430310523
:103CF00020F40E94A0060E94140DAA2009F459CCB9
:103D000080912C0280FD55CCF80112828595859515
:103D100085950E94930CC8010E94B71A80912C02CD
:103D20008595859585950F900F900F900F900F902A
:103D3000DF91CF911F910F91FF90EF90DF90CF9087
:103D4000BF90AF909F908F907F906F905F904F90BB
:103D50003F900C946B0C80912E02C822C0922E02D0
:103D6000C0CF3F2D3F70B32E8F2D807F803219F052
:103D7000B29480EFB822882071F081E0881681F13A
:103D8000DD20D9F1CC2091F1F801858180FF8ECF23
:103D90008F7085832BC0DD20B1F0909130028B2D88
:103DA000892BC11003C00E94AD0C9DCFE1E0CE1263
:103DB000FACF2091EE0222FD96CF891709F493CF16
:103DC0008093300290CFC11006C00E94370B8B2D1C
:103DD0000E94A20C88CFF1E0CF1609F484CFF5CF72
:103DE000DD2031F025E02C1508F47DCF8B2DDBCFC5
:103DF00034E03C1508F477CFEACFCC2041F3F9E367
:103E00008F1209C02FEF37EE83E021503040804001
:103E1000E1F700C000008E2D0E94B70C64CF8F2DFB
:103E200086958695837061F0813009F05CCFC7017B
:103E30009370D11002C090E080E00E94740653CFCE
:103E4000C7019370D11002C090E080E00E948A0602
:103E50004ACF8E2DDD2029F00E94F9080E94D60756
:103E600042CF0E94FD07FACF8F2D837091F5D110BC
:103E70003ACF4E2D429546954770440F440F8E2DF4
:103E80008F70042E01C0880F0A94EAF72E2D20713E
:103E9000E4FE07C02FE030E001C0220F4A95EAF7A8
:103EA00020953F2D369536953370323069F050F4B9
:103EB00040913102313029F0822B84230E949E0CE4
:103EC00012CF842B822BFACF282B809131028227AC
:103ED000F5CF8695DD2011F08F2D8170882309F4B0
:103EE00002CF4E2D429546954770440F440F8E2DBC
:103EF0008F70042E01C0880F0A94EAF72E2D2071CE
:103F0000E4FE07C02FE030E001C0220F4A95EAF737
:103F100020953F2D369536953370323069F050F448
:103F200040912403313029F0822B84230E945C0CC1
:103F3000DACE842B822BFACF282B80912403822780
:103F4000F5CF9F2D9F70F92EDD2029F0892F0E943B
:103F5000930C8E2D28CF8E2D0E94A20C8F2D0E94A7
:103F60006B0CC1CE8E2DE2EF8E1609F44BC0E81516
:103F700070F0F0EF8F1639F121EF8216D9F1DD20C4
:103F800009F45CC0C11092CE8F2D8F7138C033EF11
:103F90008316E9F194EF8912F2CFDD2009F443C0D2
:103FA0002F2D2F71F22E822F0E94930C8091EE0202
:103FB00082FD07C038E0F39EC00111248360809326
:103FC0002C028F2D1CC0DD2081F0E4E0EC1508F4FC
:103FD0008ACE2F2D2F7181E090E001C0880F2A95A5
:103FE000EAF7909124038927A1CFF5E0FC1508F4A6
:103FF0007ACEEFCF8F2D8F71DD2009F4B0CF0E94E4
:10400000930C71CE8F2D8F71DD20C9F3A8CF80E086
:10401000DD2009F48BCF9F2D9F7181E001C0880FB7
:104020009A95EAF783CF81E00E94770C81E08C15A6
:1040300008F059CE82E00E94770C55CECC2059F082
:10404000893309F0E8CE9FEFE7EEF3E09150E040CE
:10405000F040E1F7DECE8F2D8F7181CFF0E1EF16CA
:10406000FFE5FF0609F4E0CB21E1E2162FE5F206B9
:1040700009F4E0CB23EFE2162CE5F20609F453CC69
:1040800008F031C188EDE8168CE5F80609F447CC54
:1040900099EDE9169CE5F90609F451CCE7EDEE1629
:1040A000ECE5FE0609F02DC126E241EE61EEC80105
:1040B0000E94531ABACA30E1E3163FE5F30609F449
:1040C000ADCB81E1E8168FE5F80609F4B1CBF70135
:1040D000EB5BFC45E730F10508F021C1E555F14DFA
:1040E0000C947E2C85E0DE01119601900D928A954C
:1040F000E1F7F801228189819A81211171CA0E9418
:10410000EB0BF82E75CA82722CECE2162CE5F20647
:1041100009F468CD08F0A7C096ECE9169CE5F9060D
:1041200009F44CCD08F076C0F3ECEF16FCE5FF0681
:1041300009F438CD08F05DC032ECE3163CE5F30637
:1041400009F409CDEAE5EE16EDE5FE0609F48BCD9E
:1041500008F064CDE1142CE5F20609F474CD3EEDCF
:10416000E3163CE5F30609F47BCDF8018281E0809B
:10417000F180882309F47BCDC7010E946411D82EF9
:10418000682FC7010E94130CB7018D2D0E94571193
:104190000E94AF097C01882EF801D280C580C294AC
:1041A0003FE0C32280912C028770A1F0AD2CDD206E
:1041B00091F08F2D807F803421F080E28E0D883049
:1041C00048F082E00E94770C80912C028770AA242C
:1041D000A3948111A12C9F2C92942FE09222FBE0BA
:1041E000F91508F480CDE92DF0E0EE54F14D0C9472
:1041F0007E2C94ECE9169CE5F90609F4DACC41EE44
:1042000052E16AEE72E1E5ECEE16ECE5FE0609F429
:10421000CDCC98CFF9ECEF16FCE5FF0609F4D8CC2D
:1042200088F437ECE3163CE5F30609F4CCCC45ED15
:1042300052E169EC72E198ECE9169CE5F90609F4A3
:10424000B5CC80CFEAECEE16ECE5FE0609F4C5CC61
:1042500043EF52E164E073E1FBECEF16FCE5FF068F
:1042600009F4A4CC6FCF21EDE2162CE5F20609F497
:10427000C9CCB8F48EECE8168CE5F80609F4BACC93
:1042800008F4B5CCEFECEE16ECE5FE0609F4B7CC7D
:104290006EE089E0F0EDEF16FCE5FF0609F4ACCC2A
:1042A00051CF24EDE2162CE5F20609F4B1CC78F4F6
:1042B00082EDE8168CE5F80609F4A7CC61E088E108
:1042C00093EDE9169CE5F90609F469CC3BCFE5EDE1
:1042D000EE16ECE5FE0609F49ECCFDE5EF16FF06B2
:1042E00009F4A3C92FCFF5EFEF16FCE5FF0609F49B
:1042F00022CB08F41CCB36EFE3163CE5F30609F4B9
:104300007FC0F6E1EF16FCE5FF0609F02ECF8091A5
:10431000C60181111ECC89E20E94820B15CC83EF6D
:10432000E8168CE5F80609F4FECA08F05BC0E8ED73
:10433000EE16ECE5FE0609F4F2CAF9EDEF16FCE51F
:10434000FF0609F4FCCA27EDE2162CE5F20609F493
:10435000ABCE1092230382E0E8168CE5F80608F451
:10436000E0CB96E1E9169CE5F90630F0C7018A5FDB
:104370009C45099708F0D5CB0E94DF119093EE027F
:104380008093ED02E0E1EE16ECE5FE0609F498CB31
:1043900008F01ACB28E0E2162CE5F20609F47ECBF1
:1043A00008F0E6CA84E0E8168CE5F80609F46ECB5E
:1043B00008F0C8CAE2E0EE16ECE5FE0609F460CBB0
:1043C0008091ED028260F3E0EF16FCE5FF0609F450
:1043D0005ACB8091ED029091EE020E9412110E9440
:1043E0007F1523C935EFE3163CE5F30609F4A3CAAC
:1043F00008F49DCA96EFE9169CE5F90609F0A9CFE5
:1044000027E245EE66EE53CE1F93CF93DF93809164
:10441000F901807FA9F48091F601882389F08091C9
:104420002B02D091FA016091F4017091F501A091F5
:10443000F701B091F801C62FC72316E0D81304C0C6
:10444000DF91CF911F91089590E0109711F0CF3F29
:1044500019F401968770F2CF189F9001199F300DC3
:104460001124F901E550FE4F41814713F2CF4081FD
:104470004613EFCF42814111ECCF438154814A1B57
:104480005B0B483C510528F78091F9018F708061E2
:104490008093F901F901E050FE4F80818F708061B7
:1044A000808384EF91E00E94B71ADF91CF911F9132
:1044B0000C94E10BAF92BF92CF92DF92EF92FF92FA
:1044C0000F931F93CF93DF93CDB7DEB761970FB6EE
:1044D000F894DEBF0FBECDBF8C0185E0F801DE0190
:1044E0001D9601900D928A95E1F7F801E28084EF24
:1044F000A82E81E0B82E6091F7017091F801611546
:10450000710509F432C19091F4014091F501892FB0
:1045100084238F3F09F429C120813181C380D48055
:10452000F090F601F601E61BF70BFF2009F4E8C056
:104530008091F901582F507FE83CF10508F0ABC09D
:10454000511177C0FE2C431321C092131FC0E110FC
:104550001DC08F7080618093F901C5010E94B71A58
:104560008091F901F80185838F2D61960FB6F8943B
:10457000DEBF0FBECDBFDF91CF911F910F91FF9096
:10458000EF90DF90CF90BF90AF900895CD2829F0A5
:10459000822F83238F3F09F003C180E0F82FF17051
:1045A000DF2E80FF3CC080912B024091FA0156E043
:1045B000841315C02D873E878D859E850E9493119B
:1045C000292F22952F702230F0F0243018F59F709B
:1045D000F1F0F8019581907FD1F4D12C1EC090E0CC
:1045E000589FF001599FF00D1124E550FE4F618155
:1045F000361306C06081261303C06281E6120FC025
:1046000001968770D5CF9F7011F0882331F3805EBB
:10461000883018F3C8010E94B71AFD2CA5CFEE20F0
:1046200009F4A2CF8091F90181608093F901F12C06
:104630009BCF431306C0921304C0F801EE2009F487
:1046400079C0C8010E949F11882309F1EE20F9F07A
:104650008091F901803270F02091F4013091F501E0
:1046600038872F831986DB86CA868C87CE0107960A
:104670000E94B71A86E0F801A4EFB1E001900D9214
:104680008A95E1F70E940422FF24F3946DCFC801BC
:104690000E94B71AF9CF51110AC084EF91E00E942D
:1046A000B71A86E0F50111928A95E9F7C0CF431356
:1046B0000FC092130DC0E1100BC0F8018583C80133
:1046C0000E94B71A86E0F50111928A95E9F74CCF5E
:1046D000C8010E949F118823D1F2EE20C1F280917F
:1046E000F901803238F22091F4013091F5013A83DA
:1046F00029831B82DD82CC828E83CE010196B8CFC6
:10470000E83CF105F8F6FE2CEE2009F243131FC039
:1047100092131DC08091F90180FD10C0982F907FE9
:1047200069F0F8018583903F31F0982F907F905F7A
:104730008F70892B8583C8010E94B71A86E0F80123
:10474000A4EFB1E001900D928A95E1F70DCFC80179
:104750000E949F1181118ECF8091F9018160809319
:10476000F901C8010E94B71AFFCEEE2009F48FCFDD
:10477000C8010E949F11F82E882309F488CF86E093
:10478000F801A4EFB1E001900D928A95E1F78091D4
:10479000F4019091F5010E9493110E940422E4CE4D
:1047A00081E08E25FBCE1F93CF93DF93CDB7DEB78D
:1047B00067970FB6F894DEBF0FBECDBF4B8B5C8BF7
:1047C0006D8B7E8B8F8B611110922E021A8A198A43
:1047D00085E0FE017396DE011D9601900D928A958B
:1047E000E1F786E0FE013D96DE01179601900D92FD
:1047F0008A95E1F7CE0107960E945A22811112C0D4
:1048000086E0FE013796DE01119601900D928A95A1
:10481000E1F78A859B85892B29F088859F818923EB
:104820008F3FB1F516E080912B029091FA01891328
:104830001DC067960FB6F894DEBF0FBECDBFDF91E7
:10484000CF911F91089596E0929FD001939FB00D54
:104850001124A550BE4FFE01319601900D929A95FC
:10486000E1F78093FA010E94E10BDCCF819FC00148
:10487000112485509E4F0E945A228823D1F28091A4
:104880002B0290E001968770992780932B02CBCF63
:104890002091FA0130E0C901019687709927409173
:1048A0002B024817190679F60E947F151092FA011B
:1048B00010922B0286E0E4EFF1E0DF011D928A9571
:1048C000E9F7B0CF1F920F920FB60F9211242F93DA
:1048D0003F934F935F936F937F938F939F93AF9388
:1048E000BF93CF93DF93EF93FF93D091E900DF70F5
:1048F0008091EC00C82FC17080FDC0E81092E900E3
:104900008091F000877F8093F00078940E94941546
:104910001092E9008091F00088608093F000CD2B28
:10492000CF70C093E900FF91EF91DF91CF91BF91DC
:10493000AF919F918F917F916F915F914F913F9137
:104940002F910F900FBE0F901F9018951F920F92EE
:104950000FB60F9211242F933F934F935F936F9352
:104960007F938F939F93AF93BF93EF93FF93809128
:10497000E10082FF09C08091E20082FF05C08091C2
:10498000E1008B7F8093E1008091DA0080FF24C0FA
:104990008091D80080FF20C08091DA008E7F8093C4
:1049A000DA008091D90080FF9BC080E189BD82E15F
:1049B00089BD09B400FEFDCF81E08093170380918B
:1049C000F202811109C00E94CC040E9497058091D7
:1049D000E20084608093E2008091E10080FF17C0D4
:1049E0008091E20080FF13C08091E2008E7F80936F
:1049F000E2008091E20080618093E2008091D80023
:104A000080628093D80019BC85E080931703809161
:104A1000E10084FF29C08091E20084FF25C080E18D
:104A200089BD82E189BD89B5982F917080FFFBCF48
:104A30008091D8008F7D8093D8008091E1008F7E97
:104A40008093E1008091E2008F7E8093E20080916C
:104A5000E20081608093E20080911803882309F4CA
:104A600045C084E0809317038091E10083FF27C055
:104A70008091E20083FF23C08091E100877F8093D3
:104A8000E10082E080931703109218038091E10007
:104A90008E7F8093E1008091E2008E7F8093E20020
:104AA0008091E20080618093E20042E060E080E07B
:104AB0000E9465058091F00088608093F000FF916E
:104AC000EF91BF91AF919F918F917F916F915F9186
:104AD0004F913F912F910F900FBE0F901F901895FF
:104AE00019BC109217031092F20276CF8091E30066
:104AF00087FD93E090931703B7CF78941F921FB66A
:104B00001F9211248F939F93AF93BF938091E902DB
:104B10009091EA02A091EB02B091EC020196A11DE6
:104B2000B11D8093E9029093EA02A093EB02B09347
:104B3000EC02BF91AF919F918F911F901FBE1F906C
:104B400018951F921FB61F9211248F939F93AF93B6
:104B5000BF938091E802811113C08091E902909186
:104B6000EA02A091EB02B091EC024196A11DB11DA9
:104B70008093E9029093EA02A093EB02B093EC02D7
:104B8000BF91AF919F918F911F901FBE1F9018955D
:104B90001F920F920FB60F9211242F933F934F93B2
:104BA0005F936F937F938F939F93AF93BF93EF9395
:104BB000FF938091E0029091E102019668EB75E02D
:104BC0000E94342C9093E1028093E0026BE070E04D
:104BD0000E94342C6F778091DF02823041F4603480
:104BE00051F480916F008E7F80936F0004C08130FC
:104BF00011F46F37B1F3E62FF0E0E557FB4FE49186
:104C000021E031E0E29FC001E39F900D112463E0B9
:104C100070E00E94342C8091DE0286958695869500
:104C2000282F269FC001279F900D11240E94AC06BB
:104C300090938D0080938C00FF91EF91BF91AF9185
:104C40009F918F917F916F915F914F913F912F91A4
:104C50000F900FBE0F901F901895CDB7DEB7AA9793
:104C60000FB6F894DEBF0FBECDBF84B7877F84BF79
:104C70000FB6F894A89580916000886180936000D9
:104C8000109260000FBE80E890E00FB6F894809319
:104C90006100909361000FBE85B7806885BF85B7BE
:104CA000806885BF83E599E09093A1018093A0017E
:104CB0000E94CC040E9497058091E200846080935A
:104CC000E2007894809117038823A1F01091E90005
:104CD0001F709091EC00892F817090FD80E8182B57
:104CE0001092E9008091E80083FD0E9494151F70E6
:104CF0001093E90082E084BD93E095BD9AEF97BDE3
:104D000080936E000E94C611811102C00E94D310D0
:104D100006E511E0F80181918F018F3F11F00E94AB
:104D20005509F1E002361F07A9F702E611E0F80184
:104D300081918F018F3F11F00E945509F1E00B36F0
:104D40001F07A9F7E7E3F2E08FE492E0ABE6B2E0F9
:104D5000119211921D921D928E179F07C9F78CE632
:104D600090E00E94102DAC019093360280933502A2
:104D700030E020E0FA01E20FF31F99E01192915028
:104D8000E9F7275F3F4F2C363105A1F70E944E15FA
:104D9000811102C00E94811382E090E00E94C82C21
:104DA000809384020E94DF119093EE028093ED02C3
:104DB0000E94EB138FE39CE90197F1F700C000001C
:104DC0000E94EB1380916B0280FF08C06FEF7FEFB2
:104DD00090E080E00E94FA2C0E94B30D83E090E006
:104DE0000E94C82C0E949E0C6E9A769A229A2A9A49
:104DF000279A2F988AE08093800089E18093810030
:104E00008FEF9FEF90938700809386000E94591543
:104E10008091DE0281FF0BC01092E1021092E0024D
:104E20001092DF0280916F00816080936F000E947A
:104E3000591580914F02811133C00E944E15811186
:104E400004C00E9481130E94711388E090E00E94C8
:104E5000D02C6093D9027093DA028093DB02909396
:104E6000DC026E7F71F40E94711388E090E00E9472
:104E7000D02C6093D9027093DA028093DB02909376
:104E8000DC020E942A07109299028091D90280FFC9
:104E900004C060E086950E94151381E080934F0264
:104EA0008091ED0280688093ED028091ED029091F7
:104EB000EE020E94121186E091E09093E502809349
:104EC000E40230E4232E80911703FF24F39400E1E1
:104ED00012E1853009F4CFC10E94EB13882359F009
:104EE0008FB7F8944091E9025091EA026091EB0289
:104EF0007091EC028FBF93E5C92E92E0D92E2BE67C
:104F0000622E22E0722E512C412CF301A190B1901F
:104F10003F01F601E190F1906F01EA14FB04A9F161
:104F2000312C01E010E0EA24FB244F01F2E08F1A5B
:104F30009108C70180239123892B09F139A24AA244
:104F400021E0C50180239123892B09F420E02BA3C4
:104F50000E9468068160782F9DA38CA349A15AA165
:104F60006BA18DA10E94D323F401808191818027C0
:104F70009127918380835394FBE0F515E0F03394FF
:104F8000000F111F29E03212D4CF43944CE0441299
:104F9000BCCF511010C08FEF8EA38FA318A60E9414
:104FA00068068160782F9AA789A74EA15FA168A59E
:104FB0008AA50E94D323809199028823D1F1809100
:104FC0009802E091D902E695E81BE09394028230C2
:104FD00009F070C1F0E0EE57FD4FE4910E2F10E0A4
:104FE000B1E4EB2EB0E1FB2E80919502882361F0B5
:104FF000109295020E946806909393028093920209
:1050000010929702109296020E946806E091920216
:10501000F09193028E1B9F0B8F3F9F4750F4E00F40
:10502000F11FF0939302E093920282E992E0F7017C
:10503000099586E0ECE8F2E0DE01119601900D9210
:105040008A95E1F7E0908E02F0908F021091900225
:105050000091910210928E0210928F021092900293
:10506000109291028E2D8F2991F080918A02909159
:105070008B020E945906AC0190918602992309F493
:1050800073C1809111018417150608F47BC1812F2B
:10509000802B09F448C080918802909189020E9477
:1050A00059069C0190918502992309F4BAC32536CB
:1050B0003105C8F19F3F19F09F5F9093850211233E
:1050C00059F00E9476089FEF11160CF491E0899F29
:1050D000802D112480939002002359F00E947608BD
:1050E0009FEF10160CF491E0899F802D112480937E
:1050F0009102309190023323B1F02091910222234A
:1051000091F045EB3403C0011124992309F479C1CE
:105110009093900245EB240390011124332309F46A
:1051200074C13093910280918E0290918F02892BED
:1051300090919002892B90919102892B11F00E94FD
:10514000D60786E0FE013196ACE8B2E001900D9200
:105150008A95E1F70E94A00690915202891731F0DA
:105160000E94A006809352020E94140D80911703A2
:10517000843009F0A8CE83E08093E9008091E800B4
:1051800082FFA1CE8091E80090E085FF06C00E94DA
:10519000EB04882309F43DC191E08091E8008B770E
:1051A0008093E800992309F48ECEE981E150E33140
:1051B00008F0B1C1F0E0E254F14D0C947E2C8091E6
:1051C0001703843009F445C080E00E94E90680E0BE
:1051D0000E94140D1092990280915102811116C003
:1051E000F09251028091D902982F917090935002C1
:1051F0008E7F8093D9029FEFE0E7F2E09150E0408C
:10520000F040E1F700C000000E94D70D1092E802C4
:1052100088E190E00FB6F894A895809360000FBEE7
:105220002092600083B7817F846083BF83B78160F1
:1052300083BF7894889583B78E7F83BF0FB6F89429
:10524000A895809160008861809360001092600052
:105250000FBE80911603882371F00E94EB13EBE6DA
:10526000F2E081919191892B09F0BCC283E892E030
:105270008E179F07B1F780911703853009F49FCFF0
:105280000E947F150E9459150E94A0060E94140DCD
:105290001092510280915002882349F08091D902E6
:1052A00081608093D90260E086950E9415130E9468
:1052B000ED1112CE863059F4F0E0E158FD4FE49143
:1052C0000E2F10E0A1E3EA2EA0E1FA2E8DCE893058
:1052D00061F4E695F0E0E458FD4FE4910E2F10E004
:1052E000F7E9EF2EFFE0FF2E7FCE8F3061F4E695D9
:1052F000F0E0E758FD4FE4910E2F10E0E6E2EE2ECD
:10530000EFE0FE2E71CE853159F4F0E0EA58FD4F02
:10531000E4910E2F10E075EDE72E7EE0F72E64CEBF
:1053200008E210E048E4E42E4EE0F42E883109F45F
:105330005BCE833249F4E4E7F2E00591149165ED28
:10534000E62E6FE0F62E50CE04EF11E05CE0E52E85
:105350005EE0F52E843209F447CE00ED17E039E225
:10536000E32E37E0F32E40CE20911001FAE02F9F7C
:10537000900111242417350708F089CE9F5F909380
:10538000860202C09F3FD1F7EE2059F00E94AF087D
:105390009FEF1E140CF491E0899F802D11248093BF
:1053A0008E02FF2059F00E94AF089FEF1F140CF4EB
:1053B00091E0899F802D112480938F0230918E027D
:1053C000332309F464CE20918F02222309F45FCEA7
:1053D00045EB3403C0011124992359F090938E02B8
:1053E00045EB240390011124332339F030938F02CD
:1053F0004ECE81E080938E02F3CF81E080938F02C6
:1054000046CE81E08093900285CE81E08093910228
:105410008ACE00E210E0CE0101967C018091E80086
:1054200085FD0AC08091E8008B778093E8000E9498
:10543000EB04882399F3B0CE8091F100F7018193BA
:105440007F010150110951F7A7CE1A8289E08B83A1
:105450001AC08A81823009F4DBC18330D9F18130EE
:1054600009F059C02FB7F8946091E9027091EA02EF
:105470008091EB029091EC022FBF0E94842C6B83F1
:105480007C838D839E8380911703843009F01BCD2C
:105490001091E9001F709091EC00892F817090FDB0
:1054A00080E8182B82E08093E9008091E80080FF7B
:1054B0000DC050E040E060E270E0CE0101960E9435
:1054C0001C058091E8008E778093E8001F70109390
:1054D000E900F9CCDE011196EBE6F2E080819181E2
:1054E000329612969C93129713968C93139712965A
:1054F00022E0E338F20791F7C6CF8A81823059F46F
:105500006B817C818D819E810E94842C86E290E05B
:105510000E94DC2CB8CF8FEF8983B5CF4C816B8193
:105520008A810E9431119827892798279E838D832D
:10553000AACFED80FE80FE24EF24FE248A810B8119
:1055400042E1049F8001112498ED899F000D111DF7
:1055500011248C8190E0880F991F080F191F6F2D5F
:10556000C80187960E94DC2C6E2DC8018896D0CF8A
:105570000E94651088CF8A81893091F08A30E9F0E5
:105580008A81813871F110F5803809F07CCF20E0F4
:105590004B816091DB028091DA020E94151273CF79
:1055A0008B81E3E08E9FC00111246FEF70E00E94B9
:1055B000342C862F0E940E07E3CF8B81811103C00C
:1055C0000E94E710DDCF0E94FD10DACF823859F13A
:1055D000833809F058CF20E04091DC026C818B8148
:1055E000DCCF60E08B810E9415139B818091D902F2
:1055F000911111C08E7F8093D90210929902FFEF12
:1056000020E742E0F15020404040E1F700C00000B8
:105610000E94D70D38CF81608093D90260E08695D3
:105620000E94151330CF8B818093DD022CCF8A81AD
:10563000893059F08A30C1F0813839F1D0F480389E
:1056400009F021CF8091DC0202CF8091DE028695A5
:1056500086958695EFEF8E9FC001112463E070E080
:105660000E94342C6B830FCF8091DE02869581706F
:10567000EECE823891F0833809F005CF8091DA02BE
:105680008B838091DB028C83FECE8091D90280FFD8
:1056900002C08695DCCE80E0DACE8091DD02D7CEE6
:1056A0008091DE020E94E2106091D9027091DA02CC
:1056B0008091DB029091DC020E940312E4CE80E133
:1056C0008A83E1CE1A8289E7C2CE0A811B81102724
:1056D00001271027CE0101966C01EC80FC01EE0D34
:1056E000F11D7F01C80189579C4FCE14DF0409F4D6
:1056F000CACE0937110550F40E94C82CF6018483E4
:105700000F5F1F4FFFEFCF1ADF0AECCFF6011482B5
:10571000F7CF0A811B81102701271027CE010196A0
:105720006C01EC80E00EF12EF11CC80189579C4FF2
:10573000E016F10609F4A7CE0937110520F4F601A9
:1057400064810E94DC2CFFEFCF1ADF0A0F5F1F4F2E
:10575000ECCF0E94551097CE84E0B2CF0A811B8116
:10576000102701271027CE0101966C01EC80FC0167
:10577000EE0DF11D7F01C8018796EC14FD0409F4BC
:1057800082CE0036F3E01F0750F40E94C82CF601C9
:1057900084830F5F1F4FFFEFCF1ADF0AECCFF601B4
:1057A0001482F7CF0A811B81102701271027CE0111
:1057B00001966C01EC80E00EF12EF11CC801879679
:1057C000E016F10609F45FCE0036E3E01E0720F490
:1057D000F60164810E94DC2CFFEFCF1ADF0A0F5F15
:1057E0001F4FECCF09BD19BD09B400FEFDCF80915C
:1057F000D8008F7D8093D8008091E00082608093F4
:10580000E0008091E00081FDFCCF0E947F1533CD48
:1058100086E290E00E94C82C1B821C821D828E832F
:1058200032CE2D32314008F047CC7DCCDB018F9356
:105830009F930E94A92CBF91AF91A29F800D911DB3
:10584000A39F900DB29F900D1124089587FB082E01
:10585000062687FD819567FD61950E94BC2C0EF49C
:10586000919507FC81950895AA1BBB1B51E107C0C8
:10587000AA1FBB1FA617B70710F0A61BB70B881FE0
:10588000991F5A95A9F780959095BC01CD0108956F
:1058900097FB072E16F4009407D077FD09D00E94DD
:1058A000342C07FC05D03EF4909581959F4F0895C8
:1058B000709561957F4F0895A1E21A2EAA1BBB1B1C
:1058C000FD010DC0AA1FBB1FEE1FFF1FA217B307CC
:1058D000E407F50720F0A21BB30BE40BF50B661FE2
:1058E000771F881F991F1A9469F7609570958095A6
:1058F00090959B01AC01BD01CF010895EE0FFF1FF4
:105900000590F491E02D0994692796276927782757
:105910008727782708950E94932C332312F48A1B3B
:105920009B0B0C94A42CA29FB001B39FC001A39F1A
:10593000700D811D1124911DB29F700D811D1124C8
:10594000911D08950E94932CB7FF0895821B930B1D
:1059500008950E94932CA59F900DB49F900DA49F35
:10596000800D911D11240895B7FF0C94A92C0E945D
:10597000A92C821B930B0895991B79E004C0991FF1
:10598000961708F0961B881F7A95C9F78095089599
:10599000F999FECF92BD81BDF89A992780B50895F7
:1059A000A6E1B0E044E050E00C94022DA8E1B0E0A4
:1059B00042E050E00C94022D262FF999FECF92BDC3
:1059C00081BDF89A019700B4021639F01FBA20BDC4
:1059D0000FB6F894FA9AF99A0FBE08950396272FF6
:1059E0000E94DD2C0E94DC2C252F0E94DD2C242F10
:1059F0000C94DD2C0196272F0E94DD2C0C94DC2CBE
:105A0000DC01CB01FC01F999FECF06C0F2BDE1BD7E
:105A1000F89A319600B40D9241505040B8F708956D
:105A20000F931F93CF93DF939C01029710F422E012
:105A300030E0E091A201F091A30190E080E0B0E0BD
:105A4000A0E0309791F4009709F445C0821B930BB6
:105A500084309105B8F58A819B816115710569F1E2
:105A6000FB0193838283FE0111C040815181028139
:105A7000138142175307F0F04217530799F4109718
:105A800061F012960C93129713961C933296CF01E5
:105A9000DF91CF911F910F9108950093A201109370
:105AA000A301F4CF009719F04817590718F4CA0159
:105AB000BD01EF01DF01F801C4CF9093A3018093F2
:105AC000A201D1CFFE01E80FF91F21933193029774
:105AD00099838883DCCF8091A4019091A501892BC3
