:100000000C94B4030C94FB030C94FB030C94FB03BF
:100010000C94FB030C94FB030C94FB030C94FB0368
:100020000C94FB030C94FB030C9455160C94D01AFF
:100030000C9458260C94FB030C94FB030C94FB03C8
:100040000C94FB030C94FB030C94FB030C94FB0338
:100050000C94FB030C942C170C94FB030C94FB03E3
:100060000C94FB030C94FB030C94FB030C94FB0318
:100070000C94FB030C94FB030C94FB030C94FB0308
:100080000C94FB030C94FB030C94FB030C94FB03F8
:100090000C94FB030C94FB030C94FB030C94FB03E8
:1000A0000C94FB030C94FB030C94FB030501090265
:1000B000A10185020901A1000509190129081500FE
:1000C0002501950875018102050109300931158165
:1000D000257F95027508810609381581257F9501D0
:1000E00075088106050C0A38021581257F95017572
:1000F000088106C0C005010980A101850319012AF4
:10010000B700150126B700950175108100C0050CD8
:100110000901A101850419012AA002150126A002E6
:10012000950175108100C005010906A1018505052D
:100130000719E029E71500250195087501810205D9
:1001400007190029EF1500250195F07501810205B9
:10015000081901290595057501910295017503910D
:1001600001C00660FF0961A1010962150026FF00B8
:100170009520750881020963150026FF00952075FA
:10018000089102C005010906A101050719E029E748
:1001900015002501950875018102950175088101F9
:1001A0000507190029FF150026FF0095067508812F
:1001B000000508190129059505750191029501753C
:1001C000039101C0000000000000000000000000DA
:1001D000000000000000000000000000000000001F
:1001E00000000000000000007E0F00D4FFFFFFC7EA
:1001F0000000007800000000000000002A2B28000A
:1002000000000000000000000000000000000029C5
:10021000000000002C1E3420212224342627252E05
:10022000362D3738271E1F2021222324252633333D
:10023000362E37381F0405060708090A0B0C0D0E69
:100240000F101112131415161718191A1B1C1D2F35
:100250003130232D350405060708090A0B0C0D0E55
:100260000F101112131415161718191A1B1C1D2F15
:100270003130354C0001010101010101010102028F
:100280000202020202020203030303030303030444
:10029000040404040404050505050506060606060F
:1002A000070707070708080808090909090A0A0AC9
:1002B0000B0B0B0C0C0C0D0D0D0E0E0E0F0F0F106B
:1002C00010111111121213131414151516161717F5
:1002D000181819191A1A1B1B1C1D1D1E1E1F202061
:1002E000212222232424252626272829292A2B2CAB
:1002F0002D2D2E2F30313232333435363738393ACE
:100300003B3C3D3E3F404142434445464748494AC5
:100310004C4D4E4F50515354555658595A5B5D5E93
:100320005F616264656668696B6C6D6F707273752E
:1003300077787A7B7D7E8082838587888A8C8E8F92
:1003400091939596989A9C9EA0A2A3A5A7A9ABADC0
:10035000AFB1B3B5B7BABCBEC0C2C4C6C9CBCDCFAE
:10036000D1D4D6D8DBDDDFE2E4E7E9EBEEF0F3F55C
:10037000F8FAFDFF00344454002445550025355655
:1003800000263646002737470028384800293949D3
:10039000003242520031415100304050002F3F4F57
:1003A000002E3E4E002D3D5E002C4D5D003C4C5C11
:1003B00000A7978700A6968600A5958500A494843B
:1003C000002B3B4B002A3A4A0033435300AC9C8C31
:1003D00000AD9D8D00AE9E8E00AF9F8F00B0A090AF
:1003E00000B1A19100B2A28100B3928200A89888C6
:1003F00000A9998900AA9A7900AB8A7A009B8B7B25
:1004000001344454013242520131415101304050D3
:10041000012F3F4F012E3E4E012D3D5E012C4D5DC3
:1004200000A3938301293949012838480127374718
:1004300001263646012535560124455501334353DF
:1004400001AC9C8C01AD9D8D01AE9E8E01AF9F8F46
:1004500001B0A09001B1A191013C4C5C012A3A4A43
:10046000012B3B4B01A4948401A5958501A696869A
:1004700001A7978701B2A28101B3928201A393835E
:10048000165C1E001F002000210022002300240013
:100490002500260027002D002E002A004A002B00F0
:1004A00014001A000800150017001C0018000C00AA
:1004B000120013002F00300031004B00396104009E
:1004C0001600070009000A000B000D000E000F00C7
:1004D00033003400000028004E00E1001D001B0026
:1004E0000600190005000151110010003600370008
:1004F0003800E50052000000E0000000E300E200E8
:1005000000002C000000E6000000E40000000000F5
:10051000500051004F00165C3A003B003C003D008B
:100520003E003F00400041004200430044004500BF
:10053000005C4A000100C25CC35CC55CC65CC75C71
:10054000C85CC95CCA5C0100460047004800005C0A
:100550004B003961CB5CCC5C010001000100010063
:10056000010001000100010001000000DE5C4E00FE
:10057000E100010001000100010001000100010093
:100580000100010001000100A900A8000000010015
:100590000000010001000000010000000100000057
:1005A000010000000000AC00AA00AB000100010047
:1005B0000100010001000100010001000100010033
:1005C0000100010001000100010001000100010023
:1005D0000100010001000100010001000100010013
:1005E0000100010001000100010001000100010003
:1005F00001000100010001000100010001000100F3
:1006000000000100010001000100010001000100E3
:1006100001000100010001000100010001000100D2
:1006200001000000010000000100010000000100C5
:1006300000000100000001000000000001000100B6
:1006400001000100010001000100010001000100A2
:100650000100010001000100010001000100010092
:100660000100010001000100010001000100010082
:100670000100010001000100010001000100010072
:100680000100010001000100010001000100010062
:100690000100010001000000010001000100010053
:1006A0000100010001000100010001000100010042
:1006B0000100010001000100000001000000010034
:1006C0000100000001000000010000000100000026
:1006D000000001000100010009025B00030100A00D
:1006E000FA090400000103010100092111010001C0
:1006F00022400007058103080001090401000203EC
:1007000000000009211101000122220007058203D7
:100710002000010705030320000109040200010372
:1007200000000009211101000122B6000705840321
:100730002000011201000200000008424B68600125
:1007400000010200010A034D0041004A004100007F
:100750000010034B0042004400460041004E00538D
:10076000000000040309040011241FBECFEFDAE0EB
:10077000DEBFCDBF04B603FE27C080914405909133
:100780004505A0914605B09147058730904BA7409D
:10079000B04BD1F4109244051092450510924605D5
:1007A0001092470514BE84B7877F84BF0FB6F894B4
:1007B000A89580916000886180936000109260002D
:1007C0000FBEE0E0F8E3099525E0AEE8B2E001C035
:1007D0001D92A434B207E1F712E0A0E0B1E0E0EA34
:1007E000F0E602C005900D92AE38B107D9F70E942D
:1007F0007F260C94FE2F0C94000090913E05937080
:1008000051F0811109C0946090933E051092170138
:1008100081E0809338050895893110F09066F4CF17
:10082000880F880F982BF0CF90913E05937049F078
:1008300080933F05609340054093410581E080939C
:1008400038050895E8EDF0E080818E7F8083109276
:10085000E2001092DA001092E100A0EEB0E08C917C
:1008600081608C9380818F77808319BCA7EDB0E085
:100870008C918E7F8C9380818F7E80831092060571
:1008800008952091E4003091E50095E6A9012091BA
:10089000EC00822F817020FF06C08091E80080FF6D
:1008A00006C080E008952091E80022FD1AC08091E2
:1008B0002B05882389F0853089F08091EB0085FD38
:1008C0000FC02091E4003091E50042175307F9F280
:1008D0009150E1F684E0089582E0089583E0089560
:1008E00081E00895EF92FF920F931F93CF937C01C5
:1008F0008B010E944104C82F811117C08091E8002C
:1009000085FD0BC08091E8008E778093E8000E94FF
:100910004104882399F3C82F08C0F70181917F0112
:100920008093F1000150110949F78C2FCF911F914D
:100930000F91FF90EF90089580912D0587FF13C0D0
:100940008091E80082FF06C08091E8008B77809359
:10095000E80004C080912B058111F2CF08958091A9
:100960002B058823D9F38091E80080FFF8CF809190
:10097000E8008E77ECCF982F9093E900242F762F04
:1009800050E0891731F07091EC002091ED0050910A
:10099000F00021FD07C09F5F973071F78093E90059
:1009A00081E008953091EB003E7F3093EB00309171
:1009B000ED003D7F3093ED003091EB0031603093DE
:1009C000EB007093EC002093ED005093F000209129
:1009D000EE0027FDE0CF80E00895CF92DF92EF9206
:1009E000FF920F931F93CF93DF93C8EDD0E08881E0
:1009F0008F7E8883E7EDF0E080818160808384E0F2
:100A000082BF81E08093060588818E7F888302EE15
:100A100010E0F80110821092DA0081EEC82ED12C7D
:100A2000F601108288818F77888388818068888327
:100A300088818F7D888319BC10922B0510922C051C
:100A400010922A051092290590EEE92EF12CF7015B
:100A500080818B7F808388818160888342E060E031
:100A600080E00E94BB04F60180818E7F8083F801C4
:100A7000808181608083808188608083F7018081AC
:100A80008E7F8083888180618883DF91CF911F91E1
:100A90000F91FF90EF90DF90CF900895FC0180912F
:100AA00033059091340586179707A0F061157105FD
:100AB00029F49091E8009E779093E80090E061150A
:100AC000710551F4911108C08091E80082FF34C093
:100AD00080E00895BC01F2CF80912B058823C1F1FD
:100AE0008530C1F18091E80083FD30C08091E8003D
:100AF00082FDEACF8091E80080FFE1CF8091F30092
:100B00002091F200382F6115710519F02830310558
:100B100058F091E02830310509F090E02091E8008C
:100B20002E772093E800CBCF81918093F100615024
:100B300071092F5F3F4FE7CF80912B05882341F04C
:100B4000853041F08091E80083FFBECF81E00895B9
:100B500082E0089583E0089580910805089520912A
:100B600016012223C9F02091010527FF15C0E62FA9
:100B7000E695E695E695EE31D8F4E80FF92FF11DEC
:100B8000677021E030E001C0220F6A95EAF72095F6
:100B90008281282322830895FC01329608962191B0
:100BA000621303C0DF0111971C92E817F907B9F728
:100BB0000895209116012223C1F02091010527FFFD
:100BC00014C0E62FE695E695E695EE31F8F4E80FC9
:100BD000F92FF11D677021E030E001C0220F6A9506
:100BE000EAF78281822B82830895FC0132962FEFEF
:100BF00030E04191641751F02F3F19F4411101C0C9
:100C0000232F3F5F3630A9F72F3F09F40895820F55
:100C1000911D27FD9A95FC01628308952091FA04A5
:100C20003091FB042817390771F09093FB048093EF
:100C3000FA04E091F804F091F904309721F000846F
:100C4000F185E02D099408952091F6043091F70480
:100C50002817390771F09093F7048093F604E09118
:100C6000F804F091F904309721F00680F781E02D27
:100C700009940895E091F804F091F904309721F077
:100C80000190F081E02D099480E00895FA0181112E
:100C900001C0FB0109948334910570F5FC01EE0F4E
:100CA000FF1FEE0FFF1FDF01AC58BC4FCD010296B6
:100CB000FC0154910196FC013491FD0185918370F2
:100CC000E491A82FB0E0F0E98F9FC0011124805576
:100CD0009C4FE80FF92FF11DB4976083FC01E50FDD
:100CE000F11DB4974083830F911DFC01B4972083BD
:100CF000A255BC4F81E08C930895FF920F931F93F0
:100D0000CF93DF93182F062FF42ED0E0C0E02F2DC5
:100D1000402F612FCE010E944B062196C334D1058E
:100D2000B1F7DF91CF911F910F91FF900895EEE3FE
:100D3000F5E0248130E1231B08F420E0248381E0E6
:100D4000809338050895EEE3F5E0248130E1230F28
:100D500008F42FEF248381E0809338050895EEE3B3
:100D6000F5E0438120E1421B08F440E0818162818B
:100D700090E00C941404EEE3F5E0438120E1420F8F
:100D800008F44FEF8181628190E00C941404EEE34B
:100D9000F5E0628120E1621B08F460E0818143811B
:100DA00090E00C941404EEE3F5E0628120E1620F20
:100DB00008F46FEF8181438190E00C941404EEE31A
:100DC000F5E08181438162818850990B0C94140471
:100DD000EEE3F5E0818190E04381628108960C9416
:100DE000140480913E0586958695815009F488E12A
:100DF0000C94FD0380913E05869586958F5F893121
:100E000008F081E00C94FD038093150180913E056C
:100E10008370809314010E94691183E0809317010D
:100E20000895E42FF0E0EE0FFF1FEB53FE4F90818B
:100E3000921B97FD9195292F38E1239F212D112495
:100E4000620F08950F931F9310E0F801EE0FFF1F3C
:100E5000EB53FE4F9081905797FD9195000F111F16
:100E6000F801EA53FE4F00810052110B2003F001FC
:100E7000219FF00D112408E310E0091B110997FDD3
:100E8000139540039001419F300D1124E20FF31F91
:100E90009F01220F331F2E0F3F1F37FF02C0215823
:100EA0003F4F220F232F221F330B620F1F910F91F1
:100EB00008950F931F93522F10E0F801EE0FFF1FBC
:100EC000EA53FE4FA081A052BB0B9D015203F001DB
:100ED000539FF00D1124000F111FD801AB53BE4FCB
:100EE0000C910057110B40039001419F300D1124CC
:100EF0002E0F3F1F37FF02C0215C3F4F96E0359514
:100F000027959A95E1F7620F1F910F9108950F931E
:100F10001F93522F10E0F801EE0FFF1FEA53FE4F10
:100F2000A081A052BB0B9D015203F001539FF00D15
:100F30001124000F111FD801AB53BE4F0C91005765
:100F4000110B40039001419F300D11242E0F3F1FC4
:100F500037FF02C021583F4F220F232F221F330B90
:100F6000620F1F910F910895EF920F93972F23E037
:100F7000029FB0011124759567956E0D792F0F9121
:100F8000EF900895322F50E0FA01EE0FFF1FEA5361
:100F9000FE4F9081905297FD9195440F551FFA0195
:100FA000EB53FE4F2081231B330B290F311D97FD7F
:100FB0003A95620F0895E42FF0E0EE0FFF1FEA5319
:100FC000FE4F6081621B0895E42FF0E0EE0FFF1FDB
:100FD000EB53FE4F6081621B0895622F0895E42F4A
:100FE000F0E0EE0FFF1FEB53FE4F408134EE439FC6
:100FF000412D1124E82FF0E050E0445E5F4FDA010C
:10100000A21BB1099D01B7FF03C03195219531099C
:1010100093E0220F331F9A95E1F7AF01421B530B68
:101020009A0157FD20E0582F259F212D1124822F52
:1010300008950C947D060C944B0622E8241B08F4BA
:1010400020E0620F0895FC019B01009729F480E0E5
:1010500077FF2BC080E80895AC0197FF04C04427B8
:101060005527481B590BB901640F751F37FD10C078
:10107000241B350BC901A5E0880F991FAA95E1F73C
:101080000E94722D80E2861BF7FF0FC081950895A4
:10109000CB0165E0880F991F6A95E1F7BA01621BE1
:1010A000730B0E94722D80E6EECF0895EF920F939E
:1010B000CF93DF93D72FC82FC9010E19BA010E9411
:1010C0002308602F681B7D2F8C2FDF91CF910F910C
:1010D000EF9008950F93CF93DF93D72FC82FC901B7
:1010E000BA010E942308682F600F7D2F8C2FDF919B
:1010F000CF910F910895EF920F931F93CF93DF93AA
:10110000D62FC72F182FC9010E19010FBA010E943F
:101110002308081B202F219F212D1124822F6D2FA2
:101120007C2FDF91CF911F910F91EF9008950F9336
:101130001F93CF93DF93D62FC72F182FC901212FCD
:10114000201B022FBA010E942308982F990F990F94
:10115000891B800F282F219F212D1124822F6D2F75
:101160007C2FDF91CF911F910F910895E82F86FD7D
:10117000E0952E2F2F7086FD2F5FE695E695E6957C
:10118000E670F0E0ED59FE4F9181929F902D212D58
:10119000112492959F702295207F922B2081920F8F
:1011A00087FD919580E8890F08950F931F93CF9342
:1011B000DF938B01D82FC42F822F0E94B608EC2F0B
:1011C000F0E0EE0FFF1FEB53FE4F90819058890F18
:1011D00087FD8195880F682F2CE0629F612D112477
:1011E000600F712F8D2FDF91CF911F910F91089577
:1011F000AC018230910508F408959FEF413E8EE1E5
:10120000580740F49A0195E0369527959A95E1F7AD
:1012100098E0920F61E0E62FE90FFF27FF1F9F0183
:1012200035952795822F229FF001239FF00DF00D19
:1012300011244E175F0738F49FEF920F961758F757
:101240008FEF860F08952F3FE9F361E0620FF6CF2D
:101250000F93CF93DF93D72FC82F47FD419588E396
:1012600090E0841B910947FD9395889FB001899F69
:10127000700D700D1124229FC001239F900D900DC1
:101280001124860F971F0E94F808982F990F890F35
:10129000682F600F7D2F8C2FDF91CF910F910895D4
:1012A00030E020E0869F212D969F200D311D1124D6
:1012B000C9010895AF92BF92CF92DF92FF920F9330
:1012C0001F93CF93DF93362F472FE82FF0E0EC5892
:1012D000FD4F71110FC0E4918E2F2E2F6E2F722FA4
:1012E000DF91CF911F910F91FF90DF90CF90BF9032
:1012F000AF900895C72FD0E02491F22E022F10E076
:1013000056E0659FC0011124EFEFF0E0BF010E949D
:101310005E2D832F90E0880F991F35E5369FD00111
:10132000379FB00D11248A1B9B0B982F990F980F94
:101330006F01CC1ADD0AC09ED001C19EB00DD09EB7
:10134000B00D11248B2F499FA0011124452F552743
:101350006F01C41AD50AC09EA001C19E500DD09E37
:10136000500D11245F01A91AB108AC9E6001AD9E19
:10137000D00CBC9ED00C1124CD2CDD24EC19FD0921
:10138000E09FE001E19FD00DF09FD00D1124ED2FE3
:1013900062307105A1F050F46115710509F49ECF1A
:1013A0006130710581F0EB2F852F98CF6430710586
:1013B00069F080F06630710509F490CFF4CFE22F28
:1013C0002B2F8D2F8BCFE22F252F88CFEB2F822F26
:1013D0002D2F84CF2B2F8F2DE52F80CFDF92EF92F3
:1013E000FF920F931F93CF93DF937C01C09118015D
:1013F000CC0FCC0F14E01C0F012F143408F003E4C1
:10140000609142056695669521E0620F08F46FEFE2
:1014100080913A0590913B050E945009D82ED0E06A
:10142000C01760F081E0133408F080E0DF91CF91C5
:101430001F910F91FF90EF90DF900895FE01E55B03
:10144000FD4F808190911901892391F060913F05B2
:1014500070914005809141052D2D4C2FF701099584
:101460000E945A09462F282F672FCE010E941B0881
:101470002196D6CF9F92AF92BF92CF92DF92EF92FA
:10148000FF920F931F93CF93DF936C01C0911801CC
:10149000CC0FCC0F14E01C0FB12E143410F033E439
:1014A000B32E609142056695669580913A059091BC
:1014B0003B050E945009F82E80E48F0D0E94B6086B
:1014C00090E8A92EA80E8F2D0E94B60820E8922E33
:1014D000980ED0E0CB1580F081E0133408F080E066
:1014E000DF91CF911F910F91FF90EF90DF90CF9000
:1014F000BF90AF909F900895FE01E55BFD4F808106
:10150000909119018923A1F060913F0570914005E8
:1015100080914105EF2C0C2F292D4A2DF6010995BC
:101520000E945A09462F282F672FCE010E941B08C0
:101530002196D0CF7F928F929F92AF92BF92CF92FF
:10154000DF92EF92FF920F931F93CF93DF935C0193
:10155000C0911801CC0FCC0F14E01C0FF12E1434E5
:1015600010F033E4F32E60914205669580913A05C0
:1015700090913B050E945009782ED0E0CF1590F055
:1015800081E0133408F080E0DF91CF911F910F913B
:10159000FF90EF90DF90CF90BF90AF909F908F9093
:1015A0007F900895FE01E55BFD4F808190911901C8
:1015B0008923C9F1CE01880F991F86589E4FFC01DF
:1015C000E55BFF4F2081422F4057550B6A01845B3A
:1015D0009F4FFC018081282F2052330B4901449FEB
:1015E0009001459F300D300D1124889CC001899CCD
:1015F000900D900D1124820F931F0E94F808082F60
:1016000060913F057091400580914105E72C940160
:10161000A601F50109950E945A09462F282F672F28
:10162000CE010E941B082196A9CFCF92DF92EF92A4
:10163000FF920F931F93CF93DF937C01C09118010A
:10164000CC0FCC0F14E01C0FD12E143410F033E467
:10165000D32E60914205669580913A0590913B05A5
:101660000E945009C82ED0E0CD1568F081E01334F7
:1016700008F080E0DF91CF911F910F91FF90EF90E4
:10168000DF90CF900895FE01E55BFD4F8081909142
:101690001901892311F1CE01880F991F86589E4F99
:1016A000FC01E45BFF4F20812052330B855B9F4F91
:1016B000FC0140814057550B60913F0570914005FA
:1016C000809141050C2DF70109950E945A09462F7A
:1016D000282F672FCE010E941B082196C5CF40916D
:1016E0006D03803F59F480916E0387FF0DC0109207
:1016F0006E0341110BC01092650308C0813F81F455
:1017000080916E0318169CF3442381F080916F033F
:1017100090917003892B09F05AC0109264030895C8
:10172000823F49F447FFF0CF10926D0380916E0322
:101730008111ECCFE0CF833F19F41416ACF3E4CF62
:1017400090916F03893F29F41916F4F610926F03F4
:10175000DBCF8A3F19F497FFD7CFF8CF9091700372
:101760008B3F29F497FFD0CF10927003CDCF8C3FE1
:1017700019F41916CCF3C8CF9CE0980F953090F46B
:10178000845F990B21E030E0B90102C0660F771F3A
:101790008A95E2F7CB01809590916C038923809321
:1017A0006C03B2CF8D3F31F4809166038E7F8093BE
:1017B0006603AACF8E3F21F4809166038D7FF7CF19
:1017C0008F3F09F0A1CF809166038B7FF0CF089502
:1017D0008091660380FD16C081FD16C082FD16C093
:1017E000809164038823A1F0883280F428E0829FEE
:1017F000C001112468E270E00E94722D862F672BD1
:1018000039F0089582E0089584E0089588E008950D
:1018100081E008958091660380FD14C081FD14C0AD
:1018200082FD16C080916503882381F0843180F4A5
:1018300022E3829FC001112464E170E00E94722DB6
:10184000862F08958CE0089589E1089585E0089534
:1018500082E30895803F31F40E940A0C81958093C1
:101860006E030895813F19F40E940A0CF8CF823F5D
:1018700031F40E940A0C819580936D030895833F93
:1018800019F40E940A0CF8CF893F29F40E94E80B52
:1018900080936F0308958A3F21F40E94E80B81959D
:1018A000F7CF8B3F31F40E94E80B81958093700352
:1018B00008958C3F19F40E94E80BF8CF9CE0980F34
:1018C000953070F4845F990B21E030E001C0220F65
:1018D0008A95EAF780916C03822B80936C030895BC
:1018E0008D3F31F480916603816080936603089593
:1018F0008E3F21F4809166038260F7CF8F3FB9F766
:10190000809166038460F1CF80E00895F894E82F19
:10191000E295EF70F0E031A1282F2F7081E090E088
:1019200001C0880F2A95EAF7982F9095932391A3E9
:1019300092A1892B82A3789408959091010592FF3A
:1019400006C0282F28712830F9F4877F846093FF20
:1019500006C0282F28712831F1F4877E84612091F8
:10196000020520FF06C0382F38713830D9F4877F40
:10197000816021FF06C0282F28712831D1F4877E8D
:10198000816194FD877E0895282F24712430F9F613
:101990008B7F8860DCCF282F2471243101F78B7E68
:1019A0008861DDCF382F3171313019F78E7F886033
:1019B000E0CF282F2171213121F78E7E8861E1CF80
:1019C000CF93DF93EC0182389105A9F1D8F58133EB
:1019D000910509F496C048F58932910509F48AC049
:1019E0008A9709F495C0C11521E5D20708F0BCC05B
:1019F000C11530E5D30708F014C1C83ED10508F081
:101A00009CC0C03ED10560F5C83AD10508F087C03A
:101A1000C53AD10508F0FDC0C130D10509F12097C4
:101A2000F9F0C430D105E0F440C08533910509F4E4
:101A30005AC0C997C1F680910105837089F0C0EE44
:101A4000D0E00EC0833E910599F170F4803E91057F
:101A500001F1823E910539F68091010582FD21C098
:101A6000CE01DF91CF910895863E910561F1873EC9
:101A7000910571F1843E910509F0B5CF8091020581
:101A800081FFEECF80910105C7EED0E084FD0DC04F
:101A9000E7CF8091010580FD12C19091020590FF72
:101AA000DFCFC3EED0E084FFDBCFD0E0C0E0D8CF03
:101AB0008091010582FD06C19091020590FDBFCF86
:101AC00084FFCECFF2CF8091010583FDDDCFC8CF5B
:101AD0008091010583FDF9C09091020591FFF0CF3F
:101AE000C4EED0E0BDCF8091010585FFB9CFC9E23A
:101AF000D0E0B6CF8091010585FFB2CFC5E3D0E03D
:101B0000AFCF8091010586FFABCFCAE2D0E0A8CF6E
:101B10008091010586FFA4CFC1E3D0E0A1CFCF3BE8
:101B2000D10518F6C85AD0E0CC0FDD1FCF5DDE4FCF
:101B30000990D881C02DD46493CFC11540E2D40759
:101B400058F4C11581E0D80708F08ACFC03FD1050D
:101B500008F4ABCFD06584CFC11590E4D90708F461
:101B6000A4CFDF70D06A7CCFC11525E5D20700F580
:101B7000C11534E5D30708F08AC0C11543E5D40781
:101B800008F071C0C11582E5D80708F467C0CE011E
:101B90008370992721E030E002C0220F331F8A951D
:101BA000E2F7C695C69580E2C89FE001112452C0B5
:101BB000C11599E5D907A8F4C11528E5D20708F0A1
:101BC0006BC0C11536E5D30708F06FCF8C2F0E948C
:101BD0009D0CC82FD0E0DC2FCC27CC27DF71D06242
:101BE0003FCFC1154AE5D40708F45BC0CE0190563B
:101BF0008115904208F059CF8D2F8F710E949D0C56
:101C000090E0982F882788279F719C012C2BE90151
:101C1000E6CFC55AD0E0C25EDE4FC881D0E0D064C6
:101C20001FCFCE01E4E096958795EA95E1F78370A2
:101C30002C2F26952695237040E2249F9001112495
:101C4000382B8C2F8370C1E0D0E002C0CC0FDD1F99
:101C50008A95E2F7C22BD32BDC6802CFDC2FCC278E
:101C6000C16FD06AFDCECE018370992721E030E0AC
:101C700002C0220F331F8A95E2F7C695C69590E2FF
:101C8000C99FE0011124C22BD32BDA68E9CEDC2FE7
:101C9000CC27C46FD06AE4CEDC2FCC27C06FD06ACB
:101CA000DFCE8C2F8F700E949D0C34E0D695C795A7
:101CB0003A95E1F7CF709C2FEC01D069D1CEC9E302
:101CC000D0E0CECEC2EED0E0CBCEC6EED0E0C8CED5
:101CD00080910F03811110920F03089580910E03DC
:101CE00090910D03892B90910C03892B8093940282
:101CF00090910F039923A1F0892B809394028091F6
:101D00001601882341F18091010587FF24C08EE1EF
:101D1000E6E9F2E090E0815000F591110E94680E32
:101D2000E091F804F091F9043097E1F08091160108
:101D3000882359F08091010587FF07C080919402A4
:101D40008093950285E0809394020280F381E02DD8
:101D500084E992E0099486E0DBCF21912223D9F235
:101D60009F5FD9CF089580910A039091D90298136B
:101D700001C008958F5F8770FACF2FE0929F800D8A
:101D80001124982F977086958695869523E0829FDB
:101D9000F0011124EB54FD4F50E040E080E0219130
:101DA00030E0092E02C0369527950A94E2F721709B
:101DB0003327042E01C0220F0A94EAF7822B4F5FCB
:101DC0005F4F4330510559F708952FE0929F800DE2
:101DD0001124982F977041E001C0440F9A95EAF7BB
:101DE00086958695869593E0899FF0011124EB54A2
:101DF000FD4F90E080E070E05191DF0111979B0171
:101E0000082E02C0369527950A94E2F72170219595
:101E10002527242325272C9301968330910561F7EC
:101E20000895882341F0809590910E038923809333
:101E30000E030C946E0E0895882339F090910E03D2
:101E4000982B90930E030C946E0E089590912B0591
:101E5000943029F58093030570930505609304057C
:101E60009093E9008FEF9091E800815095FD06C0B6
:101E700095ED9A95F1F700008111F5CF8091E8007A
:101E800085FF0DC050E040E063E070E083E095E046
:101E90000E9472048091E8008E778093E800089594
:101EA000BC0184E00C94260FBC0183E00C94260F47
:101EB0009C0184E08093E9009FEF8091E8009150BD
:101EC00085FD06C085ED8A95F1F700009111F5CFEB
:101ED0008091E80085FF0CC050E040E066E070E0D3
:101EE000C9010E9472048091E8008E778093E80017
:101EF0000895CF93DF93EC01809116018823B1F10F
:101F00008091010587FF32C060E284E08093E900A0
:101F10008FEF9091E800815095FD06C095ED9A9560
:101F2000F1F700008111F5CF8091E80085FF1BC01B
:101F30008091160170E050E040E0811104C050E053
:101F400040E068E070E0CE010E9472048091E800F9
:101F50008E778093E80080E2FE01A9E0B5E0019071
:101F60000D928A95E1F7DF91CF91089568E081E0C5
:101F7000CDCF81E08093E00080E28093D800109282
:101F8000C9008FE19EE40197F1F700C0000087E0EF
:101F900090EBDC018093440590934505A0934605A2
:101FA000B093470588E19CE00FB6F894A89580931C
:101FB00060000FBE90936000FFCFCF93DF93CFE719
:101FC000D2E060E0CE010E94772F2196C11584E017
:101FD000D807B9F7DF91CF9108956F927F928F92D2
:101FE0009F92AF92BF92CF92DF92EF92FF920F93A8
:101FF0001F93CF93DF9380E8C82E84E0D82E9BED0B
:10200000E92EF12CE701C659D10936011BC0F501B3
:1020100085909490692DC8010E94772F682DC80182
:1020200001960E94772F82E0A80EB11C0E5F1F4F11
:10203000C017D10761F78EE1680E711C6E96CE1540
:10204000DF0529F08E010E5111095301E0CF7E0109
:1020500086E9E80EF11C86E9C80ED11C83E3E81678
:1020600083E0F80679F6DF91CF911F910F91FF90F1
:10207000EF90DF90CF90BF90AF909F908F907F9028
:102080006F900895CF93C82F6FEF811161E283E2C3
:1020900090E00E94772F6FEFC11169E084E290E039
:1020A0000E94772F6FEFC11166E085E290E0CF913B
:1020B0000C94772F80E00E94421060E086E290E06E
:1020C0000E94772F0E94ED0F0E94DD0F81E00C949B
:1020D0004210CF93C92F682F84E090E00E94772FA1
:1020E0006C2F82E290E0CF910C94772F90910205B3
:1020F00092FB222720F9281751F080FB92F9909348
:10210000020580910105909102050C9469100895D3
:102110000F931F93CF93DF93C42FD0E0CC0FDD1F1D
:102120002EE1629FC00DD11D112436E9839FC00DA1
:10213000D11D1124CE0187960E94592F082F10E03F
:10214000102F0027CE0188960E94592F9801282B26
:10215000C901DF91CF911F910F910895462F8430CF
:1021600038F4753028F46F3018F4672F0C94881009
:1021700090E080E00895CF92DF92FF920F931F933B
:10218000CF93DF936C010091390580911003082BE8
:10219000C7E0D0E010E0FC2EC8010C2E02C09595DF
:1021A00087950A94E2F780FD0CC02197A0F7F12CE7
:1021B0008F2DDF91CF911F910F91FF90DF90CF90E6
:1021C0000895B6018C2F0E94AE100E94E00C01977A
:1021D00061F3EECFCF93DF93EC010E94BB10BE0101
:1021E0000E94AE10DF91CF910C94E00CFC01808135
:1021F00091810E94EA10292F2F7092959F70925022
:102200009E3078F4E92FF0E0E050F04D0C94862DEC
:10221000803F19F020F4883E20F481E00895843F47
:10222000E1F380E00895883EC0F3813FD1F7F5CF18
:10223000822F869586958695089583E290E00E9488
:10224000592F813289F484E290E00E94592F89301D
:1022500059F485E290E00E94592F91E0863009F010
:1022600090E0892F8170089580E0FCCFCF9384E0C7
:1022700090E00E94592FC82F82E290E00E94592FCF
:10228000982F8C2FCF9108950F931F93CF93DF93A7
:10229000082F000FEB0114E210939A03EBE9F3E02F
:1022A000DE018D91819383E0EB3AF807D1F724E6C4
:1022B00030E041E150E06AE973E0802F0E94372D61
:1022C000105F6096143B41F7DF91CF911F910F9102
:1022D00008958091AE03882329F060EB73E084E7D2
:1022E0000E9444111092AE038091AF03882329F01D
:1022F00060E474E086E70E9444111092AF030895F1
:10230000EAE9F3E06083418324E630E042E050E014
:10231000BF01880F0C94372DEF92FF920F931F93FC
:10232000CF93DF93E82E062F10E00C501B4FF801DF
:102330008081882381F0F2E16F9FE0011124C05376
:10234000DB4FF12C49916F2D8E2D0E948011F3945B
:1023500082E1F812F7CFF8011082DF91CF911F913F
:102360000F91FF90EF900895CF93DF93C82F4BE02C
:102370006DEF0E94801140E06AE08C2F0E94801176
:102380008FE39CE90197F1F700C0000040E060E0B6
:102390008C2F0E94801140E061E08C2F0E94801100
:1023A00040E066E08C2F0E94801140E06DEF8C2FA2
:1023B0000E948011D0E040E06D2F8C2F0E94801190
:1023C000DF5FD231C1F740E06D2F8C2F0E9480116A
:1023D000DF5FD432C1F740E06D2F8C2F0E94801157
:1023E000DF5FD43BC1F74BE06DEF8C2F0E94801173
:1023F00041E06AE08C2F0E94801140E06DEF8C2F4D
:10240000DF91CF910C9480116F927F928F929F9267
:10241000AF92BF92CF92DF92EF92FF920F931F93F2
:10242000CF93DF930E94882C84E70E94B41186E743
:102430000E94B41164E7E62E63E0F62ED12CC12C85
:1024400072E1772EE8E08E2E912CAA24A394B12C71
:1024500066246394F7013196449150E0CA01849751
:10246000319604910452110B3196C491C452DD0B84
:10247000F601EE0FFF1FEE0FFF1FEC58FC4F2491EB
:10248000237030E0FC0197FD379643E0F595E79522
:102490004A95E1F7729EA001739E500D112440539E
:1024A0005B4FE40FF52FF11DB4010E94722DA501C1
:1024B00001C0440F8A95EAF78081842B8083F8015C
:1024C00017FD379693E0F595E7959A95E1F7729E9B
:1024D000C001739E900D112480539B4FE80FF92F7C
:1024E000F11DC801B4010E94722DA50101C0440F65
:1024F0008A95EAF78081842B8083FE01D7FD379689
:1025000083E0F595E7958A95E1F7729EC001739E89
:10251000900D112480539B4FE80FF92FF11DCE0130
:10252000B4010E94722DA50101C0440F8A95EAF7FB
:102530008081842B80832C503B4FF9016082FFEF18
:10254000CF1ADF0A84E0E80EF11CE3E4CE16D104D2
:1025500009F080CF60E084E70E948C1161E086E79B
:10256000DF91CF911F910F91FF90EF90DF90CF906F
:10257000BF90AF909F908F907F906F900C948C1134
:102580001F93CF93DF93EC01FC01E55BFD4F80814E
:102590006823C9F00E94FB2D182F0E94FB2D8F7716
:1025A000782F20E8720F08F47FEF612F80914105AA
:1025B0000E945A09462F282F672FCE01DF91CF9115
:1025C0001F910C941B08DF91CF911F910895DF920A
:1025D000EF92FF920F931F93CF93DF938C01FC0137
:1025E000E55BFD4F8081682381F1D0904005D0915B
:1025F0004105C0913F05EC2EF12C0E94FB2D282FA8
:10260000C7018C549F4F68E671E00E94722D8E19AD
:102610009F0997FD039695958795959587952370C6
:102620006C2F289F600D11247D2D8D2F0E945A093B
:10263000462F282F672FC801DF91CF911F910F914F
:10264000FF90EF90DF900C941B08DF91CF911F91CA
:102650000F91FF90EF90DF9008959F92AF92BF92FD
:10266000CF92DF92EF92FF920F931F93CF93DF935E
:10267000182F80911501811323C090913E0593700E
:102680002091140130E081E09217130609F480E0F4
:10269000817080931A0180914305909119019817D8
:1026A00039F08093190140E060E080E00E94190851
:1026B000193160F4E12FF0E0E25FFF4C0C94862DBD
:1026C00081E0E6CF80911A01811102C0C0E047C1CC
:1026D00040E060E080E00E941908F8CFC091180146
:1026E000CC0FCC0F04E00C0FF02E043410F0F3E408
:1026F000FF2E60913F0570914005809141050E9439
:102700005A09E62ED72EC82ED0E0CF1528F0C1E00A
:10271000033408F424C1DACFFE01E55BFD4F80816C
:1027200090911901892331F02C2D4E2D6D2DCE0164
:102730000E941B082196E9CFC0911801CC0FCC0F45
:1027400004E00C0FF02E043410F0E3E4FE2ED090E1
:102750004005E0904105D0913F056D2F7D2D8E2DD8
:102760000E945A09C62EB72EA82E609142056D0F01
:102770007D2D8E2D0E945A09E62ED72E982ED0E060
:10278000CF1528F6FE01E55BFD4F90818091190180
:10279000892359F0292D4E2D6D2D90FD03C02A2D32
:1027A0004C2D6B2DCE010E941B082196E9CFC091C4
:1027B0001801CC0FCC0F04E00C0FE02E043410F005
:1027C00073E4E72ED0904005C0904105209142056A
:1027D00060E4F62E3F2D329F312D1124F32ED0E0F0
:1027E000CE1508F094CFFE01E55BFD4F80819091FE
:1027F00019018923D9F0FE01EE0FFF1FEB53FE4FA5
:102800006081F69EB001112455E0759567955A9543
:10281000E1F780913F05680F7D2D8C2D0E945A09AC
:10282000462F282F672FCE010E941B082196D8CF54
:10283000C0911801CC0FCC0F04E00C0FF02E043423
:1028400010F033E4F32EE0903F05D0914005D09096
:1028500041056091420566956695669580913A05B9
:1028600090913B050E9450090E94B608805887FD50
:102870008195880F282F3D2D239F212D1124822FF4
:102880006E2D7D2F0E945A09E62ED72EC82ED0E03D
:10289000CF1508F03CCFFE01E55BFD4F80819091A4
:1028A0001901892331F02C2D4E2D6D2DCE010E9462
:1028B0001B082196EDCF8FEE97E00E94EE0904C031
:1028C00087E998E00E94150BC82F49C08BE798E074
:1028D0000E949A0AF9CF8DEE97E0EFCF84EE97E051
:1028E000ECCF8BED97E0E9CF82EC97E0E6CF84EB7D
:1028F00097E0EECF88E299E0E5CF8AE698E0E2CF74
:1029000086E598E0E5CF87E897E00E943A0ADCCFB9
:1029100089E597E0FACF82E297E0F7CFC0911A01FC
:10292000C1113CC06091420520E1620F08F46FEFD5
:1029300080913A0590913B050E9450096AE070E051
:102940000E945E2D892B09F0C1CE0E94FB2D63E40D
:1029500070E00E94722D609119010E94E71280912F
:1029600018018F5F80931801C1110CC082E0809321
:10297000170180911A01811105C0111103C083E074
:1029800080931701DF91CF911F910F91FF90EF90EE
:10299000DF90CF90BF90AF909F900895C0911801A5
:1029A000CC0FCC0F04E00C0F802F043408F083E42C
:1029B000D0E0E82EF12CCE15DF050CF0A8CE60910A
:1029C0001901CE010E94E7122196F5CFC0911A019C
:1029D000C1111EC06091420520E1620F08F46FEF43
:1029E00080913A0590913B050E94500965E070E0A6
:1029F0000E945E2D892B09F069CE0E94FB2D63E4B5
:102A000070E00E94722D609119010E94C012A7CF40
:102A1000C0911801CC0FCC0F04E00C0F802F0434B0
:102A200008F083E4D0E0E82EF12CCE15DF050CF0A1
:102A30006ECE60911901CE010E94C0122196F5CF91
:102A4000C0911801CC0FCC0F04E00C0FF02E043411
:102A500010F023E4F22ED0904005E0904105D09193
:102A60003F056091420566956695669580913A05A9
:102A700090913B050E9450090E94B608805887FD3E
:102A80008195880F682F2CE0629F612D11246D0FB6
:102A90007D2D8E2D0E945A09E62ED72EC82ED0E00D
:102AA000CF1508F034CEFE01E55BFD4F808190919B
:102AB0001901892331F02C2D4E2D6D2DCE010E9450
:102AC0001B082196EDCF85ED98E0F7CE81E197E0E8
:102AD000F4CEC0911801CC0FCC0F04E00C0FD02E17
:102AE000043410F093E4D92E2091420531E0230FF5
:102AF00008F42FEF30E050E040E06FEF7FEF80E030
:102B000090E00E949B2F7901D0E02C2FCD1508F08A
:102B1000FECDFE01E55BFD4F808190911901892377
:102B200011F1409171034150042E000C550B47FFE9
:102B30001CC0C7016091420531E0630F08F46FEFDC
:102B40000E945009AC0160913F0570914005809151
:102B500041050E941D080E945A09462F282F672F01
:102B6000CE010E941B082196D0CFFA01EF58FC4FEE
:102B7000818982130AC0FA01EE0FFF1FEF58FC4F44
:102B8000818D928D8E159F05A8F241505109CFCFAE
:102B9000EEE3F5E081E2808380911B0190911C01BE
:102BA000A0911D0181839283A3838FE784838FEF9C
:102BB000858346E050E06CE170E0CF010C94672F14
:102BC00090E080E00E94612F893E9E4F11F40C94AA
:102BD0001D1180E0089569EE7EEF90E080E00E9494
:102BE000952F60E082E090E00E94772F60E083E024
:102BF00090E00E94772F1092100360E084E090E054
:102C00000E94772F60E082E290E00E94772F60E0E0
:102C100085E090E00E94772F60E086E090E00E94DF
:102C2000772F6FEF87E090E00E94772F40E050E031
:102C3000BA0188E090E00E94892F60E08DE090E08A
:102C40000E94772F40E050E0BA0188E190E00E94B6
:102C5000892F60E087E190E00E94772F40E050E00C
:102C6000BA018CE190E00E94892F70E060E080E280
:102C700090E00E94952F40E050E0BA0188E190E09A
:102C80000E94892F80E00E9442100E945A1040E06A
:102C900050E0BA018FE090E00E94892F40E050E0C0
:102CA000BA0183E190E00C94892F1F920F920FB626
:102CB0000F9211242F933F934F935F936F937F93C2
:102CC0008F939F93AF93BF93EF93FF938091E10016
:102CD00082FF09C08091E20082FF05C08091E1007F
:102CE0008B7F8093E1008091DA0080FF24C0809187
:102CF000D80080FF20C08091DA008E7F8093DA00B8
:102D00008091D90080FF9BC080E189BD82E189BDAF
:102D100009B400FEFDCF81E080932B05809106056C
:102D2000811109C00E9422040E94ED048091E200FA
:102D300084608093E2008091E10080FF17C0809161
:102D4000E20080FF13C08091E2008E7F8093E2005A
:102D50008091E20080618093E2008091D8008062DF
:102D60008093D80019BC85E080932B058091E10009
:102D700084FF29C08091E20084FF25C080E189BDE5
:102D800082E189BD89B5982F917080FFFBCF80913A
:102D9000D8008F7D8093D8008091E1008F7E809352
:102DA000E1008091E2008F7E8093E2008091E2005A
:102DB00081608093E20080912C05882309F445C04E
:102DC00084E080932B058091E10083FF27C08091F0
:102DD000E20083FF23C08091E100877F8093E100C0
:102DE00082E080932B0510922C058091E1008E7F6C
:102DF0008093E1008091E2008E7F8093E2008091D9
:102E0000E20080618093E20042E060E080E00E94A6
:102E1000BB048091F00088608093F000FF91EF91F7
:102E2000BF91AF919F918F917F916F915F914F91E2
:102E30003F912F910F900FBE0F901F90189519BCC6
:102E400010922B051092060576CF8091E30087FD46
:102E500093E090932B05B7CF78941F921FB61F92E3
:102E600011248F939F93AF93BF938091FD04909112
:102E7000FE04A091FF04B09100050196A11DB11DB3
:102E80008093FD049093FE04A093FF04B09300058B
:102E9000BF91AF919F918F911F901FBE1F9018956A
:102EA0009C014FB7F8948091FD049091FE04A0918D
:102EB000FF04B09100054FBF821B930B08952FB7FD
:102EC000F8948091FD049091FE04A091FF04B091CC
:102ED00000052FBF08950E945F179C0190916D031C
:102EE00080916E03982B21F030936A03209369033D
:102EF00090916F0380917003982B21F030936803B9
:102F000020936703E091F804F091F904309749F0B9
:102F100082E080936B030480F581E02D8BE693E0E3
:102F20000994089590E080E00E94240690E080E0FB
:102F30000E940E0610920D0310920C030E946E0E5A
:102F400086E0EBE6F3E0DF011D928A95E9F7109247
:102F5000650310926403109266030C946B178093C0
:102F600039050C94921780913905982F96709630F8
:102F700019F488600C94AF17877FFCCF21E030E014
:102F800001C0220F8A95EAF72095809139058223A6
:102F90000C94AF1790910B038095892380930B03BA
:102FA000282F277039F4282F082E000C330B921786
:102FB000130621F49091020592FF07C0859585952F
:102FC00085950E94BE1710920B03089521E030E012
:102FD00001C0220F8A95EAF780913905822B0C9463
:102FE000AF17809310030C94921710920E038091E8
:102FF0001601E6E9F2E0882359F08091010587FF88
:1030000007C08EE1DF011D928A95E9F70C949217B3
:1030100086E0F8CF1F93CF93DF93CDB7DEB7AA97A3
:103020000FB6F894DEBF0FBECDBF8DE295E02091C4
:10303000F100DC012D93CD01B5E085339B07B9F795
:1030400080912E05833009F471C0B8F4813009F401
:1030500048C0823009F4B2C08091E80083FF88C282
:1030600080912D0590912E059A3008F081C2E92FAC
:10307000F0E0E95DFF4C0C94862D8A3009F48DC098
:103080008B3009F470C0893039F780912D05813279
:1030900019F78091310590913205009711F0029750
:1030A000D9F68091E800877F8093E8008091E8005E
:1030B00082FF37C09091F3008091F200029729F4CB
:1030C0008091F1008B7F813021F48091F100809319
:1030D00008058091E8008B778093E8000E949C04AB
:1030E000BBCF80912D05813A09F0B6CF8091E800E1
:1030F000877F8093E8008091310590913205892B7C
:1031000061F460E289E095E070E00E944E058091F4
:10311000E8008B778093E8009FCF60E090E080E04C
:10312000F3CF80912B058111C1CF96CF80912D05D2
:10313000813A09F091CF8091310590913205892B28
:1031400009F08ACF8091E800877F8093E800809122
:10315000E80080FFFCCF809116018093F100809100
:10316000E8008E77B9CF80912D05813209F074CFB8
:103170008091310590913205892B09F06DCF8091B6
:10318000E800877F8093E8000E949C0480912F05CF
:10319000809316010E94F5175FCF80912D05813233
:1031A00009F05ACF8091E800877F8093E8000E9461
:1031B0009C0480913005809307054ECF80912D05AA
:1031C000813A09F049CF8091E800877F8093E80039
:1031D0008091E80080FFFCCF80910705BECF80384A
:1031E00099F0823809F0C4C1809131058F70873021
:1031F00008F0BEC18093E9008091EB0085FB882731
:1032000080F91092E90006C08091290590912A0565
:10321000911182609091E800977F9093E8008093ED
:10322000F1001092F1008091E8008E779DC1882313
:1032300009F48BC1823009F09BC180912F05811167
:103240008EC1809131058F702FEF280F263008F046
:103250008FC18093E9002091EB0020FF80C1933063
:1032600031F48091EB0080628093EB0078C1909103
:10327000EB0090619093EB0021E030E001C0220F61
:103280008A95EAF72093EA001092EA008091EB0019
:103290008860EACF81116CC110912F051F77809152
:1032A000E3008078812B8093E3008091E800877FA2
:1032B0008093E8000E949C048091E80080FFFCCF8E
:1032C0008091E30080688093E30082E0111183E045
:1032D00080932B054DC18058823008F049C1209160
:1032E0002F05309130052C3DE3E03E07A1F583E04A
:1032F0008A838AE289834FB7F894DE01139620E02F
:103300003EE051E2E32FF0E050935700E49120FFBC
:1033100003C0E295EF703F5FEF708E2F90E0EA30D0
:10332000C0F0C7968D939D932F5F243159F74FBFFF
:103330008091E800877F8093E8006AE270E0CE0128
:1033400001960E944E058091E8008B778093E800FB
:103350000FC1C096E7CF8091310590913205432F80
:1033600055274330510509F44AC078F541305105DD
:1033700009F47AC08BE590E0E8EDF6E042305105C3
:1033800009F0F6C02091E800277F2093E800209103
:103390003305309134058217930708F49C0140E00F
:1033A0002115310509F065C0411163C08091E80025
:1033B00082FDC9CF80912B05882329F2853019F22F
:1033C0008091E80083FFF2CFBECF4132510509F46E
:1033D0003CC04232510509F0CBC08330910508F062
:1033E000C7C0FC01EE0FFF1FE259FE4F0190F081B4
:1033F000E02D85599E4FDC018C9190E01AC0332757
:1034000021303105D1F02115310561F0223031052F
:1034100009F0AEC0E5E4F7E0E4918E2F90E0E5E43A
:10342000F7E007C0E3E6F7E0E4918E2F90E0E3E6F3
:10343000F7E0009709F49CC0A5CFE1E5F7E0E4913F
:103440008E2F90E0E1E5F7E0F4CF8330910508F0AE
:103450008FC0880F991FFC01EC58FE4F0190F0813E
:10346000E02D89E090E08ECF82E190E0E3E3F7E0A9
:1034700089CF80912B05882309F465CF853009F425
:1034800062CF8091E80083FD5ECF8091E80082FDED
:103490008DCF8091E80080FF83CF9091F3008091E1
:1034A000F2002115310519F08830910550F041E006
:1034B000089709F040E08091E8008E778093E8005B
:1034C0006FCF44914093F10031962150310901961C
:1034D000E8CF803809F04CC08091E800877F809366
:1034E000E80080912C058093F1009DCE811140C0B1
:1034F00010912F051230E0F58091E800877F8093CE
:10350000E80010932C050E949C04112311F084E024
:1035100005C08091E30087FDFACF81E080932B0501
:1035200042E061EC81E00E94BB0442E261EC84E095
:103530000E94BB0442E261EC82E00E94BB0442E2D2
:1035400060EC83E00E94BB0413C080912F058130A2
:1035500079F481E0933009F080E080932A0510929D
:10356000E9008091E800877F8093E8000E949C0436
:103570008091E80083FF0AC08091E800877F8093F4
:10358000E8008091EB0080628093EB00AA960FB672
:10359000F894DEBF0FBECDBFDF91CF911F9108958C
:1035A0001F920F920FB60F9211242F933F934F93B8
:1035B0005F936F937F938F939F93AF93BF93CF93BB
:1035C000DF93EF93FF93D091E900DF708091EC00DF
:1035D000C82FC17080FDC0E81092E9008091F00012
:1035E000877F8093F00078940E940A181092E90077
:1035F0008091F00088608093F000CD2BCF70C09355
:10360000E900FF91EF91DF91CF91BF91AF919F9131
:103610008F917F916F915F914F913F912F910F907B
:103620000FBE0F901F9018958823B1F19CEF980F53
:10363000913A38F4682F84E992E00E94AF050C9427
:103640006E0E90E2980F983088F4877021E030E099
:10365000A90102C0440F551F8A95E2F7CA0180955F
:1036600090910E03892380930E03E9CF9BE5980F79
:10367000933020F490E080E00C94240698E5980FB5
:10368000973120F490E080E00C940E06803F20F00B
:103690000E946F0B0C946B170895CF93C82F88234B
:1036A00009F46EC08CEF8C0F813AB8F58091160149
:1036B000882311F18091010587FF1EC0EC2FE6954C
:1036C000E695E695F0E0EC56FD4F828190E04C2FB8
:1036D000477021E030E002C0220F331F4A95E2F725
:1036E00082239323892B89F06C2F84E992E00E9436
:1036F000AF050E946E0E09C0E6E9F2E08191C8179D
:1037000099F382E0EC39F807C9F76C2F84E992E06D
:103710000E94D905CF910C946E0E80E28C0F8830F8
:1037200068F4C77021E030E001C0220FCA95EAF7C3
:1037300080910E03822B80930E03ECCFEBE5EC0F10
:10374000E33040F4F0E0E25EFE4F808190E0CF9104
:103750000C942406E8E5EC0FE73150F4F0E0EE0FAE
:10376000FF1FEF5DFE4F80819181CF910C940E067B
:10377000C03F30F08C2F0E942A0CCF910C946B1715
:10378000CF9108951F93CF93DF93182FD0E0C0E01F
:10379000893311F4C0E5D0E0812F0E944D1B2097A2
:1037A00031F4812FDF91CF911F910C94141B8FE97D
:1037B0009FE00197F1F700C000002197F0CF0F9331
:1037C0001F93CF93DF93C62FD42F022FFC0182814A
:1037D0008823A1F0609337050E945F179093360508
:1037E00080933505C77081E001C0880FCA95EAF75C
:1037F000DF91CF911F910F910C941C0F8091370591
:10380000681335C080913505909136050E94501798
:10381000883C910560F510E21D0FCD17B9F080E2EC
:103820008C0F883040F4C77081E001C0880FCA95C2
:10383000EAF70E94110F183048F481E09D2F97702D
:1038400001C0880F9A95EAF70E941C0F802F0E94F2
:10385000C21B183098F4D77081E001C0880FDA9548
:10386000EAF7DF91CF911F910F910C94110FC77060
:1038700081E001C0880FCA95EAF7F3CFDF91CF91BD
:103880001F910F9108953F924F925F926F927F9296
:103890008F929F92AF92BF92CF92DF92EF92FF9260
:1038A0000F931F93CF93DF9300D000D00F92CDB72B
:1038B000DEB78C01FC0183819481892B31F08081FA
:1038C000918189238F3F09F053C50F900F900F907E
:1038D0000F900F90DF91CF911F910F91FF90EF907C
:1038E000DF90CF90BF90AF909F908F907F906F9020
:1038F0005F904F903F9008950E94BB10F82E682F64
:1039000089819A810E94E50E69817A818F2D0E94BA
:10391000AE107C01F8018281882309F4EFC497017D
:1039200022513F452031310508F015C58FEF93E056
:103930000E94592FFEEEEF0E5FE7852E52E0952E86
:10394000882381F180910B03877009F4BECFF801C1
:103950008281882309F4B9CF82E00F900F900F90F5
:103960000F900F90DF91CF911F910F91FF90EF90EB
:10397000DF90CF90BF90AF909F908F907F906F908F
:103980005F904F903F900C94CA17811424E09206E8
:10399000C9F2C4010E94592F811101C0EA943FEF7E
:1039A000831A930AE110F1CF1C821B8244244394B2
:1039B0004AE0342E74018FEFE81AF80AC4010E941D
:1039C000592F89831A82882309F4BCCF9FEF980F5F
:1039D000933000F58A83498292E0890E911CC701D9
:1039E0000E94592F8B83882309F4ACCFFE013196B6
:1039F0007F01F70120812223E9F2213009F049C03B
:103A000091818281913041F4F2E0EF0EF11C0E942D
:103A1000C21B09C04701EACF923049F422E0E20E0E
:103A2000F11C0E944D1B3FEFE31AF30AE2CF9330E3
:103A300031F432E0E30EF11C0E94141BF4CF9430F9
:103A400021F08FEFE81AF80AEECF92E0E90EF11CB0
:103A500030E020E0B7016F5F7F4FF7014181805375
:103A6000990B8A30910550F021503109E0F28FE92D
:103A70009FE00197F1F700C00000F6CF329EF00101
:103A8000339EF00D11249C012E0F3F1F842F7B01CC
:103A9000E1CFE22FF0E0EC50FE4F5490822F86955C
:103AA0008695869590E0FC01EC51FE4F649027705E
:103AB000712C022E02C0759467940A94E2F7E1E03B
:103AC0006E227724FC01EC52FE4FA490B12C022E02
:103AD00002C0B594A7940A94E2F7F1E0AF22BB24A8
:103AE000FC01EC53FE4FC490D12C02C0D594C79476
:103AF0002A95E2F721E0C222DD246114710419F055
:103B000081EE0E944D1BA114B10419F086EE0E94B3
:103B10004D1B852D0E94C21BAB2819F086EE0E941A
:103B2000141B672819F081EE0E94141BCD2809F49C
:103B30007ACF8CE26CCF81E00E94E6170E94B31727
:103B400001CF81E00E94BE17F9CF82E0FBCF95EF55
:103B5000E9169CE5F90609F462C008F45CC027E2A6
:103B600045EE66EEF6EFEF16FCE5FF0609F4EFC34F
:103B7000882309F40EC41092370522E0E2162CE5E2
:103B8000F20608F445C136E1E3163CE5F30630F0F1
:103B9000C7018A5F9C45099708F03AC10E94361117
:103BA000909302058093010580E1E8168CE5F80604
:103BB00009F4FDC008F07CC0E8E0EE16ECE5FE0676
:103BC00009F4E7C008F048C024E0E2162CE5F2064C
:103BD00009F4D7C058F582E0E8168CE5F80609F438
:103BE000CAC080910105826093E0E9169CE5F90660
:103BF00009F4C4C080910105909102050E946910EA
:103C00000E94F5179FCE27E245EE65EEA0C326E29F
:103C100041EE60EE9CC327E245EE64EE98C326E2D7
:103C200041EE62EE94C328E241E0EFCF80910105BE
:103C30008061E6E0EE16ECE5FE0609F49FC0809197
:103C400001058860F7E0EF16FCE5FF0608F496C072
:103C500080910105806292C0809101058D7F2CE0EA
:103C6000E2162CE5F20609F489C060F48AE0E81651
:103C70008CE5F80609F497C008F48FC0809101051F
:103C80008E7F7CC080910105877FEEE0EE16ECE52B
:103C9000FE0609F473C0809101058B7FFFE0EF16EB
:103CA000FCE5FF0608F46AC0809101058F7E66C0BE
:103CB0002BEFE2162CE5F20609F467C068F583E104
:103CC000E8168CE5F80609F47AC090F4E1E1EE1606
:103CD000ECE5FE0609F46FC0F2E1EF16FCE5FF0625
:103CE00009F088CF0E94F517809101058F7746C0B3
:103CF00025E1E2162CE5F20609F469C008F47DC05E
:103D00008AEFE8168CE5F80609F074CF8091020579
:103D10008160809302056ECF9FEFE9169CE5F9065E
:103D200009F451C0A0F4809102058D7FFDEFEF16DC
:103D3000FCE5FF0671F3809102058E7F2EEFE216FF
:103D40002CE5F20630F3809102058360E2CF31E08A
:103D5000E3163DE5F30609F459C008F444C060E0F9
:103D600092E0E9169DE5F90609F044CF8EE090E077
:103D70000E94772F3FCF80910105816080930105DC
:103D800039CF809101058460F9CF8091020582606E
:103D9000C0CF809101058064F1CF0E94F51780911A
:103DA00001058068EBCF809101058C60E7CF8091A1
:103DB00001058F7DE3CF809101058F7BDFCF80915F
:103DC0000105837FDBCF809102058C7FA2CF80919C
:103DD000010582FB992790F921E0922790FB82F957
:103DE00090FB83F9CBCF80910205982F909591702D
:103DF0008E7F892B90FB81F98CCF0E94F5179091D3
:103E00000105892F97FB87F98058B8CF61E0AECFC5
:103E100080910E03E6E1EE16ECE5FE0609F0C8C25D
:103E20008A7A91E009F490E09093B40269E28111FA
:103E300065E384E992E00E94D9050E946E0E82CD6E
:103E400080913E0591E0892780933E0510921701ED
:103E50009093380577CD41EF56E06AEF76E00E9407
:103E6000460670CD4AEF56E061EF76E0F8CF4FEDB1
:103E700056E068EE76E0F3CF48EE56E06FED76E080
:103E8000EECF47EC56E063ED76E0E9CF43ED56E048
:103E900067EC76E0E4CF4BEB56E06FEA76E0DFCFFD
:103EA00047E956E063EA76E0DACF43EA56E067E9AD
:103EB00076E0D5CF81E00E94FD0344CD89E0FBCFC1
:103EC0009BE5E9169DE5F90611F1ECE5EE16EDE549
:103ED000FE0609F09FC28091020582FB882780F9C7
:103EE00091E089270E94761095C20E94F517FFEF96
:103EF00024E33CE0F15020403040E1F700C00000F6
:103F00000E94B90F0E94EB151DCD81E0EBCF80E040
:103F1000E9CFC7010E94BD0ED82E8BC22F2D2F7066
:103F2000C22E8F2D807F19F0C29490EFC922DD2020
:103F3000C9F0CC2069F080E28E0D883010F081103D
:103F40000BC080910E03C82AC0920E030E946E0E11
:103F50008E2D0E944D1B19C080910D03C82AC0925E
:103F60000D03F4CF8E2D0E94141BCC2071F0C09451
:103F700080E28E0D883010F081103DC080910E03DC
:103F8000C822C0920E030E946E0E292D2850330BBA
:103F90002430310510F40E943A06AA2009F495CC89
:103FA00080910B0380FD91CCF80112828595859557
:103FB00085950E94E617C8010E94431C80910B035F
:103FC0008595859585950F900F900F900F900F9088
:103FD000DF91CF911F910F91FF90EF90DF90CF90E5
:103FE000BF90AF909F908F907F906F905F904F9019
:103FF0003F900C94BE1780910D03C822C0920D0310
:10400000C2CF3F2D3F70B32E8F2D807F803219F0AD
:10401000B29480EFB822882071F081E0881681F197
:10402000DD20D9F1CC2091F1F801858180FF90CF7E
:104030008F7085832BC0DD20B1F090910F038B2D05
:10404000892BC11003C00E941C0F9FCFE1E0CE124C
:10405000FACF2091020522FD98CF891709F495CF58
:1040600080930F0392CFC11006C00E94680E8B2D63
:104070000E94110F8ACFF1E0CF1609F486CFF5CF59
:10408000DD2031F025E02C1508F47FCF8B2DDBCF20
:1040900034E03C1508F479CFEACFCC2041F3F9E3C2
:1040A0008F1209C02FEF37EE83E02150304080405F
:1040B000E1F700C000008E2D0E94141B66CF8F2DEB
:1040C00086958695837061F0813009F05ECFC701D7
:1040D0009370D11002C090E080E00E940E0655CF90
:1040E000C7019370D11002C090E080E00E942406C6
:1040F0004CCF8E2DDD2029F00E942A0C0E946B17D8
:1041000044CF0E946F0BFACF8F2D837091F5D110A1
:104110003CCF4E2D429546954770440F440F8E2D4F
:104120008F70042E01C0880F0A94EAF72E2D20719B
:10413000E4FE07C02FE030E001C0220F4A95EAF705
:1041400020953F2D369536953370323069F050F416
:1041500040911003313029F0822B84230E94F11703
:1041600014CF842B822BFACF282B80911003822727
:10417000F5CF8695DD2011F08F2D8170882309F40D
:1041800004CF4E2D429546954770440F440F8E2D17
:104190008F70042E01C0880F0A94EAF72E2D20712B
:1041A000E4FE07C02FE030E001C0220F4A95EAF795
:1041B00020953F2D369536953370323069F050F4A6
:1041C00040913905313029F0822B84230E94AF17AA
:1041D000DCCE842B822BFACF282B809139058227C5
:1041E000F5CF9F2D9F70F92EDD2029F0892F0E9499
:1041F000E6178E2D28CF8E2D0E94110F8F2D0E9435
:10420000BE17C3CE8E2DE2EF8E1609F44BC0E81513
:1042100070F0F0EF8F1639F121EF8216D9F1DD2021
:1042200009F45CC0C11094CE8F2D8F7138C033EF6C
:104230008316E9F194EF8912F2CFDD2009F443C02F
:104240002F2D2F71F22E822F0E94E61780910205EA
:1042500082FD07C038E0F39EC00111248360809383
:104260000B038F2D1CC0DD2081F0E4E0EC1508F479
:104270008CCE2F2D2F7181E090E001C0880F2A9500
:10428000EAF7909139058927A1CFF5E0FC1508F4EC
:104290007CCEEFCF8F2D8F71DD2009F4B0CF0E943F
:1042A000E61773CE8F2D8F71DD20C9F3A8CF80E084
:1042B000DD2009F48BCF9F2D9F7181E001C0880F15
:1042C0009A95EAF783CF81E00E94CA1781E08C15A6
:1042D00008F05BCE82E00E94CA1757CECC2059F07E
:1042E000893309F0E8CE9FEFE7EEF3E09150E0402C
:1042F000F040E1F7DECE8F2D8F7181CFF0E1EF1628
:10430000FFE5FF0609F41DCC21E1E2162FE5F206D8
:1043100009F41BCC93EFE9169CE5F90609F477CC78
:1043200008F015CCF8EDEF16FCE5FF0609F46BCCB0
:1043300029EDE2162CE5F20609F475CC37EDE3160B
:104340003CE5F30609F014CC26E241EE61EEC8012B
:104350000E94DF1BF7CA30E1E3163FE5F30609F4DC
:10436000EACB91E1E9169FE5F906A1F682E0E4CBFC
:1043700085E0DE01119601900D928A95E1F7F80132
:10438000228189819A812111B7CA0E94BD0EF82E1F
:10439000BBCAF6E1EF16FCE5FF06E1F58091B40239
:1043A00069E2811165E384E992E00E94AF0545CDA1
:1043B00082722AECE2162CE5F20609F46CCD08F0C4
:1043C00086C095ECE9169CE5F90609F450CD08F095
:1043D00065C0F3ECEF16FCE5FF0609F43CCD08F0F0
:1043E00041CD32ECE3163CE5F30609F429CDFAE5BC
:1043F000EF16FDE5FF0609F488CD08F061CDE11464
:104400003CE5F30609F471CD8EEDE8168CE5F8066F
:1044100009F478CDF8018281E080F180882309F4E5
:1044200078CDC7010E94BB10D82E682FC7010E940B
:10443000E50EB7018D2D0E94AE100E94E00C7C01AC
:10444000882EF801D280C580C2943FE0C3228091BB
:104450000B038770A1F0AD2CDD2091F08F2D807FB4
:10446000803421F080E28E0D883048F082E00E9496
:10447000CA1780910B038770AA24A3948111A12CE1
:104480009F2C92942FE09222FBE0F91508F47DCD49
:10449000E92DF0E0EF5CFF4C0C94862D97ECE916CB
:1044A0009CE5F90609F4EDCC08F4E6CCF8ECEF163F
:1044B000FCE5FF0609F4EACC4FEA56E06BEB76E048
:1044C00029ECE2162CE5F20609F4C9CC90CF3FECBA
:1044D000E3163CE5F30609F4F1CCB0F4ECECEE168F
:1044E000ECE5FE0609F4E1CC08F4DACC2DECE2169A
:1044F0002CE5F20609F4DECC84E03EECE3163CE564
:10450000F30609F4D8CC73CF86EDE8168CE5F806EF
:1045100040F48EE091EDE9169CE5F90608F4CBCC69
:1045200011CAEDE5EE16FE0609F40CCA60CF1F9322
:10453000CF93DF938091D802807FA9F48091D50238
:10454000882389F080910A03D091D9026091D30227
:104550007091D402A091D602B091D702C62FC72382
:1045600016E0D81304C0DF91CF911F91089590E019
:10457000109711F0CF3F19F401968770F2CF189F72
:104580009001199F300D1124F901E652FD4F418130
:104590004713F2CF40814613EFCF42814111ECCF58
:1045A000438154814A1B5B0B483C510528F780919D
:1045B000D8028F7080618093D802F901E152FD4FDB
:1045C00080818F708061808383ED92E00E94431C24
:1045D000DF91CF911F910C94B30EAF92BF92CF9207
:1045E000DF92EF92FF920F931F93CF93DF93CDB79C
:1045F000DEB761970FB6F894DEBF0FBECDBF8C015A
:1046000085E0F801DE011D9601900D928A95E1F793
:10461000F801E28083EDA82E82E0B82E6091D602E8
:104620007091D7026115710509F432C19091D302DE
:104630004091D402892F84238F3F09F429C120811E
:104640003181C380D480F090D502F601E61BF70BD0
:10465000FF2009F4E8C08091D802582F507FE83C31
:10466000F10508F0ABC0511177C0FE2C431321C0F7
:1046700092131FC0E1101DC08F7080618093D8021B
:10468000C5010E94431C8091D802F80185838F2DBB
:1046900061960FB6F894DEBF0FBECDBFDF91CF910C
:1046A0001F910F91FF90EF90DF90CF90BF90AF9050
:1046B0000895CD2829F0822F83238F3F09F003C16D
:1046C00080E0F82FF170DF2E80FF3CC080910A035C
:1046D0004091D90256E0841315C02D873E878D8501
:1046E0009E850E94EA10292F22952F702230F0F02B
:1046F000243018F59F70F1F0F8019581907FD1F486
:10470000D12C1EC090E0589FF001599FF00D11244C
:10471000E652FD4F6181361306C06081261303C047
:104720006281E6120FC001968770D5CF9F7011F09D
:10473000882331F3805E883018F3C8010E94431C3F
:10474000FD2CA5CFEE2009F4A2CF8091D802816084
:104750008093D802F12C9BCF431306C0921304C060
:10476000F801EE2009F479C0C8010E94F6108823F0
:1047700009F1EE20F9F08091D802803270F020919A
:10478000D3023091D40238872F831986DB86CA86FC
:104790008C87CE0107960E94431C86E0F801A3EDAA
:1047A000B2E001900D928A95E1F70E949722FF24D2
:1047B000F3946DCFC8010E94431CF9CF51110AC078
:1047C00083ED92E00E94431C86E0F50111928A95E8
:1047D000E9F7C0CF43130FC092130DC0E1100BC017
:1047E000F8018583C8010E94431C86E0F5011192FF
:1047F0008A95E9F74CCFC8010E94F6108823D1F2C0
:10480000EE20C1F28091D802803238F22091D3029A
:104810003091D4023A8329831B82DD82CC828E833D
:10482000CE010196B8CFE83CF105F8F6FE2CEE205B
:1048300009F243131FC092131DC08091D80280FD5E
:1048400010C0982F907F69F0F8018583903F31F078
:10485000982F907F905F8F70892B8583C8010E946D
:10486000431C86E0F801A3EDB2E001900D928A9519
:10487000E1F70DCFC8010E94F61081118ECF809113
:10488000D80281608093D802C8010E94431CFFCEE9
:10489000EE2009F48FCFC8010E94F610F82E88236D
:1048A00009F488CF86E0F801A3EDB2E001900D9203
:1048B0008A95E1F78091D3029091D4020E94EA1088
:1048C0000E949722E4CE81E08E25FBCE1F93CF93EA
:1048D000DF93CDB7DEB767970FB6F894DEBF0FBE94
:1048E000CDBF4B8B5C8B6D8B7E8B8F8B6111109250
:1048F0000D031A8A198A85E0FE017396DE011D9662
:1049000001900D928A95E1F786E0FE013D96DE0169
:10491000179601900D928A95E1F7CE0107960E94B5
:10492000ED22811112C086E0FE013796DE0111965C
:1049300001900D928A95E1F78A859B85892B29F054
:1049400088859F8189238F3FB1F516E080910A0306
:104950009091D90289131DC067960FB6F894DEBFF7
:104960000FBECDBFDF91CF911F91089596E0929F2A
:10497000D001939FB00D1124A652BD4FFE01319678
:1049800001900D929A95E1F78093D9020E94B30E9F
:10499000DCCF819FC001112486529D4F0E94ED22E1
:1049A0008823D1F280910A0390E0019687709927BD
:1049B00080930A03CBCF2091D90230E0C901019640
:1049C0008770992740910A034817190679F60E94C3
:1049D000F5171092D90210920A0386E0E3EDF2E097
:1049E000DF011D928A95E9F7B0CF2F923F924F9247
:1049F0005F926F927F928F929F92AF92BF92CF926F
:104A0000DF92EF92FF920F931F93CF93DF93CDB777
:104A1000DEB72A970FB6F894DEBF0FBECDBFAE014A
:104A20004F5F5F4F6A018AE0DA011D928A95E9F7CC
:104A30000FE411E07A01AA24A394B12CF80181912A
:104A40008F018F3F09F44BC0F894E82FE295EF7087
:104A5000F0E021A18F70A50102C0440F551F8A9577
:104A6000E2F7CA01922F982B91A392A180958923F6
:104A700082A3789400C0E4E5F1E030E020E0912CDE
:104A8000812C81918F3F09F4ACC0A82FA295AF7003
:104A9000B0E090964C9150E08F7002C055954795CC
:104AA0008A95E2F740FD9DC0C501022E02C0880F25
:104AB000991F0A94E2F7882A992A2F5F3F4F2F30D7
:104AC0003105F9F6F801319780818F3F11F00E948E
:104AD000860C50EA5A95F1F7D7018D929C92B2E07C
:104AE000EB0EF11CE1E004351E0709F0A7CF4AE008
:104AF00050E0B60186E193E00E94332F8C01FF2441
:104B0000F394892B09F4F12C0115110541F08AE089
:104B1000F601A6E1B3E001900D928A95E1F750907D
:104B20001303552009F46AC00E945F1720911103F6
:104B300030911203AC01421B530B9A019093120364
:104B4000809311034F3F510511F008F04DC0452BE4
:104B500009F444C0E22E1092130320911403309103
:104B60001503EAE5F3E066E173E039015BE4650E05
:104B7000711C412C88248394912C190150E040E051
:104B8000D101DD901D01DD20D1F0CD010197ED14A3
:104B900070F1DC011C92C080D180DB018D919C9171
:104BA0008C259D255401042E02C0AA0CBB1C0A941E
:104BB000E2F78A219B218C259D25918380834F5F7D
:104BC0005F4F4F305105E1F6215F3F4F32966E5FE8
:104BD0007F4F6216730689F640921303012BB1F4DE
:104BE0004DC090E080E067CF2FEF30E0B3CFDE180C
:104BF000DC01DC92452CE3CF108233C0012BF1F1B4
:104C00000E945F1790931203809311032091140365
:104C10003091150360911303A6E1B3E08AE5C82E35
:104C200083E0D82EAA24A394B12C73E04D915D911A
:104C3000F601819191916F0148275927F90190E080
:104C400080E08501082E02C0000F111F0A94E2F7D0
:104C500004231523012B81F21081111102C07083EE
:104C600061E0319601968F30910559F7215F3F4FF2
:104C7000F3E0A032BF07D1F6609313038F2D2A967D
:104C80000FB6F894DEBF0FBECDBFDF91CF911F915D
:104C90000F91FF90EF90DF90CF90BF90AF909F90DB
:104CA0008F907F906F905F904F903F902F900895DE
:104CB0001F921FB61F9211248F939F93AF93BF93A0
:104CC0008091FC04811113C08091FD049091FE0439
:104CD000A091FF04B09100054196A11DB11D8093E4
:104CE000FD049093FE04A093FF04B0930005BF91D0
:104CF000AF919F918F911F901FBE1F901895CDB7B8
:104D0000DEB7E4970FB6F894DEBF0FBECDBF84B711
:104D1000877F84BF0FB6F894A89580916000886162
:104D200080936000109260000FBE80E890E00FB6A4
:104D3000F89480936100909361000FBE85B78068FE
:104D400085BF85B7806885BF84E89CE090938F021B
:104D500080938E020E9422040E94ED048091E20062
:104D600084608093E200789480912B058823A1F0E1
:104D70001091E9001F709091EC00892F817090FDD7
:104D800080E8182B1092E9008091E80083FD0E94D2
:104D90000A181F701093E90082E084BD93E095BD6E
:104DA0009AEF97BD80936E000E941D11811102C081
:104DB0000E945A100FE411E0D8018D918D018F3FB0
:104DC00011F00E94860CB1E004351B07A9F704E539
:104DD00011E0F80181918F018F3F11F00E94860C44
:104DE000F1E003361F07A9F710921703109216037C
:104DF00010925B0310925A03109219031092180339
:104E000010925D0310925C0310921B0310921A0320
:104E100010925F0310925E0310921D0310921C0308
:104E2000109261031092600310921F0310921E03F0
:104E300010926303109262038BE490E00E940B2EA9
:104E4000AC01909315038093140330E020E0FA0145
:104E5000E20FF31F90E011929F5F9F30E1F7215F17
:104E60003F4F2B34310599F70E94E015811102C0A4
:104E70000E94EB1582E090E00E94592F80934F032F
:104E80000E94361190930205809301050E94F5243B
:104E90008FEB9DE50197F1F700C000000E94F5241B
:104EA00080915A0380FF08C06FEF7FEF90E080E0B1
:104EB0000E94952F0E94B90F83E090E00E94592F25
:104EC0000E94F1170E940412109271038FEF9FEF5E
:104ED00090938B0380938A0390938D0380938C032C
:104EE00090938F0380938E0390939103809390030C
:104EF00090939303809392039093950380939403EC
:104F000090939703809396039093990380939803CB
:104F10001092200390933A038093390390933C03BB
:104F200080933B0390933E0380933D039093400313
:104F300080933F03909342038093410390934403F3
:104F400080934303909346038093450390934803D3
:104F5000809347030E94E015811104C00E94EB1565
:104F60000E94C81546E050E06CE170E08EE395E0E9
:104F70000E94492F80913E058C7F11F40E94C81534
:104F800080910105806880930105809101059091D1
:104F900002050E9469108AE091E09093F9048093E1
:104FA000F80480912B0500E112E1853009F47FC2FD
:104FB0000E94F524882359F08FB7F8944091FD049E
:104FC0005091FE046091FF04709100058FBF4AE587
:104FD00053E05FA74EA780E593E09DA78CA71AE753
:104FE000212E11E0312E1BA6712C08E0502EAEA50B
:104FF000BFA58D909D90BFA7AEA7ECA5FDA5819103
:105000009191FDA7ECA78815990509F497C0710146
:10501000612CCC24C394D12C9C01282539253CAB90
:105020002BAB3297FAABE9AB8BA99CA98C219D21C4
:10503000892B09F47AC069A27AA284010C211D216E
:1050400081E00115110509F480E08BA30E945F1730
:105050008160782F9DA38CA349A15AA16BA18DA13A
:105060000E946624A9A9BAA98D919C9111978C25BB
:105070009D258D939C93012B29F0F70180818F3F13
:1050800009F021C2412C042D10E080912003800FF3
:10509000912F911D09976CF1E8E0AE2EB12CA01A6A
:1050A000B10AB8016F5D7C4FA50181E293E00E94D7
:1050B000402FB801675D7C4FA50189E293E00E9413
:1050C000402FA501440F551FB801660F771F675C7D
:1050D0007C4F89E393E00E94402FB8016F5C7C4FC6
:1050E000A50181E393E00E94402F852D84198093D0
:1050F00020038091200390E0F8A9AF2FB0E09D013C
:10510000220F331F2B533E4FAA0FBB1FBD016A5303
:105110007E4F41E0480F941508F4D9C180932003D5
:10512000EBA5EF5FEBA7EC3018F56394CC0CDD1C1E
:10513000FFEFEF1AFF0A2FE0621276CF73943FE081
:10514000230E311C45E0741252CF5BA5511110C0E3
:105150008FEF8EA38FA318A60E945F178160782F10
:105160009AA789A74EA15FA168A58AA50E94662477
:105170008091490390914A03A0914B03B0914C0355
:105180004FB7F8940091FD041091FE042091FF04A4
:10519000309100054FBF28013901481A590A6A0A9F
:1051A0007B0A4FB7F8948090FD049090FE04A09085
:1051B000FF04B09000054FBF8092490390924A03CC
:1051C000A0924B03B0924C0360912003E0E2F3E025
:1051D000462F50E00197AF4FBF4F801B910BA20BA2
:1051E000B30B65138AC14093200380914D0310E0F7
:1051F000811108C080913E05182F137019F0182FE7
:105200001695169580911701813009F4A0C1882365
:1052100009F486C1823009F4ACC1833009F4ADC110
:1052200086E0EBE6F3E0DE01119601900D928A959F
:10523000E1F7E0906D03D0906E0310916F03009141
:10524000700310926D0310926E0310926F03109210
:1052500070038E2D8D2909F448C0809169039091C7
:105260006A030E9450179C0190916503992309F4E9
:105270004AC323333105C8F19F3F19F09F5F9093D4
:105280006503EE2059F00E940A0C9FEF1E140CF4E7
:1052900091E0899F802D112480936D03DD2059F0CA
:1052A0000E940A0C9FEF1D140CF491E0899F802D41
:1052B000112480936E0330916D033323B1F020915C
:1052C0006E03222391F045EB3403C001112499238E
:1052D00009F480C190936D0345EB240390011124E0
:1052E000332309F47BC130936E03812F802B09F4A3
:1052F00048C080916703909168030E9450179C01F9
:1053000090916403992309F4F9C225363105C8F157
:105310009F3F19F09F5F90936403112359F00E94FF
:10532000E80B9FEF11160CF491E0899F802D11245A
:1053300080936F03002359F00E94E80B9FEF101633
:105340000CF491E0899F802D11248093700330919B
:105350006F033323B1F020917003222391F045EBCA
:105360003403C0011124992309F43CC190936F03C5
:1053700045EB240390011124332309F437C1309302
:10538000700380916D0390916E03892B90916F0350
:10539000892B90917003892B11F00E946B1786E086
:1053A000FE013196ABE6B3E001900D928A95E1F7EC
:1053B0000E943A0690914E03891721F00E943A0606
:1053C00080934E0380912B05843009F0EACD83E071
:1053D0008093E9008091E80082FFE3CD8091E800AE
:1053E00090E085FF0CC00E94410430E2C32ED12C16
:1053F0008E010F5F1F4F882309F406C191E0809151
:10540000E8008B778093E800992309F4CACDE981FD
:10541000E150E33108F087C1F0E0E35CFF4C0C940D
:10542000862D80912B05843009F430C080914D0386
:10543000811105C00E942D1380E00E94040791E0B5
:1054400090934D031092FC04A8E1B0E0E0E40FB6A5
:10545000F894A895A09360000FBEE093600083B716
:10546000817F846083BF83B7816083BF7894889590
:1054700083B78E7F83BF0FB6F894A89580916000A4
:10548000886180936000109260000FBE80912A05B1
:10549000882369F00E94F524EAE5F3E08191919177
:1054A000892B09F00CC223E0E436F207B9F78091AA
:1054B0002B05853009F4B5CF0E94F5170E943A06F6
:1054C00010924D0375CD88AB44244394DCCD90E01D
:1054D000FC01E05EFC4FD9015C915183DB015C91E2
:1054E0005187B8A9B18B880F991FFC01E05EFC4F72
:1054F000128E118E91E0842F0CCE218D328D690198
:10550000F12CE12C8C159D05AE05BF0520F4415012
:105510005F5F329666CE240D351D328F218FF8CF16
:105520001092180180923A0590923B05A0923C059A
:10553000B0923D0589E2E0E2F3E0A1E7B3E001903B
:105540000D928A95E1F781E08093170169CE812F52
:105550000E942D13112309F463CE0E943A0681FFA5
:105560005FCE2FEF4FEF6FEF8EE190E00E941B08B0
:1055700057CE812F0E94040753CE8091380588238F
:1055800041F046E050E06CE170E08EE395E00E946F
:10559000672F1092380540913A0550913B05609174
:1055A0003C0570913D052FB7F8948091FD049091D2
:1055B000FE04A091FF04B09100052FBF841B950B42
:1055C000A60BB70B4A97A105B10508F429CE109296
:1055D000170126CE51E050936D037ECE51E05093DB
:1055E0006E0383CE51E050936F03C2CE51E05093CF
:1055F0007003C7CE8091F100D8018D938D01B1E089
:10560000CB1AD10809F4FACE8091E80085FDF2CFDB
:105610008091E8008B778093E8000E944104882302
:1056200099F3ECCE1A8289E08B831AC08A8182308A
:1056300009F45BC18330D9F1813009F074C02FB710
:10564000F8946091FD047091FE048091FF049091A4
:1056500000052FBF0E948C2D6B837C838D839E83DE
:1056600080912B05843009F09CCC1091E9001F70CB
:105670009091EC00892F817090FD80E8182B82E0DA
:105680008093E9008091E80080FF0DC050E040E089
:1056900060E270E0CE0101960E9472048091E80001
:1056A0008E778093E8001F701093E9007ACC809188
:1056B0005A0390915B039827892798279C838B83B3
:1056C00080915C0390915D039827892798279E839A
:1056D0008D8380915E0390915F0398278927982797
:1056E00098878F8380916003909161039827892721
:1056F00098279A87898780916203909163039827FE
:10570000892798279C878B87ABCF8A81823059F471
:105710006B817C818D819E810E948C2D86E290E040
:105720000E94772F9DCF8FEF89839ACF4C816B8119
:105730008A810E9488109827892798279E838D83C5
:105740008FCF0D811E811027012710278A81CB80E2
:10575000EEE1CE9E60011124F6E98F9FC00CD11CB2
:1057600011248C8190E0880F991FC80ED91E612FDB
:10577000C60187960E94772F602FC6018896D0CFEA
:105780000E94ED0F6DCF80E18A836ACF21E02A83EA
:1057900081E84ACF0A811B81102701271027AE011B
:1057A0004F5F5F4F5A01CC80CA018C0D911D6C0177
:1057B000C80181589D4FAC14BD0409F451CF013884
:1057C000A1E01A0750F40E94592FF50184830F5F5E
:1057D0001F4FBFEFAB1ABB0AEBCFD50114961C923B
:1057E000F6CF0A811B81102701271027FE01319671
:1057F0005F01CC80C00ED12ED11CC80181589D4FB5
:105800000C151D0509F42CCF0138F1E01F0728F411
:10581000D50114966C910E94772FBFEFAB1ABB0A8B
:105820000F5F1F4FEACF0E94DD0F1ACF84E0ACCF8D
:105830000A811B81102701271027FE0131965F0185
:10584000CC809F012C0D311D6901C8018796CA14B7
:10585000DB0409F405CF083532E0130758F40E9441
:10586000592FD50114968C930F5F1F4FFFEFAF1A7E
:10587000BF0AEBCFF5011482F7CF0A811B811027F5
:10588000012710279E012F5F3F4F5901CC80C00E8A
:10589000D12ED11CC8018796C016D10609F4E0CEDE
:1058A000083532E0130728F4D50114966C910E9454
:1058B000772FBFEFAB1ABB0A0F5F1F4FEBCF09BDAE
:1058C00019BD09B400FEFDCF8091D8008F7D809373
:1058D000D8008091E00082608093E0008091E00039
:1058E00081FDFCCF0E94F517E2CD86E290E00E9498
:1058F000592F1B821C821D828E83B2CE2D323140E5
:1059000008F008CD3ECD2D32314008F0B7CCEDCCBB
:105910001092B9008CE08093B80008959F92AF92E6
:10592000BF92CF92DF92EF92FF920F931F93CF938C
:10593000DF93B82EEB010E945F176C01EE24E39415
:10594000F12CC431D10560F025E0E22EF12CCF3FDF
:10595000DC0731F0CE0164E170E00E945E2D7B0136
:1059600084EAA82E94E8992E1092BC00A092BC0064
:105970000E945F178C018091BC0087FF0DC0809151
:10598000B900887F883039F18091B900887F8031F3
:1059900011F10FEF1FEF09C00E945F17801B910BE1
:1059A0008E159F0540F30EEF1FEFCF3FDC07E1F2AE
:1059B000C6010E9450178C179D07B0F2C801DF91F5
:1059C000CF911F910F91FF90EF90DF90CF90BF90FC
:1059D000AF909F900895B092BB009092BC000E943F
:1059E0005F178C018091BC0087FF0AC08091B900CD
:1059F000887F883111F0803461F610E000E0DECF5E
:105A00000E945F17801B910B8E159F0558F3CBCF1B
:105A10000F931F93CF93DF93EB018093BB0084E838
:105A20008093BC000E945F178C018091BC0087FFAF
:105A300011C02091B900287F81E090E0283211F454
:105A400090E080E0919581959109DF91CF911F9130
:105A50000F910895CF3FDC0741F30E945F17801B31
:105A6000910B8C179D0708F38EEF9FEFEECFCF922F
:105A7000DF92EF92FF920F931F93CF93DF936B010F
:105A80008A017901B9010E948E2CE6010C0D1D1DC1
:105A9000C017D10761F424E92093BC00DF91CF91B6
:105AA0001F910F91FF90EF90DF90CF90089597FD99
:105AB000F2CFB70189910E94082DEACFAA1BBB1B28
:105AC00051E107C0AA1FBB1FA617B70710F0A61BFE
:105AD000B70B881F991F5A95A9F780959095BC011F
