:100000000C9456040C949D040C949D040C949D0433
:100010000C949D040C949D040C949D040C949D04DC
:100020000C949D040C949D040C944B270C948726EF
:100030000C94B71E0C949D040C949D040C949D0488
:100040000C949D040C949D040C949D040C949D04AC
:100050000C949D040C946A1E0C949D040C949D04B5
:100060000C949D040C949D040C949D040C949D048C
:100070000C949D040C949D040C949D040C949D047C
:100080000C949D040C949D040C949D040C949D046C
:100090000C949D040C949D040C949D040C949D045C
:1000A0000C949D040C949D040C949D04C60BE20BCF
:1000B000E90BDA0CDA0C210C320C450C8B0C900C91
:1000C000DA0CDA0CDA0C980CBC08360D690DAD0DA3
:1000D000F70D5D0E600EAF0EB20EB70EBA0EBD0E6E
:1000E000C20EC50E070FAD0FB00FB50FB80FBB0F87
:1000F0007C147C14B414B4142D15F116F116F116F9
:1001000049152716381638168F24B6246926B624C2
:100110006926022525256926262636261A301A3014
:100120002D302D3023302D302D302D301A301A3017
:1001300028302D302D302830FD377A585A000004F1
:10014000E6D6B4460200210116000000742FE5A394
:10015000E003B801465D003D8889C65436C3174F99
:10016000E4E16D1C877B813383BE28EEBFBB1B4659
:10017000638D5CE6F4D5D0AD9D7C91247250B34381
:100180005D73674B1B87FEC4592BE316479509E740
:10019000168EFB11C55F22BD36D09198E84D28F729
:1001A0004737B819A9904EF5745E22769B3461D119
:1001B0008BC2370814C854398EA9693F43838C35E4
:1001C0000B39169247621FC99C46D8F97EF459C470
:1001D000231C2E51793DA1D7B172E0DF93C2F09577
:1001E0009218B6BED91DC5A6115AB47A0B40D54196
:1001F00050AC51CAF741288D2B2AFF1056043AC73C
:100200001FEE0D5D768C8C0A88DBFEF2937E864DA8
:10021000DA617CC46E7926B216183D97209114B12C
:100220009AA0C45EEA47DEFD861442FD36A00ADDD0
:1002300056B120071F358B857833E2AAFAE441AB2B
:100240000694C43E3168B2CB4E7F00110FDFD074EC
:10025000898FC58C98C3E363F29247CE245520055D
:100260009331EE3D9802E440BC8FF30E6EFA9B6032
:100270000684CAF1410AE590BCF3DB9DE3922A783B
:10028000462632DC03323C26BC6E274F70E1167FD7
:10029000C53DAB37BC579901EA63AD73520000000E
:1002A0003222E5689683316E0001E202B907000050
:1002B000A12A2C87B1C467FB020000000004595A30
:1002C000000000000200010003000200050003001E
:1002D00006000400080005000A0006000C000700E4
:1002E0000D0008000E0009000F000A0011000B00AD
:1002F00014000C0018000D001D000E001F000F0060
:100300002000100022001100280012002A00130013
:10031000165C1E001F002000210022002300240084
:100320002500260027002D002E002A004A002B0061
:1003300014001A000800150017001C0018000C001B
:10034000120013002F00300031004B003900040070
:100350001600070009000A000B000D000E000F0038
:1003600033003400000028004E00E1001D001B0097
:100370000600190005001100100036003700380093
:10038000E500000052004D00E000E300E200000044
:1003900000002C0000000000E600000001515000A9
:1003A000000051004F00165C3A003B003C003D004D
:1003B0003E003F0040004100420043004400450031
:1003C0004C004A000100C25CC35CC55CC65CC75CF3
:1003D000C85CC95CCA5C0100460047004800005C7C
:1003E0004B000100CB5CCC5C01000100010001006E
:1003F000010001000100010001000000DE5C4E0070
:10040000E100010001000100010001000100010004
:1004100001000100010001000000A900A800010086
:1004200001000100000000000100000000000100C8
:1004300000000100AC000000AA00AB0001000100B8
:1004400001000100010001000100010001000100A4
:100450000100010001000100010001000100010094
:100460000100010001000100010001000100010084
:100470000100010001000100010001000100010074
:100480000100010001000100010001000100010064
:100490000000010001000100010001000100010055
:1004A0000100010001000100010001000100000045
:1004B0000100010001000100010000000000010036
:1004C0000000000001000000010001000000010028
:1004D0000100010001000100010001000100010014
:1004E0000100010001000100010001000100010004
:1004F00001000100010001000100010001000100F4
:1005000001000100010001000100010001000100E3
:1005100001000100010001000100010001000100D3
:1005200001000100010000000100010001000100C4
:1005300001000100010001000100010001000100B3
:1005400001000100000001000100010001000100A4
:100550000000000001000000000001000000010098
:10056000010000000100010005010980A1018503CF
:1005700019012AB700150126B700950175108100F1
:10058000C0050C0901A101850419012AA002150169
:1005900026A002950175108100C005010906A10180
:1005A0008505050719E029E715002501950875015E
:1005B00081020507190029EF1500250195F0750145
:1005C000810205081901290595057501910295011A
:1005D00075039101C00660FF0961A1010962150060
:1005E00026FF009520750881020963150026FF008B
:1005F000952075089102C005010906A1010507199A
:10060000E029E7150025019508750181029501751E
:100610000881010507190029FF150026FF0095062E
:1006200075088100050819012905950575019102D4
:10063000950175039101C009025B00030100A0FA56
:100640000904000001030101000921110100012238
:1006500040000705810308000109040100020300AE
:100660000000092111010001222200070582032058
:100670000001070503032000010904020001030033
:100680000000092111010001226D000705840320EB
:1006900000011201100100000008424B2512020067
:1006A000010203011C037600690061006C003A003E
:1006B00066003600340063003200620033006300DD
:1006C000000022034B0042004400360037006D005A
:1006D0006B00490049002000520047004200200002
:1006E00076003200000010034B0042004400660018
:1006F00061006E00730000000403090400000000A4
:1007000000000000000000000000000000000000E9
:1007100000000000000000000000000000000000D9
:100720007E0F00D4FFFFFFC700000078000000002C
:10073000000000002A2B280000000000000000003C
:100740000000000000000029000000002C1E3420E2
:10075000212224342627252E362D3738271E1F2008
:100760002122232425263333362E37381F0405064D
:100770000708090A0B0C0D0E0F1011121314151691
:100780001718191A1B1C1D2F3130232D350405068F
:100790000708090A0B0C0D0E0F1011121314151671
:1007A0001718191A1B1C1D2F3130354C000101017F
:1007B000010101010101020202020202020202031E
:1007C00003030303030303040404040404040505EE
:1007D00005050506060606060707070707080808B1
:1007E00008090909090A0A0A0B0B0B0C0C0C0D0D60
:1007F0000D0E0E0E0F0F0F101011111112121313F8
:100800001414151516161717181819191A1A1B1B70
:100810001C1D1D1E1E1F20202122222324242526CC
:1008200026272829292A2B2C2D2D2E2F3031323204
:10083000333435363738393A3B3C3D3E3F40414210
:10084000434445464748494A4C4D4E4F50515354F6
:10085000555658595A5B5D5E5F61626465666869AA
:100860006B6C6D6F7072737577787A7B7D7E80822A
:10087000838587888A8C8E8F91939596989A9C9E73
:10088000A0A2A3A5A7A9ABADAFB1B3B5B7BABCBE83
:10089000C0C2C4C6C9CBCDCFD1D4D6D8DBDDDFE250
:1008A000E4E7E9EBEEF0F3F5F8FAFDFF11241FBEE3
:1008B000CFEFDAE0DEBFCDBF04B603FE27C08091E4
:1008C000FA069091FB06A091FC06B091FD068730D8
:1008D000904BA740B04BD1F41092FA061092FB0651
:1008E0001092FC061092FD0614BE84B7877F84BF69
:1008F0000FB6F894A895809160008861809360009D
:10090000109260000FBEE0E0F8E3099513E0A0E06C
:10091000B1E0E0E1FAE602C005900D92A43AB10719
:10092000D9F726E0A4EAB3E001C01D92AA3FB207BE
:10093000E1F70E949F040C9406350C940000CF93BD
:10094000DF93CDB7DEB7CC54D1090FB6F894DEBF34
:100950000FBECDBF84B7877F84BF0FB6F894A8952C
:1009600080916000886180936000109260000FBEEB
:1009700090E080E80FB6F894809361009093610056
:100980000FBE85B7806885BF85B7806885BF89EC55
:100990009DE19093A5038093A403E6EAF3E080E051
:1009A00090E0918380830196359688309105C9F750
:1009B0000E94CB260E94EA268091E2008460809308
:1009C000E20078948091BE068823A1F01091E9009E
:1009D0001F709091EC00892F817090FD80E8182B9A
:1009E0001092E9008091E80083FD0E94A9231F7006
:1009F0001093E90082E084BD93E095BD9AEF97BD26
:100A000080936E0080EF0E94532981EF0E9453294A
:100A100084EF0E94532986EC0E94532986E60E94A7
:100A200053290CE211E0EBE3EE2EE1E0FE2ED801BB
:100A30008D918D010E945329E016F106C1F7E0ED7A
:100A4000F3E08AED93E0AFE6B4E0119211921D92CB
:100A50001D928E179F07C9F78BE490E00E94D53353
:100A6000AC019093CF038093CE0320E030E08BEF76
:100A7000FA01E20FF31F90E081939F5F9F30E1F74F
:100A8000215F3F4F2B34310599F780E090E00E94C1
:100A9000EB328A3E9E4F11F00E945B1F82E090E095
:100AA0000E94E332809360040E944A1F9093DB030C
:100AB0008093DA030E94E22BEFE3FCE93197F1F730
:100AC00000C000000E94E22B80916F0480FF17C0DD
:100AD0006FEF83E290E00E9401336FEF84E290E0D9
:100AE0000E9401336FEF85E290E00E9401336FEFC7
:100AF0007FEF80E090E00E941F330E94461E83E05B
:100B000090E00E94E332682F70E080E090E00E9465
:100B10007A210E9450191092BF06E8EDF6E088EEA7
:100B200096E02FEF3FEF219331938E179F07D9F770
:100B30001092DF03E8EFF3E088E094E02FEF3FEF5F
:100B4000219331938E179F07D9F780E090E00E94A0
:100B5000EB328A3E9E4F21F00E945B1F0E94891C4F
:100B600046E050E06CE170E08CEE96E00E94D332FB
:100B70008091EC068C7F11F40E94891C83E290E046
:100B80000E94E3328C3881F484E290E00E94E332E8
:100B9000833C51F485E290E00E94E33291E08E378D
:100BA00009F090E0892F01C080E080FF27C7809185
:100BB000DA0380688093DA038091DA039091DB0393
:100BC0000E943D1F8DE091E09093DD038093DC0354
:100BD0008091BE06853009F05BC060E4E62E11E02E
:100BE00070E1F72E02E18091BE06853009F04AC01F
:100BF0008091BE06843009F431C040E060E080E0BE
:100C00000E94A11B10935E0440E060E080E00E941F
:100C1000A11B10935E041092DE0328E130E00FB6B2
:100C2000F894A895209360000FBEE092600083B70F
:100C3000817F846083BF83B7816083BF7894889508
:100C400083B78E7F83BF0FB6F894A895809160001C
:100C5000886180936000109260000FBE8091B006A2
:100C6000882309F4C0CF0E94E22BEFE6F4E08191E3
:100C70009191892B09F0A3C649E754E04E175F070D
:100C8000B1F7B1CF0E943F300E943D1A10925E042E
:100C90000E94E22B81110E949F1E81E694E09CAF8E
:100CA0008BAFAFE6B4E02696BFAFAEAF2697CC24AD
:100CB000C394D12CBFEFBAAFA12CB12C1DAEEAADBD
:100CC000EF5FEFAF9601215031092696AEADBFAD73
:100CD0002697ED91FD912696BFAFAEAF269724964D
:100CE000FFAFEEAF2497ABADBCAD8D919C91E827E3
:100CF000F9272296FFAFEEAF2297EF2B09F47DC1C3
:100D0000EAADBFE0EB9FC0011124AC01415F5B4F36
:100D100059AF48AFC501825E9B4F9FAB8EABD501EB
:100D2000A15FBB4F2D01B1E0BDABE12CF12C6624DE
:100D30006394712CFFE0FE9FC0011124AC01415F60
:100D40005B4F29965FAF4EAF2997FC9DC001FD9D7B
:100D5000900D1124DC01A15FBB4F2B96BFAFAEAF4E
:100D60002B97F29FC001F39F900D1124FC01E15FCE
:100D7000FB4F2D96FFAFEEAF2D97EEAE22968EADC8
:100D80009FAD229786219721892B09F41DC1EBA6DF
:100D9000FFADFCA724960EAD1FAD249706211721A9
:100DA00081E00115110509F480E08DA70E94AB1EBA
:100DB0008160782F9FA78EA74BA55CA56DA58FA5F9
:100DC0000E94F61CABADBCAD8D919C911197862510
:100DD00097258D939C93012B71F0F701EA0DFB1D74
:100DE000E25AFD4F80818F3F31F027968FAF2797D2
:100DF0003324339401C0312C2090DF03032D10E005
:100E0000C801820D911D0997A4F188E0882E912CCC
:100E1000801A910AB8016F5F7F4F61527C4FA40125
:100E200080EE93E00E94F634B801675F7F4F615215
:100E30007C4FA40188EE93E00E94F634A401440F95
:100E4000551FB801660F771F675E7F4F61527C4F59
:100E500088EF93E00E94F634B8016F5E7F4F6152D5
:100E60007C4FA40180EF93E00E94F6342A942092F4
:100E7000DF038091DF0390E02796EFAD2797AE2F39
:100E8000B0E09D01220F331F27553D4FAA0FBB1F16
:100E9000BD0166557D4F41E0480F9315C0F490E0C9
:100EA000FC01E152FC4FD9015C915183DB015C9163
:100EB00051872796BFAD2797B18B880F991FFC01EB
:100EC000E152FC4F128E118E91E0842FE4CF80937B
:100ED000DF038091EC068C7F883309F06FC08DA909
:100EE0008250EEAD8E1760F42D96EEADFFAD2D97CE
:100EF000E80FF11D208130E1230F08F42FEF20834C
:100F0000D2012C9130E2230F08F42FEF2C93BDA9CE
:100F1000BF3039F0F201218130E1230F08F42FEFC7
:100F20002183B5E0CB1619F1EEAD8E1760F42B9648
:100F3000EEADFFAD2B97E80FF11D20813DE0230FB3
:100F400008F42FEF2083AEA9BFA92C9130E1230F25
:100F500008F42FEF2C934DA94F3049F011962C91A6
:100F600011975DE0250F08F42FEF11962C939AADA1
:100F7000AFAD9A1718F5BEAD8B1760F42996EEAD9C
:100F8000FFAD2997E80FF11D20813DE0230F08F404
:100F90002FEF2083A8ADB9AD2C9130E1230F08F4D9
:100FA0002FEF2C934DA94F3049F011962C911197AA
:100FB0005DE0250F08F42FEF11962C938DAD8F5F18
:100FC0008DAF8C3008F03FC0660C771C9FEFE91A9C
:100FD000F90AADA9AF5FADABE8ADF9AD3196F9AFA8
:100FE000E8AF2EA93FA92F5F3F4F3FAB2EAB3FEF9E
:100FF000431A530AA03109F0C0CE4BAD5CAD4E5F31
:101000005F4F5CAF4BAF5FE0A50EB11C8FEFC81A0E
:10101000D80A9FAD9AAFA6E0CA16D10409F04FCE08
:10102000BDADB11110C08FEF88AB89AB1AAA0E9479
:10103000AB1E8160782F9CAB8BAB48A959A96AA9DC
:101040008CA90E94F61C8091080490910904A0913B
:101050000A04B0910B042FB7F894C0905A04D090B2
:101060005B04E0905C04F0905D042FBFC81AD90ABD
:10107000EA0AFB0A0E949F1E609308047093090409
:1010800080930A0490930B04A091DF03EFEDF3E04B
:101090002A2F30E088248A94982CA12CB12C8C180B
:1010A0009D08AE08BF08A31799F0418D528D2A0103
:1010B000612C712C84149504A604B70410F42150FB
:1010C00004C04C0D5D1D528F418F3F5F3296EBCFB8
:1010D0002093DF0320915E04211108C01091EC06DB
:1010E000212F237019F01695169501C010E020915C
:1010F0000C012130E9F038F0223009F45BC02330D4
:1011000009F462C07EC0109219016093E8067093E2
:10111000E9068093EA069093EB0689E2EFEDF3E0AF
:10112000AFEBB6E001900D928A95E1F781E03FC008
:1011300080910B0118130DC02091EC06237030E054
:1011400040910A0150E081E02417350719F480E04E
:1011500001C081E0817080931B018091F106909124
:101160001A01981709F463C480931A0140E060E003
:1011700080E00E94A11B5BC480911B01882329F0A1
:1011800040E060E080E00E94A11B80E090911901A6
:101190009F5F90931901811155C482E080930C01E7
:1011A00080911B0181114EC411114FC483E08093C3
:1011B0000C0127C010930B018091EC068370809383
:1011C0000A010E94AB18F2CF4091E8065091E9065F
:1011D0006091EA067091EB062FB7F89480915A045B
:1011E00090915B04A0915C04B0915D042FBF841BBF
:1011F000950BA60BB70B4097A105B10510F0109207
:101200000C010E943D1A90915F04891721F00E9401
:101210003D1A80935F048091BE06843009F0D8CCDB
:1012200083E08093E9008091E80082FFD1CC809137
:10123000E80085FF21C00E94202881111BC000E228
:1012400010E0CE0101967C0108C08091F100D70129
:101250008D937D010150110969F08091E80085FDB1
:10126000F4CF8091E8008B778093E8000E942028DB
:10127000882399F391E001C090E08091E8008B779A
:101280008093E800992309F4A3CCE0907B04F090CC
:101290007C048981E114F10459F08E3F09F08AC37E
:1012A0009A819330A8F19550933008F083C330C0F1
:1012B0008B3009F448C248F5853009F47EC0B8F493
:1012C000823009F442C030F4813009F071C31A82CF
:1012D00089E01FC3833009F461C0843009F068C31A
:1012E0004C816B818A810E94511B9D8385C387300D
:1012F00009F471C008F46CC0883009F4A9C08930C1
:1013000009F056C30E94EB1B55C3803109F45DC13F
:101310008E010F5F1F4F813160F48D3009F4F7C0EB
:1013200008F4F3C08E3009F4F6C08F3009F41EC102
:101330003FC3823109F44EC108F44AC1833109F434
:1013400073C18E3F09F416C233C38A81823009F417
:101350004CC3833051F0813009F02AC30E949F1E94
:101360009B838C837D836E8325C3809179049091C8
:101370007A04892B09F41EC3FE013196CE010B9627
:10138000AFE6B4E02C9111963C91119712963283FE
:10139000238332968E179F07A9F70CC38A81823068
:1013A00009F006C36B817C818D819E810E94CE33C2
:1013B00086E290E00E940133FDC22D813E813227FA
:1013C000232732274C816B818A810E94A01AF2C2A6
:1013D0000E94D61AEFC28A81813409F0EBC24B8198
:1013E0005C818091EC06982F93704115510539F47A
:1013F000911110920C018C7F8093EC061EC091110C
:1014000002C010920C018C7F81608093EC0620EC6E
:1014100032E0F901329685919491F90165917491C8
:101420004617570739F02C5F3F4FB3E020313B0799
:1014300081F780E060E00E945D1C8D818093F00662
:101440008E8120E048856F8190E00E94071CB2C227
:101450008A81813461F0823409F437C0803409F024
:10146000A9C281E08B831C828FEF8D83A3C2809100
:10147000EC06982F9370A9F08695869590E020EC65
:1014800032E0F901329665917491F90145915491D8
:101490008617970749F02C5F3F4FE3E020313E0766
:1014A00081F790E080E002C0942F852F9B838C838E
:1014B0008091F0068D838091ED068E838091EE06FB
:1014C0008F838091EF06888775C20B811C814EE166
:1014D00050E06FEF70E0CE0103960E94FF3480EC85
:1014E00092E0DE0113962EE1FC0145915491041720
:1014F000150728F4223018F04D935D93225004967E
:10150000F3E080319F0781F755C280E11EC281E080
:101510008A8381E3FEC1EA80FB80FE24EF24FE245F
:10152000AC80B12C2DE1A216B10408F043C26801D1
:10153000C70181539D4F9601201B310B2A153B0596
:1015400008F038C231E3E31631E0F30630F40E94CC
:10155000E332D60114968C9302C0F6011482FFEF99
:10156000EF1AFF0A2FEFC21AD20AE2CF8091790454
:1015700090917A04892B09F41DC2EA80FB80FE2435
:10158000EF24FE24CC80D12C3DE1C316D10408F019
:1015900011C25801C70181539D4F9501201B310B8A
:1015A0002C153D0508F006C241E3E41641E0F406BF
:1015B00028F4D50114966C910E940133BFEFEB1A09
:1015C000FB0AEFEFAE1ABE0AE5CF0E947B1AF2C10A
:1015D00084E0BBC1EA80FB80FE24EF24FE24AC80C3
:1015E000B12CFDE1AF16B10408F0E4C16801C701F8
:1015F00087969601201B310B2A153B0508F0DAC1AE
:1016000028E5E21622E0F20630F40E94E332D60129
:1016100014968C9302C0F6011482FFEFEF1AFF0AB2
:101620002FEFC21AD20AE3CFEA80FB80FE24EF2418
:10163000FE24AC80B12C3DE1A316B10408F0BAC180
:10164000370147E2640E711C58E5E51652E0F506D5
:1016500008F0B0C188E592E08E199F098A159B05B4
:1016600008F4A8C18091790490917A04892B11F033
:10167000680160C0E0FE0FC0C70186960E94E33299
:1016800090E0982F88272D81822B81159C4531F47D
:101690008FEF8D8303C0C12CD12C03C0CC24C39405
:1016A000D12CC5018E0D9F1D450180FF1BC0B1E0EF
:1016B0008B1A910865E0462E512C4C0E5D1E480C8D
:1016C000591CC3018A0D9B1D0E94E332F201208147
:1016D00030E0322F2227282B21153C4519F48FEFBB
:1016E000D2018C93F801EC0DFD1D2FEFCF01801B73
:1016F000910B8815990508F0BBCF848190E0982F55
:1017000088273581832B81159C4511F424832583FB
:101710003296ECCFE8E5EE16E2E0FE0628F4D601BC
:1017200014966C910E940133BFEFEB1AFB0AEFEFA6
:10173000CE1ADE0AC70187969601201B310B2A15A7
:101740003B0540F337C18091790490917A04892B4D
:1017500009F430C1CE0101960E94BC2FFFEF21EEAB
:1017600034E0F15020403040E1F700C000000E941A
:10177000461E20C1EA818E2F90E08E30910508F040
:1017800019C1FC01EA5AFF4F0C94C83388E0ECE120
:10179000F1E0DE01919601900D928A95E1F780E2E9
:1017A000D8011D928A95E9F784E0898388E0FE01DB
:1017B000B196DE01159601900D928A95E1F781E0D0
:1017C0008D87F8C088E8898381E08A831B821C8228
:1017D000F1C08C8190E0982F88272B81820F911D7A
:1017E000092E000CAA0BBB0B45E0880F991FAA1FFE
:1017F000BB1F4A95D1F7AC01BD01405E5F4F6F4FF3
:101800007F4F481759076A077B0708F4D3C0883809
:10181000E1E09E07A105B10508F0CCC04938F1E030
:101820005F076105710520F048E851E060E070E075
:10183000481B590BBC01685C7E4FC8010E94CA322C
:10184000B9C040E250E06FEF70E0C8010E94FF3481
:10185000809179048983EA821B821C8282E08D83D5
:101860008DE0CAC081E090E090937C0480937B047B
:1018700082E390E090936E0480936D040E94AB1E0F
:1018800090936C0480936B0495C0EF28D1F1809104
:10189000730490917404892F992782958695877097
:1018A00010916F041170182380916B0490916C0457
:1018B0000E94901E85369105F0F01123E1F00E9400
:1018C000AB1E90936C0480936B0480916D04909197
:1018D0006E04019790936E0480936D04892B89F4B4
:1018E00010927C0410927B0481E090E090937A0443
:1018F0008093790406C082E390E090936E04809315
:101900006D0480917904898380917B048A8380911E
:101910006D048B834FC010927A04109279044AC0F0
:1019200040E250E06FEF70E0C8010E94FF3442C017
:101930008B81833061F0843009F181113BC080E2FA
:10194000D8011D928A95E9F788E08A8333C08C819B
:101950009AE0F92E8E010F5D1F4FF8012F2D119285
:101960002A95E9F7B8010E948B1A8983F801DE01F4
:10197000129601900D92FA94E1F71CC06C818AE0F6
:10198000FE013596DE01919601900D928A95E1F760
:10199000683070F43AE0639FB001112461587D4FC4
:1019A0004AE050E0CE0181960E94253380E001C0DC
:1019B0008FEF8983CE0101960E94BC2F09C9F9BC23
:1019C00009BD09B400FEFDCF8091D8008F7D8093C2
:1019D000D8008091E00082608093E0008091E00078
:1019E00081FDFCCF0E943F30FEC886E290E00E945D
:1019F000E3321B821C821D828E83DCCF60E086E294
:101A000090E00E9401330E94D61A0E947B1A6CE873
:101A100083E290E00E94013363EC84E290E00E9454
:101A200001336EE785E290E00E940133C0C8812F48
:101A300090E084319105A8F0809119018F5F809327
:101A40001901ABCB112309F4DCCB0E943D1A81FFB5
:101A5000D8CB2FEF4FEF6FEF8EE190E00E94A31BEA
:101A6000D0CBFC01EC59FF4F0C94C8330091190105
:101A70008EE0089F002D11243EE0F32EF00EE3E4EB
:101A8000EF1510F423E4F22E6091ED067091EE064E
:101A90008091EF060E94C328E62ED72EC82E0F1580
:101AA00090F4E02FF0E0DF01A15DBC4F8C919091AC
:101AB0001A01982331F02C2D4E2D6D2DCF010E944F
:101AC000A31B0F5FECCF81E0F2E4FF1508F05ECBC3
:101AD0005CCB009119018EE0089F002D11249EE03F
:101AE000F92EF00E23E42F1510F483E4F82ED09095
:101AF000EE06E090EF06C090ED06B6018E2D0E9436
:101B0000C328B62EA72E982E6091F0066C0D7D2D61
:101B10008E2D0E94C328E62ED72EC82E0F15B8F49E
:101B2000802F90E0FC01E15DFC4F308120911A0193
:101B3000232359F030FF04C02C2D4E2D6D2D03C0F2
:101B4000292D4B2D6A2D0E94A31B0F5FE7CF81E04B
:101B500032E43F1508F01ACB18CB009119018EE042
:101B6000089F002D1124BEE0DB2ED00E43E44D155E
:101B700010F4A3E4DA2EB090EE06A090EF062091C8
:101B8000F006F0E4CF2E5C2D529F512D1124C52E6E
:101B90000D1538F5E02EF12CF701E15DFC4F908139
:101BA00080911A018923D9F0F701EE0FFF1FE75545
:101BB000FD4F6081C69EB0011124E5E075956795E3
:101BC000EA95E1F78091ED06680F7B2D8A2D0E9442
:101BD000C328462F282F672FC7010E94A31B0F5F22
:101BE000D7CF81E092E49D1508F0D0CACECA00910B
:101BF00019018EE0089F002D11245EE0F52EF00EF5
:101C0000A3E4AF1510F443E4F42ED090ED06E09079
:101C1000EE06C090EF066091F006669566956695B3
:101C20008091E8069091E9060E94EC1C282F982FDD
:101C300026FD9095E92FEF739F7026FD9F5FE2953B
:101C4000EF70EE0FF0E0E55CFE4F8181899F802D03
:101C5000312D112482958F703295307F832B9081A6
:101C6000890F27FD819587FD8195880F282F3C2DB1
:101C7000239F212D1124822F6D2D7E2D0E94C3289C
:101C8000E62ED72EC82E0F1590F4E02FF0E0DF01DE
:101C9000A15DBC4F8C9190911A01982331F02C2DAD
:101CA0004E2D6D2DCF010E94A31B0F5FECCF81E065
:101CB00042E44F1508F06ACA68CA87EF97E154C03A
:101CC000D09019018EE0D89ED02C11243EE0C32E76
:101CD000CD0C53E45C1510F423E4C22E6091F006A1
:101CE00066958091E8069091E9060E94EC1CB82E5A
:101CF000DC1478F5ED2CF12CF701E15DFC4F9081BF
:101D000080911A01892319F1F701EE0FFF1FE655A3
:101D1000FD4F208130E020523109F701EE0FFF1F07
:101D2000E755FD4F408150E0405751096091ED0665
:101D30007091EE068091EF060B2D0E949C1C0E9474
:101D4000C328462F282F672FC7010E94A31BD394B7
:101D5000CFCF81E092E49C1508F018CA16CA8AE633
:101D600098E10DC085EF97E10E94FC2D0FCA8CEE23
:101D700097E1FACF83EE97E1F7CF84ED97E10E94E8
:101D8000802D04CA86E598E1FACF80911B0181116C
:101D90001EC06091F00620E1620F08F46FEF8091A1
:101DA000E8069091E9060E94EC1C6AE070E00E944F
:101DB000A033892B09F0E9C90E94BA3263E470E0CC
:101DC0000E94B43360911A010E94A51BDEC9809164
:101DD00019019EE0899F802D11240EE0080F043424
:101DE00008F003E4E82EF12CC02ED12CEC14FD04F5
:101DF0004CF460911A01C7010E94A51BAFEFEA1ACB
:101E0000FA0AF4CF81E0033408F4C0C9BEC9E090F7
:101E100019018EE0E89E002D1124BEE0B00FBDAB8D
:101E2000BC3410F0EBE4EDAB80911B01882361F032
:101E300040E060E080E00E94A11B8BE4EFE0F4E072
:101E4000DF011D928A95E9F780911901811115C072
:101E500080910D0490910E040E94901E21E0893122
:101E6000910508F420E020930C04499730F00E947B
:101E7000AB1E90930E0480930D04E02EF12CBDA9AF
:101E80004B2E512CA5E02A2E312CBFE06B2E0AEAF6
:101E9000702EE414F5040CF05AC0C701B1010E9481
:101EA000B4336B014C01689CC001699C900D1124F6
:101EB000FC01E15FFB4FE60FF71F0081825A9D4F47
:101EC000FC01E60FF71F80818F3F51F1A82EB12C46
:101ED000F501E15DFC4F908180911A01892301F1A8
:101EE000302F25E5321B08F430E07091EE06272DE7
:101EF000200F08F42FEF4091EF0652E0259F200DB0
:101F000011242E5F249F212D1124672D631B822F06
:101F10000E94C328462F282F672FC5010E94A31BAC
:101F200080910C04882379F021E0021B08F400E082
:101F3000689CC001699C900D1124815F9B4FFC013E
:101F4000EC0DFD1D00833FEFE31AF30AA2CF81E001
:101F50004DA94B3408F41AC918C98DEC97E102C099
:101F600087EC97E10E944A2E11C98EEA97E105C0DD
:101F700086E997E102C080E897E10E94BF2E06C97A
:101F80002F923F924F925F926F927F928F929F9289
:101F9000AF92BF92CF92DF92EF92FF920F931F9377
:101FA000CF93DF93CDB7DEB7A3970FB6F894DEBF1C
:101FB0000FBECDBFFC018081918123813481232B11
:101FC00031F09F3F31F491E08F3F19F403C091E06D
:101FD00001C090E090FD35C77F0185E0DE015F968E
:101FE00001900D928A95E1F7F70122818F8D98A1DA
:101FF000222349F00E944D20182F682F8F8D98A121
:102000000E94CA2003C00E949A20182F6F8D78A1C9
:10201000812F0E947F1B8C01F7018281882309F4A4
:1020200082C0980122513F452031310508F093C00C
:102030008FEF93E00E94E33281117FC06EEED62EC7
:10204000D00E0FEC12E0DD2071F00115F4E01F0757
:1020500009F473C0C8010E94E332811101C0DA940F
:102060000F5F1F4FF0CF19821A821B821C82AA2495
:10207000AA9468012FEFC21AD20AC8010E94E33263
:1020800089831A82882309F458C0813009F046C038
:10209000480132E0830E911CC6010E94E3328A831C
:1020A000882309F44AC09FEF980F933060F46801C9
:1020B00043E0C40ED11CC4010E94E3328B83811122
:1020C0002DC08601D6CF843011F06401FACFC4014F
:1020D0000E94E332B82E680154E0C50ED11CC8013D
:1020E00003960E94E332BB2041F1882331F1282F6F
:1020F00030E021503109A29EA001A39E500D112471
:102100008B2D90E00197840F951F0197D0F2EFE996
:10211000FFE03197F1F700C00000F7CFCE01019644
:102120000E94E62ACECF00313FE5130709F079C6B9
:1021300081E00E9401210E94622D809181068770BA
:1021400009F47FC6F7018281882309F47AC682E008
:102150000E94262176C60031FFE51F0711F481E0B9
:1021600005C001312FE5120721F482E00E944321CE
:10217000E2CF073FFCE51F0759F4882321F191E0E6
:102180009093170106312CE5120709F0A7C25AC136
:10219000083F3CE5130761F48823A9F0109217016A
:1021A00010928F0410928E0481E00E945B1A5FC12E
:1021B000093F4CE5140739F4882329F09091170161
:1021C0009923E9F2EBCF20901701222009F44FC1A7
:1021D0001092920410929104512C35E0432E8824E1
:1021E0008394912C5EEF352EA0909104B0909204D0
:1021F00088E0A816B10408F0F2C04A9CF0014B9C9C
:10220000F00D1124EA55FC4FBE01655F7F4F8081C0
:102210000E948B1A892B11F0712CD6C0FE013B96BF
:1022200080E090E066246A94282F419151914115F5
:10223000510551F00417150709F4682E01968430F2
:10224000910591F724E002C0823030F35FEF65160C
:1022500019F3F7017280772009F456C04A9CC00137
:102260004B9C900D1124AC014A555C4F6A01C4018E
:1022700001C0880F6A94EAF7FA019481892B84835C
:10228000A40102C0440F551F2A95E2F79A0121507C
:10229000310990E08F772817390709F094C080E062
:1022A0000E945B1AF6018481806884838281938115
:1022B000009799F4BE016F5F7F4F809191040E9457
:1022C0008B1A892BE9F489859A8590937E048093F3
:1022D0007D048115F0E29F0718F40E94CC2B10C0FA
:1022E0003A8E3B8E21E02C8F0E94AB1E8160782FAE
:1022F0009E8F8D8F4A8D5B8D6C8D8E8D0E94F61C0E
:1023000031E03093900460C0A40102C0440F551F17
:102310002A95E2F79A01215031094A9CF0014B9C21
:10232000F00D1124EA55FC4F848190E08F77281737
:10233000390749F582819381009799F4BE016F5F57
:102340007F4F809191040E948B1A892BE1F489853B
:102350009A8590937E0480937D04811550E29507C1
:1023600018F40E94B62B0FC03D8A3E8A1F8A0E9435
:10237000AB1E8160782F998F888F4D895E896F8918
:10238000898D0E94F61C4A9CF0014B9CF00D112493
:10239000EA55FC4F9481292F30E0062C02C0359578
:1023A00027950A94E2F720FF37CF940101C0220F4E
:1023B0006A94EAF7822F80958923848387FF2CCF44
:1023C000803809F41482722C5728809191049091DE
:1023D00092040196909392048093910405CF80918A
:1023E0009004882359F00E94AB1E90938F04809331
:1023F0008E04109290045110A0CE39C0511006C026
:1024000081E00E945B1A0E94491A31C0F701828163
:10241000882309F492CE0E94AB1E90938F04809380
:102420008E04E0918D04E73008F087CE81E08E0FB6
:1024300080938D04F0E0EE0FFF1FE158FB4F1183F6
:1024400000837BCE909184069A7A8823C9F081E03C
:10245000911101C080E080939304992311F065E30A
:1024600001C069E284EF95E00E94081F14C0F701E3
:102470008281811113C006315CE5150709F0C1C1E5
:1024800080919304882311F065E301C069E284EF31
:1024900095E00E94E01E0E94D81F4FCE0230FCE55E
:1024A0001F0708F4C5C406312CE5120738F098015F
:1024B0002A5F3C452930310508F0BAC40E944A1F02
:1024C0009093DB038093DA0300313CE5130709F4B2
:1024D000C3C008F041C008305CE5150709F49AC094
:1024E000F0F404309CE5190709F487C068F4023061
:1024F000FCE51F0709F477C003301C4509F0E5C06F
:102500008091DA03826076C006303CE5130709F457
:102510006EC008F07BC08091DA0388606BC00C301D
:102520005CE5150709F485C068F40A309CE51907D5
:1025300009F474C008F079C00E943F308091DA033A
:10254000806858C00E30FCE51F0709F476C008F01B
:102550007FC08091DA038BC00B3F3CE5130709F481
:102560004FC018F503315CE5150709F47DC078F418
:1025700001319CE5190709F473C002311C4509F0CB
:10258000A4C00E943F308091DA038F7733C00531B9
:10259000FCE51F0709F472C008F486C00A3F1C4519
:1025A00009F093C08091DB033EC00F3F4CE5140758
:1025B00009F45FC058F40D3F8CE5180709F444C0D6
:1025C00008F43FC08091DB0382602DC00130EDE54F
:1025D0001E0709F475C008F45DC002301D4509F0FE
:1025E00074C060E06EC08091DA03816003C08091A6
:1025F000DA0380618093DA0368C08091DA0311C046
:102600008091DB0382608093DB035FC08091DA03FB
:102610008062F0CF8091DA038064ECCF8091DA039E
:1026200088608460E7CF8160EECF8091DA038E7F8F
:10263000E1CF8091DA038D7FDDCF8091DA03877F50
:10264000D9CF8091DB0318C08091DB038D7FDBCF76
:102650008091DA038F7ECECF8091DA038F7DCACF4F
:102660008091DA038F7BC6CF8091DA03877F8B7FDF
:10267000C1CF8091DB038D7F8E7FC5CF8091DA0340
:1026800082FB222720F991E0922790FB82F990FBB0
:1026900083F9B0CF8091DB03982F909591708E7F56
:1026A000892B90FB81F9AFCF0E943F308091DA03F4
:1026B00087FB222720F991E0922790FB87F99ACF98
:1026C00061E08EE090E00E9401338091DA03909106
:1026D000DB030E943D1F0E943F302FCD882309F469
:1026E00090C08091840682720A3C3CE5130709F48D
:1026F00074C098F5053C5CE5150709F45AC0B8F4B8
:10270000033CECE51E0709F44AC008F04DC0023C4A
:102710002CE5120709F075C09091EC0681E089273D
:102720008093EC0610920C010E94EB1B06CD073C37
:102730003CE5130709F447C008F440C0083C5CE5D9
:10274000150709F445C0093C9CE5190709F059C073
:1027500045E15CE162E27CE149C00E3CECE51E072C
:1027600009F44AC058F40C3C2CE51207D9F108F0E2
:1027700040C043EF5BE16DEF7BE138C0063D4CE5C7
:10278000140738F4003D1C4508F0D7CC61E089E01F
:1027900035C00D358DE5180709F4CFCC32C044E7BC
:1027A0005CE16EE77CE122C04EE75CE164E77CE13E
:1027B0001DC049E45CE163E57CE118C043E55CE1F0
:1027C00069E47CE113C04FE25CE16CE37CE10EC0A4
:1027D0004CE35CE16FE27CE109C042E25CE165E16F
:1027E0007CE104C04DEF5BE163EF7BE10E949B1B4A
:1027F000A4CC61E081E002C061E084E00E945D1C45
:102800009CCCF7018281882389F10A35FDE51F07F9
:1028100041F150F401153CE51307A9F00E3D1C45AC
:1028200029F50E945B1F89CC0B355DE51507D9F0B2
:102830000C351D45D9F48091DB0382FB882780F994
:1028400091E0892711C00E943F309FEFE4E3FCE054
:102850009150E040F040E1F700C000000E94461EA9
:102860006CCC81E001C080E00E942E20F7018281C3
:1028700000811181882349F0C8010E944D20D82E83
:10288000682FC8010E94CA2004C0C8010E949A2073
:10289000D82EB8018D2D0E946A298C01A82EF7012F
:1028A000B280D580D2949FE0D92280918106877032
:1028B00099F0BB2089F0812F807F803421F080E265
:1028C000800F883048F082E00E94262180918106A6
:1028D0008770CC24C3948111C12C912E92948FE0E7
:1028E0009822892D90E08C30910508F07AC2FC0185
:1028F000E858FF4F0C94C833812F807F1F708823C6
:1029000011F01295107FBB20B9F0112309F44FC2CA
:1029100080E2800F883010F0A11006C080918406FC
:10292000182B1093840605C080918306182B1093F2
:1029300083060E94D81F3BC2802F0E94543011236F
:1029400009F44FC2005E083010F0A11004C0812FBE
:102950000E94D11F06C01095809183061823109302
:1029600083060E94D81F3DC2812F807F1F70803256
:1029700011F01295107FAA2029F0F1E0AF1609F4AA
:1029800043C04EC0BB2051F1DD2011F101E0D01257
:1029900013C08091DB0382FD24C280918706182B2F
:1029A000181709F41EC20E94AB1E909386068093EE
:1029B00085061093870615C225E0D21209C00E9431
:1029C000C61F80917E061817A9F110937E0632C0AB
:1029D00080918706812B0E94F72F03C2DD2051F0E2
:1029E00031E0D3120DC080918406812309F4F9C12E
:1029F0000E9447200E94C61F812F0E940130F1C112
:102A000045E0D412F7CFEDC1BB2029F055E05D15AC
:102A100008F4E7C10FC084E08D1508F4E2C1ECCFE3
:102A2000BB2051F0DD2031F0F701858180FFBFC16F
:102A30008F708583812FCFCFDD20F1F2093341F4F0
:102A4000FFEF17EE23E0F15010402040E1F7C4C142
:102A50008FE39CE90197F1F7BFC1812F8695869599
:102A6000837019F0813059F0BCC1BB2019F0C80146
:102A7000937002C080E090E00E94271AB8C1BB208A
:102A800019F0C801937002C080E090E00E94111A12
:102A9000AEC1812F837009F069C0B110A6C1902F1B
:102AA000929596959770990F990F802F8F70882E19
:102AB000912CA12CB12C092E04C0880C991CAA1CA5
:102AC000BB1C0A94D2F704FF12C04FE050E060E054
:102AD00070E004C0440F551F661F771F9A95D2F708
:102AE000DB01CA0180959095A095B09503C080E068
:102AF00090E0DC0116951695412F4370423019F194
:102B0000C8F4009188061091890620918A063091B8
:102B10008B06413059F088299929AA29BB29BC0183
:102B2000CD0160237123822393230AC0802A912A36
:102B3000A22AB32ABC01CD01682979298A299B29B7
:102B40000E947A2152C188299929AA29BB2900917A
:102B500088061091890620918A0630918B06BC0167
:102B6000CD016027712782279327EACFBB2019F078
:102B7000812F817001C08695882309F436C1902F7A
:102B8000929596959770990F990F802F8F70882E38
:102B9000912CA12CB12C092E04C0880C991CAA1CC4
:102BA000BB1C0A94D2F704FF12C04FE050E060E073
:102BB00070E004C0440F551F661F771F9A95D2F727
:102BC000DB01CA0180959095A095B09503C080E087
:102BD00090E0DC0116951695412F43704230D9F0F4
:102BE00068F50091F2061091F3062091F4063091F9
:102BF000F506413059F088299929AA29BB29BC0139
:102C0000CD0160237123822393231EC0802A912A41
:102C1000A22AB32A13C088299929AA29BB2900917D
:102C2000F2061091F3062091F4063091F506BC01EE
:102C3000CD01602771278227932706C0BC01CD01F3
:102C4000682979298A299B290E94F720CEC01F7004
:102C5000BB2039F0812F0E944321802F0E94F72F43
:102C6000C4C0802F0E940130812F0E940121BDC06D
:102C7000802F92EFA91609F442C09A1538F0E0EFC0
:102C8000AE1661F0F1EFAF1699F18CC023EFA216EA
:102C9000E9F134EFA31609F450C084C0BB2019F148
:102CA00044E04D1508F49DC01F7181E090E0A0E064
:102CB000B0E0AC01BD0104C0440F551F661F771F73
:102CC0001A95D2F78091F2069091F306A091F4063E
:102CD000B091F5068A019B01082719272A273B276F
:102CE000C901B80127C025E02D1508F47AC0DCCF52
:102CF000BB2039F0812F8F710E94432172C0BB200D
:102D0000C9F3812F8F710E9401216BC0BB2079F024
:102D10001F7181E090E0A0E0B0E0BC01CD0104C0F3
:102D2000660F771F881F991F1A95D2F703C060E0BE
:102D300070E0CB010E94F72054C0BB20D9F08091F5
:102D40007E060E94D11F809181068770843039F4FD
:102D50000E944020812F8F710E94012160C034E0C9
:102D60003D1508F45CC01F71812F0E94432163E070
:102D7000812F11C09091840680917E06892B8093CB
:102D8000840644E04D1550F40E9440200E944720E4
:102D900064E0812F8F710E94642141C081E00E9414
:102DA00026213DC0BB2039F0DD2009F4A3CF802FC0
:102DB0000E947E3016C0DD2009F4A3CF893341F490
:102DC0005FEF87EE93E0515080409040E1F704C000
:102DD000EFE3FCE93197F1F700C00000802F0E947B
:102DE000543088EF890D843010F40E943D1ACC20B5
:102DF00041F18091810680FD24C0F7011282859502
:102E0000859585950E944321C7010E94C00F80913E
:102E100081068595859585950E94012112C0C12C5A
:102E2000E4CF01314FE5140709F0A3C982E081C95D
:102E300006319CE5190709F051CC909184069A7AE5
:102E400006CBA3960FB6F894DEBF0FBECDBFDF91C1
:102E5000CF911F910F91FF90EF90DF90CF90BF9097
:102E6000AF909F908F907F906F905F904F903F902A
:102E70002F9008958334910540F5880F991F880F8E
:102E8000991FFC01ED5BFE4F52813381808183707D
:102E90007181A82FB0E0E0E98E9FC0011124865512
:102EA0009B4FFC01E70FF11DB4976083FC01E50F18
:102EB000F11DB4974083830F911DFC01B4972083CB
:102EC000FD01E855FB4F81E080830895FF920F9349
:102ED0001F93CF93DF93182F062FF42EC0E0D0E07E
:102EE0002F2D402F612FCE010E943A172196C33417
:102EF000D105B1F7DF91CF911F910F91FF90089508
:102F0000EF92FF920F939701201B31092F3F31055C
:102F100019F010F02FEF30E02095382F320F08F421
:102F20003FEF832F0F91FF90EF900895EF92FF9264
:102F30000F939701201B31092F3F310519F010F035
:102F40002FEF30E0322F3095482F430F08F44FEF2A
:102F5000842F620F0F91FF90EF900895EF92FF92F0
:102F60000F93970195E0099F200D311D11242F3FEC
:102F7000310519F010F02FEF30E02095382F320F87
:102F800008F43FEF832F0F91FF90EF90089522E810
:102F9000241B08F420E0620F08954095282F429FDB
:102FA000412D1124842F0895EF920F931F9393E0E6
:102FB000099F80011124159507956E2D600F1F91B3
:102FC0000F91EF900895E42FF0E0EE0FFF1FE6550C
:102FD000FD4F6081621B0895E42FF0E0EE0FFF1FAC
:102FE000E755FD4F6081621B0895622F0895E42F1D
:102FF000F0E0EE0FFF1FE755FD4F408134EE439F99
:10300000412D1124E82FF0E050E0445E5F4FDA01DB
:10301000A21BB1099D01B7FF03C03195219531096C
:1030200093E0220F331F9A95E1F7AF01421B530B38
:103030009A0157FF02C020E030E0582F259F212D34
:103040001124822F0895FC019B01009721F477FF42
:103050002BC080E80895AC0197FF04C04427552792
:10306000481B590BB901640F751F37FD0CC0241B99
:10307000350BC901A5E0880F991FAA95E1F70E94B9
:10308000B43380E20CC0CB0165E0880F991F6A95CC
:10309000E1F7BA01621B730B0E94B43380E6861B12
:1030A000F7FF03C08195089580E00895EF920F9394
:1030B000CF93DF93D72FC82FC9010E19BA010E94F1
:1030C0002318602F681B7D2F8C2FDF91CF910F91DC
:1030D000EF900895EF920F931F93CF93DF93D62F26
:1030E000C72F182FC9010E19010FBA010E9423180A
:1030F000081B202F219F212D1124822F6D2F7C2F23
:10310000DF91CF911F910F91EF9008950F931F932F
:10311000CF93DF93082F000FEB0114E21093940478
:10312000E5E9F4E0DE018D91819384E0E53AF8076A
:10313000D1F724E630E041E150E064E974E0802F0B
:103140000E944732105F6096143B41F7DF91CF91A8
:103150001F910F9108958091A804882329F06AEAAD
:1031600074E084E70E9486181092A8048091A90454
:10317000882329F06AE375E087E70E948618109299
:10318000A9040895E4E9F4E06083418324E630E093
:1031900042E050E0BF01880F0C944732DF92EF927B
:1031A000FF920F931F93CF93DF93262F30E0A90157
:1031B00042515A4F7A01FA01908191110AC0F701E8
:1031C0001082DF91CF911F910F91FF90EF90DF90D0
:1031D0000895D82EF2E16F9FE001112400E010E085
:1031E000F801EC0FFD1FE653FA4F4081602F8D2D43
:1031F0000E94C2180F5F1F4F0231110589F7DFCF00
:10320000CF93DF93C82F4BE06DEF0E94C21840E0D0
:103210006AE08C2F0E94C2188FE39CE90197F1F7B6
:1032200000C0000040E060E08C2F0E94C21840E027
:1032300061E08C2F0E94C21840E066E08C2F0E9453
:10324000C21840E06DEF8C2F0E94C218D0E040E021
:103250006D2F8C2F0E94C218DF5FD231C1F740E082
:103260006D2F8C2F0E94C218DF5FD432C1F740E06F
:103270006D2F8C2F0E94C218DF5FD43BC1F74BE04B
:103280006DEF8C2F0E94C21841E06AE08C2F0E94E3
:10329000C21840E06DEF8C2FDF91CF910C94C218D3
:1032A0007F928F929F92AF92BF92CF92DF92EF92D6
:1032B000FF920F931F93CF93DF930E94BA3184E75D
:1032C0000E94001987E70E94001903E411E0E12C35
:1032D000F12C42E138E0A32EB12CCC24C394D12CA4
:1032E00077247394D80111962C91119730E0C9017D
:1032F00084971296CC911297D0E0A4971396EC91F4
:10330000F0E0B497BC0197FF02C0695F7F4FA3E074
:1033100075956795AA95E1F7D701AA0FBB1FAA0F6C
:10332000BB1FAD5BBE4F2C91237030E0429FD0019C
:10333000439FB00D1124A653BA4F4D01860E911C28
:10334000B5010E94B433B60102C0660F771F8A959B
:10335000E2F7CB01D4019C91892B8C93CE01D7FD50
:10336000079663E0959587956A95E1F7429FB001CE
:10337000439F700D112466537A4F4B01880E911CA8
:10338000CE01B5010E94B433B60102C0660F771FAB
:103390008A95E2F7CB01D4019C91892B8C93CF01C4
:1033A000F7FD079653E0959587955A95E1F7429F6B
:1033B000E001439FD00D1124C653DA4FC80FD11D31
:1033C000CF01B5010E94B433F60102C0EE0FFF1F1A
:1033D0008A95E2F7CF019881892B8883F901E25120
:1033E000FA4F7082FFEFEF1AFF0A0C5F1F4F63E482
:1033F000E616F10409F076CF60E084E70E94CE186B
:1034000061E087E7DF91CF911F910F91FF90EF90DF
:10341000DF90CF90BF90AF909F908F907F900C9453
:10342000CE182091F2053091F3052817390771F075
:103430009093F3058093F205E091DC03F091DD03B6
:10344000309721F00084F185E02D099408952091B2
:10345000F0053091F1052817390771F09093F105C7
:103460008093F005E091DC03F091DD03309721F0CB
:103470000680F781E02D09940895E091DC03F09136
:10348000DD03309721F00190F081E02D099480E078
:103490000895E6EAF3E080E090E08830910531F0AD
:1034A000248127FF148201963596F7CF90939204DA
:1034B000809391040895CF9390918D049923C9F03E
:1034C000882311F0C0E003C010928D0412C08091D7
:1034D0008D04C817C8F7EC2FF0E0EE0FFF1FE1587E
:1034E000FB4F808191810E94CC2B0E94D81FCF5F1F
:1034F000EECFCF910895CF93DF93CFECD2E060E091
:10350000CE010E9401332196C11584E0D807B9F796
:10351000DF91CF910895883080F49B01982F8AE045
:10352000989FB001112461587D4F4AE050E0C901D5
:103530000E94D33280E090E008958FEF9FEF0895CE
:103540000F931F93CF93DF93843058F5653048F580
:103550004F3038F521159CE5390731F4E0917904B5
:10356000F0917A04EF2BE9F08901C42FD0E0CC0F61
:10357000DD1F9EE1699FC00DD11D112496E9899F31
:10358000C00DD11D1124612FCE0187960E940133F9
:10359000602FCE018896DF91CF911F910F910C94EF
:1035A0000133DF91CF911F910F9108956F927F9218
:1035B0008F929F92AF92BF92CF92DF92EF92FF9243
:1035C0000F931F93CF93DF93CDB7DEB72A970FB634
:1035D000F894DEBF0FBECDBFA0907904B0907A04FE
:1035E00081E090E090937A0480937904612CC12C5F
:1035F000D12C712CE12CF12C00E010E046018E0C56
:103600009F1CF801EE0FFF1FE80DF91DE05FFC4F56
:1036100025913491402F672D862D0E94A01A0F5FAF
:103620001F4F0F30110569F78EE1E80EF11C7394FE
:1036300095E07912E1CFE6E9CE0ED11C6394F4E077
:103640006F12D7CFCE0101967C018AE0F70111926B
:103650008A95E9F70FE712E04AE050E0B801C701A8
:103660000E942533065F1F4F0F3CF2E01F07A1F7B2
:10367000B0927A04A09279042A960FB6F894DEBF2D
:103680000FBECDBFDF91CF911F910F91FF90EF90B3
:10369000DF90CF90BF90AF909F908F907F906F9072
:1036A00008950F931F93CF93DF93843008F565300F
:1036B000F8F44F30E8F4C42FD0E0CC0FDD1F2EE13A
:1036C000629FC00DD11D112436E9839FC00DD11D0D
:1036D0001124CE0187960E94E33290E0182F002734
:1036E000CE0188960E94E3329801282BC90102C0BE
:1036F00080E090E0DF91CF911F910F910895462FC8
:1037000020917B0430917C04232B91F47E3F39F48B
:103710006E3F71F480917D0490917E040895843011
:1037200038F4753028F46F3018F4672F0C94511B5F
:1037300080E090E00895882311F0FA0101C0FB01B8
:1037400009940C9466170C943A17DF92EF92FF924B
:103750000F931F93CF93DF93EC01FC01E15DFC4FCE
:103760009081692381F1D090EE060091EF061091CF
:10377000ED06E12EF12C0E94BA32282FC7018C549D
:103780009F4F68E671E00E94B4338E199F0997FD40
:10379000039695958795959587952370612F289F1A
:1037A000600D11247D2D802F0E94C328462F282FC5
:1037B000672FCE01DF91CF911F910F91FF90EF9076
:1037C000DF900C94A31BDF91CF911F910F91FF907D
:1037D000EF90DF90089546E050E06CE170E08CEEF1
:1037E00096E00C94F132ECEEF6E0248130E1231BFC
:1037F00008F420E024830C94EB1BECEEF6E024812B
:1038000030E1230F08F42FEF24830C94EB1B9091ED
:10381000EC06937049F08093ED066093EE064093BA
:10382000EF0621110C94EB1B0895ECEEF6E04381BA
:1038300020E1421B08F440E0818121E0628190E0B8
:103840000C94071CECEEF6E0438120E1420F08F4F3
:103850004FEF818121E0628190E00C94071CECEE37
:10386000F6E0628120E1621B08F460E0818121E0E2
:10387000438190E00C94071CECEEF6E0628120E1BD
:10388000620F08F46FEF818121E0438190E00C9496
:10389000071CECEEF6E0818190E021E0438162813B
:1038A00008970C94071CECEEF6E0818190E021E093
:1038B0004381628108960C94071C9091EC069370EA
:1038C00091F0811102C0946007C0843110F09C64B3
:1038D00003C0880F880F982B9093EC0610920C0170
:1038E00061110C94EB1B08958091EC0686958695EA
:1038F000815009F483E161E00C945D1C8091EC0639
:10390000869586958F5F843108F081E061E00C94A4
:103910005D1CECEEF6E085E28083809124019091BD
:103920002501A091260181839283A3838FE784835D
:103930008FEF85830C94EB1BFF920F931F93CF9314
:10394000DF93F62ED72F182FC901C12FC01BBA0144
:103950000E942318982F990F890FC81B2C2F219F85
:10396000212D1124822F6F2D7D2FDF91CF911F915B
:103970000F91FF900895BC018230910508F40895DD
:10398000613E8EE1780748F49B0195E036952795D6
:103990009A95E1F748E0420F01C04FEF91E0242FE4
:1039A00030E0290F311D35952795229FF001239F87
:1039B000F00DF00D11246E177F0718F44FEF420F32
:1039C00004C02F3F39F091E0920F491740F78FEF75
:1039D000890F08958FEF089520E030E0869F212D14
:1039E000969F200D311D1124C9010895CF92DF92B9
:1039F000FF920F931F93CF93DF93CDB7DEB76797F7
:103A00000FB6F894DEBF0FBECDBFF42E4B8B052F43
:103A10005C8B162F6D8B7E8B8F8BCE88DF88611130
:103A200010928306FE013D9686E0DF011D928A9585
:103A3000E9F70E94AB1E20917F0630918006821B21
:103A4000930B8838934140F08091810682FB99273F
:103A500090F981E0892701C080E080FF03C082E007
:103A60000E9426210E94AB1E209185063091860679
:103A7000821B930B8838934110F00E94C61FFD866D
:103A80000E871F87D98AC88A86E0FE013D96DE012F
:103A9000179601900D928A95E1F7CE0107960E9444
:103AA000FA2181113EC086E0FE013796DE011196B3
:103AB00001900D928A95E1F7FF81E8856A857B8503
:103AC0006115710531F0EF3F31F481E0FF3F19F4EA
:103AD00003C081E001C080E080FD23C020911A0670
:103AE00030E0C90101968770992740914B0650E05C
:103AF0008417950779F1F983EA837D836C8396E0D7
:103B0000929FD001939FB00D1124A55EB94FFE0185
:103B1000319601900D929A95E1F780931A060E94D2
:103B2000842116E080914B0690911A068917F9F0CE
:103B3000189FC0011124855E994F0E94FA218823A5
:103B4000B1F080914B0690E00196877099278093A1
:103B50004B06E8CF0E943F3010921A0610924B0697
:103B6000E4E1F6E086E0DF011D928A95E9F76796C9
:103B70000FB6F894DEBF0FBECDBFDF91CF911F917E
:103B80000F91FF90DF90CF900895089580918E0659
:103B9000089580E00895CF93DF9300D01F92CDB7B2
:103BA000DEB79091BE06943011F589837B836A83DA
:103BB0009093E9008FEF9091E800815095FD06C049
:103BC00095ED9A95F1F700008111F5CF8091E8000D
:103BD00085FF0DC040E050E063E070E0CE0101964B
:103BE0000E94902F8091E8008E778093E8000F90DC
:103BF0000F900F90DF91CF910895BC0184E00C9459
:103C0000CB1DBC0183E00C94CB1DCF93DF9320919F
:103C10001801222339F02091DA0327FF03C060E264
:103C200024E002C068E021E02093E9002FEF30910A
:103C3000E800215035FD06C035ED3A95F1F700005A
:103C40002111F5CF2091E80025FF1DC0EC018091E6
:103C50001801811105C040E050E068E070E003C049
:103C600070E040E050E0CE010E94902F8091E8008B
:103C70008E778093E80080E2FE01AFE8B6E0019025
:103C80000D928A95E1F7DF91CF91089581E08093BD
:103C9000E00080E28093D8001092C9008FE19EE49A
:103CA0000197F1F700C0000087E090EBDC01809302
:103CB000FA069093FB06A093FC06B093FD069CE0E9
:103CC00088E10FB6F894A895809360000FBE90939A
:103CD0006000FFCF78941F920F920FB60F921124BD
:103CE0008F939F93AF93BF9380915A0490915B04FD
:103CF000A0915C04B0915D040196A11DB11D80935B
:103D00005A0490935B04A0935C04B0935D04BF914C
:103D1000AF919F918F910F900FBE0F901F901895AC
:103D20009C014FB7F89480915A0490915B04A09144
:103D30005C04B0915D044FBF821B930B08952FB7B5
:103D4000F89460915A0470915B0480915C049091A6
:103D50005D042FBF08952FB7F89480915A04909175
:103D60005B04A0915C04B0915D042FBF08951F9285
:103D70000F920FB60F9211248F939F93AF93BF931F
:103D80008091DE03811113C080915A0490915B04ED
:103D9000A0915C04B0915D044196A11DB11D80937A
:103DA0005A0490935B04A0935C04B0935D04BF91AC
:103DB000AF919F918F910F900FBE0F901F9018950C
:103DC000209118012223C9F02091DA0327FF15C0A2
:103DD000262F2695269526952E31C8F4FC01E20F54
:103DE000F11D677081E090E001C0880F6A95EAF7E5
:103DF00080959281892382830895FC010696228111
:103E0000621301C012823196E817F907C1F70895CD
:103E1000209118012223C1F02091DA0327FF14C05A
:103E2000262F2695269526952E3130F5FC01E20F9A
:103E3000F11D677081E090E001C0880F6A95EAF794
:103E40009281892B82830895FC0132962FEF30E016
:103E50004191641789F02F3F19F4411101C0232FBC
:103E60003F5F3630A9F72F3F39F0FC01E20FF11D1B
:103E700027FDFA95628308950895CF93C92F682F7F
:103E800084E090E00E9401336C2F82E290E0CF91B9
:103E90000C940133CF9384E090E00E94E332C82F6A
:103EA00082E290E00E94E3322C2F30E0A901582BEF
:103EB000CA01CF9108956AEE7EEF80E090E00E9403
:103EC0001F3360E082E090E00E94013360E083E015
:103ED00090E00E9401331092880610928906109299
:103EE0008A0610928B0660E084E090E00E94013325
:103EF00060E082E290E00E94013360E085E090E0C3
:103F00000E94013360E086E090E00E9401336FEF91
:103F100087E090E00E94013340E050E0BA0188E081
:103F200090E00E94133360E08DE090E00E94013346
:103F300040E050E0BA0188E190E00E94133360E075
:103F400087E190E00E94013340E050E0BA018CE14B
:103F500090E00E94133360E070E080E290E00E9405
:103F60001F3340E050E0BA0188E190E00E94133333
:103F700040E050E0BA018FE090E00E94133340E04F
:103F800050E0BA0183E190E00C94133380918706EE
:103F9000882331F0109287061092860610928506CB
:103FA00008958095909184068923809384060895CE
:103FB0009091840680918306892B90918206892BAB
:103FC0008093F40580918706882361F10E94AB1EDF
:103FD0002091850630918606821B930B8838934189
:103FE00010F00E94C61F9091F40580918706892BDE
:103FF0008093F40580911801882331F08091DA03D1
:1040000087FF02C08EE101C086E0E6EFF5E090E0B8
:10401000815028F021912223D9F39F5FF9CF91118C
:104020000E94C61FE091DC03F091DD033097A9F0F8
:1040300080911801882359F08091DA0387FF07C027
:104040008091F4058093F50585E08093F405028066
:10405000F381E02D84EF95E0099408959091DB03BE
:1040600092FB222720F9281751F080FB92F99093B8
:10407000DB038091DA039091DB030C943D1F0895DC
:10408000109281061092800610927F06089580910A
:104090007E06811110927E060895BF92CF92DF9224
:1040A000EF92FF920F931F93CF93DF938C01C090F9
:1040B000F206D090F306E090F406F090F5068091B9
:1040C000880690918906A0918A06B0918B06C82A2D
:1040D000D92AEA2AFB2ACFE1D0E0D701C6010C2E6B
:1040E00004C0B695A795979587950A94D2F780FD59
:1040F00004C0219790F7B12C07C0BC2EB8018C2FBB
:104100000E946A290197A9F38B2DDF91CF911F910E
:104110000F91FF90EF90DF90CF90BF900895CF93D5
:10412000DF93EC010E944D20BE010E946A29DF91BD
:10413000CF9108959E3F61F12FE0929F800D112451
:10414000682F669566956695982F977085E0689FAD
:10415000B001112440E050E080E0FB01E40FF51FC6
:10416000E45BF94F208130E0092E02C03695279597
:104170000A94E2F721703327042E01C0220F0A941B
:10418000EAF7822B4F5F5F4F4530510531F70895B5
:1041900080E008959E3F51F12FE0929F800D112401
:1041A000E82FE695E695E695877051E001C0550F3A
:1041B0008A95EAF785E0E89FF0011124E45BF94F66
:1041C00020E030E070E04081CB01022E02C09695E5
:1041D00087950A94E2F78170819584278523842747
:1041E00081932F5F3F4F2530310569F70895609324
:1041F000F2067093F3068093F4069093F5060C9400
:1042000031300F931F9341E050E060E070E004C054
:10421000440F551F661F771F8A95D2F7409550951A
:10422000609570958091F2069091F306A091F40646
:10423000B091F5068A019B01082319232A233B2309
:10424000C901B8011F910F910C94F72020918106AC
:104250008095822380938106982F977041F430E0F7
:10426000482F082E000C550B2417350721F4909188
:10427000DB0392FF07C08595859585950E940121F6
:104280000C94402008950F931F9341E050E060E0AC
:1042900070E004C0440F551F661F771F8A95D2F740
:1042A0008091F2069091F306A091F406B091F50684
:1042B0008A019B01082B192B2A2B3B2BC901B80122
:1042C0001F910F910C94F7209091DB0392FD10C089
:1042D00098E0899F90011124262B209381060E944B
:1042E00043210E94AB1E9093800680937F06089521
:1042F0000C944321609388067093890680938A0604
:1043000090938B060C94313080914B0690911A0655
:10431000891719F08F5F8770FBCF08950F931F9354
:10432000CF93DF938091190682958F7009F05DC05D
:1043300080911606882309F458C080914B0610918D
:104340001A066091140670911506C0911706D09157
:10435000180691E06F3F09F090E0292F06E08117E1
:1043600009F443C0209721F07F3F21F030E003C0E3
:1043700031E001C0322F90E030FD34C0089FF001E1
:10438000099FF00D1124DF01A55EB94F11963C91F4
:104390001197371327C03C91361324C012963C91D5
:1043A000129731111FC013964D915C9114974C1BBD
:1043B0005D0B483C5105B0F4809119068F70806107
:1043C00080931906E05EF94F80818F708061808351
:1043D00084E196E00E94C00FDF91CF911F910F9171
:1043E0000C94842101968770BACFDF91CF911F91F1
:1043F0000F9108959F92AF92BF92CF92DF92EF926A
:10440000FF920F931F93CF93DF93CDB7DEB76197E2
:104410000FB6F894DEBF0FBECDBF8C0185E0F8016A
:10442000DE011D9601900D928A95E1F7F8019081C9
:104430008181E28030911406609115064091170643
:10444000509118064115510531F06F3F31F421E0CC
:104450003F3F19F403C021E001C020E0F22FF170CA
:104460009F2E20FD23C1F801C380D48024E1A22E19
:1044700026E0B22EF0901606F601E41BF50BFF20A5
:1044800009F4CEC020911906E83CF10508F099C066
:10449000422F407F09F051C0681311C039130FC07B
:1044A000FE2CE1100CC02F70206120931906C5016D
:1044B0000E94C00F80911906F801858337C1CD286D
:1044C00031F08F3F31F421E09F3F19F403C021E028
:1044D00001C020E020FD03C021E02E2502C020E025
:1044E00030E0F22FF170FF2E20FF1DC020914B060F
:1044F00040911A0656E0241709F4F6C030E0529FA6
:10450000F001539FF00D1124E55EF94F6181861390
:1045100006C06081961303C06281E61204C02F5F5B
:104520003F4F2770E8CFFE2CEE2009F4FFC08091AA
:10453000190681608093190650C0681307C03913AB
:1045400005C0E11003C0F80125838DC09D878E87CB
:104550008D859E850E940830882369F1EE2059F1EF
:1045600020911906822F82958F7090E0029774F047
:10457000809114069091150698878F831986DB86A3
:10458000CA862C87CE0107960E94C00F86E0F801EC
:10459000A4E1B6E001900D928A95E1F70E948E2188
:1045A0000DC06817E1F09D878E878D859E850E94DE
:1045B000083081111EC0C8010E94C00FFF24F3946F
:1045C000B5C0422F407F69F784E196E00E94C00F9A
:1045D00086E0F50111928A95E9F7F12CA7C039130D
:1045E000E2CFE110E0CFF8012583C8010E94C00F9F
:1045F00057C0EE2001F320911906822F82958F700B
:1046000090E002971CF280911406909115069A830F
:1046100089831B82DD82CC822E83CE010196B4CFAA
:10462000E83CF105E8F5FE2CEE2029F2681327C0DE
:10463000391325C02091190620FD18C0822F8295BC
:104640008F70482F50E04115510581F0F801258306
:104650004F30510541F08F5F982F9295907F822FB8
:104660008F70892B8583C8010E94C00F86E0F801F6
:10467000A4E1B6E001900D928A95E1F757C09D87BD
:104680008E878D859E850E94083081117FCF809115
:104690001906816080931906C8010E94C00F46C0A8
:1046A00086E0F50111928A95E9F740C0EE2009F401
:1046B00082CF9D878E878D859E850E940830F82E3B
:1046C000882309F478CF86E0F801A4E1B6E00190F0
:1046D0000D928A95E1F780911406909115060E943B
:1046E0008F200E948E2122C09D878E878D859E857A
:1046F0000E948F20292F22952F70223028F49F703E
:1047000039F0811105C00BC0243028F49F7049F4A2
:10471000805E883020F0C8010E94C00F9F2CF92CC9
:1047200005C0F8019581907F99F7F9CF8F2D61969B
:104730000FB6F894DEBF0FBECDBFDF91CF911F91B2
:104740000F91FF90EF90DF90CF90BF90AF909F9030
:1047500008951F93CF93DF93CDB7DEB7AA970FB617
:10476000F894DEBF0FBECDBFE2EBF6E08091F10022
:10477000819346E0EA3BF407C9F78091B3068330A2
:1047800009F462C030F4813071F0823009F49CC0C9
:10479000B3C08A3009F488C08B3009F46DC0893009
:1047A00009F0AAC020C08091B206813A09F0A4C0E5
:1047B0008091E800877F8093E8008091B606909111
:1047C000B706892B21F460E28FE896E003C060E031
:1047D00080E090E070E00E945C318091E8008B778F
:1047E0008093E80089C08091B206813209F084C0CC
:1047F0008091B6069091B706009719F0029709F0DC
:104800007BC08091E800877F8093E8008091E8007A
:1048100082FD05C08091BE068111F8CF6DC0209148
:10482000F3008091F20090E0922B029729F480919E
:10483000F1008B7F813021F48091F10080938E060E
:104840008091E8008B7754C08091B206813A09F0DC
:1048500053C08091B6069091B706892B09F04CC0E1
:104860008091E800877F8093E8008091E80080FFD6
:10487000FCCF8091180137C08091B2068132E1F5FA
:104880008091B6069091B706892BB1F58091E8002A
:10489000877F8093E8000E9408318091B40680935E
:1048A00018010E943F3028C08091B206813221F564
:1048B0008091E800877F8093E8000E940831809112
:1048C000B50680938D0618C08091B206813AA1F496
:1048D0008091E800877F8093E8008091E80080FF66
:1048E000FCCF80918D068093F1008091E8008E7757
:1048F0008093E8000E9408318091E80083FFE9C1BD
:104900008091B2069091B306492F50E04A3051058C
:1049100008F0DFC1FA01EC57FF4F0C94C833803820
:1049200021F0823809F0D5C108C08091AF0690917E
:10493000B006992389F082600FC08091B6068F700F
:10494000873008F0C6C18093E9008091EB0085FBB9
:10495000882780F91092E9009091E800977F909362
:10496000E8008093F1001092F1007CC1282F2D7F88
:1049700009F0AFC1882319F0823061F0AAC180919B
:10498000B406813009F0A5C1933009F080E080932E
:10499000B0062EC08091B40681112AC08091B6065F
:1049A0008F702FEF280F263008F093C18093E90015
:1049B0002091EB0020FF1CC0933021F48091EB008C
:1049C000806214C09091EB0090619093EB0021E025
:1049D00030E0A90102C0440F551F8A95E2F74093C9
:1049E000EA001092EA008091EB0088608093EB006F
:1049F0001092E9008091E800877F8093E8000E9490
:104A0000083167C1811165C11091B4061F7780918B
:104A1000E3008078812B8093E3008091E800877F1A
:104A20008093E8000E9408318091E80080FFFCCF6D
:104A30008091E30080688093E300111102C082E05E
:104A400001C083E08093BE0644C18058823008F0E4
:104A500040C12091B4063091B5062C3D53E0350796
:104A600079F583E08A838AE289834FB7F894DE017F
:104A7000139620E03EE051E2E32FF0E05093570020
:104A8000E49120FF03C0E295EF703F5FEF708E2F3F
:104A900090E0EA3010F0C79601C0C0968D939D93C8
:104AA0002F5F243149F74FBF8091E800877F8093C3
:104AB000E8006AE270E0CE0101960E945C31C0C05D
:104AC0008091B6069091B706432F55274330510584
:104AD000B1F068F44130510509F40AC14230510582
:104AE00009F0F7C08BE590E0E7E3F6E057C041320C
:104AF000510589F14232510509F43CC0EAC0C901AF
:104B0000992781309105B9F070F082309105D9F084
:104B1000039709F0DEC0E4EAF6E0E4918E2F90E01E
:104B2000E4EAF6E038C0E8EFF6E0E4918E2F90E09A
:104B3000E8EFF6E030C0E6EEF6E0E4918E2F90E08C
:104B4000E6EEF6E028C0E2ECF6E0E4918E2F90E08D
:104B5000E2ECF6E020C08330910508F0BAC0880F7F
:104B6000991FFC01E85AFD4F0190F081E02D89E08A
:104B700090E014C08330910508F0ABC0FC01EE0F4B
:104B8000FF1FEE5AFD4F0190F081E02DDC01A15B8B
:104B9000BD4F8C9190E0009709F49BC02091E800F4
:104BA000277F2093E8002091B8063091B906281796
:104BB000390708F4C90140E0009789F12091BE0649
:104BC000222309F43DC02530D9F12091E80023FDCE
:104BD00037C02091E80022FD2FC02091E80020FF7F
:104BE000EBCF4091F3002091F20030E0342B00979E
:104BF00059F02830310540F444914093F10031964A
:104C000001972F5F3F4FF3CF41E02830310509F086
:104C100040E02091E8002E772093E800CDCF4111AD
:104C2000CDCF0AC08091BE06882351F0853041F077
:104C30008091E80083FD04C08091E80082FFF2CFFC
:104C40008091E8008B778093E80043C0803809F0BA
:104C500040C08091E800877F8093E8008091B10692
:104C60008093F1008091E8008E77C7CE811131C02A
:104C70008091B4069091B5069927029754F58091DA
:104C8000E800877F8093E8001091B4061093B10686
:104C90000E940831111106C08091E30087FD02C017
:104CA00081E001C084E08093BE0642E061EC81E0D7
:104CB0000E94273142E261EC84E00E94273142E207
:104CC00061EC82E00E94273142E260EC83E00E94C6
:104CD00027318091E80083FF10C08091E800877F32
:104CE0008093E8008091EB0080628093EB0005C028
:104CF00082E190E0E2E9F6E051CFAA960FB6F8948F
:104D0000DEBF0FBECDBFDF91CF911F9108951F92DF
:104D10000F920FB60F9211242F933F934F935F93EF
:104D20006F937F938F939F93AF93BF93CF93DF93B3
:104D3000EF93FF93C091E900CF708091EC00D82FE2
:104D4000D17080FDD0E81092E9008091F000877F5B
:104D50008093F00078940E94A9231092E90080913A
:104D6000F00088608093F000CD2BCF70C093E900F5
:104D7000FF91EF91DF91CF91BF91AF919F918F9173
:104D80007F916F915F914F913F912F910F900FBE47
:104D90000F901F901895E8EDF0E080818E7F808362
:104DA0001092E2001092DA001092E100A0EEB0E062
:104DB0008C9181608C9380818F77808319BCA7ED63
:104DC000B0E08C918E7F8C9380818F7E8083109257
:104DD0008C060895CF92DF92EF92FF920F931F936C
:104DE000CF93DF93C8EDD0E088818F7E8883E7ED95
:104DF000F0E080818160808384E082BF81E08093E5
:104E00008C0688818E7F888302EE10E0F801108284
:104E10001092DA0081EEC82ED12CF6011082888122
:104E20008F77888388818068888388818F7D888355
:104E300019BC1092BE061092B1061092B0061092E4
:104E4000AF0690EEE92EF12CF70180818B7F8083F5
:104E500088818160888342E060E080E00E942731A1
:104E6000F60180818E7F8083F8018081816080835C
:104E7000808188608083F70180818E7F8083888134
:104E800080618883DF91CF911F910F91FF90EF9008
:104E9000DF90CF9008951F920F920FB60F921124BA
:104EA0002F933F934F935F936F937F938F939F9332
:104EB000AF93BF93EF93FF938091E10082FF09C00E
:104EC0008091E20082FF05C08091E1008B7F80939A
:104ED000E1008091DA0080FF2AC08091D80080FF35
:104EE00026C08091DA008E7F8093DA008091D9000D
:104EF00080FF18C080E189BD82E189BD09B400FE50
:104F0000FDCF81E08093BE0680918C0681110FC099
:104F10000E94CB260E94EA268091E2008460809362
:104F2000E20005C019BC1092BE0610928C0680915A
:104F3000E10080FF17C08091E20080FF13C08091E4
:104F4000E2008E7F8093E2008091E2008061809396
:104F5000E2008091D80080628093D80019BC85E07F
:104F60008093BE068091E10084FF2EC08091E20014
:104F700084FF2AC080E189BD82E189BD09B400FEB9
:104F8000FDCF8091D8008F7D8093D8008091E10083
:104F90008F7E8093E1008091E2008F7E8093E2001B
:104FA0008091E20081608093E2008091B1068823C5
:104FB00011F084E007C08091E30087FD02C081E02A
:104FC00001C083E08093BE068091E10083FF27C08B
:104FD0008091E20083FF23C08091E100877F80936E
:104FE000E10082E08093BE061092B1068091E1005C
:104FF0008E7F8093E1008091E2008E7F8093E200BB
:105000008091E20080618093E20042E060E080E015
:105010000E9427318091F00088608093F000FF911A
:10502000EF91BF91AF919F918F917F916F915F9120
:105030004F913F912F910F900FBE0F901F90189599
:105040002091E4003091E50095E64091EC00842F3A
:10505000817040FF23C08091E80080FD1DC08091D9
:10506000BE06882399F0853099F08091EB0085FD8C
:1050700011C04091E4005091E5002417350729F351
:10508000915011F09A01E1CF84E0089582E00895F3
:1050900083E0089581E0089580E008954091E8005C
:1050A00042FFDDCF08959091DA0392FF0DC0282FC3
:1050B0002871283019F4877F846006C0282F247156
:1050C000243011F48B7F886093FF0DC0282F287146
:1050D000283119F4877E846106C0282F2471243179
:1050E00011F48B7E88612091DB0320FF0DC0382FE7
:1050F0003871383019F4877F816006C0382F3171DC
:10510000313011F48E7F886021FF0DC0282F287167
:10511000283119F4877E816106C0282F2171213141
:1051200011F48E7E886194FD877E08959C013A95E6
:1051300021153F4138F5DC01AA27B270AC014427A4
:1051400054709C012227387094FF0FC090FF02C05A
:1051500080E101C080E0AB2B09F08062452B09F0B3
:105160008064232B69F080680BC0892F8170AB2B82
:1051700009F08260452B09F08460232B09F08860D8
:10518000FB0109940895CF92DF92EF92FF920F9363
:105190001F93CF93DF93F62E472FE82FF0E0711186
:1051A00006C0E455F84F8491782F682F73C0272FDD
:1051B00030E0E455F84FE491FE2F0E2F10E056E05A
:1051C000659FC0011124CFEFD0E0BE010E94A03343
:1051D0005BEA5603C001579F900D11248F0D911D5E
:1051E0008F0D911D982F990F980F7E01E21AF30AE7
:1051F000E09ED001E19EB00DF09EB00D11248B2FEA
:10520000499FA0011124452F55277E01E41AF50A74
:10521000E09EA001E19E500DF09E500D11246E0104
:10522000C91AD108C29E7001C39EF00CD29EF00C28
:1052300011242F2D3327C21BD30BC09F9001C19F78
:10524000300DD09F300D1124932F6230710591F0F5
:1052500048F461157105E1F061307105B9F49E2FD4
:10526000E52F16C06430710569F040F066307105B5
:1052700079F00CC09E2FEB2F832F0AC0EB2F8F2FBE
:10528000952F06C09B2F8E2FE32F02C09B2F852FBB
:105290007E2F692FDF91CF911F910F91FF90EF909B
:1052A000DF90CF900895F894E82FE295EF70F0E04A
:1052B00031A1282F2F7081E090E001C0880F2A953E
:1052C000EAF7982F9095932391A392A1892B82A31B
:1052D00078940895CF93DF930E947F1BEC0182386E
:1052E000910559F1A0F48133910509F473C040F49C
:1052F0008932910509F467C08A9709F472C084C0A5
:105300008533910509F458C0C997B9F07DC0833E33
:10531000910571F138F4803E9105B1F0823E91051E
:1053200011F172C0863E9105B9F1873E9105C9F130
:10533000843E910509F068C024C08091DA0380FDA5
:105340005DC081FD5BC060C08091DA0380FD50C00C
:105350008091DB0380FF36C18091DA0384FD30C188
:10536000C3EED0E02FC18091DA0382FF2BC1F4CFCE
:105370008091DA0382FD3FC08091DB0380FD3EC057
:10538000EBCF8091DB0381FF1DC18091DA0384FDA7
:1053900017C1C7EED0E016C18091DA0383FF12C1B6
:1053A000F4CF8091DA0383FD2CC08091DB0381FF71
:1053B000ECCFC4EED0E006C18091DA0385FF02C1D4
:1053C000C9E2D0E0FFC08091DA0385FFFBC0C5E3EE
:1053D000D0E0F8C08091DA0386FFF4C0CAE2D0E0E2
:1053E000F1C08091DA0386FFEDC0C1E3D0E0EAC0EE
:1053F000C9E3D0E0E7C0C2EED0E0E4C0C0EED0E048
:10540000E1C0C6EED0E0DEC0C11582E5D80708F0E5
:1054100066C0C11591E5D90728F0DC2FCC27C16FF4
:10542000D06AD0C0C83ED10560F5C03ED10508F0B5
:10543000C9C0C83AD105B0F4C53AD10540F0C55A43
:10544000D0E0CE58DC4FC881D0E0D064BBC0C130C2
:10545000D10509F4B7C008F4B3C0C430D10508F4CD
:10546000AFC0B0C0CF3BD10508F0AAC0C85AD0E049
:10547000CC0FDD1FCB58DC4F0990D881C02DD464F0
:10548000A1C0C11520E5D207E0F0CE0174E09695E9
:1054900087957A95E1F783709C2F937021E030E037
:1054A00002C0220F331F9A95E2F73C68382BCF7069
:1054B000C695C69580E2C89FE0011124C22BD32B6C
:1054C00081C0C11580E4D80718F0DF70D06A7AC0B7
:1054D000CE019A9581159F4108F474C071C0C11521
:1054E00086E5D807F0F5C11595E5D90750F08C2F62
:1054F0000E9453288F71C82FD0E0DC2FCC27D062B8
:1055000061C0C11524E5D20728F0DC2FCC27C46F79
:10551000D06A58C09E01237033278C2F86958695BC
:10552000C115D34578F4C1E0D0E002C0CC0FDD1F37
:105530002A95E2F720E2829FC0011124C82BD92BC3
:10554000DC6840C0C1E0D0E002C0CC0FDD1F2A956E
:10555000E2F720E2829FC0011124C82BD92BDA6820
:1055600031C0C1152AE5D207E8F4C11589E5D8078D
:1055700080F08C2F8F700E94532894E0D695C795A9
:105580009A95E1F7CF70D0E0DC2FCC27D069C82BFB
:1055900019C0C11598E5D90798F0DC2FCC27C06F4A
:1055A000D06A10C0CE0190568115904248F48D2FDC
:1055B0008F710E945328DD27D0628F71D82B02C0D3
:1055C000C0E0D0E0CE01DF91CF910895AF92BF92BD
:1055D000CF92DF92EF92FF920F931F93CF93DF93BF
:1055E000EC018AE0A82E2881222309F4B4C02130DE
:1055F00009F048C08981813071F48E010E5F1F4F20
:105600008A81893319F06AE070E002C060E570E0D9
:105610000E94F13008C0823041F48E010E5F1F4FAE
:105620008A810E947E30E80185C0833039F48E0182
:105630000E5F1F4F8A810E945430F5CF843011F0E5
:10564000219678C02A81229680E090E030E02053B5
:1056500031092A30310558F4A89EA001A99E500DA9
:105660001124C901840F951F21962881EFCF00973F
:1056700009F460C0EFE9FFE03197F1F700C00000E6
:105680000197F5CFE22FF0E0E45DF84FB490822F60
:1056900086958695869590E0FC01E45EF84FE4904F
:1056A0002770F12C022E02C0F594E7940A94E2F7D9
:1056B000F1E0EF22FF24FC01E45FF84FC490D12C0D
:1056C000022E02C0D594C7940A94E2F731E0C322B7
:1056D000DD24FC01E450F94F049110E002C015955F
:1056E00007952A95E2F701701127E114F10419F0EA
:1056F00081EE0E947E30C114D10421F186EE0E9419
:105700007E3089E3B816C1F06AE070E08B2D0E940C
:10571000F130CD2819F086EE0E945430EF2819F0B0
:1057200081EE0E945430012B29F06AE070E08CE297
:105730000E94F130219657CF60E570E089E30E9426
:10574000F130E9CFE9E3BE12DFCF60E570E089E335
:105750000E94F130E3CFDF91CF911F910F91FF9025
:10576000EF90DF90CF90BF90AF900895CF93DF93ED
:10577000EC010E945430CE01805E9109089710F030
:10578000209719F461E070E302C062EE7FE2CE017F
:10579000DF91CF910C949628CF93DF93EC01805E3C
:1057A0009109089710F0209719F467EF7FE202C083
:1057B0006DEE7FE2CE010E9496288C2FDF91CF9173
:1057C0000C947E302F923F924F925F926F927F9215
:1057D0008F929F92AF92BF92CF92DF92EF92FF9201
:1057E0000F931F93CF93DF9300D000D0CDB7DEB7D8
:1057F00037E2E32E31E0F32E40ED842E43E0942E89
:1058000084011982CC24C394D12CFC82EB82D70171
:105810008C91F894E82FE295EF70F0E021A18F7061
:10582000A60102C0440F551F8A95E2F7CA01922FC4
:10583000982B91A392A18095892382A3789400C08C
:10584000ECE2F1E020E030E0A12CB12C4191842F7A
:1058500082958F7090E0DC0190968C9190E04F7073
:1058600002C0959587954A95E2F780FD08C0C6016C
:10587000022E02C0880F991F0A94E2F702C080E04E
:1058800090E0A82AB92A2F5F3F4F2F303105F1F65B
:10589000BFEFEB1AFB0AEB81FC8180810E94532948
:1058A000F0EAFA95F1F7D8018D919C911197A8161D
:1058B000B90621F0AD92BC9281E001C080E0B981CF
:1058C000B82BB9830E5F1F4FE3E00A3D1E0709F0B6
:1058D0009CCF0E94AB1EAC016091BB067091BC06D0
:1058E0009093BC068093BB069091BA06292F30E0B6
:1058F000261B370BC901840F951F6BEF70E00E94C8
:10590000A0338A838093BA06B090BD06BB2009F409
:105910006DC01092BD064091CE035091CF03AFE60B
:10592000B4E03A01FBE46F0E711C00ED13E0A12C12
:1059300022242394312C2BEF422E512C5C834B8359
:1059400060E070E0EB81FC81F080FBEFFF16B9F1C5
:105950002F2D30E0EA80EF1428F0FC01E21BF30B5E
:105960009F0106C07201E21AF30A9701280F391F3E
:105970006901330FEE08FF0825E0C216D104E104E7
:10598000F104E0F0EBEFEE2EEB81FC81E0822D9153
:105990003C911197F801C080D180C226D3267101B5
:1059A000062E02C0EE0CFF1C0A94E2F7EC20FD204C
:1059B000E226F3261196FC92EE9201C0AB2C2B81CD
:1059C0003C812F5F3F4F3C832B836F5F7F4F6F3056
:1059D000710509F0B7CF415F5F4F12960E5F1F4F01
:1059E0006416750609F0AACFA092BD06E980E11001
:1059F00005C08091170181113DC04CC08091CE033C
:105A00009091CF03D090BD06AFE6B4E08C01055B6A
:105A10001F4FEE24E394F12C3BEFC32EF401419190
:105A200051914F012D913D9142275327FC0120E0D8
:105A300030E0B701022E02C0660F771F0A94E2F72A
:105A400064237523672B41F060816B3F31F46A81D9
:105A50006083DD24D39401C0C08231962F5F3F4F15
:105A60002F30310531F70F9608171907B9F6D09284
:105A7000BD06BFCF80918E0490918F04009751F0A6
:105A80000E94901E893C910528F081E00E945B1ADB
:105A90000E94491A89810F900F900F900F90DF910B
:105AA000CF911F910F91FF90EF90DF90CF90BF901B
:105AB000AF909F908F907F906F905F904F903F90AE
:105AC0002F9008950F931F938091F2069091F30603
:105AD000A091F406B091F5068C019D010670112786
