:100000000C94B4030C94FB030C94FB030C94FB03BF
:100010000C94FB030C94FB030C94FB030C94FB0368
:100020000C94FB030C94FB030C94B61B0C94721BF6
:100030000C9441270C94FB030C94FB030C94FB03DE
:100040000C94FB030C94FB030C94FB030C94FB0338
:100050000C94FB030C948D1C0C94FB030C94FB037D
:100060000C94FB030C94FB030C94FB030C94FB0318
:100070000C94FB030C94FB030C94FB030C94FB0308
:100080000C94FB030C94FB030C94FB030C94FB03F8
:100090000C94FB030C94FB030C94FB030C94FB03E8
:1000A0000C94FB030C94FB030C94FB0305010980E7
:1000B000A101850319012AB700150126B700950192
:1000C00075108100C0050C0901A101850419012AE0
:1000D000A002150126A002950175108100C005013E
:1000E0000906A1018505050719E029E71500250185
:1000F0009508750181020507190029EF15002501F2
:1001000095F075018102050819012905950575010C
:100110009102950175039101C00660FF0961A1017B
:100120000962150026FF00952075088102096315F4
:100130000026FF00952075089102C005010906A15F
:1001400001050719E029E7150025019508750181CA
:10015000029501750881010507190029FF15002680
:10016000FF00950675088100050819012905950508
:1001700075019102950175039101C0000000000016
:10018000000000000000000000000000000000006F
:100190000000000000000000000000000000007EE1
:1001A0000F00D4FFFFFFC700000078000000000030
:1001B0000000002A2B2800000000000000000000C2
:1001C00000000000000029000000002C1E34202147
:1001D0002224342627252E362D3738271E1F20218E
:1001E00022232425263333362E37381F04050607ED
:1001F00008090A0B0C0D0E0F101112131415161707
:1002000018191A1B1C1D2F3130232D350405060724
:1002100008090A0B0C0D0E0F1011121314151617E6
:1002200018191A1B1C1D2F3130354C00010101011A
:1002300001010101010202020202020202020303A1
:100240000303030303030404040404040405050571
:100250000505060606060607070707070808080833
:10026000090909090A0A0A0B0B0B0C0C0C0D0D0DE0
:100270000E0E0E0F0F0F1010111111121213131476
:1002800014151516161717181819191A1A1B1B1CEE
:100290001D1D1E1E1F202021222223242425262648
:1002A000272829292A2B2C2D2D2E2F30313232337D
:1002B0003435363738393A3B3C3D3E3F4041424386
:1002C0004445464748494A4C4D4E4F50515354556A
:1002D0005658595A5B5D5E5F616264656668696B1A
:1002E0006C6D6F7072737577787A7B7D7E80828398
:1002F0008587888A8C8E8F91939596989A9C9EA0DC
:10030000A2A3A5A7A9ABADAFB1B3B5B7BABCBEC0E8
:10031000C2C4C6C9CBCDCFD1D4D6D8DBDDDFE2E4B1
:10032000E7E9EBEEF0F3F5F8FAFDFF50308104C891
:1003300010030C40F18413B8D1061B30B28822A8F8
:10034000920A2A20738C3198530E395C604105D48F
:1003500040C30C4C214514C401C71B3CE24823B4E4
:10036000C2CA2A2CA34C3238D00003B0B0820A286B
:10037000910412A07186191852082190328A280817
:10038000130C3080F38D3774C0C106ECA0430E64AB
:1003900081C515DC61471D5442C924CC224B2C4435
:1003A00003CD332CA04002A480C2091C61441194E7
:1003B00041C6180C2248208402CA27FCE24B2F7445
:1003C000C3CD3640F490436484D14588141248ACC0
:1003D000A4524AD034934C1855145120708001987F
:1003E000500209103184108811061800F2871F7816
:1003F000D20927F0B28B2E68930D364C24514470ED
:10040000B491469444D248B8D4124BDC64534D2482
:1004100085D4510810000080F08107F8D0030F60E8
:100420007289257CE45147A0749249C404D34BE8F7
:1004300094134E30B594524400C10334C1C4122405
:1004400082C8211443CC30E070830DD031871CC0AA
:10045000F28A2B38D30C331440C0000401C40F7C43
:10046000E14517E482CB2D58541145F4C4D34E0016
:10047000F5934F0C25545029001E001F0020002129
:10048000002200230024002500260027002D002E36
:10049000002A004A002B0014001A0008001500175B
:1004A000001C0018000C00120013002F0030003157
:1004B000004B00390004001600070009000A000B79
:1004C000000D000E000F0033003400000028004E25
:1004D00000E1001D001B00060019000500110010BE
:1004E00000360037003800E500000052004D00E003
:1004F00000E300E200000000002C0000000000E625
:10050000000000E4005000000051004F00165C3A6B
:10051000003B003C003D003E003F004000410042E7
:10052000004300440045004C004A000100C25CC387
:100530005CC55CC65CC75CC85CC95CCA5C01004643
:100540000047004800005C4B000100CB5CCC5C0124
:100550000001000100010001000100010001000193
:10056000000000DE5C4E00E100010001000100011E
:100570000001000100010001000100010001000074
:1005800000A900A800010001000100000000000116
:100590000000000000010000000100AC000000AA03
:1005A00000AB000100010001000100010001000199
:1005B0000001000100010001000100010001000133
:1005C0000001000100010001000100010001000123
:1005D0000001000100010001000100010001000113
:1005E0000001000100010001000100010001000103
:1005F00000010001000100000001000100010001F4
:1006000000010001000100010001000100010001E2
:1006100000010001000000010001000100010001D3
:1006200000000000000100000000000100000001C7
:1006300000010000000100010001000100010001B3
:1006400000010001000100010001000100010001A2
:100650000001000100010001000100010001000192
:100660000001000100010001000100010001000182
:100670000001000100010001000100010001000172
:100680000001000100010001000100010000000163
:100690000001000100010001000100010001000152
:1006A0000001000100010001000100000001000143
:1006B0000001000100010000000000010000000036
:1006C000000100000001000100000001000100091C
:1006D000025B00030100A0FA09040000010301010C
:1006E00000092111010001224000070581030800D3
:1006F0000A090401000203000000092111010001A0
:1007000022220007058203200001070503032000C1
:100710000109040200010300000009211101000188
:10072000226D000705840320000A12010002000068
:100730000008424B001001000102000114034200B6
:100740004F004F0050003600350052004700420075
:10075000000010034B0042004400460041004E00E0
:10076000530000000403090411241FBECFEFDAE098
:10077000DEBFCDBF04B603FE27C08091DF06909197
:10078000E006A091E106B091E2068730904BA740C9
:10079000B04BD1F41092DF061092E0061092E10601
:1007A0001092E20614BE84B7877F84BF0FB6F89418
:1007B000A89580916000886180936000109260002D
:1007C0000FBEE0E0F8E3099526E0A2EDB2E001C03B
:1007D0001D92AF3DB207E1F712E0A0E0B1E0E2EE1A
:1007E000F0E602C005900D92A23DB107D9F70E9434
:1007F00068270C9410300C9400009091D8069370E8
:1008000051F0811109C094609093D80610922E0186
:1008100081E08093D7060895883210F09C69F4CF68
:10082000880F880F982BF0CF9091D806937061F0C5
:100830008093D9066093DA06493C08F048EC40936F
:10084000DB0681E08093D7060895E8EDF0E0808133
:100850008E7F80831092E2001092DA001092E10005
:10086000A0EEB0E08C9181608C9380818F77808343
:1008700019BCA7EDB0E08C918E7F8C9380818F7E28
:1008800080831092780608952091E4003091E5006D
:1008900095E6A9012091EC00822F817020FF06C00F
:1008A0008091E80080FF06C080E008952091E80074
:1008B00022FD1AC080919D06882389F0853089F039
:1008C0008091EB0085FD0FC02091E4003091E500A0
:1008D00042175307F9F29150E1F684E0089582E05F
:1008E000089583E0089581E00895EF92FF920F93B9
:1008F0001F93CF937C018B010E944404C82F811168
:1009000017C08091E80085FD0BC08091E8008E77CC
:100910008093E8000E944404882399F3C82F08C0FC
:10092000F70181917F018093F1000150110949F78E
:100930008C2FCF911F910F91FF90EF900895809190
:100940009F0687FF13C08091E80082FF06C0809158
:10095000E8008B778093E80004C080919D068111A8
:10096000F2CF089580919D068823D9F38091E80005
:1009700080FFF8CF8091E8008E77ECCF982F90938E
:10098000E900242F762F50E0891731F07091EC00A8
:100990002091ED005091F00021FD07C09F5F97303E
:1009A00071F78093E90081E008953091EB003E7F7C
:1009B0003093EB003091ED003D7F3093ED003091AE
:1009C000EB0031603093EB007093EC002093ED006E
:1009D0005093F0002091EE0027FDE0CF80E00895D5
:1009E000CF92DF92EF92FF920F931F93CF93DF93FB
:1009F000C8EDD0E088818F7E8883E7EDF0E08081CC
:100A00008160808384E082BF81E080937806888162
:100A10008E7F888302EE10E0F80110821092DA00D7
:100A200081EEC82ED12CF601108288818F778883C1
:100A300088818068888388818F7D888319BC109223
:100A40009D0610929E0610929C0610929B0690EEB8
:100A5000E92EF12CF70180818B7F80838881816072
:100A6000888342E060E080E00E94BE04F60180815D
:100A70008E7F8083F801808181608083808188609F
:100A80008083F70180818E7F808388818061888365
:100A9000DF91CF911F910F91FF90EF90DF90CF905A
:100AA0000895FC018091A5069091A60686179707E8
:100AB000A0F06115710529F49091E8009E7790935C
:100AC000E80090E06115710551F4911108C0809122
:100AD000E80082FF34C080E00895BC01F2CF80912D
:100AE0009D068823C1F18530C1F18091E80083FD26
:100AF00030C08091E80082FDEACF8091E80080FF5D
:100B0000E1CF8091F3002091F200382F611571053B
:100B100019F02830310558F091E02830310509F0FE
:100B200090E02091E8002E772093E800CBCF8191D0
:100B30008093F100615071092F5F3F4FE7CF8091A3
:100B40009D06882341F0853041F08091E80083FFC5
:100B5000BECF81E0089582E0089583E0089508956E
:100B600080917A060895209116012223C9F02091E0
:100B7000730627FF15C0E62FE695E695E695EE315C
:100B8000D8F4E80FF92FF11D677021E030E001C0C3
:100B9000220F6A95EAF720958281282322830895FF
:100BA000FC01329608962191621303C0DF01119770
:100BB0001C92E817F907B9F708952091160122232E
:100BC000C1F02091730627FF14C0E62FE695E69545
:100BD000E695EE31F8F4E80FF92FF11D677021E08A
:100BE00030E001C0220F6A95EAF78281822B82836E
:100BF0000895FC0132962FEF30E04191641751F0D7
:100C00002F3F19F4411101C0232F3F5F3630A9F760
:100C10002F3F09F40895820F911D27FD9A95FC013D
:100C20006283089520916C0630916D06281739076C
:100C300071F090936D0680936C06E0916A06F091D6
:100C40006B06309721F00084F185E02D099408951A
:100C500020916806309169062817390771F0909342
:100C6000690680936806E0916A06F0916B063097FA
:100C700021F00680F781E02D09940895E0916A063D
:100C8000F0916B06309721F00190F081E02D0994EE
:100C900080E00895FA01811101C0FB010994EF92EF
:100CA000FF920F931F93CF93DF938335910508F045
:100CB0005AC0FC01EE0FFF1FEE0FFF1FCF01855D35
:100CC0009C4F7C01EC012196FE019591392F3295C4
:100CD0003F708491582F5295507FA52FA32B82955A
:100CE0008F70B82FB370EF018491829586958695A9
:100CF00083702196FE013491532F550F550F052F08
:100D0000082B132F1295169516951370F701349131
:100D1000E32FE370F0E036953695892F8295880FA2
:100D2000880F807CC82FC32B96959695D92FD370AA
:100D30009FE5E92EFF24F394EE9DC001EF9D900DF9
:100D4000FE9D900D1124875F9A4FC80FD91F6883AD
:100D5000A80FB91F4C93800F911FDC012C93E85F03
:100D6000FA4F81E08083DF91CF911F910F91FF9027
:100D7000EF900895FF920F931F93CF93DF93182F57
:100D8000062FF42ED0E0C0E02F2D402F612FCE0192
:100D90000E944F062196C335D105B1F7DF91CF915F
:100DA0001F910F91FF900895E8EDF6E0248130E166
:100DB000231B08F420E0248381E08093D706089564
:100DC000E8EDF6E0248130E1230F08F42FEF2483CF
:100DD00081E08093D7060895E8EDF6E0438120E1B5
:100DE000421B08F440E08181628190E00C9414047D
:100DF000E8EDF6E0438120E1420F08F44FEF8181F6
:100E0000628190E00C941404E8EDF6E0628120E148
:100E1000621B08F460E08181438190E00C9414042B
:100E2000E8EDF6E0628120E1620F08F46FEF818166
:100E3000438190E00C941404E8EDF6E08181438155
:100E400062818850990B0C941404E8EDF6E08181DE
:100E500090E04381628108960C9414048091D80636
:100E600086958695815009F487E20C94FD03809164
:100E7000D806869586958F5F883208F081E00C94BD
:100E8000FD03EF92FF920F939701201B31092F3F33
:100E9000310519F010F02FEF30E02095382F320F88
:100EA00008F43FEF832F0F91FF90EF900895EF929A
:100EB000FF920F939701201B31092F3F310519F045
:100EC00010F02FEF30E0322F3095482F430F08F409
:100ED0004FEF842F620F0F91FF90EF900895EF92E4
:100EE000FF920F93972F093438F4B701601B7109F3
:100EF0006F3F710519F010F06FEF70E0485F5F4FC2
:100F00004131510540F0A901485F5F4F4131510522
:100F100010F06FEF70E06095482F460F08F44FEF28
:100F2000842F37FF02C02D5F3F4F359527953595AC
:100F300027956091D906620F792F0F91FF90EF905E
:100F40000895EF92FF920F931F930E0D1F2D111D09
:100F5000F90137FF03C0F195E195F10924E0EE0FA7
:100F6000FF1F2A95E1F7EF3FF10519F014F0EFEFBD
:100F7000F0E09A0157FF03C031952195310994E0C3
:100F8000220F331F9A95E1F72E173F070CF4F90152
:100F9000E00FF11FEF3FF10519F010F0EFEFF0E077
:100FA000E095282F3E2F230F08F42FEF822F1F915B
:100FB0000F91FF90EF900895EF92FF920F9397019A
:100FC00095E0099F200D311D11242F3F310519F0A7
:100FD00010F02FEF30E02095382F320F08F43FEF5C
:100FE000832F0F91FF90EF90089522E8241B08F4BF
:100FF00020E0620F08954095282F429F412D112433
:10100000842F0895E42FF0E0EE0FFF1FE752FE4F0C
:101010009081921B97FD9195292F38E1239F212DD7
:101020001124620F08950F931F9310E0F801EE0F43
:10103000FF1FE752FE4F9081905797FD9195000F4B
:10104000111FF801E652FE4F00810052110B2003E0
:10105000F001219FF00D112408E310E0091B110994
:1010600097FD139540039001419F300D1124E20F2D
:10107000F31F9F01220F331F2E0F3F1F37FF02C0A8
:1010800021583F4F220F232F221F330B620F1F9136
:101090000F9108950F931F93522F10E0F801EE0F58
:1010A000FF1FE652FE4FA081A052BB0B9D015203D1
:1010B000F001539FF00D1124000F111FD801A7520A
:1010C000BE4F0C910057110B40039001419F300D12
:1010D00011242E0F3F1F37FF02C0215C3F4F96E0C7
:1010E000359527959A95E1F7620F1F910F91089515
:1010F0000F931F93522F10E0F801EE0FFF1FE652DF
:10110000FE4FA081A052BB0B9D015203F001539FE3
:10111000F00D1124000F111FD801A752BE4F0C91E2
:101120000057110B40039001419F300D11242E0FE9
:101130003F1F37FF02C021583F4F220F232F221F8E
:10114000330B620F1F910F910895EF920F93972F1A
:1011500023E0029FB0011124759567956E0D792FDC
:101160000F91EF900895322F50E0FA01EE0FFF1F1C
:10117000E652FE4F9081905297FD9195440F551F76
:10118000FA01E752FE4F2081231B330B290F311D3B
:1011900097FD3A95620F0895E42FF0E0EE0FFF1FE0
:1011A000E652FE4F6081621B0895E42FF0E0EE0FDF
:1011B000FF1FE752FE4F6081621B0895622F089562
:1011C000E42FF0E0EE0FFF1FE752FE4F408134EEB8
:1011D000439F412D1124E82FF0E050E0445E5F4F23
:1011E000DA01A21BB1099D01B7FF03C0319521951A
:1011F000310993E0220F331F9A95E1F7AF01421BAB
:10120000530B9A0157FD20E0582F259F212D1124C3
:10121000822F0895E42FF0E0EE0FFF1FE752FE4FFC
:10122000408134EE439F412D1124E72FF0E050E040
:10123000445E5F4FDA01A21BB1099D01B7FF03C0F5
:1012400031952195310993E0220F331F9A95E1F7EB
:10125000AF01421B530B9A0157FD20E0279F212D20
:101260001124722F08950C94BA060C944F06FC01B9
:101270009B01009729F480E077FF2BC080E8089558
:10128000AC0197FF04C044275527481B590BB901EF
:10129000640F751F37FD10C0241B350BC901A5E075
:1012A000880F991FAA95E1F70E94842D80E2861B82
:1012B000F7FF0FC081950895CB0165E0880F991F56
:1012C0006A95E1F7BA01621B730B0E94842D80E6D8
:1012D000EECF0895EF920F93CF93DF93D72FC82FC0
:1012E000C9010E19BA010E943709602F681B7D2FB2
:1012F0008C2FDF91CF910F91EF9008950F93CF93A3
:10130000DF93D72FC82FC901BA010E943709682F70
:10131000600F7D2F8C2FDF91CF910F910895EF9269
:101320000F931F93CF93DF93D62FC72F182FC90189
:101330000E19010FBA010E943709081B202F219FA7
:10134000212D1124822F6D2F7C2FDF91CF911F91A2
:101350000F91EF900895EF920F931F93CF93DF9328
:10136000D62F172FC82FC9010E19070FBA010E94D7
:101370003709702F781B719F712D11246D2F8C2FC1
:10138000DF91CF911F910F91EF9008950F931F93CD
:10139000CF93DF93D62FC72F182FC901212F201BE2
:1013A000022FBA010E943709982F990F990F891BB4
:1013B000800F282F219F212D1124822F6D2F7C2F0C
:1013C000DF91CF911F910F9108950F931F93CF93AA
:1013D000DF93D62F172FC82FC901272F201B022FCD
:1013E000BA010E943709982F990F990F782F791B0E
:1013F000700F719F712D11246D2F8C2FDF91CF9164
:101400001F910F910895E82F86FDE0952E2F2F70E4
:1014100086FD2F5FE695E695E695E670F0E0E958E3
:10142000FE4F9181929F902D212D112492959F70B6
:101430002295207F922B2081920F87FD919580E845
:10144000890F08950F931F93CF93DF938B01D82FAC
:10145000C42F822F0E94030AEC2FF0E0EE0FFF1F33
:10146000E752FE4F90819058890F87FD8195880F34
:10147000682F2CE0629F612D1124600F712F8D2F3A
:10148000DF91CF911F910F910895AC0182309105AA
:1014900008F408959FEF413E8EE1580740F49A0109
:1014A00095E0369527959A95E1F798E0920F61E0DF
:1014B000E62FE90FFF27FF1F9F0135952795822F04
:1014C000229FF001239FF00DF00D11244E175F07AE
:1014D00038F49FEF920F961758F78FEF860F089505
:1014E0002F3FE9F361E0620FF6CF0F93CF93DF93C5
:1014F000D72FC82F47FD419588E390E0841B9109C1
:1015000047FD9395889FB001899F700D700D112440
:10151000229FC001239F900D900D1124860F971FCD
:101520000E94450A982F990F890F682F600F7D2F11
:101530008C2FDF91CF910F91089530E020E0869FAE
:10154000212D969F200D311D1124C9010895AF92C0
:10155000BF92CF92DF92FF920F931F93CF93DF93AF
:10156000362F472FE82FF0E0E55DFD4F71110FC0DA
:10157000E4918E2F2E2F6E2F722FDF91CF911F911E
:101580000F91FF90DF90CF90BF90AF900895C72F3D
:10159000D0E02491F22E022F10E056E0659FC001AA
:1015A0001124EFEFF0E0BF010E94702D832F90E037
:1015B000880F991F35E5369FD001379FB00D112454
:1015C0008A1B9B0B982F990F980F6F01CC1ADD0A7D
:1015D000C09ED001C19EB00DD09EB00D11248B2FA6
:1015E000499FA0011124452F55276F01C41AD50A20
:1015F000C09EA001C19E500DD09E500D11245F01D0
:10160000A91AB108AC9E6001AD9ED00CBC9ED00C56
:101610001124CD2CDD24EC19FD09E09FE001E19FB0
:10162000D00DF09FD00D1124ED2F62307105A1F087
:1016300050F46115710509F49ECF6130710581F098
:10164000EB2F852F98CF6430710569F080F06630FC
:10165000710509F490CFF4CFE22F2B2F8D2F8BCF74
:10166000E22F252F88CFEB2F822F2D2F84CF2B2FEA
:101670008F2DE52F80CF2F923F925F926F927F92B6
:101680008F929F92AF92BF92CF92DF92EF92FF9292
:101690000F931F93CF93DF93CDB7DEB72A970FB683
:1016A000F894DEBF0FBECDBF8B837E836D83209108
:1016B0002B01220F220F2F832C5F29832A832435AD
:1016C00010F033E53A838091AB068C83FF81EF2FD6
:1016D000F0E0FA87E987CF01880F991F9C01275214
:1016E0003E4F69013B81832F90E0FC013196F887E2
:1016F000EF838A8199859817E8F081E0E981E335E5
:1017000008F080E02A960FB6F894DEBF0FBECDBF7A
:10171000DF91CF911F910F91FF90EF90DF90CF90CD
:10172000BF90AF909F908F907F906F905F903F9011
:101730002F900895E985FA85E158FD4F80819091B9
:101740002C018923F1F02090D9063090DA062F8100
:1017500038852555394F39015B8010E0FC815F16D3
:10176000D0F02091DB06129F112D1124B101812FA1
:101770000E94A70A462F282F672F89859A850E94E5
:10178000350929853A852F5F3F4F3A87298732E00F
:10179000C30ED11CAECFF30181913F01F601A080B1
:1017A000A81ABB088180F3018781881A9908AA9C2E
:1017B0009001AB9C300D300D1124889CC001899C98
:1017C000900D900D1124820F931F0E94450A082F3F
:1017D0006091DC0621E0620F08F46FEFF301EE0F79
:1017E000FF1FEB5AF640858996890E949D0A7C016D
:1017F0009401A501B101812FED81FE8109951B01A5
:101800005394182FABCFCF92DF92EF92FF920F93AA
:101810001F93CF93DF938C01C0912B01CC0FCC0F82
:1018200024E0D22EDC0ECD2C23E52D1510F493E50B
:10183000C92E2091DC0631E0230F08F42FEF30E0B1
:1018400050E040E06FEF7FEF80E090E00E94AD2F2E
:101850007901D0E02C2FCC1570F081E0F2E5FD1578
:1018600008F480E0DF91CF911F910F91FF90EF90EE
:10187000DF90CF900895FE01E158FD4F8081909157
:101880002C01892311F14091AB064150042E000C2C
:10189000550B47FF1CC0C7016091DC0621E0620FB9
:1018A00008F46FEF0E949D0AAC016091D906709117
:1018B000DA068091DB06F80109950E94A70A462FF7
:1018C000282F672FCE010E9435092196C3CFFA0138
:1018D000E555F94F818982130AC0FA01EE0FFF1F07
:1018E000E555F94F818D928D8E159F05A8F24150D7
:1018F0005109CFCFDF92EF92FF920F931F93CF93B7
:10190000DF937C01C0912B01CC0FCC0F14E01C0F96
:10191000012F143508F003E56091DC0666956695A5
:1019200021E0620F08F46FEF8091A7069091A8065E
:101930000E949D0AD82ED0E0C01760F081E01335D8
:1019400008F080E0DF91CF911F910F91FF90EF9011
:10195000DF900895FE01E158FD4F808190912C01A8
:10196000892391F06091D9067091DA068091DB06A7
:101970002D2D4C2FF70109950E94A70A462F282FDD
:10198000672FCE010E9435092196D6CF9F92AF9244
:10199000BF92CF92DF92EF92FF920F931F93CF935C
:1019A000DF936C01C0912B01CC0FCC0F14E01C0F06
:1019B000B12E143510F033E5B32E6091DC06669538
:1019C00066958091A7069091A8060E949D0AF82E20
:1019D00080E48F0D0E94030A90E8A92EA80E8F2D97
:1019E0000E94030A20E8922E980ED0E0CB1580F0DA
:1019F00081E0133508F080E0DF91CF911F910F91C6
:101A0000FF90EF90DF90CF90BF90AF909F900895A0
:101A1000FE01E158FD4F808190912C018923A1F0B6
:101A20006091D9067091DA068091DB06EF2C0C2FBD
:101A3000292D4A2DF60109950E94A70A462F282F25
:101A4000672FCE010E9435092196D0CF7F928F92C9
:101A50009F92AF92BF92CF92DF92EF92FF920F933D
:101A60001F93CF93DF935C01C0912B01CC0FCC0F60
:101A700014E01C0FF12E143510F033E5F32E6091B5
:101A8000DC0666958091A7069091A8060E949D0AA3
:101A9000782ED0E0CF1590F081E0133508F080E08B
:101AA000DF91CF911F910F91FF90EF90DF90CF903A
:101AB000BF90AF909F908F907F900895FE01E15866
:101AC000FD4F808190912C018923C9F1CE01880FAF
:101AD000991F82579E4FFC01E55BFF4F2081422FEB
:101AE0004057550B6A01845B9F4FFC018081282F72
:101AF0002052330B4901449F9001459F300D300D1A
:101B00001124889CC001899C900D900D1124820F96
:101B1000931F0E94450A082F6091D9067091DA063A
:101B20008091DB06E72C9401A601F50109950E943E
:101B3000A70A462F282F672FCE010E94350921962C
:101B4000A9CFCF92DF92EF92FF920F931F93CF9383
:101B5000DF937C01C0912B01CC0FCC0F14E01C0F44
:101B6000D12E143510F033E5D32E6091DC06669546
:101B70008091A7069091A8060E949D0AC82ED0E0E9
:101B8000CD1568F081E0133508F080E0DF91CF914A
:101B90001F910F91FF90EF90DF90CF900895FE017D
:101BA000E158FD4F808190912C01892311F1CE01E4
:101BB000880F991F82579E4FFC01E45BFF4F2081E5
:101BC0002052330B855B9F4FFC0140814057550BE2
:101BD0006091D9067091DA068091DB060C2DF70131
:101BE00009950E94A70A462F282F672FCE010E9431
:101BF00035092196C5CF80E00895F894E82FE29545
:101C0000EF70F0E031A1282F2F7081E090E001C04B
:101C1000880F2A95EAF7982F9095932391A392A184
:101C2000892B82A3789408959091730692FF06C041
:101C3000282F28712830F9F4877F846093FF06C02D
:101C4000282F28712831F1F4877E84612091740651
:101C500020FF06C0382F38713830D9F4877F816073
:101C600021FF06C0282F28712831D1F4877E816199
:101C700094FD877E0895282F24712430F9F68B7FF8
:101C80008860DCCF282F2471243101F78B7E886196
:101C9000DDCF382F3171313019F78E7F8860E0CF7A
:101CA000282F2171213121F78E7E8861E1CFCF93DA
:101CB000DF93EC0182389105A9F1D8F581339105C4
:101CC00009F496C048F58932910509F48AC08A97CB
:101CD00009F495C0C11522E5D20708F0B6C0C115B8
:101CE00031E5D30708F026C1C83ED10508F09CC0F5
:101CF000C03ED10560F5C83AD10508F087C0C53AA5
:101D0000D10508F0EFC0C130D10509F12097F9F0F5
:101D1000C430D105E0F440C08533910509F45AC0C0
:101D2000C997C1F680917306837089F0C0EED0E048
:101D30000EC0833E910599F170F4803E910501F14A
:101D4000823E910539F68091730682FD21C0CE0155
:101D5000DF91CF910895863E910561F1873E91050F
:101D600071F1843E910509F0B5CF8091740681FF31
:101D7000EECF80917306C7EED0E084FD0DC0E7CFB3
:101D80008091730680FD07C19091740690FFDFCFAC
:101D9000C3EED0E084FFDBCFD0E0C0E0D8CF8091AD
:101DA000730682FDFBC09091740690FDBFCF84FF47
:101DB000CECFF2CF8091730683FDDDCFC8CF809167
:101DC000730683FDEEC09091740691FFF0CFC4EED0
:101DD000D0E0BDCF8091730685FFB9CFC9E2D0E0D6
:101DE000B6CF8091730685FFB2CFC5E3D0E0AFCF09
:101DF0008091730686FFABCFCAE2D0E0A8CF809176
:101E0000730686FFA4CFC1E3D0E0A1CFCF3BD105BD
:101E100018F6C85AD0E0CC0FDD1FCB5CDE4F09901E
:101E2000D881C02DD46493CFC11540E5D40708F004
:101E300064C0C11580E4D80708F05CC0CE019A9553
:101E400081159F4108F483CFA7CFC11536E5D3078D
:101E500018F5C11545E5D40708F084C0C11584E51F
:101E6000D80708F07AC09C2F969596959E0123700E
:101E70003327C115D34508F462C0C1E0D0E002C0E9
:101E8000CC0FDD1F2A95E2F730E2939FC0011124A9
:101E9000C82BD92BDA685BCFC1158AE5D80778F44F
:101EA000C11599E5D90708F068C0C11528E5D20722
:101EB00008F472CFDC2FCC27C06FD06A48CFCE0198
:101EC00090568115904208F067CF8D2F8F710E9438
:101ED000140E90E0982F882788279F719C012C2B47
:101EE000E90149C0C55AD0E0CE5CDE4FC881D0E0E0
:101EF000D0642DCFDF70D06A2ACFCE01E4E0969572
:101F00008795EA95E1F783702C2F26952695237007
:101F100040E2249F90011124382B8C2F8370C1E064
:101F2000D0E002C0CC0FDD1F8A95E2F7C22BD32B85
:101F3000DC680DCFDC2FCC27C16FD06A08CFC1E0A1
:101F4000D0E002C0CC0FDD1F2A95E2F720E2929F7D
:101F5000C0011124C82BD92BEBCFDC2FCC27C46FA9
:101F6000D06AF5CE8C2F0E94140EC82FD0E0DC2F43
:101F7000CC27CC27DF71D062EACE8C2F8F700E94E5
:101F8000140E34E0D695C7953A95E1F7CF709C2FA3
:101F9000EC01D069DCCEC9E3D0E0D9CEC2EED0E00E
:101FA000D6CEC6EED0E0D3CE8091530381111092ED
:101FB000530308958091520390915103892B90917E
:101FC0005003892B8093D802909153039923A1F059
:101FD000892B8093D80280911601882341F180914A
:101FE000730687FF24C08EE1EAEDF2E090E08150B5
:101FF00000F591110E94D40FE0916A06F0916B06F2
:102000003097E1F080911601882359F08091730692
:1020100087FF07C08091D8028093D90285E0809322
:10202000D8020280F381E02D88ED92E0099486E0E9
:10203000DBCF21912223D9F29F5FD9CF08958091E0
:102040004E0390911D03981301C008958F5F877010
:10205000FACF2FE0929F800D1124982F97708695CC
:102060008695869523E0829FF0011124E750FD4F6D
:1020700050E040E080E0219130E0092E02C036952A
:1020800027950A94E2F721703327042E01C0220F0E
:102090000A94EAF7822B4F5F5F4F4330510559F79F
:1020A00008952FE0929F800D1124982F977041E0A2
:1020B00001C0440F9A95EAF786958695869593E038
:1020C000899FF0011124E750FD4F90E080E070E01F
:1020D0005191DF0111979B01082E02C0369527957B
:1020E0000A94E2F7217021952527242325272C9394
:1020F00001968330910561F7089590E080E00E9499
:10210000280690E080E00E9412061092510310927F
:1021100050030C94DA0F8093DE060C947D108091AE
:10212000DE06982F9670963019F488600C948B1008
:10213000877FFCCF21E030E001C0220F8A95EAF7CB
:1021400020958091DE0682230C948B1090914F0392
:102150008095892380934F03282F277039F4282FE7
:10216000082E000C330B9217130621F4909174067D
:1021700092FF07C08595859585950E949A101092CB
:102180004F03089521E030E001C0220F8A95EAF75D
:102190008091DE06822B0C948B10809354030C9458
:1021A0007D10882341F0809590915203892380937C
:1021B00052030C94DA0F0895882339F0909152035A
:1021C000982B909352030C94DA0F0895882379F199
:1021D0009CEF980F913A38F4682F88ED92E00E94B6
:1021E000B3050C94DA0F90E2980F983088F487705A
:1021F00021E030E0A90102C0440F551F8A95E2F7A3
:10220000CA01809590915203892380935203E9CFAC
:102210009BE5980F933020F490E080E00C94280622
:10222000885A873120F490E080E00C9412060895DB
:10223000CF93C82F882309F467C08CEF8C0F813AA5
:10224000C0F580911601882311F18091730687FFF4
:102250001EC0EC2FE695E695E695F0E0E852FD4FBE
:10226000828190E04C2F477021E030E002C0220FC5
:10227000331F4A95E2F782239323892B91F06C2F29
:1022800088ED92E00E94B3050E94DA0F0AC0EAEDE1
:10229000F2E080EE92E02191C21789F38E179F073A
:1022A000D1F76C2F88ED92E00E94DD05CF910C9460
:1022B000DA0F80E28C0F883068F4C77021E030E0DC
:1022C00001C0220FCA95EAF780915203822B8093B6
:1022D0005203ECCFEBE5EC0FE33040F4F0E0EE5CC2
:1022E000FE4F808190E0CF910C942806C85AC731E8
:1022F00058F4EC2FF0E0EE0FFF1FEB5CFE4F8081F7
:102300009181CF910C941206CF910895E7E1F1E00D
:102310008083618324E630E042E050E0BF0180E644
:102320000C94492D90919D06943029F58093750663
:1023300070937706609376069093E9008FEF909103
:10234000E800815095FD06C095ED9A95F1F70000E3
:102350008111F5CF8091E80085FF0DC050E040E08D
:1023600063E070E085E796E00E9475048091E800E4
:102370008E778093E8000895BC0184E00C9492115C
:10238000BC0183E00C949211CF93DF93EC01809118
:1023900016018823B1F18091730687FF32C060E295
:1023A00084E08093E9008FEF9091E800815095FDE3
:1023B00006C095ED9A95F1F700008111F5CF809157
:1023C000E80085FF1BC08091160170E050E040E0FE
:1023D000811104C050E040E068E070E0CE010E944E
:1023E00075048091E8008E778093E80080E2FE011A
:1023F000ABE7B6E001900D928A95E1F7DF91CF91BE
:10240000089568E081E0CDCF81E08093E00080E234
:102410008093D8001092C9008FE19EE40197F1F7F4
:1024200000C0000087E090EBDC018093DF06909312
:10243000E006A093E106B093E20688E19CE00FB6C7
:10244000F894A895809360000FBE90936000FFCF32
:102450001F93CF93DF93182FD0E0C0E0893311F49E
:10246000C0E5D0E0812F0E941811209731F4812F10
:10247000DF91CF911F910C94E6108FE99FE00197B7
:10248000F1F700C000002197F0CFCF93DF93C0E8B1
:10249000D2E060E0CE010E94892F2196C11584E030
:1024A000D807B9F7DF91CF9108956F927F928F92FD
:1024B0009F92AF92BF92CF92DF92EF92FF920F93D3
:1024C0001F93CF93DF9387E7C82E84E0D82E9CED2F
:1024D000E92EF12CE701C659D10936011BC0F501DF
:1024E00085909490692DC8010E94892F682DC8019C
:1024F00001960E94892F82E0A80EB11C0E5F1F4F2B
:10250000C017D10761F78EE1680E711C6E96CE156B
:10251000DF0529F08E010E5111095301E0CF7E0134
:1025200086E9E80EF11C86E9C80ED11C84E3E816A2
:1025300083E0F80679F6DF91CF911F910F91FF901C
:10254000EF90DF90CF90BF90AF909F908F907F9053
:102550006F900895CF93C82F6FEF811161E283E2EE
:1025600090E00E94892F6FEFC11169E084E290E052
:102570000E94892F6FEFC11166E185E290E0CF9153
:102580000C94892F80E00E94AA1260E087E290E01C
:102590000E94892F60E086E290E00E94892F0E94CD
:1025A00055120E94451281E00C94AA12CF93C0915B
:1025B0007406C2FB992790F9981781F080FBC2F945
:1025C000C09374066091730684E090E00E94892FA6
:1025D0006C2F82E290E0CF910C94892FCF910895D7
:1025E0000F931F93CF93DF93C42FD0E0CC0FDD1F49
:1025F0002EE1629FC00DD11D112436E9839FC00DCD
:10260000D11D1124CE0188960E946B2F082F10E057
:10261000102F0027CE0189960E946B2F9801282B3E
:10262000C901DF91CF911F910F910895462F8430FA
:1026300038F4753028F46F3018F4672F0C94F012CA
:1026400090E080E00895CF92DF92FF920F931F9366
:10265000CF93DF936C010091DE0680915403082B29
:10266000C7E0D0E010E0FC2EC8010C2E02C095950A
:1026700087950A94E2F780FD0CC02197A0F7F12C12
:102680008F2DDF91CF911F910F91FF90DF90CF9011
:102690000895B6018C2F0E9416130E94570E0197C1
:1026A00061F3EECFCF93DF93EC010E942313BE01C1
:1026B0000E941613DF91CF910C94570EFC0180817C
:1026C00091810E945213292F2F7092959F709250E2
:1026D0009E3078F4E92FF0E0EE5EFF4C0C94982DDC
:1026E000803F19F020F4883E20F481E00895843F73
:1026F000E1F380E00895883EC0F3813FD1F7F5CF44
:10270000822F869586958695089583E290E00E94B3
:102710006B2F813289F484E290E00E946B2F893024
:1027200059F485E290E00E946B2F91E0863109F028
:1027300090E0892F8170089580E0FCCFCF9384E0F2
:1027400090E00E946B2FC82F82E290E00E946B2FD6
:10275000982F8C2FCF9108950F931F93CF93DF93D2
:1027600080910805882309F441C065EC8EEF0E9432
:10277000861160E08DEF0E948611D0E0C0E004EB8E
:1027800010E0CE01B8010E94842D8093170182E1F0
:10279000FE01E75FFA4FA8E1B1E001900D928A9542
:1027A000E1F724E630E043E150E067E171E080E6E4
:1027B0000E94492D892BD1F46296C63581E0D80755
:1027C000E1F482EA8093170189E0EFE5F6E0A8E101
:1027D000B1E001900D928A95E1F724E630E04AE0FD
:1027E00050E067E171E080E60E94492D10920805F3
:1027F000DF91CF911F910F910895C43BD10509F648
:1028000065EC8EEF0E94861161E08DEF0E948611CB
:10281000B8CFCF92DF92EF92FF920F931F93CF9397
:10282000DF930E949A2C65EC8EEF0E94861164E083
:102830008DEF0E94861161E080E00E9486116FEFAB
:1028400081E00E94861167E782E00E9486118FE393
:102850009CE90197F1F700C00000B0E0A0E0CFE5EF
:10286000D1E0FF24FA94EE24E394FD01EE0FFF1F64
:10287000EE0FFF1FCF01855D9C4F6C019C012F5F08
:102880003F4FF9018591682F62956F709491292FC0
:102890002295207F422F462B92959F70592F53707F
:1028A00096012E5F3F4FF9019491929596959695DA
:1028B00093702F5F3F4FF9012491322F330F330F65
:1028C000032F092B122F1295169516951370F601EA
:1028D0009491292F237030E096959695E82FE295F4
:1028E000EE0FEE0FE07C6E2F692B86958695782F84
:1028F00073702C9FC0012D9F900D3C9F900D112453
:1029000088559C4F680F791FFB01F082480F591FB3
:10291000FA01F082800F911FFC01F082295F3A4F8B
:10292000F901E0821196A335B10509F09ECF65EC5F
:102930008EEF0E94861162E08DEF0E94861108EAF8
:1029400013E0C0E0F80161918F018C2F0E94861185
:10295000CF5FC43BB9F765EC8EEF0E94861163E050
:102960008DEF0E9486110CE514E0C0E0F801619142
:102970008F018C2F0E948611CF5FCB3AB9F710924E
:102980000705DF91CF911F910F91FF90EF90DF909E
:10299000CF9008951F93CF93DF93EC01FC01E15892
:1029A000FD4F80816823C9F00E940D2E182F0E94D0
:1029B0000D2E8F77782F20E8720F08F47FEF612FAC
:1029C0008091DB060E94A70A462F282F672FCE0191
:1029D000DF91CF911F910C943509DF91CF911F9119
:1029E0000895DF92EF92FF920F931F93CF93DF939F
:1029F0008C01FC01E158FD4F8081682381F1D0906A
:102A0000DA06D091DB06C091D906EC2EF12C0E949B
:102A10000D2E282FC7018C549F4F68E671E00E944D
:102A2000842D8E199F0997FD039695958795959509
:102A3000879523706C2F289F600D11247D2D8D2F7D
:102A40000E94A70A462F282F672FC801DF91CF9138
:102A50001F910F91FF90EF90DF900C943509DF915B
:102A6000CF911F910F91FF90EF90DF9008959F926B
:102A7000AF92BF92CF92DF92EF92FF920F931F938C
:102A8000CF93DF93182F80911501811323C090916C
:102A9000D80693702091140130E081E0921713065C
:102AA00009F480E0817080932D018091DD06909182
:102AB0002C01981739F080932C0140E060E080E011
:102AC0000E943309183260F4E12FF0E0E05EFF4C21
:102AD0000C94982D81E0E6CF80912D01811102C0E8
:102AE000C0E08DC140E060E080E00E943309F8CF93
:102AF000C0912B01CC0FCC0F04E00C0FF02E04354D
:102B000010F0A3E5FA2E6091D9067091DA06809153
:102B1000DB060E94A70AE62ED72EC82ED0E0CF15DE
:102B200028F0C1E0033508F46AC1DACFFE01E158AC
:102B3000FD4F808190912C01892331F02C2D4E2D59
:102B40006D2DCE010E9435092196E9CFC0912B0150
:102B5000CC0FCC0F04E00C0FF02E043510F0F3E591
:102B6000FF2ED090DA06E090DB06D091D9066D2FCB
:102B70007D2D8E2D0E94A70AC62EB72EA82E6091FD
:102B8000DC066D0F7D2D8E2D0E94A70AE62ED72E16
:102B9000982ED0E0CF1528F6FE01E158FD4F908128
:102BA00080912C01892359F0292D4E2D6D2D90FDFA
:102BB00003C02A2D4C2D6B2DCE010E943509219684
:102BC000E9CFC0912B01CC0FCC0F04E00C0FE02E0D
:102BD000043510F0E3E5EE2ED090DA06C090DB0667
:102BE0002091DC0670E4F72E3F2D329F312D112409
:102BF000F32ED0E0CE1508F094CFFE01E158FD4F42
:102C0000808190912C018923B9F0FE01EE0FFF1F06
:102C1000E652FE4F808182958F706091D9068F9D1C
:102C2000600D11247D2D8C2D0E94A70A462F282F80
:102C3000672FCE010E9435092196DCCFC0912B0170
:102C4000CC0FCC0F04E00C0FE02E043510F053E550
:102C5000E52ED090DA06C090DB062091DC0640E439
:102C6000F42E3F2D329F312D1124F32ED0E0CE15BE
:102C700008F057CFFE01E158FD4F808190912C0163
:102C80008923D9F0FE01EE0FFF1FE752FE4F60814E
:102C9000F69EB001112435E0759567953A95E1F7F8
:102CA0008091D906680F7D2D8C2D0E94A70A462F92
:102CB000282F672FCE010E9435092196D8CFC091C9
:102CC0002B01CC0FCC0F04E00C0FF02E043510F0CC
:102CD00093E5F92EE090D906D091DA06D090DB0684
:102CE0006091DC066695669566958091A706909141
:102CF000A8060E949D0A0E94030A805887FD8195BC
:102D0000880F282F3D2D239F212D1124822F6E2DDA
:102D10007D2F0E94A70AE62ED72EC82ED0E0CF1511
:102D200008F0FFCEFE01E158FD4F808190912C010B
:102D3000892331F02C2D4E2D6D2DCE010E943509A9
:102D40002196EDCF8AE099E00E947A0C07C080EED0
:102D500098E0FACF85EE99E00E94A10DC82F4FC0F0
:102D600086EC99E0F9CF8BEA99E00E94260DF6CF28
:102D70008FE899E0FACF8EED98E0E6CF85ED98E008
:102D8000E3CF8CEC98E0E0CF83EB98E0DDCF85EAF1
:102D900098E0EBCF85E79AE0DFCF8EE799E0DCCFD4
:102DA0008AE699E0E2CF88E798E00E94C60CD6CF89
:102DB0008AE498E0FACF83E198E0F7CFC0912D0143
:102DC000C1113CC06091DC0620E1620F08F46FEF96
:102DD0008091A7069091A8060E949D0A6AE070E083
:102DE0000E94702D892B09F07BCE0E940D2E63E589
:102DF00070E00E94842D60912C010E94F11480915A
:102E00002B018F5F80932B01C1110CC082E0809356
:102E10002E0180912D01811105C0111103C083E0A5
:102E200080932E01DF91CF911F910F91FF90EF9032
:102E3000DF90CF90BF90AF909F900895C0912B01ED
:102E4000CC0FCC0F04E00C0F802F043508F083E585
:102E5000D0E0E82EF12CCE15DF050CF062CE6091AB
:102E60002C01CE010E94F1142196F5CFC0912D01C5
:102E7000C1111EC06091DC0620E1620F08F46FEF03
:102E80008091A7069091A8060E949D0A65E070E0D7
:102E90000E94702D892B09F023CE0E940D2E63E530
:102EA00070E00E94842D60912C010E94CA14A7CF6B
:102EB000C0912B01CC0FCC0F04E00C0F802F0435F8
:102EC00008F083E5D0E0E82EF12CCE15DF050CF0FC
:102ED00028CE60912C01CE010E94CA142196F5CF14
:102EE000C0912B01CC0FCC0F04E00C0FF02E043559
:102EF00010F083E5F82ED090DA06E090DB06D09152
:102F0000D9066091DC066695669566958091A70660
:102F10009091A8060E949D0A0E94030A805887FD8E
:102F20008195880F682F2CE0629F612D11246D0F11
:102F30007D2D8E2D0E94A70AE62ED72EC82ED0E01A
:102F4000CF1508F0EECDFE01E158FD4F8081909144
:102F50002C01892331F02C2D4E2D6D2DCE010E9498
:102F600035092196EDCF82E29AE0EECE82E098E03C
:102F7000EBCE8BEF97E00E94030CF0CE85EF97E04D
:102F8000FACF8091AB0621E0382F321B08F430E0F5
:102F9000832F6CED77E00E943B0BE0CE6CED77E089
:102FA00080E0F9CF8091AB0621E0382F321B08F486
:102FB00030E0832F61EA77E0EECF61EA77E0F0CF8F
:102FC0008091AB0621E0382F321B08F430E0832FCC
:102FD0006FE677E0E0CF6FE677E0E2CF8091AB0677
:102FE00021E0382F321B08F430E0832F67E577E0CB
:102FF000D2CF67E577E0D4CF8091AB0621E0382FC0
:10300000321B08F430E0832F61E477E0C4CF61E441
:1030100077E0C6CFE8EDF6E081E3808380912F0171
:1030200090913001A091310181839283A3838FE736
:1030300084838FEF858346E050E06CE170E0CF0140
:103040000C94792F90E080E00E94732F893E9E4F70
:1030500011F40C94851380E0089569EE7EEF90E002
:1030600080E00E94A72F60E082E090E00E94892F1C
:1030700060E083E090E00E94892F1092540360E0AA
:1030800084E090E00E94892F60E082E290E00E945C
:10309000892F60E085E090E00E94892F60E086E063
:1030A00090E00E94892F6FEF87E090E00E94892FC7
:1030B00040E050E0BA0188E090E00E949B2F60E081
:1030C0008DE090E00E94892F40E050E0BA0188E155
:1030D00090E00E949B2F60E087E190E00E94892FA2
:1030E00040E050E0BA018CE190E00E949B2F70E03C
:1030F00060E080E290E00E94A72F40E050E0BA013B
:1031000088E190E00E949B2F80E00E94AA120E941A
:10311000C21240E050E0BA018FE090E00E949B2F85
:1031200040E050E0BA0183E190E00C949B2F1092B4
:10313000520380911601EAEDF2E0882359F0809164
:10314000730687FF07C08EE1DF011D928A95E9F7BC
:103150000C947D1086E0F8CF1F93CF93DF93CDB70B
:10316000DEB7AA970FB6F894DEBF0FBECDBF8FE9CA
:1031700096E02091F100DC012D93CD01B6E0873A75
:103180009B07B9F78091A006833009F471C0B8F4A9
:10319000813009F448C0823009F4B2C08091E8005F
:1031A00083FF88C280919F069091A0069A3008F014
:1031B00081C2E92FF0E0E85BFF4C0C94982D8A3037
:1031C00009F48DC08B3009F470C0893039F78091D3
:1031D0009F06813219F78091A3069091A40600976B
:1031E00011F00297D9F68091E800877F8093E8007C
:1031F0008091E80082FF37C09091F3008091F20047
:10320000029729F48091F1008B7F813021F4809125
:10321000F10080937A068091E8008B778093E80034
:103220000E949F04BBCF80919F06813A09F0B6CFE0
:103230008091E800877F8093E8008091A3069091B9
:10324000A406892B61F460E28BE796E070E00E94AF
:1032500051058091E8008B778093E8009FCF60E074
:1032600090E080E0F3CF80919D068111C1CF96CF91
:1032700080919F06813A09F091CF8091A3069091A9
:10328000A406892B09F08ACF8091E800877F80937C
:10329000E8008091E80080FFFCCF809116018093C8
:1032A000F1008091E8008E77B9CF80919F0681323E
:1032B00009F074CF8091A3069091A406892B09F0A0
:1032C0006DCF8091E800877F8093E8000E949F0483
:1032D0008091A106809316010E9497185FCF80917C
:1032E0009F06813209F05ACF8091E800877F809352
:1032F000E8000E949F048091A206809379064ECF39
:1033000080919F06813A09F049CF8091E800877F3C
:103310008093E8008091E80080FFFCCF80917906DF
:10332000BECF803899F0823809F0C4C18091A306DD
:103330008F70873008F0BEC18093E9008091EB0068
:1033400085FB882780F91092E90006C080919B06D2
:1033500090919C06911182609091E800977F9093E4
:10336000E8008093F1001092F1008091E8008E77E0
:103370009DC1882309F48BC1823009F09BC18091E3
:10338000A10681118EC18091A3068F702FEF280FA7
:10339000263008F08FC18093E9002091EB0020FFD8
:1033A00080C1933031F48091EB0080628093EB0018
:1033B00078C19091EB0090619093EB0021E030E0B8
:1033C00001C0220F8A95EAF72093EA001092EA00E2
:1033D0008091EB008860EACF81116CC11091A10649
:1033E0001F778091E3008078812B8093E3008091A8
:1033F000E800877F8093E8000E949F048091E800A6
:1034000080FFFCCF8091E30080688093E30082E03E
:10341000111183E080939D064DC18058823008F0E1
:1034200049C12091A1063091A2062C3DE3E03E0760
:10343000A1F583E08A838AE289834FB7F894DE019D
:10344000139620E03EE051E2E32FF0E05093570066
:10345000E49120FF03C0E295EF703F5FEF708E2F85
:1034600090E0EA30C0F0C7968D939D932F5F243192
:1034700059F74FBF8091E800877F8093E8006AE2A8
:1034800070E0CE0101960E9451058091E8008B7793
:103490008093E8000FC1C096E7CF8091A30690917A
:1034A000A406432F55274330510509F44AC078F547
:1034B0004130510509F47AC08BE590E0EFECF6E07D
:1034C0004230510509F0F6C02091E800277F209393
:1034D000E8002091A5063091A6068217930708F40C
:1034E0009C0140E02115310509F065C0411163C020
:1034F0008091E80082FDC9CF80919D06882329F242
:10350000853019F28091E80083FFF2CFBECF4132BF
:10351000510509F43CC04232510509F0CBC083305B
:10352000910508F0C7C0FC01EE0FFF1FEE57FE4FDC
:103530000190F081E02D81589E4FDC018C9190E04C
:103540001AC0332721303105D1F02115310561F042
:103550002230310509F0AEC0ECE3F7E0E4918E2FA4
:1035600090E0ECE3F7E007C0E4E6F7E0E4918E2FAB
:1035700090E0E4E6F7E0009709F49CC0A5CFE2E50F
:10358000F7E0E4918E2F90E0E2E5F7E0F4CF8330AE
:10359000910508F08FC0880F991FFC01E857FE4F76
:1035A0000190F081E02D89E090E08ECF82E190E003
:1035B000EAE2F7E089CF80919D06882309F465CF80
:1035C000853009F462CF8091E80083FD5ECF809161
:1035D000E80082FD8DCF8091E80080FF83CF90913D
:1035E000F3008091F2002115310519F08830910522
:1035F00050F041E0089709F040E08091E8008E77B4
:103600008093E8006FCF44914093F10031962150B0
:1036100031090196E8CF803809F04CC08091E8006C
:10362000877F8093E80080919E068093F1009DCE75
:10363000811140C01091A1061230E0F58091E800A0
:10364000877F8093E80010939E060E949F041123B9
:1036500011F084E005C08091E30087FDFACF81E09E
:1036600080939D0642E061EC81E00E94BE0442E24C
:1036700061EC84E00E94BE0442E261EC82E00E94C0
:10368000BE0442E260EC83E00E94BE0413C080915D
:10369000A106813079F481E0933009F080E08093D5
:1036A0009C061092E9008091E800877F8093E800F3
:1036B0000E949F048091E80083FF0AC08091E80087
:1036C000877F8093E8008091EB0080628093EB001D
:1036D000AA960FB6F894DEBF0FBECDBFDF91CF9193
:1036E0001F9108951F920F920FB60F9211242F93DE
:1036F0003F934F935F936F937F938F939F93AF937A
:10370000BF93CF93DF93EF93FF93D091E900DF70E6
:103710008091EC00C82FC17080FDC0E81092E900D4
:103720008091F000877F8093F00078940E94AC181D
:103730001092E9008091F00088608093F000CD2B1A
:10374000CF70C093E900FF91EF91DF91CF91BF91CE
:10375000AF919F918F917F916F915F914F913F9129
:103760002F910F900FBE0F901F9018951F920F92E0
:103770000FB60F9211242F933F934F935F936F9344
:103780007F938F939F93AF93BF93EF93FF9380911A
:10379000E10082FF09C08091E20082FF05C08091B4
:1037A000E1008B7F8093E1008091DA0080FF24C0EC
:1037B0008091D80080FF20C08091DA008E7F8093B6
:1037C000DA008091D90080FF9BC080E189BD82E151
:1037D00089BD09B400FEFDCF81E080939D068091F4
:1037E0007806811109C00E9425040E94F00480918E
:1037F000E20084608093E2008091E10080FF17C0C6
:103800008091E20080FF13C08091E2008E7F809360
:10381000E2008091E20080618093E2008091D80014
:1038200080628093D80019BC85E080939D068091CA
:10383000E10084FF29C08091E20084FF25C080E17F
:1038400089BD82E189BD89B5982F917080FFFBCF3A
:103850008091D8008F7D8093D8008091E1008F7E89
:103860008093E1008091E2008F7E8093E20080915E
:10387000E20081608093E20080919E06882309F433
:1038800045C084E080939D068091E10083FF27C0BE
:103890008091E20083FF23C08091E100877F8093C5
:1038A000E10082E080939D0610929E068091E100E7
:1038B0008E7F8093E1008091E2008E7F8093E20012
:1038C0008091E20080618093E20042E060E080E06D
:1038D0000E94BE048091F00088608093F000FF9108
:1038E000EF91BF91AF919F918F917F916F915F9178
:1038F0004F913F912F910F900FBE0F901F901895F1
:1039000019BC10929D061092780676CF8091E30044
:1039100087FD93E090939D06B7CF78941F921FB6D2
:103920001F9211248F939F93AF93BF9380916F0643
:1039300090917006A0917106B09172060196A11D3A
:10394000B11D80936F0690937006A0937106B0939B
:103950007206BF91AF919F918F911F901FBE1F90D4
:1039600018959C014FB7F89480916F06909170065E
:10397000A0917106B09172064FBF821B930B089500
:103980002FB7F89480916F0690917006A091710600
:10399000B09172062FBF08950F931F93CF93DF93BB
:1039A000C62FD42F022FFC0182818823A1F06093BF
:1039B000D6060E94C01C9093D5068093D406C7708B
:1039C00081E001C0880FCA95EAF7DF91CF911F917E
:1039D0000F910C94DC108091D606681335C080914D
:1039E000D4069091D5060E94B11C883C910560F5E3
:1039F00010E21D0FCD17B9F080E28C0F883040F433
:103A0000C77081E001C0880FCA95EAF70E94D11003
:103A1000183048F481E09D2F977001C0880F9A9567
:103A2000EAF70E94DC10802F0E942812183098F4C8
:103A3000D77081E001C0880FDA95EAF7DF91CF9166
:103A40001F910F910C94D110C77081E001C0880FB5
:103A5000CA95EAF7F3CFDF91CF911F910F910895A7
:103A60003F924F925F926F927F928F929F92AF920E
:103A7000BF92CF92DF92EF92FF920F931F93CF935B
:103A8000DF9300D000D00F92CDB7DEB78C01FC01E0
:103A900083819481892B31F08081918189238F3FAB
:103AA00009F04FC50F900F900F900F900F90DF917E
:103AB000CF911F910F91FF90EF90DF90CF90BF902B
:103AC000AF909F908F907F906F905F904F903F90BE
:103AD00008950E942313F82E682F89819A810E94ED
:103AE000511069817A818F2D0E9416137C01F80193
:103AF0008281882309F4EBC4970122513F4520318C
:103B0000310508F011C58FEF93E00E946B2FFEEE98
:103B1000EF0E50E8852E52E0952E882381F180919A
:103B20004F03877009F4BECFF8018281882309F41E
:103B3000B9CF82E00F900F900F900F900F90DF9110
:103B4000CF911F910F91FF90EF90DF90CF90BF909A
:103B5000AF909F908F907F906F905F904F903F902D
:103B60000C94A610811424E09206C9F2C4010E94AC
:103B70006B2F811101C0EA943FEF831A930AE11081
:103B8000F1CF1C821B82442443944AE0342E7401FA
:103B90008FEFE81AF80AC4010E946B2F89831A82FA
:103BA000882309F4BCCF9FEF980F933000F58A83E8
:103BB000498292E0890E911CC7010E946B2F8B8372
:103BC000882309F4ACCFFE0131967F01F7012081F3
:103BD0002223E9F2213009F049C09181828191309C
:103BE00041F4F2E0EF0EF11C0E94281209C04701D7
:103BF000EACF923049F422E0E20EF11C0E94181143
:103C00003FEFE31AF30AE2CF933031F432E0E30EF0
:103C1000F11C0E94E610F4CF943021F08FEFE81AE7
:103C2000F80AEECF92E0E90EF11C30E020E0B70197
:103C30006F5F7F4FF70141818053990B8A30910567
:103C400050F021503109E0F28FE99FE00197F1F740
:103C500000C00000F6CF329EF001339EF00D11241B
:103C60009C012E0F3F1F842F7B01E1CFE22FF0E05C
:103C7000E555FE4F5490822F86958695869590E067
:103C8000FC01E556FE4F64902770712C022E02C095
:103C9000759467940A94E2F7E1E06E227724FC01C0
:103CA000E557FE4FA490B12C022E02C0B594A79404
:103CB0000A94E2F7F1E0AF22BB24FC01E558FE4F85
:103CC000C490D12C02C0D594C7942A95E2F721E084
:103CD000C222DD246114710419F081EE0E941811D2
:103CE000A114B10419F086EE0E941811852D0E94CE
:103CF0002812AB2819F086EE0E94E610672819F00A
:103D000081EE0E94E610CD2809F47ACF8CE26CCFC8
:103D100081E00E94C2100E948F1001CF81E00E94BA
:103D20009A10F9CF82E0FBCF95EFE9169CE5F906F2
:103D300009F469C008F463C027E245EE66EEF6EFC9
:103D4000EF16FCE5FF0609F4EBC3882309F40AC467
:103D50001092D60622E0E2162CE5F20608F44CC1D9
:103D600036E1E3163CE5F30630F0C7018A5F9C4577
:103D7000099708F041C10E949E13909374068093A6
:103D8000730680E1E8168CE5F80609F404C108F032
:103D900083C0E8E0EE16ECE5FE0609F4EEC008F09C
:103DA0004FC024E0E2162CE5F20609F4DEC090F5DF
:103DB00082E0E8168CE5F80609F4D1C0809173061C
:103DC000826093E0E9169CE5F90609F4CBC06091A6
:103DD0007306F090740684E090E00E94892F6F2DA6
:103DE00082E290E00E94892F0E94971898CE27E2E5
:103DF00045EE65EE95C326E241EE60EE91C327E203
:103E000045EE64EE8DC326E241EE62EE89C328E200
:103E100041E0EFCF809173068061E6E0EE16ECE5BD
:103E2000FE0609F49FC0809173068860F7E0EF16E4
:103E3000FCE5FF0608F496C080917306806292C08C
:103E4000809173068D7F2CE0E2162CE5F20609F4D2
:103E500089C060F48AE0E8168CE5F80609F497C09A
:103E600008F48FC0809173068E7F7CC080917306AA
:103E7000877FEEE0EE16ECE5FE0609F473C0809154
:103E800073068B7FFFE0EF16FCE5FF0608F46AC0BF
:103E9000809173068F7E66C02BEFE2162CE5F2064A
:103EA00009F467C068F583E1E8168CE5F80609F4C3
:103EB0007AC090F4E1E1EE16ECE5FE0609F46FC07D
:103EC000F2E1EF16FCE5FF0609F081CF0E9497189A
:103ED000809173068F7746C025E1E2162CE5F20645
:103EE00009F469C008F47DC08AEFE8168CE5F8068D
:103EF00009F06DCF8091740681608093740667CF5E
:103F00009FEFE9169CE5F90609F451C0A0F48091F1
:103F100074068D7FFDEFEF16FCE5FF0671F38091CF
:103F200074068E7F2EEFE2162CE5F20630F38091B8
:103F300074068360E2CF31E0E3163DE5F30609F451
:103F400059C008F444C060E092E0E9169DE5F90626
:103F500009F03DCF8EE090E00E94892F38CF80910C
:103F6000730681608093730632CF809173068460FC
:103F7000F9CF809174068260C0CF8091730680640F
:103F8000F1CF0E949718809173068068EBCF8091E3
:103F900073068C60E7CF809173068F7DE3CF8091AD
:103FA00073068F7BDFCF80917306837FDBCF809199
:103FB00074068C7FA2CF8091730682FB992790F9BB
:103FC00021E0922790FB82F990FB83F9CBCF80917F
:103FD0007406982F909591708E7F892B90FB81F9B4
:103FE0008CCF0E94971890917306892F97FB87F9C1
:103FF0008058B8CF61E0AECF80915203E6E1EE1673
:10400000ECE5FE0609F0BDC28A7A91E009F490E081
:104010009093F80269E2811165E388ED92E00E94D5
:10402000DD050E94DA0F7BCD8091D80691E08927CB
:104030008093D80610922E019093D70670CD4EE251
:1040400057E067E377E00E944A0669CD47E357E00F
:104050006EE277E0F8CF4CE157E065E277E0F3CF2E
:1040600045E257E06CE177E0EECF44E057E060E1F5
:1040700077E0E9CF40E157E064E077E0E4CF48EF54
:1040800056E06CEE76E0DFCF44ED56E060EE76E091
:10409000DACF40EE56E064ED76E0D5CF81E00E94C5
:1040A000FD033DCD8DE0FBCF9BE5E9169DE5F906CF
:1040B00011F1ECE5EE16EDE5FE0609F094C28091F3
:1040C000740682FB882780F991E089270E94D61226
:1040D0008AC20E949718FFEF24E33CE0F150204091
:1040E0003040E1F700C000000E9404120E942D1829
:1040F00016CD81E0EBCF80E0E9CFC7010E94291007
:10410000D82E80C22F2D2F70C22E8F2D807F19F0B8
:10411000C29490EFC922DD20C9F0CC2069F080E282
:104120008E0D883010F081100BC080915203C82A88
:10413000C09252030E94DA0F8E2D0E94181119C0EE
:1041400080915103C82AC0925103F4CF8E2D0E9452
:10415000E610CC2071F0C09480E28E0D883010F013
:1041600081103DC080915203C822C09252030E9428
:10417000DA0F292D2850330B2430310510F40E941A
:104180003E06AA2009F48ECC80914F0380FD8ACC94
:10419000F80112828595859585950E94C210C80107
:1041A0000E94301D80914F038595859585950F90D0
:1041B0000F900F900F900F90DF91CF911F910F9163
:1041C000FF90EF90DF90CF90BF90AF909F908F9037
:1041D0007F906F905F904F903F900C949A108091D9
:1041E0005103C822C0925103C2CF3F2D3F70B32E5E
:1041F0008F2D807F803219F0B29480EFB822882012
:1042000071F081E0881681F1DD20D9F1CC2091F1A7
:10421000F801858180FF90CF8F7085832BC0DD20D2
:10422000B1F090915303892F8B29C11003C00E94D4
:10423000DC109FCFE1E0CE12FACF2091740622FD70
:1042400098CF981709F495CF8093530392CFC1105C
:1042500006C00E94D40F8B2D0E94D1108ACFF1E0AE
:10426000CF1609F486CFF5CFDD2031F025E02C15EF
:1042700008F47FCF8B2DDBCF34E03C1508F479CFE9
:10428000EACFCC2041F3F9E38F1209C02FEF37EECC
:1042900083E0215030408040E1F700C000008E2DC7
:1042A0000E94E61066CF8F2D86958695837061F00B
:1042B000813009F05ECFC7019370D11002C090E049
:1042C00080E00E94120655CFC7019370D11002C042
:1042D00090E080E00E9428064CCF8F2D837091F5EE
:1042E000D11047CF4E2D429546954770440F440F4D
:1042F0008E2D8F70042E01C0880F0A94EAF72E2DA0
:104300002071E4FE07C02FE030E001C0220F4A9583
:10431000EAF720953F2D369536953370323069F0A7
:1043200050F440915403313029F0822B84230E94B1
:10433000CD101FCF842B822BFACF282B80915403D2
:104340008227F5CF8695DD2011F08F2D817088238F
:1043500009F40FCF4E2D429546954770440F440FF8
:104360008E2D8F70042E01C0880F0A94EAF72E2D2F
:104370002071E4FE07C02FE030E001C0220F4A9513
:10438000EAF720953F2D369536953370323069F037
:1043900050F44091DE06313029F0822B84230E94B4
:1043A0008B10E7CE842B822BFACF282B8091DE0650
:1043B0008227F5CF9F2D9F70F92EDD2029F0892FC0
:1043C0000E94C2108E2D33CF8E2D0E94D1108F2DC2
:1043D0000E949A10CECE8E2DE2EF8E1609F44BC0BD
:1043E000E81570F0F0EF8F1639F121EF8216D9F150
:1043F000DD2009F45CC0C1109FCE8F2D8F7138C0B5
:1044000033EF8316E9F194EF8912F2CFDD2009F43E
:1044100043C02F2D2F71F22E822F0E94C210809147
:10442000740682FD07C038E0F39EC001112483604A
:1044300080934F038F2D1CC0DD2081F0E4E0EC154C
:1044400008F497CE2F2D2F7181E090E001C0880FE6
:104450002A95EAF79091DE068927A1CFF5E0FC15B1
:1044600008F487CEEFCF8F2D8F71DD2009F4B0CF08
:104470000E94C2107ECE8F2D8F71DD20C9F3A8CF90
:1044800080E0DD2009F48BCF9F2D9F7181E001C07A
:10449000880F9A95EAF783CF81E00E94A61081E009
:1044A0008C1508F066CE82E00E94A61062CECC2069
:1044B00059F0893309F0F3CE9FEFE7EEF3E0915026
:1044C000E040F040E1F7E9CE8F2D8F7181CFF0E130
:1044D000EF16FFE5FF0609F421CC21E1E2162FE5F6
:1044E000F20609F41FCC93EFE9169CE5F90609F4EE
:1044F00082CC08F019CCF8EDEF16FCE5FF0609F4C4
:1045000076CC29EDE2162CE5F20609F480CC37EDE5
:10451000E3163CE5F30609F018CC26E241EE61EE25
:10452000C8010E94CC1CFBCA30E1E3163FE5F3064C
:1045300009F4EECB91E1E9169FE5F906A1F682E0D8
:10454000E8CB85E0DE01119601900D928A95E1F7A6
:10455000F801228189819A812111BBCA0E94291008
:10456000F82EBFCAF6E1EF16FCE5FF06E1F58091F3
:10457000F80269E2811165E388ED92E00E94B305DB
:1045800050CD82722AECE2162CE5F20609F477CDC2
:1045900008F086C095ECE9169CE5F90609F45BCDB8
:1045A00008F065C0F3ECEF16FCE5FF0609F447CD13
:1045B00008F04CCD32ECE3163CE5F30609F434CDBB
:1045C000FAE5EF16FDE5FF0609F493CD08F06CCD92
:1045D000E1143CE5F30609F47CCD8EEDE8168CE59C
:1045E000F80609F483CDF8018281E080F180882308
:1045F00009F483CDC7010E942313D82E682FC70169
:104600000E945110B7018D2D0E9416130E94570E63
:104610007C01882EF801D280C580C2943FE0C3227D
:1046200080914F038770A1F0AD2CDD2091F08F2D8C
:10463000807F803421F080E28E0D883048F082E067
:104640000E94A61080914F038770AA24A394811121
:10465000A12C9F2C92942FE09222FBE0F91508F4F4
:1046600088CDE92DF0E0EE5AFF4C0C94982D97EC94
:10467000E9169CE5F90609F4F8CC08F4F1CCF8EC5D
:10468000EF16FCE5FF0609F4F5CC4CEE56E068EFBA
:1046900076E029ECE2162CE5F20609F4D4CC90CFB2
:1046A0003FECE3163CE5F30609F4FCCCB0F4ECEC8B
:1046B000EE16ECE5FE0609F4ECCC08F4E5CC2DECA6
:1046C000E2162CE5F20609F4E9CC85E03EECE316AF
:1046D0003CE5F30609F4E3CC73CF86EDE8168CE5F0
:1046E000F80640F482E191EDE9169CE5F90608F43C
:1046F000D6CC15CAEDE5EE16FE0609F410CA60CF59
:104700001F93CF93DF9380911C03807FA9F4809146
:104710001903882389F080914E03D0911D03609185
:10472000170370911803A0911A03B0911B03C62FB1
:10473000C72316E0D81304C0DF91CF911F910895CD
:1047400090E0109711F0CF3F19F401968770F2CFE7
:10475000189F9001199F300D1124F901E25EFC4F62
:1047600041814713F2CF40814613EFCF428141117F
:10477000ECCF438154814A1B5B0B483C510528F721
:1047800080911C038F70806180931C03F901ED5DA3
:10479000FC4F80818F708061808387E193E00E946D
:1047A000301DDF91CF911F910C941F10AF92BF92DB
:1047B000CF92DF92EF92FF920F931F93CF93DF93ED
:1047C000CDB7DEB761970FB6F894DEBF0FBECDBF91
:1047D0008C0185E0F801DE011D9601900D928A950D
:1047E000E1F7F801E28087E1A82E83E0B82E60911E
:1047F0001A0370911B036115710509F432C1909180
:10480000170340911803892F84238F3F09F429C18E
:1048100020813181C380D480F0901903F601E61B1A
:10482000F70BFF2009F4E8C080911C03582F507F3C
:10483000E83CF10508F0ABC0511177C0FE2C4313E2
:1048400021C092131FC0E1101DC08F708061809342
:104850001C03C5010E94301D80911C03F801858353
:104860008F2D61960FB6F894DEBF0FBECDBFDF91DE
:10487000CF911F910F91FF90EF90DF90CF90BF905D
:10488000AF900895CD2829F0822F83238F3F09F020
:1048900003C180E0F82FF170DF2E80FF3CC08091D3
:1048A0004E0340911D0356E0841315C02D873E87AB
:1048B0008D859E850E945213292F22952F702230BC
:1048C000F0F0243018F59F70F1F0F8019581907F99
:1048D000D1F4D12C1EC090E0589FF001599FF00DEB
:1048E0001124E25EFC4F6181361306C060812613FD
:1048F00003C06281E6120FC001968770D5CF9F700A
:1049000011F0882331F3805E883018F3C8010E94CB
:10491000301DFD2CA5CFEE2009F4A2CF80911C0301
:10492000816080931C03F12C9BCF431306C092132C
:1049300004C0F801EE2009F479C0C8010E945E139A
:10494000882309F1EE20F9F080911C03803270F089
:10495000209117033091180338872F831986DB863F
:10496000CA868C87CE0107960E94301D86E0F8012A
:10497000A7E1B3E001900D928A95E1F70E948023B0
:10498000FF24F3946DCFC8010E94301DF9CF51115F
:104990000AC087E193E00E94301D86E0F501119284
:1049A0008A95E9F7C0CF43130FC092130DC0E110F1
:1049B0000BC0F8018583C8010E94301D86E0F50117
:1049C00011928A95E9F74CCFC8010E945E138823A3
:1049D000D1F2EE20C1F280911C03803238F2209196
:1049E0001703309118033A8329831B82DD82CC821E
:1049F0008E83CE010196B8CFE83CF105F8F6FE2C87
:104A0000EE2009F243131FC092131DC080911C03B6
:104A100080FD10C0982F907F69F0F8018583903F4A
:104A200031F0982F907F905F8F70892B8583C8011C
:104A30000E94301D86E0F801A7E1B3E001900D92DD
:104A40008A95E1F70DCFC8010E945E1381118ECFC8
:104A500080911C03816080931C03C8010E94301D5B
:104A6000FFCEEE2009F48FCFC8010E945E13F82E0E
:104A7000882309F488CF86E0F801A7E1B3E001902C
:104A80000D928A95E1F780911703909118030E9487
:104A900052130E948023E4CE81E08E25FBCE1F932B
:104AA000CF93DF93CDB7DEB767970FB6F894DEBF2D
:104AB0000FBECDBF4B8B5C8B6D8B7E8B8F8B611153
:104AC000109251031A8A198A85E0FE017396DE015D
:104AD0001D9601900D928A95E1F786E0FE013D96C4
:104AE000DE01179601900D928A95E1F7CE010796A7
:104AF0000E94D623811112C086E0FE013796DE01A6
:104B0000119601900D928A95E1F78A859B85892BF4
:104B100029F088859F8189238F3FB1F516E0809128
:104B20004E0390911D0389131DC067960FB6F8942C
:104B3000DEBF0FBECDBFDF91CF911F91089596E0EC
:104B4000929FD001939FB00D1124A25EBC4FFE0135
:104B5000319601900D929A95E1F780931D030E9482
:104B60001F10DCCF819FC0011124825E9C4F0E94E8
:104B7000D6238823D1F280914E0390E0019687706E
:104B8000992780934E03CBCF20911D0330E0C901BC
:104B900001968770992740914E034817190679F6B8
:104BA0000E94971810921D0310924E0386E0E7E1D1
:104BB000F3E0DF011D928A95E9F7B0CF2F923F9283
:104BC0004F925F926F927F928F929F92AF92BF921D
:104BD000CF92DF92EF92FF920F931F93CF93DF93C9
:104BE000CDB7DEB72A970FB6F894DEBF0FBECDBFA4
:104BF000AE014F5F5F4F6A018AE0DA011D928A952C
:104C0000E9F703E611E07A01AA24A394B12CF80194
:104C100081918F018F3F09F44BC0F894E82FE29502
:104C2000EF70F0E021A18F70A50102C0440F551F65
:104C30008A95E2F7CA01922F982B91A392A18095B1
:104C4000892382A3789400C0E8E6F1E030E020E018
:104C5000912C812C81918F3F09F4ACC0A82FA29593
:104C6000AF70B0E090964C9150E08F7002C05595B7
:104C700047958A95E2F740FD9DC0C501022E02C00E
:104C8000880F991F0A94E2F7882A992A2F5F3F4FCD
:104C90002F303105F9F6F801319780818F3F11F0FF
:104CA0000E94FD0D50EA5A95F1F7D7018D929C9222
:104CB000B2E0EB0EF11CE1E008361E0709F0A7CFC9
:104CC0004AE050E0B6018AE593E00E94452F8C014E
:104CD000FF24F394892B09F4F12C0115110541F0FF
:104CE0008AE0F601AAE5B3E001900D928A95E1F71A
:104CF00050905703552009F46AC00E94C01C2091AF
:104D0000550330915603AC01421B530B9A0190930B
:104D10005603809355034F3F510511F008F04DC0E5
:104D2000452B09F444C0E22E1092570320915803FA
:104D300030915903EEE9F3E06AE573E039015BE491
:104D4000650E711C412C88248394912C190150E02C
:104D500040E0D101DD901D01DD20D1F0CD010197B2
:104D6000ED1470F1DC011C92C080D180DB018D91CB
:104D70009C918C259D255401042E02C0AA0CBB1CBD
:104D80000A94E2F78A219B218C259D2591838083BB
:104D90004F5F5F4F4F305105E1F6215F3F4F329635
:104DA0006E5F7F4F6216730689F640925703012BA0
:104DB000B1F44DC090E080E067CF2FEF30E0B3CF8B
:104DC000DE18DC01DC92452CE3CF108233C0012BCE
:104DD000F1F10E94C01C90935603809355032091DB
:104DE00058033091590360915703AAE5B3E08EE967
:104DF000C82E83E0D82EAA24A394B12C75E04D913F
:104E00005D91F601819191916F0148275927F90130
:104E100090E080E08501082E02C0000F111F0A9467
:104E2000E2F704231523012B81F21081111102C036
:104E3000708361E0319601968F30910559F7215FBB
:104E40003F4FF3E0A436BF07D1F6609357038F2D91
:104E50002A960FB6F894DEBF0FBECDBFDF91CF917B
:104E60001F910F91FF90EF90DF90CF90BF90AF9088
:104E70009F908F907F906F905F904F903F902F907A
:104E800008951F921FB61F9211248F939F93AF9383
:104E9000BF9380916E06811113C080916F0690912F
:104EA0007006A0917106B09172064196A11DB11DC8
:104EB00080936F0690937006A0937106B09372066C
:104EC000BF91AF919F918F911F901FBE1F9018951A
:104ED000CDB7DEB7AA970FB6F894DEBF0FBECDBF31
:104EE00084B7877F84BF0FB6F894A895809160003F
:104EF000886180936000109260000FBE80E890E0AF
:104F00000FB6F89480936100909361000FBE85B74F
:104F1000806885BF85B7806885BF8BEF9DE09093E3
:104F2000D3028093D2020E9425040E94F004809153
:104F3000E20084608093E200789480919D0688234B
:104F4000A1F01091E9001F709091EC00892F817001
:104F500090FD80E8182B1092E9008091E80083FD15
:104F60000E94AC181F701093E90082E084BD93E0AA
:104F700095BD9AEF97BD80936E000E9485138111B5
:104F800002C00E94C21203E611E0D8018D918D018A
:104F90008F3F11F00E94FD0DB1E008361B07A9F705
:104FA00008E611E0F80181918F018F3F11F00E9416
:104FB000FD0DF1E007371F07A9F710925B03109270
:104FC0005A0310929F0310929E0310925D03109259
:104FD0005C031092A1031092A00310925F03109241
:104FE0005E031092A3031092A20310926103109229
:104FF00060031092A5031092A40310926303109211
:1050000062031092A7031092A6038BE490E00E9423
:105010001D2EAC01909359038093580330E020E09B
:10502000FA01E20FF31F9FE011929150E9F7215F1F
:105030003F4F2B343105A1F70E942218811102C085
:105040000E942D1882E090E00E946B2F80939303C2
:105050000E949E1390937406809373060E94DE252F
:105060008FE39CE90197F1F700C000000E94DE2564
:1050700080919E0380FF08C06FEF7FEF90E080E09B
:105080000E94A72F0E94041283E090E00E946B2FE1
:105090000E94CD100E9409141092AB068FEF9FEF73
:1050A0009093C5068093C4069093C7068093C60666
:1050B0009093C9068093C8069093CB068093CA0646
:1050C0009093CD068093CC069093CF068093CE0626
:1050D0009093D1068093D0069093D3068093D20606
:1050E0001092640390937E0380937D0390938003DA
:1050F00080937F0390938203809381039093840332
:105100008093830390938603809385039093880311
:105110008093870390938A038093890390938C03F1
:1051200080938B030E942218811104C00E942D18C5
:105130000E940A1846E050E06CE170E088ED96E0CD
:105140000E945B2F8091D8068C7F11F40E940A1870
:105150008AE091E090936B0680936A062224239460
:1051600080919D0653E0D52E00E112E1853009F4CF
:1051700086C10E94DE25882359F08FB7F8944091AC
:105180006F065091700660917106709172068FBF24
:10519000AEE9B3E0E4E9F3E010E000E0602FCD9089
:1051A000DD90219131912C153D0509F493C1B12C6D
:1051B00088248394912C2C253D25A901482159212F
:1051C000452B09F481C1B9A26AA3C820D92081E086
:1051D000C114D10409F480E08BA30E94C01C81603B
:1051E000782F9DA38CA349A15AA16BA18DA10E94E8
:1051F0004F25F801EE0FFF1FEC56FC4F8081918187
:105200008826992691828082CD2871F08FE0809F38
:10521000F001819FF00D1124E257FE4FEB0DF11DBF
:1052200080818F3F09F037C1B12C0B2D10E08091A8
:105230006403800F912F911D09976CF188E090E035
:105240006C01C01AD10AB8016B597C4FA60185E6E2
:1052500093E00E94522FB80163597C4FA6018DE65E
:1052600093E00E94522FA601440F551FB801660F0C
:10527000771F63587C4F8DE793E00E94522FB8014F
:105280006B587C4FA60185E793E00E94522F88E07F
:105290008B19809364038091640390E0A32DB0E0A8
:1052A0009D01220F331F27523E4FAA0FBB1FBD0186
:1052B00066527E4F41E0480F9B1508F4F0C0809382
:1052C000640380918D0390918E03A0918F03B09120
:1052D00090034FB7F89400916F06109170062091DB
:1052E0007106309172064FBF48015901881A990A18
:1052F000AA0ABB0A4FB7F89440906F065090700608
:1053000060907106709072064FBF40928D0350926C
:105310008E0360928F037092900360916403E4E6C1
:10532000F3E0462F50E00197AF4FBF4F801B910B2A
:10533000A20BB30B6513E5C0409364038091910306
:1053400010E0811108C08091D806182F137019F051
:10535000182F1695169580912E01813009F4FBC007
:10536000882309F4E1C0823009F407C1833009F4CD
:1053700011C10E943E0690919203891721F00E946C
:105380003E068093920380919D06843009F0E8CE1A
:1053900083E08093E9008091E80082FFE1CE809174
:1053A000E80090E085FF0CC00E94440450E2C52E46
:1053B000D12C8E010F5F1F4F882309F422C191E089
:1053C0008091E8008B778093E800992309F4C8CE98
:1053D000E981E150E33108F0C5C1F0E0E25AFF4C49
:1053E0000C94982D80919D06843009F437C08091EB
:1053F000910381110DC00E94371510921501809103
:10540000D8068370809314010E94AC13D0922E01B1
:105410002092910310926E06A8E1B0E0E0E40FB68E
:10542000F894A895A09360000FBEE093600083B746
:10543000817F846083BF83B7816083BF78948895C0
:1054400083B78E7F83BF0FB6F894A89580916000D4
:10545000886180936000109260000FBE80919C066E
:10546000882369F00E94DE25EEE9F3E081919191B5
:10547000892B09F040C223E0E83AF207B9F780919E
:105480009D06853009F4AECF0E9497180E943E0613
:10549000109291036ECE382EBB24B394C6CE90E00A
:1054A000FC01EC59FC4FD9015C915183DB015C910B
:1054B0005187318A880F991FFC01EC59FC4F128EDD
:1054C000118E91E0842FF6CEB394880C991C8FE056
:1054D000B81273CE0F5F1F4F0530110509F05ECE75
:1054E0008FEF8EA38FA318A60E94C01C8160782F17
:1054F0009AA789A74EA15FA168A58AA50E944F25FA
:10550000E0CE218D328D6901F12CE12C8C159D05A9
:10551000AE05BF0520F441505F5F32960BCF280DDA
:10552000391D328F218FF8CF10922B014092A706A0
:105530005092A8066092A9067092AA0689E2E4E653
:10554000F3E0ABEAB6E001900D928A95E1F791E0C5
:1055500090932E010ECF812F0E943715112309F44D
:1055600008CF0E943E0681FF04CF2FEF4FEF6FEF71
:105570008EE190E00E943509FCCE109315018091D8
:10558000D8068370809314010E94AC1383E080934B
:105590002E01EFCE8091D706882341F046E050E0FF
:1055A0006CE170E088ED96E00E94792F1092D706AA
:1055B0004091A7065091A8066091A9067091AA068D
:1055C0002FB7F89480916F0690917006A0917106A4
:1055D000B09172062FBF841B950BA60BB70B4A9791
:1055E000A105B10508F4C5CE10922E01C2CE80915E
:1055F000F100D8018D938D01B1E0CB1AD10809F4E7
:10560000DECE8091E80085FDF2CF8091E8008B77B7
:105610008093E8000E944404882399F3D0CE1A8234
:1056200089E08B8332C08A818230C1F0833009F4F3
:1056300053C0813009F096C02FB7F89460916F067F
:105640007091700680917106909172062FBF0E9432
:105650009E2D6B837C838D839E8317C086E290E0B2
:105660000E946B2F90E0B0E0A0E04424582E692EF9
:105670007A2E87E290E00E946B2F1B821C82482AC0
:105680005424452454245E824D8280919D068430AA
:1056900009F066CD1091E9001F709091EC00892F00
:1056A000817090FD80E8182B82E08093E900809162
:1056B000E80080FF0DC050E040E060E270E0CE0105
:1056C00001960E9475048091E8008E778093E8002F
:1056D0001F701093E90044CD80919E0390919F0329
:1056E0009827892798279C838B838091A00390918A
:1056F000A1039827892798279E838D838091A203F1
:105700009091A30398278927982798878F83809162
:10571000A4039091A5039827892798279A878987BA
:105720008091A6039091A7039827892798279C87A3
:105730008B87ABCF8A818230A9F46B817C818D818C
:105740009E810E949E2D2B013C0187E290E00E94E9
:10575000892F9927872D762D652D86E290E00E946E
:10576000892F93CF8FEF898390CF4C816B818A8172
:105770000E94F0129827892798279E838D8385CFD2
:105780000D811E811027012710278A81CB80EEE131
:10579000CE9E60011124F6E98F9FC00CD11C11240C
:1057A0008C8190E0880F991FC80ED91E612FC60109
:1057B00088960E94892F602FC6018996D0CF0E94BB
:1057C000551263CF80E18A8360CF21E02A8380E88D
:1057D00028CFCA80DB80DC24CD24DC248E010F5F3F
:1057E0001F4F8C80800E912E911CC60180589D4FBA
:1057F0000815190509F449CFA0E8CA16A1E0DA0690
:1058000050F40E946B2FF8018483BFEFCB1ADB0AA0
:105810000F5F1F4FEACFD80114961C92F6CF0A8172
:105820001B81102701271027FE0131964F01CC80E4
:10583000C00ED12ED11CC80180589D4F0C151D05DE
:1058400009F423CF0038F1E01F0728F4D40114969F
:105850006C910E94892FBFEF8B1A9B0A0F5F1F4F1D
:10586000EACF0E94451211CF84E0ADCFCA80DB8021
:10587000DC24CD24DC248E010F5F1F4F8C80800E32
:10588000912E911CC60188960815190509F4FDCEC4
:10589000E8E5CE16E2E0DE0658F40E946B2FD80150
:1058A00014968C93FFEFCF1ADF0A0F5F1F4FEACFDA
:1058B000F8011482F7CF0A811B81102701271027D6
:1058C000CE0101964C01CC80C00ED12ED11CC80156
:1058D0008896C016D10609F4D8CE0835A2E01A077A
:1058E00020F4F40164810E94892FFFEF8F1A9F0A30
:1058F0000F5F1F4FECCF09BD19BD09B400FEFDCFEE
:105900008091D8008F7D8093D8008091E0008260E4
:105910008093E0008091E00081FDFCCF0E94971809
:105920008FEF93E2A4EF81509040A040E1F700C0D8
:105930000000A5CD1092B9008CE08093B8000895C6
:105940009F92AF92BF92CF92DF92EF92FF920F930E
:105950001F93CF93DF93B82EEB010E94C01C6C0104
:10596000EE24E394F12CC431D10560F025E0E22E61
:10597000F12CCF3FDC0731F0CE0164E170E00E94F2
:10598000702D7B0184EAA82E94E8992E1092BC0019
:10599000A092BC000E94C01C8C018091BC0087FFBB
:1059A0000DC08091B900887F883039F18091B900AD
:1059B000887F803111F10FEF1FEF09C00E94C01CDA
:1059C000801B910B8E159F0540F30EEF1FEFCF3F0D
:1059D000DC07E1F2C6010E94B11C8C179D07B0F2F2
:1059E000C801DF91CF911F910F91FF90EF90DF9051
:1059F000CF90BF90AF909F900895B092BB009092CF
:105A0000BC000E94C01C8C018091BC0087FF0AC0B2
:105A10008091B900887F883111F0803461F610E000
:105A200000E0DECF0E94C01C801B910B8E159F05ED
:105A300058F3CBCF0F931F93CF93DF93EB0180935A
:105A4000BB0084E88093BC000E94C01C8C01809144
:105A5000BC0087FF11C02091B900287F81E090E051
:105A6000283211F490E080E0919581959109DF91C1
:105A7000CF911F910F910895CF3FDC0741F30E9412
:105A8000C01C801B910B8C179D0708F38EEF9FEFB6
:105A9000EECFCF92DF92EF92FF920F931F93CF93AF
:105AA000DF936B018A017901B9010E94A02CE60104
:105AB0000C0D1D1DC017D10761F424E92093BC0013
:105AC000DF91CF911F910F91FF90EF90DF90CF90DA
:105AD000089597FDF2CFB70189910E941A2DEACF60
