:100000000C94A4030C94EB030C94EB030C94EB03FF
:100010000C94EB030C94EB030C94EB030C94EB03A8
:100020000C94EB030C94EB030C94CC150C94431E32
:100030000C94CB290C94EB030C94EB030C94EB0382
:100040000C94EB030C94EB030C94EB030C94EB0378
:100050000C94EB030C94A3160C94EB030C94EB039D
:100060000C94EB030C94EB030C94EB030C94EB0358
:100070000C94EB030C94EB030C94EB030C94EB0348
:100080000C94EB030C94EB030C94EB030C94EB0338
:100090000C94EB030C94EB030C94EB030C94EB0328
:1000A0000C94EB030C94EB030C94EB030501090295
:1000B000A10185020901A1000509190129081500FE
:1000C0002501950875018102050109300931158165
:1000D000257F95027508810609381581257F9501D0
:1000E00075088106050C0A38021581257F95017572
:1000F000088106C0C005010980A101850319012AF4
:10010000B700150126B700950175108100C0050CD8
:100110000901A101850419012AA002150126A002E6
:10012000950175108100C005010906A1018505052D
:100130000719E029E71500250195087501810205D9
:1001400007190029EF1500250195F07501810205B9
:10015000081901290595057501910295017503910D
:1001600001C00660FF0961A1010962150026FF00B8
:100170009520750881020963150026FF00952075FA
:10018000089102C005010906A101050719E029E748
:1001900015002501950875018102950175088101F9
:1001A0000507190029FF150026FF0095067508812F
:1001B000000508190129059505750191029501753C
:1001C000039101C0000000000000000000000000DA
:1001D000000000000000000000000000000000001F
:1001E00000000000000000007E0F00D4FFFFFFC7EA
:1001F0000000007800000000000000002A2B28000A
:1002000000000000000000000000000000000029C5
:10021000000000002C1E3420212224342627252E05
:10022000362D3738271E1F2021222324252633333D
:10023000362E37381F0405060708090A0B0C0D0E69
:100240000F101112131415161718191A1B1C1D2F35
:100250003130232D350405060708090A0B0C0D0E55
:100260000F101112131415161718191A1B1C1D2F15
:100270003130354C0001010101010101010102028F
:100280000202020202020203030303030303030444
:10029000040404040404050505050506060606060F
:1002A000070707070708080808090909090A0A0AC9
:1002B0000B0B0B0C0C0C0D0D0D0E0E0E0F0F0F106B
:1002C00010111111121213131414151516161717F5
:1002D000181819191A1A1B1B1C1D1D1E1E1F202061
:1002E000212222232424252626272829292A2B2CAB
:1002F0002D2D2E2F30313232333435363738393ACE
:100300003B3C3D3E3F404142434445464748494AC5
:100310004C4D4E4F50515354555658595A5B5D5E93
:100320005F616264656668696B6C6D6F707273752E
:1003300077787A7B7D7E8082838587888A8C8E8F92
:1003400091939596989A9C9EA0A2A3A5A7A9ABADC0
:10035000AFB1B3B5B7BABCBEC0C2C4C6C9CBCDCFAE
:10036000D1D4D6D8DBDDDFE2E4E7E9EBEEF0F3F55C
:10037000F8FAFDFF4400C10334C1C412ACA1461A0F
:100380002482C8219C624A291443CC308C234E38E5
:1003900050308104C810030C40F18413B8D1061BFF
:1003A00030B28822A8920A2A20738C3138D00003F8
:1003B000B0B0820A28910412A0718619185208213F
:1003C00090328A2808130C3080F38D375C60410529
:1003D000D440C30C4C214514C401C71B3CE2482344
:1003E000B4C2CA2A2CA34C322CA04002A480C20959
:1003F0001C6144119441C6180C2248208402CA276B
:10040000FCE24B2F74C3CD3668900106E070830D7B
:1004100058510515D031871C48120924C0F28A2B87
:1004200038D30C33207080019850020910318410A9
:100430008811061800F2871F78D20927F0B28B2E98
:1004400068930D3674C0C106ECA0430E6481C515D7
:10045000DC61471D5442C9244403CD331440C0001D
:100460000401C40F7CE14517F4C1C71E6CA24926E4
:10047000E482CB2D5C634D3540F490436484D145D8
:1004800088141248ACA4524AD034934CF4C4D34ECE
:100490000810000080F08107F8D0030F48151554AC
:1004A0009444D248B8D4124BDC64534D00F5934FBA
:1004B0002485D4510404D03FBCE0420BECA34F3E52
:1004C00098530E391C645041A483CE39E0738F3D9C
:1004D000B0B38E3A18551451607595556CA55556A4
:1004E00070B49146C8130F3C70B18516000000002F
:1004F00000000000000000000000000000000000FC
:1005000000000000000000000000000000000000EB
:1005100000000000000000000000000000000000DB
:1005200000000000290000003A003B003C003D00B4
:100530003E003F00400041000000420043004400F4
:1005400045004B0035001E001F0020002100220046
:10055000230024002500260027002D002E00000087
:100560002A0049002B0014001A000800150017008B
:100570001C0018000C00120013002F003000310086
:1005800000004C00390004001600070009000A00B2
:100590000B000D000E000F00330034000000280097
:1005A00000004E00E10000001D001B0006001900C5
:1005B000050011001000360037003800E50000008B
:1005C00052000000E000E300E20000000000000034
:1005D0002C000000000000000151E4005000000069
:1005E00051004F0001000000010001000100010066
:1005F00001000100010001000000010001000100F4
:1006000001000100010001000100010001000100E2
:1006100001000100010001000100010001000000D3
:10062000010001000100C35C0100010001000100A4
:100630000100010001000100010001000100005C57
:1006400000000100010001000100010001000100A3
:100650000100010001000100010001000000DE5C5A
:100660000000010001000000010001000100010084
:100670000100010001000100010001000100000073
:100680000100000001000100010000000000000066
:100690000100000000000000010001000100000056
:1006A0000100010009025B00030100A0FA09040037
:1006B000000103010100092111010001224000078E
:1006C000058103080001090401000203000000097C
:1006D00021110100012222000705820320000107E9
:1006E00005030320000109040200010300000009C2
:1006F000211101000122B600070584032000011228
:1007000001000200000008424B0800010001020045
:10071000011E03420045004C004C004100200052E5
:100720000047004200200041004E005300490000F5
:100730000010034B0042004400460041004E0053AD
:10074000000000040309040011241FBECFEFDAE00B
:10075000DEBFCDBF04B603FE27C08091BE079091D7
:10076000BF07A091C007B091C1078730904BA74049
:10077000B04BD1F41092BE071092BF071092C00781
:100780001092C10714BE84B7877F84BF0FB6F89458
:10079000A89580916000886180936000109260004D
:1007A0000FBEE0E0F8E3099527E0A4E3B3E001C061
:1007B0001D92AE3BB207E1F713E0A0E0B1E0E6EC3A
:1007C000F8E602C005900D92A433B107D9F70E9454
:1007D000F2290C9403340C94000090918F079370CD
:1007E00051F0811109C0946090938F0710922B01F2
:1007F00081E0809389070895873210F09869F4CFDB
:10080000880F880F982BF0CF90918F07937049F045
:1008100080939007609391074093920781E08093C3
:1008200089070895E8EDF0E080818E7F8083109243
:10083000E2001092DA001092E100A0EEB0E08C919C
:1008400081608C9380818F77808319BCA7EDB0E0A5
:100850008C918E7F8C9380818F7E8083109257073E
:1008600008952091E4003091E50095E6A9012091DA
:10087000EC00822F817020FF06C08091E80080FF8D
:1008800006C080E008952091E80022FD1AC0809102
:100890007C07882389F0853089F08091EB0085FD05
:1008A0000FC02091E4003091E50042175307F9F2A0
:1008B0009150E1F684E0089582E0089583E0089580
:1008C00081E00895EF92FF920F931F93CF937C01E5
:1008D0008B010E943104C82F811117C08091E8005C
:1008E00085FD0BC08091E8008E778093E8000E9420
:1008F0003104882399F3C82F08C0F70181917F0143
:100900008093F1000150110949F78C2FCF911F916D
:100910000F91FF90EF90089580917E0787FF13C09D
:100920008091E80082FF06C08091E8008B77809379
:10093000E80004C080917C078111F2CF0895809176
:100940007C078823D9F38091E80080FFF8CF80915D
:10095000E8008E77ECCF982F9093E900242F762F24
:1009600050E0891731F07091EC002091ED0050912A
:10097000F00021FD07C09F5F973071F78093E90079
:1009800081E008953091EB003E7F3093EB00309191
:10099000ED003D7F3093ED003091EB0031603093FE
:1009A000EB007093EC002093ED005093F000209149
:1009B000EE0027FDE0CF80E00895CF92DF92EF9226
:1009C000FF920F931F93CF93DF93C8EDD0E0888100
:1009D0008F7E8883E7EDF0E080818160808384E012
:1009E00082BF81E08093570788818E7F888302EEE3
:1009F00010E0F80110821092DA0081EEC82ED12C9E
:100A0000F601108288818F77888388818068888347
:100A100088818F7D888319BC10927C0710927D0796
:100A200010927B0710927A0790EEE92EF12CF701D5
:100A300080818B7F808388818160888342E060E051
:100A400080E00E94AB04F60180818E7F8083F801F4
:100A5000808181608083808188608083F7018081CC
:100A60008E7F8083888180618883DF91CF911F9101
:100A70000F91FF90EF90DF90CF900895FC0180914F
:100A800084079091850786179707A0F06115710577
:100A900029F49091E8009E779093E80090E061152A
:100AA000710551F4911108C08091E80082FF34C0B3
:100AB00080E00895BC01F2CF80917C078823C1F1CA
:100AC0008530C1F18091E80083FD30C08091E8005D
:100AD00082FDEACF8091E80080FFE1CF8091F300B2
:100AE0002091F200382F6115710519F02830310579
:100AF00058F091E02830310509F090E02091E800AD
:100B00002E772093E800CBCF81918093F100615044
:100B100071092F5F3F4FE7CF80917C07882341F019
:100B2000853041F08091E80083FFBECF81E00895D9
:100B300082E0089583E008958091590708952091F7
:100B400016012223C9F02091520727FF15C0E62F76
:100B5000E695E695E695EE31D8F4E80FF92FF11D0C
:100B6000677021E030E001C0220F6A95EAF7209516
:100B70008281282322830895FC01329608962191D0
:100B8000621303C0DF0111971C92E817F907B9F748
:100B90000895209116012223C1F02091520727FFCA
:100BA00014C0E62FE695E695E695EE31F8F4E80FE9
:100BB000F92FF11D677021E030E001C0220F6A9526
:100BC000EAF78281822B82830895FC0132962FEF0F
:100BD00030E04191641751F02F3F19F4411101C0E9
:100BE000232F3F5F3630A9F72F3F09F40895820F76
:100BF000911D27FD9A95FC016283089520914B0772
:100C000030914C072817390771F090934C07809367
:100C10004B07E0914907F0914A07309721F0008493
:100C2000F185E02D099408952091470730914807F8
:100C30002817390771F09093480780934707E09190
:100C40004907F0914A07309721F00680F781E02D9F
:100C500009940895E0914907F0914A07309721F0EF
:100C60000190F081E02D099480E00895FA0181114E
:100C700001C0FB010994EF92FF920F931F93CF9352
:100C8000DF938C36910508F054C0FC01EE0FFF1F76
:100C9000EE0FFF1FCF018C589C4F7C01DC01119699
:100CA000FD019591392F32953F708491582F5295BF
:100CB000507FC52FC32B82958F70D82FD370DF0143
:100CC000849182958695869583701196FD01349165
:100CD000532F550F550F052F082B132F12951695CF
:100CE00016951370F7013491532F5370369536953E
:100CF000892F8295880F880F807CA82FA32B96952B
:100D00009695B92FB370EFE5F1E05E9FC0015F9F4C
:100D1000900D112488519A4FA80FB91F6C93C80FDA
:100D2000D91F4883800F911FFC01208381E08093AD
:100D3000E705DF91CF911F910F91FF90EF900895FC
:100D4000FF920F931F93CF93DF93182F062FF42E4C
:100D5000D0E0C0E02F2D402F612FCE010E943B0636
:100D60002196CC36D105B1F7DF91CF911F910F912C
:100D7000FF900895EFE8F7E0248130E1231B08F4A9
:100D800020E0248381E0809389070895EFE8F7E06D
:100D9000248130E1230F08F42FEF248381E0809336
:100DA00089070895EFE8F7E0438120E1421B08F44A
:100DB00040E08181628190E00C940404EFE8F7E068
:100DC000438120E1420F08F44FEF8181628190E07E
:100DD0000C940404EFE8F7E0628120E1621B08F460
:100DE00060E08181438190E00C940404EFE8F7E037
:100DF000628120E1620F08F46FEF8181438190E00E
:100E00000C940404EFE8F7E081814381628188500B
:100E1000990B0C940404EFE8F7E0818190E04381A2
:100E2000628108960C94040480918F0786958695BC
:100E3000815009F486E20C94ED0380918F0786952A
:100E400086958F5F873208F081E00C94ED038093E4
:100E5000150180918F078370809314010E94B41351
:100E600083E080932B010895EF92FF920F939701F7
:100E7000201B31092F3F310519F010F02FEF30E022
:100E80002095382F320F08F43FEF832F0F91FF90FA
:100E9000EF900895EF92FF920F93972F093438F453
:100EA000B701601B71096F3F710519F010F06FEF0A
:100EB00070E0485F5F4F4131510540F0A901485F44
:100EC0005F4F4131510510F06FEF70E06095482F92
:100ED000460F08F44FEF842F37FF02C02D5F3F4FBE
:100EE000359527953595279560919007620F792F55
:100EF0000F91FF90EF900895EF92FF920F931F9341
:100F00000E0D1F2D111DF90137FF03C0F195E1955D
:100F1000F10924E0EE0FFF1F2A95E1F7EF3FF105FD
:100F200019F014F0EFEFF0E09A0157FF03C031958C
:100F30002195310994E0220F331F9A95E1F72E177E
:100F40003F070CF4F901E00FF11FEF3FF10519F035
:100F500010F0EFEFF0E0E095282F3E2F230F08F47C
:100F60002FEF822F1F910F91FF90EF900895EF9236
:100F7000FF920F93970195E0099F200D311D1124D9
:100F80002F3F310519F010F02FEF30E02095382F6A
:100F9000320F08F43FEF832F0F91FF90EF900895E9
:100FA00022E8241B08F420E0620F08954095282FC2
:100FB000429F412D1124842F0895E42FF0E0EE0F7D
:100FC000FF1FE051FE4F9081921B97FD9195292FB5
:100FD00038E1239F212D1124620F08950F931F9351
:100FE00010E0F801EE0FFF1FE051FE4F9081905787
:100FF00097FD9195000F111FF801EF50FE4F0081F2
:101000000052110B2003F001219FF00D112408E381
:1010100010E0091B110997FD139540039001419FB2
:10102000300D1124E20FF31F9F01220F331F2E0FEB
:101030003F1F37FF02C021583F4F220F232F221F8F
:10104000330B620F1F910F9108950F931F93522F2F
:1010500010E0F801EE0FFF1FEF50FE4FA081A052ED
:10106000BB0B9D015203F001539FF00D1124000FA3
:10107000111FD801A051BE4F0C910057110B400316
:101080009001419F300D11242E0F3F1F37FF02C0EA
:10109000215C3F4F96E0359527959A95E1F7620FD1
:1010A0001F910F9108950F931F93522F10E0F80195
:1010B000EE0FFF1FEF50FE4FA081A052BB0B9D0112
:1010C0005203F001539FF00D1124000F111FD8019E
:1010D000A051BE4F0C910057110B40039001419F4E
:1010E000300D11242E0F3F1F37FF02C021583F4FF4
:1010F000220F232F221F330B620F1F910F91089590
:10110000EF920F93972F23E0029FB0011124759562
:1011100067956E0D792F0F91EF900895322F50E063
:10112000FA01EE0FFF1FEF50FE4F9081905297FD96
:101130009195440F551FFA01E051FE4F2081231B6A
:10114000330B290F311D97FD3A95620F0895E42F57
:10115000F0E0EE0FFF1FEF50FE4F6081621B08951D
:10116000E42FF0E0EE0FFF1FE051FE4F6081621BA5
:101170000895622F0895E42FF0E0EE0FFF1FE05175
:10118000FE4F408134EE439F412D1124E82FF0E0C3
:1011900050E0445E5F4FDA01A21BB1099D01B7FF29
:1011A00003C031952195310993E0220F331F9A95A1
:1011B000E1F7AF01421B530B9A0157FD20E0582F76
:1011C000259F212D1124822F0895E42FF0E0EE0FAA
:1011D000FF1FE051FE4F408134EE439F412D11240B
:1011E000E72FF0E050E0445E5F4FDA01A21BB10947
:1011F0009D01B7FF03C031952195310993E0220F7E
:10120000331F9A95E1F7AF01421B530B9A0157FD2B
:1012100020E0279F212D1124722F08950C94A00601
:101220000C943B06FC019B01009729F480E077FFBA
:101230002BC080E80895AC0197FF04C044275527D0
:10124000481B590BB901640F751F37FD10C0241BD3
:10125000350BC901A5E0880F991FAA95E1F70E94F7
:10126000773180E2861BF7FF0FC081950895CB018F
:1012700065E0880F991F6A95E1F7BA01621B730B4D
:101280000E94773180E6EECF0895EF920F93CF93CF
:10129000DF93D72FC82FC9010E19BA010E94120976
:1012A000602F681B7D2F8C2FDF91CF910F91EF90D6
:1012B00008950F93CF93DF93D72FC82FC901BA0199
:1012C0000E941209682F600F7D2F8C2FDF91CF9124
:1012D0000F910895EF920F931F93CF93DF93D62F23
:1012E000C72F182FC9010E19010FBA010E94120948
:1012F000081B202F219F212D1124822F6D2F7C2F41
:10130000DF91CF911F910F91EF900895EF920F937E
:101310001F93CF93DF93D62F172FC82FC9010E1914
:10132000070FBA010E941209702F781B719F712D4F
:1013300011246D2F8C2FDF91CF911F910F91EF9082
:1013400008950F931F93CF93DF93D62FC72F182F96
:10135000C901212F201B022FBA010E941209982FC8
:10136000990F990F891B800F282F219F212D112460
:10137000822F6D2F7C2FDF91CF911F910F910895B8
:101380000F931F93CF93DF93D62F172FC82FC90129
:10139000272F201B022FBA010E941209982F990FA4
:1013A000990F782F791B700F719F712D11246D2F5C
:1013B0008C2FDF91CF911F910F910895E82F86FD1B
:1013C000E0952E2F2F7086FD2F5FE695E695E6952A
:1013D000E670F0E0E758FE4F9181929F902D212D0D
:1013E000112492959F702295207F922B2081920F3D
:1013F00087FD919580E8890F08950F931F93CF93F0
:10140000DF938B01D82FC42F822F0E94DE09EC2F8F
:10141000F0E0EE0FFF1FE051FE4F90819058890FD2
:1014200087FD8195880F682F2CE0629F612D112424
:10143000600F712F8D2FDF91CF911F910F91089524
:10144000AC018230910508F408959FEF413E8EE192
:10145000580740F49A0195E0369527959A95E1F75B
:1014600098E0920F61E0E62FE90FFF27FF1F9F0131
:1014700035952795822F229FF001239FF00DF00DC7
:1014800011244E175F0738F49FEF920F961758F705
:101490008FEF860F08952F3FE9F361E0620FF6CFDB
:1014A0000F93CF93DF93D72FC82F47FD419588E344
:1014B00090E0841B910947FD9395889FB001899F17
:1014C000700D700D1124229FC001239F900D900D6F
:1014D0001124860F971F0E94200A982F990F890FB9
:1014E000682F600F7D2F8C2FDF91CF910F91089582
:1014F00030E020E0869F212D969F200D311D112484
:10150000C9010895AF92BF92CF92DF92FF920F93DD
:101510001F93CF93DF93362F472FE82FF0E0EC583F
:10152000FD4F71110FC0E4918E2F2E2F6E2F722F51
:10153000DF91CF911F910F91FF90DF90CF90BF90DF
:10154000AF900895C72FD0E02491F22E022F10E023
:1015500056E0659FC0011124EFEFF0E0BF010E944B
:101560006331832F90E0880F991F35E5369FD001B6
:10157000379FB00D11248A1B9B0B982F990F980F42
:101580006F01CC1ADD0AC09ED001C19EB00DD09E65
:10159000B00D11248B2F499FA0011124452F5527F1
:1015A0006F01C41AD50AC09EA001C19E500DD09EE5
:1015B000500D11245F01A91AB108AC9E6001AD9EC7
:1015C000D00CBC9ED00C1124CD2CDD24EC19FD09CF
:1015D000E09FE001E19FD00DF09FD00D1124ED2F91
:1015E00062307105A1F050F46115710509F49ECFC8
:1015F0006130710581F0EB2F852F98CF6430710534
:1016000069F080F06630710509F490CFF4CFE22FD5
:101610002B2F8D2F8BCFE22F252F88CFEB2F822FD3
:101620002D2F84CF2B2F8F2DE52F80CF2F923F9200
:101630005F926F927F928F929F92AF92BF92CF9262
:10164000DF92EF92FF920F931F93CF93DF93CDB76B
:10165000DEB72A970FB6F894DEBF0FBECDBF8B83DF
:101660007E836D8320912C01220F220F2F832C5F0C
:1016700029832A832D3610F03CE63A838091950722
:101680008C83FF81EF2FF0E0FA87E987CF01880F85
:10169000991F9C0120513E4F69013B81832F90E0AF
:1016A000FC013196F887EF838A8199859817E8F0D5
:1016B00081E0E981EC3608F080E02A960FB6F894D4
:1016C000DEBF0FBECDBFDF91CF911F910F91FF9075
:1016D000EF90DF90CF90BF90AF909F908F907F90D2
:1016E0006F905F903F902F900895E985FA85E853B9
:1016F000FD4F808190912D018923F1F0209090077A
:10170000309091072F8138852B56384F39015B80F7
:1017100010E0FC815F16D0F020919207129F112DEE
:101720001124B101812F0E94820A462F282F672F92
:1017300089859A850E94100929853A852F5F3F4F38
:101740003A87298732E0C30ED11CAECFF3018191D5
:101750003F01F601A080A81ABB088180F3018781B0
:10176000881A9908AA9C9001AB9C300D300D112469
:10177000889CC001899C900D900D1124820F931FAD
:101780000E94200A082F6091930721E0620F08F45D
:101790006FEFF301EE0FFF1FE559F740858996893A
:1017A0000E94780A7C019401A501B101812FED818D
:1017B000FE8109951B015394182FABCFCF92DF9276
:1017C000EF92FF920F931F93CF93DF938C01C09101
:1017D0002C01CC0FCC0F24E0D22EDC0ECD2C2CE62D
:1017E0002D1510F49CE6C92E2091930731E0230FAC
:1017F00008F42FEF30E050E040E06FEF7FEF80E043
:1018000090E00E94A0337901D0E02C2FCC1570F02D
:1018100081E0FBE6FD1508F480E0DF91CF911F9198
:101820000F91FF90EF90DF90CF900895FE01E85365
:10183000FD4F808190912D01892311F140919507F1
:101840004150042E000C550B47FF1CC0C70160918E
:10185000930721E0620F08F46FEF0E94780AAC0151
:10186000609190077091910780919207F801099516
:101870000E94820A462F282F672FCE010E9410094E
:101880002196C3CFFA01EB56F84F818982130AC023
:10189000FA01EE0FFF1FEB56F84F818D928D8E15DA
:1018A0009F05A8F241505109CFCFDF92EF92FF92EE
:1018B0000F931F93CF93DF937C01C0912C01CC0F2A
:1018C000CC0F14E01C0F012F1D3608F00CE66091C0
:1018D00093076695669521E0620F08F46FEF80919B
:1018E0008B0790918C070E94780AD82ED0E0C01701
:1018F00060F081E01C3608F080E0DF91CF911F910D
:101900000F91FF90EF90DF900895FE01E853FD4F97
:10191000808190912D01892391F0609190077091C1
:101920009107809192072D2D4C2FF70109950E9468
:10193000820A462F282F672FCE010E941009219678
:10194000D6CF9F92AF92BF92CF92DF92EF92FF924B
:101950000F931F93CF93DF936C01C0912C01CC0F99
:10196000CC0F14E01C0FB12E1D3610F03CE6B32E48
:10197000609193076695669580918B0790918C078F
:101980000E94780AF82E80E48F0D0E94DE0990E80C
:10199000A92EA80E8F2D0E94DE0920E8922E980E07
:1019A000D0E0CB1580F081E01C3608F080E0DF91BC
:1019B000CF911F910F91FF90EF90DF90CF90BF904C
:1019C000AF909F900895FE01E853FD4F8081909164
:1019D0002D018923A1F0609190077091910780916A
:1019E0009207EF2C0C2F292D4A2DF60109950E9404
:1019F000820A462F282F672FCE010E9410092196B8
:101A0000D0CF7F928F929F92AF92BF92CF92DF9270
:101A1000EF92FF920F931F93CF93DF935C01C091DE
:101A20002C01CC0FCC0F14E01C0FF12E1D3610F042
:101A30003CE6F32E60919307669580918B07909119
:101A40008C070E94780A782ED0E0CF1590F081E0C4
:101A50001C3608F080E0DF91CF911F910F91FF902D
:101A6000EF90DF90CF90BF90AF909F908F907F903E
:101A70000895FE01E853FD4F808190912D01892347
:101A8000C9F1CE01880F991F80579E4FFC01E05A83
:101A9000FF4F2081422F4057550B6A018F599F4FAE
:101AA000FC018081282F2052330B4901449F900173
:101AB000459F300D300D1124889CC001899C900DEC
:101AC000900D1124820F931F0E94200A082F60910D
:101AD00090077091910780919207E72C9401A601DD
:101AE000F50109950E94820A462F282F672FCE0103
:101AF0000E9410092196A9CFCF92DF92EF92FF9218
:101B00000F931F93CF93DF937C01C0912C01CC0FD7
:101B1000CC0F14E01C0FD12E1D3610F03CE6D32E56
:101B200060919307669580918B0790918C070E9436
:101B3000780AC82ED0E0CD1568F081E01C3608F098
:101B400080E0DF91CF911F910F91FF90EF90DF9098
:101B5000CF900895FE01E853FD4F808190912D01B3
:101B6000892311F1CE01880F991F80579E4FFC01E8
:101B7000EF59FF4F20812052330B805A9F4FFC01B9
:101B800040814057550B609190077091910780916B
:101B900092070C2DF70109950E94820A462F282FE3
:101BA000672FCE010E9410092196C5CF40911F04D6
:101BB000803F59F48091200487FF0DC010922004CB
:101BC00041110BC01092170408C0813F81F480912D
:101BD000200418169CF3442381F0809121049091F5
:101BE0002204892B09F05AC0109216040895823FEE
:101BF00049F447FFF0CF10921F0480912004811117
:101C0000ECCFE0CF833F19F41416ACF3E4CF9091FE
:101C10002104893F29F41916F4F610922104DBCF30
:101C20008A3F19F497FFD7CFF8CF909122048B3FCA
:101C300029F497FFD0CF10922204CDCF8C3F19F416
:101C40001916CCF3C8CF9CE0980F953090F4845FC0
:101C5000990B21E030E0B90102C0660F771F8A9529
:101C6000E2F7CB01809590911E04892380931E0496
:101C7000B2CF8D3F31F4809118048E7F8093180489
:101C8000AACF8E3F21F4809118048D7FF7CF8F3F2C
:101C900009F0A1CF809118048B7FF0CF0895809137
:101CA000180480FD16C081FD16C082FD16C080910B
:101CB00016048823A1F0883280F428E0829FC001B6
:101CC000112468E270E00E947731862F672B39F08B
:101CD000089582E0089584E0089588E0089581E001
:101CE00008958091180480FD14C081FD14C082FD08
:101CF00016C080911704882381F0843180F422E398
:101D0000829FC001112464E170E00E947731862F28
:101D100008958CE0089589E1089585E0089582E3AF
:101D20000895803F31F40E94710E819580932004C4
:101D30000895813F19F40E94710EF8CF823F31F46B
:101D40000E94710E819580931F040895833F19F4BA
:101D50000E94710EF8CF893F29F40E944F0E8093A4
:101D6000210408958A3F21F40E944F0E8195F7CFF8
:101D70008B3F31F40E944F0E819580932204089589
:101D80008C3F19F40E944F0EF8CF9CE0980F9530CD
:101D900070F4845F990B21E030E001C0220F8A9536
:101DA000EAF780911E04822B80931E0408958D3FD4
:101DB00031F48091180481608093180408958E3F57
:101DC00021F4809118048260F7CF8F3FB9F780919A
:101DD00018048460F1CF80E00895F894E82FE2952C
:101DE000EF70F0E031A1282F2F7081E090E001C06A
:101DF000880F2A95EAF7982F9095932391A392A1A3
:101E0000892B82A3789408959091520792FF06C07F
:101E1000282F28712830F9F4877F846093FF06C04B
:101E2000282F28712831F1F4877E8461209153078F
:101E300020FF06C0382F38713830D9F4877F816091
:101E400021FF06C0282F28712831D1F4877E8161B7
:101E500094FD877E0895282F24712430F9F68B7F16
:101E60008860DCCF282F2471243101F78B7E8861B4
:101E7000DDCF382F3171313019F78E7F8860E0CF98
:101E8000282F2171213121F78E7E8861E1CFCF93F8
:101E9000DF93EC0182389105A9F1D8F581339105E2
:101EA00009F496C048F58932910509F48AC08A97E9
:101EB00009F495C0C11521E5D20708F0BCC0C115D1
:101EC00030E5D30708F014C1C83ED10508F09CC026
:101ED000C03ED10560F5C83AD10508F087C0C53AC3
:101EE000D10508F0FDC0C130D10509F12097F9F006
:101EF000C430D105E0F440C08533910509F45AC0DF
:101F0000C997C1F680915207837089F0C0EED0E086
:101F10000EC0833E910599F170F4803E910501F168
:101F2000823E910539F68091520782FD21C0CE0193
:101F3000DF91CF910895863E910561F1873E91052D
:101F400071F1843E910509F0B5CF8091530781FF6F
:101F5000EECF80915207C7EED0E084FD0DC0E7CFF1
:101F60008091520780FD12C19091530790FFDFCFFF
:101F7000C3EED0E084FFDBCFD0E0C0E0D8CF8091CB
:101F8000520782FD06C19091530790FDBFCF84FF99
:101F9000CECFF2CF8091520783FDDDCFC8CF8091A5
:101FA000520783FDF9C09091530791FFF0CFC4EE23
:101FB000D0E0BDCF8091520785FFB9CFC9E2D0E014
:101FC000B6CF8091520785FFB2CFC5E3D0E0AFCF47
:101FD0008091520786FFABCFCAE2D0E0A8CF8091B4
:101FE000520786FFA4CFC1E3D0E0A1CFCF3BD105FC
:101FF00018F6C85AD0E0CC0FDD1FCB5CDE4F09903D
:10200000D881C02DD46493CFC11540E2D40758F4D1
:10201000C11581E0D80708F08ACFC03FD10508F488
:10202000ABCFD06584CFC11590E4D90708F4A4CF15
:10203000DF70D06A7CCFC11525E5D20700F5C11548
:1020400034E5D30708F08AC0C11543E5D40708F08A
:1020500071C0C11582E5D80708F467C0CE0183704E
:10206000992721E030E002C0220F331F8A95E2F762
:10207000C695C69580E2C89FE001112452C0C115E3
:1020800099E5D907A8F4C11528E5D20708F06BC077
:10209000C11536E5D30708F06FCF8C2F0E94040FCF
:1020A000C82FD0E0DC2FCC27CC27DF71D0623FCF08
:1020B000C1154AE5D40708F45BC0CE0190568115DE
:1020C000904208F059CF8D2F8F710E94040F90E03D
:1020D000982F882788279F719C012C2BE901E6CF38
:1020E000C55AD0E0CE5CDE4FC881D0E0D0641FCFAF
:1020F000CE01E4E096958795EA95E1F783702C2F61
:1021000026952695237040E2249F90011124382BB8
:102110008C2F8370C1E0D0E002C0CC0FDD1F8A9508
:10212000E2F7C22BD32BDC6802CFDC2FCC27C16FA8
:10213000D06AFDCECE018370992721E030E002C045
:10214000220F331F8A95E2F7C695C69590E2C99F84
:10215000E0011124C22BD32BDA68E9CEDC2FCC2787
:10216000C46FD06AE4CEDC2FCC27C06FD06ADFCE3C
:102170008C2F8F700E94040F34E0D695C7953A9546
:10218000E1F7CF709C2FEC01D069D1CEC9E3D0E04C
:10219000CECEC2EED0E0CBCEC6EED0E0C8CE80919F
:1021A000BB0381111092BB0308958091BA039091F3
:1021B000B903892B9091B803892B80933A039091AE
:1021C000BB039923A1F0892B80933A0380911601D8
:1021D000882341F18091520787FF24C08EE1ECE310
:1021E000F3E090E0815000F591110E94CF10E09152
:1021F0004907F0914A073097E1F080911601882352
:1022000059F08091520787FF07C080913A0380936D
:102210003B0385E080933A030280F381E02D8AE35B
:1022200093E0099486E0DBCF21912223D9F29F5FCE
:10223000D9CF08958091B60390918503981301C07A
:1022400008958F5F8770FACF9295907F890F982FAE
:10225000977086958695869523E0829FF0011124DC
:10226000E55AFC4F50E040E080E0219130E0092E3B
:1022700002C0369527950A94E2F721703327042E81
:1022800001C0220F0A94EAF7822B4F5F5F4F433061
:10229000510559F708959295907F890F982F97705F
:1022A00041E001C0440F9A95EAF786958695869598
:1022B00093E0899FF0011124E55AFC4F30E020E0C3
:1022C00070E05191DF011197CB01022E02C096956B
:1022D00087950A94E2F78170819585278423852765
:1022E0008C932F5F3F4F2330310559F70895882392
:1022F00041F080959091BA0389238093BA030C949E
:10230000D5100895882339F09091BA03982B9093B3
:10231000BA030C94D5100895E7E1F1E0808361835E
:1023200024E630E042E050E0BF0180E60C943C310E
:1023300090917C07943029F5809354077093560749
:10234000609355079093E9008FEF9091E8008150DA
:1023500095FD06C095ED9A95F1F700008111F5CF36
:102360008091E80085FF0DC050E040E063E070E040
:1023700084E597E00E9462048091E8008E77809364
:10238000E8000895BC0184E00C949811BC0183E03E
:102390000C9498119C0184E08093E9009FEF809158
:1023A000E800915085FD06C085ED8A95F1F70000A3
:1023B0009111F5CF8091E80085FF0CC050E040E01E
:1023C00066E070E0C9010E9462048091E8008E77A7
:1023D0008093E8000895CF93DF93EC01809116017C
:1023E0008823B1F18091520787FF32C060E284E018
:1023F0008093E9008FEF9091E800815095FD06C031
:1024000095ED9A95F1F700008111F5CF8091E800E4
:1024100085FF1BC08091160170E050E040E0811103
:1024200004C050E040E068E070E0CE010E94620429
:102430008091E8008E778093E80080E2FE01AAE5B3
:10244000B7E001900D928A95E1F7DF91CF91089561
:1024500068E081E0CDCF81E08093E00080E280936E
:10246000D8001092C9008FE19EE40197F1F700C0F7
:10247000000087E090EBDC018093BE079093BF07DC
:10248000A093C007B093C10788E19CE00FB6F89411
:10249000A895809360000FBE90936000FFCFCF930C
:1024A000DF93C7EAD1E060E0CE010E947C33219641
:1024B000C11584E0D807B9F7DF91CF9108956F92E5
:1024C0007F928F929F92AF92BF92CF92DF92EF92C4
:1024D000FF920F931F93CF93DF9384E2C82E85E082
:1024E000D82E07E011E0E801C05CD10936011CC01C
:1024F000F50185909490692DC7010E947C33682D69
:10250000C70101960E947C3382E0A80EB11C82E0D4
:10251000E80EF11CCE15DF0559F780E2680E711C3C
:10252000A0960C171D0731F07E0180E2E81AF10831
:102530005301DECF00541F4F80ECC80ED11C07386A
:1025400082E0180781F6DF91CF911F910F91FF90E4
:10255000EF90DF90CF90BF90AF909F908F907F9043
:102560006F900895CF93C82F6FEF811161E283E2DE
:1025700090E00E947C336FEFC11169E084E290E04B
:102580000E947C336FEFC11166E085E290E0CF914D
:102590000C947C3380E00E94B21260E086E290E00E
:1025A0000E947C330E945F120E944F1281E00C94C3
:1025B000B212CF93C92F682F84E090E00E947C3341
:1025C0006C2F82E290E0CF910C947C339091530772
:1025D00092FB222720F9281751F080FB92F9909363
:1025E000530780915207909153070C94D912089584
:1025F0000F931F93CF93DF9320E2629FE00111249A
:1026000050E0440F551FC40FD51F30EC839FC00D01
:10261000D11D1124CE0187960E945E33082F10E051
:10262000102F0027CE0188960E945E339801282B38
:10263000C901DF91CF911F910F910895462F8230EC
:1026400038F4763028F4603118F4672F0C94F812BF
:1026500090E080E00895CF92DF92FF920F931F9356
:10266000CF93DF936C0100918A078091BC03082B04
:10267000C7E0D0E010E0FC2EC8010C2E02C09595FA
:1026800087950A94E2F780FD0CC02197A0F7F12C02
:102690008F2DDF91CF911F910F91FF90DF90CF9001
:1026A0000895B6018C2F0E941E130E94470F0197B8
:1026B00061F3EECFCF93DF93EC010E942B13BE01A9
:1026C0000E941E13DF91CF910C94470FFC01808173
:1026D00091810E945A13292F2F7092959F709250CA
:1026E0009E3078F4E92FF0E0EB5FFB4C0C948B31DB
:1026F000803F19F020F4883E20F481E00895843F63
:10270000E1F380E00895883EC0F3813FD1F7F5CF33
:10271000822F869586958695089583E290E00E94A3
:102720005E33813289F484E290E00E945E33893026
:1027300059F485E290E00E945E3391E0863009F022
:1027400090E0892F8170089580E0FCCFCF9384E0E2
:1027500090E00E945E33C82F82E290E00E945E33D8
:10276000982F8C2FCF9108950F931F93CF93DF93C2
:102770008091E705882309F441C065EC8EEF0E9443
:102780008C1160E08DEF0E948C11D0E0C0E004EB72
:1027900010E0CE01B8010E9477318093170182E1E9
:1027A000FE01E851FA4FA8E1B1E001900D928A953F
:1027B000E1F724E630E043E150E067E171E080E6D4
:1027C0000E943C31892BD1F46296C63581E0D8074E
:1027D000E1F482EA8093170189E0EEE3F7E0A8E1F3
:1027E000B1E001900D928A95E1F724E630E04AE0ED
:1027F00050E067E171E080E60E943C311092E7050D
:10280000DF91CF911F910F910895C43BD10509F637
:1028100065EC8EEF0E948C1161E08DEF0E948C11AF
:10282000B8CFCF92DF92EF92FF920F931F93CF9387
:10283000DF930E948D3065EC8EEF0E948C1164E076
:102840008DEF0E948C1161E080E00E948C116FEF8F
:1028500081E00E948C1167E782E00E948C118FE377
:102860009CE90197F1F700C00000B0E0A0E0CFE5DF
:10287000D1E0FF24FA94EE24E394FD01EE0FFF1F54
:10288000EE0FFF1FCF018C589C4F6C019C012F5FF6
:102890003F4FF9018591682F62956F709491292FB0
:1028A0002295207F422F462B92959F70592F53706F
:1028B00096012E5F3F4FF9019491929596959695CA
:1028C00093702F5F3F4FF9012491322F330F330F55
:1028D000032F092B122F1295169516951370F601DA
:1028E0009491292F237030E096959695E82FE295E4
:1028F000EE0FEE0FE07C6E2F692B86958695782F74
:1029000073702C9FC0012D9F900D3C9F900D112442
:1029100089579B4F680F791FFB01F082480F591FA1
:10292000FA01F082800F911FFC01F0822A513A4F88
:10293000F901E0821196AC36B10509F09ECF65EC45
:102940008EEF0E948C1162E08DEF0E948C1107E8DF
:1029500014E0C0E0F80161918F018C2F0E948C116E
:10296000CF5FC43BB9F765EC8EEF0E948C1163E03A
:102970008DEF0E948C110BE315E0C0E0F80161912E
:102980008F018C2F0E948C11CF5FCB3AB9F7109238
:10299000E605DF91CF911F910F91FF90EF90DF90AF
:1029A000CF9008951F93CF93DF93EC01FC01E85380
:1029B000FD4F80816823C9F00E940032182F0E94C9
:1029C00000328F77782F20E8720F08F47FEF612FA5
:1029D000809192070E94820A462F282F672FCE01EE
:1029E000DF91CF911F910C941009DF91CF911F912E
:1029F0000895DF92EF92FF920F931F93CF93DF938F
:102A00008C01FC01E853FD4F8081682381F1D09057
:102A10009107D0919207C0919007EC2EF12C0E9463
:102A20000032282FC7018C549F4F68E671E00E9446
:102A300077318E199F0997FD039695958795959502
:102A4000879523706C2F289F600D11247D2D8D2F6D
:102A50000E94820A462F282F672FC801DF91CF914D
:102A60001F910F91FF90EF90DF900C941009DF9170
:102A7000CF911F910F91FF90EF90DF900895EFE8B5
:102A8000F7E081E3808380912F0190913001A09144
:102A9000310181839283A3838FE784838FEF8583C2
:102AA00046E050E06CE170E0CF010C946C3390E0B4
:102AB00080E00E946633893E9E4F11F40C948D1382
:102AC00080E0089569EE7EEF90E080E00E949A3306
:102AD00060E082E090E00E947C3360E083E090E080
:102AE0000E947C331092BC0360E084E090E00E947E
:102AF0007C3360E082E290E00E947C3360E085E01D
:102B000090E00E947C3360E086E090E00E947C339D
:102B10006FEF87E090E00E947C3340E050E0BA0124
:102B200088E090E00E948E3360E08DE090E00E94AB
:102B30007C3340E050E0BA0188E190E00E948E339F
:102B400060E087E190E00E947C3340E050E0BA0111
:102B50008CE190E00E948E3370E060E080E290E0D3
:102B60000E949A3340E050E0BA0188E190E00E9470
:102B70008E3380E00E94B2120E94CA1240E050E000
:102B8000BA018FE090E00E948E3340E050E0BA013D
:102B900083E190E00C948E331F920F920FB60F9248
:102BA00011242F933F934F935F936F937F938F9352
:102BB0009F93AF93BF93EF93FF938091E10082FFC8
:102BC00009C08091E20082FF05C08091E1008B7F07
:102BD0008093E1008091DA0080FF24C08091D800CA
:102BE00080FF20C08091DA008E7F8093DA00809190
:102BF000D90080FF9BC080E189BD82E189BD09B415
:102C000000FEFDCF81E080937C0780915707811102
:102C100009C00E9412040E94DD048091E2008460D9
:102C20008093E2008091E10080FF17C08091E20074
:102C300080FF13C08091E2008E7F8093E20080913C
:102C4000E20080618093E2008091D80080628093EE
:102C5000D80019BC85E080937C078091E10084FF57
:102C600029C08091E20084FF25C080E189BD82E116
:102C700089BD89B5982F917080FFFBCF8091D800D6
:102C80008F7D8093D8008091E1008F7E8093E1005A
:102C90008091E2008F7E8093E2008091E20081606B
:102CA0008093E20080917D07882309F445C084E089
:102CB00080937C078091E10083FF27C08091E20030
:102CC00083FF23C08091E100877F8093E10082E051
:102CD00080937C0710927D078091E1008E7F809326
:102CE000E1008091E2008E7F8093E2008091E2001B
:102CF00080618093E20042E060E080E00E94AB04EB
:102D00008091F00088608093F000FF91EF91BF9177
:102D1000AF919F918F917F916F915F914F913F9173
:102D20002F910F900FBE0F901F90189519BC109205
:102D30007C071092570776CF8091E30087FD93E0E0
:102D400090937C07B7CF78941F921FB61F921124DF
:102D50008F939F93AF93BF9380914E0790914F07AE
:102D6000A0915007B09151070196A11DB11D80930C
:102D70004E0790934F07A0935007B0935107BF9110
:102D8000AF919F918F911F901FBE1F9018959C012E
:102D90004FB7F89480914E0790914F07A09150073C
:102DA000B09151074FBF821B930B08952FB7F89432
:102DB00080914E0790914F07A0915007B091510715
:102DC0002FBF08954F925F926F927F928F929F9242
:102DD000AF92BF92CF92DF92EF92FF920F931F9329
:102DE000CF93DF93782E80911501871124C09091A5
:102DF0008F0793702091140130E081E09217130641
:102E000009F480E0817080932E0180919407909165
:102E10002D01981739F080932D0140E060E080E0AB
:102E20000E940E0926E2271560F0E72DF0E0ED5E26
:102E3000FB4C0C948B3181E0E5CF80912E01811108
:102E400002C0C0E084C140E060E080E00E940E0962
:102E5000F8CFC0912C01CC0FCC0F14E01C0F012F28
:102E60001D3608F00CE660919007709191078091F3
:102E700092070E94820AF62EE72ED82ED0E0C017C5
:102E800028F0C1E01C3608F462C1DBCFFE01E85334
:102E9000FD4F808190912D01892331F02D2D4F2DF3
:102EA0006E2DCE010E9410092196E9CFC0912C0110
:102EB000CC0FCC0F14E01C0F012F1D3608F00CE6D0
:102EC000E0909107F0909207D09190076D2F7E2DA2
:102ED0008F2D0E94820AD62EC72EB82E609193079E
:102EE0006D0F7E2D8F2D0E94820AF62EE72EA82EC2
:102EF000D0E0C01730F6FE01E853FD4F908180917D
:102F00002D01892359F02A2D4F2D6E2D90FD03C0E0
:102F10002B2D4D2D6C2DCE010E9410092196E9CF4D
:102F2000C0912C01CC0FCC0F14E01C0FF12E1D36DC
:102F300010F09CE6F92EE0909107D0909207209136
:102F4000930700E4029F012D1124D0E0CF1508F073
:102F500098CFFE01E853FD4F808190912D01892388
:102F6000B9F0FE01EE0FFF1FEF50FE4F80818295FA
:102F70008F7060919007809F600D11247E2D8D2DA4
:102F80000E94820A462F282F672FCE010E94100927
:102F90002196DCCFC0912C01CC0FCC0F14E01C0F7C
:102FA000F12E1D3610F0DCE6FD2EE0909107D0905A
:102FB00092072091930700E4029F012D1124D0E095
:102FC000CF1508F05ECFFE01E853FD4F8081909150
:102FD0002D018923D9F0FE01EE0FFF1FE051FE4FB6
:102FE0006081069FB0011124B5E075956795BA958B
:102FF000E1F780919007680F7E2D8D2D0E94820A47
:10300000462F282F672FCE010E9410092196D8CF76
:10301000C0912C01CC0FCC0F14E01C0F012F1D36DA
:1030200008F00CE6F0909007D0919107E09092079D
:103030006091930766956695669580918B07909150
:103040008C070E94780A0E94DE09805887FD8195CE
:10305000880F282F3E2D239F212D1124822F6F2D85
:103060007D2F0E94820AF62EE72ED82ED0E0C017C0
:1030700008F007CFFE01E853FD4F808190912D01AC
:10308000892331F02D2D4F2D6E2DCE010E94100978
:103090002196EDCF85EE98E00E94550C07C08BEB92
:1030A00098E0FACF80EC99E00E947C0DC82F4FC0C9
:1030B00081EA99E0F9CF86E899E00E94010DF6CF08
:1030C0008AE699E0FACF89EB98E0E6CF80EB98E0CA
:1030D000E3CF87EA98E0E0CF8EE898E0DDCF80E8A4
:1030E00098E0EBCF80E59AE0DFCF89E599E0DCCF8F
:1030F00085E499E0E2CF83E598E00E94A10CD6CF69
:1031000085E298E0FACF8EEE97E0F7CFC0912E01DE
:10311000C11141C06091930720E1620F08F46FEF85
:1031200080918B0790918C070E94780A6AE070E08A
:103130000E946331892B09F084CE0E9400326CE634
:1031400070E00E94773160912D010E94F914809106
:103150002C018F5F80932C01C1110CC082E0809301
:103160002B0180912E01811105C0711003C083E0F5
:1031700080932B01DF91CF911F910F91FF90EF90E2
:10318000DF90CF90BF90AF909F908F907F906F9087
:103190005F904F900895C0912C01CC0FCC0FE4E0CC
:1031A000FE2EFC0E0F2D6CE66F1508F40CE6D0E039
:1031B00010E0C017D1072CF0C1E08BE68F1538F670
:1031C00040CE60912D01CE010E94F9142196F1CFDD
:1031D000C0912E01C1111EC06091930720E1620FC2
:1031E00008F46FEF80918B0790918C070E94780A0A
:1031F00065E070E00E946331892B09F022CE0E94C5
:1032000000326CE670E00E94773160912D010E94DF
:10321000D2149DCFC0912C01CC0FCC0F74E0F72EAF
:10322000FC0E0F2DACE6AF1508F40CE6D0E010E074
:10323000C017D10734F0C1E0BBE6BF1508F087CF57
:1032400000CE60912D01CE010E94D2142196F0CFC4
:10325000C0912C01CC0FCC0F14E01C0F012F1D3698
:1032600008F00CE6E0909107F0909207D09190075B
:103270006091930766956695669580918B0790910E
:103280008C070E94780A0E94DE09805887FD81958C
:10329000880F682F2CE0629F612D11246D0F7E2D09
:1032A0008F2D0E94820AF62EE72ED82ED0E0C0176E
:1032B00008F0E7CDFE01E853FD4F808190912D018C
:1032C000892331F02D2D4F2D6E2DCE010E94100936
:1032D0002196EDCF8DEF99E0DFCE8DED97E0DCCE3E
:1032E000C0912C01CC0FCC0F64E0562E5C0E152D36
:1032F000F0E6F51508F410E680912E01882361F0C0
:1033000040E060E080E00E940E09E7E2F4E080E641
:10331000DF011D928A95E9F780912C01811115C07A
:1033200080912404909125040E94C71621E08931E0
:10333000910508F420E020932304499730F00E947F
:10334000D6169093250480932404D0E0C12ED12C6E
:1033500046E0842E912C5AEA452ECC15DD0534F03A
:10336000C1E0BFE5B51508F0F2CE6BCDCE01B401DA
:103370000E9477315B018C0134E0000F111F3A95F8
:10338000E1F7F801E95DFB4FE60FF71F6080F801F8
:10339000E057FE4FE60FF71F80818F3F59F1E82E6F
:1033A000F12CF701E853FD4F808190912D01892385
:1033B00009F1362D25E5321B08F430E070919107B4
:1033C000242D462D240F08F42FEF40919207822FD1
:1033D000880F820F8E5F682F649F612D1124862FC6
:1033E000642D631B0E94820A462F282F672FC70176
:1033F0000E94100980912304882359F0262D31E082
:10340000231B08F420E0095D1B4FA00EB11ED5015F
:103410002C932196A2CF80912E01882371F040E059
:1034200060E080E00E940E09E7E2F4E080E6DF0160
:103430001D928A95E9F71092260407E214E0F12C18
:10344000E12C55245A9480ED882E912C90EC492E35
:103450002FE2A22EB12C6701E801612C8091260495
:103460008629C9F50E94003285359540A4F5F801FA
:103470005082F601E057FE4FE081EF3F99F028813E
:10348000F0E0213D70F1205D330B429EC001439E70
:10349000900D1124B5010E946331262F4FEFCF010B
:1034A0000E94100963946096F0E1CF0ED11C26E0D3
:1034B0006212D4CF3FEFE31AF30A0F5F1F4F40E1D0
:1034C000E416F10441F6809126048F5F8D3198F463
:1034D00080932604B6CC888181508E3F50F6888335
:1034E000C8CF259DC0011124B4010E946331462F2D
:1034F00020E060E0D4CF1092260447E654E025E0B7
:103500003EEFFA0187E294E0253039F4DC01A05B5C
:10351000BF4F6C916F3F09F43C9360816F3F11F492
:103520003083608B0196319664E08733960761F7AC
:103530002150405151092111E4CF83CC86ED97E011
:103540000E94DE0BB3CD80ED97E0FACF8091950716
:1035500021E0382F321B08F430E0832F67EB77E04F
:103560000E94160BA3CD67EB77E080E0F9CF809146
:10357000950721E0482F421B08F440E0842F6CE7B8
:1035800077E0EECF6CE777E0F0CF8091950721E010
:10359000682F621B08F460E0862F6AE477E0E0CFD2
:1035A0006AE477E0E2CF8091950721E0382F321B63
:1035B00008F430E0832F64E377E0D2CF0E94D61680
:1035C0009C0190911F0480912004982B21F030934E
:1035D0001C0420931B049091210480912204982BB9
:1035E00021F030931A0420931904E0914907F091D7
:1035F0004A07309749F082E080931D040480F581EA
:10360000E02D8DE194E00994089590E080E00E941F
:10361000140690E080E00E94FE051092B90310921B
:10362000B8030E94D51086E0EDE1F4E0DF011D92C1
:103630008A95E9F710921704109216041092180454
:103640000C94DE1A80938A070C94051B80918A07DC
:10365000982F9670963019F488600C94221B877FFF
:10366000FCCF21E030E001C0220F8A95EAF72095D7
:1036700080918A0782230C94221B9091B703809536
:1036800089238093B703282F277039F4282F082E19
:10369000000C330B9217130621F49091530792FFFD
:1036A00007C08595859585950E94311B1092B703BB
:1036B000089521E030E001C0220F8A95EAF7809159
:1036C0008A07822B0C94221B8093BC030C94051B4D
:1036D0001092BA0380911601ECE3F3E0882359F0CD
:1036E0008091520787FF07C08EE1DF011D928A9506
:1036F000E9F70C94051B86E0F8CF1F93CF93DF9377
:10370000CDB7DEB7AA970FB6F894DEBF0FBECDBF18
:103710008EE797E02091F100DC012D93CD01B7E019
:1037200086389B07B9F780917F07833009F471C011
:10373000B8F4813009F448C0823009F4B2C08091F5
:10374000E80083FF88C280917E0790917F079A30BE
:1037500008F081C2E92FF0E0E65CFB4C0C948B3161
:103760008A3009F48DC08B3009F470C0893039F784
:1037700080917E07813219F78091820790918307AB
:10378000009711F00297D9F68091E800877F809327
:10379000E8008091E80082FF37C09091F3008091AB
:1037A000F200029729F48091F1008B7F813021F49F
:1037B0008091F100809359078091E8008B77809386
:1037C000E8000E948C04BBCF80917E07813A09F00B
:1037D000B6CF8091E800877F8093E80080918207D0
:1037E00090918307892B61F460E28AE597E070E0AD
:1037F0000E943E058091E8008B778093E8009FCF80
:1038000060E090E080E0F3CF80917C078111C1CF30
:1038100096CF80917E07813A09F091CF80918207FF
:1038200090918307892B09F08ACF8091E800877FE8
:103830008093E8008091E80080FFFCCF8091160122
:103840008093F1008091E8008E77B9CF80917E0758
:10385000813209F074CF8091820790918307892B80
:1038600009F06DCF8091E800877F8093E8000E9487
:103870008C0480918007809316010E94681B5FCFA3
:1038800080917E07813209F05ACF8091E800877FCE
:103890008093E8000E948C048091810780935807F0
:1038A0004ECF80917E07813A09F049CF8091E800A0
:1038B000877F8093E8008091E80080FFFCCF8091B3
:1038C0005807BECF803899F0823809F0C4C1809182
:1038D00082078F70873008F0BEC18093E900809125
:1038E000EB0085FB882780F91092E90006C08091E3
:1038F0007A0790917B07911182609091E800977F01
:103900009093E8008093F1001092F1008091E8001C
:103910008E779DC1882309F48BC1823009F09BC149
:103920008091800781118EC1809182078F702FEF67
:10393000280F263008F08FC18093E9002091EB001A
:1039400020FF80C1933031F48091EB00806280933E
:10395000EB0078C19091EB0090619093EB0021E037
:1039600030E001C0220F8A95EAF72093EA00109216
:10397000EA008091EB008860EACF81116CC1109160
:1039800080071F778091E3008078812B8093E3008C
:103990008091E800877F8093E8000E948C048091EA
:1039A000E80080FFFCCF8091E30080688093E30013
:1039B00082E0111183E080937C074DC180588230F2
:1039C00008F049C120918007309181072C3DE3E048
:1039D0003E07A1F583E08A838AE289834FB7F89492
:1039E000DE01139620E03EE051E2E32FF0E0509339
:1039F0005700E49120FF03C0E295EF703F5FEF7046
:103A00008E2F90E0EA30C0F0C7968D939D932F5F84
:103A1000243159F74FBF8091E800877F8093E800F9
:103A20006AE270E0CE0101960E943E058091E800B6
:103A30008B778093E8000FC1C096E7CF8091820713
:103A400090918307432F55274330510509F44AC00D
:103A500078F54130510509F47AC08BE590E0E4EA4D
:103A6000F6E04230510509F0F6C02091E800277FCA
:103A70002093E800209184073091850782179307EF
:103A800008F49C0140E02115310509F065C04111A1
:103A900063C08091E80082FDC9CF80917C078823B4
:103AA00029F2853019F28091E80083FFF2CFBECF72
:103AB0004132510509F43CC04232510509F0CBC0F6
:103AC0008330910508F0C7C0FC01EE0FFF1FEC57D3
:103AD000FE4F0190F081E02D8F579E4FDC018C91BD
:103AE00090E01AC0332721303105D1F0211531057E
:103AF00061F02230310509F0AEC0E1E1F7E0E49178
:103B00008E2F90E0E1E1F7E007C0E3E4F7E0E49115
:103B10008E2F90E0E3E4F7E0009709F49CC0A5CF76
:103B2000E1E3F7E0E4918E2F90E0E1E3F7E0F4CFFA
:103B30008330910508F08FC0880F991FFC01E6576C
:103B4000FE4F0190F081E02D89E090E08ECF82E180
:103B500090E0EFEFF6E089CF80917C07882309F4AD
:103B600065CF853009F462CF8091E80083FD5ECF98
:103B70008091E80082FD8DCF8091E80080FF83CFA7
:103B80009091F3008091F2002115310519F08830F1
:103B9000910550F041E0089709F040E08091E8007D
:103BA0008E778093E8006FCF44914093F100319677
:103BB000215031090196E8CF803809F04CC080913E
:103BC000E800877F8093E80080917D078093F10073
:103BD0009DCE811140C0109180071230E0F5809198
:103BE000E800877F8093E80010937D070E948C0493
:103BF000112311F084E005C08091E30087FDFACF26
:103C000081E080937C0742E061EC81E00E94AB049C
:103C100042E261EC84E00E94AB0442E261EC82E0AB
:103C20000E94AB0442E260EC83E00E94AB0413C04C
:103C300080918007813079F481E0933009F080E051
:103C400080937B071092E9008091E800877F809342
:103C5000E8000E948C048091E80083FF0AC08091F4
:103C6000E800877F8093E8008091EB00806280937A
:103C7000EB00AA960FB6F894DEBF0FBECDBFDF9162
:103C8000CF911F9108951F920F920FB60F9211249A
:103C90002F933F934F935F936F937F938F939F9354
:103CA000AF93BF93CF93DF93EF93FF93D091E9004E
:103CB000DF708091EC00C82FC17080FDC0E81092C9
:103CC000E9008091F000877F8093F00078940E9453
:103CD0007D1B1092E9008091F00088608093F000D5
:103CE000CD2BCF70C093E900FF91EF91DF91CF9181
:103CF000BF91AF919F918F917F916F915F914F9104
:103D00003F912F910F900FBE0F901F901895882311
:103D1000B1F19CEF980F913A38F4682F8AE393E061
:103D20000E949F050C94D51090E2980F983088F46B
:103D3000877021E030E0A90102C0440F551F8A9529
:103D4000E2F7CA0180959091BA0389238093BA0360
:103D5000E9CF9BE5980F933020F490E080E00C943D
:103D6000140698E5980F973120F490E080E00C94C9
:103D7000FE05803F20F00E94D60D0C94DE1A0895B7
:103D8000CF93C82F882309F46EC08CEF8C0F813A33
:103D9000B8F580911601882311F18091520787FFB1
:103DA0001EC0EC2FE695E695E695F0E0E65CFC4F4C
:103DB000828190E04C2F477021E030E002C0220F5A
:103DC000331F4A95E2F782239323892B89F06C2FC6
:103DD0008AE393E00E949F050E94D51009C0ECE39E
:103DE000F3E08191C81799F383E0E234F807C9F74B
:103DF0006C2F8AE393E00E94C905CF910C94D510F3
:103E000080E28C0F883068F4C77021E030E001C098
:103E1000220FCA95EAF78091BA03822B8093BA03E6
:103E2000ECCFEBE5EC0FE33040F4F0E0EE5CFE4F5E
:103E3000808190E0CF910C941406E8E5EC0FE73117
:103E400050F4F0E0EE0FFF1FEB5CFE4F808191819C
:103E5000CF910C94FE05C03F30F08C2F0E94910E44
:103E6000CF910C94DE1ACF9108951F93CF93DF93D7
:103E7000182FD0E0C0E0893311F4C0E5D0E0812FE5
:103E80000E94C01E209731F4812FDF91CF911F91A6
:103E90000C94871E8FE99FE00197F1F700C00000A6
:103EA0002197F0CF0F931F93CF93DF93C62FD42F7B
:103EB000022FFC0182818823A1F0609388070E9471
:103EC000D6169093870780938607C77081E001C05C
:103ED000880FCA95EAF7DF91CF911F910F910C944B
:103EE000821180918807681335C080918607909170
:103EF00087070E94C716883C910560F510E21D0FE8
:103F0000CD17B9F080E28C0F883040F4C77081E0A3
:103F100001C0880FCA95EAF70E947711183048F45B
:103F200081E09D2F977001C0880F9A95EAF70E9453
:103F30008211802F0E94351F183098F4D77081E0CD
:103F400001C0880FDA95EAF7DF91CF911F910F91A9
:103F50000C947711C77081E001C0880FCA95EAF709
:103F6000F3CFDF91CF911F910F9108953F924F9220
:103F70005F926F927F928F929F92AF92BF92CF92F9
:103F8000DF92EF92FF920F931F93CF93DF9300D0B6
:103F900000D00F92CDB7DEB78C01FC0183819481F4
:103FA000892B31F08081918189238F3F09F053C59E
:103FB0000F900F900F900F900F90DF91CF911F9166
:103FC0000F91FF90EF90DF90CF90BF90AF909F90B8
:103FD0008F907F906F905F904F903F9008950E94D8
:103FE0002B13F82E682F89819A810E944B116981C9
:103FF0007A818F2D0E941E137C01F8018281882313
:1040000009F4EFC4970122513F452031310508F0F2
:1040100015C58FEF93E00E945E33FEEEEF0E57EA78
:10402000852E99249394882381F18091B70387701A
:1040300009F4BECFF8018281882309F4B9CF82E068
:104040000F900F900F900F900F90DF91CF911F91D5
:104050000F91FF90EF90DF90CF90BF90AF909F9027
:104060008F907F906F905F904F903F900C943D1B8E
:10407000811424E09206C9F2C4010E945E338111CA
:1040800001C0EA943FEF831A930AE110F1CF1C823A
:104090001B82442443944AE0342E74018FEFE81AC3
:1040A000F80AC4010E945E3389831A82882309F4C6
:1040B000BCCF9FEF980F933000F58A83498292E03E
:1040C000890E911CC7010E945E338B83882309F4FB
:1040D000ACCFFE0131967F01F70120812223E9F266
:1040E000213009F049C091818281913041F4F2E0A0
:1040F000EF0EF11C0E94351F09C04701EACF923034
:1041000049F422E0E20EF11C0E94C01E3FEFE31AC8
:10411000F30AE2CF933031F432E0E30EF11C0E9457
:10412000871EF4CF943021F08FEFE81AF80AEECF13
:1041300092E0E90EF11C30E020E0B7016F5F7F4FA5
:10414000F70141818053990B8A30910550F021503D
:104150003109E0F28FE99FE00197F1F700C000001C
:10416000F6CF329EF001339EF00D11249C012E0FEC
:104170003F1F842F7B01E1CFE22FF0E0EC50FE4F98
:104180005490822F86958695869590E0FC01EC519F
:10419000FE4F64902770712C022E02C075946794B4
:1041A0000A94E2F7E1E06E227724FC01EC52FE4F24
:1041B000A490B12C022E02C0B594A7940A94E2F701
:1041C000F1E0AF22BB24FC01EC53FE4FC490D12C94
:1041D00002C0D594C7942A95E2F721E0C222DD24DB
:1041E0006114710419F081EE0E94C01EA114B10483
:1041F00019F086EE0E94C01E852D0E94351FAB2847
:1042000019F086EE0E94871E672819F081EE0E9441
:10421000871ECD2809F47ACF8CE26CCF81E00E9412
:10422000591B0E94261B01CF81E00E94311BF9CF50
:1042300082E0FBCF95EFE9169CE5F90609F462C030
:1042400008F45CC027E245EE66EEF6EFEF16FCE5FB
:10425000FF0609F4EFC3882309F40EC410928807FF
:1042600022E0E2162CE5F20608F445C136E1E31639
:104270003CE5F30630F0C7018A5F9C45099708F0DA
:104280003AC10E94A613909353078093520780E18E
:10429000E8168CE5F80609F4FDC008F07CC0E8E0FB
:1042A000EE16ECE5FE0609F4E7C008F048C024E08D
:1042B000E2162CE5F20609F4D7C058F582E0E816BC
:1042C0008CE5F80609F4CAC080915207826093E039
:1042D000E9169CE5F90609F4C4C080915207909153
:1042E00053070E94D9120E94681B9FCE27E245EE19
:1042F00065EEA0C326E241EE60EE9CC327E245EEE8
:1043000064EE98C326E241EE62EE94C328E241E0F7
:10431000EFCF809152078061E6E0EE16ECE5FE06F5
:1043200009F49FC0809152078860F7E0EF16FCE522
:10433000FF0608F496C080915207806292C0809177
:1043400052078D7F2CE0E2162CE5F20609F489C0B5
:1043500060F48AE0E8168CE5F80609F497C008F4E2
:104360008FC0809152078E7F7CC080915207877FDB
:10437000EEE0EE16ECE5FE0609F473C080915207FC
:104380008B7FFFE0EF16FCE5FF0608F46AC0809122
:1043900052078F7E66C02BEFE2162CE5F20609F479
:1043A00067C068F583E1E8168CE5F80609F47AC081
:1043B00090F4E1E1EE16ECE5FE0609F46FC0F2E1DF
:1043C000EF16FCE5FF0609F088CF0E94681B80917C
:1043D00052078F7746C025E1E2162CE5F20609F474
:1043E00069C008F47DC08AEFE8168CE5F80609F08C
:1043F00074CF809153078160809353076ECF9FEFF6
:10440000E9169CE5F90609F451C0A0F48091530720
:104410008D7FFDEFEF16FCE5FF0671F380915307EA
:104420008E7F2EEFE2162CE5F20630F380915307D3
:104430008360E2CF31E0E3163DE5F30609F459C0AD
:1044400008F444C060E092E0E9169DE5F90609F041
:1044500044CF8EE090E00E947C333FCF80915207A2
:1044600081608093520739CF809152078460F9CFE1
:10447000809153078260C0CF809152078064F1CF52
:104480000E94681B809152078068EBCF8091520791
:104490008C60E7CF809152078F7DE3CF80915207E8
:1044A0008F7BDFCF80915207837FDBCF80915307D3
:1044B0008C7FA2CF8091520782FB992790F921E04F
:1044C000922790FB82F990FB83F9CBCF8091530721
:1044D000982F909591708E7F892B90FB81F98CCFCE
:1044E0000E94681B90915207892F97FB87F980588B
:1044F000B8CF61E0AECF8091BA03E6E1EE16ECE50D
:10450000FE0609F0C8C28A7A91E009F490E090931F
:104510005A0369E2811165E38AE393E00E94C905C9
:104520000E94D51082CD80918F0791E089278093DA
:104530008F0710922B019093890777CD44E157E0C4
:104540006DE177E00E94360670CD4DE157E064E101
:1045500077E0F8CF42E057E06BE077E0F3CF4BE055
:1045600057E062E077E0EECF4AEE56E066EF76E0A5
:10457000E9CF46EF56E06AEE76E0E4CF4EED56E046
:1045800062ED76E0DFCF4AEB56E066EC76E0DACF1C
:1045900046EC56E06AEB76E0D5CF81E00E94ED0371
:1045A00044CD8DE0FBCF9BE5E9169DE5F90611F1C1
:1045B000ECE5EE16EDE5FE0609F09FC2809153078B
:1045C00082FB882780F991E089270E94E61295C234
:1045D0000E94681BFFEF24E33CE0F1502040304094
:1045E000E1F700C000000E942B120E9462151DCD51
:1045F00081E0EBCF80E0E9CFC7010E942411D82EE3
:104600008BC22F2D2F70C22E8F2D807F19F0C29458
:1046100090EFC922DD20C9F0CC2069F080E28E0D38
:10462000883010F081100BC08091BA03C82AC09264
:10463000BA030E94D5108E2D0E94C01E19C0809111
:10464000B903C82AC092B903F4CF8E2D0E94871EE9
:10465000CC2071F0C09480E28E0D883010F0811073
:104660003DC08091BA03C822C092BA030E94D510FF
:10467000292D2850330B2430310510F40E942A06CE
:10468000AA2009F495CC8091B70380FD91CCF80164
:1046900012828595859585950E94591BC8010E94B7
:1046A000B61F8091B7038595859585950F900F90DE
:1046B0000F900F900F90DF91CF911F910F91FF906E
:1046C000EF90DF90CF90BF90AF909F908F907F90B2
:1046D0006F905F904F903F900C94311B8091B90385
:1046E000C822C092B903C2CF3F2D3F70B32E8F2D89
:1046F000807F803219F0B29480EFB822882071F068
:1047000081E0881681F1DD20D9F1CC2091F1F8010A
:10471000858180FF90CF8F7085832BC0DD20B1F025
:104720009091BB038B2D892BC11003C00E94821175
:104730009FCFE1E0CE12FACF2091530722FD98CF10
:10474000891709F495CF8093BB0392CFC11006C09F
:104750000E94CF108B2D0E9477118ACFF1E0CF16E7
:1047600009F486CFF5CFDD2031F025E02C1508F4D3
:104770007FCF8B2DDBCF34E03C1508F479CFEACF27
:10478000CC2041F3F9E38F1209C02FEF37EE83E01D
:10479000215030408040E1F700C000008E2D0E9483
:1047A000871E66CF8F2D86958695837061F0813048
:1047B00009F05ECFC7019370D11002C090E080E095
:1047C0000E94FE0555CFC7019370D11002C090E042
:1047D00080E00E9414064CCF8E2DDD2029F00E942F
:1047E000910E0E94DE1A44CF0E94D60DFACF8F2D73
:1047F000837091F5D1103CCF4E2D42954695477070
:10480000440F440F8E2D8F70042E01C0880F0A9420
:10481000EAF72E2D2071E4FE07C02FE030E001C042
:10482000220F4A95EAF720953F2D3695369533703D
:10483000323069F050F44091BC03313029F0822BC2
:1048400084230E94641B14CF842B822BFACF282B45
:104850008091BC038227F5CF8695DD2011F08F2D46
:104860008170882309F404CF4E2D429546954770F8
:10487000440F440F8E2D8F70042E01C0880F0A94B0
:10488000EAF72E2D2071E4FE07C02FE030E001C0D2
:10489000220F4A95EAF720953F2D369536953370CD
:1048A000323069F050F440918A07313029F0822B80
:1048B00084230E94221BDCCE842B822BFACF282B50
:1048C00080918A078227F5CF9F2D9F70F92EDD20DA
:1048D00029F0892F0E94591B8E2D28CF8E2D0E94E2
:1048E00077118F2D0E94311BC3CE8E2DE2EF8E16D5
:1048F00009F44BC0E81570F0F0EF8F1639F121EF95
:104900008216D9F1DD2009F45CC0C11094CE8F2D40
:104910008F7138C033EF8316E9F194EF8912F2CF2B
:10492000DD2009F443C02F2D2F71F22E822F0E941B
:10493000591B8091530782FD07C038E0F39EC001E8
:10494000112483608093B7038F2D1CC0DD2081F07C
:10495000E4E0EC1508F48CCE2F2D2F7181E090E06F
:1049600001C0880F2A95EAF790918A078927A1CF7D
:10497000F5E0FC1508F47CCEEFCF8F2D8F71DD2094
:1049800009F4B0CF0E94591B73CE8F2D8F71DD209B
:10499000C9F3A8CF80E0DD2009F48BCF9F2D9F7154
:1049A00081E001C0880F9A95EAF783CF81E00E94E9
:1049B0003D1B81E08C1508F05BCE82E00E943D1B20
:1049C00057CECC2059F0893309F0E8CE9FEFE7EEBF
:1049D000F3E09150E040F040E1F7DECE8F2D8F7193
:1049E00081CFF0E1EF16FFE5FF0609F41DCC21E1D0
:1049F000E2162FE5F20609F41BCC93EFE9169CE5CD
:104A0000F90609F477CC08F015CCF8EDEF16FCE5C3
:104A1000FF0609F46BCC29EDE2162CE5F20609F449
:104A200075CC37EDE3163CE5F30609F014CC26E22D
:104A300041EE61EEC8010E94521FF7CA30E1E31651
:104A40003FE5F30609F4EACB91E1E9169FE5F906A3
:104A5000A1F682E0E4CB85E0DE01119601900D9293
:104A60008A95E1F7F801228189819A812111B7CADB
:104A70000E942411F82EBBCAF6E1EF16FCE5FF06F2
:104A8000E1F580915A0369E2811165E38AE393E0DD
:104A90000E949F0545CD82722AECE2162CE5F206B3
:104AA00009F46CCD08F086C095ECE9169CE5F90692
:104AB00009F450CD08F065C0F3ECEF16FCE5FF06F5
:104AC00009F43CCD08F041CD32ECE3163CE5F306A9
:104AD00009F429CDFAE5EF16FDE5FF0609F488CDC6
:104AE00008F061CDE1143CE5F30609F471CD8EEDDB
:104AF000E8168CE5F80609F478CDF8018281E080AB
:104B0000F180882309F478CDC7010E942B13D82E99
:104B1000682FC7010E944B11B7018D2D0E941E13F3
:104B20000E94470F7C01882EF801D280C580C29474
:104B30003FE0C3228091B7038770A1F0AD2CDD2048
:104B400091F08F2D807F803421F080E28E0D8830AF
:104B500048F082E00E943D1B8091B7038770AA2431
:104B6000A3948111A12C9F2C92942FE09222FBE020
:104B7000F91508F47DCDE92DF0E0EC5BFB4C0C94CD
:104B80008B3197ECE9169CE5F90609F4EDCC08F4B5
:104B9000E6CCF8ECEF16FCE5FF0609F4EACC42EDB2
:104BA00056E06EED76E029ECE2162CE5F20609F40B
:104BB000C9CC90CF3FECE3163CE5F30609F4F1CC09
:104BC000B0F4ECECEE16ECE5FE0609F4E1CC08F4EA
:104BD000DACC2DECE2162CE5F20609F4DECC85E009
:104BE0003EECE3163CE5F30609F4D8CC73CF86ED32
:104BF000E8168CE5F80640F482E191EDE9169CE5B3
:104C0000F90608F4CBCC11CAEDE5EE16FE0609F460
:104C10000CCA60CF1F93CF93DF9380918403807F72
:104C2000A9F480918103882389F08091B603D09103
:104C3000850360917F0370918003A0918203B091FE
:104C40008303C62FC72316E0D81304C0DF91CF918A
:104C50001F91089590E0109711F0CF3F19F401963D
:104C60008770F2CF189F9001199F300D1124F90120
:104C7000EA57FC4F41814713F2CF40814613EFCFF3
:104C800042814111ECCF438154814A1B5B0B483C6C
:104C9000510528F7809184038F708061809384038D
:104CA000F901E557FC4F80818F70806180838FE729
:104CB00093E00E94B61FDF91CF911F910C941A11BF
:104CC000AF92BF92CF92DF92EF92FF920F931F931A
:104CD000CF93DF93CDB7DEB761970FB6F894DEBF01
:104CE0000FBECDBF8C0185E0F801DE011D9601905D
:104CF0000D928A95E1F7F801E2808FE7A82E83E014
:104D0000B82E60918203709183036115710509F4D7
:104D100032C190917F0340918003892F84238F3F7C
:104D200009F429C120813181C380D480F0908103AE
:104D3000F601E61BF70BFF2009F4E8C0809184031D
:104D4000582F507FE83CF10508F0ABC0511177C0F7
:104D5000FE2C431321C092131FC0E1101DC08F70A1
:104D6000806180938403C5010E94B61F80918403F3
:104D7000F80185838F2D61960FB6F894DEBF0FBEC4
:104D8000CDBFDF91CF911F910F91FF90EF90DF90FA
:104D9000CF90BF90AF900895CD2829F0822F832324
:104DA0008F3F09F003C180E0F82FF170DF2E80FF04
:104DB0003CC08091B6034091850356E0841315C032
:104DC0002D873E878D859E850E945A13292F229517
:104DD0002F702230F0F0243018F59F70F1F0F801B8
:104DE0009581907FD1F4D12C1EC090E0589FF001A6
:104DF000599FF00D1124EA57FC4F6181361306C00C
:104E00006081261303C06281E6120FC0019687708D
:104E1000D5CF9F7011F0882331F3805E883018F36E
:104E2000C8010E94B61FFD2CA5CFEE2009F4A2CF29
:104E300080918403816080938403F12C9BCF431382
:104E400006C0921304C0F801EE2009F479C0C8012D
:104E50000E946613882309F1EE20F9F08091840303
:104E6000803270F020917F033091800338872F8348
:104E70001986DB86CA868C87CE0107960E94B61FEC
:104E800086E0F801AFE7B3E001900D928A95E1F773
:104E90000E940A26FF24F3946DCFC8010E94B61F1A
:104EA000F9CF51110AC08FE793E00E94B61F86E048
:104EB000F50111928A95E9F7C0CF43130FC0921301
:104EC0000DC0E1100BC0F8018583C8010E94B61F18
:104ED00086E0F50111928A95E9F74CCFC8010E944E
:104EE00066138823D1F2EE20C1F2809184038032D0
:104EF00038F220917F03309180033A8329831B820B
:104F0000DD82CC828E83CE010196B8CFE83CF105DC
:104F1000F8F6FE2CEE2009F243131FC092131DC0B9
:104F20008091840380FD10C0982F907F69F0F80174
:104F30008583903F31F0982F907F905F8F70892B01
:104F40008583C8010E94B61F86E0F801AFE7B3E091
:104F500001900D928A95E1F70DCFC8010E9466136A
:104F600081118ECF80918403816080938403C80176
:104F70000E94B61FFFCEEE2009F48FCFC8010E9419
:104F80006613F82E882309F488CF86E0F801AFE78E
:104F9000B3E001900D928A95E1F780917F039091A3
:104FA00080030E945A130E940A26E4CE81E08E25D7
:104FB000FBCE1F93CF93DF93CDB7DEB767970FB6C6
:104FC000F894DEBF0FBECDBF4B8B5C8B6D8B7E8BA1
:104FD0008F8B61111092B9031A8A198A85E0FE013C
:104FE0007396DE011D9601900D928A95E1F786E099
:104FF000FE013D96DE01179601900D928A95E1F72C
:10500000CE0107960E946026811112C086E0FE0143
:105010003796DE01119601900D928A95E1F78A8507
:105020009B85892B29F088859F8189238F3FB1F546
:1050300016E08091B6039091850389131DC0679691
:105040000FB6F894DEBF0FBECDBFDF91CF911F9199
:10505000089596E0929FD001939FB00D1124AA5716
:10506000BC4FFE01319601900D929A95E1F7809325
:1050700085030E941A11DCCF819FC00111248A5739
:105080009C4F0E9460268823D1F28091B60390E065
:105090000196877099278093B603CBCF2091850323
:1050A00030E0C9010196877099274091B6034817EF
:1050B000190679F60E94681B109285031092B603B8
:1050C00086E0EFE7F3E0DF011D928A95E9F7B0CFC4
:1050D0002F923F924F925F926F927F928F929F9208
:1050E000AF92BF92CF92DF92EF92FF920F931F93F6
:1050F000CF93DF93CDB7DEB72C970FB6F894DEBF12
:105100000FBECDBFAE014F5F5F4F6A018CE0DA0189
:105110001D928A95E9F703E611E07A01AA24A39487
:10512000B12CF80181918F018F3F09F44BC0F894A5
:10513000E82FE295EF70F0E021A18F70A50102C089
:10514000440F551F8A95E2F7CA01922F982B91A31D
:1051500092A18095892382A3789400C0E9E6F1E0CA
:1051600030E020E0912C812C81918F3F09F4ACC07C
:10517000A82FA295AF70B0E090964C9150E08F7040
:1051800002C0559547958A95E2F740FD9DC0C5013F
:10519000022E02C0880F991F0A94E2F7882A992AE2
:1051A0002F5F3F4F20313105F9F6F80131978081AB
:1051B0008F3F11F00E94ED0E50EA5A95F1F7D7019A
:1051C0008D929C92B2E0EB0EF11CE1E009361E07D5
:1051D00009F0A7CF4CE050E0B60182EC93E00E94CA
:1051E00038338C01FF24F394892B09F4F12C011539
:1051F000110541F08CE0F601A2ECB3E001900D92B4
:105200008A95E1F75090BF03552009F46AC00E94C7
:10521000D6162091BD033091BE03AC01421B530B47
:105220009A019093BE038093BD034F3F510511F047
:1052300008F04DC0452B09F444C0E22E1092BF0384
:105240002091C0033091C103EAE0F4E062EC73E026
:10525000390150E6650E711C412C88248394912CF1
:10526000190150E040E0D101DD901D01DD20D1F0B9
:10527000CD010197ED1470F1DC011C92C080D1804A
:10528000DB018D919C918C259D255401042E02C03B
:10529000AA0CBB1C0A94E2F78A219B218C259D2530
:1052A000918380834F5F5F4F40315105E1F6205F6E
:1052B0003F4F32966E5F7F4F6216730689F64092BB
:1052C000BF03012BB1F44DC090E080E067CF2FEF1A
:1052D00030E0B3CFDE18DC01DC92452CE3CF108246
:1052E00033C0012BF1F10E94D6169093BE03809338
:1052F000BD032091C0033091C1036091BF03A2ECB4
:10530000B3E08AE0C82E84E0D82EAA24A394B12C5E
:1053100075E04D915D91F601819191916F01482762
:105320005927F90190E080E08501082E02C0000FA6
:10533000111F0A94E2F704231523012B81F2108137
:10534000111102C0708361E03196019680319105A0
:1053500059F7205F3F4FF3E0AE3CBF07D1F66093B3
:10536000BF038F2D2C960FB6F894DEBF0FBECDBFB6
:10537000DF91CF911F910F91FF90EF90DF90CF9031
:10538000BF90AF909F908F907F906F905F904F9065
:105390003F902F9008951F921FB61F9211248F9354
:1053A0009F93AF93BF9380914D07811113C080915C
:1053B0004E0790914F07A0915007B0915107419629
:1053C000A11DB11D80934E0790934F07A0935007E6
:1053D000B0935107BF91AF919F918F911F901FBEC6
:1053E0001F901895CDB7DEB7C254D1090FB6F89407
:1053F000DEBF0FBECDBF84B7877F84BF0FB6F894E2
:10540000A895809160008861809360001092600090
:105410000FBE80E890E00FB6F894809361009093FF
:1054200061000FBE85B7806885BF85B7806885BF7E
:105430008BEE9EE090933503809334030E94120418
:105440000E94DD048091E20084608093E200789401
:1054500080917C078823A1F01091E9001F70909142
:10546000EC00892F817090FD80E8182B1092E900E4
:105470008091E80083FD0E947D1B1F701093E9005E
:1054800082E084BD93E095BD9AEF97BD80936E0056
:105490000E948D13811102C00E94CA1203E611E01E
:1054A000D8018D918D018F3F11F00E94ED0EB1E07A
:1054B00009361B07A9F709E611E0F80181918F0170
:1054C0008F3F11F00E94ED0EF1E009371F07A9F799
:1054D000E2ECF3E0AAE0B4E0119211921D921D9269
:1054E00023E0EE3CF207C1F780E690E00E94103224
:1054F000AC019093C1038093C00330E020E0FA0137
:10550000E20FF31F90E111929150E9F7205F3F4FB6
:1055100020363105A1F70E945715811102C00E9463
:10552000621582E090E00E945E338093FD030E944A
:10553000A61390935307809352070E9468288FE325
:105540009CE90197F1F700C000000E946828809153
:105550000A0480FF08C06FEF7FEF90E080E00E94B8
:105560009A330E942B1283E090E00E945E330E94E7
:10557000641B0E941114109295078FEF9FEF909378
:10558000AF078093AE079093B1078093B0079093D5
:10559000B3078093B2079093B5078093B4079093B5
:1055A000B7078093B6079093B9078093B807909395
:1055B000BB078093BA079093BD078093BC071092F6
:1055C000CE039093E8038093E7039093EA038093DC
:1055D000E9039093EC038093EB039093EE038093A5
:1055E000ED039093F0038093EF039093F203809385
:1055F000F1039093F4038093F3039093F603809365
:10560000F5030E945715811104C00E9462150E9483
:105610003F1546E050E06CE170E08FE897E00E94B3
:105620004E3380918F078C7F11F40E943F1580913B
:1056300052078068809352078091520790915307D8
:105640000E94D9128AE091E090934A07809349071B
:1056500001E080917C0740E4E42E50E1F52E12E158
:10566000853009F42EC30E946828882359F08FB72B
:10567000F89440914E0750914F07609150077091F8
:1056800051078FBFEEEFF3E0FBABEAAB512C412C9F
:105690002AE034E03EAB2DABF12CE12C1DA6ECA6AC
:1056A000EAAEADA9BEA9ED91FD91BEABADABF9AB34
:1056B000E8ABAAA9BBA98D919D91BBABAAAB8E17F4
:1056C0009F0709F448C1BFEFBE0DBCABE0E1BE9F30
:1056D00090011124A901495D5B4F1A01D201A95C17
:1056E000BB4F3D015FA64EA610E0AA24A394B12CA7
:1056F000E8A9F9A9E827F927FCAFEBAF2AA93BA94C
:105700002250310939AF28AF5EAF4DAFC70124E059
:10571000880F991F2A95E1F7AC01495C5B4F2196F0
:105720005FAF4EAF2197C70134E0880F991F3A95BC
:10573000E1F7DC01A95DBB4F2396BFAFAEAF239766
:105740008BAD9CAD8A219B21892B09F4F2C019A352
:10575000BAADBAA3C8A8D9A8CA20DB2081E0C11479
:10576000D10409F480E08BA30E94D6168160782FC3
:105770009DA38CA349A15AA16BA18DA10E94D927F9
:10578000E8ADF9AD808191818A259B259183808345
:10579000CD2841F0EEA5FFA5E057FE4F80818F3F59
:1057A00009F09BC21BA62BA5C22ED12C8091CE0343
:1057B0008C0D9D2D911D099774F1E8E08E2E912C92
:1057C0008C189D08B60161537C4FA4018FEC93E0C7
:1057D0000E944533B60169527C4FA40187ED93E0E6
:1057E0000E944533A401440F551FB601660F771F71
:1057F00069517C4F87EE93E00E944533B6016152B8
:105800007C4FA4018FED93E00E94453388E03BA5D7
:10581000831B8093CE038091CE0390E04FA9A42FE9
:10582000B0E09D01220F331F20513E4FAA0FBB1F36
:10583000BD016F507E4F41E0480FEBA59E1708F465
:1058400050C28093CE0380918F078C7F803709F000
:105850006BC08FEF810F811760F42396EEADFFAD23
:105860002397E80FF11D208130E1230F08F42FEF7B
:105870002083EEA5FFA5E95DFB4F208140E2240FC8
:1058800008F42FEF208391E0910F903109F440C488
:10589000218150E1250F08F42FEF2183ACA5A5301D
:1058A00029F1811760F42196EEADFFAD2197E80F45
:1058B000F11D20813DE0230F08F42FEF2083D30159
:1058C0002C9130E1230F08F42FEF2C93903109F441
:1058D00019C411962C9111973DE0230F08F42FEF76
:1058E00011962C93BCA5ECA9EB17F0F4811750F49A
:1058F000EDADFEADE80FF11D20813DE0230F08F472
:105900002FEF2083D1012C9130E1230F08F42FEFEA
:105910002C93903149F011962C9111973DE0230F73
:1059200008F42FEF11962C93BDA5BF5FBDA7BC3027
:1059300080F51F5FAA0CBB1CEFEF2E1A3E0AFFEF8B
:105940006F1A7F0A2EA53FA52F5F3F4F3FA72EA7B7
:10595000103109F0F5CE3FEFE31AF30A40E1440EAF
:10596000511C56E0E516F10409F099CE8DA5811180
:1059700010C08FEF8EA38FA318A60E94D616816049
:10598000782F9AA789A74EA15FA168A58AA50E9432
:10599000D9278091F7039091F803A091F903B09172
:1059A000FA032FB7F89440904E0750904F0760903D
:1059B0005007709051072FBF53014201881A990A6E
:1059C000AA0ABB0A2FB7F894C0904E07D0904F0791
:1059D000E0905007F09051072FBFC092F703D0928C
:1059E000F803E092F903F092FA036091CE03EEEC33
:1059F000F3E0462F50E00197AF4FBF4F8419950950
:105A0000A609B709651383C14093CE038091FB03B8
:105A100010E0811108C080918F07182F137019F0C2
:105A2000182F1695169580912B01813009F498C195
:105A3000882309F47FC1823009F4A4C1833009F4BA
:105A4000A5C186E0EDE1F4E0DE01119601900D9232
:105A50008A95E1F7E0901F04D09020041091210472
:105A6000F090220410921F0410922004109221043E
:105A7000109222048E2D8D2909F448C080911B04B8
:105A800090911C040E94C7169C01909117049923C1
:105A900009F433C323333105C8F19F3F19F09F5FE9
:105AA00090931704EE2059F00E94710E9FEF1E1480
:105AB0000CF491E0899F802D112480931F04DD2038
:105AC00059F00E94710E9FEF1D140CF491E0899F14
:105AD000802D11248093200430911F043323B1F0D2
