:100000000C94B7020C94FE020C94FE020C94FE02B7
:100010000C94FE020C94FE020C94FE020C94FE0260
:100020000C94FE020C94FE020C94801B0C943C1B5E
:100030000C947B1C0C94FE020C94FE020C94FE02A9
:100040000C94FE020C94FE020C94FE020C94FE0230
:100050000C94FE020C94571C0C94FE020C94FE02AD
:100060000C94FE020C94FE020C94FE020C94FE0210
:100070000C94FE020C94FE020C94FE020C94FE0200
:100080000C94FE020C94FE020C94FE020C94FE02F0
:100090000C94FE020C94FE020C94FE020C94FE02E0
:1000A0000C94FE020C94FE020C94FE02050109025F
:1000B000A10185020901A1000509190129081500FE
:1000C0002501950875018102050109300931158165
:1000D000257F95027508810609381581257F9501D0
:1000E00075088106050C0A38021581257F95017572
:1000F000088106C0C005010980A101850319012AF4
:10010000B700150126B700950175108100C0050CD8
:100110000901A101850419012AA002150126A002E6
:10012000950175108100C005010906A1018505052D
:100130000719E029E71500250195087501810205D9
:1001400007190029EF1500250195F07501810205B9
:10015000081901290595057501910295017503910D
:1001600001C00660FF0961A1010962150026FF00B8
:100170009520750881020963150026FF00952075FA
:10018000089102C005010906A101050719E029E748
:1001900015002501950875018102950175088101F9
:1001A0000507190029FF150026FF0095067508812F
:1001B000000508190129059505750191029501753C
:1001C000039101C0000000000000000000000000DA
:1001D000000000000000000000000000000000001F
:1001E00000000000000000007E0F00D4FFFFFFC7EA
:1001F0000000007800000000000000002A2B28000A
:1002000000000000000000000000000000000029C5
:10021000000000002C1E3420212224342627252E05
:10022000362D3738271E1F2021222324252633333D
:10023000362E37381F0405060708090A0B0C0D0E69
:100240000F101112131415161718191A1B1C1D2F35
:100250003130232D350405060708090A0B0C0D0E55
:100260000F101112131415161718191A1B1C1D2F15
:100270003130354C165C1E001F002000210022008A
:10028000230024002500260027002D002E002A0030
:100290004A002B0014001A000800150017001C006B
:1002A00018000C00120013002F00300031004B002A
:1002B000396104001600070009000A000B000D0058
:1002C0000E000F0033003400000028004E00E10053
:1002D0001D001B000600190005000151110010004F
:1002E000360037003800E50052004C00E000000006
:1002F000E300E20000002C000000E6000000E40043
:1003000000000000500051004F00165C3A003B0016
:100310003C003D003E003F004000410042004300E1
:1003200044004500005C4A000100C25CC35CC55C3F
:10033000C65CC75CC85CC95CCA5C0100460047007B
:100340004800005C4B003961CB5CCC5C01000100D3
:100350000100010001000100010001000100000096
:10036000DE5C4E00E100010001000100010001001F
:10037000010001000100010001000100A900A80026
:100380000100010000000100010000000100000068
:1003900001000000010000000000AC00AA00AB005A
:1003A0000100010001000100010001000100010045
:1003B0000100010001000100010001000100010035
:1003C0000100010001000100010001000100010025
:1003D0000100010001000100010001000100010015
:1003E0000100010001000100010001000100010005
:1003F00001000100000001000100010001000100F6
:1004000001000100010001000100010001000100E4
:1004100001000100010001000100000001000100D5
:1004200000000100000001000000010000000000C9
:1004300001000100010001000100010001000100B4
:1004400001000100010001000100010001000100A4
:100450000100010001000100010001000100010094
:100460000100010001000100010001000100010084
:100470000100010001000100010001000100010074
:100480000100010001000100010000000100010065
:100490000100010001000100010001000100010054
:1004A0000100010001000100010001000100010044
:1004B0000000010001000000010000000100000038
:1004C00001000000000001000100010009025B00C2
:1004D000030100A0FA090400000103010100092141
:1004E00011010001224000070581030800010904F1
:1004F0000100020300000009211101000122220075
:1005000007058203200001070503032000010904F9
:100510000200010300000009211101000122B600C0
:1005200007058403200001120100020000000842B8
:100530004B69600100010200011C034D0041004AAB
:100540000041005F0053004F004C00440045005242
:100550000045004400000010034B004200440046E8
:100560000041004E00530000000403090400112460
:100570001FBECFEFDAE0DEBFCDBF04B603FE27C05B
:1005800080915F0290916002A0916102B09162023D
:100590008730904BA740B04BD1F410925F0210927D
:1005A0006002109261021092620214BE84B7877FCB
:1005B00084BF0FB6F894A8958091600088618093FD
:1005C0006000109260000FBEE0E0F8E3099511E0D2
:1005D000A0E0B1E0E2EDF6E402C005900D92A6368F
:1005E000B107D9F722E0A6E6B1E001C01D92AF3510
:1005F000B207E1F70E94A21C0C9430230C94000077
:10060000E8EDF0E080818E7F80831092E20010920E
:10061000DA001092E100A0EEB0E08C9181608C9342
:1006200080818F77808319BCA7EDB0E08C918E7F9D
:100630008C9380818F7E808310922C02089520916C
:10064000E4003091E50095E6A9012091EC00822FAD
:10065000817020FF06C08091E80080FF06C080E026
:1006600008952091E80022FD1AC08091510288234C
:1006700089F0853089F08091EB0085FD0FC02091D5
:10068000E4003091E50042175307F9F29150E1F68A
:1006900084E0089582E0089583E0089581E008955C
:1006A000EF92FF920F931F93CF937C018B010E94D7
:1006B0001F03C82F811117C08091E80085FD0BC072
:1006C0008091E8008E778093E8000E941F038823C2
:1006D00099F3C82F08C0F70181917F018093F10041
:1006E0000150110949F78C2FCF911F910F91FF9065
:1006F000EF9008958091530287FF13C08091E80026
:1007000082FF06C08091E8008B778093E80004C0E8
:10071000809151028111F2CF089580915102882376
:10072000D9F38091E80080FFF8CF8091E8008E77C0
:10073000ECCF982F9093E900242F762F50E0891763
:1007400031F07091EC002091ED005091F00021FD0E
:1007500007C09F5F973071F78093E90081E00895AB
:100760003091EB003E7F3093EB003091ED003D7F08
:100770003093ED003091EB0031603093EB007093DB
:10078000EC002093ED005093F0002091EE0027FD47
:10079000E0CF80E00895CF92DF92EF92FF920F9327
:1007A0001F93CF93DF93C8EDD0E088818F7E88833D
:1007B000E7EDF0E080818160808384E082BF81E0AA
:1007C00080932C0288818E7F888302EE10E0F801EE
:1007D00010821092DA0081EEC82ED12CF601108220
:1007E00088818F77888388818068888388818F7DDE
:1007F000888319BC1092510210925202109250023A
:1008000010924F0290EEE92EF12CF70180818B7F40
:10081000808388818160888342E060E080E00E947C
:100820009903F60180818E7F8083F8018081816049
:100830008083808188608083F70180818E7F8083C0
:10084000888180618883DF91CF911F910F91FF9004
:10085000EF90DF90CF900895FC0180915902909124
:100860005A0286179707A0F06115710529F4909137
:10087000E8009E779093E80090E06115710551F4CF
:10088000911108C08091E80082FF34C080E0089593
:10089000BC01F2CF809151028823C1F18530C1F1B2
:1008A0008091E80083FD30C08091E80082FDEACFAE
:1008B0008091E80080FFE1CF8091F3002091F20069
:1008C000382F6115710519F02830310558F091E085
:1008D0002830310509F090E02091E8002E77209330
:1008E000E800CBCF81918093F100615071092F5FB7
:1008F0003F4FE7CF80915102882341F0853041F08E
:100900008091E80083FFBECF81E0089582E00895E2
:1009100083E0089580912E0208959C014FB7F894CA
:100920008091230290912402A0912502B091260289
:100930004FBF821B930B08952FB7F8948091230229
:1009400090912402A0912502B09126022FBF089514
:1009500020912002309121022817390771F09093DD
:10096000210280932002E0911E02F0911F02309735
:1009700021F00084F185E02D0994089520911C0256
:1009800030911D022817390771F090931D02809352
:100990001C02E0911E02F0911F02309721F00680A8
:1009A000F781E02D09940895E0911E02F0911F0255
:1009B000309721F00190F081E02D099480E00895B6
:1009C000CF92DF92EF92FF92843030F5811125C0F3
:1009D000909180009F77909380002D98282F30E091
:1009E000AFEFBFEF0E949F2123E030E040E050E0F6
:1009F0000E947021C9012C3764E13607A0F469E038
:100A000070E00E9448217093890060938800FF90F5
:100A1000EF90DF90CF90089583E0909180009068F0
:100A200090938000DBCF2A50374D4F4F5F4F942F6C
:100A3000832F722F662725EF38E241E050E00E94B5
:100A4000702169017A01CA01B9010E9438219B0114
:100A5000AC01C701B6010E943821672F782F892F7A
:100A600099276115710521E08207910561F66FEF05
:100A70007FEFC9CF282F220F220F220F90911B0248
:100A80009770922B90931B02987F21E009F420E04D
:100A900090911B0220FB90F990931B020C94E004B0
:100AA0000E949C049C019091170280911802982B3F
:100AB00021F0309314022093130290911902809137
:100AC0001A02982B21F03093120220931102E09128
:100AD0001E02F0911F02309749F082E080931502C8
:100AE0000480F581E02D85E192E00994089540911C
:100AF0001702803F59F48091180287FF0DC01092B1
:100B0000180241110BC010920F0208C0813F81F4FE
:100B10008091180218169CF3442381F080911902E9
:100B200090911A02892B09F05AC010920E02089572
:100B3000823F49F447FFF0CF1092170280911802CC
:100B40008111ECCFE0CF833F19F41416ACF3E4CF5E
:100B500090911902893F29F41916F4F6109219029E
:100B6000DBCF8A3F19F497FFD7CFF8CF90911A02C5
:100B70008B3F29F497FFD0CF10921A02CDCF8C3F34
:100B800019F41916CCF3C8CF9CE0980F953090F467
:100B9000845F990B21E030E0B90102C0660F771F36
:100BA0008A95E2F7CB018095909116028923809374
:100BB0001602B2CF8D3F31F4809110028E7F809368
:100BC0001002AACF8E3F21F4809110028D7FF7CFC3
:100BD0008F3F09F0A1CF809110028B7FF0CF089555
:100BE0008091100280FD16C081FD16C082FD16C0E6
:100BF00080910E028823A1F0883280F428E0829F41
:100C0000C001112468E270E00E945C21862F672BEE
:100C100039F0089582E0089584E0089588E0089509
:100C200081E008958091100280FD14C081FD14C000
:100C300082FD16C080910F02882381F0843180F4F8
:100C400022E3829FC001112464E170E00E945C21D4
:100C5000862F08958CE0089589E1089585E0089530
:100C600082E30895803F31F40E94120681958093BB
:100C700018020895813F19F40E941206F8CF823FAE
:100C800031F40E9412068195809317020895833FE4
:100C900019F40E941206F8CF893F29F40E94F0054A
:100CA0008093190208958A3F21F40E94F0058195EE
:100CB000F7CF8B3F31F40E94F005819580931A02A3
:100CC00008958C3F19F40E94F005F8CF9CE0980F2E
:100CD000953070F4845F990B21E030E001C0220F61
:100CE0008A95EAF780911602822B80931602089566
:100CF0008D3F31F48091100281608093100208953D
:100D00008E3F21F4809110028260F7CF8F3FB9F7B8
:100D1000809110028460F1CF80E00895F894E82F6C
:100D2000E295EF70F0E031A1282F2F7081E090E084
:100D300001C0880F2A95EAF7982F9095932391A3E5
:100D400092A1892B82A3789408959091270292FF13
:100D500006C0282F28712830F9F4877F846093FF1C
:100D600006C0282F28712831F1F4877E84612091F4
:100D7000280220FF06C0382F38713830D9F4877F19
:100D8000816021FF06C0282F28712831D1F4877E89
:100D9000816194FD877E0895282F24712430F9F60F
:100DA0008B7F8860DCCF282F2471243101F78B7E64
:100DB0008861DDCF382F3171313019F78E7F88602F
:100DC000E0CF282F2171213121F78E7E8861E1CF7C
:100DD000CF93DF93EC0182389105A9F1D8F58133E7
:100DE000910509F496C048F58932910509F48AC045
:100DF0008A9709F495C0C11521E5D20708F0BCC057
:100E0000C11530E5D30708F014C1C83ED10508F07C
:100E10009CC0C03ED10560F5C83AD10508F087C036
:100E2000C53AD10508F0FDC0C130D10509F12097C0
:100E3000F9F0C430D105E0F440C08533910509F4E0
:100E40005AC0C997C1F680912702837089F0C0EE1D
:100E5000D0E00EC0833E910599F170F4803E91057B
:100E600001F1823E910539F68091270282FD21C071
:100E7000CE01DF91CF910895863E910561F1873EC5
:100E8000910571F1843E910509F0B5CF809128025A
:100E900081FFEECF80912702C7EED0E084FD0DC028
:100EA000E7CF8091270280FD12C19091280290FF28
:100EB000DFCFC3EED0E084FFDBCFD0E0C0E0D8CFFF
:100EC0008091270282FD06C19091280290FDBFCF3C
:100ED00084FFCECFF2CF8091270283FDDDCFC8CF34
:100EE0008091270283FDF9C09091280291FFF0CFF5
:100EF000C4EED0E0BDCF8091270285FFB9CFC9E213
:100F0000D0E0B6CF8091270285FFB2CFC5E3D0E015
:100F1000AFCF8091270286FFABCFCAE2D0E0A8CF47
:100F20008091270286FFA4CFC1E3D0E0A1CFCF3BC1
:100F3000D10518F6C85AD0E0CC0FDD1FCC5EDE4FCD
:100F40000990D881C02DD46493CFC11540E2D40755
:100F500058F4C11581E0D80708F08ACFC03FD10509
:100F600008F4ABCFD06584CFC11590E4D90708F45D
:100F7000A4CFDF70D06A7CCFC11525E5D20700F57C
:100F8000C11534E5D30708F08AC0C11543E5D4077D
:100F900008F071C0C11582E5D80708F467C0CE011A
:100FA0008370992721E030E002C0220F331F8A9519
:100FB000E2F7C695C69580E2C89FE001112452C0B1
:100FC000C11599E5D907A8F4C11528E5D20708F09D
:100FD0006BC0C11536E5D30708F06FCF8C2F0E9488
:100FE000A506C82FD0E0DC2FCC27CC27DF71D0623C
:100FF0003FCFC1154AE5D40708F45BC0CE01905637
:101000008115904208F059CF8D2F8F710E94A5064F
:1010100090E0982F882788279F719C012C2BE9014D
:10102000E6CFC55AD0E0CF5EDE4FC881D0E0D064B5
:101030001FCFCE01E4E096958795EA95E1F783709E
:101040002C2F26952695237040E2249F9001112491
:10105000382B8C2F8370C1E0D0E002C0CC0FDD1F95
:101060008A95E2F7C22BD32BDC6802CFDC2FCC278A
:10107000C16FD06AFDCECE018370992721E030E0A8
:1010800002C0220F331F8A95E2F7C695C69590E2FB
:10109000C99FE0011124C22BD32BDA68E9CEDC2FE3
:1010A000CC27C46FD06AE4CEDC2FCC27C06FD06AC7
:1010B000DFCE8C2F8F700E94A50634E0D695C795A1
:1010C0003A95E1F7CF709C2FEC01D069D1CEC9E3FE
:1010D000D0E0CECEC2EED0E0CBCEC6EED0E0C8CED1
:1010E0008091E70181111092E70108958091E60156
:1010F0009091E501892B9091E401892B80936C01FB
:101100009091E7019923A1F0892B80936C01809144
:101110001001882341F18091270287FF24C08EE1CE
:10112000EEE6F1E090E0815000F591110E94700828
:10113000E0911E02F0911F023097E1F080911001C2
:10114000882359F08091270287FF07C080916C01A6
:1011500080936D0185E080936C010280F381E02D26
:101160008CE691E0099486E0DBCF21912223D9F22D
:101170009F5FD9CF0895909110019923D1F090915C
:10118000270297FF16C0E82FE695E695E695EE3123
:10119000E0F4F0E0E459FE4F282F277081E090E062
:1011A00001C0880F2A95EAF780959281892382836E
:1011B0000895EEE6F1E09191891303C0DF011197E4
:1011C0001C9291E0E437F907B1F70895909110016E
:1011D0009923C1F09091270297FF14C0E82FE6955C
:1011E000E695E695EE31F8F4F0E0E459FE4F8770AD
:1011F00021E030E001C0220F8A95EAF78281822B3C
:1012000082830895AEE6B1E0EFEF90E02D91821772
:1012100051F0EF3F19F4211101C0E92F9F5F963083
:10122000A9F7EF3F09F408950E2E000CFF0BE459C7
:10123000FE4FE6CF8091E2019091B101981301C079
:1012400008958F5F8770FACF2FE0929F800D112451
:10125000982F977086958695869523E0829FF0015A
:101260001124E357FE4F50E040E080E0219130E050
:10127000092E02C0369527950A94E2F7217033278C
:10128000042E01C0220F0A94EAF7822B4F5F5F4FB2
:101290004330510559F708952FE0929F800D112496
:1012A000982F977041E001C0440F9A95EAF7869510
:1012B0008695869593E0899FF0011124E357FE4FB0
:1012C00090E080E070E05191DF0111979B01082EC2
:1012D00002C0369527950A94E2F7217021952527BB
:1012E000242325272C9301968330910561F70895D7
:1012F00090E080E00E94BE0490E080E00E94A8049C
:101300001092E5011092E4010E94760886E0E5E182
:10131000F2E0DF011D928A95E9F710920F02109218
:101320000E02109210020C94500580935E020C94F1
:10133000780980915E02982F9670963019F4886033
:101340000C949509877FFCCF21E030E001C0220F8B
:101350008A95EAF7209580915E0282230C94950984
:101360009091E301809589238093E301282F2770D2
:1013700039F4282F082E000C330B9217130621F492
:101380009091280292FF07C08595859585950E94CA
:10139000A4091092E301089521E030E001C0220F7A
:1013A0008A95EAF780915E02822B0C9495098093CE
:1013B000E8010C947809882341F080959091E6012A
:1013C00089238093E6010C9476080895882339F0E8
:1013D0009091E601982B9093E6010C94760808957D
:1013E000882309F459C0823871F40E94D40481FF23
:1013F00053C089E30E94E6080E94760889E30E94B0
:10140000BB080C947608833859F40E94D40480FFFA
:1014100043C083E50E94E6080E94760883E5EFCF8B
:10142000843859F40E94D40482FF36C087E40E94B5
:10143000E6080E94760887E4E2CF9CEF980F913A85
:10144000F0F290E2980F983088F4877021E030E055
:10145000A90102C0440F551F8A95E2F7CA01809581
:101460009091E60189238093E601CBCF9BE5980F0D
:10147000933020F490E080E00C94BE0498E5980F3F
:10148000973120F490E080E00C94A804803F20F095
:101490000E9477050C945005089581FD02C05C9A66
:1014A00008955C98089590915102943029F58093A5
:1014B000290270932B0260932A029093E9008FEF28
:1014C0009091E800815095FD06C095ED9A95F1F751
:1014D00000008111F5CF8091E80085FF0DC050E03C
:1014E00040E063E070E089E292E00E945003809166
:1014F000E8008E778093E8000895BC0184E00C94A6
:10150000530ABC0183E00C94530A9C0184E080934D
:10151000E9009FEF8091E800915085FD06C085EDC0
:101520008A95F1F700009111F5CF8091E80085FFD1
:101530000CC050E040E066E070E0C9010E9450033A
:101540008091E8008E778093E8000895CF93DF9331
:10155000EC01809110018823B1F18091270287FF6F
:1015600032C060E284E08093E9008FEF9091E80060
:10157000815095FD06C095ED9A95F1F70000811117
:10158000F5CF8091E80085FF1BC08091100170E0CD
:1015900050E040E0811104C050E040E068E070E0BD
:1015A000CE010E9450038091E8008E778093E8007E
:1015B00080E2FE01AFE2B2E001900D928A95E1F780
:1015C000DF91CF91089568E081E0CDCF81E08093F5
:1015D000E00080E28093D8001092C9008FE19EE481
:1015E0000197F1F700C0000087E090EBDC018093E9
:1015F0005F0290936002A0936102B093620288E15F
:101600009CE00FB6F894A895809360000FBE90936D
:101610006000FFCFCF93C82F882309F4AFC0823872
:10162000C1F40E94D40481FDA9C089E30E94E608A8
:101630000E9476082FEF81EE94E021508040904088
:10164000E1F700C0000089E30E94BB08CF910C9431
:1016500076088338A1F40E94D40480FD8FC083E50E
:101660000E94E6080E9476082FEF81EE94E0215058
:1016700080409040E1F700C0000083E5E5CF84386A
:10168000A1F40E94D40482FD79C087E40E94E60898
:101690000E9476082FEF81EE94E021508040904028
:1016A000E1F700C0000087E4CFCF8CEF8C0F813AC8
:1016B00090F580911001882301F18091270287FF26
:1016C0001CC0EC2FE695E695E695F0E0E459FE4F58
:1016D000828190E04C2F477021E030E002C0220F61
:1016E000331F4A95E2F782239323892B81F08C2FB5
:1016F0000E94BB080E9476080AC0EEE6F1E084E78B
:1017000091E02191C21799F38E179F07D1F78C2F83
:101710000E94E6089BCF80E28C0F883068F4C77087
:1017200021E030E001C0220FCA95EAF78091E6017E
:10173000822B8093E6018ACFEBE5EC0FE33040F497
:10174000F0E0EF5EFE4F808190E0CF910C94BE04FC
:10175000E8E5EC0FE73150F4F0E0EE0FFF1FEC5E30
:10176000FE4F80819181CF910C94A804C03F30F04E
:101770008C2F0E943206CF910C945005CF91089582
:101780001F93CF93DF93182FD0E0C0E0893311F47B
:10179000C0E5D0E0812F0E940A0B209731F4812F01
:1017A000DF91CF911F910C94F0098FE99FE0019791
:1017B000F1F700C000002197F0CF0F931F93CF9354
:1017C000DF93C62FD42F022FFC0182818823A1F042
:1017D00060935D020E949C0490935C0280935B0284
:1017E000C77081E001C0880FCA95EAF7DF91CF91F9
:1017F0001F910F910C94E60980915D02681335C02A
:1018000080915B0290915C020E948D04883C91055E
:1018100060F510E21D0FCD17B9F080E28C0F883013
:1018200040F4C77081E001C0880FCA95EAF70E94B2
:10183000DB09183048F481E09D2F977001C0880FB4
:101840009A95EAF70E94E609802F0E94C00B183093
:1018500098F4D77081E001C0880FDA95EAF7DF913C
:10186000CF911F910F910C94DB09C77081E001C0EB
:10187000880FCA95EAF7F3CFDF91CF911F910F91AF
:101880000895CF93DF93CFE7D2E060E0CE010E94CE
:10189000C7212196C11584E0D807B9F7DF91CF9110
:1018A00008956F927F928F929F92AF92BF92CF9244
:1018B000DF92EF92FF920F931F93CF93DF9384E712
:1018C000C82E82E0D82E9BEDE92EF12CE701C659F7
:1018D000D10936011BC0F50185909490692DC8018E
:1018E0000E94C721682DC80101960E94C72182E08D
:1018F000A80EB11C0E5F1F4FC017D10761F78EE114
:10190000680E711C6E96CE15DF0529F08E010E5102
:1019100011095301E0CF7E0186E9E80EF11C86E94A
:10192000C80ED11C83E3E81683E0F80679F6DF9150
:10193000CF911F910F91FF90EF90DF90CF90BF90CC
:10194000AF909F908F907F906F900895CF93C82F06
:101950006FEF811161E283E290E00E94C7216FEF97
:10196000C11169E084E290E00E94C7216FEFC111CC
:1019700066E085E290E0CF910C94C72180E00E9460
:10198000A60C60E086E290E00E94C7210E94510C04
:101990000E94410C81E00C94A60C682F86E090E038
:1019A0000C94C721CF93C92F682F84E090E00E9448
:1019B000C7216C2F82E290E0CF910C94C7219091C7
:1019C000280292FB222720F9281751F080FB92F978
:1019D0009093280280912702909128020C94D20CB7
:1019E00008950F931F93CF93DF93C42FD0E0CC0FB4
:1019F000DD1F2EE1629FC00DD11D112436E9839FAA
:101A0000C00DD11D1124CE0187960E94B921082F47
:101A100010E0102F0027CE0188960E94B92198016E
:101A2000282BC901DF91CF911F910F910895462F67
:101A3000843038F4753028F46F3018F4672F0C9424
:101A4000F10C90E080E00895CF92DF92FF920F9327
:101A50001F93CF93DF936C0100915E028091E801A8
:101A6000082BC7E0D0E010E0FC2EC8010C2E02C00D
:101A7000959587950A94E2F780FD0CC02197A0F711
:101A8000F12C8F2DDF91CF911F910F91FF90DF905F
:101A9000CF900895B6018C2F0E94170D0E94E80682
:101AA000019761F3EECFCF93DF93EC010E94240DF9
:101AB000BE010E94170DDF91CF910C94E806FC0146
:101AC000808191810E94530D292F2F7092959F70D4
:101AD00092509E3078F4E92FF0E0EE5CFC4D0C94CF
:101AE0009221803F19F020F4883E20F481E008958F
:101AF000843FE1F380E00895883EC0F3813FD1F751
:101B0000F5CF822F869586958695089583E290E09D
:101B10000E94B921813289F484E290E00E94B921C7
:101B2000893059F485E290E00E94B92191E0863035
:101B300009F090E0892F8170089580E0FCCFCF9369
:101B400084E090E00E94B921C82F82E290E00E94D8
:101B5000B921982F8C2FCF9108952F923F924F92B9
:101B60005F926F927F928F929F92AF92BF92CF922D
:101B7000DF92EF92FF920F931F93CF93DF93CDB736
:101B8000DEB72A970FB6F894DEBF0FBECDBFAE0109
:101B90004F5F5F4F6A018AE0DA011D928A95E9F78B
:101BA00002E411E07A01AA24A394B12CF8018191F6
:101BB0008F018F3F09F44BC0F894E82FE295EF7046
:101BC000F0E021A18F70A50102C0440F551F8A9536
:101BD000E2F7CA01922F982B91A392A180958923B5
:101BE00082A3789400C0E7E4F1E030E020E0912C9B
:101BF000812C81918F3F09F4ACC0A82FA295AF70C2
:101C0000B0E090964C9150E08F7002C0559547958A
:101C10008A95E2F740FD9DC0C501022E02C0880FE3
:101C2000991F0A94E2F7882A992A2F5F3F4F2F3095
:101C30003105F9F6F801319780818F3F11F00E944C
:101C40008E0650EA5A95F1F7D7018D929C92B2E038
:101C5000EB0EF11CE1E007341E0709F0A7CF4AE0C4
:101C600050E0B6018EEE91E00E9423238C01FF2408
:101C7000F394892B09F4F12C0115110541F08AE048
:101C8000F601AEEEB1E001900D928A95E1F7509029
:101C9000EB01552009F46AC00E949C042091E901DF
:101CA0003091EA01AC01421B530B9A019093EA0177
:101CB0008093E9014F3F510511F008F04DC0452BCD
:101CC00009F444C0E22E1092EB012091EC01309116
:101CD000ED01E4E0F2E06EEE71E039015BE4650EE7
:101CE000711C412C88248394912C190150E040E010
:101CF000D101DD901D01DD20D1F0CD010197ED1462
:101D000070F1DC011C92C080D180DB018D919C912F
:101D10008C259D255401042E02C0AA0CBB1C0A94DC
:101D2000E2F78A219B218C259D25918380834F5F3B
:101D30005F4F4F305105E1F6215F3F4F32966E5FA6
:101D40007F4F6216730689F64092EB01012BB1F4C6
:101D50004DC090E080E067CF2FEF30E0B3CFDE18CA
:101D6000DC01DC92452CE3CF108233C0012BF1F172
:101D70000E949C049093EA018093E9012091EC0178
:101D80003091ED016091EB01AEEEB1E084E0C82E40
:101D900082E0D82EAA24A394B12C73E04D915D91DA
:101DA000F601819191916F0148275927F90190E03F
:101DB00080E08501082E02C0000F111F0A94E2F78F
:101DC00004231523012B81F21081111102C07083AD
:101DD00061E0319601968F30910559F7215F3F4FB1
:101DE000F1E0A83FBF07D1F66093EB018F2D2A9653
:101DF0000FB6F894DEBF0FBECDBFDF91CF911F911C
:101E00000F91FF90EF90DF90CF90BF90AF909F9099
:101E10008F907F906F905F904F903F902F9008959C
:101E200090E080E00E94C121893E9E4F11F40C9405
:101E3000860D80E0089569EE7EEF90E080E00E94DC
:101E4000E52160E082E090E00E94C72160E083E04D
:101E500090E00E94C7211092E80160E084E090E0E9
:101E60000E94C72160E082E290E00E94C72160E00A
:101E700085E090E00E94C72160E086E090E00E944B
:101E8000C7216FEF87E090E00E94C72140E050E05B
:101E9000BA0188E090E00E94D92160E08DE090E0F6
:101EA0000E94C72140E050E0BA0188E190E00E9422
:101EB000D92160E087E190E00E94C72140E050E036
:101EC000BA018CE190E00E94D92170E060E080E2EC
:101ED00090E00E94E52140E050E0BA0188E190E006
:101EE0000E94D92180E00E94A60C0E94BE0C40E016
:101EF00050E0BA018FE090E00E94D92140E050E02C
:101F0000BA0183E190E00C94D9210E94100F811155
:101F10000AC00E941B0F80911B028470896180930C
:101F20001B020E94CD0C86E090E00E94B9218093B4
:101F30001B02803220F08770886180931B02909191
:101F40001B02892F817090FF04C0892F869586958A
:101F500086950C94E0041092E60180911001EEE663
:101F6000F1E0882359F08091270287FF07C08EE1B6
:101F7000DF011D928A95E9F70C94780986E0F8CF85
:101F80001F93CF93DF93CDB7DEB7AA970FB6F89420
:101F9000DEBF0FBECDBF83E592E02091F100DC01F2
:101FA0002D93CD01B2E08B359B07B9F78091540298
:101FB000833009F471C0B8F4813009F448C082302C
:101FC00009F4B2C08091E80083FF88C28091530277
:101FD000909154029A3008F081C2E92FF0E0E05C61
:101FE000FC4D0C9492218A3009F48DC08B3009F499
:101FF00070C0893039F780915302813219F780918E
:10200000570290915802009711F00297D9F68091EB
:10201000E800877F8093E8008091E80082FF37C066
:102020009091F3008091F200029729F48091F100E1
:102030008B7F813021F48091F10080932E0280917A
:10204000E8008B778093E8000E947A03BBCF8091F1
:102050005302813A09F0B6CF8091E800877F8093E0
:10206000E8008091570290915802892B61F460E258
:102070008FE292E070E00E942C048091E8008B7760
:102080008093E8009FCF60E090E080E0F3CF809104
:1020900051028111C1CF96CF80915302813A09F04C
:1020A00091CF8091570290915802892B09F08ACFE5
:1020B0008091E800877F8093E8008091E80080FFAE
:1020C000FCCF809110018093F1008091E8008E7721
:1020D000B9CF80915302813209F074CF80915702B9
:1020E00090915802892B09F06DCF8091E800877F8D
:1020F0008093E8000E947A0380915502809310013A
:102100000E94AB0F5FCF80915302813209F05ACF0A
:102110008091E800877F8093E8000E947A03809195
:10212000560280932D024ECF80915302813A09F0DE
:1021300049CF8091E800877F8093E8008091E80094
:1021400080FFFCCF80912D02BECF803899F082387D
:1021500009F0C4C1809157028F70873008F0BEC16A
:102160008093E9008091EB0085FB882780F910922D
:10217000E90006C080914F02909150029111826057
:102180009091E800977F9093E8008093F10010927F
:10219000F1008091E8008E779DC1882309F48BC1FE
:1021A000823009F09BC18091550281118EC18091CE
:1021B00057028F702FEF280F263008F08FC18093C1
:1021C000E9002091EB0020FF80C1933031F4809131
:1021D000EB0080628093EB0078C19091EB009061FE
:1021E0009093EB0021E030E001C0220F8A95EAF7DE
:1021F0002093EA001092EA008091EB008860EACF19
:1022000081116CC1109155021F778091E300807895
:10221000812B8093E3008091E800877F8093E80022
:102220000E947A038091E80080FFFCCF8091E30058
:1022300080688093E30082E0111183E08093510273
:102240004DC18058823008F049C12091550230912B
:1022500056022C3DE3E03E07A1F583E08A838AE243
:1022600089834FB7F894DE01139620E03EE051E2F7
:10227000E32FF0E050935700E49120FF03C0E29574
:10228000EF703F5FEF708E2F90E0EA30C0F0C7969E
:102290008D939D932F5F243159F74FBF8091E800B4
:1022A000877F8093E8006AE270E0CE0101960E9489
:1022B0002C048091E8008B778093E8000FC1C096D2
:1022C000E7CF8091570290915802432F5527433012
:1022D000510509F44AC078F54130510509F47AC036
:1022E0008BE590E0ECECF4E04230510509F0F6C0EB
:1022F0002091E800277F2093E80020915902309137
:102300005A028217930708F49C0140E02115310519
:1023100009F065C0411163C08091E80082FDC9CF1A
:1023200080915102882329F2853019F28091E800CA
:1023300083FFF2CFBECF4132510509F43CC0423297
:10234000510509F0CBC08330910508F0C7C0FC01EE
:10235000EE0FFF1FE75AFE4F0190F081E02D8A5AE1
:102360009E4FDC018C9190E01AC03327213031055B
:10237000D1F02115310561F02230310509F0AEC0F0
:10238000E9E3F5E0E4918E2F90E0E9E3F5E007C0A2
:10239000E9E6F5E0E4918E2F90E0E9E6F5E00097BC
:1023A00009F49CC0A5CFE7E5F5E0E4918E2F90E01D
:1023B000E7E5F5E0F4CF8330910508F08FC0880F92
:1023C000991FFC01E15AFE4F0190F081E02D89E058
:1023D00090E08ECF82E190E0E7E2F5E089CF809156
:1023E0005102882309F465CF853009F462CF8091CA
:1023F000E80083FD5ECF8091E80082FD8DCF809163
:10240000E80080FF83CF9091F3008091F2002115C6
:10241000310519F08830910550F041E0089709F036
:1024200040E08091E8008E778093E8006FCF449180
:102430004093F1003196215031090196E8CF803860
:1024400009F04CC08091E800877F8093E80080917C
:1024500052028093F1009DCE811140C0109155022F
:102460001230E0F58091E800877F8093E8001093B8
:1024700052020E947A03112311F084E005C080917A
:10248000E30087FDFACF81E08093510242E061ECE6
:1024900081E00E94990342E261EC84E00E9499038A
:1024A00042E261EC82E00E94990342E260EC83E048
:1024B0000E94990313C080915502813079F481E024
:1024C000933009F080E0809350021092E9008091EF
:1024D000E800877F8093E8000E947A038091E800FB
:1024E00083FF0AC08091E800877F8093E800809195
:1024F000EB0080628093EB00AA960FB6F894DEBFE3
:102500000FBECDBFDF91CF911F9108953F924F92A3
:102510005F926F927F928F929F92AF92BF92CF9273
:10252000DF92EF92FF920F931F93CF93DF9300D030
:1025300000D00F92CDB7DEB78C01FC01838194816E
:10254000892B31F08081918189238F3F09F08CC5DF
:102550000F900F900F900F900F90DF91CF911F91E0
:102560000F91FF90EF90DF90CF90BF90AF909F9032
:102570008F907F906F905F904F903F9008950E9452
:10258000240DF82E682F89819A810E944C09698157
:102590007A818F2D0E94170D7C01F801828188239A
:1025A00009F4B1C4C70182519F45409708F0D8C4CF
:1025B0008FEF93E00E94B921FEEEEF0E5FE7852ECC
:1025C00052E0952E882381F18091E301877009F410
:1025D000BFCFF8018281882309F4BACF82E00F903F
:1025E0000F900F900F900F90DF91CF911F910F914F
:1025F000FF90EF90DF90CF90BF90AF909F908F9023
:102600007F906F905F904F903F900C94B009811431
:1026100024E09206C9F2C4010E94B921811101C0CF
:10262000EA943FEF831A930AE110F1CF1C821B82D8
:10263000442443944AE0342E74018FEFE81AF80AD8
:10264000C4010E94B92189831A82882309F4BCCF6E
:102650009FEF980F933000F58A83498292E0890EAC
:10266000911CC7010E94B9218B83882309F4ACCF48
:10267000FE0131967F01F70120812223E9F221300A
:1026800009F049C091818281913041F4F2E0EF0E6E
:10269000F11C0E94C00B09C04701EACF923049F4F7
:1026A00022E0E20EF11C0E940A0B3FEFE31AF30A4C
:1026B000E2CF933031F432E0E30EF11C0E94F009D6
:1026C000F4CF943021F08FEFE81AF80AEECF92E0C1
:1026D000E90EF11C30E020E0B7016F5F7F4FF7019A
:1026E00041818053990B8A30910550F02150310976
:1026F000E0F28FE99FE00197F1F700C00000F6CF0C
:10270000329EF001339EF00D11249C012E0F3F1FCD
:10271000842F7B01E1CFE22FF0E0EC50FE4F54908C
:10272000822F86958695869590E0FC01EC51FE4FB0
:1027300064902770712C022E02C0759467940A94DD
:10274000E2F7E1E06E227724FC01EC52FE4FA49008
:10275000B12C022E02C0B594A7940A94E2F7F1E0DE
:10276000AF22BB24FC01EC53FE4FC490D12C02C01D
:10277000D594C7942A95E2F721E0C222DD246114A2
:10278000710419F081EE0E940A0BA114B10419F032
:1027900086EE0E940A0B852D0E94C00BAB2819F013
:1027A00086EE0E94F009672819F081EE0E94F00978
:1027B000CD2809F47ACF8CE26CCF81E00E94CC095D
:1027C0000E94990901CF81E00E94A409F9CF82E01B
:1027D000F5CF82E0F9CF2FEBE2162CE5F20609F4F3
:1027E00055C008F43FC080ECE8168CE5F80609F007
:1027F000D8C390911B02892F8695869586958F5F09
:102800008F719770843008F059C0880F880F880F37
:10281000892B80931B0280911B0210C083E00E94D1
:102820003A0580911B020E94CD0CCECE80911B02F6
:10283000982F987F79F0885080931B02887F91E0D1
:1028400009F490E080911B0290FB80F980931B02B9
:102850000E94CD0C80911B028695869586950E94DC
:10286000E004B2CE80911B02982F9695969596958E
:10287000933040F49F5F990F990F990F8770892BC0
:1028800080931B0280911B028160E0CF80911B022C
:1028900080FF07C08E7F80931B020E94CD0C80E0DA
:1028A000DECF80FD91CE816080931B02813019F4D0
:1028B00089E080931B0280911B02CACF90931B0278
:1028C000AACF27E245EE65EE47C326E241EE60EE71
:1028D00043C327E245EE64EE3FC326E241EE62EEDB
:1028E0003BC328E241E0EFCF80912702806136E0D0
:1028F000E3163CE5F30609F492C008F497C0809112
:10290000270280628CC0809127028D7F9CE0E916AF
:102910009CE5F90609F483C078F4809127028C6065
:10292000FAE0EF16FCE5FF0609F479C008F48AC066
:10293000809127028E7F73C080912702877F3EE0BF
:10294000E3163CE5F30609F46AC008F481C08091FF
:1029500027028F7E64C09BEFE9169CE5F90609F417
:1029600069C068F5F3E1EF16FCE5FF0609F480C0E5
:1029700090F431E1E3163CE5F30609F475C082E119
:10298000E8168CE5F80609F066C30E94AB0F80914B
:1029900027028F7744C095E1E9169CE5F90609F412
:1029A0006FC008F483C0809128028160FAEFEF16AF
:1029B000FCE5FF0609F04FC3809328024CC32FEFBC
:1029C000E2162CE5F20609F457C090F48DEFE816F4
:1029D0008CE5F80609F440C0809128028E7F9EEFB6
:1029E000E9169CE5F90640F3809128028360E4CF64
:1029F000E1E0EE16EDE5FE0609F461C008F44CC016
:102A000060E022E0E2162DE5F20609F024C38EE034
:102A100090E00E94C7211FC38091270281608093AC
:102A2000270219C3809127028460F9CF8091270281
:102A30008860F5CF809128028260BECF8091270206
:102A40008064EDCF0E94AB0F809127028068E7CFB2
:102A5000809127028B7FE3CF809128028D7FACCFBE
:102A6000809127028F7DDBCF809127028F7BD7CF8C
:102A700080912702837FD3CF809128028C7F9CCFC7
:102A80008091270282FB992790F921E0922790FB01
:102A900082F990FB83F9C3CF80912802982F9095FB
:102AA00091708E7F892B90FB81F986CF0E94AB0FAE
:102AB00090912702892F97FB87F98058B0CF61E06A
:102AC000A6CF36E1E3163CE5F30609F0DEC28091BD
:102AD000E6018A7A91E009F490E090938C018111EB
:102AE00006C089E20E94E6080E9476086DCD85E363
:102AF000F9CF85E34EC30E94AB0F8FEF94E3ECE078
:102B000081509040E040E1F700C000000E94E60ADA
:102B100081E0E1C280E0DFC2C7010E942409D82E13
:102B2000EBC22F2D2F70C22E8F2D807F19F0C294F3
:102B300090EFC922DD20C9F0CC2069F080E28E0D33
:102B4000883010F081100BC08091E601C82AC09235
:102B5000E6010E9476088E2D0E940A0B19C0809112
:102B6000E501C82AC092E501F4CF8E2D0E94F0093C
:102B7000CC2071F0C09480E28E0D883010F081106E
:102B80003FC08091E601C822C092E6010E9476080B
:102B9000292D2850330B2430310520F40E94D40411
:102BA0000E944D0AAA2009F4D3CC8091E30180FD54
:102BB000CFCCF80112828595859585950E94CC0928
:102BC000C8010E9486128091E301859585958595BF
:102BD0000F900F900F900F900F90DF91CF911F915A
:102BE0000F91FF90EF90DF90CF90BF90AF909F90AC
:102BF0008F907F906F905F904F903F900C94A409BE
:102C00008091E501C822C092E501C0CF3F2D3F7001
:102C1000B32E8F2D807F803219F0B29480EFB822CE
:102C2000882071F081E0881681F1DD20D9F1CC2077
:102C300091F1F801858180FF8ECF8F7085832BC045
:102C4000DD20B1F09091E7018B2D892BC11003C0DD
:102C50000E94E6099DCFE1E0CE12FACF2091280232
:102C600022FD96CF981709F493CF8093E70190CF78
:102C7000C11006C00E9470088B2D0E94DB0988CF0E
:102C8000F1E0CF1609F484CFF5CFDD2031F025E057
:102C90002C1508F47DCF8B2DDBCF34E03C1508F4E8
:102CA00077CFEACFCC2041F3F9E38F1209C02FEFA1
:102CB00037EE83E0215030408040E1F700C0000053
:102CC0008E2D0E94F00964CF8F2D86958695837096
:102CD00061F0813009F05CCFC7019370D11002C060
:102CE00090E080E00E94A80453CFC7019370D110F8
:102CF00002C090E080E00E94BE044ACF8E2DDD200D
:102D000029F00E9432060E94500542CF0E947705AA
:102D1000FACF8F2D837091F5D1103ACF4E2D429579
:102D200046954770440F440F8E2D8F70042E01C0BE
:102D3000880F0A94EAF72E2D2071E4FE07C02FE0D9
:102D400030E001C0220F4A95EAF720953F2D3695D5
:102D500036953370323069F050F44091E8013130EB
:102D600029F0822B84230E94D70912CF842B822B37
:102D7000FACF282B8091E8018227F5CF8695DD20B8
:102D800011F08F2D8170882309F402CF4E2D4295CA
:102D900046954770440F440F8E2D8F70042E01C04E
:102DA000880F0A94EAF72E2D2071E4FE07C02FE069
:102DB00030E001C0220F4A95EAF720953F2D369565
:102DC00036953370323069F050F440915E02313004
:102DD00029F0822B84230E949509DACE842B822B42
:102DE000FACF282B80915E028227F5CF9F2D9F700E
:102DF000F92EDD2029F0892F0E94CC098E2D28CFB5
:102E00008E2D0E94DB098F2D0E94A409C1CE8E2D2C
:102E1000E2EF8E1609F44BC0E81570F0F0EF8F1654
:102E200039F121EF8216D9F1DD2009F45CC0C1101F
:102E300092CE8F2D8F7138C033EF8316E9F194EF66
:102E40008912F2CFDD2009F443C02F2D2F71F22E0D
:102E5000822F0E94CC098091280282FD07C038E0B1
:102E6000F39EC001112483608093E3018F2D1CC069
:102E7000DD2081F0E4E0EC1508F48ACE2F2D2F71CF
:102E800081E090E001C0880F2A95EAF790915E02F8
:102E90008927A1CFF5E0FC1508F47ACEEFCF8F2D6E
:102EA0008F71DD2009F4B0CF0E94CC0971CE8F2D37
:102EB0008F71DD20C9F3A8CF80E0DD2009F48BCF2E
:102EC0009F2D9F7181E001C0880F9A95EAF783CF0B
:102ED00081E00E94B00981E08C1508F059CE82E0B3
:102EE0000E94B00955CECC2059F0893309F0E8CEC4
:102EF0009FEFE7EEF3E09150E040F040E1F7DECEE7
:102F00008F2D8F7181CFF0E1EF16FFE5FF0609F4F9
:102F10005ACC21E1E2162FE5F20609F45ACC23EF50
:102F2000E2162CE5F20609F4D0CC08F01AC188EDBF
:102F3000E8168CE5F80609F4C4CC99EDE9169CE591
:102F4000F90609F4CECCE7EDEE16ECE5FE0609F045
:102F500015C126E241EE61EEC8010E94DD0B34CBC3
:102F600030E1E3163FE5F30609F427CC81E1E816EA
:102F70008FE5F80609F42BCC8DEBE8168CE5F80606
:102F800009F454CC08F027CCEBEBEE16ECE5FE068A
:102F900009F444CC80E0FCEBEF16FCE5FF0609F4F5
:102FA0003ECC83EFE8168CE5F80609F48ECC08F0E9
:102FB000F3C0E8EDEE16ECE5FE0609F482CCF9ED7F
:102FC000EF16FCE5FF0609F48CCC27EDE2162CE5A4
:102FD000F20609F4BECF10925D0292E0E9169CE57C
:102FE000F90608F46ECDE6E1EE16ECE5FE0630F0EB
:102FF000C7018A5F9C45099708F063CD0E949F0D29
:103000009093280280932702F0E1EF16FCE5FF067B
:1030100009F426CD08F09FCC38E0E3163CE5F30632
:1030200009F40CCD08F06FCC94E0E9169CE5F906A4
:1030300009F4F8CC08F058CCF2E0EF16FCE5FF06F6
:1030400009F4EACC80912702826023E0E2162CE5A5
:10305000F20609F4E4CC80912702909128020E94A4
:10306000D20C0E94AB0FB0CA85E0DE011196019030
:103070000D928A95E1F7F801228189819A812111C7
:103080007ECA0E942409F82E82CA2AE5E2162DE59E
:10309000F20609F43DCD68F4E1148CE5F80609F474
:1030A0002ACD9EEDE9169CE5F906B9F40E941B0FA6
:1030B0008BCAEBE5EE16EDE5FE0609F42BCDFCE53B
:1030C000EF16FDE5FF0649F48091280282FB882770
:1030D00080F991E089270E94DF0CF8018281E0806D
:1030E000F180882309F418CDC7010E94240DD82E41
:1030F000682FC7010E944C09B7018D2D0E94170D42
:103100000E94E8067C01882EF801D280C580C29416
:103110003FE0C3228091E3018770A1F0AD2CDD2058
:1031200091F08F2D807F803421F080E28E0D8830E9
:1031300048F082E00E94B0098091E3018770AA24E0
:10314000A3948111A12C9F2C92942FE09222FBE05A
:10315000F91508F41DCDE92DF0E0E65BFC4D0C946B
:103160009221F5EFEF16FCE5FF0609F4B6CB08F463
:10317000B0CB36EFE3163CE5F306E1F0F6E1EF16EF
:10318000FCE5FF0609F0A9CF80918C018111B1CC3B
:1031900089E20E94BB08A8CC35EFE3163CE5F306B4
:1031A00009F49BCB08F495CB96EFE9169CE5F9065C
:1031B00009F011CF27E245EE66EECECE1F93CF93F6
:1031C000DF938091B001807FA9F48091AD018823C5
:1031D00089F08091E201D091B1016091AB017091D1
:1031E000AC01A091AE01B091AF01C62FC72316E08C
:1031F000D81304C0DF91CF911F91089590E01097EC
:1032000011F0CF3F19F401968770F2CF189F90010B
:10321000199F300D1124F901EE54FE4F41814713DF
:10322000F2CF40814613EFCF42814111ECCF438171
:1032300054814A1B5B0B483C510528F78091B00133
:103240008F7080618093B001F901E954FE4F808155
:103250008F70806180838BEA91E00E948612DF91FB
:10326000CF911F910C941A09AF92BF92CF92DF9227
:10327000EF92FF920F931F93CF93DF93CDB7DEB7FB
:1032800061970FB6F894DEBF0FBECDBF8C0185E00D
:10329000F801DE011D9601900D928A95E1F7F80183
:1032A000E2808BEAA82E81E0B82E6091AE01709189
:1032B000AF016115710509F432C19091AB014091E4
:1032C000AC01892F84238F3F09F429C120813181EA
:1032D000C380D480F090AD01F601E61BF70BFF2010
:1032E00009F4E8C08091B001582F507FE83CF10507
:1032F00008F0ABC0511177C0FE2C431321C09213CC
:103300001FC0E1101DC08F7080618093B001C501A6
:103310000E9486128091B001F80185838F2D6196FD
:103320000FB6F894DEBF0FBECDBFDF91CF911F91D6
:103330000F91FF90EF90DF90CF90BF90AF900895E6
:10334000CD2829F0822F83238F3F09F003C180E02D
:10335000F82FF170DF2E80FF3CC08091E201409198
:10336000B10156E0841315C02D873E878D859E855B
:103370000E94530D292F22952F702230F0F0243017
:1033800018F59F70F1F0F8019581907FD1F4D12C60
:103390001EC090E0589FF001599FF00D1124EE548B
:1033A000FE4F6181361306C06081261303C062811F
:1033B000E6120FC001968770D5CF9F7011F0882359
:1033C00031F3805E883018F3C8010E948612FD2C0C
:1033D000A5CFEE2009F4A2CF8091B0018160809347
:1033E000B001F12C9BCF431306C0921304C0F80127
:1033F000EE2009F479C0C8010E945F0D882309F10D
:10340000EE20F9F08091B001803270F02091AB0194
:103410003091AC0138872F831986DB86CA868C876A
:10342000CE0107960E94861286E0F801ABEAB1E071
:1034300001900D928A95E1F70E94DE18FF24F39423
:103440006DCFC8010E948612F9CF51110AC08BEAD4
:1034500091E00E94861286E0F50111928A95E9F7C3
:10346000C0CF43130FC092130DC0E1100BC0F80181
:103470008583C8010E94861286E0F50111928A9523
:10348000E9F74CCFC8010E945F0D8823D1F2EE20EE
:10349000C1F28091B001803238F22091AB013091BD
:1034A000AC013A8329831B82DD82CC828E83CE01DC
:1034B0000196B8CFE83CF105F8F6FE2CEE2009F2B3
:1034C00043131FC092131DC08091B00180FD10C036
:1034D000982F907F69F0F8018583903F31F0982F05
:1034E000907F905F8F70892B8583C8010E94861220
:1034F00086E0F801ABEAB1E001900D928A95E1F720
:103500000DCFC8010E945F0D81118ECF8091B00157
:1035100081608093B001C8010E948612FFCEEE2028
:1035200009F48FCFC8010E945F0DF82E882309F49B
:1035300088CF86E0F801ABEAB1E001900D928A9560
:10354000E1F78091AB019091AC010E94530D0E9474
:10355000DE18E4CE81E08E25FBCE1F93CF93DF9360
:10356000CDB7DEB767970FB6F894DEBF0FBECDBFFD
:103570004B8B5C8B6D8B7E8B8F8B61111092E50179
:103580001A8A198A85E0FE017396DE011D96019064
:103590000D928A95E1F786E0FE013D96DE011796D1
:1035A00001900D928A95E1F7CE0107960E94341999
:1035B000811112C086E0FE013796DE01119601905E
:1035C0000D928A95E1F78A859B85892B29F088855C
:1035D0009F8189238F3FB1F516E08091E2019091A0
:1035E000B10189131DC067960FB6F894DEBF0FBEF8
:1035F000CDBFDF91CF911F91089596E0929FD001AA
:10360000939FB00D1124AE54BE4FFE013196019030
:103610000D929A95E1F78093B1010E941A09DCCFCF
:10362000819FC00111248E549E4F0E94341988231B
:10363000D1F28091E20190E0019687709927809302
:10364000E201CBCF2091B10130E0C9010196877032
:1036500099274091E2014817190679F60E94AB0FAD
:103660001092B1011092E20186E0EBEAF1E0DF0195
:103670001D928A95E9F7B0CF1F920F920FB60F9265
:1036800011242F933F934F935F936F937F938F9367
:103690009F93AF93BF93CF93DF93EF93FF93D0911B
:1036A000E900DF708091EC00C82FC17080FDC0E898
:1036B0001092E9008091F000877F8093F000789469
:1036C0000E94C00F1092E9008091F0008860809302
:1036D000F000CD2BCF70C093E900FF91EF91DF9107
:1036E000CF91BF91AF919F918F917F916F915F919A
:1036F0004F913F912F910F900FBE0F901F901895F3
:103700001F920F920FB60F9211242F933F934F9356
:103710005F936F937F938F939F93AF93BF93EF9339
:10372000FF938091E10082FF09C08091E20082FF57
:1037300005C08091E1008B7F8093E1008091DA00E9
:1037400080FF24C08091D80080FF20C08091DA00E3
:103750008E7F8093DA008091D90080FF9BC080E14A
:1037600089BD82E189BD09B400FEFDCF81E080936F
:10377000510280912C02811109C00E9400030E9415
:10378000CB038091E20084608093E2008091E100AD
:1037900080FF17C08091E20080FF13C08091E2009B
:1037A0008E7F8093E2008091E20080618093E2004E
:1037B0008091D80080628093D80019BC85E0809306
:1037C00051028091E10084FF29C08091E20084FFD2
:1037D00025C080E189BD82E189BD89B5982F9170AE
:1037E00080FFFBCF8091D8008F7D8093D80080919F
:1037F000E1008F7E8093E1008091E2008F7E8093D4
:10380000E2008091E20081608093E20080915202A8
:10381000882309F445C084E0809351028091E1003F
:1038200083FF27C08091E20083FF23C08091E100E5
:10383000877F8093E10082E08093510210925202D0
:103840008091E1008E7F8093E1008091E2008E7F85
:103850008093E2008091E20080618093E20042E088
:1038600060E080E00E9499038091F000886080937E
:10387000F000FF91EF91BF91AF919F918F917F9158
:103880006F915F914F913F912F910F900FBE0F90CD
:103890001F90189519BC1092510210922C0276CFED
:1038A0008091E30087FD93E090935102B7CF789425
:1038B0001F921FB61F9211248F939F93AF93BF93B4
:1038C0008091230290912402A0912502B0912602BA
:1038D0000196A11DB11D8093230290932402A09311
:1038E0002502B0932602BF91AF919F918F911F90B7
:1038F0001FBE1F9018951F921FB61F9211248F9301
:103900009F93AF93BF9380912202811113C0809146
:10391000230290912402A0912502B09126024196A3
:10392000A11DB11D8093230290932402A093250230
:10393000B0932602BF91AF919F918F911F901FBEB0
:103940001F901895CDB7DEB7AA970FB6F894DEBFD3
:103950000FBECDBF84B7877F84BF0FB6F894A895FC
:1039600080916000886180936000109260000FBEBB
:1039700080E890E00FB6F894809361009093610026
:103980000FBE85B7806885BF85B7806885BF8CE826
:1039900096E090936701809366010E9400030E9465
:1039A000CB038091E20084608093E2007894809160
:1039B00051028823A1F01091E9001F709091EC0052
:1039C000892F817090FD80E8182B1092E90080917A
:1039D000E80083FD0E94C00F1F701093E90082E091
:1039E00084BD93E095BD9AEF97BD80936E000E94D1
:1039F000860D811102C00E94BE0C02E411E0E7E4D2
:103A0000EE2EE1E0FE2EF80181918F018F3F11F043
:103A10000E948E06E016F106B1F707E411E0F80106
:103A200081918F018F3F11F00E948E06F1E00635E3
:103A30001F07A9F71092EF011092EE0110920502F4
:103A4000109204021092F1011092F00110920702FC
:103A5000109206021092F3011092F20110920902E4
:103A6000109208021092F5011092F40110920B02CC
:103A700010920A021092F7011092F60110920D02B4
:103A800010920C028BE490E00E94FB21AC01909319
:103A9000ED018093EC0130E020E0FA01E20FF31F2A
:103AA0009FE011929150E9F7215F3F4F2B34310590
:103AB000A1F70E94100F811102C00E941B0F82E02B
:103AC00090E00E94B9218093F9010E949F0D90938C
:103AD0002802809327020E94AD0D8FEB9DE5019790
:103AE000F1F700C000000E94AD0D8091040280FF3C
:103AF00008C06FEF7FEF90E080E00E94E5210E9418
:103B0000E60A83E090E00E94B9210E94D709259A35
:103B10002D9882E88093800089E1809381008FEF67
:103B20009FEF90938700809386000E94850F549AA0
:103B30000E94850F809127028068809327028091E0
:103B40002702909128020E94D20C86E091E0909387
:103B50001F0280931E0270E4272E8091510200E123
:103B600012E1853009F4B1C10E94AD0D882359F0EE
:103B70008FB7F8944091230250912402609125025E
:103B8000709126028FBF54E0652E52E0752E6AEFC9
:103B9000C62E61E0D62E512C412CF301A190B1909C
:103BA0003F01F601E190F1906F01EA14FB04A9F1E5
:103BB000312C01E010E0EA24FB244F01F2E08F1ADF
:103BC0009108C70180239123892B09F139A24AA2C8
:103BD00021E0C8018A219B21892B09F420E02BA335
:103BE0000E949C048160782F9DA38CA349A15AA1B7
:103BF0006BA18DA10E94AD1AF40180819181802773
:103C00009127918380835394FBE0F515E0F0339482
:103C1000000F111F2FE03212D4CF439445E044121D
:103C2000BCCF511010C08FEF8EA38FA318A60E9497
:103C30009C048160782F9AA789A74EA15FA168A5EF
:103C40008AA50E94AD1A86E0E5E1F2E0DE01119658
:103C500001900D928A95E1F7F0901702E09018021A
:103C60001091190200911A02109217021092180274
:103C70001092190210921A028F2D8E2909F448C051
:103C800080911302909114020E948D049C019091E6
:103C90000F02992309F4E7C223333105C8F19F3F8E
:103CA00019F09F5F90930F02FF2059F00E941206B7
:103CB0009FEF1F140CF491E0899F802D11248093B5
:103CC0001702EE2059F00E9412069FEF1E140CF40A
:103CD00091E0899F802D1124809318023091170262
:103CE0003323B1F020911802222391F045EB3403E5
:103CF000C0011124992309F4F6C09093170245EBF3
:103D0000240390011124332309F4F1C030931802E5
:103D1000812F802B09F448C08091110290911202EA
:103D20000E948D049C0190910E02992309F496C281
:103D300025363105C8F19F3F19F09F5F90930E0221
:103D4000112359F00E94F0059FEF11160CF491E039
:103D5000899F802D112480931902002359F00E941D
:103D6000F0059FEF10160CF491E0899F802D11242F
:103D700080931A02309119023323B1F020911A0274
:103D8000222391F045EB3403C0011124992309F457
:103D9000B2C09093190245EB240390011124332300
:103DA00009F4ADC030931A02809117029091180265
:103DB000892B90911902892B90911A02892B11F06D
:103DC0000E94500586E0FE013196A5E1B2E0019027
:103DD0000D928A95E1F70E94D4049091F801891719
:103DE00031F00E94D4048093F8010E944D0A809122
:103DF0005102843009F0B1CE83E08093E9008091D4
:103E0000E80082FFAACE8091E80090E085FF0CC018
:103E10000E941F0330E2E32EF12C8E010F5F1F4F33
:103E2000882309F47AC091E08091E8008B77809331
:103E3000E800992309F491CEE981E150E33108F0DB
:103E4000FBC0F0E0EA5AFC4D0C94922180915102A3
:103E5000843049F180E00E94E00480E00E944D0A35
:103E600010922202E8E1F0E00FB6F894A895E093F2
:103E700060000FBE2092600083B7817F846083BFA3
:103E800083B7816083BF7894889583B78E7F83BF23
:103E90000FB6F894A89580916000886180936000C7
:103EA000109260000FBE80915002882371F00E9432
:103EB000AD0DE4E0F2E081919191892B09F0AFC161
:103EC0008EE092E08E179F07B1F780915102853006
:103ED00009F4BCCF0E94AB0F0E94850F0E94D4044E
:103EE0000E944D0A41CE81E08093170208CF81E005
:103EF000809318020DCF81E0809319024CCF81E0AE
:103F000080931A0251CF8091F100F80181938F01C3
:103F1000F1E0EF1AF10809F486CF8091E80085FD01
:103F2000F2CF8091E8008B778093E8000E941F0316
:103F3000882399F378CF1A8289E08B831AC08A810B
:103F4000823009F482C18330D9F1813009F074C024
:103F50002FB7F8946091230270912402809125027A
:103F6000909126022FBF0E9498216B837C838D83C2
:103F70009E8380915102843009F0EFCD1091E900C9
:103F80001F709091EC00892F817090FD80E8182BB4
:103F900082E08093E9008091E80080FF0DC050E04E
:103FA00040E060E270E0CE0101960E9450038091F3
:103FB000E8008E778093E8001F701093E900CDCD64
:103FC00080910402909105029827892798279C8365
:103FD0008B83809106029091070298278927982762
:103FE0009E838D83809108029091090298278927EA
:103FF000982798878F8380910A0290910B029827C7
:10400000892798279A87898780910C0290910D02C1
:104010009827892798279C878B87ABCF8A81823006
:1040200059F46B817C818D819E810E94982186E26A
:1040300090E00E94C7219DCF8FEF89839ACF4C815A
:104040006B818A810E94F10C9827892798279E838B
:104050008D838FCF0D811E811027012710278A8124
:10406000EB802EE1E29E7001112446E9849FE00C72
:10407000F11C11248C8190E0880F991FE80EF91E25
:10408000612FC70187960E94C721602FC7018896BC
:10409000D0CF0E94510C6DCF8A81893009F069CF51
:1040A0008B81E3E08E9FC00111246FEF70E00E94CE
:1040B0004821862F0E943A055CCF8A81893029F0F9
:1040C0008A3009F056CF1B8254CF80911B0286950F
:1040D00086958695FFEF8F9FC001112463E070E005
:1040E0000E9448216B8345CF80911B020E94CD0C1A
:1040F00040CF80E18A833DCF81E08A8381E81DCF74
:104100000A811B81102701271027CE0101967C010F
:10411000CC80FC01EC0DF11D6F01C80181589D4F51
:10412000EC14FD0409F425CF0138F1E01F0750F429
:104130000E94B921F70184830F5F1F4FFFEFEF1A31
:10414000FF0AEBCFF7011482F7CF0A811B811027FA
:1041500001271027CE0101966C01EC80E00EF12EB4
:10416000F11CC80181589D4FE016F10609F401CFFA
:104170000138E1E01E0720F4F60164810E94C721A6
:10418000FFEFCF1ADF0A0F5F1F4FEBCF0E94410CEA
:10419000F0CE84E0AFCF0A811B81102701271027C2
:1041A000CE0101967C01CC80FC01EC0DF11D6F016C
:1041B000C8018796EC14FD0409F4DBCE0835F2E063
:1041C0001F0750F40E94B921F70184830F5F1F4F2E
:1041D000FFEFEF1AFF0AECCFF7011482F7CF0A8145
:1041E0001B81102701271027CE0101966C01EC805E
:1041F000E00EF12EF11CC80187960E151F0509F47B
:10420000B8CE0835E2E01E0720F4F60164810E9472
:10421000C721FFEFCF1ADF0A0F5F1F4FECCF09BD99
:1042200019BD09B400FEFDCF8091D8008F7D809329
:10423000D8008091E00082608093E0008091E000EF
:1042400081FDFCCF0E94AB0F40CE86E290E00E9441
:10425000B9211B821C821D828E838BCE2D32314070
:1042600008F06BCDA1CD2D32314008F01ACD50CDE4
:10427000DB018F939F930E94AE21BF91AF91A29FCC
:10428000800D911DA39F900DB29F900D1124089554
:10429000AA1BBB1B51E107C0AA1FBB1FA617B7076C
:1042A00010F0A61BB70B881F991F5A95A9F7809588
:1042B0009095BC01CD01089597FB072E16F400944C
:1042C00007D077FD09D00E94482107FC05D03EF4B5
:1042D000909581959F4F0895709561957F4F0895B2
:1042E000A1E21A2EAA1BBB1BFD010DC0AA1FBB1FFA
:1042F000EE1FFF1FA217B307E407F50720F0A21B6C
:10430000B30BE40BF50B661F771F881F991F1A94D8
:1043100069F760957095809590959B01AC01BD0102
:10432000CF010895EE0FFF1F0590F491E02D099441
:104330006927962769277827872778270895A29FD6
:10434000B001B39FC001A39F700D811D1124911D69
:10435000B29F700D811D1124911D08950E949F210F
:10436000A59F900DB49F900DA49F800D911D1124C9
:104370000895F999FECF92BD81BDF89A992780B52D
:104380000895A8E1B0E042E050E00C94ED21262F22
:10439000F999FECF92BD81BDF89A019700B402163B
:1043A00039F01FBA20BD0FB6F894FA9AF99A0FBEE9
:1043B00008950396272F0E94C8210E94C721252F08
:1043C0000E94C821242F0C94C8210196272F0E94F7
:1043D000C8210C94C721DC01CB01FC01F999FECF67
:1043E00006C0F2BDE1BDF89A319600B40D9241507D
:1043F0005040B8F708950F931F93CF93DF939C011C
:10440000029710F422E030E0E0916801F091690138
:1044100090E080E0B0E0A0E0309791F4009709F4DC
:1044200045C0821B930B84309105B8F58A819B812E
:104430006115710569F1FB0193838283FE0111C04F
:10444000408151810281138142175307F0F04217D6
:10445000530799F4109761F012960C9312971396E4
:104460001C933296CF01DF91CF911F910F91089548
:104470000093680110936901F4CF009719F0481771
:10448000590718F4CA01BD01EF01DF01F801C4CFDB
:104490009093690180936801D1CFFE01E80FF91F65
:1044A00021933193029799838883DCCF80916A01AD
:1044B00090916B01892B41F480910201909103014D
:1044C00090936B0180936A018091000190910101AA
:1044D000009741F48DB79EB74091040150910501BA
:1044E000841B950B40916A0150916B014817590745
:1044F00008F0B8CF841B950B8217930708F4B2CF4E
:10450000B9016E5F7F4F8617970708F4ABCF640F32
:10451000751F70936B0160936A01FA0121933193C7
:10452000A1CFCF93DF939C010097E9F0FC01329774
:1045300013821282C0916801D0916901DE0190E07E
:1045400080E02097A1F480819181280F391F80910C
:104550006A0190916B018217930709F067C0F0938D
:104560006B01E0936A01DF91CF910895DA01AE17F4
:10457000BF0708F041C012964D915C911397CD0191
:104580004115510599F7DC011396FC93EE931297B0
:104590004D915D91A40FB51FEA17FB0781F42081AF
:1045A00031812E5F3F4F240F351FDC0111963C9364
:1045B0002E932281338113963C932E931297B0E071
:1045C000A0E08A819B810097B1F5FE0181919191D4
:1045D000E80FF91F80916A0190916B018E179F0778
:1045E00011F6109759F51092690110926801D09355
:1045F0006B01C0936A01B7CFB383A283408151811D
:10460000240F351FA217B30771F44E5F5F4F2D9132
:104610003C911197420F531F5183408312962D9165
:104620003C9133832283009709F0ADCFF093690169
:10463000E093680198CFDE01EC01C3CF13961C9282
:104640001E921297D4CFFB01DC0104C08D91019022
:10465000801921F441505040C8F7881B990B0895E8
:10466000F894FFCF710D710D7A0D7A0D7C0D7A0DD6
:104670007A0D7A0D710D710D810D7A0D7A0D810D06
:10468000A510CD106E12CD106E12001121116E12F8
:104690001F122C12911591150616061664167E1619
:1046A000C815C8158916F616071707179B1F9F1FF1
:1046B0000E201F202A2049204C205D2074201C2021
:1046C0001C2079207C208020A520C620C920CB205A
:0246D000EF20D9
:1046D2000000630220008A04A60A850A810A7D0A74
:1046E20001818283E200E900EA00B500B600B7006A
:1046F200CD008301CC008A019201940121022302A0
:1047020024022502260227022A02B300B4006F0007
:104712007000F0369634976667F7F6F5F4F13031AB
:104722003233379293954022B684016201AC00DEA7
:0647320004F70417050066
:00000001FF
