:100000000C94CD050C9414060C9414060C94140650
:100010000C9414060C9414060C9414060C941406F8
:100020000C9414060C9414060C94E1250C949D2554
:100030000C9432270C9414060C9414060C94140699
:100040000C9414060C9414060C9414060C941406C8
:100050000C9414060C940E270C9414060C9414069D
:100060000C9414060C9414060C9414060C941406A8
:100070000C9414060C9414060C9414060C94140698
:100080000C9414060C9414060C9414060C94140688
:100090000C9414060C9414060C9414060C94140678
:1000A0000C9414060C9414060C9414060631FF09E3
:1000B00074A1010975150026FF00952075088102BD
:1000C0000976150026FF00952075089102C00501EC
:1000D0000902A10185020901A100050919012908E8
:1000E00015002501950875018102050109300931C6
:1000F0001581257F95027508810609381581257FB0
:10010000950175088106050C0A38021581257F9531
:100110000175088106C0C005010980A10185031988
:10012000012AB700150126B700950175108100C09E
:10013000050C0901A101850419012AA00215012657
:10014000A002950175108100C005010906A1018575
:1001500005050719E029E7150025019508750181B6
:10016000020507190029EF1500250195F075018199
:10017000020508190129059505750191029501757A
:10018000039101C00660FF0961A101096215002603
:10019000FF009520750881020963150026FF009570
:1001A0002075089102C005010906A101050719E0A3
:1001B00029E715002501950875018102950175084B
:1001C00081010507190029FF150026FF0095067516
:1001D0000881000508190129059505750191029509
:1001E0000175039101C00000000000000000000044
:1001F00000000000000000000000000000000000FF
:10020000000000000000000000007E0F00D4FFFF8F
:10021000FFC70000007800000000000000002A2B4B
:1002200028000000000000000000000000000000A6
:100230000029000000002C1E34202122243426270F
:10024000252E362D3738271E1F2021222324252630
:100250003333362E37381F0405060708090A0B0CFE
:100260000D0E0F101112131415161718191A1B1C46
:100270001D2F3130232D350405060708090A0B0C04
:100280000D0E0F101112131415161718191A1B1C26
:100290001D2F3130354C7267626C69676874206459
:1002A000697361626C65205B454550524F4D5D3A04
:1002B000207267626C696768745F636F6E666967F6
:1002C0002E656E61626C65203D2025750A0072679F
:1002D000626C6967687420656E61626C65205B455D
:1002E0004550524F4D5D3A207267626C6967687481
:1002F0005F636F6E6669672E656E61626C65203D37
:100300002025750A007267626C6967687420746FD3
:1003100067676C65205B454550524F4D5D3A2072D2
:1003200067626C696768745F636F6E6669672E6584
:100330006E61626C65203D2025750A00444542557A
:10034000473A2064697361626C65642E0A00444513
:100350004255473A20656E61626C65642E0A006101
:1003600064645F6B65795F6269743A2063616E27CC
:1003700074206164643A20253032580A0064656C48
:100380005F6B65795F6269743A2063616E277420E0
:1003900064656C3A20253032580A004F6E657368E8
:1003A0006F743A206163746976653A2025640A00A7
:1003B0000A002530325820006B6579626F617264E3
:1003C0005F7265706F72743A20007267626C696761
:1003D00068745F636F6E6669672E7370656564200D
:1003E0003D2025640A007267626C696768745F6308
:1003F0006F6E6669672E76616C203D2025640A0069
:100400007267626C696768745F636F6E6669672E96
:10041000736174203D2025640A007267626C69670D
:1004200068745F636F6E6669672E687565203D202E
:1004300025640A007267686C696768745F636F6E31
:100440006669672E6D6F6465203D2025640A007221
:1004500067626C696768745F636F6E6669672E6553
:100460006E61626C65203D2025640A007267626CD3
:10047000696768745F636F6E6669672045455052AF
:100480004F4D3A0A007267626C696768745F696E03
:100490006974207267626C696768745F636F6E6607
:1004A00069672E6D6F6465203D20302E205772697C
:1004B00074652064656661756C742076616C756521
:1004C0007320746F20454550524F4D2E0A007267BD
:1004D000626C696768745F696E6974206565636FD3
:1004E0006E666967206973206E6F7420656E616245
:1004F0006C65642E0A007267626C696768745F6974
:100500006E6974207374617274210A007267626C80
:10051000696768745F696E69742063616C6C656497
:100520002E0A004B6579626F617264207374617288
:10053000742E0A000A002530313662003A20002568
:10054000303258000A722F6320303132333435365E
:100550003738394142434445460A0000047F3F1F73
:10056000643214643214783C1E1E140A050A0025F5
:10057000303258006B6579626F6172645F736574C5
:100580005F6C65643A20007267626C69676874200A
:1005900064697361626C65205B4E4F454550524FF4
:1005A0004D5D3A207267626C696768745F636F6E55
:1005B0006669672E656E61626C65203D2025750A4F
:1005C000007267626C6967687420656E61626C6551
:1005D000205B4E4F454550524F4D5D3A2072676249
:1005E0006C696768745F636F6E6669672E656E61BC
:1005F000626C65203D2025750A007267626C696730
:10060000687420736574207370656564205B4E4F59
:10061000454550524F4D5D3A2025750A005B735D8C
:1006200000290A002575002F002575005D2800258A
:10063000640020002564002000256400200025645B
:10064000007C0025303258006D6F7573656B6579DD
:10065000205B62746E7C782079207620685D287239
:1006600065702F61636C293A205B00000101010174
:10067000010101010102020202020202020203035D
:10068000030303030303040404040404040505052D
:1006900005050606060606070707070708080808EF
:1006A000090909090A0A0A0B0B0B0C0C0C0D0D0D9C
:1006B0000E0E0E0F0F0F1010111111121213131432
:1006C00014151516161717181819191A1A1B1B1CAA
:1006D0001D1D1E1E1F202021222223242425262604
:1006E000272829292A2B2C2D2D2E2F303132323339
:1006F0003435363738393A3B3C3D3E3F4041424342
:100700004445464748494A4C4D4E4F505153545525
:100710005658595A5B5D5E5F616264656668696BD5
:100720006C6D6F7072737577787A7B7D7E80828353
:100730008587888A8C8E8F91939596989A9C9EA097
:10074000A2A3A5A7A9ABADAFB1B3B5B7BABCBEC0A4
:10075000C2C4C6C9CBCDCFD1D4D6D8DBDDDFE2E46D
:10076000E7E9EBEEF0F3F5F8FAFDFF7267626C690A
:100770006768742074696D657220656E61626C656E
:10078000642E0A007267626C69676874206D6F641A
:1007900065205B4E4F454550524F4D5D3A202575C3
:1007A0000A007267626C69676874206D6F64652007
:1007B0005B454550524F4D5D3A2025750A007267E2
:1007C000626C696768742073657420687376205B57
:1007D0004E4F454550524F4D5D3A2025752C25759D
:1007E0002C25750A007267626C69676874207365EE
:1007F0007420687376205B454550524F4D5D3A201A
:1008000025752C25752C25750A007267626C696741
:100810006874207261696E626F77207365742068F6
:1008200073763A2025642C25642C25642C25750AC2
:1008300000FFAA7F55407267626C69676874207414
:10084000696D65722064697361626C652E0A0022AD
:1008500023252628292A2C2D2F3032333536383AB5
:100860003B3D3E4042434547494A4C4E505153550B
:1008700057595A5C5E6062646668696B6D6F71732C
:100880007577797B7D7F81838587898A8C8E90922D
:100890009496989A9C9E9FA1A3A5A7A8AAACAEAF38
:1008A000B1B3B4B6B8B9BBBCBEBFC1C2C3C5C6C77D
:1008B000C9CACBCCCDCED0D1D2D2D3D4D5D6D7D72E
:1008C000D8D9D9DADADBDBDBDCDCDCDCDCDDDDDD76
:1008D000DDDCDCDCDCDCDBDBDBDADAD9D9D8D7D772
:1008E000D6D5D4D3D2D2D1D0CECDCCCBCAC9C7C61F
:1008F000C5C3C2C1BFBEBCBBB9B8B6B4B3B1AFAE5D
:10090000ACAAA8A7A5A3A19F9E9C9A989694929002
:100910008E8C8A89878583817F7D7B7977757371DA
:100920006F6D6B6968666462605E5C5A59575553B7
:1009300051504E4C4A4947454342403E3D3B3A3870
:1009400036353332302F2D2C2A2928262523222BE9
:100950000014001A000800150017001C0018000CF5
:1009600000120013002A00290004001600070009E5
:10097000000A000B000D000E000F0033003400E1F0
:10098000001D001B000600190005001100100036B4
:1009900000370038002800E000E3003900E20010D2
:1009A0005F2C002C00115F5000510052004F0035A9
:1009B000003A003B003C003D003E003F004000414B
:1009C00000420043004C000100AA00A900A8000159
:1009D0000001000100440045000100010001000188
:1009E00000010001000100010001000100010001FF
:1009F00000010001000100005C0100010001000194
:100A000000010001000100010001000100010001DE
:100A1000001E001F002000210022002300240025CA
:100A2000002600270001000100C25CC35CC55CC653
:100A30005C010001002D002E002F0030003100016C
:100A400000BF5CC05C010001000100010001000169
:100A5000000100010001000100010001000100018E
:100A6000000100010001000100010001000100017E
:100A7000001E001F0020002100220023002400256A
:100A8000002600270001000100C25CC35CC55CC6F3
:100A90005C010001002D002E002F0030003100010C
:100AA00000BF5CC05C010001000100010001000109
:100AB00000010001000100005C01000100010001D3
:100AC0000001000100010001000100010001005BC4
:100AD000435D005B445D005B535D005B575D005B05
:100AE000525D0009027B00040100A0FA0904000025
:100AF0000103010100092111010001224000070545
:100B0000810308000109040100020300000009211B
:100B100011010001222200070582032000010705C0
:100B20000303200001090402000103000000092161
:100B30001101000122B60007058403200001090409
:100B4000030002030000000921110100012222001C
:100B50000705850320000107050503200001120198
:100B60000002000000086D6E01000100010200019A
:100B700012034E004900550020004D0069006E0030
:100B80006900000010034B00420044004600610071
:100B90006E00730000000403090411241FBECFEF90
:100BA000DAE0DEBFCDBF04B603FE27C08091BE02EF
:100BB0009091BF02A091C002B091C1028730904BCA
:100BC000A740B04BD1F41092BE021092BF02109217
:100BD000C0021092C10214BE84B7877F84BF0FB6D3
:100BE000F894A895809160008861809360001092CD
:100BF00060000FBEE0E0F8E3099511E0A0E0B1E08D
:100C0000EAEFF0E602C005900D92AA39B107D9F7D4
:100C100022E0AAE9B1E001C01D92AE3BB207E1F7C4
:100C20000E9459270C9444300C940000FF93EF93DA
:100C3000E0919A01F0919B01309709F00995EF91AD
:100C4000FF910895FC018591803011F0EFDFFBCF1B
:100C50000895FF27E0E230E247FF0CC0419597FF7F
:100C600009C0EDE26095709580959095611D711DAC
:100C7000811D911D27FF02C0219530E350E2AA2774
:100C8000660F771F881F991FAA1FA41710F0A41BB7
:100C900063955A95A9F7AA3008F0A95FA05DAF93B4
:100CA000F395611571058105910541F7ED3211F458
:100CB000EF93F395F21718F43F93F395FBCF8F91D1
:100CC000B5DFFA95E1F70895E991F99185918030C2
:100CD00021F0853219F0AADFF9CF089520E0E894D9
:100CE00055915532C1F3503311F4689455915A33EC
:100CF00048F4505390F3220F022E220F220F200DA2
:100D0000250FF4CF0EF4219589919991533619F35B
:100D1000533729F1533559F1BC0188279927E894B5
:100D20005C3621F48991999168945591543639F43F
:100D300046EF7EF077FF0DC08FEF9FEF0AC055376B
:100D40004AE039F0583540E121F0523642E009F0EE
:100D50000895FF93EF937DDFEF91FF91B7CFFF935E
:100D6000EF93FC0181918030B9F360DFFBCFFF93FB
:100D7000EF9368DFF1CFDF93CF93CDB7DEB7259642
:100D8000A3DFCF91DF910895E8EDF0E080818E7FC1
:100D900080831092E2001092DA001092E100A0EE3F
:100DA000B0E08C9181608C9380818F77808319BCB7
:100DB000A7EDB0E08C918E7F8C9380818F7E8083B5
:100DC00010928B0208952091E4003091E50095E6A1
:100DD000A9012091EC00822F817020FF06C0809134
:100DE000E80080FF06C080E008952091E80022FD21
:100DF0001AC08091B002882389F0853089F08091F3
:100E0000EB0085FD0FC02091E4003091E500421712
:100E10005307F9F29150E1F684E0089582E00895D5
:100E200083E0089581E00895EF92FF920F931F935E
:100E3000CF937C018B010E94E306C82F811117C05C
:100E40008091E80085FD0BC08091E8008E7780934B
:100E5000E8000E94E306882399F3C82F08C0F70131
:100E600081917F018093F1000150110949F78C2F86
:100E7000CF911F910F91FF90EF9008958091B20252
:100E800087FF13C08091E80082FF06C08091E800D0
:100E90008B778093E80004C08091B0028111F2CF7B
:100EA00008958091B0028823D9F38091E80080FFF3
:100EB000F8CF8091E8008E77ECCF982F9093E900DF
:100EC000242F762F50E0891731F07091EC0020919B
:100ED000ED005091F00021FD07C09F5F973071F742
:100EE0008093E90081E008953091EB003E7F3093DC
:100EF000EB003091ED003D7F3093ED003091EB0041
:100F000031603093EB007093EC002093ED00509330
:100F1000F0002091EE0027FDE0CF80E00895CF9211
:100F2000DF92EF92FF920F931F93CF93DF93C8ED61
:100F3000D0E088818F7E8883E7EDF0E0808181605A
:100F4000808384E082BF81E080938B0288818E7FE2
:100F5000888302EE10E0F80110821092DA0081EE30
:100F6000C82ED12CF601108288818F7788838881E2
:100F70008068888388818F7D888319BC1092B00235
:100F80001092B1021092AF021092AE0290EEE92ED2
:100F9000F12CF70180818B7F808388818160888339
:100FA00042E060E080E00E945D07F60180818E7F74
:100FB0008083F80180818160808380818860808364
:100FC000F70180818E7F8083888180618883DF91B3
:100FD000CF911F910F91FF90EF90DF90CF900895E8
:100FE000FC018091B8029091B90286179707A0F092
:100FF0006115710529F49091E8009E779093E800BF
:1010000090E06115710551F4911108C08091E800DC
:1010100082FF34C080E00895BC01F2CF8091B0021D
:101020008823C1F18530C1F18091E80083FD30C093
:101030008091E80082FDEACF8091E80080FFE1CF57
:101040008091F3002091F200382F6115710519F09D
:101050002830310558F091E02830310509F090E052
:101060002091E8002E772093E800CBCF81918093E8
:10107000F100615071092F5F3F4FE7CF8091B002BF
:10108000882341F0853041F08091E80083FFBECF96
:1010900081E0089582E0089583E0089580918D02B3
:1010A00008959C014FB7F89480917F02909180023F
:1010B000A0918102B09182024FBF821B930B0895D1
:1010C0002FB7F89480917F0290918002A0918102C5
:1010D000B09182022FBF089520917C0230917D0251
:1010E0002817390771F090937D0280937C02E0917C
:1010F0007A02F0917B02309721F00084F185E02D97
:1011000009940895209178023091790228173907BF
:1011100071F09093790280937802E0917A02F091D5
:101120007B02309721F00680F781E02D0994089525
:10113000E0917A02F0917B02309721F00190F081EA
:10114000E02D099480E00895FA01811101C0FB01AE
:101150000994089580917302982F9E7F29F48170DD
:1011600082608093730208958A34E8F38170886402
:10117000F8CFAF92BF92DF92EF92FF920F931F933F
:10118000CF93DF93082F162FE901E42FF0E0E55904
:10119000F94F611110C0E4915E2F4E2F4983E8830F
:1011A0005A83DF91CF911F910F91FF90EF90DF90C5
:1011B000BF90AF900895E62EF12C4491D42EE42FE9
:1011C000F0E026E0829FC00111242FEF30E0B9014A
:1011D0000E94322E802F90E0880F991F55E5569F70
:1011E000D001579FB00D11248A1B9B0B982F990F8C
:1011F000890F5901AE18BF08AE9ED001AF9EB00D49
:10120000BE9EB00D11245B2F189F80011124012F69
:1012100011275901A01AB10AAE9E8001AF9E100D90
:10122000BE9E100D11245901A81AB108AE9CC00130
:10123000AF9C900DBE9C900D1124892F9927281BDF
:10124000390B2E9FC0012F9F900D3E9F900D1124B2
:10125000E92F62307105A1F050F46115710509F4B0
:101260009DCF6130710581F0EB2F512F97CF643006
:10127000710569F080F06630710509F48FCFF4CF05
:10128000E42F4B2F592F8ACFE42F412F87CFEB2FFD
:10129000542F492F83CF4B2F5D2DE12F7FCF4091CE
:1012A0003902803F59F480913A0287FF0DC01092B5
:1012B0003A0241110BC01092320208C0813F81F402
:1012C00080913A0218169CF3442381F080913B02EE
:1012D00090913C02892B09F05AC010923002089577
:1012E000823F49F447FFF0CF1092390280913A02D1
:1012F0008111ECCFE0CF833F19F41416ACF3E4CFA7
:1013000090913B02893F29F41916F4F610923B02A2
:10131000DBCF8A3F19F497FFD7CFF8CF90913C02EB
:101320008B3F29F497FFD0CF10923C02CDCF8C3F5A
:1013300019F41916CCF3C8CF9CE0980F953090F4AF
:10134000845F990B21E030E0B90102C0660F771F7E
:101350008A95E2F7CB01809590913802892380939A
:101360003802B2CF8D3F31F4809131028E7F80936D
:101370003102AACF8E3F21F4809131028D7FF7CFC9
:101380008F3F09F0A1CF809131028B7FF0CF08957C
:101390008091310280FD16C081FD16C082FD16C00D
:1013A000809130028823A1F0883280F428E0829F67
:1013B000C001112468E270E00E94462E862F672B40
:1013C00039F0089582E0089584E0089588E0089552
:1013D00081E008958091310280FD14C081FD14C028
:1013E00082FD16C080913202882381F0843180F41E
:1013F00022E3829FC001112464E170E00E94462E26
:10140000862F08958CE0089589E1089585E0089578
:1014100082E30895803F31F40E94EA098195809328
:101420003A020895813F19F40E94EA09F8CF823FF9
:1014300031F40E94EA098195809339020895833F2F
:1014400019F40E94EA09F8CF893F29F40E94C809DB
:1014500080933B0208958A3F21F40E94C809819538
:10146000F7CF8B3F31F40E94C809819580933C02ED
:1014700008958C3F19F40E94C809F8CF9CE0980F9A
:10148000953070F4845F990B21E030E001C0220FA9
:101490008A95EAF780913802822B8093380208956A
:1014A0008D3F31F480913102816080933102089543
:1014B0008E3F21F4809131028260F7CF8F3FB9F7E0
:1014C000809131028460F1CFF894E82FE295EF70BB
:1014D000F0E031A1282F2F7081E090E001C0880F4B
:1014E0002A95EAF7982F9095932391A392A1892B9F
:1014F00082A3789408959091830292FF06C0282FCA
:1015000028712830F9F4877F846093FF06C0282F64
:1015100028712831F1F4877E84612091840220FFB4
:1015200006C0382F38713830D9F4877F816021FFA9
:1015300006C0282F28712831D1F4877E816194FD5F
:10154000877E0895282F24712430F9F68B7F8860D8
:10155000DCCF282F2471243101F78B7E8861DDCF09
:10156000382F3171313019F78E7F8860E0CF282F06
:101570002171213121F78E7E8861E1CFCF93DF93F6
:10158000EC0182389105A9F1D8F58133910509F470
:1015900096C048F58932910509F48AC08A9709F402
:1015A00095C0C11521E5D20708F0BCC0C11530E5D2
:1015B000D30708F014C1C83ED10508F09CC0C03E56
:1015C000D10560F5C83AD10508F087C0C53AD10504
:1015D00008F0FDC0C130D10509F12097F9F0C43001
:1015E000D105E0F440C08533910509F45AC0C9978C
:1015F000C1F680918302837089F0C0EED0E00EC006
:10160000833E910599F170F4803E910501F1823E8F
:10161000910539F68091830282FD21C0CE01DF91D0
:10162000CF910895863E910561F1873E910571F154
:10163000843E910509F0B5CF8091840281FFEECF01
:1016400080918302C7EED0E084FD0DC0E7CF80918A
:10165000830280FD12C19091840290FFDFCFC3EE20
:10166000D0E084FFDBCFD0E0C0E0D8CF8091830210
:1016700082FD06C19091840290FDBFCF84FFCECF42
:10168000F2CF8091830283FDDDCFC8CF80918302AA
:1016900083FDF9C09091840291FFF0CFC4EED0E0B9
:1016A000BDCF8091830285FFB9CFC9E2D0E0B6CF2C
:1016B0008091830285FFB2CFC5E3D0E0AFCF8091A8
:1016C000830286FFABCFCAE2D0E0A8CF809183022D
:1016D00086FFA4CFC1E3D0E0A1CFCF3BD10518F660
:1016E000C85AD0E0CC0FDD1FCE5DDE4F0990D88107
:1016F000C02DD46493CFC11540E2D40758F4C1156E
:1017000081E0D80708F08ACFC03FD10508F4ABCFFD
:10171000D06584CFC11590E4D90708F4A4CFDF7059
:10172000D06A7CCFC11525E5D20700F5C11534E597
:10173000D30708F08AC0C11543E5D40708F071C08B
:10174000C11582E5D80708F467C0CE0183709927D8
:1017500021E030E002C0220F331F8A95E2F7C695E0
:10176000C69580E2C89FE001112452C0C11599E5D9
:10177000D907A8F4C11528E5D20708F06BC0C11538
:1017800036E5D30708F06FCF8C2F0E947B0AC82F55
:10179000D0E0DC2FCC27CC27DF71D0623FCFC11542
:1017A0004AE5D40708F45BC0CE01905681159042FB
:1017B00008F059CF8D2F8F710E947B0A90E0982FEF
:1017C000882788279F719C012C2BE901E6CFC55AF9
:1017D000D0E0C15EDE4FC881D0E0D0641FCFCE0123
:1017E000E4E096958795EA95E1F783702C2F26958E
:1017F0002695237040E2249F90011124382B8C2FD2
:101800008370C1E0D0E002C0CC0FDD1F8A95E2F703
:10181000C22BD32BDC6802CFDC2FCC27C16FD06A60
:10182000FDCECE018370992721E030E002C0220F67
:10183000331F8A95E2F7C695C69590E2C99FE001ED
:101840001124C22BD32BDA68E9CEDC2FCC27C46F4E
:10185000D06AE4CEDC2FCC27C06FD06ADFCE8C2FCD
:101860008F700E947B0A34E0D695C7953A95E1F7D0
:10187000CF709C2FEC01D069D1CEC9E3D0E0CECEA1
:10188000C2EED0E0CBCEC6EED0E0C8CE80910F0243
:10189000811110920F02089580910A029091D9014E
:1018A000981301C008958F5F8770FACF2CE0929F44
:1018B000800D1124982F977086958695869523E044
:1018C000829FF0011124EF53FE4F50E040E080E092
:1018D000219130E0092E02C0369527950A94E2F74F
:1018E00021703327042E01C0220F0A94EAF7822BBD
:1018F0004F5F5F4F4330510559F708952CE0929F99
:10190000800D1124982F977041E001C0440F9A95E3
:10191000EAF786958695869593E0899FF0011124D4
:10192000EF53FE4F90E080E070E05191DF0111979E
:101930009B01082E02C0369527950A94E2F7217084
:1019400021952527242325272C9301968330910563
:1019500061F70895829590E09C01220F331F220FBA
:10196000331F2C7C95958795959587958373282BA8
:1019700030E0C901880F991F8A7A3595279525751A
:10198000822B08959FB7F894109289029FBF90917F
:10199000B002943009F048C02091E9002F703091D6
:1019A000EC00932F917030FD90E8922B25E020936E
:1019B000E9002091EB0020FF34C02091EE0027FFCA
:1019C00030C020918802222321F02091E80025FFD9
:1019D00028C01092880226E03091E80035FF14C03C
:1019E0008093F1008091E80085FD27C08091E80098
:1019F00080FFFCCF8091E8008E778093E8009F7095
:101A00009093E90080E008953091B002343049F4B9
:101A10003091EB0035FD05C0215041F481E0809309
:101A200088029F709093E9008FEF0895EFE9FFE03F
:101A30003197F1F700C00000CFCF8FB7F89421E0C5
:101A4000209389028FBFDBCF9091B002943029F5AB
:101A50008093850270938702609386029093E900D9
:101A60008FEF9091E800815095FD06C095ED9A9515
:101A7000F1F700008111F5CF8091E80085FF0DC0DE
:101A800050E040E063E070E085E892E00E941407D7
:101A90008091E8008E778093E8000895BC0184E08F
:101AA0000C94240DBC0183E00C94240D9C0184E073
:101AB0008093E9009FEF8091E800915085FD06C07A
:101AC00085ED8A95F1F700009111F5CF8091E8003E
:101AD00085FF0CC050E040E066E070E0C9010E9464
:101AE00014078091E8008E778093E8000895CF93E3
:101AF000DF93EC0180911E018823B1F18091830274
:101B000087FF32C060E284E08093E9008FEF90911C
:101B1000E800815095FD06C095ED9A95F1F700001B
:101B20008111F5CF8091E80085FF1BC080911E01D7
:101B300070E050E040E0811104C050E040E068E017
:101B400070E0CE010E9414078091E8008E778093A8
:101B5000E80080E2FE01AEE8B2E001900D928A95C5
:101B6000E1F7DF91CF91089568E081E0CDCF81E08A
:101B70008093E00080E28093D8001092C9008FE14A
:101B80009EE40197F1F700C0000087E090EBDC01D4
:101B90008093BE029093BF02A093C002B093C10293
:101BA00088E19CE00FB6F894A895809360000FBE82
:101BB00090936000FFCF8091730280FD0AC0E9E43A
:101BC000F2E0118210821282339652E0E337F50779
:101BD000C1F76A9A3EB13B7F2EB124604FB7F894AB
:101BE00089E492E0FC015191CF0168E02EB9000038
:101BF00000C057FF3EB9550F000000C000C000C034
:101C00003EB900C06A9591F7F2E083379F0751F71C
:101C10004FBF8FE594E00197F1F700C000000895F1
:101C2000EF92FF920F931F93CF93DF938C01C9E440
:101C3000D2E0F12CE12CF801948160917502809141
:101C40007402F7E0EF16F104FCF49923F9F09E0119
:101C5000409176020E94B9082FEFE21AF20A239609
:101C60008EE0E816F10439F70E94DB0DF80184815B
:101C700090E00196817099278483DF91CF911F9125
:101C80000F91FF90EF900895992309F39E0140E092
:101C9000E1CF8F929F92AF92BF92CF92DF92EF925D
:101CA000FF920F931F93CF93DF93EC014C81042F8E
:101CB00010E09801D8010E94912E9B01AC010E9476
:101CC000A72E4B015C01E0E2F0E0E01BF10BA5E583
:101CD000B0E0AC019B010E94A72E6B017C019F012B
:101CE000DF010E94892E9B01AC010E94B22E9B0154
:101CF000AC01280D391D4A1D5B1DC701B6010E94AC
:101D00005A2EF22E822F90E039E23F15D8F143E0AF
:101D1000249F9001112435952795122F109599E451
:101D2000C92E92E0D92E00E085E5E82EEF188E2D21
:101D300001FD8F2D9601412F609175020E94B90817
:101D40000F5F53E0C50ED11C0E3089F70E94DB0DEA
:101D50009C8181E0992319F0903219F48FEF8093E0
:101D60001D0180911D01890F8C83DF91CF911F91FF
:101D70000F91FF90EF90DF90CF90BF90AF909F902A
:101D80008F90089525E530E0A901481B590BCA0141
:101D90009A01220F331F280F391F37FFBCCF2F5F47
:101DA0003F4FB9CF0F931F93CF93DF93C9E4D2E096
:101DB000FE01118210821282339682E0E337F80727
:101DC000C1F710E000E080914702082E000C990B4B
:101DD000081719078CF180911C01082E000C990B33
:101DE000801791074CF19E01409176026091750237
:101DF000809174020E94B9080F5F1F4F23960E3026
:101E0000110509F70E94DB0D80911B01909147029B
:101E1000980F9093470220911C01280F20931C01DA
:101E2000121614F49D301CF0819580931B01DF91F4
:101E3000CF911F910F910895198218821A82DCCFD9
:101E4000BF92CF92DF92EF92FF920F931F93CF93A7
:101E5000DF93FC018281DD24DA9480FD02C0DD2461
:101E6000D39409E412E0D0E0C0E02EE0B22EF801F5
:101E700011821082128294E0E92EF12CC12C809103
:101E800046028C0D8F300CF43DC06B2D0E94242E29
:101E9000892F082E000C990B8C179D0791F48091C7
:101EA00076028E9DA0018F9D500D1124559547956A
:101EB00055954795980160917502809174020E9432
:101EC000B908CD0CF1E0EF1AF108C9F621960D5FC3
:101ED0001F4FCE30D10559F60E94DB0D809146028E
:101EE00091E0D91215C0811111C08DE08093460296
:101EF000DF91CF911F910F91FF90EF90DF90CF90E6
:101F0000BF90089587FFC5CF825FC3CF8150EECFCA
:101F100090E00196BE010E94462EE8CFEF92FF921C
:101F20001F93CF93DF93EC0189E4E82E82E0F82E33
:101F300010E08C8197014091760260917502810FCB
:101F40000E94B9081E5E83E0E80EF11C1C3F89F771
:101F50000E94DB0D9A818C8190FF08C08F5F8C837B
:101F6000DF91CF911F91FF90EF9008958150F7CFAF
:101F70009091730290FF0CC0E9E4F2E081836083EA
:101F80004283339692E0E337F907C1F70C94DB0DF7
:101F900008950F931F93CF93DF9300D00F92CDB787
:101FA000DEB78C018091480281110AC09E012F5F2B
:101FB0003F4F4FEF6FEF0E94B9088A81809348022C
:101FC000F8016481613069F08091480240E0662345
:101FD00061F040E0623011F44091480280E060E03E
:101FE00004C06091480240E080E00E94B80FF80110
:101FF000848190E0019663E070E00E94462E848325
:102000000F900F900F90DF91CF911F910F91089536
:10201000CF93DF9300D00F92CDB7DEB790917302CC
:1020200090FF0AC09E012F5F3F4F0E94B9084B816D
:1020300069818A810E94B80F0F900F900F90DF91F5
:10204000CF910895CF93DF93EC01E3E7F2E0438172
:1020500062818C810E9408108C818F5F8C83DF915C
:10206000CF910895CF93DF93EC01EC81F0E0E15B39
:10207000F74F4491E3E7F2E0628181810E9408100A
:102080008C818F5F8C83DF91CF910895CF93DF9305
:10209000C7EAD1E060E0CE010E94CE2E2196C115A4
:1020A00084E0D807B9F7DF91CF9108956F927F92BE
:1020B0008F929F92AF92BF92CF92DF92EF92FF9258
:1020C0000F931F93CF93DF938FE4C82E89E0D82E10
:1020D0009FE9E92EF12CE701C056D10936011BC05A
:1020E000F50185909490692DC8010E94CE2E682D2F
:1020F000C80101960E94CE2E82E0A80EB11C0E5F90
:102100001F4FC017D10761F788E1680E711C6896F0
:10211000CE15DF0529F08E01085111095301E0CFDA
:102120007E0180E6E80EF11C80E6C80ED11C8FE12E
:10213000E81682E0F80679F6DF91CF911F910F91B2
:10214000FF90EF90DF90CF90BF90AF909F908F90D7
:102150007F906F900895CF93C82F6FEF811161E248
:1021600083E290E00E94CE2E6FEFC11169E084E21D
:1021700090E00E94CE2E6FEFC11166E085E290E004
:10218000CF910C94CE2E80E00E94AB1060E086E2EE
:1021900090E00E94CE2E0E9456100E94461081E0D0
:1021A0000C94AB10CF93C92F682F84E090E00E946D
:1021B000CE2E6C2F82E290E0CF910C94CE2E0F9316
:1021C0001F93CF93DF93C42FD0E0CC0FDD1F28E106
:1021D000629FC00DD11D112430E6839FC00DD11D1B
:1021E0001124CE0187960E94BA2E082F10E0102FDE
:1021F0000027CE0188960E94BA2E9801282BC9018B
:10220000DF91CF911F910F910895462F843038F4BC
:10221000743028F46C3018F4672F0C94DF1090E0C1
:1022200080E00895CF92DF92FF920F931F93CF9398
:10223000DF936C010091BD0280911002082BC7E072
:10224000D0E010E0FC2EC8010C2E02C095958795B9
:102250000A94E2F780FD0CC02197A0F7F12C8F2D96
:10226000DF91CF911F910F91FF90DF90CF90089554
:10227000B6018C2F0E9405110E94BE0A019761F3DE
:10228000EECFCF93DF93EC010E941211BE010E94AA
:102290000511DF91CF910C94BE0AFC0180819181E0
:1022A0000E944111292F2F7092959F7092509E305D
:1022B00078F4E92FF0E0EA5BFF4C0C947C2E803F31
:1022C00019F020F4883E20F481E00895843FE1F382
:1022D00080E00895883EC0F3813FD1F7F5CF822F8B
:1022E000869586958695089583E290E00E94BA2EA1
:1022F000813289F484E290E00E94BA2E893059F448
:1023000085E290E00E94BA2E91E0863009F090E0DC
:10231000892F8170089580E0FCCFCF9384E090E016
:102320000E94BA2EC82F82E290E00E94BA2E982F07
:102330008C2FCF910895109245028091430280FF27
:1023400008C086E398E09F938F930E94BB060F908E
:102350000F9008958091430283FF7EC088E496E049
:102360000E942206809138021F928F9383E496E0A8
:102370009F938F930E94BB0681E496E00E94220601
:1023800080913902282F082E000C330B3F938F9336
:102390008EE396E09F938F930E94BB068CE396E0BA
:1023A0000E94220680913A02282F082E000C330B3F
:1023B0003F938F9389E396E09F938F930E94BB0690
:1023C00087E396E00E94220680913B02282F082E88
:1023D000000C330B3F938F9384E396E09F938F938E
:1023E0000E94BB0682E396E00E94220680913C0296
:1023F000282F082E000C330B3F938F938FE296E02B
:102400009F938F930E94BB068CE296E00E94220667
:10241000809132021F928F9389E296E09F938F936F
:102420000E94BB0687E296E00E942206809131025C
:102430001F928F9384E296E09F938F930E94BB0636
:1024400081E296E00E9422068DB79EB74C960FB6A9
:10245000F8949EBF0FBE8DBF0E9460089C019091B2
:10246000390280913A02982B21F030933602209362
:10247000350290913B0280913C02982B21F03093E1
:10248000340220933302E0917A02F0917B0230977C
:1024900049F082E0809337020480F581E02D87E3E4
:1024A00092E009940895EF92FF920F931F93CF93B8
:1024B000DF9380910E0290910D02892B90910C0276
:1024C000892B8093A00190910F029923B1F0892B61
:1024D0008093A00180911E01882309F45DC0809142
:1024E000830287FF59C08EE1E2EAF1E090E081507B
:1024F00008F054C091110E94460CE0917A02F091CC
:102500007B02309709F450C080911E01882359F056
:102510008091830287FF07C08091A0018093A10171
:1025200085E08093A0010280F381E02D80EA91E0B4
:1025300009958091430282FF37C080FF04C088EB79
:1025400093E00E942206C0EAD1E088EAE82E81E00A
:10255000F82E02EB13E08091430280FF0BC08881CC
:102560001F928F931F930F930E94BB060F900F90A3
:102570000F900F902196EC16FD0669F780914302AB
:1025800080FF12C080EB93E0DF91CF911F910F91FC
:10259000FF90EF900C94220686E0A6CF2191222393
:1025A00009F4A5CF9F5FA3CFDF91CF911F910F912A
:1025B000FF90EF90089590E080E00E94820890E004
:1025C00080E00E946C0810920D0210920C020E9492
:1025D000531286E0E7E3F2E0DF011D928A95E9F706
:1025E0001092320210923002109231020C94AA1111
:1025F0008093BD020C94DB128091BD02982F9670DF
:10260000963019F488600C94F812877FFCCF21E093
:1026100030E001C0220F8A95EAF720958091BD0233
:1026200082230C94F81290910B0280958923809359
:102630000B02282F277039F4282F082E000C330B9B
:102640009217130621F49091840292FF07C085959A
:10265000859585950E94071310920B02089521E03D
:1026600030E001C0220F8A95EAF78091BD02822BEB
:102670000C94F812809310020C94DB12882341F022
:10268000809590910E02892380930E020C94531230
:102690000895882339F090910E02982B90930E02A2
:1026A0000C9453120895CF93C82F8091840282FB1B
:1026B000992790F99C17D1F0C0FB82F9809384028E
:1026C00080918302909184020E94D21080914302F3
:1026D00080FF0CC01F92CF938BE993E09F938F9361
:1026E0000E94BB060F900F900F900F90CF9108950E
:1026F00090911E01992359F19091830297FF27C071
:10270000E82FE695E695E695EE3180F4F0E0E056A8
:10271000FE4F282F277081E090E001C0880F2A9596
:10272000EAF78095928189238283089590914302EC
:1027300090FF19C01F928F938DE793E09F938F9323
:102740000E94BB060F900F900F900F900895E2EA41
:10275000F1E09191891303C0DF0111971C9291E080
:10276000E83AF907B1F7089590911E01992349F1CC
:102770009091830297FF25C0E82FE695E695E695B0
:10278000EE3170F4F0E0E056FE4F877021E030E06B
:1027900001C0220F8A95EAF78281822B82830895F5
:1027A0009091430290FF1EC01F928F938FE593E09C
:1027B0009F938F930E94BB060F900F900F900F90E6
:1027C0000895A2EAB1E0EFEF90E02D91821751F069
:1027D000EF3F19F4211101C0E92F9F5F9630A9F74F
:1027E000EF3F09F408950E2E000CFF0BE056FE4F4C
:1027F000D5CF882309F459C0823871F40E94980813
:1028000081FF53C089E30E94B4130E94531289E3ED
:102810000E9478130C945312833859F40E9498083C
:1028200080FF43C083E50E94B4130E94531283E5E6
:10283000EFCF843859F40E94980882FF36C087E4AD
:102840000E94B4130E94531287E4E2CF9CEF980FCA
:10285000913AF0F290E2980F983088F4877021E076
:1028600030E0A90102C0440F551F8A95E2F7CA0162
:10287000809590910E02892380930E02CBCF9BE529
:10288000980F933020F490E080E00C94820898E553
:10289000980F973120F490E080E00C946C08803F12
:1028A00020F00E944F090C94AA110895CF93C82FCD
:1028B000882309F4AFC08238C1F40E94980881FDD2
:1028C000A9C089E30E94B4130E9453122FEF81EE36
:1028D00094E0215080409040E1F700C0000089E37F
:1028E0000E947813CF910C9453128338A1F40E9464
:1028F000980880FD8FC083E50E94B4130E94531294
:102900002FEF81EE94E0215080409040E1F700C02D
:10291000000083E5E5CF8438A1F40E94980882FD89
:1029200079C087E40E94B4130E9453122FEF81EE06
:1029300094E0215080409040E1F700C0000087E41F
:10294000CFCF8CEF8C0F813A90F580911E018823B8
:1029500001F18091830287FF1CC0EC2FE695E6957C
:10296000E695F0E0E056FE4F828190E04C2F4770F4
:1029700021E030E002C0220F331F4A95E2F78223A4
:102980009323892B81F08C2F0E9478130E9453127D
:102990000AC0E2EAF1E088EA91E02191C21799F3D6
:1029A0008E179F07D1F78C2F0E94B4139BCF80E224
:1029B0008C0F883068F4C77021E030E001C0220F2E
:1029C000CA95EAF780910E02822B80930E028ACF7D
:1029D000EBE5EC0FE33040F4F0E0E15EFE4F808188
:1029E00090E0CF910C948208E8E5EC0FE73150F4C9
:1029F000F0E0EE0FFF1FEE5DFE4F80819181CF91E1
:102A00000C946C08C03F30F08C2F0E940A0ACF91C2
:102A10000C94AA11CF9108951F93CF93DF93182F91
:102A2000D0E0C0E0893311F4C0E5D0E0812F0E94EE
:102A30005614209731F4812FDF91CF911F910C9480
:102A4000F9138FE99FE00197F1F700C0000021978B
:102A5000F0CF0F931F93CF93DF93C62FD42F022F66
:102A6000FC0182818823A1F06093BC020E9460086F
:102A70009093BB028093BA02C77081E001C0880FB7
:102A8000CA95EAF7DF91CF911F910F910C944913EA
:102A90008091BC02681335C08091BA029091BB024C
:102AA0000E945108883C910560F510E21D0FCD177A
:102AB000B9F080E28C0F883040F4C77081E001C02B
:102AC000880FCA95EAF70E943E13183048F481E057
:102AD0009D2F977001C0880F9A95EAF70E944913BD
:102AE000802F0E940C15183098F4D77081E001C037
:102AF000880FDA95EAF7DF91CF911F910F910C942F
:102B00003E13C77081E001C0880FCA95EAF7F3CF82
:102B1000DF91CF911F910F910895CF92DF92EF92A5
:102B2000FF926B017C010E94AA08B701A60188E010
:102B300090E0FF90EF90DF90CF900C94E02E2F92DA
:102B40003F924F925F926F927F928F929F92AF923D
:102B5000BF92CF92DF92EF92FF920F931F93CF938A
:102B6000DF9300D000D000D0CDB7DEB7582E262E90
:102B7000342E2E839091730290FF47C0E92FE69583
:102B8000AE2FB0E0A05ABE4F8C91809344029E7F3E
:102B9000923009F053C09E012F5F3F4F852D0E9458
:102BA000B9084B8169818A810E94B80F50927402E2
:102BB00020927502309276028E81882309F49FC09C
:102BC0006091730270917402809175029091760207
:102BD0000E948D158091430280FF17C0809176027C
:102BE0001F928F93809175021F928F938091740230
:102BF0001F928F9385EE97E09F938F930E94BB0661
:102C00000FB6F894DEBF0FBECDBF26960FB6F89470
:102C1000DEBF0FBECDBFDF91CF911F910F91FF900F
:102C2000EF90DF90CF90BF90AF909F908F907F906C
:102C30006F905F904F903F902F900895823019F4DD
:102C400030907602B3CF863019F450907402AECF34
:102C50008930D9F3893109F0A9CFE9518E2F8170DC
:102C60008C838E2F809581708D83E695F0E0EF5CEC
:102C7000F74FE590F490FF2489E4C82E82E0D82E27
:102C8000B12CA12C10E000E09EE0692E712C2AE00E
:102C9000822E28E0922EC501B3010E94322E9C8123
:102CA000452C91112AC0460E8091430280FF12C02C
:102CB000FF92EF921F928D818F931F924F921F93DD
:102CC0000F939F928F920E94BB060FB6F894DEBFBF
:102CD0000FBECDBF9601432D622D842D0E94B908F1
:102CE0000F5F1F4FAE0CBF1C93E0C90ED11C0E30FE
:102CF000110589F60E94DB0D59CF461AD5CF809178
:102D0000430280FF82CF1F923F921F922F921F9209
:102D10005F928EEB97E070CFE3E7F2E0438128E02B
:102D2000421B08F440E021E0628181810C949F15F0
:102D3000E3E7F2E0438128E0420F08F44FEF21E09F
:102D4000628181810C949F15E3E7F2E0628128E0C3
:102D5000621B08F460E021E0438181810C949F159F
:102D6000E3E7F2E0628128E0620F08F46FEF21E010
:102D7000438181810C949F15E3E7F2E0818121E09A
:102D80004381628188500C949F15E3E7F2E08181D2
:102D900021E043816281885F0C949F1580917702C6
:102DA000882319F0815080937702609173027091AB
:102DB000740280917502909176020C948D15809129
:102DC0007702833018F48F5F8093770260917302EB
:102DD0007091740280917502909176020C948D1519
:102DE0009091730290FF68C0917081113CC0926015
:102DF000909373026623F1F16091730270917402F3
:102E000080917502909176020E948D158091430207
:102E100080FF0FC08091730286951F928F9382EA84
:102E200097E09F938F930E94BB060F900F900F9097
:102E30000F9060917302669570E04BE050E080E186
:102E400091E00E942A30892B09F10E949B1181E0B8
:102E50008093400220E0409176026091750280915B
:102E600074020C949F15853210F09864C1CF880FBE
:102E7000982BBECF8091430280FFDBCF80917302FD
:102E800086951F928F9384E897E0CBCF81E0809363
:102E900045020E94600890933E0280933D0280911B
:102EA000430280FFD4CF8BE697E09F938F930E94DD
:102EB000BB060F900F90CBCF08958091730286953B
:102EC000815009F484E261E00C94F0168091730261
:102ED00086958F5F853208F081E061E00C94F016F2
:102EE0009091730290FF07C09695981720F096175F
:102EF00010F40C94661761E00C94F016E3E7F2E02E
:102F000083E0808311828FEF8283838314826081C8
:102F10007181828193810C948D1569EE7EEF90E032
:102F200080E00E94EC2E60E082E090E00E94CE2ED5
:102F300060E083E090E00E94CE2E1092100260E0EC
:102F400084E090E00E94CE2E60E082E290E00E9459
:102F5000CE2E60E085E090E00E94CE2E60E086E01C
:102F600090E00E94CE2E6FEF87E090E00E94CE2E80
:102F700040E050E0BA0188E090E00E94E02E60E07E
:102F80008DE090E00E94CE2E40E050E0BA0188E152
:102F900090E00E94E02E60E087E190E00E94CE2E5B
:102FA00040E050E0BA018CE190E00E94E02E70E039
:102FB00060E080E290E00E94EC2E40E050E0BA0138
:102FC00088E190E00E94E02E80E00E94AB100E9419
:102FD000C31040E050E0BA018FE090E00E94E02E84
:102FE00040E050E0BA0183E190E00C94E02E2F9293
:102FF0003F924F925F926F927F928F929F92AF9289
:10300000BF92CF92DF92EF92FF920F931F93CF93D5
:10301000DF93CDB7DEB728970FB6F894DEBF0FBEAB
:10302000CDBFAE014F5F5F4F6A0188E0DA011D92AC
:103030008A95E9F700E511E07A01AA24A394B12C5E
:10304000F80181918F018F3F09F44BC0F894E82F6C
:10305000E295EF70F0E021A18F70A50102C0440F4E
:10306000551F8A95E2F7CA01922F982B91A392A13E
:103070008095892382A3789400C0E4E5F1E030E0F4
:1030800020E0912C812C81918F3F09F4ACC0A82FB6
:10309000A295AF70B0E090964C9150E08F7002C056
:1030A000559547958A95E2F740FD9DC0C501022ED2
:1030B00002C0880F991F0A94E2F7882A992A2F5F85
:1030C0003F4F2C303105F9F6F801319780818F3F61
:1030D00011F00E94640A50EA5A95F1F7D7018D92D7
:1030E0009C92B2E0EB0EF11CE1E004351E0709F002
:1030F000A7CF48E050E0B60186E192E00E94373069
:103100008C01FF24F394892B09F4F12C011511058E
:1031100041F088E0F601A6E1B2E001900D928A95B7
:10312000E1F750901302552009F46AC00E9460082C
:103130002091110230911202AC01421B530B9A01F3
:1031400090931202809311024F3F510511F008F045
:103150004DC0452B09F444C0E22E10921302209179
:10316000140230911502E8E2F2E066E172E0390102
:1031700050E3650E711C412C88248394912C190115
:1031800050E040E0D101DD901D01DD20D1F0CD0106
:103190000197ED1470F1DC011C92C080D180DB013D
:1031A0008D919C918C259D255401042E02C0AA0C62
:1031B000BB1C0A94E2F78A219B218C259D259183D3
:1031C00080834F5F5F4F4C305105E1F6245F3F4FE6
:1031D00032966E5F7F4F6216730689F64092130235
:1031E000012BB1F44DC090E080E067CF2FEF30E0CD
:1031F000B3CFDE18DC01DC92452CE3CF108233C064
:10320000012BF1F10E946008909312028093110249
:10321000209114023091150260911302A6E1B2E0F0
:1032200088E2C82E82E0D82EAA24A394B12C75E09F
:103230004D915D91F601819191916F014827592738
:10324000F90190E080E08501082E02C0000F111FF7
:103250000A94E2F704231523012B81F21081111146
:1032600002C0708361E0319601968C30910559F768
:10327000245F3F4FF2E0AE31BF07D1F660931302F7
:103280008F2D28960FB6F894DEBF0FBECDBFDF910D
:10329000CF911F910F91FF90EF90DF90CF90BF9053
:1032A000AF909F908F907F906F905F904F903F90E6
:1032B0002F90089590E080E00E94C82E893E9E4F96
:1032C00011F40C94741180E0089510920E02809114
:1032D0001E01E2EAF1E0882359F08091830287FF22
:1032E00007C08EE1DF011D928A95E9F70C94DB128D
:1032F00086E0F8CF1F93CF93DF93CDB7DEB7AA97C1
:103300000FB6F894DEBF0FBECDBF82EB92E02091E6
:10331000F100DC012D93CD01B2E08A3B9B07B9F7A8
:103320008091B302833009F471C0B8F4813009F49C
:1033300048C0823009F4B2C08091E80083FF8EC299
:103340008091B2029091B3029A3008F087C2E92FBF
:10335000F0E0EC5AFF4C0C947C2E8A3009F48DC0BE
:103360008B3009F470C0893039F78091B202813214
:1033700019F78091B6029091B702009711F0029769
:10338000D9F68091E800877F8093E8008091E8007B
:1033900082FF37C09091F3008091F200029729F4E8
:1033A0008091F1008B7F813021F48091F100809336
:1033B0008D028091E8008B778093E8000E943E07A1
:1033C000BBCF8091B202813A09F0B6CF8091E8007C
:1033D000877F8093E8008091B6029091B702892B95
:1033E00061F460E28EE892E070E00E94F007809164
:1033F000E8008B778093E8009FCF60E090E080E06A
:10340000F3CF8091B0028111C1CF96CF8091B202EB
:10341000813A09F091CF8091B6029091B702892B41
:1034200009F08ACF8091E800877F8093E80080913F
:10343000E80080FFFCCF80911E018093F100809115
:10344000E8008E77B9CF8091B202813209F074CF53
:103450008091B6029091B702892B09F06DCF8091CF
:10346000E800877F8093E8000E943E078091B402C5
:1034700080931E010E9465195FCF8091B202813254
:1034800009F05ACF8091E800877F8093E8000E947E
:103490003E078091B50280938C024ECF8091B2029C
:1034A000813A09F049CF8091E800877F8093E80056
:1034B0008091E80080FFFCCF80918C02BECF8038E5
:1034C00099F0823809F0CAC18091B6028F708730B6
:1034D00008F0C4C18093E9008091EB0085FB882748
:1034E00080F91092E90006C08091AE029091AF027F
:1034F000911182609091E800977F9093E80080930B
:10350000F1001092F1008091E8008E77A3C188232A
:1035100009F491C1823009F0A1C18091B4028111F6
:1035200094C18091B6028F702FEF280F263008F0DB
:1035300095C18093E9002091EB0020FF86C1933074
:1035400031F48091EB0080628093EB007EC190911A
:10355000EB0090619093EB0021E030E001C0220F7E
:103560008A95EAF72093EA001092EA008091EB0036
:103570008860EACF811172C11091B4021F778091E7
:10358000E3008078812B8093E3008091E800877FBF
:103590008093E8000E943E078091E80080FFFCCF06
:1035A0008091E30080688093E30082E0111183E062
:1035B0008093B00253C18058823008F04FC12091EF
:1035C000B4023091B5022C3DE3E03E07A1F583E063
:1035D0008A838AE289834FB7F894DE01139620E04C
:1035E0003EE051E2E32FF0E050935700E49120FFDA
:1035F00003C0E295EF703F5FEF708E2F90E0EA30EE
:10360000C0F0C7968D939D932F5F243159F74FBF1C
:103610008091E800877F8093E8006AE270E0CE0145
:1036200001960E94F0078091E8008B778093E80074
:1036300015C1C096E7CF8091B6029091B702432F93
:1036400055274330510509F44AC078F541305105FA
:1036500009F47AC08BE790E0E3EEFAE042305105DE
:1036600009F0FCC02091E800277F2093E80020911A
:10367000B8023091B9028217930708F49C0140E028
:103680002115310509F065C0411163C08091E80042
:1036900082FDC9CF8091B002882329F2853019F2CA
:1036A0008091E80083FFF2CFBECF4132510509F48B
:1036B0003CC04232510509F0D1C08430910508F078
:1036C000CDC0FC01EE0FFF1FE757FE4F0190F081C8
:1036D000E02D8B579E4FDC018C9190E01AC0332770
:1036E00021303105D1F02115310561F0223031054D
:1036F00009F0B4C0E0E7FBE0E4918E2F90E0E0E752
:10370000FBE007C0E6E9FBE0E4918E2F90E0E6E9FC
:10371000FBE0009709F4A2C0A5CFE4E8FBE0E49148
:103720008E2F90E0E4E8FBE0F4CF8430910508F0C0
:1037300095C0880F991FFC01EF56FE4F0190F08154
:10374000E02D89E090E08ECF82E190E0EEE5FBE0B5
:1037500089CF8091B002882309F465CF853009F4C0
:1037600062CF8091E80083FD5ECF8091E80082FD0A
:103770008DCF8091E80080FF83CF9091F3008091FE
:10378000F2002115310519F08830910550F041E023
:10379000089709F040E08091E8008E778093E80078
:1037A0006FCF44914093F100319621503109019639
:1037B000E8CF803809F052C08091E800877F80937D
:1037C000E8008091B1028093F1009DCE811146C046
:1037D0001091B402123008F041C08091E800877F58
:1037E0008093E8001093B1020E943E07112311F06C
:1037F00084E005C08091E30087FDFACF81E08093EB
:10380000B00242E061EC81E00E945D0742E261ECBF
:1038100084E00E945D0742E261EC82E00E945D0765
:1038200042E260EC83E00E945D0742E261EC85E0E9
:103830000E945D0713C08091B402813079F481E069
:10384000933009F080E08093AF021092E9008091FC
:10385000E800877F8093E8000E943E078091E8009F
:1038600083FF0AC08091E800877F8093E800809101
:10387000EB0080628093EB00AA960FB6F894DEBF4F
:103880000FBECDBFDF91CF911F9108953F924F9210
:103890005F926F927F928F929F92AF92BF92CF92E0
:1038A000DF92EF92FF920F931F93CF93DF9300D09D
:1038B00000D00F92CDB7DEB78C01FC0183819481DB
:1038C000892B31F08081918189238F3F09F0C9C50F
:1038D0000F900F900F900F900F90DF91CF911F914D
:1038E0000F91FF90EF90DF90CF90BF90AF909F909F
:1038F0008F907F906F905F904F903F9008950E94BF
:103900001211F82E682F89819A810E947E0C69819C
:103910007A818F2D0E9405117C01F8018281882314
:1039200009F465C5970122513F452031310508F062
:103930008BC58FEF93E00E94BA2EFEEEEF0E57EA92
:10394000852E99249394882381F180910B028770AE
:1039500009F4BECFF8018281882309F4B9CF82E04F
:103960000F900F900F900F900F90DF91CF911F91BC
:103970000F91FF90EF90DF90CF90BF90AF909F900E
:103980008F907F906F905F904F903F900C941313A7
:10399000811424E09206C9F2C4010E94BA2E81115A
:1039A00001C0EA943FEF831A930AE110F1CF1C8221
:1039B0001B82442443944AE0342E74018FEFE81AAA
:1039C000F80AC4010E94BA2E89831A82882309F456
:1039D000BCCF9FEF980F933000F58A83498292E025
:1039E000890E911CC7010E94BA2E8B83882309F48B
:1039F000ACCFFE0131967F01F70120812223E9F24D
:103A0000213009F049C091818281913041F4F2E086
:103A1000EF0EF11C0E940C1509C04701EACF92304D
:103A200049F422E0E20EF11C0E9456143FEFE31A23
:103A3000F30AE2CF933031F432E0E30EF11C0E943E
:103A4000F913F4CF943021F08FEFE81AF80AEECF93
:103A500092E0E90EF11C30E020E0B7016F5F7F4F8C
:103A6000F70141818053990B8A30910550F0215024
:103A70003109E0F28FE99FE00197F1F700C0000003
:103A8000F6CF329EF001339EF00D11249C012E0FD3
:103A90003F1F842F7B01E1CFE22FF0E0EA5EFD4F74
:103AA0005490822F86958695869590E0FC01EA5F7A
:103AB000FD4F64902770712C022E02C0759467949C
:103AC0000A94E2F7E1E06E227724FC01EA50FE4F0F
:103AD000A490B12C022E02C0B594A7940A94E2F7E8
:103AE000F1E0AF22BB24FC01EA51FE4FC490D12C7F
:103AF00002C0D594C7942A95E2F721E0C222DD24C2
:103B00006114710419F081EE0E945614A114B104DD
:103B100019F086EE0E945614852D0E940C15AB28D4
:103B200019F086EE0E94F913672819F081EE0E94C1
:103B3000F913CD2809F47ACF8CE26CCF81E00E9492
:103B40002F1303C081E00E9407130E94FC12FDCED8
:103B500082E0F9CF95EFE9169CE5F90609F462C019
:103B600008F45CC027E245EE66EEF6EFEF16FCE5E2
:103B7000FF0609F465C4882309F484C41092BC02CA
:103B800022E0E2162CE5F20608F445C136E1E31620
:103B90003CE5F30630F0C7018A5F9C45099708F0C1
:103BA0003AC10E948D11909384028093830280E138
:103BB000E8168CE5F80609F4FDC008F07CC0E8E0E2
:103BC000EE16ECE5FE0609F4E7C008F048C024E074
:103BD000E2162CE5F20609F4D7C058F582E0E816A3
:103BE0008CE5F80609F4CAC080918302826093E0F4
:103BF000E9169CE5F90609F4C4C08091830290910E
:103C000084020E94D2100E9465199FCE27E245EEE1
:103C100065EE16C426E241EE60EE12C427E245EEE0
:103C200064EE0EC426E241EE62EE0AC428E241E0F0
:103C3000EFCF809183028061E6E0EE16ECE5FE06B0
:103C400009F49FC0809183028860F7E0EF16FCE5DD
:103C5000FF0608F496C080918302806292C0809132
:103C600083028D7F2CE0E2162CE5F20609F489C070
:103C700060F48AE0E8168CE5F80609F497C008F4C9
:103C80008FC0809183028E7F7CC080918302877F6A
:103C9000EEE0EE16ECE5FE0609F473C080918302B7
:103CA0008B7FFFE0EF16FCE5FF0608F46AC0809109
:103CB00083028F7E66C02BEFE2162CE5F20609F434
:103CC00067C068F583E1E8168CE5F80609F47AC068
:103CD00090F4E1E1EE16ECE5FE0609F46FC0F2E1C6
:103CE000EF16FCE5FF0609F088CF0E946519809168
:103CF00083028F7746C025E1E2162CE5F20609F42F
:103D000069C008F47DC08AEFE8168CE5F80609F072
:103D100074CF809184028160809384026ECF9FEF84
:103D2000E9169CE5F90609F451C0A0F480918402DB
:103D30008D7FFDEFEF16FCE5FF0671F380918402A5
:103D40008E7F2EEFE2162CE5F20630F3809184028E
:103D50008360E2CF31E0E3163DE5F30609F459C094
:103D600008F444C060E092E0E9169DE5F90609F028
:103D700044CF8EE090E00E94CE2E3FCF8091830210
:103D800081608093830239CF809183028460F9CF70
:103D9000809184028260C0CF809183028064F1CFE1
:103DA0000E946519809183028068EBCF8091830225
:103DB0008C60E7CF809183028F7DE3CF8091830277
:103DC0008F7BDFCF80918302837FDBCF8091840262
:103DD0008C7FA2CF8091830282FB992790F921E00A
:103DE000922790FB82F990FB83F9CBCF80918402DC
:103DF000982F909591708E7F892B90FB81F98CCFB5
:103E00000E94651990918302892F97FB87F980584A
:103E1000B8CF61E0AECF80910E02E6E1EE16ECE5A0
:103E2000FE0609F03CC38A7A91E009F490E0909391
:103E3000C001811106C089E20E94B4130E9453128E
:103E400084CD85E3F9CF85E327C38091430280FFCA
:103E500010C080917302809581701F928F9385E0CE
:103E600093E09F938F930E94BB060F900F900F904B
:103E70000F908091730280FF2EC08E7F809373021B
:103E80006091730270917402809175029091760234
:103E90000E948D158091430280FF0FC080917302B4
:103EA00081701F928F9386E992E09F938F930E9477
:103EB000BB060F900F900F900F900E949B11FFEF89
:103EC00020E732E0F15020403040E1F700C0000030
:103ED0000E94DB0D3ACD8160809373028091430292
:103EE00080FF0DC01F9281E08F938EEC92E09F9334
:103EF0008F930E94BB060F900F900F900F908091B0
:103F0000730261E086950E94F0161FCD4DE557E1E2
:103F100066E677E10E94A40818CD46E657E16DE514
:103F200077E1F8CF45EC56E16CEB76E1F3CF44EA6C
:103F300056E160EB76E1EECF4CE856E168E976E1D8
:103F4000E9CF48E956E16CE876E1E4CF4FED56E180
:103F50006EEC76E1DFCF61E081E0D5CF65E082E015
:103F60000E947017F2CC68E086E0FACF64E18FE03F
:103F7000F7CF67E185E1F4CF62E289E1F1CF61E05B
:103F800083E2C1CF2BE5E2162DE5F206C9F13CE54F
:103F9000E3163DE5F30651F18AE5E8168DE5F806EE
:103FA00009F0AFC281E029C00E9465199FEFE4E3E8
:103FB000FCE09150E040F040E1F700C000000E94BA
:103FC000B70D90914302892F8E7F90FF816080937F
:103FD000430280FF05C08EE493E00E942206B5CC28
:103FE0008CE393E0FACF0E948D17AFCC80918402CE
:103FF00082FB882780F991E089270E94531381C2B0
:1040000080E0FBCFC7010E94560CD82E89C22F2D0D
:104010002F70C22E8F2D807F19F0C29490EFC9228D
:10402000DD20C9F0CC2069F080E28E0D883010F0E0
:1040300081100BC080910E02C82AC0920E020E940D
:1040400053128E2D0E94561419C080910D02C82A59
:10405000C0920D02F4CF8E2D0E94F913CC2071F086
:10406000C09480E28E0D883010F081103DC08091A8
:104070000E02C822C0920E020E945312292D28500F
:10408000330B2430310510F40E949808AA2009F45B
:104090001FCC80910B0280FD1BCCF801128285950C
:1040A000859585950E942F13C8010E94461C80911A
:1040B0000B028595859585950F900F900F900F9029
:1040C0000F90DF91CF911F910F91FF90EF90DF90B4
:1040D000CF90BF90AF909F908F907F906F905F90A8
:1040E0004F903F900C94071380910D02C822C0920C
:1040F0000D02C2CF3F2D3F70B32E8F2D807F8032B7
:1041000019F0B29480EFB822882071F081E088160F
:1041100081F1DD20D9F1CC2091F1F801858180FF7A
:1041200090CF8F7085832BC0DD20B1F090910F026E
:104130008B2D892BC11003C00E9449139FCFE1E052
:10414000CE12FACF2091840222FD98CF891709F46C
:1041500095CF80930F0292CFC11006C00E94460CEB
:104160008B2D0E943E138ACFF1E0CF1609F486CF43
:10417000F5CFDD2031F025E02C1508F47FCF8B2D15
:10418000DBCF34E03C1508F479CFEACFCC2041F303
:10419000F9E38F1209C02FEF37EE83E02150304052
:1041A0008040E1F700C000008E2D0E94F91366CF19
:1041B0008F2D86958695837061F0813009F05ECFF2
:1041C000C7019370D11002C090E080E00E946C089B
:1041D00055CFC7019370D11002C090E080E00E94DB
:1041E00082084CCF8E2DDD2029F00E940A0A0E9401
:1041F000AA1144CF0E944F09FACF8F2D837091F5F9
:10420000D1103CCF4E2D429546954770440F440F38
:104210008E2D8F70042E01C0880F0A94EAF72E2D80
:104220002071E4FE07C02FE030E001C0220F4A9564
:10423000EAF720953F2D369536953370323069F088
:1042400050F440911002313029F0822B84230E94D7
:104250003A1314CF842B822BFACF282B8091100293
:104260008227F5CF8695DD2011F08F2D8170882370
:1042700009F404CF4E2D429546954770440F440FE4
:104280008E2D8F70042E01C0880F0A94EAF72E2D10
:104290002071E4FE07C02FE030E001C0220F4A95F4
:1042A000EAF720953F2D369536953370323069F018
:1042B00050F44091BD02313029F0822B84230E94BA
:1042C000F812DCCE842B822BFACF282B8091BD02F2
:1042D0008227F5CF9F2D9F70F92EDD2029F0892FA1
:1042E0000E942F138E2D28CF8E2D0E943E138F2DCE
:1042F0000E940713C3CE8E2DE2EF8E1609F44BC039
:10430000E81570F0F0EF8F1639F121EF8216D9F130
:10431000DD2009F45CC0C11094CE8F2D8F7138C0A0
:1043200033EF8316E9F194EF8912F2CFDD2009F41F
:1043300043C02F2D2F71F22E822F0E942F138091B8
:10434000840282FD07C038E0F39EC001112483601F
:1043500080930B028F2D1CC0DD2081F0E4E0EC1572
:1043600008F48CCE2F2D2F7181E090E001C0880FD2
:104370002A95EAF79091BD028927A1CFF5E0FC15B7
:1043800008F47CCEEFCF8F2D8F71DD2009F4B0CFF4
:104390000E942F1373CE8F2D8F71DD20C9F3A8CF0C
:1043A00080E0DD2009F48BCF9F2D9F7181E001C05B
:1043B000880F9A95EAF783CF81E00E94131381E07A
:1043C0008C1508F05BCE82E00E94131357CECC20F0
:1043D00059F0893309F0E8CE9FEFE7EEF3E0915012
:1043E000E040F040E1F7DECE8F2D8F7181CFF0E11C
:1043F000EF16FFE5FF0609F4A5CB21E1E2162FE554
:10440000F20609F4A5CB93EFE9169CE5F90609F449
:1044100001CC08F09FCBF8EDEF16FCE5FF0609F4A0
:10442000F5CB29EDE2162CE5F20609F4FFCB37EDCA
:10443000E3163CE5F30609F09ECB26E241EE61EE81
:10444000C8010E94291581CA30E1E3163FE5F30651
:1044500009F474CB91E1E9169FE5F906A1F682E033
:104460006ECB85E0DE01119601900D928A95E1F701
:10447000F801228189819A81211141CA0E94560C3A
:10448000F82E45CAF6E1EF16FCE5FF06D1F580915E
:10449000C0018111D8CC89E20E947813CFCC8272FE
:1044A0002CECE2162CE5F20609F450CD08F0A7C07A
:1044B00096ECE9169CE5F90609F434CD08F076C0CF
:1044C000F3ECEF16FCE5FF0609F420CD08F05DC023
:1044D00032ECE3163CE5F30609F4B7CC8EEDE816B2
:1044E0008CE5F80609F47FCD08F04CCDE114ECE53D
:1044F000FE0609F459CDF1E0EF16FCE5FF0609F4DC
:1045000060CDF8018281E080F180882309F47ACDC2
:10451000C7010E941211D82E682FC7010E947E0C7D
:10452000B7018D2D0E9405110E94BE0A7C01882EC4
:10453000F801D280C580C2943FE0C32280910B0273
:104540008770A1F0AD2CDD2091F08F2D807F80341D
:1045500021F080E28E0D883048F082E00E94131333
:1045600080910B028770AA24A3948111A12C9F2C07
:1045700092942FE09222FBE0F91508F47FCDE92D0B
:10458000F0E0E25AFF4C0C947C2E94ECE9169CE58A
:10459000F90609F4C2CC4CEB56E165EC76E1E5ECAA
:1045A000EE16ECE5FE0609F4B5CC98CFF9ECEF1663
:1045B000FCE5FF0609F4C0CC88F437ECE3163CE5D3
:1045C000F30609F4B4CC40EB56E164EA76E198ECEA
:1045D000E9169CE5F90609F49DCC80CFEAECEE16CD
:1045E000ECE5FE0609F4ADCC4EEC56E16FED76E15C
:1045F000FBECEF16FCE5FF0609F48CCC6FCF21ED48
:10460000E2162CE5F20609F4B1CCB8F48EECE8160B
:104610008CE5F80609F4A2CC08F49DCCEFECEE167C
:10462000ECE5FE0609F49FCC6EE089E0F0EDEF16B4
:10463000FCE5FF0609F494CC51CF24EDE2162CE5FD
:10464000F20609F499CC78F482EDE8168CE5F806C8
:1046500009F48FCC61E088E193EDE9169CE5F90659
:1046600009F451CC3BCFE5EDEE16ECE5FE0609F47E
:1046700086CCFDE5EF16FF0609F467C92FCF1F931F
:10468000CF93DF938091D801807FA9F48091D501E9
:10469000882389F080910A02D091D9016091D301D9
:1046A0007091D401A091D601B091D701C62FC72334
:1046B00016E0D81304C0DF91CF911F91089590E0C8
:1046C000109711F0CF3F19F401968770F2CF189F21
:1046D0009001199F300D1124F901E652FE4F4181DE
:1046E0004713F2CF40814613EFCF42814111ECCF07
:1046F000438154814A1B5B0B483C510528F780914C
:10470000D8018F7080618093D801F901E152FE4F8A
:1047100080818F708061808383ED91E00E94461CD0
:10472000DF91CF911F910C944C0CAF92BF92CF921E
:10473000DF92EF92FF920F931F93CF93DF93CDB74A
:10474000DEB761970FB6F894DEBF0FBECDBF8C0108
:1047500085E0F801DE011D9601900D928A95E1F742
:10476000F801E28083EDA82E81E0B82E6091D60199
:104770007091D7016115710509F432C19091D3018F
:104780004091D401892F84238F3F09F429C12081CE
:104790003181C380D480F090D501F601E61BF70B80
:1047A000FF2009F4E8C08091D801582F507FE83CE1
:1047B000F10508F0ABC0511177C0FE2C431321C0A6
:1047C00092131FC0E1101DC08F7080618093D801CB
:1047D000C5010E94461C8091D801F80185838F2D68
:1047E00061960FB6F894DEBF0FBECDBFDF91CF91BB
:1047F0001F910F91FF90EF90DF90CF90BF90AF90FF
:104800000895CD2829F0822F83238F3F09F003C11B
:1048100080E0F82FF170DF2E80FF3CC080910A020B
:104820004091D90156E0841315C02D873E878D85B0
:104830009E850E944111292F22952F702230F0F081
:10484000243018F59F70F1F0F8019581907FD1F434
:10485000D12C1EC090E0589FF001599FF00D1124FB
:10486000E652FE4F6181361306C06081261303C0F5
:104870006281E6120FC001968770D5CF9F7011F04C
:10488000882331F3805E883018F3C8010E94461CEB
:10489000FD2CA5CFEE2009F4A2CF8091D801816034
:1048A0008093D801F12C9BCF431306C0921304C010
:1048B000F801EE2009F479C0C8010E944D11882347
:1048C00009F1EE20F9F08091D801803270F020914A
:1048D000D3013091D40138872F831986DB86CA86AD
:1048E0008C87CE0107960E94461C86E0F801A3ED56
:1048F000B1E001900D928A95E1F70E943F23FF24D9
:10490000F3946DCFC8010E94461CF9CF51110AC023
:1049100083ED91E00E94461C86E0F50111928A9594
:10492000E9F7C0CF43130FC092130DC0E1100BC0C5
:10493000F8018583C8010E94461C86E0F5011192AA
:104940008A95E9F74CCFC8010E944D118823D1F216
:10495000EE20C1F28091D801803238F22091D3014B
:104960003091D4013A8329831B82DD82CC828E83ED
:10497000CE010196B8CFE83CF105F8F6FE2CEE200A
:1049800009F243131FC092131DC08091D80180FD0E
:1049900010C0982F907F69F0F8018583903F31F027
:1049A000982F907F905F8F70892B8583C8010E941C
:1049B000461C86E0F801A3EDB1E001900D928A95C6
:1049C000E1F70DCFC8010E944D1181118ECF80916A
:1049D000D80181608093D801C8010E94461CFFCE97
:1049E000EE2009F48FCFC8010E944D11F82E8823C4
:1049F00009F488CF86E0F801A3EDB1E001900D92B3
:104A00008A95E1F78091D3019091D4010E944111E0
:104A10000E943F23E4CE81E08E25FBCE1F93CF93EF
:104A2000DF93CDB7DEB767970FB6F894DEBF0FBE42
:104A3000CDBF4B8B5C8B6D8B7E8B8F8B61111092FE
:104A40000D021A8A198A85E0FE017396DE011D9611
:104A500001900D928A95E1F786E0FE013D96DE0118
:104A6000179601900D928A95E1F7CE0107960E9464
:104A70009523811112C086E0FE013796DE01119662
:104A800001900D928A95E1F78A859B85892B29F003
:104A900088859F8189238F3FB1F516E080910A02B6
:104AA0009091D90189131DC067960FB6F894DEBFA7
:104AB0000FBECDBFDF91CF911F91089596E0929FD9
:104AC000D001939FB00D1124A652BE4FFE01319626
:104AD00001900D929A95E1F78093D9010E944C0CB8
:104AE000DCCF819FC001112486529E4F0E949523E6
:104AF0008823D1F280910A0290E00196877099276D
:104B000080930A02CBCF2091D90130E0C9010196F0
:104B10008770992740910A024817190679F60E9472
:104B200065191092D90110920A0286E0E3EDF1E0D6
:104B3000DF011D928A95E9F7B0CF1F920F920FB651
:104B40000F9211242F933F934F935F936F937F9313
:104B50008F939F93AF93BF93CF93DF93EF93FF9385
:104B6000D091E900DF708091EC00C82FC17080FD0A
:104B7000C0E81092E9008091F000877F8093F000F8
:104B800078940E947A191092E9008091F000886070
:104B90008093F000CD2BCF70C093E900FF91EF918F
:104BA000DF91CF91BF91AF919F918F917F916F9145
:104BB0005F914F913F912F910F900FBE0F901F90DB
:104BC00018951F920F920FB60F9211242F933F93B7
:104BD0004F935F936F937F938F939F93AF93BF9305
:104BE000EF93FF938091E10082FF15C08091E20076
:104BF00082FF11C08091E1008B7F8093E1002091C2
:104C00008A022F5F822F62E30E94182E992309F4F3
:104C1000BEC020938A028091DA0080FF28C0809174
:104C2000D80080FF24C08091DA008E7F8093DA0064
:104C30008091D90080FFE1C080E189BD82E189BD1A
:104C400009B400FEFDCF81E08093B0028FEC9AE0C2
:104C50000E94220680918B02811109C00E94C40625
:104C60000E948F078091E20084608093E20080912F
:104C7000E10080FF1BC08091E20080FF17C080919F
:104C8000E2008E7F8093E2008091E2008061809359
:104C9000E2008091D80080628093D80019BC85E042
:104CA0008093B00287ED9AE00E9422068091E10095
:104CB00084FF2DC08091E20084FF29C080E189BD7E
:104CC00082E189BD89B5982F917080FFFBCF8091DB
:104CD000D8008F7D8093D8008091E1008F7E8093F3
:104CE000E1008091E2008F7E8093E2008091E200FB
:104CF00081608093E2008091B102882309F487C02B
:104D000084E08093B0028BED9AE00E9422068091AD
:104D1000E10083FF2BC08091E20083FF27C08091D8
:104D2000E100877F8093E10082E08093B0021092DF
:104D3000B1028091E1008E7F8093E1008091E200DA
:104D40008E7F8093E2008091E20080618093E20098
:104D500042E060E080E00E945D078091F0008860A2
:104D60008093F0008FED9AE00E942206FF91EF9170
:104D7000BF91AF919F918F917F916F915F914F9173
:104D80003F912F910F900FBE0F901F90189510928A
:104D90008A0280918902882309F43DCF8091B00274
:104DA0008430C1F49091E9009F702091EC00822F33
:104DB000817020FD80E8892B95E09093E900909127
:104DC000EB0090FF04C09091EE0097FD08C08F703B
:104DD0008093E900109289021ECF1092F100909109
:104DE000E80095FDFACF9091E80090FFF0CF909108
:104DF000E8009E779093E800EACF19BC1092B002C9
:104E000083ED9AE00E94220610928B0230CF8091AF
:104E1000E30087FD93E09093B00275CF78941F92E2
:104E20001FB61F9211248F939F93AF93BF938091CE
:104E30007F0290918002A0918102B091820201963E
:104E4000A11DB11D80937F0290938002A0938102E7
:104E5000B0938202BF91AF919F918F911F901FBE1F
:104E60001F9018951F921FB61F9211248F939F9326
:104E7000AF93BF9380917E02811113C080917F0216
:104E800090918002A0918102B09182024196A11D71
:104E9000B11D80937F0290938002A0938102B09312
:104EA0008202BF91AF919F918F911F901FBE1F9063
:104EB0001895CDB7DEB7AC970FB6F894DEBF0FBE2E
:104EC000CDBF84B7877F84BF0FB6F894A895809133
:104ED0006000886180936000109260000FBE80E8DF
:104EE00090E00FB6F89480936100909361000FBE3C
:104EF00085B7806885BF85B7806885BF82EC9CE0F8
:104F000090939B0180939A010E94C4060E948F0790
:104F10008091E20084608093E20078948091B002F6
:104F20008823A1F01091E9001F709091EC00892F67
:104F3000817090FD80E8182B1092E9008091E800C4
:104F400083FD0E947A191F701093E90082E084BDEE
:104F500093E095BD9AEF97BD80936E000E94741107
:104F6000811102C00E94C31080E90E94640A81E995
:104F70000E94640A82E90E94640A83E90E94640A2A
:104F800004E511E050E6E52E51E0F52EF80181919F
:104F90008F018F3F11F00E94640AE016F106B1F70D
:104FA00010921702109216021092290210922802F3
:104FB000109219021092180210922B0210922A02DB
:104FC00010921B0210921A0210922D0210922C02C3
:104FD00010921D0210921C0210922F0210922E02AB
:104FE00080E390E00E94022FAC0190931502809321
:104FF000140230E020E0FA01E20FF31F90E011927A
:105000009F5F9C30E1F7245F3F4F2033310599F7D4
:105010000E945A19811102C00E948D1782E090E00F
:105020000E94BA2E809343020E948D1190938402B5
:10503000809383020E94F7178FE39CE90197F1F7B1
:1050400000C000000E94F7178091280280FF08C06E
:105050006FEF7FEF90E080E00E94EC2E0E94B70D92
:1050600083E090E00E94BA2E0E943A136E9A769ADC
:1050700080911E028111DDC08091430280FF14C027
:105080008CE095E09F938F930E94BB068091430232
:105090000F900F9080FF08C086EF94E09F938F934E
:1050A0000E94BB060F900F900E945A19811110C0E8
:1050B0008091430280FF08C08EEC94E09F938F9311
:1050C0000E94BB060F900F900E948D170E947E17C2
:1050D00088E090E00E94C22E609373027093740285
:1050E00080937502909376026E7FD1F48091430293
:1050F00080FF08C085E894E09F938F930E94BB06D1
:105100000F900F900E947E1788E090E00E94C22EC0
:105110006093730270937402809375029093760289
:105120000E94AA088091430280FF76C08CE694E03A
:105130009F938F930E94BB06809143020F900F9024
:1051400080FF6AC08091730281701F928F938FE4F9
:1051500094E09F938F930E94BB06809143020F902F
:105160000F900F900F9080FF57C08091730286952B
:105170001F928F9384E394E09F938F930E94BB06CA
:10518000809143020F900F900F900F9080FF44C0CA
:10519000809174021F928F938AE194E09F938F9382
:1051A0000E94BB06809143020F900F900F900F90CA
:1051B00080FF32C0809175021F928F9380E094E04F
:1051C0009F938F930E94BB06809143020F900F9094
:1051D0000F900F9080FF20C0809176021F928F93D6
:1051E00086EE93E09F938F930E94BB0680914302CB
:1051F0000F900F900F900F9080FF0EC0809177025C
:105200001F928F938AEC93E09F938F930E94BB062B
:105210000F900F900F900F901092450280917302A3
:1052200080FF04C060E086950E94F01681E08093C4
:105230001E028091830280688093830280918302A2
:10524000909184020E94D21086E091E090937B02BC
:1052500080937A0283E295E00E9422068091B00258
:10526000853079F48DE196E00E94220600E112E19A
:105270008091B002853009F4E0C10E9465190E9456
:1052800098080E94F717882359F08FB7F894409137
:105290007F025091800260918102709182028FBFE3
:1052A00030E2E32E32E0F32EE8E2F2E0FCA7EBA7D7
:1052B000712C612C46E3242E45E0342EEBA5FCA591
:1052C000C190D190FCA7EBA7F701A190B1907F010D
:1052D000AC14BD04D1F18091430281FDEAC1512C8F
:1052E00001E010E045018C249D245701F2E0AF1A43
:1052F000B108C40180239123892B09F159A26AA224
:1053000021E0C60180239123892B09F420E02BA3FF
:105310000E9460088160782F9DA38CA349A15AA1A7
:105320006BA18DA10E940E25F501808191818027BE
:105330009127918380837394FBE0F715E0F05394F9
:10534000000F111F2CE05212D4CF639444E064127A
:10535000B5CF711010C08FEF8EA38FA318A60E9437
:1053600060088160782F9AA789A74EA15FA168A5E0
:105370008AA50E940E25809145028823D1F1809153
:105380004402E0917302E695E81BE0933F0282300D
:1053900009F0C6C1F0E0E759FA4FE4910E2F10E092
:1053A00082E3E82E80E1F82E80914002882361F0AC
:1053B000109240020E94600890933E0280933D024A
:1053C00010924202109241020E946008E0913D0258
:1053D000F0913E028E1B9F0B8F3F9F4750F4E00FD2
:1053E000F11FF0933E02E0933D028DE392E0F7015E
:1053F000099586E0E7E3F2E0DE01119601900D9257
:105400008A95E1F7F0903902E0903A0210913B0260
:1054100000913C021092390210923A0210923B0223
:1054200010923C028F2D8E2909F448C080913502DC
:10543000909136020E9451089C019091320299236A
:1054400009F4F1C323333105C8F19F3F19F09F5F81
:1054500090933202FF2059F00E94EA099FEF1F1437
:105460000CF491E0899F802D112480933902EE2065
:1054700059F00E94EA099FEF1E140CF491E0899FF5
:10548000802D112480933A02309139023323B1F0F8
:1054900020913A02222391F045EB3403C0011124FC
:1054A000992309F497C19093390245EB24039001A5
:1054B0001124332309F492C130933A02812F802BB7
:1054C00009F448C080913302909134020E9451083F
:1054D0009C0190913002992309F4A0C3253631052F
:1054E000C8F19F3F19F09F5F90933002112359F04C
:1054F0000E94C8099FEF11160CF491E0899F802D3E
:10550000112480933B02002359F00E94C8099FEFA9
:1055100010160CF491E0899F802D112480933C0299
:1055200030913B023323B1F020913C02222391F0D1
:1055300045EB3403C0011124992309F453C190931E
:105540003B0245EB240390011124332309F44EC19F
:1055500030933C028091390290913A02892B9091CC
:105560003B02892B90913C02892B11F00E94AA11D9
:1055700086E0FE013196A7E3B2E001900D928A9594
:10558000E1F70E94980890911F02891739F10E9453
:105590009808182F80931F028091430282FF1EC03B
:1055A00080FF1CC084E795E00E94220680914302A0
:1055B00080FF14C01F921F938FE695E09F938F93F7
:1055C0000E94BB06809143020F900F900F900F90A6
:1055D00080FF04C08DE695E00E9422068091B00213
:1055E000843009F03BCE83E08093E9008091E800AD
:1055F00082FF34CE8091E80090E085FF0CC00E94CD
:10560000E30630E2E32EF12C8E010F5F1F4F88235B
:1056100009F4FAC091E08091E8008B778093E8006C
:10562000992309F41BCEE981E150E33108F072C1FE
:10563000F0E0E659FF4C0C947C2E8091B00284304F
:1056400021F110927E02E8E1F0E020E40FB6F89438
:10565000A895E09360000FBE2093600083B7817F20
:10566000846083BF83B7816083BF7894889583B754
:105670008E7F83BF0FB6F894A895809160008861F3
:1056800080936000109260000FBE8091AF0288236B
:1056900009F4EECD0E94F717E8E2F2E081919191D2
:1056A000892B09F09CC280E392E08E179F07B1F727
:1056B000DFCD84E495E00E94220628E2822E22E0DB
:1056C000922E10E000E01F930F938FE395E09F93DD
:1056D0008F930E94BB068CE395E00E942206F401A2
:1056E00080814180F2E08F0E911C0E94AA0C582EFE
:1056F000842D0E94AA0C5F928F933F922F920E945A
:10570000BB0684E395E00E9422060F5F1F4F0FB691
:10571000F894DEBF0FBECDBF04301105A1F6DFCD7A
:10572000863059F4F0E0EA59FA4FE4910E2F10E078
:10573000B2E2EB2EB0E1FB2E37CE893061F4E69574
:10574000F0E0ED59FA4FE4910E2F10E0AEE8EA2EAA
:10575000AFE0FA2E29CE8F3061F4E695F0E0E05A02
:10576000FA4FE4910E2F10E0F0E2EF2EFFE0FF2E53
:105770001BCE853159F4F0E0E35AFA4FE4910E2F35
:1057800010E0E2EDEE2EEEE0FE2E0ECE08E210E08E
:1057900059E4E52E5EE0F52E883109F405CE83321A
:1057A00049F4EBE5F5E00591149179ECE72E7FE003
:1057B000F72EFACD04EF11E060E1E62E6EE0F62E52
:1057C000843209F4F1CD00ED17E049EAE42E48E017
:1057D000F42EEACD81E08093390267CE81E0809398
:1057E0003A026CCE81E080933B02ABCE81E08093A5
:1057F0003C02B0CE8091F100F80181938F01F1E07D
:10580000EF1AF10809F406CF8091E80085FDF2CF88
:105810008091E8008B778093E8000E94E30688235C
:1058200099F3F8CE1A8289E08B833FC08A81823057
:1058300009F4EBC18330A9F0813009F06BC02FB7B8
:10584000F89460917F027091800280918102909122
:1058500082022FBF0E94822E6B837C838D839E8366
:1058600024C080912802909129029827892798279F
:105870009C838B8380912A0290912B029827892701
:1058800098279E838D8380912C0290912D029827DA
:105890008927982798878F8380912E0290912F02D5
:1058A0009827892798279A8789878091B002843022
:1058B00009F0D4CC1091E9001F709091EC00892F71
:1058C000817090FD80E8182B82E08093E900809140
:1058D000E80080FF0DC050E040E060E270E0CE01E3
:1058E00001960E9414078091E8008E778093E8006B
:1058F0001F701093E900B2CC8A81823059F46B8119
:105900007C818D819E810E94822E86E290E00E94A1
:10591000CE2ECBCF8FEF8983C8CF4C816B818A810C
:105920000E94DF109827892798279E838D83BDCFFB
:105930000D811E811027012710278A81EB8028E125
:10594000E29E7001112440E6849FE00CF11C1124BA
:105950008C8190E0880F991FE80EF91E612FC70116
:1059600087960E94CE2E602FC7018896D0CF0E94C6
:1059700056109BCF8A818138C9F060F4803809F0D5
:1059800094CF20E04B8160917502809174020E9457
:105990009F158BCF823809F44CC0833809F085CF2E
:1059A00020E0409176026C818B81F1CF60E08B81A9
:1059B0000E94F0162B819091430280917302211175
:1059C0001FC08E7F8093730290FF0CC01F921F92A6
:1059D00087E895E09F938F930E94BB060F900F90EE
:1059E0000F900F900E949B118FEF90E7E2E08150A3
:1059F0009040E040E1F700C000000E94DB0D55CF71
:105A000081608093730290FF0DC01F9281E08F939D
:105A100081EC95E09F938F930E94BB060F900F90AF
:105A20000F900F908091730260E086950E94F016AF
:105A30003CCF8B81809377029091430290FF35CFCA
:105A40001F928F938AEF95E09F938F930E94BB06DE
:105A50000F900F900F900F9028CF8A81813899F086
:105A600030F4803809F021CF80917602DDCE823883
:105A700091F0833809F019CF809174028B83809163
:105A800075028C8312CF8091730280FF02C08695CD
:105A9000CBCE80E0C9CE80917702C6CE60917302F2
:105AA0007091740280917502909176020E948D151A
:105AB000FCCE80E18A83F9CE82E08A8389E5B4CE88
:105AC0000A811B81102701271027CE0101967C0136
:105AD000CC80FC01EC0DF11D6F01C80189559E4F72
